{
  "contractName": "GameControllerProxy",
  "abi": [
    {
      "inputs": [
        {
          "internalType": "contract IWETH",
          "name": "wethAddress",
          "type": "address"
        },
        {
          "internalType": "contract IGameController",
          "name": "gameControllerAddress",
          "type": "address"
        }
      ],
      "stateMutability": "nonpayable",
      "type": "constructor"
    },
    {
      "anonymous": false,
      "inputs": [
        {
          "indexed": false,
          "internalType": "address",
          "name": "user",
          "type": "address"
        },
        {
          "indexed": false,
          "internalType": "uint256",
          "name": "amountETH",
          "type": "uint256"
        }
      ],
      "name": "OnMintHeroNFTWithETH",
      "type": "event"
    },
    {
      "anonymous": false,
      "inputs": [
        {
          "indexed": true,
          "internalType": "address",
          "name": "previousOwner",
          "type": "address"
        },
        {
          "indexed": true,
          "internalType": "address",
          "name": "newOwner",
          "type": "address"
        }
      ],
      "name": "OwnershipTransferred",
      "type": "event"
    },
    {
      "inputs": [],
      "name": "WETH",
      "outputs": [
        {
          "internalType": "contract IWETH",
          "name": "",
          "type": "address"
        }
      ],
      "stateMutability": "view",
      "type": "function",
      "constant": true
    },
    {
      "inputs": [],
      "name": "owner",
      "outputs": [
        {
          "internalType": "address",
          "name": "",
          "type": "address"
        }
      ],
      "stateMutability": "view",
      "type": "function",
      "constant": true
    },
    {
      "inputs": [],
      "name": "renounceOwnership",
      "outputs": [],
      "stateMutability": "nonpayable",
      "type": "function"
    },
    {
      "inputs": [
        {
          "internalType": "address",
          "name": "newOwner",
          "type": "address"
        }
      ],
      "name": "transferOwnership",
      "outputs": [],
      "stateMutability": "nonpayable",
      "type": "function"
    },
    {
      "inputs": [],
      "name": "ApproveToGameController",
      "outputs": [],
      "stateMutability": "nonpayable",
      "type": "function"
    },
    {
      "inputs": [
        {
          "internalType": "uint256",
          "name": "teamId",
          "type": "uint256"
        }
      ],
      "name": "MintHeroNFTWithETH",
      "outputs": [],
      "stateMutability": "payable",
      "type": "function",
      "payable": true
    }
  ],
  "bytecode": "0x608060405234801561001057600080fd5b50604051610a8a380380610a8a83398101604081905261002f91610163565b61003833610077565b600180546001600160a01b038085166001600160a01b03199283161790925560028054928416929091169190911790556100706100c7565b50506101c6565b600080546001600160a01b038381166001600160a01b0319831681178455604051919092169283917f8be0079c531659141344cd1fd0a4f28419497f9722a3daafe3b4186f6b6457e09190a35050565b60015460025460405163095ea7b360e01b81526001600160a01b0391821660048201526b204fce5e3e25026110000000602482015291169063095ea7b3906044016020604051808303816000875af1158015610127573d6000803e3d6000fd5b505050506040513d601f19601f8201168201806040525081019061014b919061019d565b50565b6001600160a01b038116811461014b57600080fd5b6000806040838503121561017657600080fd5b82516101818161014e565b60208401519092506101928161014e565b809150509250929050565b6000602082840312156101af57600080fd5b815180151581146101bf57600080fd5b9392505050565b6108b5806101d56000396000f3fe6080604052600436106100555760003560e01c8063715018a61461005a5780638da5cb5b14610071578063a2ca9bc7146100a7578063ad5c4648146100bc578063c1914c94146100dc578063f2fde38b146100ef575b600080fd5b34801561006657600080fd5b5061006f61010f565b005b34801561007d57600080fd5b506000546001600160a01b03165b6040516001600160a01b03909116815260200160405180910390f35b3480156100b357600080fd5b5061006f610123565b3480156100c857600080fd5b5060015461008b906001600160a01b031681565b61006f6100ea3660046107bf565b6101aa565b3480156100fb57600080fd5b5061006f61010a3660046107d8565b61067e565b6101176106f4565b610121600061074e565b565b60015460025460405163095ea7b360e01b81526001600160a01b0391821660048201526b204fce5e3e25026110000000602482015291169063095ea7b3906044016020604051808303816000875af1158015610183573d6000803e3d6000fd5b505050506040513d601f19601f820116820180604052508101906101a79190610808565b50565b6000336002546040516362bcb16560e01b81526001600160a01b038084166004830152929350600092909116906362bcb16590602401602060405180830381865afa1580156101fd573d6000803e3d6000fd5b505050506040513d601f19601f820116820180604052508101906102219190610808565b15156001146102a657600260009054906101000a90046001600160a01b03166001600160a01b031663d03961786040518163ffffffff1660e01b8152600401602060405180830381865afa15801561027d573d6000803e3d6000fd5b505050506040513d601f19601f820116820180604052508101906102a1919061082a565b6102a9565b60005b9050803410156103145760405162461bcd60e51b815260206004820152602b60248201527f4572726f72204d696e744865726f4e4654576974684554483a20696e76616c6960448201526a0c840ecc2d8eaca408aa8960ab1b60648201526084015b60405180910390fd5b8060000361038757600254604051634bb1a60960e11b81526001600160a01b03848116600483015260248201869052909116906397634c1290604401600060405180830381600087803b15801561036a57600080fd5b505af115801561037e573d6000803e3d6000fd5b5050505061058c565b6001546040516370a0823160e01b81523060048201526000916001600160a01b0316906370a0823190602401602060405180830381865afa1580156103d0573d6000803e3d6000fd5b505050506040513d601f19601f820116820180604052508101906103f4919061082a565b9050600160009054906101000a90046001600160a01b03166001600160a01b031663d0e30db0836040518263ffffffff1660e01b81526004016000604051808303818588803b15801561044657600080fd5b505af115801561045a573d6000803e3d6000fd5b50506001546040516370a0823160e01b81523060048201526001600160a01b0390911693506370a0823192506024019050602060405180830381865afa1580156104a8573d6000803e3d6000fd5b505050506040513d601f19601f820116820180604052508101906104cc919061082a565b6104d6828461079e565b10156105245760405162461bcd60e51b815260206004820152601760248201527f4572726f723a20537761702045544820746f2057455448000000000000000000604482015260640161030b565b600254604051634bb1a60960e11b81526001600160a01b03858116600483015260248201879052909116906397634c1290604401600060405180830381600087803b15801561057257600080fd5b505af1158015610586573d6000803e3d6000fd5b50505050505b600061059834836107b3565b90508015610636576000836001600160a01b03168260405160006040518083038185875af1925050503d80600081146105ed576040519150601f19603f3d011682016040523d82523d6000602084013e6105f2565b606091505b50509050806106345760405162461bcd60e51b815260206004820152600e60248201526d08ae4e4dee440e4cae0c2f28aa8960931b604482015260640161030b565b505b604080516001600160a01b0385168152602081018490527fb3e0374e90fcfea936dbeac00415afaa3529c6f9b4cb2466eddd9e0a5cdba19f910160405180910390a150505050565b6106866106f4565b6001600160a01b0381166106eb5760405162461bcd60e51b815260206004820152602660248201527f4f776e61626c653a206e6577206f776e657220697320746865207a65726f206160448201526564647265737360d01b606482015260840161030b565b6101a78161074e565b6000546001600160a01b031633146101215760405162461bcd60e51b815260206004820181905260248201527f4f776e61626c653a2063616c6c6572206973206e6f7420746865206f776e6572604482015260640161030b565b600080546001600160a01b038381166001600160a01b0319831681178455604051919092169283917f8be0079c531659141344cd1fd0a4f28419497f9722a3daafe3b4186f6b6457e09190a35050565b60006107aa8284610859565b90505b92915050565b60006107aa828461086c565b6000602082840312156107d157600080fd5b5035919050565b6000602082840312156107ea57600080fd5b81356001600160a01b038116811461080157600080fd5b9392505050565b60006020828403121561081a57600080fd5b8151801515811461080157600080fd5b60006020828403121561083c57600080fd5b5051919050565b634e487b7160e01b600052601160045260246000fd5b808201808211156107ad576107ad610843565b818103818111156107ad576107ad61084356fea264697066735822122000bce8e42f606bb090cabc1b766c8ecb57d81828ea2fe2588a0ae75073ecd04064736f6c63430008110033",
  "immutableReferences": {},
  "source": "// SPDX-License-Identifier: MIT\npragma solidity ^0.8.0;\n\nimport \"./interfaces/IGameController.sol\";\nimport \"@openzeppelin/contracts/utils/math/SafeMath.sol\";\nimport \"@openzeppelin/contracts/access/Ownable.sol\";\nimport \"@openzeppelin/contracts/token/ERC20/IERC20.sol\";\n\ninterface IWETH is IERC20\n{\n    function deposit() external payable;\n\n    function depositTo(address account) external payable;\n}\n\ncontract GameControllerProxy is Ownable\n{\n    using SafeMath for uint256;\n\n    IWETH public WETH;\n    IGameController GameControllerContract;\n\n    event OnMintHeroNFTWithETH(address user, uint256 amountETH);\n\n    constructor(IWETH wethAddress, IGameController gameControllerAddress)\n    {\n        WETH = wethAddress;\n        GameControllerContract = gameControllerAddress;\n\n        ApproveToGameController();\n    }\n\n    function ApproveToGameController() public  \n    {\n        WETH.approve(address(GameControllerContract), 10000000000e18);\n    }\n\n    function MintHeroNFTWithETH(uint256 teamId) public payable\n    {\n        address user = _msgSender();\n\n        // validate \n        uint256 priceCreditMint = (GameControllerContract.ListAddressMintFree(user) == true) \n                    ? 0 : GameControllerContract.PriceCreditMint();\n        \n        require(msg.value >= priceCreditMint, \"Error MintHeroNFTWithETH: invalid value ETH\");\n\n        // Mint heroNFT\n        if(priceCreditMint == 0)\n        {\n            GameControllerContract.MintHeroNFT(user, teamId);\n        }\n        else\n        {\n            uint256 oldBalanceWETHContract = WETH.balanceOf(address(this));\n            WETH.deposit{value: priceCreditMint}();\n            require(oldBalanceWETHContract.add(priceCreditMint) >= WETH.balanceOf(address(this)), \"Error: Swap ETH to WETH\");\n        \n            GameControllerContract.MintHeroNFT(user, teamId);\n        }\n        \n        uint256 repayETH = msg.value.sub(priceCreditMint);\n        if(repayETH > 0) \n        {\n            (bool success, ) = user.call{value: repayETH}(\"\");\n            require(success, \"Error repayETH\");\n        }\n        \n        emit OnMintHeroNFTWithETH(user, priceCreditMint);\n    }\n}",
  "sourcePath": "/Applications/projects/pixil-saga-contracts/contracts/GameControllerProxy.sol",
  "compiler": {
    "name": "solc",
    "version": "0.8.17+commit.8df45f5f.Emscripten.clang"
  },
  "schemaVersion": "3.4.11",
  "updatedAt": "2023-05-11T08:53:54.359Z",
  "networkType": "ethereum",
  "devdoc": {
    "kind": "dev",
    "methods": {
      "owner()": {
        "details": "Returns the address of the current owner."
      },
      "renounceOwnership()": {
        "details": "Leaves the contract without owner. It will not be possible to call `onlyOwner` functions anymore. Can only be called by the current owner. NOTE: Renouncing ownership will leave the contract without an owner, thereby removing any functionality that is only available to the owner."
      },
      "transferOwnership(address)": {
        "details": "Transfers ownership of the contract to a new account (`newOwner`). Can only be called by the current owner."
      }
    },
    "version": 1
  },
  "userdoc": {
    "kind": "user",
    "methods": {},
    "version": 1
  }
}