{
  "contractName": "GameController",
  "abi": [
    {
      "inputs": [
        {
          "internalType": "contract IHero",
          "name": "heroNFT",
          "type": "address"
        },
        {
          "internalType": "contract IRobot",
          "name": "robotNFT",
          "type": "address"
        },
        {
          "internalType": "contract ILearning",
          "name": "learningContract",
          "type": "address"
        },
        {
          "internalType": "contract IERC20",
          "name": "erc20CreditToken",
          "type": "address"
        }
      ],
      "stateMutability": "nonpayable",
      "type": "constructor"
    },
    {
      "anonymous": false,
      "inputs": [
        {
          "indexed": true,
          "internalType": "address",
          "name": "user",
          "type": "address"
        },
        {
          "indexed": true,
          "internalType": "uint256",
          "name": "heroId",
          "type": "uint256"
        }
      ],
      "name": "OnHeroNFTJoinedGame",
      "type": "event"
    },
    {
      "anonymous": false,
      "inputs": [
        {
          "indexed": true,
          "internalType": "address",
          "name": "user",
          "type": "address"
        },
        {
          "indexed": true,
          "internalType": "uint256",
          "name": "heroId",
          "type": "uint256"
        }
      ],
      "name": "OnHeroNFTOutOfGame",
      "type": "event"
    },
    {
      "anonymous": false,
      "inputs": [
        {
          "indexed": true,
          "internalType": "address",
          "name": "user",
          "type": "address"
        },
        {
          "indexed": true,
          "internalType": "uint256",
          "name": "robotId",
          "type": "uint256"
        }
      ],
      "name": "OnRobotNFTJoinedGame",
      "type": "event"
    },
    {
      "anonymous": false,
      "inputs": [
        {
          "indexed": true,
          "internalType": "address",
          "name": "user",
          "type": "address"
        },
        {
          "indexed": true,
          "internalType": "uint256",
          "name": "robotId",
          "type": "uint256"
        }
      ],
      "name": "OnRobotNFTOutOfGame",
      "type": "event"
    },
    {
      "anonymous": false,
      "inputs": [
        {
          "indexed": true,
          "internalType": "address",
          "name": "previousOwner",
          "type": "address"
        },
        {
          "indexed": true,
          "internalType": "address",
          "name": "newOwner",
          "type": "address"
        }
      ],
      "name": "OwnershipTransferred",
      "type": "event"
    },
    {
      "anonymous": false,
      "inputs": [
        {
          "indexed": false,
          "internalType": "address",
          "name": "account",
          "type": "address"
        }
      ],
      "name": "Paused",
      "type": "event"
    },
    {
      "anonymous": false,
      "inputs": [
        {
          "indexed": false,
          "internalType": "address",
          "name": "account",
          "type": "address"
        }
      ],
      "name": "Unpaused",
      "type": "event"
    },
    {
      "inputs": [],
      "name": "DelayBlockRobotNFTOutGame",
      "outputs": [
        {
          "internalType": "uint256",
          "name": "",
          "type": "uint256"
        }
      ],
      "stateMutability": "view",
      "type": "function",
      "constant": true
    },
    {
      "inputs": [],
      "name": "ERC20CreditToken",
      "outputs": [
        {
          "internalType": "contract IERC20",
          "name": "",
          "type": "address"
        }
      ],
      "stateMutability": "view",
      "type": "function",
      "constant": true
    },
    {
      "inputs": [],
      "name": "HeroNFT",
      "outputs": [
        {
          "internalType": "contract IHero",
          "name": "",
          "type": "address"
        }
      ],
      "stateMutability": "view",
      "type": "function",
      "constant": true
    },
    {
      "inputs": [
        {
          "internalType": "address",
          "name": "",
          "type": "address"
        }
      ],
      "name": "HeroNFTJoinGameOfUser",
      "outputs": [
        {
          "internalType": "uint256",
          "name": "",
          "type": "uint256"
        }
      ],
      "stateMutability": "view",
      "type": "function",
      "constant": true
    },
    {
      "inputs": [],
      "name": "LearningContract",
      "outputs": [
        {
          "internalType": "contract ILearning",
          "name": "",
          "type": "address"
        }
      ],
      "stateMutability": "view",
      "type": "function",
      "constant": true
    },
    {
      "inputs": [],
      "name": "PriceCreditMint",
      "outputs": [
        {
          "internalType": "uint256",
          "name": "",
          "type": "uint256"
        }
      ],
      "stateMutability": "view",
      "type": "function",
      "constant": true
    },
    {
      "inputs": [],
      "name": "RobotNFT",
      "outputs": [
        {
          "internalType": "contract IRobot",
          "name": "",
          "type": "address"
        }
      ],
      "stateMutability": "view",
      "type": "function",
      "constant": true
    },
    {
      "inputs": [
        {
          "internalType": "address",
          "name": "",
          "type": "address"
        }
      ],
      "name": "RobotNFTJoinGameOfUser",
      "outputs": [
        {
          "internalType": "uint256",
          "name": "BlockJoin",
          "type": "uint256"
        },
        {
          "internalType": "uint256",
          "name": "RobotId",
          "type": "uint256"
        }
      ],
      "stateMutability": "view",
      "type": "function",
      "constant": true
    },
    {
      "inputs": [
        {
          "internalType": "address",
          "name": "",
          "type": "address"
        }
      ],
      "name": "UserClaimedRobotNFT",
      "outputs": [
        {
          "internalType": "bool",
          "name": "",
          "type": "bool"
        }
      ],
      "stateMutability": "view",
      "type": "function",
      "constant": true
    },
    {
      "inputs": [],
      "name": "owner",
      "outputs": [
        {
          "internalType": "address",
          "name": "",
          "type": "address"
        }
      ],
      "stateMutability": "view",
      "type": "function",
      "constant": true
    },
    {
      "inputs": [],
      "name": "paused",
      "outputs": [
        {
          "internalType": "bool",
          "name": "",
          "type": "bool"
        }
      ],
      "stateMutability": "view",
      "type": "function",
      "constant": true
    },
    {
      "inputs": [],
      "name": "renounceOwnership",
      "outputs": [],
      "stateMutability": "nonpayable",
      "type": "function"
    },
    {
      "inputs": [
        {
          "internalType": "address",
          "name": "newOwner",
          "type": "address"
        }
      ],
      "name": "transferOwnership",
      "outputs": [],
      "stateMutability": "nonpayable",
      "type": "function"
    },
    {
      "inputs": [
        {
          "internalType": "address",
          "name": "",
          "type": "address"
        },
        {
          "internalType": "address",
          "name": "",
          "type": "address"
        },
        {
          "internalType": "uint256",
          "name": "",
          "type": "uint256"
        },
        {
          "internalType": "bytes",
          "name": "",
          "type": "bytes"
        }
      ],
      "name": "onERC721Received",
      "outputs": [
        {
          "internalType": "bytes4",
          "name": "",
          "type": "bytes4"
        }
      ],
      "stateMutability": "nonpayable",
      "type": "function"
    },
    {
      "inputs": [
        {
          "internalType": "contract IHero",
          "name": "heroNFT",
          "type": "address"
        }
      ],
      "name": "SetHeroNFT",
      "outputs": [],
      "stateMutability": "nonpayable",
      "type": "function"
    },
    {
      "inputs": [
        {
          "internalType": "contract IRobot",
          "name": "robotNFT",
          "type": "address"
        }
      ],
      "name": "SetRobotNFT",
      "outputs": [],
      "stateMutability": "nonpayable",
      "type": "function"
    },
    {
      "inputs": [
        {
          "internalType": "contract ILearning",
          "name": "learningContract",
          "type": "address"
        }
      ],
      "name": "SetLearningContract",
      "outputs": [],
      "stateMutability": "nonpayable",
      "type": "function"
    },
    {
      "inputs": [
        {
          "internalType": "uint256",
          "name": "value",
          "type": "uint256"
        }
      ],
      "name": "SetDelayBlockRobotNFTOutGame",
      "outputs": [],
      "stateMutability": "nonpayable",
      "type": "function"
    },
    {
      "inputs": [
        {
          "internalType": "contract IERC20",
          "name": "erc20CreditToken",
          "type": "address"
        }
      ],
      "name": "SetERC20CreditToken",
      "outputs": [],
      "stateMutability": "nonpayable",
      "type": "function"
    },
    {
      "inputs": [
        {
          "internalType": "uint256",
          "name": "value",
          "type": "uint256"
        }
      ],
      "name": "SetPriceCreditMint",
      "outputs": [],
      "stateMutability": "nonpayable",
      "type": "function"
    },
    {
      "inputs": [
        {
          "internalType": "uint256",
          "name": "teamId",
          "type": "uint256"
        }
      ],
      "name": "MintHeroNFT",
      "outputs": [],
      "stateMutability": "nonpayable",
      "type": "function"
    },
    {
      "inputs": [
        {
          "internalType": "uint256",
          "name": "heroId",
          "type": "uint256"
        }
      ],
      "name": "LetHeroNFTJoinToGame",
      "outputs": [],
      "stateMutability": "nonpayable",
      "type": "function"
    },
    {
      "inputs": [],
      "name": "LetHeroNFTOutOfGame",
      "outputs": [],
      "stateMutability": "nonpayable",
      "type": "function"
    },
    {
      "inputs": [
        {
          "internalType": "uint256",
          "name": "robotId",
          "type": "uint256"
        }
      ],
      "name": "LetRobotNFTJoinToGame",
      "outputs": [],
      "stateMutability": "nonpayable",
      "type": "function"
    },
    {
      "inputs": [],
      "name": "LetRobotNFTOutOfGame",
      "outputs": [],
      "stateMutability": "nonpayable",
      "type": "function"
    },
    {
      "inputs": [
        {
          "internalType": "address",
          "name": "user",
          "type": "address"
        }
      ],
      "name": "GetDataUser",
      "outputs": [
        {
          "internalType": "uint256",
          "name": "avatarId",
          "type": "uint256"
        },
        {
          "internalType": "uint256",
          "name": "teamId",
          "type": "uint256"
        },
        {
          "internalType": "uint256",
          "name": "robotId",
          "type": "uint256"
        },
        {
          "internalType": "uint256",
          "name": "blockRobotJoin",
          "type": "uint256"
        },
        {
          "internalType": "uint256",
          "name": "delayBlockRobotNFTOutGame",
          "type": "uint256"
        },
        {
          "internalType": "uint256",
          "name": "blockNumber",
          "type": "uint256"
        }
      ],
      "stateMutability": "view",
      "type": "function",
      "constant": true
    },
    {
      "inputs": [],
      "name": "WithdrawCredit",
      "outputs": [],
      "stateMutability": "nonpayable",
      "type": "function"
    }
  ],
  "bytecode": "0x6080604052670de0b6b3a76400006009553480156200001d57600080fd5b506040516200182c3803806200182c833981016040819052620000409162000115565b6200004b33620000ac565b6000805460ff60a01b19169055600180546001600160a01b039586166001600160a01b03199182161790915560028054948616948216949094179093556003805492851692841692909217909155600880549190931691161790556200017d565b600080546001600160a01b038381166001600160a01b0319831681178455604051919092169283917f8be0079c531659141344cd1fd0a4f28419497f9722a3daafe3b4186f6b6457e09190a35050565b6001600160a01b03811681146200011257600080fd5b50565b600080600080608085870312156200012c57600080fd5b84516200013981620000fc565b60208601519094506200014c81620000fc565b60408601519093506200015f81620000fc565b60608601519092506200017281620000fc565b939692955090935050565b61169f806200018d6000396000f3fe608060405234801561001057600080fd5b50600436106101a95760003560e01c8063831afa47116100f9578063c88bc5bd11610097578063d9e2eaae11610071578063d9e2eaae146103eb578063de405d5f146103fe578063f27a138814610406578063f2fde38b1461042957600080fd5b8063c88bc5bd146103af578063cd503d09146103c2578063d0396178146103e257600080fd5b806396772a57116100d357806396772a5714610336578063992d1b7214610349578063a2cf55de14610360578063a87808131461039c57600080fd5b8063831afa471461030a5780638a0a2926146103125780638da5cb5b1461032557600080fd5b80634dd8e3d011610166578063715018a611610140578063715018a6146102c957806374d9e8e3146102d157806375761b04146102e457806377628ce4146102f757600080fd5b80634dd8e3d0146102585780635c975abb146102985780636b274b6d146102b657600080fd5b8063150b7a02146101ae578063152e2bdf146101ea578063187a8aec146102155780632375b8f21461021f57806324033b6d146102325780632cb4ae4c14610245575b600080fd5b6101cc6101bc366004611464565b630a85bd0160e11b949350505050565b6040516001600160e01b031990911681526020015b60405180910390f35b6003546101fd906001600160a01b031681565b6040516001600160a01b0390911681526020016101e1565b61021d61043c565b005b61021d61022d366004611544565b61060d565b61021d610240366004611544565b61061a565b61021d610253366004611544565b6108be565b61026b61026636600461155d565b610ab9565b604080519687526020870195909552938501929092526060840152608083015260a082015260c0016101e1565b600054600160a01b900460ff165b60405190151581526020016101e1565b61021d6102c436600461155d565b610b75565b61021d610b9f565b61021d6102df36600461155d565b610bb3565b6001546101fd906001600160a01b031681565b61021d610305366004611544565b610bdd565b61021d610bea565b6008546101fd906001600160a01b031681565b6000546001600160a01b03166101fd565b6002546101fd906001600160a01b031681565b61035260075481565b6040519081526020016101e1565b61038761036e36600461155d565b6005602052600090815260409020805460019091015482565b604080519283526020830191909152016101e1565b61021d6103aa36600461155d565b610ce5565b61021d6103bd36600461155d565b610d0f565b6103526103d036600461155d565b60046020526000908152604090205481565b61035260095481565b61021d6103f9366004611544565b610d39565b61021d610f18565b6102a661041436600461155d565b60066020526000908152604090205460ff1681565b61021d61043736600461155d565b610fee565b3360008181526005602090815260408083208151808301909252805482526001015491810182905291036104d05760405162461bcd60e51b815260206004820152603060248201527f4572726f7220526f626f74204e4654204f757447616d653a20486176656e277460448201526f206a6f696e6564207468652067616d6560801b60648201526084015b60405180910390fd5b6003546040516376a4cdd960e01b81526001600160a01b03848116600483015260009216906376a4cdd990602401608060405180830381865afa15801561051b573d6000803e3d6000fd5b505050506040513d601f19601f8201168201806040525081019061053f9190611596565b50919250508115905061059e5760405162461bcd60e51b815260206004820152602160248201527f4572726f7220526f626f74204e4654204f757447616d653a204c6561726e696e6044820152606760f81b60648201526084016104c7565b6105a783611064565b15156001146106085760405162461bcd60e51b815260206004820152602760248201527f4572726f7220526f626f74204e4654204f757447616d653a2072656d6f7665526044820152661bd89bdd13919560ca1b60648201526084016104c7565b505050565b61061561119e565b600955565b6106226111f8565b6000336009546008546040516370a0823160e01b81526001600160a01b038085166004830152939450919216906370a0823190602401602060405180830381865afa158015610675573d6000803e3d6000fd5b505050506040513d601f19601f8201168201806040525081019061069991906115d3565b10156106e75760405162461bcd60e51b815260206004820152601b60248201527f4572726f72204d696e743a20496e76616c69642062616c616e6365000000000060448201526064016104c7565b6008546009546040516323b872dd60e01b81526001600160a01b03909216916323b872dd9161071c91859130916004016115ec565b6020604051808303816000875af115801561073b573d6000803e3d6000fd5b505050506040513d601f19601f8201168201806040525081019061075f9190611610565b506001600160a01b038116600090815260046020526040812054900361081457600154604051630f6798a560e01b8152306004820152602481018490526000916001600160a01b031690630f6798a5906044016020604051808303816000875af11580156107d1573d6000803e3d6000fd5b505050506040513d601f19601f820116820180604052508101906107f591906115d3565b6001600160a01b0383166000908152600460205260409020555061088d565b600154604051630f6798a560e01b81526001600160a01b0383811660048301526024820185905290911690630f6798a5906044016020604051808303816000875af1158015610867573d6000803e3d6000fd5b505050506040513d601f19601f8201168201806040525081019061088b91906115d3565b505b6001600160a01b03811660009081526006602052604081205460ff16151590036108ba576108ba81611245565b5050565b6108c66111f8565b6000336001546040516331a9108f60e11b8152600481018590529192506001600160a01b0380841692911690636352211e90602401602060405180830381865afa158015610918573d6000803e3d6000fd5b505050506040513d601f19601f8201168201806040525081019061093c919061162b565b6001600160a01b0316146109a25760405162461bcd60e51b815260206004820152602760248201527f4572726f72204a6f696e4865726f4e4654546f47616d653a20496e76616c69646044820152660812195c9bd25960ca1b60648201526084016104c7565b6109ab816112f9565b1515600114610a0c5760405162461bcd60e51b815260206004820152602760248201527f4572726f72204a6f696e4865726f4e4654546f47616d653a2052656d6f76652060448201526612195c9bd3919560ca1b60648201526084016104c7565b600154604051632142170760e11b81526001600160a01b03909116906342842e0e90610a40908490309087906004016115ec565b600060405180830381600087803b158015610a5a57600080fd5b505af1158015610a6e573d6000803e3d6000fd5b5050506001600160a01b038216600081815260046020526040808220869055518593507f6a14ed2dfb7894d0a794f1d00aed288b4590b7b821e7cc491d5d597293ae68809190a35050565b6001600160a01b03818116600090815260046020819052604080832054600154915163a276283360e01b815292830181905293839283928392839291169063a276283390602401602060405180830381865afa158015610b1d573d6000803e3d6000fd5b505050506040513d601f19601f82011682018060405250810190610b4191906115d3565b6001600160a01b03909716600090815260056020526040902060018101549054600754979991979096509450439350915050565b610b7d61119e565b600180546001600160a01b0319166001600160a01b0392909216919091179055565b610ba761119e565b610bb160006113d4565b565b610bbb61119e565b600380546001600160a01b0319166001600160a01b0392909216919091179055565b610be561119e565b600755565b610bf261119e565b600080546001600160a01b03166008546040516370a0823160e01b81523060048201529192506001600160a01b03169063a9059cbb90839083906370a0823190602401602060405180830381865afa158015610c52573d6000803e3d6000fd5b505050506040513d601f19601f82011682018060405250810190610c7691906115d3565b6040516001600160e01b031960e085901b1681526001600160a01b03909216600483015260248201526044016020604051808303816000875af1158015610cc1573d6000803e3d6000fd5b505050506040513d601f19601f820116820180604052508101906108ba9190611610565b610ced61119e565b600280546001600160a01b0319166001600160a01b0392909216919091179055565b610d1761119e565b600880546001600160a01b0319166001600160a01b0392909216919091179055565b610d416111f8565b6000336002546040516331a9108f60e11b8152600481018590529192506001600160a01b0380841692911690636352211e90602401602060405180830381865afa158015610d93573d6000803e3d6000fd5b505050506040513d601f19601f82011682018060405250810190610db7919061162b565b6001600160a01b031614610e0d5760405162461bcd60e51b815260206004820152601d60248201527f4572726f72204a6f696e47616d653a20496e76616c696420746f6b656e00000060448201526064016104c7565b610e1681611064565b1515600114610e605760405162461bcd60e51b81526020600482015260166024820152754572726f72204a6f696e47616d653a2072656d6f766560501b60448201526064016104c7565b600254604051632142170760e11b81526001600160a01b03909116906342842e0e90610e94908490309087906004016115ec565b600060405180830381600087803b158015610eae57600080fd5b505af1158015610ec2573d6000803e3d6000fd5b5050506001600160a01b0382166000818152600560205260408082204381556001810187905590519093508592917f8835d89a423f6b5b05968e56116a716c64600fa000d0945635e6b645d667344691a3505050565b33600081815260046020526040902054610f865760405162461bcd60e51b815260206004820152602960248201527f4572726f722072656d6f76654865726f4e46544f6647616d653a20496e76616c6044820152681a590812195c9bd25960ba1b60648201526084016104c7565b610f8f816112f9565b1515600114610feb5760405162461bcd60e51b815260206004820152602260248201527f4c65744865726f4e46544f75744f6647616d653a2052656d6f76654865726f4e604482015261119560f21b60648201526084016104c7565b50565b610ff661119e565b6001600160a01b03811661105b5760405162461bcd60e51b815260206004820152602660248201527f4f776e61626c653a206e6577206f776e657220697320746865207a65726f206160448201526564647265737360d01b60648201526084016104c7565b610feb816113d4565b6001600160a01b03811660009081526005602052604081206001810154808303611092575060019392505050565b600754825443916110a39190611424565b11156110f15760405162461bcd60e51b815260206004820152601e60248201527f4572726f722072656d6f7665526f626f744e46543a2054696d65206f7574000060448201526064016104c7565b600254604051632142170760e11b81526001600160a01b03909116906342842e0e90611125903090889086906004016115ec565b600060405180830381600087803b15801561113f57600080fd5b505af1158015611153573d6000803e3d6000fd5b50506000600185018190556040518493506001600160a01b03881692507f024586a4911de3791354d0ffd0bde1bf6da1c63d8ba84f8cfa6022ec0bc007339190a35060019392505050565b6000546001600160a01b03163314610bb15760405162461bcd60e51b815260206004820181905260248201527f4f776e61626c653a2063616c6c6572206973206e6f7420746865206f776e657260448201526064016104c7565b600054600160a01b900460ff1615610bb15760405162461bcd60e51b815260206004820152601060248201526f14185d5cd8589b194e881c185d5cd95960821b60448201526064016104c7565b61124d6111f8565b600254604051633c3284d160e01b81523060048201526000916001600160a01b031690633c3284d1906024016020604051808303816000875af1158015611298573d6000803e3d6000fd5b505050506040513d601f19601f820116820180604052508101906112bc91906115d3565b6001600160a01b039092166000908152600660209081526040808320805460ff191660019081179091556005909252909120438155019190915550565b6001600160a01b0381166000908152600460205260408120548082036113225750600192915050565b600154604051632142170760e11b81526001600160a01b03909116906342842e0e90611356903090879086906004016115ec565b600060405180830381600087803b15801561137057600080fd5b505af1158015611384573d6000803e3d6000fd5b5050506001600160a01b038416600081815260046020526040808220829055518493507fede76551488b461d8d103194d55cf5e9151f61fa3ae843b372183b0548f7920b9190a350600192915050565b600080546001600160a01b038381166001600160a01b0319831681178455604051919092169283917f8be0079c531659141344cd1fd0a4f28419497f9722a3daafe3b4186f6b6457e09190a35050565b60006114308284611648565b90505b92915050565b6001600160a01b0381168114610feb57600080fd5b634e487b7160e01b600052604160045260246000fd5b6000806000806080858703121561147a57600080fd5b843561148581611439565b9350602085013561149581611439565b925060408501359150606085013567ffffffffffffffff808211156114b957600080fd5b818701915087601f8301126114cd57600080fd5b8135818111156114df576114df61144e565b604051601f8201601f19908116603f011681019083821181831017156115075761150761144e565b816040528281528a602084870101111561152057600080fd5b82602086016020830137600060208483010152809550505050505092959194509250565b60006020828403121561155657600080fd5b5035919050565b60006020828403121561156f57600080fd5b813561157a81611439565b9392505050565b8051801515811461159157600080fd5b919050565b600080600080608085870312156115ac57600080fd5b6115b585611581565b60208601516040870151606090970151919890975090945092505050565b6000602082840312156115e557600080fd5b5051919050565b6001600160a01b039384168152919092166020820152604081019190915260600190565b60006020828403121561162257600080fd5b61143082611581565b60006020828403121561163d57600080fd5b815161157a81611439565b8082018082111561143357634e487b7160e01b600052601160045260246000fdfea264697066735822122009357c3e9819e328ec8e50937c640bc19fe440b998fe50c4acf8ec7225e7e46d64736f6c63430008110033",
  "immutableReferences": {},
  "source": "// SPDX-License-Identifier: MIT\npragma solidity ^0.8.0;\n\nimport \"./interfaces/IHero.sol\";\nimport \"./interfaces/IRobot.sol\";\nimport \"./interfaces/ILearning.sol\";\nimport \"@openzeppelin/contracts/utils/math/SafeMath.sol\";\nimport \"@openzeppelin/contracts/access/Ownable.sol\";\nimport \"@openzeppelin/contracts/security/Pausable.sol\";\nimport \"@openzeppelin/contracts/token/ERC20/IERC20.sol\";\nimport \"@openzeppelin/contracts/token/ERC721/IERC721Receiver.sol\";\n\ncontract GameController is Ownable, IERC721Receiver, Pausable\n{\n    IHero public  HeroNFT;      // \n    IRobot public RobotNFT;\n    ILearning public LearningContract;\n\n    using SafeMath for uint256;\n\n    mapping(address => uint256) public HeroNFTJoinGameOfUser;\n    mapping(address => RobotData) public RobotNFTJoinGameOfUser;\n\n    mapping(address => bool) public UserClaimedRobotNFT;\n\n    uint256 public DelayBlockRobotNFTOutGame;\n\n    IERC20 public ERC20CreditToken;         // GRB\n    uint256 public PriceCreditMint = 1e18;  // 1GRB\n\n    event OnHeroNFTJoinedGame(address indexed user, uint256 indexed heroId);\n    event OnHeroNFTOutOfGame(address indexed user, uint256 indexed heroId);\n    event OnRobotNFTJoinedGame(address indexed user, uint256 indexed robotId);\n    event OnRobotNFTOutOfGame(address indexed user, uint256 indexed robotId);\n\n    constructor(IHero heroNFT, IRobot robotNFT, ILearning learningContract, IERC20 erc20CreditToken)\n    {\n        HeroNFT = heroNFT;\n        RobotNFT = robotNFT;\n        LearningContract = learningContract;\n        ERC20CreditToken = erc20CreditToken;\n    }\n\n    struct RobotData\n    {\n        uint256 BlockJoin; // the block at which the NFT robot was added to the game\n        uint256 RobotId; // the ID of the NFT robot\n    }\n\n    function onERC721Received(address, address, uint256, bytes memory) public virtual override returns (bytes4) \n    {\n        return this.onERC721Received.selector;\n    }\n\n    function SetHeroNFT(IHero heroNFT) public onlyOwner \n    {\n        HeroNFT = heroNFT;\n    }\n\n    function SetRobotNFT(IRobot robotNFT) public onlyOwner \n    {\n        RobotNFT = robotNFT;\n    }\n\n    function SetLearningContract(ILearning learningContract) public onlyOwner \n    {\n        LearningContract = learningContract;\n    }\n\n    function SetDelayBlockRobotNFTOutGame(uint256 value) public onlyOwner\n    {\n        DelayBlockRobotNFTOutGame = value;\n    }\n\n    function SetERC20CreditToken(IERC20 erc20CreditToken) public onlyOwner \n    {\n        ERC20CreditToken = erc20CreditToken;\n    }\n\n    function SetPriceCreditMint(uint256 value) public onlyOwner\n    {\n        PriceCreditMint = value;\n    }\n\n    function MintHeroNFT(uint256 teamId) public whenNotPaused\n    {\n        address user = _msgSender();\n        require(ERC20CreditToken.balanceOf(user) >= PriceCreditMint, \"Error Mint: Invalid balance\");\n        ERC20CreditToken.transferFrom(user, address(this), PriceCreditMint);\n\n        if(HeroNFTJoinGameOfUser[user] == 0)\n        {\n            uint256 heroId = HeroNFT.Mint(address(this), teamId);\n            HeroNFTJoinGameOfUser[user] = heroId;\n        }\n        else\n        {\n            HeroNFT.Mint(user, teamId);\n        }\n\n        if(UserClaimedRobotNFT[user] == false)\n        {\n            ClaimRobotNFT(user);\n        }\n    }\n\n    function ClaimRobotNFT(address user) private whenNotPaused \n    {\n        uint256 robotId = RobotNFT.Mint(address(this));\n\n        UserClaimedRobotNFT[user] = true;\n\n        RobotData storage robotDataOfUser = RobotNFTJoinGameOfUser[user];\n        robotDataOfUser.BlockJoin = block.number;\n        robotDataOfUser.RobotId = robotId;\n    }\n\n    /*\n    allows the user to join the game by transferring their Hero NFT to the game contract.\n    */\n    function LetHeroNFTJoinToGame(uint256 heroId) public whenNotPaused\n    {\n        address user = _msgSender();\n        require(HeroNFT.ownerOf(heroId) == user, \"Error JoinHeroNFTToGame: Invalid HeroId\");\n        require(removeHeroNFT(user) == true, \"Error JoinHeroNFTToGame: Remove HeroNFT\");\n\n        HeroNFT.safeTransferFrom(user, address(this), heroId);\n\n        HeroNFTJoinGameOfUser[user] = heroId;\n\n        emit OnHeroNFTJoinedGame(user, heroId);\n    }\n\n    /*\n    allows a user to remove their Hero NFT from the game.\n    */\n    function LetHeroNFTOutOfGame() public \n    {\n        address user = _msgSender();\n\n        require(HeroNFTJoinGameOfUser[user] > 0, \"Error removeHeroNFTOfGame: Invalid HeroId\");\n        require(removeHeroNFT(user) == true, \"LetHeroNFTOutOfGame: RemoveHeroNFT\");   \n    }\n\n    /**\n    allows the user to join the game by transferring their robot NFT to the game contract, \n    and records the robot's data including the block number at which it joined \n     */\n    function LetRobotNFTJoinToGame(uint256 robotId) public whenNotPaused\n    {\n        address user = _msgSender();\n        require(RobotNFT.ownerOf(robotId) == user, \"Error JoinGame: Invalid token\");\n        require(removeRobotNFT(user) == true, \"Error JoinGame: remove\");\n\n        RobotNFT.safeTransferFrom(user, address(this), robotId);\n\n        RobotData storage robotDataOfUser = RobotNFTJoinGameOfUser[user];\n        robotDataOfUser.BlockJoin = block.number;\n        robotDataOfUser.RobotId = robotId;\n\n        emit OnRobotNFTJoinedGame(user, robotId);\n    }\n\n    /**\n    allows a user to remove their robot NFT from the game. \n    If the user's robot is currently in the process of learning, \n    the function stops the learning process. \n    The function returns an error if the robot could not be removed from the game.\n    */\n    function LetRobotNFTOutOfGame() public \n    {\n        address user = _msgSender();\n        RobotData memory robotDataOfUser = RobotNFTJoinGameOfUser[user];\n        require(robotDataOfUser.RobotId != 0, \"Error Robot NFT OutGame: Haven't joined the game\");\n\n        (bool learning,,,) = LearningContract.DataUserLearn(user);\n        require(learning == false, \"Error Robot NFT OutGame: Learning\");\n        require(removeRobotNFT(user) == true, \"Error Robot NFT OutGame: removeRobotNFT\");\n    }\n\n    /** \n    removes the NFT robot of a specified 'user' from the game contract \n    if the robot has been in the game for a specified amount of time.\n    */\n    function removeHeroNFT(address user) private returns(bool)\n    {\n        uint256 heroId = HeroNFTJoinGameOfUser[user];\n\n        if(heroId == 0) return true;\n        \n        HeroNFT.safeTransferFrom(address(this), user, heroId);\n\n        HeroNFTJoinGameOfUser[user] = 0;\n\n        emit OnHeroNFTOutOfGame(user, heroId);\n        \n        return true;\n    }\n\n    /** \n    removes the NFT robot of a specified 'user' from the game contract \n    if the robot has been in the game for a specified amount of time.\n    */\n    function removeRobotNFT(address user) private returns(bool)\n    {\n        RobotData storage robotData = RobotNFTJoinGameOfUser[user];\n        uint256 robotId = robotData.RobotId;\n\n        if(robotId == 0) return true;\n        \n        require(robotData.BlockJoin.add(DelayBlockRobotNFTOutGame) <= block.number, \"Error removeRobotNFT: Time out\");\n        RobotNFT.safeTransferFrom(address(this), user, robotId);\n\n        robotData.RobotId = 0;\n\n        emit OnRobotNFTOutOfGame(user, robotId);\n\n        return true;\n    }\n\n    function GetDataUser(address user) public view returns (\n        uint256 avatarId,\n        uint256 teamId,\n        uint256 robotId,\n        uint256 blockRobotJoin,\n        uint256 delayBlockRobotNFTOutGame,\n        uint256 blockNumber\n        )\n    {\n\n        avatarId = HeroNFTJoinGameOfUser[user];\n        teamId = HeroNFT.TeamId(avatarId);\n        robotId = RobotNFTJoinGameOfUser[user].RobotId;\n        blockRobotJoin = RobotNFTJoinGameOfUser[user].BlockJoin;\n        delayBlockRobotNFTOutGame = DelayBlockRobotNFTOutGame;\n        blockNumber = block.number;\n    }\n\n    function WithdrawCredit() public onlyOwner \n    {\n        address to = owner();\n        ERC20CreditToken.transfer(to, ERC20CreditToken.balanceOf(address(this)));\n    }\n}",
  "sourcePath": "/Applications/projects/garbi-contracts/contracts/GameController.sol",
  "compiler": {
    "name": "solc",
    "version": "0.8.17+commit.8df45f5f.Emscripten.clang"
  },
  "schemaVersion": "3.4.11",
  "updatedAt": "2023-04-04T07:45:57.984Z",
  "networkType": "ethereum",
  "devdoc": {
    "kind": "dev",
    "methods": {
      "owner()": {
        "details": "Returns the address of the current owner."
      },
      "paused()": {
        "details": "Returns true if the contract is paused, and false otherwise."
      },
      "renounceOwnership()": {
        "details": "Leaves the contract without owner. It will not be possible to call `onlyOwner` functions anymore. Can only be called by the current owner. NOTE: Renouncing ownership will leave the contract without an owner, thereby removing any functionality that is only available to the owner."
      },
      "transferOwnership(address)": {
        "details": "Transfers ownership of the contract to a new account (`newOwner`). Can only be called by the current owner."
      }
    },
    "version": 1
  },
  "userdoc": {
    "kind": "user",
    "methods": {
      "LetRobotNFTJoinToGame(uint256)": {
        "notice": "allows the user to join the game by transferring their robot NFT to the game contract,  and records the robot's data including the block number at which it joined "
      },
      "LetRobotNFTOutOfGame()": {
        "notice": "allows a user to remove their robot NFT from the game.  If the user's robot is currently in the process of learning,  the function stops the learning process.  The function returns an error if the robot could not be removed from the game."
      }
    },
    "version": 1
  }
}