{
  "contractName": "GameController",
  "abi": [
    {
      "inputs": [
        {
          "internalType": "contract IHero",
          "name": "heroNFT",
          "type": "address"
        },
        {
          "internalType": "contract IRobot",
          "name": "robotNFT",
          "type": "address"
        },
        {
          "internalType": "contract ILearning",
          "name": "learningContract",
          "type": "address"
        },
        {
          "internalType": "contract IERC20",
          "name": "erc20CreditToken",
          "type": "address"
        }
      ],
      "stateMutability": "nonpayable",
      "type": "constructor"
    },
    {
      "anonymous": false,
      "inputs": [
        {
          "indexed": true,
          "internalType": "address",
          "name": "user",
          "type": "address"
        },
        {
          "indexed": true,
          "internalType": "uint256",
          "name": "heroId",
          "type": "uint256"
        }
      ],
      "name": "OnHeroNFTJoinedGame",
      "type": "event"
    },
    {
      "anonymous": false,
      "inputs": [
        {
          "indexed": true,
          "internalType": "address",
          "name": "user",
          "type": "address"
        },
        {
          "indexed": true,
          "internalType": "uint256",
          "name": "heroId",
          "type": "uint256"
        }
      ],
      "name": "OnHeroNFTOutOfGame",
      "type": "event"
    },
    {
      "anonymous": false,
      "inputs": [
        {
          "indexed": true,
          "internalType": "address",
          "name": "sender",
          "type": "address"
        },
        {
          "indexed": true,
          "internalType": "address",
          "name": "reciever",
          "type": "address"
        },
        {
          "indexed": false,
          "internalType": "uint256",
          "name": "heroId",
          "type": "uint256"
        },
        {
          "indexed": false,
          "internalType": "uint256",
          "name": "teamId",
          "type": "uint256"
        },
        {
          "indexed": true,
          "internalType": "uint256",
          "name": "amount",
          "type": "uint256"
        }
      ],
      "name": "OnMint",
      "type": "event"
    },
    {
      "anonymous": false,
      "inputs": [
        {
          "indexed": true,
          "internalType": "address",
          "name": "user",
          "type": "address"
        },
        {
          "indexed": true,
          "internalType": "uint256",
          "name": "robotId",
          "type": "uint256"
        }
      ],
      "name": "OnRobotNFTJoinedGame",
      "type": "event"
    },
    {
      "anonymous": false,
      "inputs": [
        {
          "indexed": true,
          "internalType": "address",
          "name": "user",
          "type": "address"
        },
        {
          "indexed": true,
          "internalType": "uint256",
          "name": "robotId",
          "type": "uint256"
        }
      ],
      "name": "OnRobotNFTOutOfGame",
      "type": "event"
    },
    {
      "anonymous": false,
      "inputs": [
        {
          "indexed": true,
          "internalType": "address",
          "name": "previousOwner",
          "type": "address"
        },
        {
          "indexed": true,
          "internalType": "address",
          "name": "newOwner",
          "type": "address"
        }
      ],
      "name": "OwnershipTransferred",
      "type": "event"
    },
    {
      "anonymous": false,
      "inputs": [
        {
          "indexed": false,
          "internalType": "address",
          "name": "account",
          "type": "address"
        }
      ],
      "name": "Paused",
      "type": "event"
    },
    {
      "anonymous": false,
      "inputs": [
        {
          "indexed": false,
          "internalType": "address",
          "name": "account",
          "type": "address"
        }
      ],
      "name": "Unpaused",
      "type": "event"
    },
    {
      "inputs": [],
      "name": "DelayBlockRobotNFTOutGame",
      "outputs": [
        {
          "internalType": "uint256",
          "name": "",
          "type": "uint256"
        }
      ],
      "stateMutability": "view",
      "type": "function",
      "constant": true
    },
    {
      "inputs": [],
      "name": "ERC20CreditToken",
      "outputs": [
        {
          "internalType": "contract IERC20",
          "name": "",
          "type": "address"
        }
      ],
      "stateMutability": "view",
      "type": "function",
      "constant": true
    },
    {
      "inputs": [],
      "name": "HeroNFT",
      "outputs": [
        {
          "internalType": "contract IHero",
          "name": "",
          "type": "address"
        }
      ],
      "stateMutability": "view",
      "type": "function",
      "constant": true
    },
    {
      "inputs": [
        {
          "internalType": "address",
          "name": "",
          "type": "address"
        }
      ],
      "name": "HeroNFTJoinGameOfUser",
      "outputs": [
        {
          "internalType": "uint256",
          "name": "",
          "type": "uint256"
        }
      ],
      "stateMutability": "view",
      "type": "function",
      "constant": true
    },
    {
      "inputs": [],
      "name": "LearningContract",
      "outputs": [
        {
          "internalType": "contract ILearning",
          "name": "",
          "type": "address"
        }
      ],
      "stateMutability": "view",
      "type": "function",
      "constant": true
    },
    {
      "inputs": [
        {
          "internalType": "address",
          "name": "",
          "type": "address"
        }
      ],
      "name": "ListAddressMintFree",
      "outputs": [
        {
          "internalType": "bool",
          "name": "",
          "type": "bool"
        }
      ],
      "stateMutability": "view",
      "type": "function",
      "constant": true
    },
    {
      "inputs": [],
      "name": "PriceCreditMint",
      "outputs": [
        {
          "internalType": "uint256",
          "name": "",
          "type": "uint256"
        }
      ],
      "stateMutability": "view",
      "type": "function",
      "constant": true
    },
    {
      "inputs": [],
      "name": "RobotNFT",
      "outputs": [
        {
          "internalType": "contract IRobot",
          "name": "",
          "type": "address"
        }
      ],
      "stateMutability": "view",
      "type": "function",
      "constant": true
    },
    {
      "inputs": [
        {
          "internalType": "address",
          "name": "",
          "type": "address"
        }
      ],
      "name": "RobotNFTJoinGameOfUser",
      "outputs": [
        {
          "internalType": "uint256",
          "name": "BlockJoin",
          "type": "uint256"
        },
        {
          "internalType": "uint256",
          "name": "RobotId",
          "type": "uint256"
        }
      ],
      "stateMutability": "view",
      "type": "function",
      "constant": true
    },
    {
      "inputs": [
        {
          "internalType": "address",
          "name": "",
          "type": "address"
        }
      ],
      "name": "UserClaimedRobotNFT",
      "outputs": [
        {
          "internalType": "bool",
          "name": "",
          "type": "bool"
        }
      ],
      "stateMutability": "view",
      "type": "function",
      "constant": true
    },
    {
      "inputs": [],
      "name": "WhiteList",
      "outputs": [
        {
          "internalType": "contract IWhiteList",
          "name": "",
          "type": "address"
        }
      ],
      "stateMutability": "view",
      "type": "function",
      "constant": true
    },
    {
      "inputs": [],
      "name": "owner",
      "outputs": [
        {
          "internalType": "address",
          "name": "",
          "type": "address"
        }
      ],
      "stateMutability": "view",
      "type": "function",
      "constant": true
    },
    {
      "inputs": [],
      "name": "paused",
      "outputs": [
        {
          "internalType": "bool",
          "name": "",
          "type": "bool"
        }
      ],
      "stateMutability": "view",
      "type": "function",
      "constant": true
    },
    {
      "inputs": [],
      "name": "renounceOwnership",
      "outputs": [],
      "stateMutability": "nonpayable",
      "type": "function"
    },
    {
      "inputs": [
        {
          "internalType": "address",
          "name": "newOwner",
          "type": "address"
        }
      ],
      "name": "transferOwnership",
      "outputs": [],
      "stateMutability": "nonpayable",
      "type": "function"
    },
    {
      "inputs": [
        {
          "internalType": "address",
          "name": "",
          "type": "address"
        },
        {
          "internalType": "address",
          "name": "",
          "type": "address"
        },
        {
          "internalType": "uint256",
          "name": "",
          "type": "uint256"
        },
        {
          "internalType": "bytes",
          "name": "",
          "type": "bytes"
        }
      ],
      "name": "onERC721Received",
      "outputs": [
        {
          "internalType": "bytes4",
          "name": "",
          "type": "bytes4"
        }
      ],
      "stateMutability": "nonpayable",
      "type": "function"
    },
    {
      "inputs": [],
      "name": "PauseSystem",
      "outputs": [],
      "stateMutability": "nonpayable",
      "type": "function"
    },
    {
      "inputs": [],
      "name": "UnpauseSystem",
      "outputs": [],
      "stateMutability": "nonpayable",
      "type": "function"
    },
    {
      "inputs": [
        {
          "internalType": "contract IWhiteList",
          "name": "addressWhiteList",
          "type": "address"
        }
      ],
      "name": "SetWhiteListcontract",
      "outputs": [],
      "stateMutability": "nonpayable",
      "type": "function"
    },
    {
      "inputs": [
        {
          "internalType": "address[]",
          "name": "listAddress",
          "type": "address[]"
        }
      ],
      "name": "SetListAddressMintFree",
      "outputs": [],
      "stateMutability": "nonpayable",
      "type": "function"
    },
    {
      "inputs": [
        {
          "internalType": "address[]",
          "name": "listAddress",
          "type": "address[]"
        }
      ],
      "name": "RemoveListAddressMintFree",
      "outputs": [],
      "stateMutability": "nonpayable",
      "type": "function"
    },
    {
      "inputs": [
        {
          "internalType": "contract IHero",
          "name": "addressHeroNFT",
          "type": "address"
        }
      ],
      "name": "SetHeroNFTContract",
      "outputs": [],
      "stateMutability": "nonpayable",
      "type": "function"
    },
    {
      "inputs": [
        {
          "internalType": "contract IRobot",
          "name": "addressRobotNFT",
          "type": "address"
        }
      ],
      "name": "SetRobotNFTContract",
      "outputs": [],
      "stateMutability": "nonpayable",
      "type": "function"
    },
    {
      "inputs": [
        {
          "internalType": "contract ILearning",
          "name": "addressLearningContract",
          "type": "address"
        }
      ],
      "name": "SetLearningContract",
      "outputs": [],
      "stateMutability": "nonpayable",
      "type": "function"
    },
    {
      "inputs": [
        {
          "internalType": "uint256",
          "name": "value",
          "type": "uint256"
        }
      ],
      "name": "SetDelayBlockRobotNFTOutGame",
      "outputs": [],
      "stateMutability": "nonpayable",
      "type": "function"
    },
    {
      "inputs": [
        {
          "internalType": "contract IERC20",
          "name": "erc20CreditToken",
          "type": "address"
        }
      ],
      "name": "SetERC20CreditToken",
      "outputs": [],
      "stateMutability": "nonpayable",
      "type": "function"
    },
    {
      "inputs": [
        {
          "internalType": "uint256",
          "name": "value",
          "type": "uint256"
        }
      ],
      "name": "SetPriceCreditMint",
      "outputs": [],
      "stateMutability": "nonpayable",
      "type": "function"
    },
    {
      "inputs": [
        {
          "internalType": "address",
          "name": "receiver",
          "type": "address"
        },
        {
          "internalType": "uint256",
          "name": "teamId",
          "type": "uint256"
        }
      ],
      "name": "MintHeroNFT",
      "outputs": [],
      "stateMutability": "nonpayable",
      "type": "function"
    },
    {
      "inputs": [
        {
          "internalType": "address",
          "name": "user",
          "type": "address"
        },
        {
          "internalType": "uint256",
          "name": "teamId",
          "type": "uint256"
        },
        {
          "internalType": "uint256",
          "name": "levelRobot",
          "type": "uint256"
        }
      ],
      "name": "MigrateData",
      "outputs": [],
      "stateMutability": "nonpayable",
      "type": "function"
    },
    {
      "inputs": [
        {
          "internalType": "uint256",
          "name": "heroId",
          "type": "uint256"
        }
      ],
      "name": "LetHeroNFTJoinToGame",
      "outputs": [],
      "stateMutability": "nonpayable",
      "type": "function"
    },
    {
      "inputs": [],
      "name": "LetHeroNFTOutOfGame",
      "outputs": [],
      "stateMutability": "nonpayable",
      "type": "function"
    },
    {
      "inputs": [
        {
          "internalType": "uint256",
          "name": "robotId",
          "type": "uint256"
        }
      ],
      "name": "LetRobotNFTJoinToGame",
      "outputs": [],
      "stateMutability": "nonpayable",
      "type": "function"
    },
    {
      "inputs": [],
      "name": "LetRobotNFTOutOfGame",
      "outputs": [],
      "stateMutability": "nonpayable",
      "type": "function"
    },
    {
      "inputs": [
        {
          "internalType": "address",
          "name": "user",
          "type": "address"
        }
      ],
      "name": "GetDataUser",
      "outputs": [
        {
          "internalType": "uint256",
          "name": "avatarId",
          "type": "uint256"
        },
        {
          "internalType": "uint256",
          "name": "teamId",
          "type": "uint256"
        },
        {
          "internalType": "uint256",
          "name": "robotId",
          "type": "uint256"
        },
        {
          "internalType": "uint256",
          "name": "blockRobotJoin",
          "type": "uint256"
        },
        {
          "internalType": "uint256",
          "name": "delayBlockRobotNFTOutGame",
          "type": "uint256"
        },
        {
          "internalType": "uint256",
          "name": "blockNumber",
          "type": "uint256"
        }
      ],
      "stateMutability": "view",
      "type": "function",
      "constant": true
    },
    {
      "inputs": [],
      "name": "WithdrawCredit",
      "outputs": [],
      "stateMutability": "nonpayable",
      "type": "function"
    }
  ],
  "bytecode": "0x6080604052677ce66c50e2840000600b553480156200001d57600080fd5b50604051620020bd380380620020bd83398101604081905262000040916200011b565b6200004b33620000b2565b6000805460ff60a01b19169055600280546001600160a01b039586166001600160a01b03199182161790915560038054948616948216949094179093556004805492851692841692909217909155600a8054919093169116179055611b5860095562000183565b600080546001600160a01b038381166001600160a01b0319831681178455604051919092169283917f8be0079c531659141344cd1fd0a4f28419497f9722a3daafe3b4186f6b6457e09190a35050565b6001600160a01b03811681146200011857600080fd5b50565b600080600080608085870312156200013257600080fd5b84516200013f8162000102565b6020860151909450620001528162000102565b6040860151909350620001658162000102565b6060860151909250620001788162000102565b939692955090935050565b611f2a80620001936000396000f3fe608060405234801561001057600080fd5b50600436106102115760003560e01c8063831afa4711610125578063cd221fb2116100ad578063d9e2eaae1161007c578063d9e2eaae146104dd578063de405d5f146104f0578063ee68d332146104f8578063f27a138814610500578063f2fde38b1461052357600080fd5b8063cd221fb21461048e578063cd503d09146104a1578063d0396178146104c1578063d3f92288146104ca57600080fd5b806396772a57116100f457806396772a571461040257806397634c1214610415578063992d1b7214610428578063a2cf55de1461043f578063c88bc5bd1461047b57600080fd5b8063831afa47146103c35780638a0a2926146103cb5780638da5cb5b146103de578063966656d2146103ef57600080fd5b8063507f6186116101a8578063715018a611610177578063715018a61461036f57806374d9e8e31461037757806375761b041461038a57806377628ce41461039d5780638107fad5146103b057600080fd5b8063507f6186146103085780635412918d1461031b5780635c975abb1461032e57806362bcb1651461034c57600080fd5b8063187a8aec116101e4578063187a8aec1461029a5780632375b8f2146102a25780632cb4ae4c146102b55780634dd8e3d0146102c857600080fd5b80630c69b58314610216578063150b7a0214610220578063152e2bdf1461025c57806315b195b014610287575b600080fd5b61021e610536565b005b61023e61022e366004611b96565b630a85bd0160e11b949350505050565b6040516001600160e01b031990911681526020015b60405180910390f35b60045461026f906001600160a01b031681565b6040516001600160a01b039091168152602001610253565b61021e610295366004611c5a565b610548565b61021e6106ef565b61021e6102b0366004611c8f565b6108c5565b61021e6102c3366004611c8f565b6108d2565b6102db6102d6366004611ca8565b610b61565b604080519687526020870195909552938501929092526060840152608083015260a082015260c001610253565b61021e610316366004611ca8565b610c1c565b61021e610329366004611ccc565b610c46565b600054600160a01b900460ff165b6040519015158152602001610253565b61033c61035a366004611ca8565b60086020526000908152604090205460ff1681565b61021e610cba565b61021e610385366004611ca8565b610ccc565b60025461026f906001600160a01b031681565b61021e6103ab366004611c8f565b610cf6565b61021e6103be366004611ca8565b610d03565b61021e610d2d565b600a5461026f906001600160a01b031681565b6000546001600160a01b031661026f565b61021e6103fd366004611ccc565b610e28565b60035461026f906001600160a01b031681565b61021e610423366004611d7e565b610e98565b61043160095481565b604051908152602001610253565b61046661044d366004611ca8565b6006602052600090815260409020805460019091015482565b60408051928352602083019190915201610253565b61021e610489366004611ca8565b6112c7565b61021e61049c366004611ca8565b6112f1565b6104316104af366004611ca8565b60056020526000908152604090205481565b610431600b5481565b60015461026f906001600160a01b031681565b61021e6104eb366004611c8f565b61131b565b61021e61158e565b61021e6115f7565b61033c61050e366004611ca8565b60076020526000908152604090205460ff1681565b61021e610531366004611ca8565b611607565b61053e61167d565b6105466116d7565b565b61055061167d565b600254604051630f6798a560e01b8152306004820152602481018490526000916001600160a01b031690630f6798a5906044016020604051808303816000875af11580156105a2573d6000803e3d6000fd5b505050506040513d601f19601f820116820180604052508101906105c69190611daa565b6001600160a01b038581166000908152600560205260408082208490556003549051633c3284d160e01b81523060048201529394509092911690633c3284d1906024016020604051808303816000875af1158015610628573d6000803e3d6000fd5b505050506040513d601f19601f8201168201806040525081019061064c9190611daa565b6001600160a01b038681166000908152600760209081526040808320805460ff191660019081179091556006909252918290204381559081018490556003549151637e7aad3760e01b8152600481018590526024810188905293945092911690637e7aad3790604401600060405180830381600087803b1580156106cf57600080fd5b505af11580156106e3573d6000803e3d6000fd5b50505050505050505050565b3360008181526006602090815260408083208151808301909252805482526001015491810182905291036107835760405162461bcd60e51b815260206004820152603060248201527f4572726f7220526f626f74204e4654204f757447616d653a20486176656e277460448201526f206a6f696e6564207468652067616d6560801b60648201526084015b60405180910390fd5b600480546040516376a4cdd960e01b81526001600160a01b0385811693820193909352600092909116906376a4cdd990602401608060405180830381865afa1580156107d3573d6000803e3d6000fd5b505050506040513d601f19601f820116820180604052508101906107f79190611dd8565b5091925050811590506108565760405162461bcd60e51b815260206004820152602160248201527f4572726f7220526f626f74204e4654204f757447616d653a204c6561726e696e6044820152606760f81b606482015260840161077a565b61085f8361172c565b15156001146108c05760405162461bcd60e51b815260206004820152602760248201527f4572726f7220526f626f74204e4654204f757447616d653a2072656d6f7665526044820152661bd89bdd13919560ca1b606482015260840161077a565b505050565b6108cd61167d565b600b55565b6108da611866565b33321461096e57600154604051636c9b2a3f60e11b81523360048201526001600160a01b039091169063d936547e90602401602060405180830381865afa158015610929573d6000803e3d6000fd5b505050506040513d601f19601f8201168201806040525081019061094d9190611e15565b151560011461096e5760405162461bcd60e51b815260040161077a90611e30565b6000336002546040516331a9108f60e11b8152600481018590529192506001600160a01b0380841692911690636352211e90602401602060405180830381865afa1580156109c0573d6000803e3d6000fd5b505050506040513d601f19601f820116820180604052508101906109e49190611e5b565b6001600160a01b031614610a4a5760405162461bcd60e51b815260206004820152602760248201527f4572726f72204a6f696e4865726f4e4654546f47616d653a20496e76616c69646044820152660812195c9bd25960ca1b606482015260840161077a565b610a53816118b3565b1515600114610ab45760405162461bcd60e51b815260206004820152602760248201527f4572726f72204a6f696e4865726f4e4654546f47616d653a2052656d6f76652060448201526612195c9bd3919560ca1b606482015260840161077a565b600254604051632142170760e11b81526001600160a01b03909116906342842e0e90610ae890849030908790600401611e78565b600060405180830381600087803b158015610b0257600080fd5b505af1158015610b16573d6000803e3d6000fd5b5050506001600160a01b038216600081815260056020526040808220869055518593507f6a14ed2dfb7894d0a794f1d00aed288b4590b7b821e7cc491d5d597293ae68809190a35050565b6001600160a01b0381811660009081526005602052604080822054600254915163a276283360e01b81526004810182905290938392839283928392169063a276283390602401602060405180830381865afa158015610bc4573d6000803e3d6000fd5b505050506040513d601f19601f82011682018060405250810190610be89190611daa565b6001600160a01b03909716600090815260066020526040902060018101549054600954979991979096509450439350915050565b610c2461167d565b600280546001600160a01b0319166001600160a01b0392909216919091179055565b610c4e61167d565b60005b8151811015610cb657600160086000848481518110610c7257610c72611e9c565b6020908102919091018101516001600160a01b03168252810191909152604001600020805460ff191691151591909117905580610cae81611ec8565b915050610c51565b5050565b610cc261167d565b610546600061198e565b610cd461167d565b600480546001600160a01b0319166001600160a01b0392909216919091179055565b610cfe61167d565b600955565b610d0b61167d565b600380546001600160a01b0319166001600160a01b0392909216919091179055565b610d3561167d565b600080546001600160a01b0316600a546040516370a0823160e01b81523060048201529192506001600160a01b03169063a9059cbb90839083906370a0823190602401602060405180830381865afa158015610d95573d6000803e3d6000fd5b505050506040513d601f19601f82011682018060405250810190610db99190611daa565b6040516001600160e01b031960e085901b1681526001600160a01b03909216600483015260248201526044016020604051808303816000875af1158015610e04573d6000803e3d6000fd5b505050506040513d601f19601f82011682018060405250810190610cb69190611e15565b610e3061167d565b60005b8151811015610cb657600060086000848481518110610e5457610e54611e9c565b6020908102919091018101516001600160a01b03168252810191909152604001600020805460ff191691151591909117905580610e9081611ec8565b915050610e33565b610ea0611866565b333214610f3457600154604051636c9b2a3f60e11b81523360048201526001600160a01b039091169063d936547e90602401602060405180830381865afa158015610eef573d6000803e3d6000fd5b505050506040513d601f19601f82011682018060405250810190610f139190611e15565b1515600114610f345760405162461bcd60e51b815260040161077a90611e30565b6001600160a01b03821660009081526008602052604081205433919060ff161515600114610f6457600b54610f67565b60005b905080600003610f92576001600160a01b0384166000908152600860205260409020805460ff191690555b600a546040516370a0823160e01b81526001600160a01b038481166004830152839216906370a0823190602401602060405180830381865afa158015610fdc573d6000803e3d6000fd5b505050506040513d601f19601f820116820180604052508101906110009190611daa565b101561104e5760405162461bcd60e51b815260206004820152601b60248201527f4572726f72204d696e743a20496e76616c69642062616c616e63650000000000604482015260640161077a565b600a546040516323b872dd60e01b81526001600160a01b03909116906323b872dd9061108290859030908690600401611e78565b6020604051808303816000875af11580156110a1573d6000803e3d6000fd5b505050506040513d601f19601f820116820180604052508101906110c59190611e15565b506001600160a01b03841660009081526005602052604081205490036111c157600254604051630f6798a560e01b8152306004820152602481018590526000916001600160a01b031690630f6798a5906044016020604051808303816000875af1158015611137573d6000803e3d6000fd5b505050506040513d601f19601f8201168201806040525081019061115b9190611daa565b6001600160a01b038681166000818152600560209081526040918290208590558151858152908101899052939450859391928716917fe5333caf0d491193f7d60b041dd0be1874fee276eb50a2370f4454627b9fe4b2910160405180910390a450611294565b600254604051630f6798a560e01b81526001600160a01b038681166004830152602482018690526000921690630f6798a5906044016020604051808303816000875af1158015611215573d6000803e3d6000fd5b505050506040513d601f19601f820116820180604052508101906112399190611daa565b905081856001600160a01b0316846001600160a01b03167fe5333caf0d491193f7d60b041dd0be1874fee276eb50a2370f4454627b9fe4b2848860405161128a929190918252602082015260400190565b60405180910390a4505b6001600160a01b03841660009081526007602052604081205460ff16151590036112c1576112c1846119de565b50505050565b6112cf61167d565b600a80546001600160a01b0319166001600160a01b0392909216919091179055565b6112f961167d565b600180546001600160a01b0319166001600160a01b0392909216919091179055565b611323611866565b3332146113b757600154604051636c9b2a3f60e11b81523360048201526001600160a01b039091169063d936547e90602401602060405180830381865afa158015611372573d6000803e3d6000fd5b505050506040513d601f19601f820116820180604052508101906113969190611e15565b15156001146113b75760405162461bcd60e51b815260040161077a90611e30565b6000336003546040516331a9108f60e11b8152600481018590529192506001600160a01b0380841692911690636352211e90602401602060405180830381865afa158015611409573d6000803e3d6000fd5b505050506040513d601f19601f8201168201806040525081019061142d9190611e5b565b6001600160a01b0316146114835760405162461bcd60e51b815260206004820152601d60248201527f4572726f72204a6f696e47616d653a20496e76616c696420746f6b656e000000604482015260640161077a565b61148c8161172c565b15156001146114d65760405162461bcd60e51b81526020600482015260166024820152754572726f72204a6f696e47616d653a2072656d6f766560501b604482015260640161077a565b600354604051632142170760e11b81526001600160a01b03909116906342842e0e9061150a90849030908790600401611e78565b600060405180830381600087803b15801561152457600080fd5b505af1158015611538573d6000803e3d6000fd5b5050506001600160a01b0382166000818152600660205260408082204381556001810187905590519093508592917f8835d89a423f6b5b05968e56116a716c64600fa000d0945635e6b645d667344691a3505050565b33611598816118b3565b15156001146115f45760405162461bcd60e51b815260206004820152602260248201527f4c65744865726f4e46544f75744f6647616d653a2052656d6f76654865726f4e604482015261119560f21b606482015260840161077a565b50565b6115ff61167d565b610546611a92565b61160f61167d565b6001600160a01b0381166116745760405162461bcd60e51b815260206004820152602660248201527f4f776e61626c653a206e6577206f776e657220697320746865207a65726f206160448201526564647265737360d01b606482015260840161077a565b6115f48161198e565b6000546001600160a01b031633146105465760405162461bcd60e51b815260206004820181905260248201527f4f776e61626c653a2063616c6c6572206973206e6f7420746865206f776e6572604482015260640161077a565b6116df611ad5565b6000805460ff60a01b191690557f5db9ee0a495bf2e6ff9c91a7834c1ba4fdd244a5e8aa4e537bd38aeae4b073aa335b6040516001600160a01b03909116815260200160405180910390a1565b6001600160a01b0381166000908152600660205260408120600181015480830361175a575060019392505050565b6009548254439161176b9190611b25565b11156117b95760405162461bcd60e51b815260206004820152601e60248201527f4572726f722072656d6f7665526f626f744e46543a2054696d65206f75740000604482015260640161077a565b600354604051632142170760e11b81526001600160a01b03909116906342842e0e906117ed90309088908690600401611e78565b600060405180830381600087803b15801561180757600080fd5b505af115801561181b573d6000803e3d6000fd5b50506000600185018190556040518493506001600160a01b03881692507f024586a4911de3791354d0ffd0bde1bf6da1c63d8ba84f8cfa6022ec0bc007339190a35060019392505050565b600054600160a01b900460ff16156105465760405162461bcd60e51b815260206004820152601060248201526f14185d5cd8589b194e881c185d5cd95960821b604482015260640161077a565b6001600160a01b0381166000908152600560205260408120548082036118dc5750600192915050565b600254604051632142170760e11b81526001600160a01b03909116906342842e0e9061191090309087908690600401611e78565b600060405180830381600087803b15801561192a57600080fd5b505af115801561193e573d6000803e3d6000fd5b5050506001600160a01b038416600081815260056020526040808220829055518493507fede76551488b461d8d103194d55cf5e9151f61fa3ae843b372183b0548f7920b9190a350600192915050565b600080546001600160a01b038381166001600160a01b0319831681178455604051919092169283917f8be0079c531659141344cd1fd0a4f28419497f9722a3daafe3b4186f6b6457e09190a35050565b6119e6611866565b600354604051633c3284d160e01b81523060048201526000916001600160a01b031690633c3284d1906024016020604051808303816000875af1158015611a31573d6000803e3d6000fd5b505050506040513d601f19601f82011682018060405250810190611a559190611daa565b6001600160a01b039092166000908152600760209081526040808320805460ff191660019081179091556006909252909120438155019190915550565b611a9a611866565b6000805460ff60a01b1916600160a01b1790557f62e78cea01bee320cd4e420270b5ea74000d11b0c9f74754ebdbfc544b05a25861170f3390565b600054600160a01b900460ff166105465760405162461bcd60e51b815260206004820152601460248201527314185d5cd8589b194e881b9bdd081c185d5cd95960621b604482015260640161077a565b6000611b318284611ee1565b90505b92915050565b6001600160a01b03811681146115f457600080fd5b634e487b7160e01b600052604160045260246000fd5b604051601f8201601f1916810167ffffffffffffffff81118282101715611b8e57611b8e611b4f565b604052919050565b60008060008060808587031215611bac57600080fd5b8435611bb781611b3a565b9350602085810135611bc881611b3a565b935060408601359250606086013567ffffffffffffffff80821115611bec57600080fd5b818801915088601f830112611c0057600080fd5b813581811115611c1257611c12611b4f565b611c24601f8201601f19168501611b65565b91508082528984828501011115611c3a57600080fd5b808484018584013760008482840101525080935050505092959194509250565b600080600060608486031215611c6f57600080fd5b8335611c7a81611b3a565b95602085013595506040909401359392505050565b600060208284031215611ca157600080fd5b5035919050565b600060208284031215611cba57600080fd5b8135611cc581611b3a565b9392505050565b60006020808385031215611cdf57600080fd5b823567ffffffffffffffff80821115611cf757600080fd5b818501915085601f830112611d0b57600080fd5b813581811115611d1d57611d1d611b4f565b8060051b9150611d2e848301611b65565b8181529183018401918481019088841115611d4857600080fd5b938501935b83851015611d725784359250611d6283611b3a565b8282529385019390850190611d4d565b98975050505050505050565b60008060408385031215611d9157600080fd5b8235611d9c81611b3a565b946020939093013593505050565b600060208284031215611dbc57600080fd5b5051919050565b80518015158114611dd357600080fd5b919050565b60008060008060808587031215611dee57600080fd5b611df785611dc3565b60208601516040870151606090970151919890975090945092505050565b600060208284031215611e2757600080fd5b611b3182611dc3565b6020808252601190820152701a5b9d985b1a59081dda1a5d195b1a5cdd607a1b604082015260600190565b600060208284031215611e6d57600080fd5b8151611cc581611b3a565b6001600160a01b039384168152919092166020820152604081019190915260600190565b634e487b7160e01b600052603260045260246000fd5b634e487b7160e01b600052601160045260246000fd5b600060018201611eda57611eda611eb2565b5060010190565b80820180821115611b3457611b34611eb256fea2646970667358221220e4d12ddfbc2d90b11710742c02294b7676d74140fce1635e7c7cdc063e53ec7264736f6c63430008110033",
  "immutableReferences": {},
  "source": "// SPDX-License-Identifier: MIT\npragma solidity ^0.8.0;\n\nimport \"./interfaces/IHero.sol\";\nimport \"./interfaces/IRobot.sol\";\nimport \"./interfaces/ILearning.sol\";\nimport \"./interfaces/IWhiteList.sol\";\n\nimport \"@openzeppelin/contracts/utils/math/SafeMath.sol\";\nimport \"@openzeppelin/contracts/access/Ownable.sol\";\nimport \"@openzeppelin/contracts/security/Pausable.sol\";\nimport \"@openzeppelin/contracts/token/ERC20/IERC20.sol\";\nimport \"@openzeppelin/contracts/token/ERC721/IERC721Receiver.sol\";\n\ncontract GameController is Ownable, IERC721Receiver, Pausable\n{\n    IWhiteList public WhiteList;\n    IHero public  HeroNFT;       \n    IRobot public RobotNFT;\n    ILearning public LearningContract;\n\n    using SafeMath for uint256;\n\n    mapping(address => uint256) public HeroNFTJoinGameOfUser;\n    mapping(address => RobotData) public RobotNFTJoinGameOfUser;\n\n    mapping(address => bool) public UserClaimedRobotNFT;\n    \n    mapping(address => bool) public ListAddressMintFree;\n\n    uint256 public DelayBlockRobotNFTOutGame;\n\n    IERC20 public ERC20CreditToken;         \n    uint256 public PriceCreditMint = 9e18; \n\n    event OnMint(address indexed sender, address indexed reciever, uint256 heroId, uint256 teamId, uint256 indexed amount);\n    event OnHeroNFTJoinedGame(address indexed user, uint256 indexed heroId);\n    event OnHeroNFTOutOfGame(address indexed user, uint256 indexed heroId);\n    event OnRobotNFTJoinedGame(address indexed user, uint256 indexed robotId);\n    event OnRobotNFTOutOfGame(address indexed user, uint256 indexed robotId);\n\n    constructor(IHero heroNFT, IRobot robotNFT, ILearning learningContract, IERC20 erc20CreditToken)\n    {\n        HeroNFT = heroNFT;\n        RobotNFT = robotNFT;\n        LearningContract = learningContract;\n        ERC20CreditToken = erc20CreditToken;\n\n        DelayBlockRobotNFTOutGame = 7000;   // 1 day\n    }\n\n    struct RobotData\n    {\n        uint256 BlockJoin; // the block at which the NFT robot was added to the game\n        uint256 RobotId; // the ID of the NFT robot\n    }\n\n    modifier onlyWhiteList()\n    {\n        if(msg.sender != tx.origin)\n        {\n            require(WhiteList.whitelisted(msg.sender) == true, \"invalid whitelist\");\n        }\n        _;\n    }\n\n    function onERC721Received(address, address, uint256, bytes memory) public virtual override returns (bytes4) \n    {\n        return this.onERC721Received.selector;\n    }\n\n    function PauseSystem() public onlyOwner \n    {\n        _pause();\n    }\n\n    function UnpauseSystem() public onlyOwner\n    {\n        _unpause();\n    }\n\n    function SetWhiteListcontract(IWhiteList addressWhiteList) public onlyOwner \n    {\n        WhiteList = addressWhiteList;\n    }\n\n    function SetListAddressMintFree(address[] memory listAddress) public onlyOwner \n    {\n        for(uint256 index = 0; index < listAddress.length; index ++)\n        {\n            ListAddressMintFree[listAddress[index]] = true;\n        }\n    }\n\n    function RemoveListAddressMintFree(address[] memory listAddress) public onlyOwner \n    {\n        for(uint256 index = 0; index < listAddress.length; index ++)\n        {\n            ListAddressMintFree[listAddress[index]] = false;\n        }\n    }\n\n    function SetHeroNFTContract(IHero addressHeroNFT) public onlyOwner \n    {\n        HeroNFT = addressHeroNFT;\n    }\n\n    function SetRobotNFTContract(IRobot addressRobotNFT) public onlyOwner \n    {\n        RobotNFT = addressRobotNFT;\n    }\n\n    function SetLearningContract(ILearning addressLearningContract) public onlyOwner \n    {\n        LearningContract = addressLearningContract;\n    }\n\n    function SetDelayBlockRobotNFTOutGame(uint256 value) public onlyOwner\n    {\n        DelayBlockRobotNFTOutGame = value;\n    }\n\n    function SetERC20CreditToken(IERC20 erc20CreditToken) public onlyOwner \n    {\n        ERC20CreditToken = erc20CreditToken;\n    }\n\n    function SetPriceCreditMint(uint256 value) public onlyOwner\n    {\n        PriceCreditMint = value;\n    }\n\n    function MintHeroNFT(address receiver, uint256 teamId) public whenNotPaused onlyWhiteList\n    {\n        address sender = _msgSender();\n\n        uint256 amountTokenInput = ListAddressMintFree[receiver] == true ? 0 : PriceCreditMint;\n        if(amountTokenInput == 0)\n        {\n            ListAddressMintFree[receiver] = false;\n        }\n\n        require(ERC20CreditToken.balanceOf(sender) >= amountTokenInput, \"Error Mint: Invalid balance\");\n        ERC20CreditToken.transferFrom(sender, address(this), amountTokenInput);\n\n        if(HeroNFTJoinGameOfUser[receiver] == 0)\n        {\n            uint256 heroId = HeroNFT.Mint(address(this), teamId);\n            HeroNFTJoinGameOfUser[receiver] = heroId;\n            emit OnMint(sender, receiver, heroId, teamId, amountTokenInput);\n        }\n        else\n        {\n            uint256 heroId = HeroNFT.Mint(receiver, teamId);\n            emit OnMint(sender, receiver, heroId, teamId, amountTokenInput);\n        }\n\n        if(UserClaimedRobotNFT[receiver] == false)\n        {\n            ClaimRobotNFT(receiver);\n        }\n    }\n\n    function ClaimRobotNFT(address receiver) private whenNotPaused \n    {\n        uint256 robotId = RobotNFT.Mint(address(this));\n\n        UserClaimedRobotNFT[receiver] = true;\n\n        RobotData storage robotDataOfUser = RobotNFTJoinGameOfUser[receiver];\n        robotDataOfUser.BlockJoin = block.number;\n        robotDataOfUser.RobotId = robotId;\n    }\n    \n    // bridge arbitrum one -> arbitrum nova\n    function MigrateData(address user, uint256 teamId, uint256 levelRobot) public onlyOwner\n    {\n        uint256 heroId = HeroNFT.Mint(address(this), teamId);\n        HeroNFTJoinGameOfUser[user] = heroId;\n\n        uint256 robotId = RobotNFT.Mint(address(this));\n        UserClaimedRobotNFT[user] = true;\n\n        RobotData storage robotDataOfUser = RobotNFTJoinGameOfUser[user];\n        robotDataOfUser.BlockJoin = block.number;\n        robotDataOfUser.RobotId = robotId;\n\n        RobotNFT.SetLevelRobot(robotId, levelRobot);\n    }\n\n    /*\n    allows the user to join the game by transferring their Hero NFT to the game contract.\n    */\n    function LetHeroNFTJoinToGame(uint256 heroId) public whenNotPaused onlyWhiteList\n    {\n        address user = _msgSender();\n        require(HeroNFT.ownerOf(heroId) == user, \"Error JoinHeroNFTToGame: Invalid HeroId\");\n        require(removeHeroNFT(user) == true, \"Error JoinHeroNFTToGame: Remove HeroNFT\");\n\n        HeroNFT.safeTransferFrom(user, address(this), heroId);\n\n        HeroNFTJoinGameOfUser[user] = heroId;\n\n        emit OnHeroNFTJoinedGame(user, heroId);\n    }\n\n    /*\n    allows a user to remove their Hero NFT from the game.\n    */\n    function LetHeroNFTOutOfGame() public \n    {\n        address user = _msgSender();\n\n        require(removeHeroNFT(user) == true, \"LetHeroNFTOutOfGame: RemoveHeroNFT\");   \n    }\n\n    /**\n    allows the user to join the game by transferring their robot NFT to the game contract, \n    and records the robot's data including the block number at which it joined \n     */\n    function LetRobotNFTJoinToGame(uint256 robotId) public whenNotPaused onlyWhiteList\n    {\n        address user = _msgSender();\n        require(RobotNFT.ownerOf(robotId) == user, \"Error JoinGame: Invalid token\");\n        require(removeRobotNFT(user) == true, \"Error JoinGame: remove\");\n\n        RobotNFT.safeTransferFrom(user, address(this), robotId);\n\n        RobotData storage robotDataOfUser = RobotNFTJoinGameOfUser[user];\n        robotDataOfUser.BlockJoin = block.number;\n        robotDataOfUser.RobotId = robotId;\n\n        emit OnRobotNFTJoinedGame(user, robotId);\n    }\n\n    /**\n    allows a user to remove their robot NFT from the game. \n    If the user's robot is currently in the process of learning, \n    the function stops the learning process. \n    The function returns an error if the robot could not be removed from the game.\n    */\n    function LetRobotNFTOutOfGame() public \n    {\n        address user = _msgSender();\n        RobotData memory robotDataOfUser = RobotNFTJoinGameOfUser[user];\n        require(robotDataOfUser.RobotId != 0, \"Error Robot NFT OutGame: Haven't joined the game\");\n\n        (bool learning,,,) = LearningContract.DataUserLearn(user);\n        require(learning == false, \"Error Robot NFT OutGame: Learning\");\n        require(removeRobotNFT(user) == true, \"Error Robot NFT OutGame: removeRobotNFT\");\n    }\n\n    /** \n    removes the NFT robot of a specified 'user' from the game contract \n    if the robot has been in the game for a specified amount of time.\n    */\n    function removeHeroNFT(address user) private returns(bool)\n    {\n        uint256 heroId = HeroNFTJoinGameOfUser[user];\n\n        if(heroId == 0) return true;\n        \n        HeroNFT.safeTransferFrom(address(this), user, heroId);\n\n        HeroNFTJoinGameOfUser[user] = 0;\n\n        emit OnHeroNFTOutOfGame(user, heroId);\n        \n        return true;\n    }\n\n    /** \n    removes the NFT robot of a specified 'user' from the game contract \n    if the robot has been in the game for a specified amount of time.\n    */\n    function removeRobotNFT(address user) private returns(bool)\n    {\n        RobotData storage robotData = RobotNFTJoinGameOfUser[user];\n        uint256 robotId = robotData.RobotId;\n\n        if(robotId == 0) return true;\n        \n        require(robotData.BlockJoin.add(DelayBlockRobotNFTOutGame) <= block.number, \"Error removeRobotNFT: Time out\");\n        RobotNFT.safeTransferFrom(address(this), user, robotId);\n\n        robotData.RobotId = 0;\n\n        emit OnRobotNFTOutOfGame(user, robotId);\n\n        return true;\n    }\n\n    function GetDataUser(address user) public view returns (\n        uint256 avatarId,\n        uint256 teamId,\n        uint256 robotId,\n        uint256 blockRobotJoin,\n        uint256 delayBlockRobotNFTOutGame,\n        uint256 blockNumber\n        )\n    {\n\n        avatarId = HeroNFTJoinGameOfUser[user];\n        teamId = HeroNFT.TeamId(avatarId);\n        robotId = RobotNFTJoinGameOfUser[user].RobotId;\n        blockRobotJoin = RobotNFTJoinGameOfUser[user].BlockJoin;\n        delayBlockRobotNFTOutGame = DelayBlockRobotNFTOutGame;\n        blockNumber = block.number;\n    }\n\n    function WithdrawCredit() public onlyOwner \n    {\n        address to = owner();\n        ERC20CreditToken.transfer(to, ERC20CreditToken.balanceOf(address(this)));\n    }\n}",
  "sourcePath": "/Applications/projects/pixil-saga-contracts/contracts/GameController.sol",
  "compiler": {
    "name": "solc",
    "version": "0.8.17+commit.8df45f5f.Emscripten.clang"
  },
  "schemaVersion": "3.4.11",
  "updatedAt": "2023-05-11T08:12:55.113Z",
  "networkType": "ethereum",
  "devdoc": {
    "kind": "dev",
    "methods": {
      "owner()": {
        "details": "Returns the address of the current owner."
      },
      "paused()": {
        "details": "Returns true if the contract is paused, and false otherwise."
      },
      "renounceOwnership()": {
        "details": "Leaves the contract without owner. It will not be possible to call `onlyOwner` functions anymore. Can only be called by the current owner. NOTE: Renouncing ownership will leave the contract without an owner, thereby removing any functionality that is only available to the owner."
      },
      "transferOwnership(address)": {
        "details": "Transfers ownership of the contract to a new account (`newOwner`). Can only be called by the current owner."
      }
    },
    "version": 1
  },
  "userdoc": {
    "kind": "user",
    "methods": {
      "LetRobotNFTJoinToGame(uint256)": {
        "notice": "allows the user to join the game by transferring their robot NFT to the game contract,  and records the robot's data including the block number at which it joined "
      },
      "LetRobotNFTOutOfGame()": {
        "notice": "allows a user to remove their robot NFT from the game.  If the user's robot is currently in the process of learning,  the function stops the learning process.  The function returns an error if the robot could not be removed from the game."
      }
    },
    "version": 1
  }
}