{
  "contractName": "HeroNFT",
  "abi": [
    {
      "inputs": [
        {
          "internalType": "string",
          "name": "tokenName",
          "type": "string"
        },
        {
          "internalType": "string",
          "name": "tokenSymbol",
          "type": "string"
        },
        {
          "internalType": "contract IERC20",
          "name": "erc20CreditToken",
          "type": "address"
        }
      ],
      "stateMutability": "nonpayable",
      "type": "constructor"
    },
    {
      "anonymous": false,
      "inputs": [
        {
          "indexed": true,
          "internalType": "address",
          "name": "owner",
          "type": "address"
        },
        {
          "indexed": true,
          "internalType": "address",
          "name": "approved",
          "type": "address"
        },
        {
          "indexed": true,
          "internalType": "uint256",
          "name": "tokenId",
          "type": "uint256"
        }
      ],
      "name": "Approval",
      "type": "event"
    },
    {
      "anonymous": false,
      "inputs": [
        {
          "indexed": true,
          "internalType": "address",
          "name": "owner",
          "type": "address"
        },
        {
          "indexed": true,
          "internalType": "address",
          "name": "operator",
          "type": "address"
        },
        {
          "indexed": false,
          "internalType": "bool",
          "name": "approved",
          "type": "bool"
        }
      ],
      "name": "ApprovalForAll",
      "type": "event"
    },
    {
      "anonymous": false,
      "inputs": [
        {
          "indexed": false,
          "internalType": "address",
          "name": "from",
          "type": "address"
        },
        {
          "indexed": false,
          "internalType": "address",
          "name": "to",
          "type": "address"
        },
        {
          "indexed": false,
          "internalType": "uint256",
          "name": "HeroId",
          "type": "uint256"
        }
      ],
      "name": "OnMintNFT",
      "type": "event"
    },
    {
      "anonymous": false,
      "inputs": [
        {
          "indexed": true,
          "internalType": "address",
          "name": "previousOwner",
          "type": "address"
        },
        {
          "indexed": true,
          "internalType": "address",
          "name": "newOwner",
          "type": "address"
        }
      ],
      "name": "OwnershipTransferred",
      "type": "event"
    },
    {
      "anonymous": false,
      "inputs": [
        {
          "indexed": false,
          "internalType": "address",
          "name": "account",
          "type": "address"
        }
      ],
      "name": "Paused",
      "type": "event"
    },
    {
      "anonymous": false,
      "inputs": [
        {
          "indexed": true,
          "internalType": "address",
          "name": "from",
          "type": "address"
        },
        {
          "indexed": true,
          "internalType": "address",
          "name": "to",
          "type": "address"
        },
        {
          "indexed": true,
          "internalType": "uint256",
          "name": "tokenId",
          "type": "uint256"
        }
      ],
      "name": "Transfer",
      "type": "event"
    },
    {
      "anonymous": false,
      "inputs": [
        {
          "indexed": false,
          "internalType": "address",
          "name": "account",
          "type": "address"
        }
      ],
      "name": "Unpaused",
      "type": "event"
    },
    {
      "inputs": [],
      "name": "BaseURI",
      "outputs": [
        {
          "internalType": "string",
          "name": "",
          "type": "string"
        }
      ],
      "stateMutability": "view",
      "type": "function",
      "constant": true
    },
    {
      "inputs": [],
      "name": "ERC20CreditToken",
      "outputs": [
        {
          "internalType": "contract IERC20",
          "name": "",
          "type": "address"
        }
      ],
      "stateMutability": "view",
      "type": "function",
      "constant": true
    },
    {
      "inputs": [],
      "name": "PriceCreditMint",
      "outputs": [
        {
          "internalType": "uint256",
          "name": "",
          "type": "uint256"
        }
      ],
      "stateMutability": "view",
      "type": "function",
      "constant": true
    },
    {
      "inputs": [
        {
          "internalType": "uint256",
          "name": "",
          "type": "uint256"
        }
      ],
      "name": "TeamId",
      "outputs": [
        {
          "internalType": "uint256",
          "name": "",
          "type": "uint256"
        }
      ],
      "stateMutability": "view",
      "type": "function",
      "constant": true
    },
    {
      "inputs": [
        {
          "internalType": "address",
          "name": "to",
          "type": "address"
        },
        {
          "internalType": "uint256",
          "name": "tokenId",
          "type": "uint256"
        }
      ],
      "name": "approve",
      "outputs": [],
      "stateMutability": "nonpayable",
      "type": "function"
    },
    {
      "inputs": [
        {
          "internalType": "address",
          "name": "owner",
          "type": "address"
        }
      ],
      "name": "balanceOf",
      "outputs": [
        {
          "internalType": "uint256",
          "name": "",
          "type": "uint256"
        }
      ],
      "stateMutability": "view",
      "type": "function",
      "constant": true
    },
    {
      "inputs": [
        {
          "internalType": "uint256",
          "name": "tokenId",
          "type": "uint256"
        }
      ],
      "name": "getApproved",
      "outputs": [
        {
          "internalType": "address",
          "name": "",
          "type": "address"
        }
      ],
      "stateMutability": "view",
      "type": "function",
      "constant": true
    },
    {
      "inputs": [
        {
          "internalType": "address",
          "name": "owner",
          "type": "address"
        },
        {
          "internalType": "address",
          "name": "operator",
          "type": "address"
        }
      ],
      "name": "isApprovedForAll",
      "outputs": [
        {
          "internalType": "bool",
          "name": "",
          "type": "bool"
        }
      ],
      "stateMutability": "view",
      "type": "function",
      "constant": true
    },
    {
      "inputs": [],
      "name": "name",
      "outputs": [
        {
          "internalType": "string",
          "name": "",
          "type": "string"
        }
      ],
      "stateMutability": "view",
      "type": "function",
      "constant": true
    },
    {
      "inputs": [],
      "name": "owner",
      "outputs": [
        {
          "internalType": "address",
          "name": "",
          "type": "address"
        }
      ],
      "stateMutability": "view",
      "type": "function",
      "constant": true
    },
    {
      "inputs": [
        {
          "internalType": "uint256",
          "name": "tokenId",
          "type": "uint256"
        }
      ],
      "name": "ownerOf",
      "outputs": [
        {
          "internalType": "address",
          "name": "",
          "type": "address"
        }
      ],
      "stateMutability": "view",
      "type": "function",
      "constant": true
    },
    {
      "inputs": [],
      "name": "paused",
      "outputs": [
        {
          "internalType": "bool",
          "name": "",
          "type": "bool"
        }
      ],
      "stateMutability": "view",
      "type": "function",
      "constant": true
    },
    {
      "inputs": [],
      "name": "renounceOwnership",
      "outputs": [],
      "stateMutability": "nonpayable",
      "type": "function"
    },
    {
      "inputs": [
        {
          "internalType": "address",
          "name": "from",
          "type": "address"
        },
        {
          "internalType": "address",
          "name": "to",
          "type": "address"
        },
        {
          "internalType": "uint256",
          "name": "tokenId",
          "type": "uint256"
        }
      ],
      "name": "safeTransferFrom",
      "outputs": [],
      "stateMutability": "nonpayable",
      "type": "function"
    },
    {
      "inputs": [
        {
          "internalType": "address",
          "name": "from",
          "type": "address"
        },
        {
          "internalType": "address",
          "name": "to",
          "type": "address"
        },
        {
          "internalType": "uint256",
          "name": "tokenId",
          "type": "uint256"
        },
        {
          "internalType": "bytes",
          "name": "data",
          "type": "bytes"
        }
      ],
      "name": "safeTransferFrom",
      "outputs": [],
      "stateMutability": "nonpayable",
      "type": "function"
    },
    {
      "inputs": [
        {
          "internalType": "address",
          "name": "operator",
          "type": "address"
        },
        {
          "internalType": "bool",
          "name": "approved",
          "type": "bool"
        }
      ],
      "name": "setApprovalForAll",
      "outputs": [],
      "stateMutability": "nonpayable",
      "type": "function"
    },
    {
      "inputs": [
        {
          "internalType": "bytes4",
          "name": "interfaceId",
          "type": "bytes4"
        }
      ],
      "name": "supportsInterface",
      "outputs": [
        {
          "internalType": "bool",
          "name": "",
          "type": "bool"
        }
      ],
      "stateMutability": "view",
      "type": "function",
      "constant": true
    },
    {
      "inputs": [],
      "name": "symbol",
      "outputs": [
        {
          "internalType": "string",
          "name": "",
          "type": "string"
        }
      ],
      "stateMutability": "view",
      "type": "function",
      "constant": true
    },
    {
      "inputs": [
        {
          "internalType": "uint256",
          "name": "index",
          "type": "uint256"
        }
      ],
      "name": "tokenByIndex",
      "outputs": [
        {
          "internalType": "uint256",
          "name": "",
          "type": "uint256"
        }
      ],
      "stateMutability": "view",
      "type": "function",
      "constant": true
    },
    {
      "inputs": [
        {
          "internalType": "address",
          "name": "owner",
          "type": "address"
        },
        {
          "internalType": "uint256",
          "name": "index",
          "type": "uint256"
        }
      ],
      "name": "tokenOfOwnerByIndex",
      "outputs": [
        {
          "internalType": "uint256",
          "name": "",
          "type": "uint256"
        }
      ],
      "stateMutability": "view",
      "type": "function",
      "constant": true
    },
    {
      "inputs": [
        {
          "internalType": "uint256",
          "name": "tokenId",
          "type": "uint256"
        }
      ],
      "name": "tokenURI",
      "outputs": [
        {
          "internalType": "string",
          "name": "",
          "type": "string"
        }
      ],
      "stateMutability": "view",
      "type": "function",
      "constant": true
    },
    {
      "inputs": [],
      "name": "totalSupply",
      "outputs": [
        {
          "internalType": "uint256",
          "name": "",
          "type": "uint256"
        }
      ],
      "stateMutability": "view",
      "type": "function",
      "constant": true
    },
    {
      "inputs": [
        {
          "internalType": "address",
          "name": "from",
          "type": "address"
        },
        {
          "internalType": "address",
          "name": "to",
          "type": "address"
        },
        {
          "internalType": "uint256",
          "name": "tokenId",
          "type": "uint256"
        }
      ],
      "name": "transferFrom",
      "outputs": [],
      "stateMutability": "nonpayable",
      "type": "function"
    },
    {
      "inputs": [
        {
          "internalType": "address",
          "name": "newOwner",
          "type": "address"
        }
      ],
      "name": "transferOwnership",
      "outputs": [],
      "stateMutability": "nonpayable",
      "type": "function"
    },
    {
      "inputs": [],
      "name": "SetPauseSystem",
      "outputs": [],
      "stateMutability": "nonpayable",
      "type": "function"
    },
    {
      "inputs": [],
      "name": "SetEnableSystem",
      "outputs": [],
      "stateMutability": "nonpayable",
      "type": "function"
    },
    {
      "inputs": [
        {
          "internalType": "uint256",
          "name": "value",
          "type": "uint256"
        }
      ],
      "name": "SetPriceCreditMint",
      "outputs": [],
      "stateMutability": "nonpayable",
      "type": "function"
    },
    {
      "inputs": [
        {
          "internalType": "string",
          "name": "baseURI",
          "type": "string"
        }
      ],
      "name": "SetBaseURI",
      "outputs": [],
      "stateMutability": "nonpayable",
      "type": "function"
    },
    {
      "inputs": [
        {
          "internalType": "address",
          "name": "to",
          "type": "address"
        },
        {
          "internalType": "uint256",
          "name": "teamId",
          "type": "uint256"
        }
      ],
      "name": "Mint",
      "outputs": [
        {
          "internalType": "uint256",
          "name": "",
          "type": "uint256"
        }
      ],
      "stateMutability": "nonpayable",
      "type": "function"
    },
    {
      "inputs": [
        {
          "internalType": "uint256",
          "name": "heroId",
          "type": "uint256"
        }
      ],
      "name": "Burn",
      "outputs": [],
      "stateMutability": "nonpayable",
      "type": "function"
    },
    {
      "inputs": [],
      "name": "WidthdrawCredit",
      "outputs": [],
      "stateMutability": "nonpayable",
      "type": "function"
    }
  ],
  "bytecode": "0x60806040523480156200001157600080fd5b5060405162002717380380620027178339810160408190526200003491620001cc565b82826000620000448382620002e8565b506001620000538282620002e8565b505050620000706200006a620000b160201b60201c565b620000b5565b600a805460ff60a01b19169055600d80546001600160a01b0319166001600160a01b03929092169190911790555050670de0b6b3a7640000600e55620003b4565b3390565b600a80546001600160a01b038381166001600160a01b0319831681179093556040519116919082907f8be0079c531659141344cd1fd0a4f28419497f9722a3daafe3b4186f6b6457e090600090a35050565b634e487b7160e01b600052604160045260246000fd5b600082601f8301126200012f57600080fd5b81516001600160401b03808211156200014c576200014c62000107565b604051601f8301601f19908116603f0116810190828211818310171562000177576200017762000107565b816040528381526020925086838588010111156200019457600080fd5b600091505b83821015620001b8578582018301518183018401529082019062000199565b600093810190920192909252949350505050565b600080600060608486031215620001e257600080fd5b83516001600160401b0380821115620001fa57600080fd5b62000208878388016200011d565b945060208601519150808211156200021f57600080fd5b506200022e868287016200011d565b604086015190935090506001600160a01b03811681146200024e57600080fd5b809150509250925092565b600181811c908216806200026e57607f821691505b6020821081036200028f57634e487b7160e01b600052602260045260246000fd5b50919050565b601f821115620002e357600081815260208120601f850160051c81016020861015620002be5750805b601f850160051c820191505b81811015620002df57828155600101620002ca565b5050505b505050565b81516001600160401b0381111562000304576200030462000107565b6200031c8162000315845462000259565b8462000295565b602080601f8311600181146200035457600084156200033b5750858301515b600019600386901b1c1916600185901b178555620002df565b600085815260208120601f198616915b82811015620003855788860151825594840194600190910190840162000364565b5085821015620003a45787850151600019600388901b60f8161c191681555b5050505050600190811b01905550565b61235380620003c46000396000f3fe608060405234801561001057600080fd5b50600436106101e55760003560e01c806370a082311161010f578063b88d4fde116100a2578063d039617811610071578063d0396178146103f2578063e985e9c5146103fb578063f2fde38b14610437578063ffcc43c41461044a57600080fd5b8063b88d4fde146103b1578063b90306ad146103c4578063c1941636146103d7578063c87b56dd146103df57600080fd5b806395d89b41116100de57806395d89b411461036e5780639a56115614610376578063a22cb4651461037e578063a27628331461039157600080fd5b806370a082311461032f578063715018a6146103425780638a0a29261461034a5780638da5cb5b1461035d57600080fd5b80632375b8f21161018757806342842e0e1161015657806342842e0e146102e45780634f6ccce7146102f75780635c975abb1461030a5780636352211e1461031c57600080fd5b80632375b8f21461029857806323b872dd146102ab57806323c8c948146102be5780632f745c59146102d157600080fd5b8063095ea7b3116101c3578063095ea7b3146102525780630f6798a51461026757806318160ddd146102885780631ce992031461029057600080fd5b806301ffc9a7146101ea57806306fdde0314610212578063081812fc14610227575b600080fd5b6101fd6101f8366004611ccb565b610452565b60405190151581526020015b60405180910390f35b61021a61047d565b6040516102099190611d38565b61023a610235366004611d4b565b61050f565b6040516001600160a01b039091168152602001610209565b610265610260366004611d80565b610536565b005b61027a610275366004611d80565b610650565b604051908152602001610209565b60085461027a565b610265610824565b6102656102a6366004611d4b565b610836565b6102656102b9366004611daa565b610843565b6102656102cc366004611e72565b610874565b61027a6102df366004611d80565b6108e7565b6102656102f2366004611daa565b61097d565b61027a610305366004611d4b565b610998565b600a54600160a01b900460ff166101fd565b61023a61032a366004611d4b565b610a2b565b61027a61033d366004611ebb565b610a8b565b610265610b11565b600d5461023a906001600160a01b031681565b600a546001600160a01b031661023a565b61021a610b23565b610265610b32565b61026561038c366004611ee4565b610c34565b61027a61039f366004611d4b565b600f6020526000908152604090205481565b6102656103bf366004611f1b565b610c3f565b6102656103d2366004611d4b565b610c77565b610265610cef565b61021a6103ed366004611d4b565b610cff565b61027a600e5481565b6101fd610409366004611f97565b6001600160a01b03918216600090815260056020908152604080832093909416825291909152205460ff1690565b610265610445366004611ebb565b610d66565b61021a610ddc565b60006001600160e01b0319821663780e9d6360e01b1480610477575061047782610e6a565b92915050565b60606000805461048c90611fca565b80601f01602080910402602001604051908101604052809291908181526020018280546104b890611fca565b80156105055780601f106104da57610100808354040283529160200191610505565b820191906000526020600020905b8154815290600101906020018083116104e857829003601f168201915b5050505050905090565b600061051a82610eba565b506000908152600460205260409020546001600160a01b031690565b600061054182610a2b565b9050806001600160a01b0316836001600160a01b0316036105b35760405162461bcd60e51b815260206004820152602160248201527f4552433732313a20617070726f76616c20746f2063757272656e74206f776e656044820152603960f91b60648201526084015b60405180910390fd5b336001600160a01b03821614806105cf57506105cf8133610409565b6106415760405162461bcd60e51b815260206004820152603d60248201527f4552433732313a20617070726f76652063616c6c6572206973206e6f7420746f60448201527f6b656e206f776e6572206f7220617070726f76656420666f7220616c6c00000060648201526084016105aa565b61064b8383610f19565b505050565b600061065a610f87565b600e54600d546040516370a0823160e01b81526001600160a01b038681166004830152909116906370a0823190602401602060405180830381865afa1580156106a7573d6000803e3d6000fd5b505050506040513d601f19601f820116820180604052508101906106cb9190612004565b10156107195760405162461bcd60e51b815260206004820152601b60248201527f4572726f72204d696e743a20496e76616c69642062616c616e6365000000000060448201526064016105aa565b600d54600e546040516323b872dd60e01b81526001600160a01b03868116600483015230602483015260448201929092529116906323b872dd906064016020604051808303816000875af1158015610775573d6000803e3d6000fd5b505050506040513d601f19601f82011682018060405250810190610799919061201d565b506107a8600b80546001019055565b60006107b3600b5490565b90506107bf8482610fd4565b6000818152600f602090815260409182902085905581513381526001600160a01b038716918101919091529081018290527f9ce4cec2c551a95b9c29a42cf2c132d4f738c3817de4668c098bb4ec6c0a5dfb9060600160405180910390a19392505050565b61082c610fee565b610834611048565b565b61083e610fee565b600e55565b61084d338261109d565b6108695760405162461bcd60e51b81526004016105aa9061203a565b61064b83838361111c565b61087c610fee565b60008151116108d75760405162461bcd60e51b815260206004820152602160248201527f4572726f7220536574426173655552493a20496e76616c6964206261736555526044820152604960f81b60648201526084016105aa565b600c6108e382826120d5565b5050565b60006108f283610a8b565b82106109545760405162461bcd60e51b815260206004820152602b60248201527f455243373231456e756d657261626c653a206f776e657220696e646578206f7560448201526a74206f6620626f756e647360a81b60648201526084016105aa565b506001600160a01b03919091166000908152600660209081526040808320938352929052205490565b61064b83838360405180602001604052806000815250610c3f565b60006109a360085490565b8210610a065760405162461bcd60e51b815260206004820152602c60248201527f455243373231456e756d657261626c653a20676c6f62616c20696e646578206f60448201526b7574206f6620626f756e647360a01b60648201526084016105aa565b60088281548110610a1957610a19612195565b90600052602060002001549050919050565b6000818152600260205260408120546001600160a01b0316806104775760405162461bcd60e51b8152602060048201526018602482015277115490cdcc8c4e881a5b9d985b1a59081d1bdad95b88125160421b60448201526064016105aa565b60006001600160a01b038216610af55760405162461bcd60e51b815260206004820152602960248201527f4552433732313a2061646472657373207a65726f206973206e6f7420612076616044820152683634b21037bbb732b960b91b60648201526084016105aa565b506001600160a01b031660009081526003602052604090205490565b610b19610fee565b610834600061128d565b60606001805461048c90611fca565b610b3a610fee565b6000610b4e600a546001600160a01b031690565b600d546040516370a0823160e01b81523060048201529192506001600160a01b03169063a9059cbb90839083906370a0823190602401602060405180830381865afa158015610ba1573d6000803e3d6000fd5b505050506040513d601f19601f82011682018060405250810190610bc59190612004565b6040516001600160e01b031960e085901b1681526001600160a01b03909216600483015260248201526044016020604051808303816000875af1158015610c10573d6000803e3d6000fd5b505050506040513d601f19601f820116820180604052508101906108e3919061201d565b6108e33383836112df565b610c49338361109d565b610c655760405162461bcd60e51b81526004016105aa9061203a565b610c71848484846113ad565b50505050565b610c7f610f87565b610c89338261109d565b610ce35760405162461bcd60e51b815260206004820152602560248201527f4275726e2063616c6c6572206973206e6f74206f776e6572206e6f72206170706044820152641c9bdd995960da1b60648201526084016105aa565b610cec816113e0565b50565b610cf7610fee565b610834611483565b6060610d0a82610eba565b6000610d146114c6565b90506000815111610d345760405180602001604052806000815250610d5f565b80610d3e846114d5565b604051602001610d4f9291906121ab565b6040516020818303038152906040525b9392505050565b610d6e610fee565b6001600160a01b038116610dd35760405162461bcd60e51b815260206004820152602660248201527f4f776e61626c653a206e6577206f776e657220697320746865207a65726f206160448201526564647265737360d01b60648201526084016105aa565b610cec8161128d565b600c8054610de990611fca565b80601f0160208091040260200160405190810160405280929190818152602001828054610e1590611fca565b8015610e625780601f10610e3757610100808354040283529160200191610e62565b820191906000526020600020905b815481529060010190602001808311610e4557829003601f168201915b505050505081565b60006001600160e01b031982166380ac58cd60e01b1480610e9b57506001600160e01b03198216635b5e139f60e01b145b8061047757506301ffc9a760e01b6001600160e01b0319831614610477565b6000818152600260205260409020546001600160a01b0316610cec5760405162461bcd60e51b8152602060048201526018602482015277115490cdcc8c4e881a5b9d985b1a59081d1bdad95b88125160421b60448201526064016105aa565b600081815260046020526040902080546001600160a01b0319166001600160a01b0384169081179091558190610f4e82610a2b565b6001600160a01b03167f8c5be1e5ebec7d5bd14f71427d1e84f3dd0314c0f7b2291e5b200ac8c7c3b92560405160405180910390a45050565b600a54600160a01b900460ff16156108345760405162461bcd60e51b815260206004820152601060248201526f14185d5cd8589b194e881c185d5cd95960821b60448201526064016105aa565b6108e3828260405180602001604052806000815250611568565b600a546001600160a01b031633146108345760405162461bcd60e51b815260206004820181905260248201527f4f776e61626c653a2063616c6c6572206973206e6f7420746865206f776e657260448201526064016105aa565b61105061159b565b600a805460ff60a01b191690557f5db9ee0a495bf2e6ff9c91a7834c1ba4fdd244a5e8aa4e537bd38aeae4b073aa335b6040516001600160a01b03909116815260200160405180910390a1565b6000806110a983610a2b565b9050806001600160a01b0316846001600160a01b031614806110f057506001600160a01b0380821660009081526005602090815260408083209388168352929052205460ff165b806111145750836001600160a01b03166111098461050f565b6001600160a01b0316145b949350505050565b826001600160a01b031661112f82610a2b565b6001600160a01b0316146111555760405162461bcd60e51b81526004016105aa906121da565b6001600160a01b0382166111b75760405162461bcd60e51b8152602060048201526024808201527f4552433732313a207472616e7366657220746f20746865207a65726f206164646044820152637265737360e01b60648201526084016105aa565b6111c483838360016115eb565b826001600160a01b03166111d782610a2b565b6001600160a01b0316146111fd5760405162461bcd60e51b81526004016105aa906121da565b600081815260046020908152604080832080546001600160a01b03199081169091556001600160a01b0387811680865260038552838620805460001901905590871680865283862080546001019055868652600290945282852080549092168417909155905184937fddf252ad1be2c89b69c2b068fc378daa952ba7f163c4a11628f55a4df523b3ef91a4505050565b600a80546001600160a01b038381166001600160a01b0319831681179093556040519116919082907f8be0079c531659141344cd1fd0a4f28419497f9722a3daafe3b4186f6b6457e090600090a35050565b816001600160a01b0316836001600160a01b0316036113405760405162461bcd60e51b815260206004820152601960248201527f4552433732313a20617070726f766520746f2063616c6c65720000000000000060448201526064016105aa565b6001600160a01b03838116600081815260056020908152604080832094871680845294825291829020805460ff191686151590811790915591519182527f17307eab39ab6107e8899845ad3d59bd9653f200f220920489ca2b5937696c31910160405180910390a3505050565b6113b884848461111c565b6113c48484848461172b565b610c715760405162461bcd60e51b81526004016105aa9061221f565b60006113eb82610a2b565b90506113fb8160008460016115eb565b61140482610a2b565b600083815260046020908152604080832080546001600160a01b03199081169091556001600160a01b0385168085526003845282852080546000190190558785526002909352818420805490911690555192935084927fddf252ad1be2c89b69c2b068fc378daa952ba7f163c4a11628f55a4df523b3ef908390a45050565b61148b610f87565b600a805460ff60a01b1916600160a01b1790557f62e78cea01bee320cd4e420270b5ea74000d11b0c9f74754ebdbfc544b05a2586110803390565b6060600c805461048c90611fca565b606060006114e28361182c565b600101905060008167ffffffffffffffff81111561150257611502611de6565b6040519080825280601f01601f19166020018201604052801561152c576020820181803683370190505b5090508181016020015b600019016f181899199a1a9b1b9c1cb0b131b232b360811b600a86061a8153600a850494508461153657509392505050565b6115728383611904565b61157f600084848461172b565b61064b5760405162461bcd60e51b81526004016105aa9061221f565b600a54600160a01b900460ff166108345760405162461bcd60e51b815260206004820152601460248201527314185d5cd8589b194e881b9bdd081c185d5cd95960621b60448201526064016105aa565b6115f784848484611a9d565b60018111156116665760405162461bcd60e51b815260206004820152603560248201527f455243373231456e756d657261626c653a20636f6e7365637574697665207472604482015274185b9cd9995c9cc81b9bdd081cdd5c1c1bdc9d1959605a1b60648201526084016105aa565b816001600160a01b0385166116c2576116bd81600880546000838152600960205260408120829055600182018355919091527ff3f7a9fe364faab93b216da50a3214154f22a0a2b415b23a84c8169e8b636ee30155565b6116e5565b836001600160a01b0316856001600160a01b0316146116e5576116e58582611b25565b6001600160a01b038416611701576116fc81611bc2565b611724565b846001600160a01b0316846001600160a01b031614611724576117248482611c71565b5050505050565b60006001600160a01b0384163b1561182157604051630a85bd0160e11b81526001600160a01b0385169063150b7a029061176f903390899088908890600401612271565b6020604051808303816000875af19250505080156117aa575060408051601f3d908101601f191682019092526117a7918101906122ae565b60015b611807573d8080156117d8576040519150601f19603f3d011682016040523d82523d6000602084013e6117dd565b606091505b5080516000036117ff5760405162461bcd60e51b81526004016105aa9061221f565b805181602001fd5b6001600160e01b031916630a85bd0160e11b149050611114565b506001949350505050565b60008072184f03e93ff9f4daa797ed6e38ed64bf6a1f0160401b831061186b5772184f03e93ff9f4daa797ed6e38ed64bf6a1f0160401b830492506040015b6d04ee2d6d415b85acef81000000008310611897576d04ee2d6d415b85acef8100000000830492506020015b662386f26fc1000083106118b557662386f26fc10000830492506010015b6305f5e10083106118cd576305f5e100830492506008015b61271083106118e157612710830492506004015b606483106118f3576064830492506002015b600a83106104775760010192915050565b6001600160a01b03821661195a5760405162461bcd60e51b815260206004820181905260248201527f4552433732313a206d696e7420746f20746865207a65726f206164647265737360448201526064016105aa565b6000818152600260205260409020546001600160a01b0316156119bf5760405162461bcd60e51b815260206004820152601c60248201527f4552433732313a20746f6b656e20616c7265616479206d696e7465640000000060448201526064016105aa565b6119cd6000838360016115eb565b6000818152600260205260409020546001600160a01b031615611a325760405162461bcd60e51b815260206004820152601c60248201527f4552433732313a20746f6b656e20616c7265616479206d696e7465640000000060448201526064016105aa565b6001600160a01b038216600081815260036020908152604080832080546001019055848352600290915280822080546001600160a01b0319168417905551839291907fddf252ad1be2c89b69c2b068fc378daa952ba7f163c4a11628f55a4df523b3ef908290a45050565b6001811115610c71576001600160a01b03841615611ae3576001600160a01b03841660009081526003602052604081208054839290611add9084906122e1565b90915550505b6001600160a01b03831615610c71576001600160a01b03831660009081526003602052604081208054839290611b1a9084906122f4565b909155505050505050565b60006001611b3284610a8b565b611b3c91906122e1565b600083815260076020526040902054909150808214611b8f576001600160a01b03841660009081526006602090815260408083208584528252808320548484528184208190558352600790915290208190555b5060009182526007602090815260408084208490556001600160a01b039094168352600681528383209183525290812055565b600854600090611bd4906001906122e1565b60008381526009602052604081205460088054939450909284908110611bfc57611bfc612195565b906000526020600020015490508060088381548110611c1d57611c1d612195565b6000918252602080832090910192909255828152600990915260408082208490558582528120556008805480611c5557611c55612307565b6001900381819060005260206000200160009055905550505050565b6000611c7c83610a8b565b6001600160a01b039093166000908152600660209081526040808320868452825280832085905593825260079052919091209190915550565b6001600160e01b031981168114610cec57600080fd5b600060208284031215611cdd57600080fd5b8135610d5f81611cb5565b60005b83811015611d03578181015183820152602001611ceb565b50506000910152565b60008151808452611d24816020860160208601611ce8565b601f01601f19169290920160200192915050565b602081526000610d5f6020830184611d0c565b600060208284031215611d5d57600080fd5b5035919050565b80356001600160a01b0381168114611d7b57600080fd5b919050565b60008060408385031215611d9357600080fd5b611d9c83611d64565b946020939093013593505050565b600080600060608486031215611dbf57600080fd5b611dc884611d64565b9250611dd660208501611d64565b9150604084013590509250925092565b634e487b7160e01b600052604160045260246000fd5b600067ffffffffffffffff80841115611e1757611e17611de6565b604051601f8501601f19908116603f01168101908282118183101715611e3f57611e3f611de6565b81604052809350858152868686011115611e5857600080fd5b858560208301376000602087830101525050509392505050565b600060208284031215611e8457600080fd5b813567ffffffffffffffff811115611e9b57600080fd5b8201601f81018413611eac57600080fd5b61111484823560208401611dfc565b600060208284031215611ecd57600080fd5b610d5f82611d64565b8015158114610cec57600080fd5b60008060408385031215611ef757600080fd5b611f0083611d64565b91506020830135611f1081611ed6565b809150509250929050565b60008060008060808587031215611f3157600080fd5b611f3a85611d64565b9350611f4860208601611d64565b925060408501359150606085013567ffffffffffffffff811115611f6b57600080fd5b8501601f81018713611f7c57600080fd5b611f8b87823560208401611dfc565b91505092959194509250565b60008060408385031215611faa57600080fd5b611fb383611d64565b9150611fc160208401611d64565b90509250929050565b600181811c90821680611fde57607f821691505b602082108103611ffe57634e487b7160e01b600052602260045260246000fd5b50919050565b60006020828403121561201657600080fd5b5051919050565b60006020828403121561202f57600080fd5b8151610d5f81611ed6565b6020808252602d908201527f4552433732313a2063616c6c6572206973206e6f7420746f6b656e206f776e6560408201526c1c881bdc88185c1c1c9bdd9959609a1b606082015260800190565b601f82111561064b57600081815260208120601f850160051c810160208610156120ae5750805b601f850160051c820191505b818110156120cd578281556001016120ba565b505050505050565b815167ffffffffffffffff8111156120ef576120ef611de6565b612103816120fd8454611fca565b84612087565b602080601f83116001811461213857600084156121205750858301515b600019600386901b1c1916600185901b1785556120cd565b600085815260208120601f198616915b8281101561216757888601518255948401946001909101908401612148565b50858210156121855787850151600019600388901b60f8161c191681555b5050505050600190811b01905550565b634e487b7160e01b600052603260045260246000fd5b600083516121bd818460208801611ce8565b8351908301906121d1818360208801611ce8565b01949350505050565b60208082526025908201527f4552433732313a207472616e736665722066726f6d20696e636f72726563742060408201526437bbb732b960d91b606082015260800190565b60208082526032908201527f4552433732313a207472616e7366657220746f206e6f6e20455243373231526560408201527131b2b4bb32b91034b6b83632b6b2b73a32b960711b606082015260800190565b6001600160a01b03858116825284166020820152604081018390526080606082018190526000906122a490830184611d0c565b9695505050505050565b6000602082840312156122c057600080fd5b8151610d5f81611cb5565b634e487b7160e01b600052601160045260246000fd5b81810381811115610477576104776122cb565b80820180821115610477576104776122cb565b634e487b7160e01b600052603160045260246000fdfea2646970667358221220e019be638ad9998e767c75ee7be3007072841e19fd02cdea2dcff48c73fd897a64736f6c63430008110033",
  "immutableReferences": {},
  "source": "// SPDX-License-Identifier: MIT\npragma solidity ^0.8.0;\n\nimport \"@openzeppelin/contracts/utils/math/SafeMath.sol\";\nimport \"@openzeppelin/contracts/utils/Counters.sol\";\nimport \"@openzeppelin/contracts/access/Ownable.sol\";\nimport \"@openzeppelin/contracts/security/Pausable.sol\";\nimport \"@openzeppelin/contracts/token/ERC20/IERC20.sol\";\nimport \"@openzeppelin/contracts/token/ERC721/extensions/ERC721Enumerable.sol\";\n\n// NFT\ncontract HeroNFT is ERC721Enumerable, Ownable, Pausable\n{\n    using Counters for Counters.Counter;\n    Counters.Counter private HeroId;\n\n    string public BaseURI;\n\n    IERC20 public ERC20CreditToken;\n\n    uint256 public PriceCreditMint;\n\n    mapping(uint256 => uint256) public TeamId;\n\n    event OnMintNFT(address from, address to, uint256 HeroId);\n\n    constructor(\n        string memory tokenName, string memory tokenSymbol,\n        IERC20 erc20CreditToken\n        ) ERC721 (tokenName, tokenSymbol) \n    {\n        ERC20CreditToken = erc20CreditToken;\n        PriceCreditMint = 1e18;\n    }\n\n    function SetPauseSystem() public onlyOwner \n    {\n        _pause();\n    }\n\n    function SetEnableSystem() public onlyOwner\n    {\n        _unpause();\n    }\n\n    function SetPriceCreditMint(uint256 value) public onlyOwner\n    {\n        PriceCreditMint = value;\n    }\n\n    function SetBaseURI(string memory baseURI) public onlyOwner \n    {\n        require(bytes(baseURI).length > 0, \"Error SetBaseURI: Invalid baseURI\");\n        BaseURI = baseURI;\n    }\n\n    function Mint(address to, uint256 teamId) public whenNotPaused returns(uint256)\n    {\n        require(ERC20CreditToken.balanceOf(to) >= PriceCreditMint, \"Error Mint: Invalid balance\");\n        ERC20CreditToken.transferFrom(to, address(this), PriceCreditMint);\n        HeroId.increment();\n        uint256 newHeroId = HeroId.current();\n        _safeMint(to, newHeroId);\n        TeamId[newHeroId] = teamId;\n\n        emit OnMintNFT(msg.sender, to, newHeroId);\n\n        return newHeroId;\n    }\n\n    function Burn(uint256 heroId) public whenNotPaused virtual\n    {\n        require(_isApprovedOrOwner(msg.sender, heroId), \"Burn caller is not owner nor approved\");\n        _burn(heroId);\n    }\n\n    function _baseURI() internal view override returns(string memory)\n    {\n        return BaseURI;\n    }\n\n    function WidthdrawCredit() public onlyOwner \n    {\n        address to = owner();\n        ERC20CreditToken.transfer(to, ERC20CreditToken.balanceOf(address(this)));\n    }\n}",
  "sourcePath": "/Applications/projects/garbi-contracts/contracts/HeroNFT.sol",
  "compiler": {
    "name": "solc",
    "version": "0.8.17+commit.8df45f5f.Emscripten.clang"
  },
  "schemaVersion": "3.4.11",
  "updatedAt": "2023-03-20T10:25:30.126Z",
  "networkType": "ethereum",
  "devdoc": {
    "kind": "dev",
    "methods": {
      "approve(address,uint256)": {
        "details": "See {IERC721-approve}."
      },
      "balanceOf(address)": {
        "details": "See {IERC721-balanceOf}."
      },
      "getApproved(uint256)": {
        "details": "See {IERC721-getApproved}."
      },
      "isApprovedForAll(address,address)": {
        "details": "See {IERC721-isApprovedForAll}."
      },
      "name()": {
        "details": "See {IERC721Metadata-name}."
      },
      "owner()": {
        "details": "Returns the address of the current owner."
      },
      "ownerOf(uint256)": {
        "details": "See {IERC721-ownerOf}."
      },
      "paused()": {
        "details": "Returns true if the contract is paused, and false otherwise."
      },
      "renounceOwnership()": {
        "details": "Leaves the contract without owner. It will not be possible to call `onlyOwner` functions anymore. Can only be called by the current owner. NOTE: Renouncing ownership will leave the contract without an owner, thereby removing any functionality that is only available to the owner."
      },
      "safeTransferFrom(address,address,uint256)": {
        "details": "See {IERC721-safeTransferFrom}."
      },
      "safeTransferFrom(address,address,uint256,bytes)": {
        "details": "See {IERC721-safeTransferFrom}."
      },
      "setApprovalForAll(address,bool)": {
        "details": "See {IERC721-setApprovalForAll}."
      },
      "supportsInterface(bytes4)": {
        "details": "See {IERC165-supportsInterface}."
      },
      "symbol()": {
        "details": "See {IERC721Metadata-symbol}."
      },
      "tokenByIndex(uint256)": {
        "details": "See {IERC721Enumerable-tokenByIndex}."
      },
      "tokenOfOwnerByIndex(address,uint256)": {
        "details": "See {IERC721Enumerable-tokenOfOwnerByIndex}."
      },
      "tokenURI(uint256)": {
        "details": "See {IERC721Metadata-tokenURI}."
      },
      "totalSupply()": {
        "details": "See {IERC721Enumerable-totalSupply}."
      },
      "transferFrom(address,address,uint256)": {
        "details": "See {IERC721-transferFrom}."
      },
      "transferOwnership(address)": {
        "details": "Transfers ownership of the contract to a new account (`newOwner`). Can only be called by the current owner."
      }
    },
    "version": 1
  },
  "userdoc": {
    "kind": "user",
    "methods": {},
    "version": 1
  }
}