{
  "contractName": "HeroNFT",
  "abi": [
    {
      "inputs": [
        {
          "internalType": "string",
          "name": "tokenName",
          "type": "string"
        },
        {
          "internalType": "string",
          "name": "tokenSymbol",
          "type": "string"
        },
        {
          "internalType": "contract IERC20",
          "name": "erc20CreditToken",
          "type": "address"
        }
      ],
      "stateMutability": "nonpayable",
      "type": "constructor"
    },
    {
      "anonymous": false,
      "inputs": [
        {
          "indexed": true,
          "internalType": "address",
          "name": "owner",
          "type": "address"
        },
        {
          "indexed": true,
          "internalType": "address",
          "name": "approved",
          "type": "address"
        },
        {
          "indexed": true,
          "internalType": "uint256",
          "name": "tokenId",
          "type": "uint256"
        }
      ],
      "name": "Approval",
      "type": "event"
    },
    {
      "anonymous": false,
      "inputs": [
        {
          "indexed": true,
          "internalType": "address",
          "name": "owner",
          "type": "address"
        },
        {
          "indexed": true,
          "internalType": "address",
          "name": "operator",
          "type": "address"
        },
        {
          "indexed": false,
          "internalType": "bool",
          "name": "approved",
          "type": "bool"
        }
      ],
      "name": "ApprovalForAll",
      "type": "event"
    },
    {
      "anonymous": false,
      "inputs": [
        {
          "indexed": false,
          "internalType": "address",
          "name": "from",
          "type": "address"
        },
        {
          "indexed": false,
          "internalType": "address",
          "name": "to",
          "type": "address"
        },
        {
          "indexed": false,
          "internalType": "uint256",
          "name": "HeroId",
          "type": "uint256"
        }
      ],
      "name": "OnMintNFT",
      "type": "event"
    },
    {
      "anonymous": false,
      "inputs": [
        {
          "indexed": true,
          "internalType": "address",
          "name": "previousOwner",
          "type": "address"
        },
        {
          "indexed": true,
          "internalType": "address",
          "name": "newOwner",
          "type": "address"
        }
      ],
      "name": "OwnershipTransferred",
      "type": "event"
    },
    {
      "anonymous": false,
      "inputs": [
        {
          "indexed": false,
          "internalType": "address",
          "name": "account",
          "type": "address"
        }
      ],
      "name": "Paused",
      "type": "event"
    },
    {
      "anonymous": false,
      "inputs": [
        {
          "indexed": true,
          "internalType": "address",
          "name": "from",
          "type": "address"
        },
        {
          "indexed": true,
          "internalType": "address",
          "name": "to",
          "type": "address"
        },
        {
          "indexed": true,
          "internalType": "uint256",
          "name": "tokenId",
          "type": "uint256"
        }
      ],
      "name": "Transfer",
      "type": "event"
    },
    {
      "anonymous": false,
      "inputs": [
        {
          "indexed": false,
          "internalType": "address",
          "name": "account",
          "type": "address"
        }
      ],
      "name": "Unpaused",
      "type": "event"
    },
    {
      "inputs": [],
      "name": "BaseURI",
      "outputs": [
        {
          "internalType": "string",
          "name": "",
          "type": "string"
        }
      ],
      "stateMutability": "view",
      "type": "function",
      "constant": true
    },
    {
      "inputs": [],
      "name": "ERC20CreditToken",
      "outputs": [
        {
          "internalType": "contract IERC20",
          "name": "",
          "type": "address"
        }
      ],
      "stateMutability": "view",
      "type": "function",
      "constant": true
    },
    {
      "inputs": [],
      "name": "MaxTeamId",
      "outputs": [
        {
          "internalType": "uint256",
          "name": "",
          "type": "uint256"
        }
      ],
      "stateMutability": "view",
      "type": "function",
      "constant": true
    },
    {
      "inputs": [],
      "name": "PriceCreditMint",
      "outputs": [
        {
          "internalType": "uint256",
          "name": "",
          "type": "uint256"
        }
      ],
      "stateMutability": "view",
      "type": "function",
      "constant": true
    },
    {
      "inputs": [
        {
          "internalType": "uint256",
          "name": "",
          "type": "uint256"
        }
      ],
      "name": "TeamId",
      "outputs": [
        {
          "internalType": "uint256",
          "name": "",
          "type": "uint256"
        }
      ],
      "stateMutability": "view",
      "type": "function",
      "constant": true
    },
    {
      "inputs": [
        {
          "internalType": "address",
          "name": "to",
          "type": "address"
        },
        {
          "internalType": "uint256",
          "name": "tokenId",
          "type": "uint256"
        }
      ],
      "name": "approve",
      "outputs": [],
      "stateMutability": "nonpayable",
      "type": "function"
    },
    {
      "inputs": [
        {
          "internalType": "address",
          "name": "owner",
          "type": "address"
        }
      ],
      "name": "balanceOf",
      "outputs": [
        {
          "internalType": "uint256",
          "name": "",
          "type": "uint256"
        }
      ],
      "stateMutability": "view",
      "type": "function",
      "constant": true
    },
    {
      "inputs": [
        {
          "internalType": "uint256",
          "name": "tokenId",
          "type": "uint256"
        }
      ],
      "name": "getApproved",
      "outputs": [
        {
          "internalType": "address",
          "name": "",
          "type": "address"
        }
      ],
      "stateMutability": "view",
      "type": "function",
      "constant": true
    },
    {
      "inputs": [
        {
          "internalType": "address",
          "name": "owner",
          "type": "address"
        },
        {
          "internalType": "address",
          "name": "operator",
          "type": "address"
        }
      ],
      "name": "isApprovedForAll",
      "outputs": [
        {
          "internalType": "bool",
          "name": "",
          "type": "bool"
        }
      ],
      "stateMutability": "view",
      "type": "function",
      "constant": true
    },
    {
      "inputs": [],
      "name": "name",
      "outputs": [
        {
          "internalType": "string",
          "name": "",
          "type": "string"
        }
      ],
      "stateMutability": "view",
      "type": "function",
      "constant": true
    },
    {
      "inputs": [],
      "name": "owner",
      "outputs": [
        {
          "internalType": "address",
          "name": "",
          "type": "address"
        }
      ],
      "stateMutability": "view",
      "type": "function",
      "constant": true
    },
    {
      "inputs": [
        {
          "internalType": "uint256",
          "name": "tokenId",
          "type": "uint256"
        }
      ],
      "name": "ownerOf",
      "outputs": [
        {
          "internalType": "address",
          "name": "",
          "type": "address"
        }
      ],
      "stateMutability": "view",
      "type": "function",
      "constant": true
    },
    {
      "inputs": [],
      "name": "paused",
      "outputs": [
        {
          "internalType": "bool",
          "name": "",
          "type": "bool"
        }
      ],
      "stateMutability": "view",
      "type": "function",
      "constant": true
    },
    {
      "inputs": [],
      "name": "renounceOwnership",
      "outputs": [],
      "stateMutability": "nonpayable",
      "type": "function"
    },
    {
      "inputs": [
        {
          "internalType": "address",
          "name": "from",
          "type": "address"
        },
        {
          "internalType": "address",
          "name": "to",
          "type": "address"
        },
        {
          "internalType": "uint256",
          "name": "tokenId",
          "type": "uint256"
        }
      ],
      "name": "safeTransferFrom",
      "outputs": [],
      "stateMutability": "nonpayable",
      "type": "function"
    },
    {
      "inputs": [
        {
          "internalType": "address",
          "name": "from",
          "type": "address"
        },
        {
          "internalType": "address",
          "name": "to",
          "type": "address"
        },
        {
          "internalType": "uint256",
          "name": "tokenId",
          "type": "uint256"
        },
        {
          "internalType": "bytes",
          "name": "data",
          "type": "bytes"
        }
      ],
      "name": "safeTransferFrom",
      "outputs": [],
      "stateMutability": "nonpayable",
      "type": "function"
    },
    {
      "inputs": [
        {
          "internalType": "address",
          "name": "operator",
          "type": "address"
        },
        {
          "internalType": "bool",
          "name": "approved",
          "type": "bool"
        }
      ],
      "name": "setApprovalForAll",
      "outputs": [],
      "stateMutability": "nonpayable",
      "type": "function"
    },
    {
      "inputs": [
        {
          "internalType": "bytes4",
          "name": "interfaceId",
          "type": "bytes4"
        }
      ],
      "name": "supportsInterface",
      "outputs": [
        {
          "internalType": "bool",
          "name": "",
          "type": "bool"
        }
      ],
      "stateMutability": "view",
      "type": "function",
      "constant": true
    },
    {
      "inputs": [],
      "name": "symbol",
      "outputs": [
        {
          "internalType": "string",
          "name": "",
          "type": "string"
        }
      ],
      "stateMutability": "view",
      "type": "function",
      "constant": true
    },
    {
      "inputs": [
        {
          "internalType": "uint256",
          "name": "index",
          "type": "uint256"
        }
      ],
      "name": "tokenByIndex",
      "outputs": [
        {
          "internalType": "uint256",
          "name": "",
          "type": "uint256"
        }
      ],
      "stateMutability": "view",
      "type": "function",
      "constant": true
    },
    {
      "inputs": [
        {
          "internalType": "address",
          "name": "owner",
          "type": "address"
        },
        {
          "internalType": "uint256",
          "name": "index",
          "type": "uint256"
        }
      ],
      "name": "tokenOfOwnerByIndex",
      "outputs": [
        {
          "internalType": "uint256",
          "name": "",
          "type": "uint256"
        }
      ],
      "stateMutability": "view",
      "type": "function",
      "constant": true
    },
    {
      "inputs": [
        {
          "internalType": "uint256",
          "name": "tokenId",
          "type": "uint256"
        }
      ],
      "name": "tokenURI",
      "outputs": [
        {
          "internalType": "string",
          "name": "",
          "type": "string"
        }
      ],
      "stateMutability": "view",
      "type": "function",
      "constant": true
    },
    {
      "inputs": [],
      "name": "totalSupply",
      "outputs": [
        {
          "internalType": "uint256",
          "name": "",
          "type": "uint256"
        }
      ],
      "stateMutability": "view",
      "type": "function",
      "constant": true
    },
    {
      "inputs": [
        {
          "internalType": "address",
          "name": "from",
          "type": "address"
        },
        {
          "internalType": "address",
          "name": "to",
          "type": "address"
        },
        {
          "internalType": "uint256",
          "name": "tokenId",
          "type": "uint256"
        }
      ],
      "name": "transferFrom",
      "outputs": [],
      "stateMutability": "nonpayable",
      "type": "function"
    },
    {
      "inputs": [
        {
          "internalType": "address",
          "name": "newOwner",
          "type": "address"
        }
      ],
      "name": "transferOwnership",
      "outputs": [],
      "stateMutability": "nonpayable",
      "type": "function"
    },
    {
      "inputs": [],
      "name": "SetPauseSystem",
      "outputs": [],
      "stateMutability": "nonpayable",
      "type": "function"
    },
    {
      "inputs": [],
      "name": "SetEnableSystem",
      "outputs": [],
      "stateMutability": "nonpayable",
      "type": "function"
    },
    {
      "inputs": [
        {
          "internalType": "uint256",
          "name": "value",
          "type": "uint256"
        }
      ],
      "name": "SetPriceCreditMint",
      "outputs": [],
      "stateMutability": "nonpayable",
      "type": "function"
    },
    {
      "inputs": [
        {
          "internalType": "uint256",
          "name": "value",
          "type": "uint256"
        }
      ],
      "name": "SetMaxTeamId",
      "outputs": [],
      "stateMutability": "nonpayable",
      "type": "function"
    },
    {
      "inputs": [
        {
          "internalType": "string",
          "name": "baseURI",
          "type": "string"
        }
      ],
      "name": "SetBaseURI",
      "outputs": [],
      "stateMutability": "nonpayable",
      "type": "function"
    },
    {
      "inputs": [
        {
          "internalType": "uint256",
          "name": "teamId",
          "type": "uint256"
        }
      ],
      "name": "Mint",
      "outputs": [
        {
          "internalType": "uint256",
          "name": "",
          "type": "uint256"
        }
      ],
      "stateMutability": "nonpayable",
      "type": "function"
    },
    {
      "inputs": [
        {
          "internalType": "uint256",
          "name": "heroId",
          "type": "uint256"
        }
      ],
      "name": "Burn",
      "outputs": [],
      "stateMutability": "nonpayable",
      "type": "function"
    },
    {
      "inputs": [],
      "name": "WidthdrawCredit",
      "outputs": [],
      "stateMutability": "nonpayable",
      "type": "function"
    }
  ],
  "bytecode": "0x60806040523480156200001157600080fd5b5060405162002818380380620028188339810160408190526200003491620001d1565b82826000620000448382620002ed565b506001620000538282620002ed565b505050620000706200006a620000b660201b60201c565b620000ba565b600a805460ff60a01b19169055600d80546001600160a01b0319166001600160a01b03929092169190911790555050670de0b6b3a7640000600e556004600f55620003b9565b3390565b600a80546001600160a01b038381166001600160a01b0319831681179093556040519116919082907f8be0079c531659141344cd1fd0a4f28419497f9722a3daafe3b4186f6b6457e090600090a35050565b634e487b7160e01b600052604160045260246000fd5b600082601f8301126200013457600080fd5b81516001600160401b03808211156200015157620001516200010c565b604051601f8301601f19908116603f011681019082821181831017156200017c576200017c6200010c565b816040528381526020925086838588010111156200019957600080fd5b600091505b83821015620001bd57858201830151818301840152908201906200019e565b600093810190920192909252949350505050565b600080600060608486031215620001e757600080fd5b83516001600160401b0380821115620001ff57600080fd5b6200020d8783880162000122565b945060208601519150808211156200022457600080fd5b50620002338682870162000122565b604086015190935090506001600160a01b03811681146200025357600080fd5b809150509250925092565b600181811c908216806200027357607f821691505b6020821081036200029457634e487b7160e01b600052602260045260246000fd5b50919050565b601f821115620002e857600081815260208120601f850160051c81016020861015620002c35750805b601f850160051c820191505b81811015620002e457828155600101620002cf565b5050505b505050565b81516001600160401b038111156200030957620003096200010c565b62000321816200031a84546200025e565b846200029a565b602080601f831160018114620003595760008415620003405750858301515b600019600386901b1c1916600185901b178555620002e4565b600085815260208120601f198616915b828110156200038a5788860151825594840194600190910190840162000369565b5085821015620003a95787850151600019600388901b60f8161c191681555b5050505050600190811b01905550565b61244f80620003c96000396000f3fe608060405234801561001057600080fd5b50600436106101fb5760003560e01c8063715018a61161011a578063b88d4fde116100ad578063d03961781161007c578063d039617814610411578063e985e9c51461041a578063f2fde38b14610456578063f38f98b914610469578063ffcc43c41461047c57600080fd5b8063b88d4fde146103d0578063b90306ad146103e3578063c1941636146103f6578063c87b56dd146103fe57600080fd5b80639a561156116100e95780639a5611561461038c578063a22cb46514610394578063a2762833146103a7578063b1d196b1146103c757600080fd5b8063715018a6146103585780638a0a2926146103605780638da5cb5b1461037357806395d89b411461038457600080fd5b806323b872dd116101925780634f6ccce7116101615780634f6ccce71461030d5780635c975abb146103205780636352211e1461033257806370a082311461034557600080fd5b806323b872dd146102c157806323c8c948146102d45780632f745c59146102e757806342842e0e146102fa57600080fd5b8063095ea7b3116101ce578063095ea7b31461028957806318160ddd1461029e5780631ce99203146102a65780632375b8f2146102ae57600080fd5b806301ffc9a71461020057806306fdde0314610228578063078837031461023d578063081812fc1461025e575b600080fd5b61021361020e366004611dcc565b610484565b60405190151581526020015b60405180910390f35b6102306104af565b60405161021f9190611e39565b61025061024b366004611e4c565b610541565b60405190815260200161021f565b61027161026c366004611e4c565b610781565b6040516001600160a01b03909116815260200161021f565b61029c610297366004611e7c565b6107a8565b005b600854610250565b61029c6108bd565b61029c6102bc366004611e4c565b6108cf565b61029c6102cf366004611ea6565b6108dc565b61029c6102e2366004611f6e565b61090d565b6102506102f5366004611e7c565b610980565b61029c610308366004611ea6565b610a16565b61025061031b366004611e4c565b610a31565b600a54600160a01b900460ff16610213565b610271610340366004611e4c565b610ac4565b610250610353366004611fb7565b610b24565b61029c610baa565b600d54610271906001600160a01b031681565b600a546001600160a01b0316610271565b610230610bbc565b61029c610bcb565b61029c6103a2366004611fe0565b610ccd565b6102506103b5366004611e4c565b60106020526000908152604090205481565b610250600f5481565b61029c6103de366004612017565b610cd8565b61029c6103f1366004611e4c565b610d10565b61029c610d88565b61023061040c366004611e4c565b610d98565b610250600e5481565b610213610428366004612093565b6001600160a01b03918216600090815260056020908152604080832093909416825291909152205460ff1690565b61029c610464366004611fb7565b610dff565b61029c610477366004611e4c565b610e75565b610230610edd565b60006001600160e01b0319821663780e9d6360e01b14806104a957506104a982610f6b565b92915050565b6060600080546104be906120c6565b80601f01602080910402602001604051908101604052809291908181526020018280546104ea906120c6565b80156105375780601f1061050c57610100808354040283529160200191610537565b820191906000526020600020905b81548152906001019060200180831161051a57829003601f168201915b5050505050905090565b600061054b610fbb565b6001821015801561055e5750600f548211155b6105af5760405162461bcd60e51b815260206004820152601a60248201527f4572726f72204d696e743a20496e76616c6964207465616d496400000000000060448201526064015b60405180910390fd5b600033600e54600d546040516370a0823160e01b81526001600160a01b038085166004830152939450919216906370a0823190602401602060405180830381865afa158015610602573d6000803e3d6000fd5b505050506040513d601f19601f820116820180604052508101906106269190612100565b10156106745760405162461bcd60e51b815260206004820152601b60248201527f4572726f72204d696e743a20496e76616c69642062616c616e6365000000000060448201526064016105a6565b600d54600e546040516323b872dd60e01b81526001600160a01b03848116600483015230602483015260448201929092529116906323b872dd906064016020604051808303816000875af11580156106d0573d6000803e3d6000fd5b505050506040513d601f19601f820116820180604052508101906106f49190612119565b50610703600b80546001019055565b600061070e600b5490565b905061071a8282611008565b60008181526010602090815260409182902086905581513381526001600160a01b038516918101919091529081018290527f9ce4cec2c551a95b9c29a42cf2c132d4f738c3817de4668c098bb4ec6c0a5dfb9060600160405180910390a19150505b919050565b600061078c82611022565b506000908152600460205260409020546001600160a01b031690565b60006107b382610ac4565b9050806001600160a01b0316836001600160a01b0316036108205760405162461bcd60e51b815260206004820152602160248201527f4552433732313a20617070726f76616c20746f2063757272656e74206f776e656044820152603960f91b60648201526084016105a6565b336001600160a01b038216148061083c575061083c8133610428565b6108ae5760405162461bcd60e51b815260206004820152603d60248201527f4552433732313a20617070726f76652063616c6c6572206973206e6f7420746f60448201527f6b656e206f776e6572206f7220617070726f76656420666f7220616c6c00000060648201526084016105a6565b6108b88383611081565b505050565b6108c56110ef565b6108cd611149565b565b6108d76110ef565b600e55565b6108e6338261119e565b6109025760405162461bcd60e51b81526004016105a690612136565b6108b883838361121d565b6109156110ef565b60008151116109705760405162461bcd60e51b815260206004820152602160248201527f4572726f7220536574426173655552493a20496e76616c6964206261736555526044820152604960f81b60648201526084016105a6565b600c61097c82826121d1565b5050565b600061098b83610b24565b82106109ed5760405162461bcd60e51b815260206004820152602b60248201527f455243373231456e756d657261626c653a206f776e657220696e646578206f7560448201526a74206f6620626f756e647360a81b60648201526084016105a6565b506001600160a01b03919091166000908152600660209081526040808320938352929052205490565b6108b883838360405180602001604052806000815250610cd8565b6000610a3c60085490565b8210610a9f5760405162461bcd60e51b815260206004820152602c60248201527f455243373231456e756d657261626c653a20676c6f62616c20696e646578206f60448201526b7574206f6620626f756e647360a01b60648201526084016105a6565b60088281548110610ab257610ab2612291565b90600052602060002001549050919050565b6000818152600260205260408120546001600160a01b0316806104a95760405162461bcd60e51b8152602060048201526018602482015277115490cdcc8c4e881a5b9d985b1a59081d1bdad95b88125160421b60448201526064016105a6565b60006001600160a01b038216610b8e5760405162461bcd60e51b815260206004820152602960248201527f4552433732313a2061646472657373207a65726f206973206e6f7420612076616044820152683634b21037bbb732b960b91b60648201526084016105a6565b506001600160a01b031660009081526003602052604090205490565b610bb26110ef565b6108cd600061138e565b6060600180546104be906120c6565b610bd36110ef565b6000610be7600a546001600160a01b031690565b600d546040516370a0823160e01b81523060048201529192506001600160a01b03169063a9059cbb90839083906370a0823190602401602060405180830381865afa158015610c3a573d6000803e3d6000fd5b505050506040513d601f19601f82011682018060405250810190610c5e9190612100565b6040516001600160e01b031960e085901b1681526001600160a01b03909216600483015260248201526044016020604051808303816000875af1158015610ca9573d6000803e3d6000fd5b505050506040513d601f19601f8201168201806040525081019061097c9190612119565b61097c3383836113e0565b610ce2338361119e565b610cfe5760405162461bcd60e51b81526004016105a690612136565b610d0a848484846114ae565b50505050565b610d18610fbb565b610d22338261119e565b610d7c5760405162461bcd60e51b815260206004820152602560248201527f4275726e2063616c6c6572206973206e6f74206f776e6572206e6f72206170706044820152641c9bdd995960da1b60648201526084016105a6565b610d85816114e1565b50565b610d906110ef565b6108cd611584565b6060610da382611022565b6000610dad6115c7565b90506000815111610dcd5760405180602001604052806000815250610df8565b80610dd7846115d6565b604051602001610de89291906122a7565b6040516020818303038152906040525b9392505050565b610e076110ef565b6001600160a01b038116610e6c5760405162461bcd60e51b815260206004820152602660248201527f4f776e61626c653a206e6577206f776e657220697320746865207a65726f206160448201526564647265737360d01b60648201526084016105a6565b610d858161138e565b610e7d6110ef565b6001811015610ed85760405162461bcd60e51b815260206004820152602160248201527f4572726f72205365744d61785465616d49643a20696e76616c69642076616c756044820152606560f81b60648201526084016105a6565b600f55565b600c8054610eea906120c6565b80601f0160208091040260200160405190810160405280929190818152602001828054610f16906120c6565b8015610f635780601f10610f3857610100808354040283529160200191610f63565b820191906000526020600020905b815481529060010190602001808311610f4657829003601f168201915b505050505081565b60006001600160e01b031982166380ac58cd60e01b1480610f9c57506001600160e01b03198216635b5e139f60e01b145b806104a957506301ffc9a760e01b6001600160e01b03198316146104a9565b600a54600160a01b900460ff16156108cd5760405162461bcd60e51b815260206004820152601060248201526f14185d5cd8589b194e881c185d5cd95960821b60448201526064016105a6565b61097c828260405180602001604052806000815250611669565b6000818152600260205260409020546001600160a01b0316610d855760405162461bcd60e51b8152602060048201526018602482015277115490cdcc8c4e881a5b9d985b1a59081d1bdad95b88125160421b60448201526064016105a6565b600081815260046020526040902080546001600160a01b0319166001600160a01b03841690811790915581906110b682610ac4565b6001600160a01b03167f8c5be1e5ebec7d5bd14f71427d1e84f3dd0314c0f7b2291e5b200ac8c7c3b92560405160405180910390a45050565b600a546001600160a01b031633146108cd5760405162461bcd60e51b815260206004820181905260248201527f4f776e61626c653a2063616c6c6572206973206e6f7420746865206f776e657260448201526064016105a6565b61115161169c565b600a805460ff60a01b191690557f5db9ee0a495bf2e6ff9c91a7834c1ba4fdd244a5e8aa4e537bd38aeae4b073aa335b6040516001600160a01b03909116815260200160405180910390a1565b6000806111aa83610ac4565b9050806001600160a01b0316846001600160a01b031614806111f157506001600160a01b0380821660009081526005602090815260408083209388168352929052205460ff165b806112155750836001600160a01b031661120a84610781565b6001600160a01b0316145b949350505050565b826001600160a01b031661123082610ac4565b6001600160a01b0316146112565760405162461bcd60e51b81526004016105a6906122d6565b6001600160a01b0382166112b85760405162461bcd60e51b8152602060048201526024808201527f4552433732313a207472616e7366657220746f20746865207a65726f206164646044820152637265737360e01b60648201526084016105a6565b6112c583838360016116ec565b826001600160a01b03166112d882610ac4565b6001600160a01b0316146112fe5760405162461bcd60e51b81526004016105a6906122d6565b600081815260046020908152604080832080546001600160a01b03199081169091556001600160a01b0387811680865260038552838620805460001901905590871680865283862080546001019055868652600290945282852080549092168417909155905184937fddf252ad1be2c89b69c2b068fc378daa952ba7f163c4a11628f55a4df523b3ef91a4505050565b600a80546001600160a01b038381166001600160a01b0319831681179093556040519116919082907f8be0079c531659141344cd1fd0a4f28419497f9722a3daafe3b4186f6b6457e090600090a35050565b816001600160a01b0316836001600160a01b0316036114415760405162461bcd60e51b815260206004820152601960248201527f4552433732313a20617070726f766520746f2063616c6c65720000000000000060448201526064016105a6565b6001600160a01b03838116600081815260056020908152604080832094871680845294825291829020805460ff191686151590811790915591519182527f17307eab39ab6107e8899845ad3d59bd9653f200f220920489ca2b5937696c31910160405180910390a3505050565b6114b984848461121d565b6114c58484848461182c565b610d0a5760405162461bcd60e51b81526004016105a69061231b565b60006114ec82610ac4565b90506114fc8160008460016116ec565b61150582610ac4565b600083815260046020908152604080832080546001600160a01b03199081169091556001600160a01b0385168085526003845282852080546000190190558785526002909352818420805490911690555192935084927fddf252ad1be2c89b69c2b068fc378daa952ba7f163c4a11628f55a4df523b3ef908390a45050565b61158c610fbb565b600a805460ff60a01b1916600160a01b1790557f62e78cea01bee320cd4e420270b5ea74000d11b0c9f74754ebdbfc544b05a2586111813390565b6060600c80546104be906120c6565b606060006115e38361192d565b600101905060008167ffffffffffffffff81111561160357611603611ee2565b6040519080825280601f01601f19166020018201604052801561162d576020820181803683370190505b5090508181016020015b600019016f181899199a1a9b1b9c1cb0b131b232b360811b600a86061a8153600a850494508461163757509392505050565b6116738383611a05565b611680600084848461182c565b6108b85760405162461bcd60e51b81526004016105a69061231b565b600a54600160a01b900460ff166108cd5760405162461bcd60e51b815260206004820152601460248201527314185d5cd8589b194e881b9bdd081c185d5cd95960621b60448201526064016105a6565b6116f884848484611b9e565b60018111156117675760405162461bcd60e51b815260206004820152603560248201527f455243373231456e756d657261626c653a20636f6e7365637574697665207472604482015274185b9cd9995c9cc81b9bdd081cdd5c1c1bdc9d1959605a1b60648201526084016105a6565b816001600160a01b0385166117c3576117be81600880546000838152600960205260408120829055600182018355919091527ff3f7a9fe364faab93b216da50a3214154f22a0a2b415b23a84c8169e8b636ee30155565b6117e6565b836001600160a01b0316856001600160a01b0316146117e6576117e68582611c26565b6001600160a01b038416611802576117fd81611cc3565b611825565b846001600160a01b0316846001600160a01b031614611825576118258482611d72565b5050505050565b60006001600160a01b0384163b1561192257604051630a85bd0160e11b81526001600160a01b0385169063150b7a029061187090339089908890889060040161236d565b6020604051808303816000875af19250505080156118ab575060408051601f3d908101601f191682019092526118a8918101906123aa565b60015b611908573d8080156118d9576040519150601f19603f3d011682016040523d82523d6000602084013e6118de565b606091505b5080516000036119005760405162461bcd60e51b81526004016105a69061231b565b805181602001fd5b6001600160e01b031916630a85bd0160e11b149050611215565b506001949350505050565b60008072184f03e93ff9f4daa797ed6e38ed64bf6a1f0160401b831061196c5772184f03e93ff9f4daa797ed6e38ed64bf6a1f0160401b830492506040015b6d04ee2d6d415b85acef81000000008310611998576d04ee2d6d415b85acef8100000000830492506020015b662386f26fc1000083106119b657662386f26fc10000830492506010015b6305f5e10083106119ce576305f5e100830492506008015b61271083106119e257612710830492506004015b606483106119f4576064830492506002015b600a83106104a95760010192915050565b6001600160a01b038216611a5b5760405162461bcd60e51b815260206004820181905260248201527f4552433732313a206d696e7420746f20746865207a65726f206164647265737360448201526064016105a6565b6000818152600260205260409020546001600160a01b031615611ac05760405162461bcd60e51b815260206004820152601c60248201527f4552433732313a20746f6b656e20616c7265616479206d696e7465640000000060448201526064016105a6565b611ace6000838360016116ec565b6000818152600260205260409020546001600160a01b031615611b335760405162461bcd60e51b815260206004820152601c60248201527f4552433732313a20746f6b656e20616c7265616479206d696e7465640000000060448201526064016105a6565b6001600160a01b038216600081815260036020908152604080832080546001019055848352600290915280822080546001600160a01b0319168417905551839291907fddf252ad1be2c89b69c2b068fc378daa952ba7f163c4a11628f55a4df523b3ef908290a45050565b6001811115610d0a576001600160a01b03841615611be4576001600160a01b03841660009081526003602052604081208054839290611bde9084906123dd565b90915550505b6001600160a01b03831615610d0a576001600160a01b03831660009081526003602052604081208054839290611c1b9084906123f0565b909155505050505050565b60006001611c3384610b24565b611c3d91906123dd565b600083815260076020526040902054909150808214611c90576001600160a01b03841660009081526006602090815260408083208584528252808320548484528184208190558352600790915290208190555b5060009182526007602090815260408084208490556001600160a01b039094168352600681528383209183525290812055565b600854600090611cd5906001906123dd565b60008381526009602052604081205460088054939450909284908110611cfd57611cfd612291565b906000526020600020015490508060088381548110611d1e57611d1e612291565b6000918252602080832090910192909255828152600990915260408082208490558582528120556008805480611d5657611d56612403565b6001900381819060005260206000200160009055905550505050565b6000611d7d83610b24565b6001600160a01b039093166000908152600660209081526040808320868452825280832085905593825260079052919091209190915550565b6001600160e01b031981168114610d8557600080fd5b600060208284031215611dde57600080fd5b8135610df881611db6565b60005b83811015611e04578181015183820152602001611dec565b50506000910152565b60008151808452611e25816020860160208601611de9565b601f01601f19169290920160200192915050565b602081526000610df86020830184611e0d565b600060208284031215611e5e57600080fd5b5035919050565b80356001600160a01b038116811461077c57600080fd5b60008060408385031215611e8f57600080fd5b611e9883611e65565b946020939093013593505050565b600080600060608486031215611ebb57600080fd5b611ec484611e65565b9250611ed260208501611e65565b9150604084013590509250925092565b634e487b7160e01b600052604160045260246000fd5b600067ffffffffffffffff80841115611f1357611f13611ee2565b604051601f8501601f19908116603f01168101908282118183101715611f3b57611f3b611ee2565b81604052809350858152868686011115611f5457600080fd5b858560208301376000602087830101525050509392505050565b600060208284031215611f8057600080fd5b813567ffffffffffffffff811115611f9757600080fd5b8201601f81018413611fa857600080fd5b61121584823560208401611ef8565b600060208284031215611fc957600080fd5b610df882611e65565b8015158114610d8557600080fd5b60008060408385031215611ff357600080fd5b611ffc83611e65565b9150602083013561200c81611fd2565b809150509250929050565b6000806000806080858703121561202d57600080fd5b61203685611e65565b935061204460208601611e65565b925060408501359150606085013567ffffffffffffffff81111561206757600080fd5b8501601f8101871361207857600080fd5b61208787823560208401611ef8565b91505092959194509250565b600080604083850312156120a657600080fd5b6120af83611e65565b91506120bd60208401611e65565b90509250929050565b600181811c908216806120da57607f821691505b6020821081036120fa57634e487b7160e01b600052602260045260246000fd5b50919050565b60006020828403121561211257600080fd5b5051919050565b60006020828403121561212b57600080fd5b8151610df881611fd2565b6020808252602d908201527f4552433732313a2063616c6c6572206973206e6f7420746f6b656e206f776e6560408201526c1c881bdc88185c1c1c9bdd9959609a1b606082015260800190565b601f8211156108b857600081815260208120601f850160051c810160208610156121aa5750805b601f850160051c820191505b818110156121c9578281556001016121b6565b505050505050565b815167ffffffffffffffff8111156121eb576121eb611ee2565b6121ff816121f984546120c6565b84612183565b602080601f831160018114612234576000841561221c5750858301515b600019600386901b1c1916600185901b1785556121c9565b600085815260208120601f198616915b8281101561226357888601518255948401946001909101908401612244565b50858210156122815787850151600019600388901b60f8161c191681555b5050505050600190811b01905550565b634e487b7160e01b600052603260045260246000fd5b600083516122b9818460208801611de9565b8351908301906122cd818360208801611de9565b01949350505050565b60208082526025908201527f4552433732313a207472616e736665722066726f6d20696e636f72726563742060408201526437bbb732b960d91b606082015260800190565b60208082526032908201527f4552433732313a207472616e7366657220746f206e6f6e20455243373231526560408201527131b2b4bb32b91034b6b83632b6b2b73a32b960711b606082015260800190565b6001600160a01b03858116825284166020820152604081018390526080606082018190526000906123a090830184611e0d565b9695505050505050565b6000602082840312156123bc57600080fd5b8151610df881611db6565b634e487b7160e01b600052601160045260246000fd5b818103818111156104a9576104a96123c7565b808201808211156104a9576104a96123c7565b634e487b7160e01b600052603160045260246000fdfea2646970667358221220faecf25caac394e671a9b754139e5d5e8959b22e9faf33e26a9d7fcaaa3fb6f664736f6c63430008110033",
  "immutableReferences": {},
  "source": "// SPDX-License-Identifier: MIT\npragma solidity ^0.8.0;\n\nimport \"@openzeppelin/contracts/utils/math/SafeMath.sol\";\nimport \"@openzeppelin/contracts/utils/Counters.sol\";\nimport \"@openzeppelin/contracts/access/Ownable.sol\";\nimport \"@openzeppelin/contracts/security/Pausable.sol\";\nimport \"@openzeppelin/contracts/token/ERC20/IERC20.sol\";\nimport \"@openzeppelin/contracts/token/ERC721/extensions/ERC721Enumerable.sol\";\n\n// NFT\ncontract HeroNFT is ERC721Enumerable, Ownable, Pausable\n{\n    using Counters for Counters.Counter;\n    Counters.Counter private HeroId;\n\n    string public BaseURI;\n\n    IERC20 public ERC20CreditToken;\n\n    uint256 public PriceCreditMint;\n\n    uint256 public MaxTeamId;\n\n    mapping(uint256 => uint256) public TeamId;\n\n    event OnMintNFT(address from, address to, uint256 HeroId);\n\n    constructor(\n        string memory tokenName, string memory tokenSymbol,\n        IERC20 erc20CreditToken\n        ) ERC721 (tokenName, tokenSymbol) \n    {\n        ERC20CreditToken = erc20CreditToken;\n        PriceCreditMint = 1e18;\n        MaxTeamId = 4;\n    }\n\n    function SetPauseSystem() public onlyOwner \n    {\n        _pause();\n    }\n\n    function SetEnableSystem() public onlyOwner\n    {\n        _unpause();\n    }\n\n    function SetPriceCreditMint(uint256 value) public onlyOwner\n    {\n        PriceCreditMint = value;\n    }\n\n    function SetMaxTeamId(uint256 value) public onlyOwner \n    {\n        require(value >= 1, \"Error SetMaxTeamId: invalid value\");\n        MaxTeamId = value;\n    }\n\n    function SetBaseURI(string memory baseURI) public onlyOwner \n    {\n        require(bytes(baseURI).length > 0, \"Error SetBaseURI: Invalid baseURI\");\n        BaseURI = baseURI;\n    }\n\n    function Mint(uint256 teamId) public whenNotPaused returns(uint256)\n    {\n        require(teamId >= 1 && teamId <= MaxTeamId, \"Error Mint: Invalid teamId\");\n        address to = _msgSender();\n        require(ERC20CreditToken.balanceOf(to) >= PriceCreditMint, \"Error Mint: Invalid balance\");\n        ERC20CreditToken.transferFrom(to, address(this), PriceCreditMint);\n        HeroId.increment();\n        uint256 newHeroId = HeroId.current();\n        _safeMint(to, newHeroId);\n        TeamId[newHeroId] = teamId;\n\n        emit OnMintNFT(msg.sender, to, newHeroId);\n\n        return newHeroId;\n    }\n\n    function Burn(uint256 heroId) public whenNotPaused virtual\n    {\n        require(_isApprovedOrOwner(msg.sender, heroId), \"Burn caller is not owner nor approved\");\n        _burn(heroId);\n    }\n\n    function _baseURI() internal view override returns(string memory)\n    {\n        return BaseURI;\n    }\n\n    function WidthdrawCredit() public onlyOwner \n    {\n        address to = owner();\n        ERC20CreditToken.transfer(to, ERC20CreditToken.balanceOf(address(this)));\n    }\n}",
  "sourcePath": "/Applications/projects/garbi-contracts/contracts/HeroNFT.sol",
  "compiler": {
    "name": "solc",
    "version": "0.8.17+commit.8df45f5f.Emscripten.clang"
  },
  "schemaVersion": "3.4.11",
  "updatedAt": "2023-03-21T02:14:41.290Z",
  "networkType": "ethereum",
  "devdoc": {
    "kind": "dev",
    "methods": {
      "approve(address,uint256)": {
        "details": "See {IERC721-approve}."
      },
      "balanceOf(address)": {
        "details": "See {IERC721-balanceOf}."
      },
      "getApproved(uint256)": {
        "details": "See {IERC721-getApproved}."
      },
      "isApprovedForAll(address,address)": {
        "details": "See {IERC721-isApprovedForAll}."
      },
      "name()": {
        "details": "See {IERC721Metadata-name}."
      },
      "owner()": {
        "details": "Returns the address of the current owner."
      },
      "ownerOf(uint256)": {
        "details": "See {IERC721-ownerOf}."
      },
      "paused()": {
        "details": "Returns true if the contract is paused, and false otherwise."
      },
      "renounceOwnership()": {
        "details": "Leaves the contract without owner. It will not be possible to call `onlyOwner` functions anymore. Can only be called by the current owner. NOTE: Renouncing ownership will leave the contract without an owner, thereby removing any functionality that is only available to the owner."
      },
      "safeTransferFrom(address,address,uint256)": {
        "details": "See {IERC721-safeTransferFrom}."
      },
      "safeTransferFrom(address,address,uint256,bytes)": {
        "details": "See {IERC721-safeTransferFrom}."
      },
      "setApprovalForAll(address,bool)": {
        "details": "See {IERC721-setApprovalForAll}."
      },
      "supportsInterface(bytes4)": {
        "details": "See {IERC165-supportsInterface}."
      },
      "symbol()": {
        "details": "See {IERC721Metadata-symbol}."
      },
      "tokenByIndex(uint256)": {
        "details": "See {IERC721Enumerable-tokenByIndex}."
      },
      "tokenOfOwnerByIndex(address,uint256)": {
        "details": "See {IERC721Enumerable-tokenOfOwnerByIndex}."
      },
      "tokenURI(uint256)": {
        "details": "See {IERC721Metadata-tokenURI}."
      },
      "totalSupply()": {
        "details": "See {IERC721Enumerable-totalSupply}."
      },
      "transferFrom(address,address,uint256)": {
        "details": "See {IERC721-transferFrom}."
      },
      "transferOwnership(address)": {
        "details": "Transfers ownership of the contract to a new account (`newOwner`). Can only be called by the current owner."
      }
    },
    "version": 1
  },
  "userdoc": {
    "kind": "user",
    "methods": {},
    "version": 1
  }
}