{
  "contractName": "HeroNFT",
  "abi": [
    {
      "inputs": [
        {
          "internalType": "string",
          "name": "tokenName",
          "type": "string"
        },
        {
          "internalType": "string",
          "name": "tokenSymbol",
          "type": "string"
        }
      ],
      "stateMutability": "nonpayable",
      "type": "constructor"
    },
    {
      "anonymous": false,
      "inputs": [
        {
          "indexed": true,
          "internalType": "address",
          "name": "owner",
          "type": "address"
        },
        {
          "indexed": true,
          "internalType": "address",
          "name": "approved",
          "type": "address"
        },
        {
          "indexed": true,
          "internalType": "uint256",
          "name": "tokenId",
          "type": "uint256"
        }
      ],
      "name": "Approval",
      "type": "event"
    },
    {
      "anonymous": false,
      "inputs": [
        {
          "indexed": true,
          "internalType": "address",
          "name": "owner",
          "type": "address"
        },
        {
          "indexed": true,
          "internalType": "address",
          "name": "operator",
          "type": "address"
        },
        {
          "indexed": false,
          "internalType": "bool",
          "name": "approved",
          "type": "bool"
        }
      ],
      "name": "ApprovalForAll",
      "type": "event"
    },
    {
      "anonymous": false,
      "inputs": [
        {
          "indexed": false,
          "internalType": "address",
          "name": "from",
          "type": "address"
        },
        {
          "indexed": false,
          "internalType": "address",
          "name": "to",
          "type": "address"
        },
        {
          "indexed": false,
          "internalType": "uint256",
          "name": "HeroId",
          "type": "uint256"
        }
      ],
      "name": "OnMintNFT",
      "type": "event"
    },
    {
      "anonymous": false,
      "inputs": [
        {
          "indexed": true,
          "internalType": "address",
          "name": "previousOwner",
          "type": "address"
        },
        {
          "indexed": true,
          "internalType": "address",
          "name": "newOwner",
          "type": "address"
        }
      ],
      "name": "OwnershipTransferred",
      "type": "event"
    },
    {
      "anonymous": false,
      "inputs": [
        {
          "indexed": false,
          "internalType": "address",
          "name": "account",
          "type": "address"
        }
      ],
      "name": "Paused",
      "type": "event"
    },
    {
      "anonymous": false,
      "inputs": [
        {
          "indexed": true,
          "internalType": "address",
          "name": "from",
          "type": "address"
        },
        {
          "indexed": true,
          "internalType": "address",
          "name": "to",
          "type": "address"
        },
        {
          "indexed": true,
          "internalType": "uint256",
          "name": "tokenId",
          "type": "uint256"
        }
      ],
      "name": "Transfer",
      "type": "event"
    },
    {
      "anonymous": false,
      "inputs": [
        {
          "indexed": false,
          "internalType": "address",
          "name": "account",
          "type": "address"
        }
      ],
      "name": "Unpaused",
      "type": "event"
    },
    {
      "inputs": [],
      "name": "BaseURI",
      "outputs": [
        {
          "internalType": "string",
          "name": "",
          "type": "string"
        }
      ],
      "stateMutability": "view",
      "type": "function"
    },
    {
      "inputs": [],
      "name": "MaxTeamId",
      "outputs": [
        {
          "internalType": "uint256",
          "name": "",
          "type": "uint256"
        }
      ],
      "stateMutability": "view",
      "type": "function"
    },
    {
      "inputs": [],
      "name": "Miner",
      "outputs": [
        {
          "internalType": "address",
          "name": "",
          "type": "address"
        }
      ],
      "stateMutability": "view",
      "type": "function"
    },
    {
      "inputs": [
        {
          "internalType": "uint256",
          "name": "",
          "type": "uint256"
        }
      ],
      "name": "TeamId",
      "outputs": [
        {
          "internalType": "uint256",
          "name": "",
          "type": "uint256"
        }
      ],
      "stateMutability": "view",
      "type": "function"
    },
    {
      "inputs": [
        {
          "internalType": "address",
          "name": "to",
          "type": "address"
        },
        {
          "internalType": "uint256",
          "name": "tokenId",
          "type": "uint256"
        }
      ],
      "name": "approve",
      "outputs": [],
      "stateMutability": "nonpayable",
      "type": "function"
    },
    {
      "inputs": [
        {
          "internalType": "address",
          "name": "owner",
          "type": "address"
        }
      ],
      "name": "balanceOf",
      "outputs": [
        {
          "internalType": "uint256",
          "name": "",
          "type": "uint256"
        }
      ],
      "stateMutability": "view",
      "type": "function"
    },
    {
      "inputs": [
        {
          "internalType": "uint256",
          "name": "tokenId",
          "type": "uint256"
        }
      ],
      "name": "getApproved",
      "outputs": [
        {
          "internalType": "address",
          "name": "",
          "type": "address"
        }
      ],
      "stateMutability": "view",
      "type": "function"
    },
    {
      "inputs": [
        {
          "internalType": "address",
          "name": "owner",
          "type": "address"
        },
        {
          "internalType": "address",
          "name": "operator",
          "type": "address"
        }
      ],
      "name": "isApprovedForAll",
      "outputs": [
        {
          "internalType": "bool",
          "name": "",
          "type": "bool"
        }
      ],
      "stateMutability": "view",
      "type": "function"
    },
    {
      "inputs": [],
      "name": "name",
      "outputs": [
        {
          "internalType": "string",
          "name": "",
          "type": "string"
        }
      ],
      "stateMutability": "view",
      "type": "function"
    },
    {
      "inputs": [],
      "name": "owner",
      "outputs": [
        {
          "internalType": "address",
          "name": "",
          "type": "address"
        }
      ],
      "stateMutability": "view",
      "type": "function"
    },
    {
      "inputs": [
        {
          "internalType": "uint256",
          "name": "tokenId",
          "type": "uint256"
        }
      ],
      "name": "ownerOf",
      "outputs": [
        {
          "internalType": "address",
          "name": "",
          "type": "address"
        }
      ],
      "stateMutability": "view",
      "type": "function"
    },
    {
      "inputs": [],
      "name": "paused",
      "outputs": [
        {
          "internalType": "bool",
          "name": "",
          "type": "bool"
        }
      ],
      "stateMutability": "view",
      "type": "function"
    },
    {
      "inputs": [],
      "name": "renounceOwnership",
      "outputs": [],
      "stateMutability": "nonpayable",
      "type": "function"
    },
    {
      "inputs": [
        {
          "internalType": "address",
          "name": "from",
          "type": "address"
        },
        {
          "internalType": "address",
          "name": "to",
          "type": "address"
        },
        {
          "internalType": "uint256",
          "name": "tokenId",
          "type": "uint256"
        }
      ],
      "name": "safeTransferFrom",
      "outputs": [],
      "stateMutability": "nonpayable",
      "type": "function"
    },
    {
      "inputs": [
        {
          "internalType": "address",
          "name": "from",
          "type": "address"
        },
        {
          "internalType": "address",
          "name": "to",
          "type": "address"
        },
        {
          "internalType": "uint256",
          "name": "tokenId",
          "type": "uint256"
        },
        {
          "internalType": "bytes",
          "name": "data",
          "type": "bytes"
        }
      ],
      "name": "safeTransferFrom",
      "outputs": [],
      "stateMutability": "nonpayable",
      "type": "function"
    },
    {
      "inputs": [
        {
          "internalType": "address",
          "name": "operator",
          "type": "address"
        },
        {
          "internalType": "bool",
          "name": "approved",
          "type": "bool"
        }
      ],
      "name": "setApprovalForAll",
      "outputs": [],
      "stateMutability": "nonpayable",
      "type": "function"
    },
    {
      "inputs": [
        {
          "internalType": "bytes4",
          "name": "interfaceId",
          "type": "bytes4"
        }
      ],
      "name": "supportsInterface",
      "outputs": [
        {
          "internalType": "bool",
          "name": "",
          "type": "bool"
        }
      ],
      "stateMutability": "view",
      "type": "function"
    },
    {
      "inputs": [],
      "name": "symbol",
      "outputs": [
        {
          "internalType": "string",
          "name": "",
          "type": "string"
        }
      ],
      "stateMutability": "view",
      "type": "function"
    },
    {
      "inputs": [
        {
          "internalType": "uint256",
          "name": "index",
          "type": "uint256"
        }
      ],
      "name": "tokenByIndex",
      "outputs": [
        {
          "internalType": "uint256",
          "name": "",
          "type": "uint256"
        }
      ],
      "stateMutability": "view",
      "type": "function"
    },
    {
      "inputs": [
        {
          "internalType": "address",
          "name": "owner",
          "type": "address"
        },
        {
          "internalType": "uint256",
          "name": "index",
          "type": "uint256"
        }
      ],
      "name": "tokenOfOwnerByIndex",
      "outputs": [
        {
          "internalType": "uint256",
          "name": "",
          "type": "uint256"
        }
      ],
      "stateMutability": "view",
      "type": "function"
    },
    {
      "inputs": [
        {
          "internalType": "uint256",
          "name": "tokenId",
          "type": "uint256"
        }
      ],
      "name": "tokenURI",
      "outputs": [
        {
          "internalType": "string",
          "name": "",
          "type": "string"
        }
      ],
      "stateMutability": "view",
      "type": "function"
    },
    {
      "inputs": [],
      "name": "totalSupply",
      "outputs": [
        {
          "internalType": "uint256",
          "name": "",
          "type": "uint256"
        }
      ],
      "stateMutability": "view",
      "type": "function"
    },
    {
      "inputs": [
        {
          "internalType": "address",
          "name": "from",
          "type": "address"
        },
        {
          "internalType": "address",
          "name": "to",
          "type": "address"
        },
        {
          "internalType": "uint256",
          "name": "tokenId",
          "type": "uint256"
        }
      ],
      "name": "transferFrom",
      "outputs": [],
      "stateMutability": "nonpayable",
      "type": "function"
    },
    {
      "inputs": [
        {
          "internalType": "address",
          "name": "newOwner",
          "type": "address"
        }
      ],
      "name": "transferOwnership",
      "outputs": [],
      "stateMutability": "nonpayable",
      "type": "function"
    },
    {
      "inputs": [],
      "name": "SetPauseSystem",
      "outputs": [],
      "stateMutability": "nonpayable",
      "type": "function"
    },
    {
      "inputs": [],
      "name": "SetEnableSystem",
      "outputs": [],
      "stateMutability": "nonpayable",
      "type": "function"
    },
    {
      "inputs": [
        {
          "internalType": "address",
          "name": "miner",
          "type": "address"
        }
      ],
      "name": "SetMiner",
      "outputs": [],
      "stateMutability": "nonpayable",
      "type": "function"
    },
    {
      "inputs": [
        {
          "internalType": "uint256",
          "name": "value",
          "type": "uint256"
        }
      ],
      "name": "SetMaxTeamId",
      "outputs": [],
      "stateMutability": "nonpayable",
      "type": "function"
    },
    {
      "inputs": [
        {
          "internalType": "string",
          "name": "baseURI",
          "type": "string"
        }
      ],
      "name": "SetBaseURI",
      "outputs": [],
      "stateMutability": "nonpayable",
      "type": "function"
    },
    {
      "inputs": [
        {
          "internalType": "address",
          "name": "to",
          "type": "address"
        },
        {
          "internalType": "uint256",
          "name": "teamId",
          "type": "uint256"
        }
      ],
      "name": "Mint",
      "outputs": [
        {
          "internalType": "uint256",
          "name": "",
          "type": "uint256"
        }
      ],
      "stateMutability": "nonpayable",
      "type": "function"
    },
    {
      "inputs": [
        {
          "internalType": "uint256",
          "name": "heroId",
          "type": "uint256"
        }
      ],
      "name": "Burn",
      "outputs": [],
      "stateMutability": "nonpayable",
      "type": "function"
    }
  ],
  "bytecode": "0x60806040523480156200001157600080fd5b5060405162002595380380620025958339810160408190526200003491620001a5565b818160006200004483826200029e565b5060016200005382826200029e565b505050620000706200006a6200008a60201b60201c565b6200008e565b5050600a805460ff60a01b191690556004600e556200036a565b3390565b600a80546001600160a01b038381166001600160a01b0319831681179093556040519116919082907f8be0079c531659141344cd1fd0a4f28419497f9722a3daafe3b4186f6b6457e090600090a35050565b634e487b7160e01b600052604160045260246000fd5b600082601f8301126200010857600080fd5b81516001600160401b0380821115620001255762000125620000e0565b604051601f8301601f19908116603f01168101908282118183101715620001505762000150620000e0565b816040528381526020925086838588010111156200016d57600080fd5b600091505b8382101562000191578582018301518183018401529082019062000172565b600093810190920192909252949350505050565b60008060408385031215620001b957600080fd5b82516001600160401b0380821115620001d157600080fd5b620001df86838701620000f6565b93506020850151915080821115620001f657600080fd5b506200020585828601620000f6565b9150509250929050565b600181811c908216806200022457607f821691505b6020821081036200024557634e487b7160e01b600052602260045260246000fd5b50919050565b601f8211156200029957600081815260208120601f850160051c81016020861015620002745750805b601f850160051c820191505b81811015620002955782815560010162000280565b5050505b505050565b81516001600160401b03811115620002ba57620002ba620000e0565b620002d281620002cb84546200020f565b846200024b565b602080601f8311600181146200030a5760008415620002f15750858301515b600019600386901b1c1916600185901b17855562000295565b600085815260208120601f198616915b828110156200033b578886015182559484019460019091019084016200031a565b50858210156200035a5787850151600019600388901b60f8161c191681555b5050505050600190811b01905550565b61221b806200037a6000396000f3fe608060405234801561001057600080fd5b50600436106101e55760003560e01c806370a082311161010f578063b88d4fde116100a2578063e985e9c511610071578063e985e9c5146103f3578063f2fde38b1461042f578063f38f98b914610442578063ffcc43c41461045557600080fd5b8063b88d4fde146103b2578063b90306ad146103c5578063c1941636146103d8578063c87b56dd146103e057600080fd5b806395d89b41116100de57806395d89b411461036e578063a22cb46514610376578063a276283314610389578063b1d196b1146103a957600080fd5b806370a082311461032f578063715018a6146103425780638bbd8d721461034a5780638da5cb5b1461035d57600080fd5b80631ce992031161018757806342842e0e1161015657806342842e0e146102e45780634f6ccce7146102f75780635c975abb1461030a5780636352211e1461031c57600080fd5b80631ce99203146102a357806323b872dd146102ab57806323c8c948146102be5780632f745c59146102d157600080fd5b8063081812fc116101c3578063081812fc14610252578063095ea7b3146102655780630f6798a51461027a57806318160ddd1461029b57600080fd5b806301ffc9a7146101ea57806302abb4c51461021257806306fdde031461023d575b600080fd5b6101fd6101f8366004611bd2565b61045d565b60405190151581526020015b60405180910390f35b600c54610225906001600160a01b031681565b6040516001600160a01b039091168152602001610209565b610245610488565b6040516102099190611c3f565b610225610260366004611c52565b61051a565b610278610273366004611c87565b610541565b005b61028d610288366004611c87565b61065b565b604051908152602001610209565b60085461028d565b6102786107a8565b6102786102b9366004611cb1565b6107ba565b6102786102cc366004611d79565b6107eb565b61028d6102df366004611c87565b61085e565b6102786102f2366004611cb1565b6108f4565b61028d610305366004611c52565b61090f565b600a54600160a01b900460ff166101fd565b61022561032a366004611c52565b6109a2565b61028d61033d366004611dc2565b610a02565b610278610a88565b610278610358366004611dc2565b610a9a565b600a546001600160a01b0316610225565b610245610ac4565b610278610384366004611ddd565b610ad3565b61028d610397366004611c52565b600f6020526000908152604090205481565b61028d600e5481565b6102786103c0366004611e19565b610ade565b6102786103d3366004611c52565b610b16565b610278610b8e565b6102456103ee366004611c52565b610b9e565b6101fd610401366004611e95565b6001600160a01b03918216600090815260056020908152604080832093909416825291909152205460ff1690565b61027861043d366004611dc2565b610c05565b610278610450366004611c52565b610c7b565b610245610ce3565b60006001600160e01b0319821663780e9d6360e01b1480610482575061048282610d71565b92915050565b60606000805461049790611ec8565b80601f01602080910402602001604051908101604052809291908181526020018280546104c390611ec8565b80156105105780601f106104e557610100808354040283529160200191610510565b820191906000526020600020905b8154815290600101906020018083116104f357829003601f168201915b5050505050905090565b600061052582610dc1565b506000908152600460205260409020546001600160a01b031690565b600061054c826109a2565b9050806001600160a01b0316836001600160a01b0316036105be5760405162461bcd60e51b815260206004820152602160248201527f4552433732313a20617070726f76616c20746f2063757272656e74206f776e656044820152603960f91b60648201526084015b60405180910390fd5b336001600160a01b03821614806105da57506105da8133610401565b61064c5760405162461bcd60e51b815260206004820152603d60248201527f4552433732313a20617070726f76652063616c6c6572206973206e6f7420746f60448201527f6b656e206f776e6572206f7220617070726f76656420666f7220616c6c00000060648201526084016105b5565b6106568383610e20565b505050565b6000610665610e8e565b600c546001600160a01b031633146106bf5760405162461bcd60e51b815260206004820152601960248201527f4572726f72204d696e743a20496e76616c6964204d696e65720000000000000060448201526064016105b5565b600182101580156106d25750600e548211155b61071e5760405162461bcd60e51b815260206004820152601a60248201527f4572726f72204d696e743a20496e76616c6964207465616d496400000000000060448201526064016105b5565b61072c600b80546001019055565b6000610737600b5490565b90506107438482610edb565b6000818152600f602090815260409182902085905581513381526001600160a01b038716918101919091529081018290527f9ce4cec2c551a95b9c29a42cf2c132d4f738c3817de4668c098bb4ec6c0a5dfb9060600160405180910390a19392505050565b6107b0610ef5565b6107b8610f4f565b565b6107c43382610fa4565b6107e05760405162461bcd60e51b81526004016105b590611f02565b610656838383611023565b6107f3610ef5565b600081511161084e5760405162461bcd60e51b815260206004820152602160248201527f4572726f7220536574426173655552493a20496e76616c6964206261736555526044820152604960f81b60648201526084016105b5565b600d61085a8282611f9d565b5050565b600061086983610a02565b82106108cb5760405162461bcd60e51b815260206004820152602b60248201527f455243373231456e756d657261626c653a206f776e657220696e646578206f7560448201526a74206f6620626f756e647360a81b60648201526084016105b5565b506001600160a01b03919091166000908152600660209081526040808320938352929052205490565b61065683838360405180602001604052806000815250610ade565b600061091a60085490565b821061097d5760405162461bcd60e51b815260206004820152602c60248201527f455243373231456e756d657261626c653a20676c6f62616c20696e646578206f60448201526b7574206f6620626f756e647360a01b60648201526084016105b5565b600882815481106109905761099061205d565b90600052602060002001549050919050565b6000818152600260205260408120546001600160a01b0316806104825760405162461bcd60e51b8152602060048201526018602482015277115490cdcc8c4e881a5b9d985b1a59081d1bdad95b88125160421b60448201526064016105b5565b60006001600160a01b038216610a6c5760405162461bcd60e51b815260206004820152602960248201527f4552433732313a2061646472657373207a65726f206973206e6f7420612076616044820152683634b21037bbb732b960b91b60648201526084016105b5565b506001600160a01b031660009081526003602052604090205490565b610a90610ef5565b6107b86000611194565b610aa2610ef5565b600c80546001600160a01b0319166001600160a01b0392909216919091179055565b60606001805461049790611ec8565b61085a3383836111e6565b610ae83383610fa4565b610b045760405162461bcd60e51b81526004016105b590611f02565b610b10848484846112b4565b50505050565b610b1e610e8e565b610b283382610fa4565b610b825760405162461bcd60e51b815260206004820152602560248201527f4275726e2063616c6c6572206973206e6f74206f776e6572206e6f74206170706044820152641c9bdd995960da1b60648201526084016105b5565b610b8b816112e7565b50565b610b96610ef5565b6107b861138a565b6060610ba982610dc1565b6000610bb36113cd565b90506000815111610bd35760405180602001604052806000815250610bfe565b80610bdd846113dc565b604051602001610bee929190612073565b6040516020818303038152906040525b9392505050565b610c0d610ef5565b6001600160a01b038116610c725760405162461bcd60e51b815260206004820152602660248201527f4f776e61626c653a206e6577206f776e657220697320746865207a65726f206160448201526564647265737360d01b60648201526084016105b5565b610b8b81611194565b610c83610ef5565b6001811015610cde5760405162461bcd60e51b815260206004820152602160248201527f4572726f72205365744d61785465616d49643a20696e76616c69642076616c756044820152606560f81b60648201526084016105b5565b600e55565b600d8054610cf090611ec8565b80601f0160208091040260200160405190810160405280929190818152602001828054610d1c90611ec8565b8015610d695780601f10610d3e57610100808354040283529160200191610d69565b820191906000526020600020905b815481529060010190602001808311610d4c57829003601f168201915b505050505081565b60006001600160e01b031982166380ac58cd60e01b1480610da257506001600160e01b03198216635b5e139f60e01b145b8061048257506301ffc9a760e01b6001600160e01b0319831614610482565b6000818152600260205260409020546001600160a01b0316610b8b5760405162461bcd60e51b8152602060048201526018602482015277115490cdcc8c4e881a5b9d985b1a59081d1bdad95b88125160421b60448201526064016105b5565b600081815260046020526040902080546001600160a01b0319166001600160a01b0384169081179091558190610e55826109a2565b6001600160a01b03167f8c5be1e5ebec7d5bd14f71427d1e84f3dd0314c0f7b2291e5b200ac8c7c3b92560405160405180910390a45050565b600a54600160a01b900460ff16156107b85760405162461bcd60e51b815260206004820152601060248201526f14185d5cd8589b194e881c185d5cd95960821b60448201526064016105b5565b61085a82826040518060200160405280600081525061146f565b600a546001600160a01b031633146107b85760405162461bcd60e51b815260206004820181905260248201527f4f776e61626c653a2063616c6c6572206973206e6f7420746865206f776e657260448201526064016105b5565b610f576114a2565b600a805460ff60a01b191690557f5db9ee0a495bf2e6ff9c91a7834c1ba4fdd244a5e8aa4e537bd38aeae4b073aa335b6040516001600160a01b03909116815260200160405180910390a1565b600080610fb0836109a2565b9050806001600160a01b0316846001600160a01b03161480610ff757506001600160a01b0380821660009081526005602090815260408083209388168352929052205460ff165b8061101b5750836001600160a01b03166110108461051a565b6001600160a01b0316145b949350505050565b826001600160a01b0316611036826109a2565b6001600160a01b03161461105c5760405162461bcd60e51b81526004016105b5906120a2565b6001600160a01b0382166110be5760405162461bcd60e51b8152602060048201526024808201527f4552433732313a207472616e7366657220746f20746865207a65726f206164646044820152637265737360e01b60648201526084016105b5565b6110cb83838360016114f2565b826001600160a01b03166110de826109a2565b6001600160a01b0316146111045760405162461bcd60e51b81526004016105b5906120a2565b600081815260046020908152604080832080546001600160a01b03199081169091556001600160a01b0387811680865260038552838620805460001901905590871680865283862080546001019055868652600290945282852080549092168417909155905184937fddf252ad1be2c89b69c2b068fc378daa952ba7f163c4a11628f55a4df523b3ef91a4505050565b600a80546001600160a01b038381166001600160a01b0319831681179093556040519116919082907f8be0079c531659141344cd1fd0a4f28419497f9722a3daafe3b4186f6b6457e090600090a35050565b816001600160a01b0316836001600160a01b0316036112475760405162461bcd60e51b815260206004820152601960248201527f4552433732313a20617070726f766520746f2063616c6c65720000000000000060448201526064016105b5565b6001600160a01b03838116600081815260056020908152604080832094871680845294825291829020805460ff191686151590811790915591519182527f17307eab39ab6107e8899845ad3d59bd9653f200f220920489ca2b5937696c31910160405180910390a3505050565b6112bf848484611023565b6112cb84848484611632565b610b105760405162461bcd60e51b81526004016105b5906120e7565b60006112f2826109a2565b90506113028160008460016114f2565b61130b826109a2565b600083815260046020908152604080832080546001600160a01b03199081169091556001600160a01b0385168085526003845282852080546000190190558785526002909352818420805490911690555192935084927fddf252ad1be2c89b69c2b068fc378daa952ba7f163c4a11628f55a4df523b3ef908390a45050565b611392610e8e565b600a805460ff60a01b1916600160a01b1790557f62e78cea01bee320cd4e420270b5ea74000d11b0c9f74754ebdbfc544b05a258610f873390565b6060600d805461049790611ec8565b606060006113e983611733565b600101905060008167ffffffffffffffff81111561140957611409611ced565b6040519080825280601f01601f191660200182016040528015611433576020820181803683370190505b5090508181016020015b600019016f181899199a1a9b1b9c1cb0b131b232b360811b600a86061a8153600a850494508461143d57509392505050565b611479838361180b565b6114866000848484611632565b6106565760405162461bcd60e51b81526004016105b5906120e7565b600a54600160a01b900460ff166107b85760405162461bcd60e51b815260206004820152601460248201527314185d5cd8589b194e881b9bdd081c185d5cd95960621b60448201526064016105b5565b6114fe848484846119a4565b600181111561156d5760405162461bcd60e51b815260206004820152603560248201527f455243373231456e756d657261626c653a20636f6e7365637574697665207472604482015274185b9cd9995c9cc81b9bdd081cdd5c1c1bdc9d1959605a1b60648201526084016105b5565b816001600160a01b0385166115c9576115c481600880546000838152600960205260408120829055600182018355919091527ff3f7a9fe364faab93b216da50a3214154f22a0a2b415b23a84c8169e8b636ee30155565b6115ec565b836001600160a01b0316856001600160a01b0316146115ec576115ec8582611a2c565b6001600160a01b0384166116085761160381611ac9565b61162b565b846001600160a01b0316846001600160a01b03161461162b5761162b8482611b78565b5050505050565b60006001600160a01b0384163b1561172857604051630a85bd0160e11b81526001600160a01b0385169063150b7a0290611676903390899088908890600401612139565b6020604051808303816000875af19250505080156116b1575060408051601f3d908101601f191682019092526116ae91810190612176565b60015b61170e573d8080156116df576040519150601f19603f3d011682016040523d82523d6000602084013e6116e4565b606091505b5080516000036117065760405162461bcd60e51b81526004016105b5906120e7565b805181602001fd5b6001600160e01b031916630a85bd0160e11b14905061101b565b506001949350505050565b60008072184f03e93ff9f4daa797ed6e38ed64bf6a1f0160401b83106117725772184f03e93ff9f4daa797ed6e38ed64bf6a1f0160401b830492506040015b6d04ee2d6d415b85acef8100000000831061179e576d04ee2d6d415b85acef8100000000830492506020015b662386f26fc1000083106117bc57662386f26fc10000830492506010015b6305f5e10083106117d4576305f5e100830492506008015b61271083106117e857612710830492506004015b606483106117fa576064830492506002015b600a83106104825760010192915050565b6001600160a01b0382166118615760405162461bcd60e51b815260206004820181905260248201527f4552433732313a206d696e7420746f20746865207a65726f206164647265737360448201526064016105b5565b6000818152600260205260409020546001600160a01b0316156118c65760405162461bcd60e51b815260206004820152601c60248201527f4552433732313a20746f6b656e20616c7265616479206d696e7465640000000060448201526064016105b5565b6118d46000838360016114f2565b6000818152600260205260409020546001600160a01b0316156119395760405162461bcd60e51b815260206004820152601c60248201527f4552433732313a20746f6b656e20616c7265616479206d696e7465640000000060448201526064016105b5565b6001600160a01b038216600081815260036020908152604080832080546001019055848352600290915280822080546001600160a01b0319168417905551839291907fddf252ad1be2c89b69c2b068fc378daa952ba7f163c4a11628f55a4df523b3ef908290a45050565b6001811115610b10576001600160a01b038416156119ea576001600160a01b038416600090815260036020526040812080548392906119e49084906121a9565b90915550505b6001600160a01b03831615610b10576001600160a01b03831660009081526003602052604081208054839290611a219084906121bc565b909155505050505050565b60006001611a3984610a02565b611a4391906121a9565b600083815260076020526040902054909150808214611a96576001600160a01b03841660009081526006602090815260408083208584528252808320548484528184208190558352600790915290208190555b5060009182526007602090815260408084208490556001600160a01b039094168352600681528383209183525290812055565b600854600090611adb906001906121a9565b60008381526009602052604081205460088054939450909284908110611b0357611b0361205d565b906000526020600020015490508060088381548110611b2457611b2461205d565b6000918252602080832090910192909255828152600990915260408082208490558582528120556008805480611b5c57611b5c6121cf565b6001900381819060005260206000200160009055905550505050565b6000611b8383610a02565b6001600160a01b039093166000908152600660209081526040808320868452825280832085905593825260079052919091209190915550565b6001600160e01b031981168114610b8b57600080fd5b600060208284031215611be457600080fd5b8135610bfe81611bbc565b60005b83811015611c0a578181015183820152602001611bf2565b50506000910152565b60008151808452611c2b816020860160208601611bef565b601f01601f19169290920160200192915050565b602081526000610bfe6020830184611c13565b600060208284031215611c6457600080fd5b5035919050565b80356001600160a01b0381168114611c8257600080fd5b919050565b60008060408385031215611c9a57600080fd5b611ca383611c6b565b946020939093013593505050565b600080600060608486031215611cc657600080fd5b611ccf84611c6b565b9250611cdd60208501611c6b565b9150604084013590509250925092565b634e487b7160e01b600052604160045260246000fd5b600067ffffffffffffffff80841115611d1e57611d1e611ced565b604051601f8501601f19908116603f01168101908282118183101715611d4657611d46611ced565b81604052809350858152868686011115611d5f57600080fd5b858560208301376000602087830101525050509392505050565b600060208284031215611d8b57600080fd5b813567ffffffffffffffff811115611da257600080fd5b8201601f81018413611db357600080fd5b61101b84823560208401611d03565b600060208284031215611dd457600080fd5b610bfe82611c6b565b60008060408385031215611df057600080fd5b611df983611c6b565b915060208301358015158114611e0e57600080fd5b809150509250929050565b60008060008060808587031215611e2f57600080fd5b611e3885611c6b565b9350611e4660208601611c6b565b925060408501359150606085013567ffffffffffffffff811115611e6957600080fd5b8501601f81018713611e7a57600080fd5b611e8987823560208401611d03565b91505092959194509250565b60008060408385031215611ea857600080fd5b611eb183611c6b565b9150611ebf60208401611c6b565b90509250929050565b600181811c90821680611edc57607f821691505b602082108103611efc57634e487b7160e01b600052602260045260246000fd5b50919050565b6020808252602d908201527f4552433732313a2063616c6c6572206973206e6f7420746f6b656e206f776e6560408201526c1c881bdc88185c1c1c9bdd9959609a1b606082015260800190565b601f82111561065657600081815260208120601f850160051c81016020861015611f765750805b601f850160051c820191505b81811015611f9557828155600101611f82565b505050505050565b815167ffffffffffffffff811115611fb757611fb7611ced565b611fcb81611fc58454611ec8565b84611f4f565b602080601f8311600181146120005760008415611fe85750858301515b600019600386901b1c1916600185901b178555611f95565b600085815260208120601f198616915b8281101561202f57888601518255948401946001909101908401612010565b508582101561204d5787850151600019600388901b60f8161c191681555b5050505050600190811b01905550565b634e487b7160e01b600052603260045260246000fd5b60008351612085818460208801611bef565b835190830190612099818360208801611bef565b01949350505050565b60208082526025908201527f4552433732313a207472616e736665722066726f6d20696e636f72726563742060408201526437bbb732b960d91b606082015260800190565b60208082526032908201527f4552433732313a207472616e7366657220746f206e6f6e20455243373231526560408201527131b2b4bb32b91034b6b83632b6b2b73a32b960711b606082015260800190565b6001600160a01b038581168252841660208201526040810183905260806060820181905260009061216c90830184611c13565b9695505050505050565b60006020828403121561218857600080fd5b8151610bfe81611bbc565b634e487b7160e01b600052601160045260246000fd5b8181038181111561048257610482612193565b8082018082111561048257610482612193565b634e487b7160e01b600052603160045260246000fdfea26469706673582212207a3c64432e86a8125399590d258602f43818978cf00f7e9f86eb8da79d0d2e4664736f6c63430008110033",
  "immutableReferences": {},
  "source": "// SPDX-License-Identifier: MIT\npragma solidity ^0.8.0;\n\nimport \"@openzeppelin/contracts/utils/math/SafeMath.sol\";\nimport \"@openzeppelin/contracts/utils/Counters.sol\";\nimport \"@openzeppelin/contracts/access/Ownable.sol\";\nimport \"@openzeppelin/contracts/security/Pausable.sol\";\n// import \"@openzeppelin/contracts/token/ERC20/IERC20.sol\";\nimport \"@openzeppelin/contracts/token/ERC721/extensions/ERC721Enumerable.sol\";\n\n// NFT\ncontract HeroNFT is ERC721Enumerable, Ownable, Pausable\n{\n    using Counters for Counters.Counter;\n    Counters.Counter private HeroId;\n\n    address public Miner;   // GameController\n\n    string public BaseURI;\n\n    uint256 public MaxTeamId;\n\n    mapping(uint256 => uint256) public TeamId;\n\n    event OnMintNFT(address from, address to, uint256 HeroId);\n\n    constructor(\n        string memory tokenName, string memory tokenSymbol\n        ) ERC721 (tokenName, tokenSymbol) \n    {\n        MaxTeamId = 4;\n    }\n\n    function SetPauseSystem() public onlyOwner \n    {\n        _pause();\n    }\n\n    function SetEnableSystem() public onlyOwner\n    {\n        _unpause();\n    }\n\n    function SetMiner(address miner) public onlyOwner \n    {\n        Miner = miner;\n    }\n\n    function SetMaxTeamId(uint256 value) public onlyOwner \n    {\n        require(value >= 1, \"Error SetMaxTeamId: invalid value\");\n        MaxTeamId = value;\n    }\n\n    function SetBaseURI(string memory baseURI) public onlyOwner \n    {\n        require(bytes(baseURI).length > 0, \"Error SetBaseURI: Invalid baseURI\");\n        BaseURI = baseURI;\n    }\n\n    // only Gamecontroller\n    function Mint(address to, uint256 teamId) public whenNotPaused returns(uint256)\n    {\n        require(msg.sender == Miner, \"Error Mint: Invalid Miner\");\n        require(teamId >= 1 && teamId <= MaxTeamId, \"Error Mint: Invalid teamId\");\n        HeroId.increment();\n        uint256 newHeroId = HeroId.current();\n        _safeMint(to, newHeroId);\n        TeamId[newHeroId] = teamId;\n\n        emit OnMintNFT(msg.sender, to, newHeroId);\n\n        return newHeroId;\n    }\n\n    function Burn(uint256 heroId) public whenNotPaused virtual\n    {\n        require(_isApprovedOrOwner(msg.sender, heroId), \"Burn caller is not owner not approved\");\n        _burn(heroId);\n    }\n\n    function _baseURI() internal view override returns(string memory)\n    {\n        return BaseURI;\n    }\n}",
  "sourcePath": "/Applications/projects/garbi-contracts/contracts/HeroNFT.sol",
  "compiler": {
    "name": "solc",
    "version": "0.8.17+commit.8df45f5f.Emscripten.clang"
  },
  "schemaVersion": "3.4.11",
  "updatedAt": "2023-04-19T08:41:38.087Z",
  "devdoc": {
    "kind": "dev",
    "methods": {
      "approve(address,uint256)": {
        "details": "See {IERC721-approve}."
      },
      "balanceOf(address)": {
        "details": "See {IERC721-balanceOf}."
      },
      "getApproved(uint256)": {
        "details": "See {IERC721-getApproved}."
      },
      "isApprovedForAll(address,address)": {
        "details": "See {IERC721-isApprovedForAll}."
      },
      "name()": {
        "details": "See {IERC721Metadata-name}."
      },
      "owner()": {
        "details": "Returns the address of the current owner."
      },
      "ownerOf(uint256)": {
        "details": "See {IERC721-ownerOf}."
      },
      "paused()": {
        "details": "Returns true if the contract is paused, and false otherwise."
      },
      "renounceOwnership()": {
        "details": "Leaves the contract without owner. It will not be possible to call `onlyOwner` functions anymore. Can only be called by the current owner. NOTE: Renouncing ownership will leave the contract without an owner, thereby removing any functionality that is only available to the owner."
      },
      "safeTransferFrom(address,address,uint256)": {
        "details": "See {IERC721-safeTransferFrom}."
      },
      "safeTransferFrom(address,address,uint256,bytes)": {
        "details": "See {IERC721-safeTransferFrom}."
      },
      "setApprovalForAll(address,bool)": {
        "details": "See {IERC721-setApprovalForAll}."
      },
      "supportsInterface(bytes4)": {
        "details": "See {IERC165-supportsInterface}."
      },
      "symbol()": {
        "details": "See {IERC721Metadata-symbol}."
      },
      "tokenByIndex(uint256)": {
        "details": "See {IERC721Enumerable-tokenByIndex}."
      },
      "tokenOfOwnerByIndex(address,uint256)": {
        "details": "See {IERC721Enumerable-tokenOfOwnerByIndex}."
      },
      "tokenURI(uint256)": {
        "details": "See {IERC721Metadata-tokenURI}."
      },
      "totalSupply()": {
        "details": "See {IERC721Enumerable-totalSupply}."
      },
      "transferFrom(address,address,uint256)": {
        "details": "See {IERC721-transferFrom}."
      },
      "transferOwnership(address)": {
        "details": "Transfers ownership of the contract to a new account (`newOwner`). Can only be called by the current owner."
      }
    },
    "version": 1
  },
  "userdoc": {
    "kind": "user",
    "methods": {},
    "version": 1
  }
}