{
  "contractName": "Learning",
  "abi": [
    {
      "inputs": [
        {
          "internalType": "contract IRobot",
          "name": "robot",
          "type": "address"
        },
        {
          "internalType": "contract IERC20",
          "name": "tokenReward",
          "type": "address"
        }
      ],
      "stateMutability": "nonpayable",
      "type": "constructor"
    },
    {
      "anonymous": false,
      "inputs": [
        {
          "indexed": false,
          "internalType": "address",
          "name": "user",
          "type": "address"
        },
        {
          "indexed": false,
          "internalType": "uint256",
          "name": "AmountTokenReward",
          "type": "uint256"
        }
      ],
      "name": "OnBonusReward",
      "type": "event"
    },
    {
      "anonymous": false,
      "inputs": [
        {
          "indexed": false,
          "internalType": "address",
          "name": "user",
          "type": "address"
        },
        {
          "indexed": false,
          "internalType": "uint256",
          "name": "tokenId",
          "type": "uint256"
        },
        {
          "indexed": false,
          "internalType": "uint256",
          "name": "level",
          "type": "uint256"
        },
        {
          "indexed": false,
          "internalType": "uint256",
          "name": "startBlockLearn",
          "type": "uint256"
        },
        {
          "indexed": false,
          "internalType": "uint256",
          "name": "pendingBlockLearn",
          "type": "uint256"
        }
      ],
      "name": "OnStartLearn",
      "type": "event"
    },
    {
      "anonymous": false,
      "inputs": [
        {
          "indexed": false,
          "internalType": "address",
          "name": "user",
          "type": "address"
        },
        {
          "indexed": false,
          "internalType": "uint256",
          "name": "tokenId",
          "type": "uint256"
        },
        {
          "indexed": false,
          "internalType": "uint256",
          "name": "level",
          "type": "uint256"
        },
        {
          "indexed": false,
          "internalType": "uint256",
          "name": "totalBlockLearnEachTime",
          "type": "uint256"
        },
        {
          "indexed": false,
          "internalType": "uint256",
          "name": "stopBlockLearn",
          "type": "uint256"
        }
      ],
      "name": "OnStopLearn",
      "type": "event"
    },
    {
      "anonymous": false,
      "inputs": [
        {
          "indexed": false,
          "internalType": "address",
          "name": "user",
          "type": "address"
        },
        {
          "indexed": false,
          "internalType": "uint256",
          "name": "tokenId",
          "type": "uint256"
        },
        {
          "indexed": false,
          "internalType": "uint256",
          "name": "level",
          "type": "uint256"
        }
      ],
      "name": "OnUpgradeLevelRobot",
      "type": "event"
    },
    {
      "anonymous": false,
      "inputs": [
        {
          "indexed": true,
          "internalType": "address",
          "name": "previousOwner",
          "type": "address"
        },
        {
          "indexed": true,
          "internalType": "address",
          "name": "newOwner",
          "type": "address"
        }
      ],
      "name": "OwnershipTransferred",
      "type": "event"
    },
    {
      "anonymous": false,
      "inputs": [
        {
          "indexed": false,
          "internalType": "address",
          "name": "account",
          "type": "address"
        }
      ],
      "name": "Paused",
      "type": "event"
    },
    {
      "anonymous": false,
      "inputs": [
        {
          "indexed": false,
          "internalType": "address",
          "name": "account",
          "type": "address"
        }
      ],
      "name": "Unpaused",
      "type": "event"
    },
    {
      "inputs": [
        {
          "internalType": "uint256",
          "name": "",
          "type": "uint256"
        }
      ],
      "name": "BlockUpgradeLevelRobotNFT",
      "outputs": [
        {
          "internalType": "uint256",
          "name": "",
          "type": "uint256"
        }
      ],
      "stateMutability": "view",
      "type": "function",
      "constant": true
    },
    {
      "inputs": [
        {
          "internalType": "address",
          "name": "",
          "type": "address"
        }
      ],
      "name": "DataUserLearn",
      "outputs": [
        {
          "internalType": "bool",
          "name": "Learning",
          "type": "bool"
        },
        {
          "internalType": "uint256",
          "name": "StartBlockLearn",
          "type": "uint256"
        },
        {
          "internalType": "uint256",
          "name": "StopBlockLearn",
          "type": "uint256"
        },
        {
          "internalType": "uint256",
          "name": "PendingBlockLearn",
          "type": "uint256"
        }
      ],
      "stateMutability": "view",
      "type": "function",
      "constant": true
    },
    {
      "inputs": [],
      "name": "DelayBlockLearnNextTime",
      "outputs": [
        {
          "internalType": "uint256",
          "name": "",
          "type": "uint256"
        }
      ],
      "stateMutability": "view",
      "type": "function",
      "constant": true
    },
    {
      "inputs": [],
      "name": "GameCotrollerContract",
      "outputs": [
        {
          "internalType": "contract IGameController",
          "name": "",
          "type": "address"
        }
      ],
      "stateMutability": "view",
      "type": "function",
      "constant": true
    },
    {
      "inputs": [],
      "name": "MaxLevelOfRobotNFTInGame",
      "outputs": [
        {
          "internalType": "uint256",
          "name": "",
          "type": "uint256"
        }
      ],
      "stateMutability": "view",
      "type": "function",
      "constant": true
    },
    {
      "inputs": [
        {
          "internalType": "uint256",
          "name": "",
          "type": "uint256"
        }
      ],
      "name": "PendingBlockUpgradeLevelRobotNFT",
      "outputs": [
        {
          "internalType": "uint256",
          "name": "",
          "type": "uint256"
        }
      ],
      "stateMutability": "view",
      "type": "function",
      "constant": true
    },
    {
      "inputs": [
        {
          "internalType": "uint256",
          "name": "",
          "type": "uint256"
        }
      ],
      "name": "PriceUpgradeLevelRobotNFT",
      "outputs": [
        {
          "internalType": "uint256",
          "name": "",
          "type": "uint256"
        }
      ],
      "stateMutability": "view",
      "type": "function",
      "constant": true
    },
    {
      "inputs": [
        {
          "internalType": "uint256",
          "name": "",
          "type": "uint256"
        }
      ],
      "name": "RewardPerBlockOfLevel",
      "outputs": [
        {
          "internalType": "uint256",
          "name": "",
          "type": "uint256"
        }
      ],
      "stateMutability": "view",
      "type": "function",
      "constant": true
    },
    {
      "inputs": [],
      "name": "Robot",
      "outputs": [
        {
          "internalType": "contract IRobot",
          "name": "",
          "type": "address"
        }
      ],
      "stateMutability": "view",
      "type": "function",
      "constant": true
    },
    {
      "inputs": [],
      "name": "TokenReward",
      "outputs": [
        {
          "internalType": "contract IERC20",
          "name": "",
          "type": "address"
        }
      ],
      "stateMutability": "view",
      "type": "function",
      "constant": true
    },
    {
      "inputs": [],
      "name": "TotalBlockLearnEachTime",
      "outputs": [
        {
          "internalType": "uint256",
          "name": "",
          "type": "uint256"
        }
      ],
      "stateMutability": "view",
      "type": "function",
      "constant": true
    },
    {
      "inputs": [],
      "name": "owner",
      "outputs": [
        {
          "internalType": "address",
          "name": "",
          "type": "address"
        }
      ],
      "stateMutability": "view",
      "type": "function",
      "constant": true
    },
    {
      "inputs": [],
      "name": "paused",
      "outputs": [
        {
          "internalType": "bool",
          "name": "",
          "type": "bool"
        }
      ],
      "stateMutability": "view",
      "type": "function",
      "constant": true
    },
    {
      "inputs": [],
      "name": "renounceOwnership",
      "outputs": [],
      "stateMutability": "nonpayable",
      "type": "function"
    },
    {
      "inputs": [
        {
          "internalType": "address",
          "name": "newOwner",
          "type": "address"
        }
      ],
      "name": "transferOwnership",
      "outputs": [],
      "stateMutability": "nonpayable",
      "type": "function"
    },
    {
      "inputs": [
        {
          "internalType": "address",
          "name": "",
          "type": "address"
        },
        {
          "internalType": "address",
          "name": "",
          "type": "address"
        },
        {
          "internalType": "uint256",
          "name": "",
          "type": "uint256"
        },
        {
          "internalType": "bytes",
          "name": "",
          "type": "bytes"
        }
      ],
      "name": "onERC721Received",
      "outputs": [
        {
          "internalType": "bytes4",
          "name": "",
          "type": "bytes4"
        }
      ],
      "stateMutability": "nonpayable",
      "type": "function"
    },
    {
      "inputs": [],
      "name": "PauseSystem",
      "outputs": [],
      "stateMutability": "nonpayable",
      "type": "function"
    },
    {
      "inputs": [],
      "name": "UnpauseSystem",
      "outputs": [],
      "stateMutability": "nonpayable",
      "type": "function"
    },
    {
      "inputs": [
        {
          "internalType": "contract IGameController",
          "name": "gameCotrollerContract",
          "type": "address"
        }
      ],
      "name": "SetGameCotrollerContract",
      "outputs": [],
      "stateMutability": "nonpayable",
      "type": "function"
    },
    {
      "inputs": [
        {
          "internalType": "contract IRobot",
          "name": "robot",
          "type": "address"
        }
      ],
      "name": "SetRobot",
      "outputs": [],
      "stateMutability": "nonpayable",
      "type": "function"
    },
    {
      "inputs": [
        {
          "internalType": "contract IERC20",
          "name": "tokenReward",
          "type": "address"
        }
      ],
      "name": "SetTokenReward",
      "outputs": [],
      "stateMutability": "nonpayable",
      "type": "function"
    },
    {
      "inputs": [
        {
          "internalType": "uint256",
          "name": "maxLevelOfRobotNFTinGame",
          "type": "uint256"
        }
      ],
      "name": "SetMaxLevelOfRobotNFTinGame",
      "outputs": [],
      "stateMutability": "nonpayable",
      "type": "function"
    },
    {
      "inputs": [
        {
          "internalType": "uint256",
          "name": "totalBlockLearnEachTime",
          "type": "uint256"
        }
      ],
      "name": "SetTotalBlockLearnEachTime",
      "outputs": [],
      "stateMutability": "nonpayable",
      "type": "function"
    },
    {
      "inputs": [
        {
          "internalType": "uint256",
          "name": "level",
          "type": "uint256"
        },
        {
          "internalType": "uint256",
          "name": "value",
          "type": "uint256"
        }
      ],
      "name": "SetRewardPerBlockOfLevel",
      "outputs": [],
      "stateMutability": "nonpayable",
      "type": "function"
    },
    {
      "inputs": [
        {
          "internalType": "uint256",
          "name": "level",
          "type": "uint256"
        },
        {
          "internalType": "uint256",
          "name": "price",
          "type": "uint256"
        }
      ],
      "name": "SetPriceUpgradeLevelRobotNFT",
      "outputs": [],
      "stateMutability": "nonpayable",
      "type": "function"
    },
    {
      "inputs": [
        {
          "internalType": "uint256",
          "name": "level",
          "type": "uint256"
        },
        {
          "internalType": "uint256",
          "name": "quantityBlock",
          "type": "uint256"
        }
      ],
      "name": "SetBlockUpgradeLevelRobotNFT",
      "outputs": [],
      "stateMutability": "nonpayable",
      "type": "function"
    },
    {
      "inputs": [
        {
          "internalType": "uint256",
          "name": "newDelayBlockLearnNextTime",
          "type": "uint256"
        }
      ],
      "name": "SetDelayBlockLearnNextTime",
      "outputs": [],
      "stateMutability": "nonpayable",
      "type": "function"
    },
    {
      "inputs": [],
      "name": "UpgradeLevelRobot",
      "outputs": [],
      "stateMutability": "nonpayable",
      "type": "function"
    },
    {
      "inputs": [],
      "name": "ForRobotNFTToLearn",
      "outputs": [],
      "stateMutability": "nonpayable",
      "type": "function"
    },
    {
      "inputs": [],
      "name": "ForRobotNFTStopLearn",
      "outputs": [],
      "stateMutability": "nonpayable",
      "type": "function"
    },
    {
      "inputs": [
        {
          "internalType": "address",
          "name": "user",
          "type": "address"
        }
      ],
      "name": "GetData",
      "outputs": [
        {
          "internalType": "uint256",
          "name": "cyberCreditBalance",
          "type": "uint256"
        },
        {
          "internalType": "uint256",
          "name": "tokenId",
          "type": "uint256"
        },
        {
          "internalType": "uint256",
          "name": "levelRobotJoinGameOfUser",
          "type": "uint256"
        },
        {
          "internalType": "uint256",
          "name": "blockNumber",
          "type": "uint256"
        },
        {
          "internalType": "bool",
          "name": "learning",
          "type": "bool"
        },
        {
          "internalType": "uint256",
          "name": "startBlockLearn",
          "type": "uint256"
        },
        {
          "internalType": "uint256",
          "name": "stopBlockLearn",
          "type": "uint256"
        },
        {
          "internalType": "uint256",
          "name": "pendingBlockLearn",
          "type": "uint256"
        },
        {
          "internalType": "uint256",
          "name": "rewardPerDay",
          "type": "uint256"
        },
        {
          "internalType": "uint256",
          "name": "pendingBlockUpgradeLevelRobotNFT",
          "type": "uint256"
        }
      ],
      "stateMutability": "view",
      "type": "function",
      "constant": true
    },
    {
      "inputs": [],
      "name": "GetConfigSystem",
      "outputs": [
        {
          "internalType": "uint256",
          "name": "maxLevelOfRobotNFTinGame",
          "type": "uint256"
        },
        {
          "internalType": "uint256[]",
          "name": "priceUpgradeLevelRobotNFTLevel",
          "type": "uint256[]"
        },
        {
          "internalType": "uint256",
          "name": "totalBlockLearnEachTime",
          "type": "uint256"
        },
        {
          "internalType": "uint256[]",
          "name": "rewardPerBlockOfLevel",
          "type": "uint256[]"
        },
        {
          "internalType": "uint256[]",
          "name": "blockUpgradeLevelRobotNFT",
          "type": "uint256[]"
        }
      ],
      "stateMutability": "view",
      "type": "function",
      "constant": true
    }
  ],
  "bytecode": "0x60806040523480156200001157600080fd5b50604051620025de380380620025de8339810160408190526200003491620002e4565b6200003f336200027b565b6000805460ff60a01b19168155600280546001600160a01b039485166001600160a01b03199182161790915560038054939094169216919091178255610400600b55611000600a557f54cdd369e4e8a8515e52ca72ec816c2101831ad1f18bf44102ed171459c9b4f88190556901280a996661c83400007f3e5fec24aa4dc4e5aee2e025e51e1392c72a2500577559fae9665c6d52bd6a3155690de0b6b3a764000000007f8819ef417987f8ae7a81f42cdfb18815282fe989326fbff903d13cf0e03ace2955691bc16d674ec8000000007f75f96ab15d697e93042dc45b5c896c4b27e89bb6eaf39475c5c371cb2513f7d2557f6d5257204ebe7d88fd91ae87941cb2dd9d8062b64ae5a2bd2d28ec40b9fbf6df81905561012c7fb39221ace053465ec3453ce2b36430bd138b997ecea25c1043da0c366812b82855611b587fb7c774451310d1be4108bc180d1b52823cb0ee0274a6c0081bcaf94f115fb96d55616d607f3be6fd20d5acfde5b873b48692cd31f4d3c7e8ee8a813af4696af8859e5ca6c65560086020527f5eff886ea0ce6ca488a3d6e336d6c0f75f46d19b42c06ce5ee98e42c96d256c7819055670de0b6b3a76400007fad67d757c34507f157cacfa2e3153e9f260a2244f30428821be7be64587ac55f55673782dace9d9000007f6add646517a5b0f6793cd5891b7937d28a5b2981a5d88ebc7cd776088fea90415581905267de0b6b3a764000007f625b35f5e76f098dd7c3a05b10e2e5e78a4a01228d60c3b143426cdf36d264555560095562000323565b600080546001600160a01b038381166001600160a01b0319831681178455604051919092169283917f8be0079c531659141344cd1fd0a4f28419497f9722a3daafe3b4186f6b6457e09190a35050565b6001600160a01b0381168114620002e157600080fd5b50565b60008060408385031215620002f857600080fd5b82516200030581620002cb565b60208401519092506200031881620002cb565b809150509250929050565b6122ab80620003336000396000f3fe608060405234801561001057600080fd5b50600436106101ef5760003560e01c8063715018a61161010f578063b30d3502116100a2578063f26f999b11610071578063f26f999b146104cb578063f2fde38b146104de578063f8c8df88146104f1578063fe796ef9146104f957600080fd5b8063b30d35021461048e578063b7a16d2114610497578063d7724712146104aa578063ee68d332146104c357600080fd5b806392fa8c69116100de57806392fa8c69146104335780639ea561bb1461043b5780639f516bc01461045b578063a4258e471461046e57600080fd5b8063715018a61461036257806376a4cdd91461036a5780638da5cb5b146103c557806391daf913146103d657600080fd5b8063336f15781161018757806355a367f71161015657806355a367f71461030c57806356a9a18a1461031f5780635c975abb146103325780635eb28fb21461034f57600080fd5b8063336f1578146102b357806334e951e5146102c65780633a821f9b146102ce5780633e6281ed146102f957600080fd5b80630cdfb0d3116101c35780630cdfb0d31461024d578063150b7a0214610256578063161743b51461028d578063191f4818146102a057600080fd5b80628f45f6146101f45780630260b2c31461021057806306ac385e146102305780630c69b58314610245575b600080fd5b6101fd60095481565b6040519081526020015b60405180910390f35b6101fd61021e366004611f39565b60056020526000908152604090205481565b61024361023e366004611f52565b610519565b005b6102436105a4565b6101fd600a5481565b610274610264366004611f9f565b630a85bd0160e11b949350505050565b6040516001600160e01b03199091168152602001610207565b61024361029b366004611f52565b6105b6565b6102436102ae36600461207f565b61063c565b6102436102c1366004611f52565b610666565b6102436106c6565b6003546102e1906001600160a01b031681565b6040516001600160a01b039091168152602001610207565b610243610307366004611f39565b6108ed565b61024361031a366004611f39565b6108fa565b61024361032d366004611f39565b610907565b600054600160a01b900460ff166040519015158152602001610207565b6002546102e1906001600160a01b031681565b610243610914565b6103a361037836600461207f565b600460205260009081526040902080546001820154600283015460039093015460ff90921692909184565b6040805194151585526020850193909352918301526060820152608001610207565b6000546001600160a01b03166102e1565b6103e96103e436600461207f565b610926565b604080519a8b5260208b0199909952978901969096526060880194909452911515608087015260a086015260c085015260e084015261010083015261012082015261014001610207565b610243610bd8565b6101fd610449366004611f39565b60086020526000908152604090205481565b6001546102e1906001600160a01b031681565b6101fd61047c366004611f39565b60076020526000908152604090205481565b6101fd600b5481565b6102436104a536600461207f565b611062565b6104b261108c565b6040516102079594939291906120de565b61024361126f565b6102436104d936600461207f565b61127f565b6102436104ec36600461207f565b6112a9565b610243611322565b6101fd610507366004611f39565b60066020526000908152604090205481565b610521611941565b6009548211156105925760405162461bcd60e51b815260206004820152603160248201527f4572726f7220536574426c6f636b557067726164654c6576656c526f626f744e60448201527011950e88125b9d985b1a59081b195d995b607a1b60648201526084015b60405180910390fd5b60009182526007602052604090912055565b6105ac611941565b6105b461199b565b565b6105be611941565b60095482111561062a5760405162461bcd60e51b815260206004820152603160248201527f4572726f72205365745072696365557067726164654c6576656c526f626f744e60448201527011950e88125b9d985b1a59081b195d995b607a1b6064820152608401610589565b60009182526006602052604090912055565b610644611941565b600280546001600160a01b0319166001600160a01b0392909216919091179055565b61066e611941565b6009548211156106b45760405162461bcd60e51b8152602060048201526011602482015270125b9d985b1a59081b585e081b195d995b607a1b6044820152606401610589565b60009182526008602052604090912055565b6106ce6119f0565b60003360015460405163cd503d0960e01b81526001600160a01b03808416600483015292935091169063cd503d0990602401602060405180830381865afa15801561071d573d6000803e3d6000fd5b505050506040513d601f19601f82011682018060405250810190610741919061212f565b6000036107605760405162461bcd60e51b815260040161058990612148565b600033600154604051635167aaef60e11b81526001600160a01b0380841660048301529293506000929091169063a2cf55de906024016040805180830381865afa1580156107b2573d6000803e3d6000fd5b505050506040513d601f19601f820116820180604052508101906107d6919061217d565b600081815260056020526040902054909250431190506108085760405162461bcd60e51b8152600401610589906121a1565b336000818152600460205260409020805460ff16151560011461086d5760405162461bcd60e51b815260206004820181905260248201527f4572726f722053746f704c6561726e696e673a204e6f74206c6561726e696e676044820152606401610589565b6000610886826001015443611a3d90919063ffffffff16565b9050816003015481106108b857506003810154600a546108a7904390611a52565b6001830155600060038301556108cd565b60038201546108c79082611a3d565b60038301555b815460ff191682554360028301556108e58382611a5e565b505050505050565b6108f5611941565b600955565b610902611941565b600a55565b61090f611941565b600b55565b61091c611941565b6105b46000611e4a565b6003546040516370a0823160e01b81526001600160a01b03838116600483015260009283928392839283928392839283928392839216906370a0823190602401602060405180830381865afa158015610983573d6000803e3d6000fd5b505050506040513d601f19601f820116820180604052508101906109a7919061212f565b600154604051635167aaef60e11b81526001600160a01b038e81166004830152929c5091169063a2cf55de906024016040805180830381865afa1580156109f2573d6000803e3d6000fd5b505050506040513d601f19601f82011682018060405250810190610a16919061217d565b6002546040516311d5c6b560e01b815260048101839052919b506001600160a01b031691506311d5c6b590602401602060405180830381865afa158015610a61573d6000803e3d6000fd5b505050506040513d601f19601f82011682018060405250810190610a85919061212f565b6001600160a01b038c166000908152600460209081526040918290208251608081018452815460ff1615158082526001830154938201849052600283015494820185905260039092015460608201819052949c50439b509099509097509095509093508315610bb457600b54600090610afe9086611a3d565b90506000610b0c8a89611a3d565b9050868810610b955760008b815260086020526040902054600b54610b3091611e9a565b60008c815260086020526040902054610b5390610b4d8585611a52565b90611e9a565b10610b785760008b815260086020526040902054600b54610b7391611e9a565b610baf565b60008b815260086020526040902054610b7390610b4d8484611a52565b60008b815260086020526040902054610baf908390611e9a565b945050505b600560008b8152602001908152602001600020549150509193959799509193959799565b610be06119f0565b60003360015460405163cd503d0960e01b81526001600160a01b03808416600483015292935091169063cd503d0990602401602060405180830381865afa158015610c2f573d6000803e3d6000fd5b505050506040513d601f19601f82011682018060405250810190610c53919061212f565b600003610c725760405162461bcd60e51b815260040161058990612148565b600033600154604051635167aaef60e11b81526001600160a01b0380841660048301529293506000929091169063a2cf55de906024016040805180830381865afa158015610cc4573d6000803e3d6000fd5b505050506040513d601f19601f82011682018060405250810190610ce8919061217d565b60008181526005602052604090205490925043119050610d1a5760405162461bcd60e51b8152600401610589906121a1565b600154604051635167aaef60e11b81523360048201819052916000916001600160a01b039091169063a2cf55de906024016040805180830381865afa158015610d67573d6000803e3d6000fd5b505050506040513d601f19601f82011682018060405250810190610d8b919061217d565b91505080600003610dea5760405162461bcd60e51b8152602060048201526024808201527f4572726f722053746172744c6561726e696e673a20496e76616c696420746f6b604482015263195b925960e21b6064820152608401610589565b6002546040516311d5c6b560e01b8152600481018390526000916001600160a01b0316906311d5c6b590602401602060405180830381865afa158015610e34573d6000803e3d6000fd5b505050506040513d601f19601f82011682018060405250810190610e58919061212f565b11610ea55760405162461bcd60e51b815260206004820152601760248201527f4572726f723a20526f626f74204c6576656c20697320300000000000000000006044820152606401610589565b6001600160a01b038216600090815260046020526040902060018101544311610f105760405162461bcd60e51b815260206004820152601d60248201527f4572726f722053746172744c6561726e696e673a2054696d65206f75740000006044820152606401610589565b805460ff1615610f625760405162461bcd60e51b815260206004820152601d60248201527f4572726f722053746172744c6561726e696e673a204c6561726e696e670000006044820152606401610589565b8060030154600003610f7757600b5460038201555b43600182810191909155815460ff19161781556002546040516311d5c6b560e01b8152600481018490527ff33b295ec158e555b8779f58b77f6a8adf4ff72795121eeea82689ad936a17e591859185916001600160a01b0316906311d5c6b590602401602060405180830381865afa158015610ff7573d6000803e3d6000fd5b505050506040513d601f19601f8201168201806040525081019061101b919061212f565b60018501546003860154604080516001600160a01b0390961686526020860194909452928401919091526060830152608082015260a00160405180910390a1505050505050565b61106a611941565b600380546001600160a01b0319166001600160a01b0392909216919091179055565b6009546060600081806110a0856001611a52565b67ffffffffffffffff8111156110b8576110b8611f89565b6040519080825280602002602001820160405280156110e1578160200160208202803683370190505b50935060015b85811161112e576000818152600660205260409020548551869083908110611111576111116121d1565b602090810291909101015280611126816121fd565b9150506110e7565b50600b54925061113f856001611a52565b67ffffffffffffffff81111561115757611157611f89565b604051908082528060200260200182016040528015611180578160200160208202803683370190505b50915060005b8581116111cd5760008181526008602052604090205483518490839081106111b0576111b06121d1565b6020908102919091010152806111c5816121fd565b915050611186565b506111d9856001611a52565b67ffffffffffffffff8111156111f1576111f1611f89565b60405190808252806020026020018201604052801561121a578160200160208202803683370190505b50905060005b85811161126757600081815260076020526040902054825183908390811061124a5761124a6121d1565b60209081029190910101528061125f816121fd565b915050611220565b509091929394565b611277611941565b6105b4611ea6565b611287611941565b600180546001600160a01b0319166001600160a01b0392909216919091179055565b6112b1611941565b6001600160a01b0381166113165760405162461bcd60e51b815260206004820152602660248201527f4f776e61626c653a206e6577206f776e657220697320746865207a65726f206160448201526564647265737360d01b6064820152608401610589565b61131f81611e4a565b50565b61132a6119f0565b60003360015460405163cd503d0960e01b81526001600160a01b03808416600483015292935091169063cd503d0990602401602060405180830381865afa158015611379573d6000803e3d6000fd5b505050506040513d601f19601f8201168201806040525081019061139d919061212f565b6000036113bc5760405162461bcd60e51b815260040161058990612148565b600033600154604051635167aaef60e11b81526001600160a01b0380841660048301529293506000929091169063a2cf55de906024016040805180830381865afa15801561140e573d6000803e3d6000fd5b505050506040513d601f19601f82011682018060405250810190611432919061217d565b600081815260056020526040902054909250431190506114645760405162461bcd60e51b8152600401610589906121a1565b600154604051635167aaef60e11b81523360048201819052916000916001600160a01b039091169063a2cf55de906024016040805180830381865afa1580156114b1573d6000803e3d6000fd5b505050506040513d601f19601f820116820180604052508101906114d5919061217d565b915050806000036115395760405162461bcd60e51b815260206004820152602860248201527f4572726f7220557067726164654c6576656c526f626f743a20496e76616c6964604482015267081d1bdad95b925960c21b6064820152608401610589565b6002546040516311d5c6b560e01b8152600481018390526000916001600160a01b0316906311d5c6b590602401602060405180830381865afa158015611583573d6000803e3d6000fd5b505050506040513d601f19601f820116820180604052508101906115a7919061212f565b905060095481106116095760405162461bcd60e51b815260206004820152602660248201527f4572726f7220557067726164654c6576656c526f626f743a20496e76616c6964604482015265081b195d995b60d21b6064820152608401610589565b60066000611618836001611a52565b8152602081019190915260409081016000205460035491516370a0823160e01b81526001600160a01b038681166004830152919291909116906370a0823190602401602060405180830381865afa158015611677573d6000803e3d6000fd5b505050506040513d601f19601f8201168201806040525081019061169b919061212f565b10156116fa5760405162461bcd60e51b815260206004820152602860248201527f4572726f7220557067726164654c6576656c526f626f743a20496e76616c69646044820152672062616c616e636560c01b6064820152608401610589565b6001600160a01b0383166000908152600460209081526040918290208251608081018452815460ff16158015825260018301549382019390935260028201549381019390935260030154606083015261179f5760405162461bcd60e51b815260206004820152602160248201527f4572726f7220557067726164654c6576656c526f626f743a204c6561726e696e6044820152606760f81b6064820152608401610589565b6003546001600160a01b03166323b872dd8530600660006117c1886001611a52565b8152602081019190915260409081016000205490516001600160e01b031960e086901b1681526001600160a01b03938416600482015292909116602483015260448201526064016020604051808303816000875af1158015611827573d6000803e3d6000fd5b505050506040513d601f19601f8201168201806040525081019061184b9190612216565b5061187c6007600061185e856001611a52565b81526020019081526020016000205443611a5290919063ffffffff16565b60008481526005602052604090819020919091556002549051630d5c00ed60e11b8152600481018590526001600160a01b0390911690631ab801da90602401600060405180830381600087803b1580156118d557600080fd5b505af11580156118e9573d6000803e3d6000fd5b5050604080516001600160a01b0388168152602081018790529081018590527fd694a05dee33f4e29ddbd84025ef9db2c0282fc4c1a5840e08cc6693612530489250606001905060405180910390a150505050505050565b6000546001600160a01b031633146105b45760405162461bcd60e51b815260206004820181905260248201527f4f776e61626c653a2063616c6c6572206973206e6f7420746865206f776e65726044820152606401610589565b6119a3611ee9565b6000805460ff60a01b191690557f5db9ee0a495bf2e6ff9c91a7834c1ba4fdd244a5e8aa4e537bd38aeae4b073aa335b6040516001600160a01b03909116815260200160405180910390a1565b600054600160a01b900460ff16156105b45760405162461bcd60e51b815260206004820152601060248201526f14185d5cd8589b194e881c185d5cd95960821b6044820152606401610589565b6000611a498284612238565b90505b92915050565b6000611a49828461224b565b600154604051635167aaef60e11b81526001600160a01b038481166004830152600092169063a2cf55de906024016040805180830381865afa158015611aa8573d6000803e3d6000fd5b505050506040513d601f19601f82011682018060405250810190611acc919061217d565b6002546040516311d5c6b560e01b815260048101839052919350600092506001600160a01b0316906311d5c6b590602401602060405180830381865afa158015611b1a573d6000803e3d6000fd5b505050506040513d601f19601f82011682018060405250810190611b3e919061212f565b600081815260086020526040902054909150611b5a8482611e9a565b6003546040516370a0823160e01b81523060048201526001600160a01b03909116906370a0823190602401602060405180830381865afa158015611ba2573d6000803e3d6000fd5b505050506040513d601f19601f82011682018060405250810190611bc6919061212f565b10611caa576003546001600160a01b031663a9059cbb86611be78785611e9a565b6040516001600160e01b031960e085901b1681526001600160a01b03909216600483015260248201526044016020604051808303816000875af1158015611c32573d6000803e3d6000fd5b505050506040513d601f19601f82011682018060405250810190611c569190612216565b507fa39a00ad9a4d838556ef2f0b9a443bad63c27c494e2442d56db77decf186625e85611c838684611e9a565b604080516001600160a01b03909316835260208301919091520160405180910390a1611e43565b6003546040516370a0823160e01b81523060048201526001600160a01b039091169063a9059cbb90879083906370a0823190602401602060405180830381865afa158015611cfc573d6000803e3d6000fd5b505050506040513d601f19601f82011682018060405250810190611d20919061212f565b6040516001600160e01b031960e085901b1681526001600160a01b03909216600483015260248201526044016020604051808303816000875af1158015611d6b573d6000803e3d6000fd5b505050506040513d601f19601f82011682018060405250810190611d8f9190612216565b506003546040516370a0823160e01b81523060048201527fa39a00ad9a4d838556ef2f0b9a443bad63c27c494e2442d56db77decf186625e9187916001600160a01b03909116906370a0823190602401602060405180830381865afa158015611dfc573d6000803e3d6000fd5b505050506040513d601f19601f82011682018060405250810190611e20919061212f565b604080516001600160a01b03909316835260208301919091520160405180910390a15b5050505050565b600080546001600160a01b038381166001600160a01b0319831681178455604051919092169283917f8be0079c531659141344cd1fd0a4f28419497f9722a3daafe3b4186f6b6457e09190a35050565b6000611a49828461225e565b611eae6119f0565b6000805460ff60a01b1916600160a01b1790557f62e78cea01bee320cd4e420270b5ea74000d11b0c9f74754ebdbfc544b05a2586119d33390565b600054600160a01b900460ff166105b45760405162461bcd60e51b815260206004820152601460248201527314185d5cd8589b194e881b9bdd081c185d5cd95960621b6044820152606401610589565b600060208284031215611f4b57600080fd5b5035919050565b60008060408385031215611f6557600080fd5b50508035926020909101359150565b6001600160a01b038116811461131f57600080fd5b634e487b7160e01b600052604160045260246000fd5b60008060008060808587031215611fb557600080fd5b8435611fc081611f74565b93506020850135611fd081611f74565b925060408501359150606085013567ffffffffffffffff80821115611ff457600080fd5b818701915087601f83011261200857600080fd5b81358181111561201a5761201a611f89565b604051601f8201601f19908116603f0116810190838211818310171561204257612042611f89565b816040528281528a602084870101111561205b57600080fd5b82602086016020830137600060208483010152809550505050505092959194509250565b60006020828403121561209157600080fd5b813561209c81611f74565b9392505050565b600081518084526020808501945080840160005b838110156120d3578151875295820195908201906001016120b7565b509495945050505050565b85815260a0602082015260006120f760a08301876120a3565b856040840152828103606084015261210f81866120a3565b9050828103608084015261212381856120a3565b98975050505050505050565b60006020828403121561214157600080fd5b5051919050565b6020808252818101527f4572726f723a20496e76616964204865726f4e4654206a6f696e2067616d652e604082015260600190565b6000806040838503121561219057600080fd5b505080516020909101519092909150565b60208082526016908201527522b93937b91d102937b137ba103ab833b930b232b21760511b604082015260600190565b634e487b7160e01b600052603260045260246000fd5b634e487b7160e01b600052601160045260246000fd5b60006001820161220f5761220f6121e7565b5060010190565b60006020828403121561222857600080fd5b8151801515811461209c57600080fd5b81810381811115611a4c57611a4c6121e7565b80820180821115611a4c57611a4c6121e7565b8082028115828204841417611a4c57611a4c6121e756fea264697066735822122038f7505d21273ddb5e08034fb498989556ac87a75d537d3d4402e4d3422250c564736f6c63430008110033",
  "immutableReferences": {},
  "source": "// SPDX-License-Identifier: MIT\npragma solidity ^0.8.0;\n\nimport \"./interfaces/IGameController.sol\";\nimport \"@openzeppelin/contracts/utils/math/SafeMath.sol\";\nimport \"@openzeppelin/contracts/access/Ownable.sol\";\nimport \"@openzeppelin/contracts/security/Pausable.sol\";\nimport \"@openzeppelin/contracts/token/ERC20/IERC20.sol\";\nimport \"@openzeppelin/contracts/token/ERC721/IERC721Receiver.sol\";\n\nimport \"./interfaces/IRobot.sol\";\n\ncontract Learning is Ownable, IERC721Receiver, Pausable\n{\n    using SafeMath for uint256;\n    IGameController public GameCotrollerContract;\n    IRobot public Robot;          // NFT learn\n    IERC20 public TokenReward;     // Reward\n\n    // stores the LearnData of each user.\n    mapping(address => LearnData) public DataUserLearn;\n\n    //stores the block number of the pending level upgrade for each robot NFT.\n    mapping(uint256 => uint256) public PendingBlockUpgradeLevelRobotNFT;\n\n    // config\n\n    //stores the price to upgrade each level of robot NFT.\n    mapping(uint256 => uint256) public PriceUpgradeLevelRobotNFT; \n\n    // stores the number of blocks needed to upgrade each level of robot NFT.\n    mapping(uint256 => uint256) public BlockUpgradeLevelRobotNFT; \n\n    //stores the reward for each block of learning based on the robot NFT level.\n    mapping(uint256 => uint256) public RewardPerBlockOfLevel;\n\n    // the maximum level of robot NFT that can join the game.\n    uint256 public MaxLevelOfRobotNFTInGame;\n\n    //the number of blocks a user has to wait before they can start learning again.\n    uint256 public DelayBlockLearnNextTime;\n\n    //the total number of blocks a user needs to learn to earn rewards.\n    uint256 public TotalBlockLearnEachTime;\n\n    // Event action\n    event OnUpgradeLevelRobot(address user, uint256 tokenId, uint256 level);\n    event OnStartLearn(address user, uint256 tokenId, uint256 level, uint256 startBlockLearn, uint256 pendingBlockLearn);\n    event OnStopLearn(address user, uint256 tokenId, uint256 level, uint256 totalBlockLearnEachTime, uint256 stopBlockLearn);\n    event OnBonusReward(address user, uint256 AmountTokenReward);\n\n    struct LearnData\n    {\n        bool Learning; //a boolean that indicates whether the user is currently in a learning session             \n        uint256 StartBlockLearn; //the block at which the user started the current learning session\n        uint256 StopBlockLearn; //the block at which the user stopped the current learning session\n        uint256 PendingBlockLearn; //the number of blocks remaining until the current learning session is complete\n    }\n\n    constructor(\n        IRobot robot,\n        IERC20 tokenReward)\n    {\n        Robot = robot;\n        TokenReward = tokenReward;\n        \n        // Test\n        TotalBlockLearnEachTime = 1024;       \n        DelayBlockLearnNextTime = 4096;\n\n        PriceUpgradeLevelRobotNFT[0] = 0;\n        PriceUpgradeLevelRobotNFT[1] = 5461e18;\n        PriceUpgradeLevelRobotNFT[2] = 65536e18;\n        PriceUpgradeLevelRobotNFT[3] = 131072e18;\n\n        BlockUpgradeLevelRobotNFT[0] = 0;\n        BlockUpgradeLevelRobotNFT[1] = 300;\n        BlockUpgradeLevelRobotNFT[2] = 7000;\n        BlockUpgradeLevelRobotNFT[3] = 28000;\n\n        RewardPerBlockOfLevel[0] = 0;\n        RewardPerBlockOfLevel[1] = 1e18;\n        RewardPerBlockOfLevel[2] = 4e18;\n        RewardPerBlockOfLevel[3] = 16e18;\n\n        MaxLevelOfRobotNFTInGame = 3;\n    }\n\n    modifier isHeroNFTJoinGame()\n    {\n        address user = _msgSender();\n        require(GameCotrollerContract.HeroNFTJoinGameOfUser(user) != 0, \"Error: Invaid HeroNFT join game.\");\n        _;\n    }\n\n    modifier isNotUpgradeRobot()\n    {\n        address user = _msgSender();\n        (,uint256 robotId) = GameCotrollerContract.RobotNFTJoinGameOfUser(user);\n        require(block.number > PendingBlockUpgradeLevelRobotNFT[robotId], \"Error: Robot upgraded.\");\n        _;\n    }\n\n    function onERC721Received(address, address, uint256, bytes memory) public virtual override returns (bytes4) \n    {\n        return this.onERC721Received.selector;\n    }\n\n    // owner acction\n    function PauseSystem() public onlyOwner \n    {\n        _pause();\n    }\n\n    function UnpauseSystem() public onlyOwner\n    {\n        _unpause();\n    }\n\n    function SetGameCotrollerContract(IGameController gameCotrollerContract) public onlyOwner \n    {\n        GameCotrollerContract = gameCotrollerContract;\n    }\n\n    function SetRobot(IRobot robot)public onlyOwner \n    {\n        Robot = robot;\n    }\n\n    function SetTokenReward(IERC20 tokenReward) public onlyOwner\n    {\n        TokenReward = tokenReward;\n    }\n\n    function SetMaxLevelOfRobotNFTinGame(uint256 maxLevelOfRobotNFTinGame) public onlyOwner \n    {\n        MaxLevelOfRobotNFTInGame = maxLevelOfRobotNFTinGame;\n    }\n\n    function SetTotalBlockLearnEachTime(uint256 totalBlockLearnEachTime) public onlyOwner\n    {\n        TotalBlockLearnEachTime = totalBlockLearnEachTime;\n    }\n\n    function SetRewardPerBlockOfLevel(uint256 level, uint256 value) public onlyOwner \n    {\n        require(level <= MaxLevelOfRobotNFTInGame, \"Invalid max level\");\n        RewardPerBlockOfLevel[level] = value;\n    }\n\n    function SetPriceUpgradeLevelRobotNFT(uint256 level, uint256 price) public onlyOwner\n    {\n        require(level <= MaxLevelOfRobotNFTInGame,  \"Error SetPriceUpgradeLevelRobotNFT: Invalid level\");\n        PriceUpgradeLevelRobotNFT[level] = price;\n    }\n\n    function SetBlockUpgradeLevelRobotNFT(uint256 level, uint256 quantityBlock) public onlyOwner\n    {\n        require(level <= MaxLevelOfRobotNFTInGame,  \"Error SetBlockUpgradeLevelRobotNFT: Invalid level\");\n        BlockUpgradeLevelRobotNFT[level] = quantityBlock;\n    }\n\n    function SetDelayBlockLearnNextTime(uint256 newDelayBlockLearnNextTime) public onlyOwner \n    {\n        DelayBlockLearnNextTime = newDelayBlockLearnNextTime;\n    }\n\n    //user action\n    function UpgradeLevelRobot() public whenNotPaused isHeroNFTJoinGame isNotUpgradeRobot\n    {\n        address user = msg.sender;\n        (,uint256 tokenId) = GameCotrollerContract.RobotNFTJoinGameOfUser(user);\n        require(tokenId != 0, \"Error UpgradeLevelRobot: Invalid tokenId\");\n\n        uint256 level = Robot.Level(tokenId);\n        require(level < MaxLevelOfRobotNFTInGame, \"Error UpgradeLevelRobot: Invalid level\");\n        require(TokenReward.balanceOf(user) >= PriceUpgradeLevelRobotNFT[level.add(1)], \"Error UpgradeLevelRobot: Invalid balance\");\n        LearnData memory data = DataUserLearn[user];\n        require(data.Learning == false, \"Error UpgradeLevelRobot: Learning\");\n        TokenReward.transferFrom(user, address(this), PriceUpgradeLevelRobotNFT[level.add(1)]);\n\n        PendingBlockUpgradeLevelRobotNFT[tokenId] = block.number.add(BlockUpgradeLevelRobotNFT[level.add(1)]);\n        Robot.UpgradeLevel(tokenId);\n        emit OnUpgradeLevelRobot(user, tokenId, level);\n    }\n\n    function ForRobotNFTToLearn() public whenNotPaused isHeroNFTJoinGame isNotUpgradeRobot\n    {\n        address user = msg.sender;\n        (,uint256 tokenId) = GameCotrollerContract.RobotNFTJoinGameOfUser(user);\n        require(tokenId != 0, \"Error StartLearning: Invalid tokenId\");\n        require(Robot.Level(tokenId) > 0, \"Error: Robot Level is 0\");\n\n        LearnData storage data = DataUserLearn[user]; \n        require(data.StartBlockLearn < block.number, \"Error StartLearning: Time out\");\n        require(data.Learning == false, \"Error StartLearning: Learning\");\n\n        if(data.PendingBlockLearn == 0)\n        {\n            data.PendingBlockLearn = TotalBlockLearnEachTime;\n        }\n\n        data.StartBlockLearn = block.number;\n        data.Learning = true;\n\n        emit OnStartLearn(user, tokenId, Robot.Level(tokenId), data.StartBlockLearn, data.PendingBlockLearn);\n    }\n\n    function ForRobotNFTStopLearn() public whenNotPaused isHeroNFTJoinGame isNotUpgradeRobot\n    {\n        address user = msg.sender;\n\n        LearnData storage data = DataUserLearn[user]; \n        require(data.Learning == true, \"Error StopLearning: Not learning\");\n\n        uint256 totalBlockLearnedOfUser = block.number.sub(data.StartBlockLearn);\n        if(totalBlockLearnedOfUser >= data.PendingBlockLearn)\n        {\n            totalBlockLearnedOfUser = data.PendingBlockLearn;\n\n            data.StartBlockLearn = block.number.add(DelayBlockLearnNextTime);\n            data.PendingBlockLearn = 0;\n        }\n        else\n        {\n            data.PendingBlockLearn = data.PendingBlockLearn.sub(totalBlockLearnedOfUser);\n        }\n        data.Learning = false;\n        data.StopBlockLearn = block.number;\n\n        DoBonusToken(user, totalBlockLearnedOfUser);\n    }\n\n    function GetData(address user) public view returns(\n        uint256 cyberCreditBalance,\n        uint256 tokenId,\n        uint256 levelRobotJoinGameOfUser,\n        uint256 blockNumber,\n        bool learning,\n        uint256 startBlockLearn,\n        uint256 stopBlockLearn,\n        uint256 pendingBlockLearn,\n        uint256 rewardPerDay,\n        uint256 pendingBlockUpgradeLevelRobotNFT\n    )\n    {\n        cyberCreditBalance = TokenReward.balanceOf(user);\n        (,tokenId) = GameCotrollerContract.RobotNFTJoinGameOfUser(user);\n        \n        levelRobotJoinGameOfUser = Robot.Level(tokenId);\n        blockNumber = block.number;\n\n        LearnData memory data = DataUserLearn[user];\n        learning = data.Learning;\n        startBlockLearn = data.StartBlockLearn;\n        pendingBlockLearn = data.PendingBlockLearn;\n        stopBlockLearn = data.StopBlockLearn;\n\n        if(pendingBlockLearn != 0) \n        {\n            uint256 totalBlockLearned = TotalBlockLearnEachTime.sub(pendingBlockLearn);\n            uint256 totalBlockLearnEachTimeing = blockNumber.sub(startBlockLearn);\n\n            rewardPerDay = (startBlockLearn < stopBlockLearn) ?\n                totalBlockLearned.mul(RewardPerBlockOfLevel[levelRobotJoinGameOfUser]) :\n                    ((totalBlockLearned.add(totalBlockLearnEachTimeing))\n                        .mul(RewardPerBlockOfLevel[levelRobotJoinGameOfUser]) <\n                        TotalBlockLearnEachTime.mul(RewardPerBlockOfLevel[levelRobotJoinGameOfUser])) ? \n                            (totalBlockLearned.add(totalBlockLearnEachTimeing))\n                            .mul(RewardPerBlockOfLevel[levelRobotJoinGameOfUser]) :\n                                TotalBlockLearnEachTime.mul(RewardPerBlockOfLevel[levelRobotJoinGameOfUser]);\n        }\n\n        pendingBlockUpgradeLevelRobotNFT  = PendingBlockUpgradeLevelRobotNFT[tokenId];\n        \n    }\n\n    function GetConfigSystem() public view returns(\n        uint256 maxLevelOfRobotNFTinGame,\n        uint256[] memory priceUpgradeLevelRobotNFTLevel,\n        uint256 totalBlockLearnEachTime,\n        uint256[] memory rewardPerBlockOfLevel,\n        uint256[] memory blockUpgradeLevelRobotNFT\n    )\n    {\n        maxLevelOfRobotNFTinGame = MaxLevelOfRobotNFTInGame;\n\n        priceUpgradeLevelRobotNFTLevel = new uint256[](maxLevelOfRobotNFTinGame.add(1));\n        for(uint level = 1; level <= maxLevelOfRobotNFTinGame; level++)\n        {\n            priceUpgradeLevelRobotNFTLevel[level] = PriceUpgradeLevelRobotNFT[level]; \n        }\n\n        totalBlockLearnEachTime = TotalBlockLearnEachTime;\n\n        rewardPerBlockOfLevel = new uint256[](maxLevelOfRobotNFTinGame.add(1));\n        for(uint level = 0; level <= maxLevelOfRobotNFTinGame; level++)\n        {\n            rewardPerBlockOfLevel[level] = RewardPerBlockOfLevel[level];\n        }\n\n        blockUpgradeLevelRobotNFT = new uint256[](maxLevelOfRobotNFTinGame.add(1));\n        for(uint level = 0; level <= maxLevelOfRobotNFTinGame; level++)\n        {\n            blockUpgradeLevelRobotNFT[level] = BlockUpgradeLevelRobotNFT[level];\n        }\n    }\n\n    function DoBonusToken(address user, uint256 totalBlockLearned) private\n    {\n        (,uint256 tokenId) = GameCotrollerContract.RobotNFTJoinGameOfUser(user);\n        uint256 level = Robot.Level(tokenId);\n        uint256 rewardPerBlock = RewardPerBlockOfLevel[level];\n        if(TokenReward.balanceOf(address(this)) >= totalBlockLearned.mul(rewardPerBlock))\n        {\n            TokenReward.transfer(user, totalBlockLearned.mul(rewardPerBlock));\n\n            emit OnBonusReward(user, totalBlockLearned.mul(rewardPerBlock));\n        }\n        else\n        {\n            TokenReward.transfer(user, TokenReward.balanceOf(address(this)));\n\n            emit OnBonusReward(user, TokenReward.balanceOf(address(this)));\n        }\n    }  \n}",
  "sourcePath": "/Applications/projects/garbi-contracts/contracts/Learning.sol",
  "compiler": {
    "name": "solc",
    "version": "0.8.17+commit.8df45f5f.Emscripten.clang"
  },
  "schemaVersion": "3.4.11",
  "updatedAt": "2023-04-13T09:39:03.462Z",
  "networkType": "ethereum",
  "devdoc": {
    "kind": "dev",
    "methods": {
      "owner()": {
        "details": "Returns the address of the current owner."
      },
      "paused()": {
        "details": "Returns true if the contract is paused, and false otherwise."
      },
      "renounceOwnership()": {
        "details": "Leaves the contract without owner. It will not be possible to call `onlyOwner` functions anymore. Can only be called by the current owner. NOTE: Renouncing ownership will leave the contract without an owner, thereby removing any functionality that is only available to the owner."
      },
      "transferOwnership(address)": {
        "details": "Transfers ownership of the contract to a new account (`newOwner`). Can only be called by the current owner."
      }
    },
    "version": 1
  },
  "userdoc": {
    "kind": "user",
    "methods": {},
    "version": 1
  }
}