{
  "contractName": "Learning",
  "abi": [
    {
      "inputs": [
        {
          "internalType": "contract IRobot",
          "name": "robot",
          "type": "address"
        },
        {
          "internalType": "contract IERC20",
          "name": "tokenReward",
          "type": "address"
        }
      ],
      "stateMutability": "nonpayable",
      "type": "constructor"
    },
    {
      "anonymous": false,
      "inputs": [
        {
          "indexed": false,
          "internalType": "address",
          "name": "user",
          "type": "address"
        },
        {
          "indexed": false,
          "internalType": "uint256",
          "name": "AmountTokenReward",
          "type": "uint256"
        }
      ],
      "name": "OnBonusReward",
      "type": "event"
    },
    {
      "anonymous": false,
      "inputs": [
        {
          "indexed": false,
          "internalType": "address",
          "name": "user",
          "type": "address"
        },
        {
          "indexed": false,
          "internalType": "uint256",
          "name": "tokenId",
          "type": "uint256"
        },
        {
          "indexed": false,
          "internalType": "uint256",
          "name": "level",
          "type": "uint256"
        },
        {
          "indexed": false,
          "internalType": "uint256",
          "name": "startBlockLearn",
          "type": "uint256"
        },
        {
          "indexed": false,
          "internalType": "uint256",
          "name": "pendingBlockLearn",
          "type": "uint256"
        }
      ],
      "name": "OnStartLearn",
      "type": "event"
    },
    {
      "anonymous": false,
      "inputs": [
        {
          "indexed": false,
          "internalType": "address",
          "name": "user",
          "type": "address"
        },
        {
          "indexed": false,
          "internalType": "uint256",
          "name": "tokenId",
          "type": "uint256"
        },
        {
          "indexed": false,
          "internalType": "uint256",
          "name": "level",
          "type": "uint256"
        },
        {
          "indexed": false,
          "internalType": "uint256",
          "name": "totalBlockLearnEachTime",
          "type": "uint256"
        },
        {
          "indexed": false,
          "internalType": "uint256",
          "name": "stopBlockLearn",
          "type": "uint256"
        }
      ],
      "name": "OnStopLearn",
      "type": "event"
    },
    {
      "anonymous": false,
      "inputs": [
        {
          "indexed": false,
          "internalType": "address",
          "name": "user",
          "type": "address"
        },
        {
          "indexed": false,
          "internalType": "uint256",
          "name": "tokenId",
          "type": "uint256"
        },
        {
          "indexed": false,
          "internalType": "uint256",
          "name": "level",
          "type": "uint256"
        }
      ],
      "name": "OnUpgradeLevelRobot",
      "type": "event"
    },
    {
      "anonymous": false,
      "inputs": [
        {
          "indexed": true,
          "internalType": "address",
          "name": "previousOwner",
          "type": "address"
        },
        {
          "indexed": true,
          "internalType": "address",
          "name": "newOwner",
          "type": "address"
        }
      ],
      "name": "OwnershipTransferred",
      "type": "event"
    },
    {
      "anonymous": false,
      "inputs": [
        {
          "indexed": false,
          "internalType": "address",
          "name": "account",
          "type": "address"
        }
      ],
      "name": "Paused",
      "type": "event"
    },
    {
      "anonymous": false,
      "inputs": [
        {
          "indexed": false,
          "internalType": "address",
          "name": "account",
          "type": "address"
        }
      ],
      "name": "Unpaused",
      "type": "event"
    },
    {
      "inputs": [
        {
          "internalType": "uint256",
          "name": "",
          "type": "uint256"
        }
      ],
      "name": "BlockUpgradeLevelRobotNFT",
      "outputs": [
        {
          "internalType": "uint256",
          "name": "",
          "type": "uint256"
        }
      ],
      "stateMutability": "view",
      "type": "function",
      "constant": true
    },
    {
      "inputs": [
        {
          "internalType": "address",
          "name": "",
          "type": "address"
        }
      ],
      "name": "DataUserLearn",
      "outputs": [
        {
          "internalType": "bool",
          "name": "Learning",
          "type": "bool"
        },
        {
          "internalType": "uint256",
          "name": "StartBlockLearn",
          "type": "uint256"
        },
        {
          "internalType": "uint256",
          "name": "StopBlockLearn",
          "type": "uint256"
        },
        {
          "internalType": "uint256",
          "name": "PendingBlockLearn",
          "type": "uint256"
        }
      ],
      "stateMutability": "view",
      "type": "function",
      "constant": true
    },
    {
      "inputs": [],
      "name": "DelayBlockLearnNextTime",
      "outputs": [
        {
          "internalType": "uint256",
          "name": "",
          "type": "uint256"
        }
      ],
      "stateMutability": "view",
      "type": "function",
      "constant": true
    },
    {
      "inputs": [],
      "name": "DelayBlockRobotNFTOutGame",
      "outputs": [
        {
          "internalType": "uint256",
          "name": "",
          "type": "uint256"
        }
      ],
      "stateMutability": "view",
      "type": "function",
      "constant": true
    },
    {
      "inputs": [],
      "name": "GameCotrollerContract",
      "outputs": [
        {
          "internalType": "contract IGameController",
          "name": "",
          "type": "address"
        }
      ],
      "stateMutability": "view",
      "type": "function",
      "constant": true
    },
    {
      "inputs": [],
      "name": "MaxLevelOfRobotNFTInGame",
      "outputs": [
        {
          "internalType": "uint256",
          "name": "",
          "type": "uint256"
        }
      ],
      "stateMutability": "view",
      "type": "function",
      "constant": true
    },
    {
      "inputs": [
        {
          "internalType": "uint256",
          "name": "",
          "type": "uint256"
        }
      ],
      "name": "PendingBlockUpgradeLevelRobotNFT",
      "outputs": [
        {
          "internalType": "uint256",
          "name": "",
          "type": "uint256"
        }
      ],
      "stateMutability": "view",
      "type": "function",
      "constant": true
    },
    {
      "inputs": [
        {
          "internalType": "uint256",
          "name": "",
          "type": "uint256"
        }
      ],
      "name": "PriceUpgradeLevelRobotNFT",
      "outputs": [
        {
          "internalType": "uint256",
          "name": "",
          "type": "uint256"
        }
      ],
      "stateMutability": "view",
      "type": "function",
      "constant": true
    },
    {
      "inputs": [
        {
          "internalType": "uint256",
          "name": "",
          "type": "uint256"
        }
      ],
      "name": "RewardPerBlockOfLevel",
      "outputs": [
        {
          "internalType": "uint256",
          "name": "",
          "type": "uint256"
        }
      ],
      "stateMutability": "view",
      "type": "function",
      "constant": true
    },
    {
      "inputs": [],
      "name": "Robot",
      "outputs": [
        {
          "internalType": "contract IRobot",
          "name": "",
          "type": "address"
        }
      ],
      "stateMutability": "view",
      "type": "function",
      "constant": true
    },
    {
      "inputs": [],
      "name": "TokenReward",
      "outputs": [
        {
          "internalType": "contract IERC20",
          "name": "",
          "type": "address"
        }
      ],
      "stateMutability": "view",
      "type": "function",
      "constant": true
    },
    {
      "inputs": [],
      "name": "TotalBlockLearnEachTime",
      "outputs": [
        {
          "internalType": "uint256",
          "name": "",
          "type": "uint256"
        }
      ],
      "stateMutability": "view",
      "type": "function",
      "constant": true
    },
    {
      "inputs": [],
      "name": "owner",
      "outputs": [
        {
          "internalType": "address",
          "name": "",
          "type": "address"
        }
      ],
      "stateMutability": "view",
      "type": "function",
      "constant": true
    },
    {
      "inputs": [],
      "name": "paused",
      "outputs": [
        {
          "internalType": "bool",
          "name": "",
          "type": "bool"
        }
      ],
      "stateMutability": "view",
      "type": "function",
      "constant": true
    },
    {
      "inputs": [],
      "name": "renounceOwnership",
      "outputs": [],
      "stateMutability": "nonpayable",
      "type": "function"
    },
    {
      "inputs": [
        {
          "internalType": "address",
          "name": "newOwner",
          "type": "address"
        }
      ],
      "name": "transferOwnership",
      "outputs": [],
      "stateMutability": "nonpayable",
      "type": "function"
    },
    {
      "inputs": [
        {
          "internalType": "address",
          "name": "",
          "type": "address"
        },
        {
          "internalType": "address",
          "name": "",
          "type": "address"
        },
        {
          "internalType": "uint256",
          "name": "",
          "type": "uint256"
        },
        {
          "internalType": "bytes",
          "name": "",
          "type": "bytes"
        }
      ],
      "name": "onERC721Received",
      "outputs": [
        {
          "internalType": "bytes4",
          "name": "",
          "type": "bytes4"
        }
      ],
      "stateMutability": "nonpayable",
      "type": "function"
    },
    {
      "inputs": [],
      "name": "PauseSystem",
      "outputs": [],
      "stateMutability": "nonpayable",
      "type": "function"
    },
    {
      "inputs": [],
      "name": "UnpauseSystem",
      "outputs": [],
      "stateMutability": "nonpayable",
      "type": "function"
    },
    {
      "inputs": [
        {
          "internalType": "contract IGameController",
          "name": "gameCotrollerContract",
          "type": "address"
        }
      ],
      "name": "SetGameCotrollerContract",
      "outputs": [],
      "stateMutability": "nonpayable",
      "type": "function"
    },
    {
      "inputs": [
        {
          "internalType": "contract IRobot",
          "name": "robot",
          "type": "address"
        }
      ],
      "name": "SetRobot",
      "outputs": [],
      "stateMutability": "nonpayable",
      "type": "function"
    },
    {
      "inputs": [
        {
          "internalType": "contract IERC20",
          "name": "tokenReward",
          "type": "address"
        }
      ],
      "name": "SetTokenReward",
      "outputs": [],
      "stateMutability": "nonpayable",
      "type": "function"
    },
    {
      "inputs": [
        {
          "internalType": "uint256",
          "name": "value",
          "type": "uint256"
        }
      ],
      "name": "SetDelayBlockRobotNFTOutGame",
      "outputs": [],
      "stateMutability": "nonpayable",
      "type": "function"
    },
    {
      "inputs": [
        {
          "internalType": "uint256",
          "name": "maxLevelOfRobotNFTinGame",
          "type": "uint256"
        }
      ],
      "name": "SetMaxLevelOfRobotNFTinGame",
      "outputs": [],
      "stateMutability": "nonpayable",
      "type": "function"
    },
    {
      "inputs": [
        {
          "internalType": "uint256",
          "name": "totalBlockLearnEachTime",
          "type": "uint256"
        }
      ],
      "name": "SetTotalBlockLearnEachTime",
      "outputs": [],
      "stateMutability": "nonpayable",
      "type": "function"
    },
    {
      "inputs": [
        {
          "internalType": "uint256",
          "name": "level",
          "type": "uint256"
        },
        {
          "internalType": "uint256",
          "name": "value",
          "type": "uint256"
        }
      ],
      "name": "SetRewardPerBlockOfLevel",
      "outputs": [],
      "stateMutability": "nonpayable",
      "type": "function"
    },
    {
      "inputs": [
        {
          "internalType": "uint256",
          "name": "level",
          "type": "uint256"
        },
        {
          "internalType": "uint256",
          "name": "price",
          "type": "uint256"
        }
      ],
      "name": "SetPriceUpgradeLevelRobotNFT",
      "outputs": [],
      "stateMutability": "nonpayable",
      "type": "function"
    },
    {
      "inputs": [
        {
          "internalType": "uint256",
          "name": "level",
          "type": "uint256"
        },
        {
          "internalType": "uint256",
          "name": "quantityBlock",
          "type": "uint256"
        }
      ],
      "name": "SetBlockUpgradeLevelRobotNFT",
      "outputs": [],
      "stateMutability": "nonpayable",
      "type": "function"
    },
    {
      "inputs": [],
      "name": "UpgradeLevelRobot",
      "outputs": [],
      "stateMutability": "nonpayable",
      "type": "function"
    },
    {
      "inputs": [],
      "name": "ForRobotNFTToLearn",
      "outputs": [],
      "stateMutability": "nonpayable",
      "type": "function"
    },
    {
      "inputs": [],
      "name": "ForRobotNFTStopLearn",
      "outputs": [],
      "stateMutability": "nonpayable",
      "type": "function"
    },
    {
      "inputs": [
        {
          "internalType": "address",
          "name": "user",
          "type": "address"
        }
      ],
      "name": "GetData",
      "outputs": [
        {
          "internalType": "uint256",
          "name": "cyberCreditBalance",
          "type": "uint256"
        },
        {
          "internalType": "uint256",
          "name": "tokenId",
          "type": "uint256"
        },
        {
          "internalType": "uint256",
          "name": "levelRobotJoinGameOfUser",
          "type": "uint256"
        },
        {
          "internalType": "uint256",
          "name": "blockNumber",
          "type": "uint256"
        },
        {
          "internalType": "bool",
          "name": "learning",
          "type": "bool"
        },
        {
          "internalType": "uint256",
          "name": "startBlockLearn",
          "type": "uint256"
        },
        {
          "internalType": "uint256",
          "name": "stopBlockLearn",
          "type": "uint256"
        },
        {
          "internalType": "uint256",
          "name": "pendingBlockLearn",
          "type": "uint256"
        },
        {
          "internalType": "uint256",
          "name": "rewardPerDay",
          "type": "uint256"
        },
        {
          "internalType": "uint256",
          "name": "pendingBlockUpgradeLevelRobotNFT",
          "type": "uint256"
        }
      ],
      "stateMutability": "view",
      "type": "function",
      "constant": true
    },
    {
      "inputs": [],
      "name": "GetConfigSystem",
      "outputs": [
        {
          "internalType": "uint256",
          "name": "maxLevelOfRobotNFTinGame",
          "type": "uint256"
        },
        {
          "internalType": "uint256[]",
          "name": "priceUpgradeLevelRobotNFTLevel",
          "type": "uint256[]"
        },
        {
          "internalType": "uint256",
          "name": "totalBlockLearnEachTime",
          "type": "uint256"
        },
        {
          "internalType": "uint256[]",
          "name": "rewardPerBlockOfLevel",
          "type": "uint256[]"
        },
        {
          "internalType": "uint256[]",
          "name": "blockUpgradeLevelRobotNFT",
          "type": "uint256[]"
        }
      ],
      "stateMutability": "view",
      "type": "function",
      "constant": true
    }
  ],
  "bytecode": "0x60806040523480156200001157600080fd5b5060405162002548380380620025488339810160408190526200003491620002ea565b6200003f3362000281565b6000805460ff60a01b19168155600280546001600160a01b039485166001600160a01b031991821617909155600380549390941692169190911782556032600655601e600c55600a600b8190557f6d5257204ebe7d88fd91ae87941cb2dd9d8062b64ae5a2bd2d28ec40b9fbf6df82905568056bc75e2d631000007fb39221ace053465ec3453ce2b36430bd138b997ecea25c1043da0c366812b82855680ad78ebc5ac62000007fb7c774451310d1be4108bc180d1b52823cb0ee0274a6c0081bcaf94f115fb96d55681043561a88293000007f3be6fd20d5acfde5b873b48692cd31f4d3c7e8ee8a813af4696af8859e5ca6c6557f5eff886ea0ce6ca488a3d6e336d6c0f75f46d19b42c06ce5ee98e42c96d256c782905560647fad67d757c34507f157cacfa2e3153e9f260a2244f30428821be7be64587ac55f5560c87f6add646517a5b0f6793cd5891b7937d28a5b2981a5d88ebc7cd776088fea90415561012c7f625b35f5e76f098dd7c3a05b10e2e5e78a4a01228d60c3b143426cdf36d264555560096020526706f05b59d3b200007fec8156718a8372b1db44bb411437d0870f3e3790d4a08526d024ce1b0b668f6b55670de0b6b3a76400007f92e85d02570a8092d09a6e3a57665bc3815a2699a4074001bf1ccabf660f5a3655671bc16d674ec800007f6cde3cea4b3a3fb2488b2808bae7556f4a405e50f65e1794383bc026131b13c355908290526729a2241af62c00007fc575c31fea594a6eb97c8e9d3f9caee4c16218c6ef37e923234c0fe9014a61e7555562000329565b600080546001600160a01b038381166001600160a01b0319831681178455604051919092169283917f8be0079c531659141344cd1fd0a4f28419497f9722a3daafe3b4186f6b6457e09190a35050565b6001600160a01b0381168114620002e757600080fd5b50565b60008060408385031215620002fe57600080fd5b82516200030b81620002d1565b60208401519092506200031e81620002d1565b809150509250929050565b61220f80620003396000396000f3fe608060405234801561001057600080fd5b50600436106101fa5760003560e01c806376a4cdd91161011a578063a4258e47116100ad578063ee68d3321161007c578063ee68d332146104d7578063f26f999b146104df578063f2fde38b146104f2578063f8c8df8814610505578063fe796ef91461050d57600080fd5b8063a4258e4714610482578063b30d3502146104a2578063b7a16d21146104ab578063d7724712146104be57600080fd5b806392fa8c69116100e957806392fa8c691461043e578063992d1b72146104465780639ea561bb1461044f5780639f516bc01461046f57600080fd5b806376a4cdd91461036257806377628ce4146103bd5780638da5cb5b146103d057806391daf913146103e157600080fd5b8063336f15781161019257806356a9a18a1161016157806356a9a18a146103175780635c975abb1461032a5780635eb28fb214610347578063715018a61461035a57600080fd5b8063336f1578146102be57806334e951e5146102d15780633a821f9b146102d95780633e6281ed1461030457600080fd5b80630cdfb0d3116101ce5780630cdfb0d314610258578063150b7a0214610261578063161743b514610298578063191f4818146102ab57600080fd5b80628f45f6146101ff5780630260b2c31461021b57806306ac385e1461023b5780630c69b58314610250575b600080fd5b610208600a5481565b6040519081526020015b60405180910390f35b610208610229366004611e9d565b60056020526000908152604090205481565b61024e610249366004611eb6565b61052d565b005b61024e6105b8565b610208600b5481565b61027f61026f366004611f03565b630a85bd0160e11b949350505050565b6040516001600160e01b03199091168152602001610212565b61024e6102a6366004611eb6565b6105ca565b61024e6102b9366004611fe3565b610650565b61024e6102cc366004611eb6565b61067a565b61024e6106da565b6003546102ec906001600160a01b031681565b6040516001600160a01b039091168152602001610212565b61024e610312366004611e9d565b610901565b61024e610325366004611e9d565b61090e565b600054600160a01b900460ff166040519015158152602001610212565b6002546102ec906001600160a01b031681565b61024e61091b565b61039b610370366004611fe3565b600460205260009081526040902080546001820154600283015460039093015460ff90921692909184565b6040805194151585526020850193909352918301526060820152608001610212565b61024e6103cb366004611e9d565b61092d565b6000546001600160a01b03166102ec565b6103f46103ef366004611fe3565b61093a565b604080519a8b5260208b0199909952978901969096526060880194909452911515608087015260a086015260c085015260e084015261010083015261012082015261014001610212565b61024e610bec565b61020860065481565b61020861045d366004611e9d565b60096020526000908152604090205481565b6001546102ec906001600160a01b031681565b610208610490366004611e9d565b60086020526000908152604090205481565b610208600c5481565b61024e6104b9366004611fe3565b611077565b6104c66110a1565b604051610212959493929190612042565b61024e611284565b61024e6104ed366004611fe3565b611294565b61024e610500366004611fe3565b6112be565b61024e611337565b61020861051b366004611e9d565b60076020526000908152604090205481565b6105356118a5565b600a548211156105a65760405162461bcd60e51b815260206004820152603160248201527f4572726f7220536574426c6f636b557067726164654c6576656c526f626f744e60448201527011950e88125b9d985b1a59081b195d995b607a1b60648201526084015b60405180910390fd5b60009182526008602052604090912055565b6105c06118a5565b6105c86118ff565b565b6105d26118a5565b600a5482111561063e5760405162461bcd60e51b815260206004820152603160248201527f4572726f72205365745072696365557067726164654c6576656c526f626f744e60448201527011950e88125b9d985b1a59081b195d995b607a1b606482015260840161059d565b60009182526007602052604090912055565b6106586118a5565b600280546001600160a01b0319166001600160a01b0392909216919091179055565b6106826118a5565b600a548211156106c85760405162461bcd60e51b8152602060048201526011602482015270125b9d985b1a59081b585e081b195d995b607a1b604482015260640161059d565b60009182526009602052604090912055565b6106e2611954565b60003360015460405163cd503d0960e01b81526001600160a01b03808416600483015292935091169063cd503d0990602401602060405180830381865afa158015610731573d6000803e3d6000fd5b505050506040513d601f19601f820116820180604052508101906107559190612093565b6000036107745760405162461bcd60e51b815260040161059d906120ac565b600033600154604051635167aaef60e11b81526001600160a01b0380841660048301529293506000929091169063a2cf55de906024016040805180830381865afa1580156107c6573d6000803e3d6000fd5b505050506040513d601f19601f820116820180604052508101906107ea91906120e1565b6000818152600560205260409020549092504311905061081c5760405162461bcd60e51b815260040161059d90612105565b336000818152600460205260409020805460ff1615156001146108815760405162461bcd60e51b815260206004820181905260248201527f4572726f722053746f704c6561726e696e673a204e6f74206c6561726e696e67604482015260640161059d565b600061089a8260010154436119a190919063ffffffff16565b9050816003015481106108cc57506003810154600b546108bb9043906119b6565b6001830155600060038301556108e1565b60038201546108db90826119a1565b60038301555b815460ff191682554360028301556108f983826119c2565b505050505050565b6109096118a5565b600a55565b6109166118a5565b600c55565b6109236118a5565b6105c86000611dae565b6109356118a5565b600655565b6003546040516370a0823160e01b81526001600160a01b03838116600483015260009283928392839283928392839283928392839216906370a0823190602401602060405180830381865afa158015610997573d6000803e3d6000fd5b505050506040513d601f19601f820116820180604052508101906109bb9190612093565b600154604051635167aaef60e11b81526001600160a01b038e81166004830152929c5091169063a2cf55de906024016040805180830381865afa158015610a06573d6000803e3d6000fd5b505050506040513d601f19601f82011682018060405250810190610a2a91906120e1565b6002546040516311d5c6b560e01b815260048101839052919b506001600160a01b031691506311d5c6b590602401602060405180830381865afa158015610a75573d6000803e3d6000fd5b505050506040513d601f19601f82011682018060405250810190610a999190612093565b6001600160a01b038c166000908152600460209081526040918290208251608081018452815460ff1615158082526001830154938201849052600283015494820185905260039092015460608201819052949c50439b509099509097509095509093508315610bc857600c54600090610b1290866119a1565b90506000610b208a896119a1565b9050868810610ba95760008b815260096020526040902054600c54610b4491611dfe565b60008c815260096020526040902054610b6790610b6185856119b6565b90611dfe565b10610b8c5760008b815260096020526040902054600c54610b8791611dfe565b610bc3565b60008b815260096020526040902054610b8790610b6184846119b6565b60008b815260096020526040902054610bc3908390611dfe565b945050505b600560008b8152602001908152602001600020549150509193959799509193959799565b610bf4611954565b60003360015460405163cd503d0960e01b81526001600160a01b03808416600483015292935091169063cd503d0990602401602060405180830381865afa158015610c43573d6000803e3d6000fd5b505050506040513d601f19601f82011682018060405250810190610c679190612093565b600003610c865760405162461bcd60e51b815260040161059d906120ac565b600033600154604051635167aaef60e11b81526001600160a01b0380841660048301529293506000929091169063a2cf55de906024016040805180830381865afa158015610cd8573d6000803e3d6000fd5b505050506040513d601f19601f82011682018060405250810190610cfc91906120e1565b60008181526005602052604090205490925043119050610d2e5760405162461bcd60e51b815260040161059d90612105565b600154604051635167aaef60e11b81523360048201819052916000916001600160a01b039091169063a2cf55de906024016040805180830381865afa158015610d7b573d6000803e3d6000fd5b505050506040513d601f19601f82011682018060405250810190610d9f91906120e1565b91505080600003610dfe5760405162461bcd60e51b8152602060048201526024808201527f4572726f722053746172744c6561726e696e673a20496e76616c696420746f6b604482015263195b925960e21b606482015260840161059d565b6002546040516311d5c6b560e01b8152600481018390526000916001600160a01b0316906311d5c6b590602401602060405180830381865afa158015610e48573d6000803e3d6000fd5b505050506040513d601f19601f82011682018060405250810190610e6c9190612093565b11610eb95760405162461bcd60e51b815260206004820152601760248201527f4572726f723a20526f626f74204c6576656c2069732030000000000000000000604482015260640161059d565b6001600160a01b038216600090815260046020526040902060018101544311610f245760405162461bcd60e51b815260206004820152601d60248201527f4572726f722053746172744c6561726e696e673a2054696d65206f7574000000604482015260640161059d565b805460ff1615610f765760405162461bcd60e51b815260206004820152601d60248201527f4572726f722053746172744c6561726e696e673a204c6561726e696e67000000604482015260640161059d565b8060030154600003610f8b57600c5460038201555b43600182810191909155815460ff19161781556002546040516311d5c6b560e01b8152600481018490527ff33b295ec158e555b8779f58b77f6a8adf4ff72795121eeea82689ad936a17e591859185916001600160a01b0316906311d5c6b590602401602060405180830381865afa15801561100b573d6000803e3d6000fd5b505050506040513d601f19601f8201168201806040525081019061102f9190612093565b60018501546003860154604080516001600160a01b0390961686526020860194909452928401919091526060830152608082015260a0015b60405180910390a1505050505050565b61107f6118a5565b600380546001600160a01b0319166001600160a01b0392909216919091179055565b600a546060600081806110b58560016119b6565b67ffffffffffffffff8111156110cd576110cd611eed565b6040519080825280602002602001820160405280156110f6578160200160208202803683370190505b50935060015b85811161114357600081815260076020526040902054855186908390811061112657611126612135565b60209081029190910101528061113b81612161565b9150506110fc565b50600c5492506111548560016119b6565b67ffffffffffffffff81111561116c5761116c611eed565b604051908082528060200260200182016040528015611195578160200160208202803683370190505b50915060005b8581116111e25760008181526009602052604090205483518490839081106111c5576111c5612135565b6020908102919091010152806111da81612161565b91505061119b565b506111ee8560016119b6565b67ffffffffffffffff81111561120657611206611eed565b60405190808252806020026020018201604052801561122f578160200160208202803683370190505b50905060005b85811161127c57600081815260086020526040902054825183908390811061125f5761125f612135565b60209081029190910101528061127481612161565b915050611235565b509091929394565b61128c6118a5565b6105c8611e0a565b61129c6118a5565b600180546001600160a01b0319166001600160a01b0392909216919091179055565b6112c66118a5565b6001600160a01b03811661132b5760405162461bcd60e51b815260206004820152602660248201527f4f776e61626c653a206e6577206f776e657220697320746865207a65726f206160448201526564647265737360d01b606482015260840161059d565b61133481611dae565b50565b61133f611954565b60003360015460405163cd503d0960e01b81526001600160a01b03808416600483015292935091169063cd503d0990602401602060405180830381865afa15801561138e573d6000803e3d6000fd5b505050506040513d601f19601f820116820180604052508101906113b29190612093565b6000036113d15760405162461bcd60e51b815260040161059d906120ac565b600033600154604051635167aaef60e11b81526001600160a01b0380841660048301529293506000929091169063a2cf55de906024016040805180830381865afa158015611423573d6000803e3d6000fd5b505050506040513d601f19601f8201168201806040525081019061144791906120e1565b600081815260056020526040902054909250431190506114795760405162461bcd60e51b815260040161059d90612105565b600154604051635167aaef60e11b81523360048201819052916000916001600160a01b039091169063a2cf55de906024016040805180830381865afa1580156114c6573d6000803e3d6000fd5b505050506040513d601f19601f820116820180604052508101906114ea91906120e1565b9150508060000361154e5760405162461bcd60e51b815260206004820152602860248201527f4572726f7220557067726164654c6576656c526f626f743a20496e76616c6964604482015267081d1bdad95b925960c21b606482015260840161059d565b6002546040516311d5c6b560e01b8152600481018390526000916001600160a01b0316906311d5c6b590602401602060405180830381865afa158015611598573d6000803e3d6000fd5b505050506040513d601f19601f820116820180604052508101906115bc9190612093565b9050600a54811061161e5760405162461bcd60e51b815260206004820152602660248201527f4572726f7220557067726164654c6576656c526f626f743a20496e76616c6964604482015265081b195d995b60d21b606482015260840161059d565b6007600061162d8360016119b6565b8152602081019190915260409081016000205460035491516370a0823160e01b81526001600160a01b038681166004830152919291909116906370a0823190602401602060405180830381865afa15801561168c573d6000803e3d6000fd5b505050506040513d601f19601f820116820180604052508101906116b09190612093565b101561170f5760405162461bcd60e51b815260206004820152602860248201527f4572726f7220557067726164654c6576656c526f626f743a20496e76616c69646044820152672062616c616e636560c01b606482015260840161059d565b6003546001600160a01b03166323b872dd8430600760006117318760016119b6565b8152602081019190915260409081016000205490516001600160e01b031960e086901b1681526001600160a01b03938416600482015292909116602483015260448201526064016020604051808303816000875af1158015611797573d6000803e3d6000fd5b505050506040513d601f19601f820116820180604052508101906117bb919061217a565b506117ec600860006117ce8460016119b6565b815260200190815260200160002054436119b690919063ffffffff16565b60008381526005602052604090819020919091556002549051630d5c00ed60e11b8152600481018490526001600160a01b0390911690631ab801da90602401600060405180830381600087803b15801561184557600080fd5b505af1158015611859573d6000803e3d6000fd5b5050604080516001600160a01b0387168152602081018690529081018490527fd694a05dee33f4e29ddbd84025ef9db2c0282fc4c1a5840e08cc66936125304892506060019050611067565b6000546001600160a01b031633146105c85760405162461bcd60e51b815260206004820181905260248201527f4f776e61626c653a2063616c6c6572206973206e6f7420746865206f776e6572604482015260640161059d565b611907611e4d565b6000805460ff60a01b191690557f5db9ee0a495bf2e6ff9c91a7834c1ba4fdd244a5e8aa4e537bd38aeae4b073aa335b6040516001600160a01b03909116815260200160405180910390a1565b600054600160a01b900460ff16156105c85760405162461bcd60e51b815260206004820152601060248201526f14185d5cd8589b194e881c185d5cd95960821b604482015260640161059d565b60006119ad828461219c565b90505b92915050565b60006119ad82846121af565b600154604051635167aaef60e11b81526001600160a01b038481166004830152600092169063a2cf55de906024016040805180830381865afa158015611a0c573d6000803e3d6000fd5b505050506040513d601f19601f82011682018060405250810190611a3091906120e1565b6002546040516311d5c6b560e01b815260048101839052919350600092506001600160a01b0316906311d5c6b590602401602060405180830381865afa158015611a7e573d6000803e3d6000fd5b505050506040513d601f19601f82011682018060405250810190611aa29190612093565b600081815260096020526040902054909150611abe8482611dfe565b6003546040516370a0823160e01b81523060048201526001600160a01b03909116906370a0823190602401602060405180830381865afa158015611b06573d6000803e3d6000fd5b505050506040513d601f19601f82011682018060405250810190611b2a9190612093565b10611c0e576003546001600160a01b031663a9059cbb86611b4b8785611dfe565b6040516001600160e01b031960e085901b1681526001600160a01b03909216600483015260248201526044016020604051808303816000875af1158015611b96573d6000803e3d6000fd5b505050506040513d601f19601f82011682018060405250810190611bba919061217a565b507fa39a00ad9a4d838556ef2f0b9a443bad63c27c494e2442d56db77decf186625e85611be78684611dfe565b604080516001600160a01b03909316835260208301919091520160405180910390a1611da7565b6003546040516370a0823160e01b81523060048201526001600160a01b039091169063a9059cbb90879083906370a0823190602401602060405180830381865afa158015611c60573d6000803e3d6000fd5b505050506040513d601f19601f82011682018060405250810190611c849190612093565b6040516001600160e01b031960e085901b1681526001600160a01b03909216600483015260248201526044016020604051808303816000875af1158015611ccf573d6000803e3d6000fd5b505050506040513d601f19601f82011682018060405250810190611cf3919061217a565b506003546040516370a0823160e01b81523060048201527fa39a00ad9a4d838556ef2f0b9a443bad63c27c494e2442d56db77decf186625e9187916001600160a01b03909116906370a0823190602401602060405180830381865afa158015611d60573d6000803e3d6000fd5b505050506040513d601f19601f82011682018060405250810190611d849190612093565b604080516001600160a01b03909316835260208301919091520160405180910390a15b5050505050565b600080546001600160a01b038381166001600160a01b0319831681178455604051919092169283917f8be0079c531659141344cd1fd0a4f28419497f9722a3daafe3b4186f6b6457e09190a35050565b60006119ad82846121c2565b611e12611954565b6000805460ff60a01b1916600160a01b1790557f62e78cea01bee320cd4e420270b5ea74000d11b0c9f74754ebdbfc544b05a2586119373390565b600054600160a01b900460ff166105c85760405162461bcd60e51b815260206004820152601460248201527314185d5cd8589b194e881b9bdd081c185d5cd95960621b604482015260640161059d565b600060208284031215611eaf57600080fd5b5035919050565b60008060408385031215611ec957600080fd5b50508035926020909101359150565b6001600160a01b038116811461133457600080fd5b634e487b7160e01b600052604160045260246000fd5b60008060008060808587031215611f1957600080fd5b8435611f2481611ed8565b93506020850135611f3481611ed8565b925060408501359150606085013567ffffffffffffffff80821115611f5857600080fd5b818701915087601f830112611f6c57600080fd5b813581811115611f7e57611f7e611eed565b604051601f8201601f19908116603f01168101908382118183101715611fa657611fa6611eed565b816040528281528a6020848701011115611fbf57600080fd5b82602086016020830137600060208483010152809550505050505092959194509250565b600060208284031215611ff557600080fd5b813561200081611ed8565b9392505050565b600081518084526020808501945080840160005b838110156120375781518752958201959082019060010161201b565b509495945050505050565b85815260a06020820152600061205b60a0830187612007565b85604084015282810360608401526120738186612007565b905082810360808401526120878185612007565b98975050505050505050565b6000602082840312156120a557600080fd5b5051919050565b6020808252818101527f4572726f723a20496e76616964204865726f4e4654206a6f696e2067616d652e604082015260600190565b600080604083850312156120f457600080fd5b505080516020909101519092909150565b60208082526016908201527522b93937b91d102937b137ba103ab833b930b232b21760511b604082015260600190565b634e487b7160e01b600052603260045260246000fd5b634e487b7160e01b600052601160045260246000fd5b6000600182016121735761217361214b565b5060010190565b60006020828403121561218c57600080fd5b8151801515811461200057600080fd5b818103818111156119b0576119b061214b565b808201808211156119b0576119b061214b565b80820281158282048414176119b0576119b061214b56fea2646970667358221220f6d56c3d55b1507e5cdc226cefd28175b0cda434da47a8218ad2e2e820507c5464736f6c63430008110033",
  "immutableReferences": {},
  "source": "// SPDX-License-Identifier: MIT\npragma solidity ^0.8.0;\n\nimport \"./interfaces/IGameController.sol\";\nimport \"@openzeppelin/contracts/utils/math/SafeMath.sol\";\nimport \"@openzeppelin/contracts/access/Ownable.sol\";\nimport \"@openzeppelin/contracts/security/Pausable.sol\";\nimport \"@openzeppelin/contracts/token/ERC20/IERC20.sol\";\nimport \"@openzeppelin/contracts/token/ERC721/IERC721Receiver.sol\";\n\nimport \"./interfaces/IRobot.sol\";\n\ncontract Learning is Ownable, IERC721Receiver, Pausable\n{\n    using SafeMath for uint256;\n    IGameController public GameCotrollerContract;\n    IRobot public Robot;          // NFT learn\n    IERC20 public TokenReward;     // Reward\n\n    // stores the LearnData of each user.\n    mapping(address => LearnData) public DataUserLearn;\n\n    //stores the block number of the pending level upgrade for each robot NFT.\n    mapping(uint256 => uint256) public PendingBlockUpgradeLevelRobotNFT;\n\n    // config\n    \n    //number of blocks a user has to wait before they can remove their NFT from the game.\n    uint256 public DelayBlockRobotNFTOutGame;\n\n    //stores the price to upgrade each level of robot NFT.\n    mapping(uint256 => uint256) public PriceUpgradeLevelRobotNFT; \n\n    // stores the number of blocks needed to upgrade each level of robot NFT.\n    mapping(uint256 => uint256) public BlockUpgradeLevelRobotNFT; \n\n    //stores the reward for each block of learning based on the robot NFT level.\n    mapping(uint256 => uint256) public RewardPerBlockOfLevel;\n\n    // the maximum level of robot NFT that can join the game.\n    uint256 public MaxLevelOfRobotNFTInGame;\n\n    //the number of blocks a user has to wait before they can start learning again.\n    uint256 public DelayBlockLearnNextTime;\n\n    //the total number of blocks a user needs to learn to earn rewards.\n    uint256 public TotalBlockLearnEachTime;\n\n    // Event action\n    event OnUpgradeLevelRobot(address user, uint256 tokenId, uint256 level);\n    event OnStartLearn(address user, uint256 tokenId, uint256 level, uint256 startBlockLearn, uint256 pendingBlockLearn);\n    event OnStopLearn(address user, uint256 tokenId, uint256 level, uint256 totalBlockLearnEachTime, uint256 stopBlockLearn);\n    event OnBonusReward(address user, uint256 AmountTokenReward);\n\n    struct LearnData\n    {\n        bool Learning; //a boolean that indicates whether the user is currently in a learning session             \n        uint256 StartBlockLearn; //the block at which the user started the current learning session\n        uint256 StopBlockLearn; //the block at which the user stopped the current learning session\n        uint256 PendingBlockLearn; //the number of blocks remaining until the current learning session is complete\n    }\n\n    constructor(\n        IRobot robot,\n        IERC20 tokenReward)\n    {\n        Robot = robot;\n        TokenReward = tokenReward;\n        \n        // Test\n        DelayBlockRobotNFTOutGame = 50;\n        TotalBlockLearnEachTime = 30;       \n        DelayBlockLearnNextTime = 10;\n\n        PriceUpgradeLevelRobotNFT[0] = 0;\n        PriceUpgradeLevelRobotNFT[1] = 100e18;\n        PriceUpgradeLevelRobotNFT[2] = 200e18;\n        PriceUpgradeLevelRobotNFT[3] = 300e18;\n\n        BlockUpgradeLevelRobotNFT[0] = 0;\n        BlockUpgradeLevelRobotNFT[1] = 100;\n        BlockUpgradeLevelRobotNFT[2] = 200;\n        BlockUpgradeLevelRobotNFT[3] = 300;\n\n        RewardPerBlockOfLevel[0] = 5e17;\n        RewardPerBlockOfLevel[1] = 1e18;\n        RewardPerBlockOfLevel[2] = 2e18;\n        RewardPerBlockOfLevel[3] = 3e18;\n\n        MaxLevelOfRobotNFTInGame = 3;\n    }\n\n    modifier isHeroNFTJoinGame()\n    {\n        address user = _msgSender();\n        require(GameCotrollerContract.HeroNFTJoinGameOfUser(user) != 0, \"Error: Invaid HeroNFT join game.\");\n        _;\n    }\n\n    modifier isNotUpgradeRobot()\n    {\n        address user = _msgSender();\n        (,uint256 robotId) = GameCotrollerContract.RobotNFTJoinGameOfUser(user);\n        require(block.number > PendingBlockUpgradeLevelRobotNFT[robotId], \"Error: Robot upgraded.\");\n        _;\n    }\n\n    function onERC721Received(address, address, uint256, bytes memory) public virtual override returns (bytes4) \n    {\n        return this.onERC721Received.selector;\n    }\n\n    // owner acction\n    function PauseSystem() public onlyOwner \n    {\n        _pause();\n    }\n\n    function UnpauseSystem() public onlyOwner\n    {\n        _unpause();\n    }\n\n    function SetGameCotrollerContract(IGameController gameCotrollerContract) public onlyOwner \n    {\n        GameCotrollerContract = gameCotrollerContract;\n    }\n\n    function SetRobot(IRobot robot)public onlyOwner \n    {\n        Robot = robot;\n    }\n\n    function SetTokenReward(IERC20 tokenReward) public onlyOwner\n    {\n        TokenReward = tokenReward;\n    }\n\n    function SetDelayBlockRobotNFTOutGame(uint256 value) public onlyOwner \n    {\n        DelayBlockRobotNFTOutGame = value;\n    }\n\n    function SetMaxLevelOfRobotNFTinGame(uint256 maxLevelOfRobotNFTinGame) public onlyOwner \n    {\n        MaxLevelOfRobotNFTInGame = maxLevelOfRobotNFTinGame;\n    }\n\n    function SetTotalBlockLearnEachTime(uint256 totalBlockLearnEachTime) public onlyOwner\n    {\n        TotalBlockLearnEachTime = totalBlockLearnEachTime;\n    }\n\n    function SetRewardPerBlockOfLevel(uint256 level, uint256 value) public onlyOwner \n    {\n        require(level <= MaxLevelOfRobotNFTInGame, \"Invalid max level\");\n        RewardPerBlockOfLevel[level] = value;\n    }\n\n    function SetPriceUpgradeLevelRobotNFT(uint256 level, uint256 price) public onlyOwner\n    {\n        require(level <= MaxLevelOfRobotNFTInGame,  \"Error SetPriceUpgradeLevelRobotNFT: Invalid level\");\n        PriceUpgradeLevelRobotNFT[level] = price;\n    }\n\n    function SetBlockUpgradeLevelRobotNFT(uint256 level, uint256 quantityBlock) public onlyOwner\n    {\n        require(level <= MaxLevelOfRobotNFTInGame,  \"Error SetBlockUpgradeLevelRobotNFT: Invalid level\");\n        BlockUpgradeLevelRobotNFT[level] = quantityBlock;\n    }\n\n    //user action\n    function UpgradeLevelRobot() public whenNotPaused isHeroNFTJoinGame isNotUpgradeRobot\n    {\n        address user = msg.sender;\n        (,uint256 tokenId) = GameCotrollerContract.RobotNFTJoinGameOfUser(user);\n        require(tokenId != 0, \"Error UpgradeLevelRobot: Invalid tokenId\");\n\n        uint256 level = Robot.Level(tokenId);\n        require(level < MaxLevelOfRobotNFTInGame, \"Error UpgradeLevelRobot: Invalid level\");\n        require(TokenReward.balanceOf(user) >= PriceUpgradeLevelRobotNFT[level.add(1)], \"Error UpgradeLevelRobot: Invalid balance\");\n        \n        TokenReward.transferFrom(user, address(this), PriceUpgradeLevelRobotNFT[level.add(1)]);\n\n        PendingBlockUpgradeLevelRobotNFT[tokenId] = block.number.add(BlockUpgradeLevelRobotNFT[level.add(1)]);\n        Robot.UpgradeLevel(tokenId);\n        emit OnUpgradeLevelRobot(user, tokenId, level);\n    }\n\n    function ForRobotNFTToLearn() public whenNotPaused isHeroNFTJoinGame isNotUpgradeRobot\n    {\n        address user = msg.sender;\n        (,uint256 tokenId) = GameCotrollerContract.RobotNFTJoinGameOfUser(user);\n        require(tokenId != 0, \"Error StartLearning: Invalid tokenId\");\n        require(Robot.Level(tokenId) > 0, \"Error: Robot Level is 0\");\n\n        LearnData storage data = DataUserLearn[user]; \n        require(data.StartBlockLearn < block.number, \"Error StartLearning: Time out\");\n        require(data.Learning == false, \"Error StartLearning: Learning\");\n\n        if(data.PendingBlockLearn == 0)\n        {\n            data.PendingBlockLearn = TotalBlockLearnEachTime;\n        }\n\n        data.StartBlockLearn = block.number;\n        data.Learning = true;\n\n        emit OnStartLearn(user, tokenId, Robot.Level(tokenId), data.StartBlockLearn, data.PendingBlockLearn);\n    }\n\n    function ForRobotNFTStopLearn() public whenNotPaused isHeroNFTJoinGame isNotUpgradeRobot\n    {\n        address user = msg.sender;\n\n        LearnData storage data = DataUserLearn[user]; \n        require(data.Learning == true, \"Error StopLearning: Not learning\");\n\n        uint256 totalBlockLearnedOfUser = block.number.sub(data.StartBlockLearn);\n        if(totalBlockLearnedOfUser >= data.PendingBlockLearn)\n        {\n            totalBlockLearnedOfUser = data.PendingBlockLearn;\n\n            data.StartBlockLearn = block.number.add(DelayBlockLearnNextTime);\n            data.PendingBlockLearn = 0;\n        }\n        else\n        {\n            data.PendingBlockLearn = data.PendingBlockLearn.sub(totalBlockLearnedOfUser);\n        }\n        data.Learning = false;\n        data.StopBlockLearn = block.number;\n\n        DoBonusToken(user, totalBlockLearnedOfUser);\n    }\n\n    function GetData(address user) public view returns(\n        uint256 cyberCreditBalance,\n        uint256 tokenId,\n        uint256 levelRobotJoinGameOfUser,\n        uint256 blockNumber,\n        bool learning,\n        uint256 startBlockLearn,\n        uint256 stopBlockLearn,\n        uint256 pendingBlockLearn,\n        uint256 rewardPerDay,\n        uint256 pendingBlockUpgradeLevelRobotNFT\n    )\n    {\n        cyberCreditBalance = TokenReward.balanceOf(user);\n        (,tokenId) = GameCotrollerContract.RobotNFTJoinGameOfUser(user);\n        \n        levelRobotJoinGameOfUser = Robot.Level(tokenId);\n        blockNumber = block.number;\n\n        LearnData memory data = DataUserLearn[user];\n        learning = data.Learning;\n        startBlockLearn = data.StartBlockLearn;\n        pendingBlockLearn = data.PendingBlockLearn;\n        stopBlockLearn = data.StopBlockLearn;\n\n        if(pendingBlockLearn != 0) \n        {\n            uint256 totalBlockLearned = TotalBlockLearnEachTime.sub(pendingBlockLearn);\n            uint256 totalBlockLearnEachTimeing = blockNumber.sub(startBlockLearn);\n\n            rewardPerDay = (startBlockLearn < stopBlockLearn) ?\n                totalBlockLearned.mul(RewardPerBlockOfLevel[levelRobotJoinGameOfUser]) :\n                    ((totalBlockLearned.add(totalBlockLearnEachTimeing))\n                        .mul(RewardPerBlockOfLevel[levelRobotJoinGameOfUser]) <\n                        TotalBlockLearnEachTime.mul(RewardPerBlockOfLevel[levelRobotJoinGameOfUser])) ? \n                            (totalBlockLearned.add(totalBlockLearnEachTimeing))\n                            .mul(RewardPerBlockOfLevel[levelRobotJoinGameOfUser]) :\n                                TotalBlockLearnEachTime.mul(RewardPerBlockOfLevel[levelRobotJoinGameOfUser]);\n        }\n\n        pendingBlockUpgradeLevelRobotNFT  = PendingBlockUpgradeLevelRobotNFT[tokenId];\n        \n    }\n\n    function GetConfigSystem() public view returns(\n        uint256 maxLevelOfRobotNFTinGame,\n        uint256[] memory priceUpgradeLevelRobotNFTLevel,\n        uint256 totalBlockLearnEachTime,\n        uint256[] memory rewardPerBlockOfLevel,\n        uint256[] memory blockUpgradeLevelRobotNFT\n    )\n    {\n        maxLevelOfRobotNFTinGame = MaxLevelOfRobotNFTInGame;\n\n        priceUpgradeLevelRobotNFTLevel = new uint256[](maxLevelOfRobotNFTinGame.add(1));\n        for(uint level = 1; level <= maxLevelOfRobotNFTinGame; level++)\n        {\n            priceUpgradeLevelRobotNFTLevel[level] = PriceUpgradeLevelRobotNFT[level]; \n        }\n\n        totalBlockLearnEachTime = TotalBlockLearnEachTime;\n\n        rewardPerBlockOfLevel = new uint256[](maxLevelOfRobotNFTinGame.add(1));\n        for(uint level = 0; level <= maxLevelOfRobotNFTinGame; level++)\n        {\n            rewardPerBlockOfLevel[level] = RewardPerBlockOfLevel[level];\n        }\n\n        blockUpgradeLevelRobotNFT = new uint256[](maxLevelOfRobotNFTinGame.add(1));\n        for(uint level = 0; level <= maxLevelOfRobotNFTinGame; level++)\n        {\n            blockUpgradeLevelRobotNFT[level] = BlockUpgradeLevelRobotNFT[level];\n        }\n    }\n\n    function DoBonusToken(address user, uint256 totalBlockLearned) private\n    {\n        (,uint256 tokenId) = GameCotrollerContract.RobotNFTJoinGameOfUser(user);\n        uint256 level = Robot.Level(tokenId);\n        uint256 rewardPerBlock = RewardPerBlockOfLevel[level];\n        if(TokenReward.balanceOf(address(this)) >= totalBlockLearned.mul(rewardPerBlock))\n        {\n            TokenReward.transfer(user, totalBlockLearned.mul(rewardPerBlock));\n\n            emit OnBonusReward(user, totalBlockLearned.mul(rewardPerBlock));\n        }\n        else\n        {\n            TokenReward.transfer(user, TokenReward.balanceOf(address(this)));\n\n            emit OnBonusReward(user, TokenReward.balanceOf(address(this)));\n        }\n    }  \n}",
  "sourcePath": "/Applications/projects/garbi-contracts/contracts/Learning.sol",
  "compiler": {
    "name": "solc",
    "version": "0.8.17+commit.8df45f5f.Emscripten.clang"
  },
  "schemaVersion": "3.4.11",
  "updatedAt": "2023-03-28T03:42:57.605Z",
  "networkType": "ethereum",
  "devdoc": {
    "kind": "dev",
    "methods": {
      "owner()": {
        "details": "Returns the address of the current owner."
      },
      "paused()": {
        "details": "Returns true if the contract is paused, and false otherwise."
      },
      "renounceOwnership()": {
        "details": "Leaves the contract without owner. It will not be possible to call `onlyOwner` functions anymore. Can only be called by the current owner. NOTE: Renouncing ownership will leave the contract without an owner, thereby removing any functionality that is only available to the owner."
      },
      "transferOwnership(address)": {
        "details": "Transfers ownership of the contract to a new account (`newOwner`). Can only be called by the current owner."
      }
    },
    "version": 1
  },
  "userdoc": {
    "kind": "user",
    "methods": {},
    "version": 1
  }
}