{
  "contractName": "Learning",
  "abi": [
    {
      "inputs": [
        {
          "internalType": "contract IRobot",
          "name": "robot",
          "type": "address"
        },
        {
          "internalType": "contract IERC20",
          "name": "tokenReward",
          "type": "address"
        }
      ],
      "stateMutability": "nonpayable",
      "type": "constructor"
    },
    {
      "anonymous": false,
      "inputs": [
        {
          "indexed": false,
          "internalType": "address",
          "name": "user",
          "type": "address"
        },
        {
          "indexed": false,
          "internalType": "uint256",
          "name": "AmountTokenReward",
          "type": "uint256"
        }
      ],
      "name": "OnBonusReward",
      "type": "event"
    },
    {
      "anonymous": false,
      "inputs": [
        {
          "indexed": false,
          "internalType": "address",
          "name": "user",
          "type": "address"
        },
        {
          "indexed": false,
          "internalType": "uint256",
          "name": "tokenId",
          "type": "uint256"
        },
        {
          "indexed": false,
          "internalType": "uint256",
          "name": "level",
          "type": "uint256"
        }
      ],
      "name": "OnConfirmUpgrateLevelRobot",
      "type": "event"
    },
    {
      "anonymous": false,
      "inputs": [
        {
          "indexed": false,
          "internalType": "address",
          "name": "user",
          "type": "address"
        },
        {
          "indexed": false,
          "internalType": "uint256",
          "name": "tokenId",
          "type": "uint256"
        }
      ],
      "name": "OnJoinGame",
      "type": "event"
    },
    {
      "anonymous": false,
      "inputs": [
        {
          "indexed": false,
          "internalType": "address",
          "name": "user",
          "type": "address"
        },
        {
          "indexed": false,
          "internalType": "uint256",
          "name": "tokenId",
          "type": "uint256"
        }
      ],
      "name": "OnOutGame",
      "type": "event"
    },
    {
      "anonymous": false,
      "inputs": [
        {
          "indexed": false,
          "internalType": "address",
          "name": "user",
          "type": "address"
        },
        {
          "indexed": false,
          "internalType": "uint256",
          "name": "tokenId",
          "type": "uint256"
        },
        {
          "indexed": false,
          "internalType": "uint256",
          "name": "level",
          "type": "uint256"
        },
        {
          "indexed": false,
          "internalType": "uint256",
          "name": "startBlockLearn",
          "type": "uint256"
        },
        {
          "indexed": false,
          "internalType": "uint256",
          "name": "pendingBlockLearn",
          "type": "uint256"
        }
      ],
      "name": "OnStartLearn",
      "type": "event"
    },
    {
      "anonymous": false,
      "inputs": [
        {
          "indexed": false,
          "internalType": "address",
          "name": "user",
          "type": "address"
        },
        {
          "indexed": false,
          "internalType": "uint256",
          "name": "tokenId",
          "type": "uint256"
        },
        {
          "indexed": false,
          "internalType": "uint256",
          "name": "level",
          "type": "uint256"
        },
        {
          "indexed": false,
          "internalType": "uint256",
          "name": "totalBlockLearn",
          "type": "uint256"
        },
        {
          "indexed": false,
          "internalType": "uint256",
          "name": "stopBlockLearn",
          "type": "uint256"
        }
      ],
      "name": "OnStopLearn",
      "type": "event"
    },
    {
      "anonymous": false,
      "inputs": [
        {
          "indexed": false,
          "internalType": "address",
          "name": "user",
          "type": "address"
        },
        {
          "indexed": false,
          "internalType": "uint256",
          "name": "tokenId",
          "type": "uint256"
        },
        {
          "indexed": false,
          "internalType": "uint256",
          "name": "level",
          "type": "uint256"
        }
      ],
      "name": "OnUpgrateLevelRobot",
      "type": "event"
    },
    {
      "anonymous": false,
      "inputs": [
        {
          "indexed": true,
          "internalType": "address",
          "name": "previousOwner",
          "type": "address"
        },
        {
          "indexed": true,
          "internalType": "address",
          "name": "newOwner",
          "type": "address"
        }
      ],
      "name": "OwnershipTransferred",
      "type": "event"
    },
    {
      "inputs": [
        {
          "internalType": "uint256",
          "name": "",
          "type": "uint256"
        }
      ],
      "name": "BlockUpgrate",
      "outputs": [
        {
          "internalType": "uint256",
          "name": "",
          "type": "uint256"
        }
      ],
      "stateMutability": "view",
      "type": "function",
      "constant": true
    },
    {
      "inputs": [
        {
          "internalType": "address",
          "name": "",
          "type": "address"
        }
      ],
      "name": "DataUserLearn",
      "outputs": [
        {
          "internalType": "uint256",
          "name": "StartBlockLearn",
          "type": "uint256"
        },
        {
          "internalType": "uint256",
          "name": "StopBlockLearn",
          "type": "uint256"
        },
        {
          "internalType": "uint256",
          "name": "PendingBlockLearn",
          "type": "uint256"
        }
      ],
      "stateMutability": "view",
      "type": "function",
      "constant": true
    },
    {
      "inputs": [],
      "name": "DelayBlockLearn",
      "outputs": [
        {
          "internalType": "uint256",
          "name": "",
          "type": "uint256"
        }
      ],
      "stateMutability": "view",
      "type": "function",
      "constant": true
    },
    {
      "inputs": [],
      "name": "EnableSystem",
      "outputs": [
        {
          "internalType": "bool",
          "name": "",
          "type": "bool"
        }
      ],
      "stateMutability": "view",
      "type": "function",
      "constant": true
    },
    {
      "inputs": [],
      "name": "MaxLevel",
      "outputs": [
        {
          "internalType": "uint256",
          "name": "",
          "type": "uint256"
        }
      ],
      "stateMutability": "view",
      "type": "function",
      "constant": true
    },
    {
      "inputs": [
        {
          "internalType": "uint256",
          "name": "",
          "type": "uint256"
        }
      ],
      "name": "PendingBlockUpgrate",
      "outputs": [
        {
          "internalType": "uint256",
          "name": "",
          "type": "uint256"
        }
      ],
      "stateMutability": "view",
      "type": "function",
      "constant": true
    },
    {
      "inputs": [
        {
          "internalType": "uint256",
          "name": "",
          "type": "uint256"
        }
      ],
      "name": "PriceUpgrate",
      "outputs": [
        {
          "internalType": "uint256",
          "name": "",
          "type": "uint256"
        }
      ],
      "stateMutability": "view",
      "type": "function",
      "constant": true
    },
    {
      "inputs": [
        {
          "internalType": "uint256",
          "name": "",
          "type": "uint256"
        }
      ],
      "name": "RewardPerBlockOfLevel",
      "outputs": [
        {
          "internalType": "uint256",
          "name": "",
          "type": "uint256"
        }
      ],
      "stateMutability": "view",
      "type": "function",
      "constant": true
    },
    {
      "inputs": [],
      "name": "Robot",
      "outputs": [
        {
          "internalType": "contract IRobot",
          "name": "",
          "type": "address"
        }
      ],
      "stateMutability": "view",
      "type": "function",
      "constant": true
    },
    {
      "inputs": [
        {
          "internalType": "address",
          "name": "",
          "type": "address"
        }
      ],
      "name": "RobotJoin",
      "outputs": [
        {
          "internalType": "uint256",
          "name": "",
          "type": "uint256"
        }
      ],
      "stateMutability": "view",
      "type": "function",
      "constant": true
    },
    {
      "inputs": [],
      "name": "TokenReward",
      "outputs": [
        {
          "internalType": "contract IERC20",
          "name": "",
          "type": "address"
        }
      ],
      "stateMutability": "view",
      "type": "function",
      "constant": true
    },
    {
      "inputs": [],
      "name": "TotalBlockLearn",
      "outputs": [
        {
          "internalType": "uint256",
          "name": "",
          "type": "uint256"
        }
      ],
      "stateMutability": "view",
      "type": "function",
      "constant": true
    },
    {
      "inputs": [],
      "name": "owner",
      "outputs": [
        {
          "internalType": "address",
          "name": "",
          "type": "address"
        }
      ],
      "stateMutability": "view",
      "type": "function",
      "constant": true
    },
    {
      "inputs": [],
      "name": "renounceOwnership",
      "outputs": [],
      "stateMutability": "nonpayable",
      "type": "function"
    },
    {
      "inputs": [
        {
          "internalType": "address",
          "name": "newOwner",
          "type": "address"
        }
      ],
      "name": "transferOwnership",
      "outputs": [],
      "stateMutability": "nonpayable",
      "type": "function"
    },
    {
      "inputs": [
        {
          "internalType": "address",
          "name": "",
          "type": "address"
        },
        {
          "internalType": "address",
          "name": "",
          "type": "address"
        },
        {
          "internalType": "uint256",
          "name": "",
          "type": "uint256"
        },
        {
          "internalType": "bytes",
          "name": "",
          "type": "bytes"
        }
      ],
      "name": "onERC721Received",
      "outputs": [
        {
          "internalType": "bytes4",
          "name": "",
          "type": "bytes4"
        }
      ],
      "stateMutability": "nonpayable",
      "type": "function"
    },
    {
      "inputs": [],
      "name": "SetPauseSystem",
      "outputs": [],
      "stateMutability": "nonpayable",
      "type": "function"
    },
    {
      "inputs": [],
      "name": "SetEnableSystem",
      "outputs": [],
      "stateMutability": "nonpayable",
      "type": "function"
    },
    {
      "inputs": [
        {
          "internalType": "uint256",
          "name": "maxLevel",
          "type": "uint256"
        }
      ],
      "name": "SetMaxLevel",
      "outputs": [],
      "stateMutability": "nonpayable",
      "type": "function"
    },
    {
      "inputs": [
        {
          "internalType": "uint256",
          "name": "totalBlockLearn",
          "type": "uint256"
        }
      ],
      "name": "SetTotalBlockLearn",
      "outputs": [],
      "stateMutability": "nonpayable",
      "type": "function"
    },
    {
      "inputs": [
        {
          "internalType": "uint256",
          "name": "level",
          "type": "uint256"
        },
        {
          "internalType": "uint256",
          "name": "value",
          "type": "uint256"
        }
      ],
      "name": "SetRewardPerBlockOfLevel",
      "outputs": [],
      "stateMutability": "nonpayable",
      "type": "function"
    },
    {
      "inputs": [
        {
          "internalType": "uint256",
          "name": "level",
          "type": "uint256"
        },
        {
          "internalType": "uint256",
          "name": "price",
          "type": "uint256"
        }
      ],
      "name": "SetPriceUpgrate",
      "outputs": [],
      "stateMutability": "nonpayable",
      "type": "function"
    },
    {
      "inputs": [
        {
          "internalType": "uint256",
          "name": "level",
          "type": "uint256"
        },
        {
          "internalType": "uint256",
          "name": "quantityBlock",
          "type": "uint256"
        }
      ],
      "name": "SetBlockUpgrate",
      "outputs": [],
      "stateMutability": "nonpayable",
      "type": "function"
    },
    {
      "inputs": [
        {
          "internalType": "uint256",
          "name": "tokenId",
          "type": "uint256"
        }
      ],
      "name": "JoinGame",
      "outputs": [],
      "stateMutability": "nonpayable",
      "type": "function"
    },
    {
      "inputs": [],
      "name": "OutGame",
      "outputs": [],
      "stateMutability": "nonpayable",
      "type": "function"
    },
    {
      "inputs": [],
      "name": "UpgrateLevelRobot",
      "outputs": [],
      "stateMutability": "nonpayable",
      "type": "function"
    },
    {
      "inputs": [],
      "name": "ConfirmUpgrateLevelRobot",
      "outputs": [],
      "stateMutability": "nonpayable",
      "type": "function"
    },
    {
      "inputs": [],
      "name": "StartLearn",
      "outputs": [],
      "stateMutability": "nonpayable",
      "type": "function"
    },
    {
      "inputs": [],
      "name": "StopLearn",
      "outputs": [],
      "stateMutability": "nonpayable",
      "type": "function"
    },
    {
      "inputs": [
        {
          "internalType": "address",
          "name": "user",
          "type": "address"
        }
      ],
      "name": "GetData",
      "outputs": [
        {
          "internalType": "uint256",
          "name": "cyberCreditBalance",
          "type": "uint256"
        },
        {
          "internalType": "uint256",
          "name": "tokenId",
          "type": "uint256"
        },
        {
          "internalType": "uint256",
          "name": "levelRobotJoin",
          "type": "uint256"
        },
        {
          "internalType": "uint256",
          "name": "blockNumber",
          "type": "uint256"
        },
        {
          "internalType": "uint256",
          "name": "startBlockLearn",
          "type": "uint256"
        },
        {
          "internalType": "uint256",
          "name": "stopBlockLearn",
          "type": "uint256"
        },
        {
          "internalType": "uint256",
          "name": "pendingBlockLearn",
          "type": "uint256"
        },
        {
          "internalType": "uint256",
          "name": "rewardPerDay",
          "type": "uint256"
        },
        {
          "internalType": "uint256",
          "name": "remainingBlockUpgrate",
          "type": "uint256"
        }
      ],
      "stateMutability": "view",
      "type": "function",
      "constant": true
    },
    {
      "inputs": [],
      "name": "GetConfigSystem",
      "outputs": [
        {
          "internalType": "uint256",
          "name": "maxLevel",
          "type": "uint256"
        },
        {
          "internalType": "uint256[]",
          "name": "priceUpgrateLevel",
          "type": "uint256[]"
        },
        {
          "internalType": "uint256",
          "name": "totalBlockLearn",
          "type": "uint256"
        },
        {
          "internalType": "uint256[]",
          "name": "rewardPerBlockOfLevel",
          "type": "uint256[]"
        },
        {
          "internalType": "uint256[]",
          "name": "pendingBlockUpgrate",
          "type": "uint256[]"
        }
      ],
      "stateMutability": "view",
      "type": "function",
      "constant": true
    }
  ],
  "bytecode": "0x60806040523480156200001157600080fd5b5060405162002386380380620023868339810160408190526200003491620002e8565b6200003f336200027f565b600180546001600160a01b039384166001600160a01b031991821617825560028054939094169216919091179091556006805460ff19169091179055601e600b55600a805560007f6d5257204ebe7d88fd91ae87941cb2dd9d8062b64ae5a2bd2d28ec40b9fbf6df81905568056bc75e2d631000007fb39221ace053465ec3453ce2b36430bd138b997ecea25c1043da0c366812b82855680ad78ebc5ac62000007fb7c774451310d1be4108bc180d1b52823cb0ee0274a6c0081bcaf94f115fb96d55681043561a88293000007f3be6fd20d5acfde5b873b48692cd31f4d3c7e8ee8a813af4696af8859e5ca6c6557f5eff886ea0ce6ca488a3d6e336d6c0f75f46d19b42c06ce5ee98e42c96d256c781905560647fad67d757c34507f157cacfa2e3153e9f260a2244f30428821be7be64587ac55f5560c87f6add646517a5b0f6793cd5891b7937d28a5b2981a5d88ebc7cd776088fea90415561012c7f625b35f5e76f098dd7c3a05b10e2e5e78a4a01228d60c3b143426cdf36d2645555600c6020526706f05b59d3b200007f13649b2456f1b42fef0f0040b3aaeabcd21a76a0f3f5defd4f583839455116e855670de0b6b3a76400007fd421a5181c571bba3f01190c922c3b2a896fc1d84e86c9f17ac10e67ebef8b5c55671bc16d674ec800007f5d6016397a73f5e079297ac5a36fef17b4d9c3831618e63ab105738020ddd720556003908190526729a2241af62c00007fc0da782485e77ae272268ae0a3ff44c1552ecb60b3743924de17a815e0a3cfd75560095562000327565b600080546001600160a01b038381166001600160a01b0319831681178455604051919092169283917f8be0079c531659141344cd1fd0a4f28419497f9722a3daafe3b4186f6b6457e09190a35050565b6001600160a01b0381168114620002e557600080fd5b50565b60008060408385031215620002fc57600080fd5b82516200030981620002cf565b60208401519092506200031c81620002cf565b809150509250929050565b61204f80620003376000396000f3fe608060405234801561001057600080fd5b50600436106101e55760003560e01c8063980eb7081161010f578063d7724712116100a2578063f634d41a11610071578063f634d41a1461048e578063fa4b87c1146104ae578063fc295c3c146104c1578063ff5cd33d146104c957600080fd5b8063d77247121461043a578063eece7e7514610453578063f2fde38b1461045b578063f33aa45c1461046e57600080fd5b8063b6100187116100de578063b61001871461040e578063b66ad2c214610421578063c19416361461042a578063c259733d1461043257600080fd5b8063980eb708146103b55780639ea561bb146103c8578063a8bab862146103e8578063ab8ed71c146103f157600080fd5b80635eb28fb21161018757806376a4cdd91161015657806376a4cdd9146102fb5780637ea68973146103455780638da5cb5b1461034d57806391daf9131461035e57600080fd5b80635eb28fb2146102ad5780636eb640c5146102c05780636ebee4c0146102e0578063715018a6146102f357600080fd5b80633a821f9b116101c35780633a821f9b1461024357806340f6b1bc1461026e5780634c8c5e01146102855780634ee40f351461028d57600080fd5b8063150b7a02146101ea5780631ce9920314610226578063336f157814610230575b600080fd5b6102086101f8366004611d4d565b630a85bd0160e11b949350505050565b6040516001600160e01b031990911681526020015b60405180910390f35b61022e6104dc565b005b61022e61023e366004611e2d565b6104f3565b600254610256906001600160a01b031681565b6040516001600160a01b03909116815260200161021d565b61027760095481565b60405190815260200161021d565b61022e610558565b61027761029b366004611e4f565b60076020526000908152604090205481565b600154610256906001600160a01b031681565b6102776102ce366004611e4f565b60086020526000908152604090205481565b61022e6102ee366004611e2d565b610791565b61022e610809565b61032a610309366004611e68565b60036020526000908152604090208054600182015460029092015490919083565b6040805193845260208401929092529082015260600161021d565b61022e61081d565b6000546001600160a01b0316610256565b61037161036c366004611e68565b610bac565b60408051998a5260208a0198909852968801959095526060870193909352608086019190915260a085015260c084015260e08301526101008201526101200161021d565b61022e6103c3366004611e4f565b610dd3565b6102776103d6366004611e4f565b600c6020526000908152604090205481565b610277600a5481565b6006546103fe9060ff1681565b604051901515815260200161021d565b61022e61041c366004611e4f565b610de0565b610277600b5481565b61022e610fd6565b61022e610fea565b6104426111be565b60405161021d959493929190611ec7565b61022e6113a1565b61022e610469366004611e68565b61148e565b61027761047c366004611e4f565b60056020526000908152604090205481565b61027761049c366004611e68565b60046020526000908152604090205481565b61022e6104bc366004611e2d565b611507565b61022e61157f565b61022e6104d7366004611e4f565b6117ac565b6104e46117b9565b6006805460ff19166001179055565b6104fb6117b9565b6009548211156105465760405162461bcd60e51b8152602060048201526011602482015270125b9d985b1a59081b585e081b195d995b607a1b60448201526064015b60405180910390fd5b6000918252600c602052604090912055565b60065460ff16151560011461057f5760405162461bcd60e51b815260040161053d90611f18565b33600081815260046020526040812054908190036105e95760405162461bcd60e51b815260206004820152602160248201527f4572726f722053746172744c6561726e3a20496e76616c696420746f6b656e496044820152601960fa1b606482015260840161053d565b6001600160a01b0382166000908152600360205260409020805443116106515760405162461bcd60e51b815260206004820152601a60248201527f4572726f722053746172744c6561726e3a2054696d65206f7574000000000000604482015260640161053d565b6001810154815411156106a65760405162461bcd60e51b815260206004820152601a60248201527f4572726f722053746172744c6561726e3a204c6561726e696e67000000000000604482015260640161053d565b80600201546000036106bb57600b5460028201555b4381556001546040516311d5c6b560e01b8152600481018490527ff33b295ec158e555b8779f58b77f6a8adf4ff72795121eeea82689ad936a17e591859185916001600160a01b0316906311d5c6b590602401602060405180830381865afa15801561072b573d6000803e3d6000fd5b505050506040513d601f19601f8201168201806040525081019061074f9190611f3f565b84546002860154604080516001600160a01b0390961686526020860194909452928401919091526060830152608082015260a0015b60405180910390a1505050565b6107996117b9565b6009548211156107f75760405162461bcd60e51b8152602060048201526024808201527f4572726f7220536574426c6f636b557067726174653a20496e76616c6964206c604482015263195d995b60e21b606482015260840161053d565b60009182526008602052604090912055565b6108116117b9565b61081b6000611813565b565b60065460ff1615156001146108445760405162461bcd60e51b815260040161053d90611f18565b33600081815260046020526040812054908190036108b55760405162461bcd60e51b815260206004820152602860248201527f4572726f7220557067726174654c6576656c526f626f743a20496e76616c6964604482015267081d1bdad95b925960c21b606482015260840161053d565b6001546040516311d5c6b560e01b8152600481018390526000916001600160a01b0316906311d5c6b590602401602060405180830381865afa1580156108ff573d6000803e3d6000fd5b505050506040513d601f19601f820116820180604052508101906109239190611f3f565b905060095481106109855760405162461bcd60e51b815260206004820152602660248201527f4572726f7220557067726174654c6576656c526f626f743a20496e76616c6964604482015265081b195d995b60d21b606482015260840161053d565b60076000610994836001611863565b8152602081019190915260409081016000205460025491516370a0823160e01b81526001600160a01b038681166004830152919291909116906370a0823190602401602060405180830381865afa1580156109f3573d6000803e3d6000fd5b505050506040513d601f19601f82011682018060405250810190610a179190611f3f565b1015610a765760405162461bcd60e51b815260206004820152602860248201527f4572726f7220557067726174654c6576656c526f626f743a20496e76616c69646044820152672062616c616e636560c01b606482015260840161053d565b6002546001600160a01b03166323b872dd843060076000610a98876001611863565b8152602081019190915260409081016000205490516001600160e01b031960e086901b1681526001600160a01b03938416600482015292909116602483015260448201526064016020604051808303816000875af1158015610afe573d6000803e3d6000fd5b505050506040513d601f19601f82011682018060405250810190610b229190611f58565b50610b5360086000610b35846001611863565b8152602001908152602001600020544361186390919063ffffffff16565b6000838152600560209081526040918290209290925580516001600160a01b038616815291820184905281018290527ff6129d461bf2ab457e99905eab1fb1309a9754a7e9cb727c59a61317201de0fa90606001610784565b6002546040516370a0823160e01b81526001600160a01b03838116600483015260009283928392839283928392839283928392909116906370a0823190602401602060405180830381865afa158015610c09573d6000803e3d6000fd5b505050506040513d601f19601f82011682018060405250810190610c2d9190611f3f565b6001600160a01b038b81166000908152600460208190526040918290205460015492516311d5c6b560e01b8152918201819052939c50929a5016906311d5c6b590602401602060405180830381865afa158015610c8e573d6000803e3d6000fd5b505050506040513d601f19601f82011682018060405250810190610cb29190611f3f565b6001600160a01b038b166000908152600360205260409020805460028201546001830154939a504399509097509195509093508315610db157600b54600090610cfb9086611878565b90506000610d098989611878565b9050868810610d925760008a8152600c6020526040902054600b54610d2d91611884565b60008b8152600c6020526040902054610d5090610d4a8585611863565b90611884565b10610d755760008a8152600c6020526040902054600b54610d7091611884565b610dac565b60008a8152600c6020526040902054610d7090610d4a8484611863565b60008a8152600c6020526040902054610dac908390611884565b945050505b5050600087815260056020526040902054979996985094969395929491939092565b610ddb6117b9565b600955565b60065460ff161515600114610e075760405162461bcd60e51b815260040161053d90611f18565b6001546040516331a9108f60e11b81526004810183905233916001600160a01b031690636352211e90602401602060405180830381865afa158015610e50573d6000803e3d6000fd5b505050506040513d601f19601f82011682018060405250810190610e749190611f7a565b6001600160a01b031614610eca5760405162461bcd60e51b815260206004820152601d60248201527f4572726f72204a6f696e47616d653a20496e76616c696420746f6b656e000000604482015260640161053d565b610ed333611890565b1515600114610f1d5760405162461bcd60e51b81526020600482015260166024820152754572726f72204a6f696e47616d653a2072656d6f766560501b604482015260640161053d565b600154604051632142170760e11b8152336004820152306024820152604481018390526001600160a01b03909116906342842e0e90606401600060405180830381600087803b158015610f6f57600080fd5b505af1158015610f83573d6000803e3d6000fd5b505033600081815260046020908152604091829020869055815192835282018590527f7be4aa176d10b29beff5eb3472802589ecda04a24addff6db457290087f1d4ff935001905060405180910390a150565b610fde6117b9565b6006805460ff19169055565b60065460ff1615156001146110115760405162461bcd60e51b815260040161053d90611f18565b33600081815260036020526040902060018101548154116110745760405162461bcd60e51b815260206004820152601d60248201527f4572726f722053746f704c6561726e3a204e6f74206c6561726e696e67000000604482015260640161053d565b8054600090611084904390611878565b9050816002015481106110b357506002810154600a546110a5904390611863565b8255600060028301556110c8565b60028201546110c29082611878565b60028301555b436001838101919091556001600160a01b0384811660009081526004602081905260409182902054935491516311d5c6b560e01b81529081018490527f2becb0392d19dd57549d9a8719ca4d463ca947c7ea1517465894167e8e5a9856938793909216906311d5c6b590602401602060405180830381865afa158015611152573d6000803e3d6000fd5b505050506040513d601f19601f820116820180604052508101906111769190611f3f565b6001860154604080516001600160a01b03909516855260208501939093529183015260608201849052608082015260a00160405180910390a16111b98382611996565b505050565b6009546060600081806111d2856001611863565b67ffffffffffffffff8111156111ea576111ea611d37565b604051908082528060200260200182016040528015611213578160200160208202803683370190505b50935060015b85811161126057600081815260076020526040902054855186908390811061124357611243611f97565b60209081029190910101528061125881611fc3565b915050611219565b50600b549250611271856001611863565b67ffffffffffffffff81111561128957611289611d37565b6040519080825280602002602001820160405280156112b2578160200160208202803683370190505b50915060005b8581116112ff576000818152600c602052604090205483518490839081106112e2576112e2611f97565b6020908102919091010152806112f781611fc3565b9150506112b8565b5061130b856001611863565b67ffffffffffffffff81111561132357611323611d37565b60405190808252806020026020018201604052801561134c578160200160208202803683370190505b50905060005b85811161139957600081815260056020526040902054825183908390811061137c5761137c611f97565b60209081029190910101528061139181611fc3565b915050611352565b509091929394565b3360009081526004602052604090205461140c5760405162461bcd60e51b815260206004820152602660248201527f4572726f72204f757447616d653a20486176656e2774206a6f696e6564207468604482015265652067616d6560d01b606482015260840161053d565b33600081815260036020526040902060018101548154111561143057611430610fea565b61143933611890565b151560011461148a5760405162461bcd60e51b815260206004820152601a60248201527f4572726f72204f757447616d653a2072656d6f7665526f626f74000000000000604482015260640161053d565b5050565b6114966117b9565b6001600160a01b0381166114fb5760405162461bcd60e51b815260206004820152602660248201527f4f776e61626c653a206e6577206f776e657220697320746865207a65726f206160448201526564647265737360d01b606482015260840161053d565b61150481611813565b50565b61150f6117b9565b60095482111561156d5760405162461bcd60e51b8152602060048201526024808201527f4572726f72205365745072696365557067726174653a20496e76616c6964206c604482015263195d995b60e21b606482015260840161053d565b60009182526007602052604090912055565b60065460ff1615156001146115a65760405162461bcd60e51b815260040161053d90611f18565b336000818152600460209081526040808320548084526005909252909120546116225760405162461bcd60e51b815260206004820152602860248201527f4572726f7220436f6e6669726d557067726174654c6576656c526f626f743a2060448201526756616c696461746560c01b606482015260840161053d565b6000818152600560205260409020544310156116915760405162461bcd60e51b815260206004820152602860248201527f4572726f7220436f6e6669726d557067726174654c6576656c526f626f743a20604482015267151a5b59481bdd5d60c21b606482015260840161053d565b600154604051634ac6102360e11b8152600481018390526001600160a01b039091169063958c204690602401600060405180830381600087803b1580156116d757600080fd5b505af11580156116eb573d6000803e3d6000fd5b50506001546040516311d5c6b560e01b8152600481018590527f2143ec51ce63217223ec79381588bbba6897480594907382eadb7784eb42c12a935085925084916001600160a01b0316906311d5c6b590602401602060405180830381865afa15801561175c573d6000803e3d6000fd5b505050506040513d601f19601f820116820180604052508101906117809190611f3f565b604080516001600160a01b03909416845260208401929092529082015260600160405180910390a15050565b6117b46117b9565b600b55565b6000546001600160a01b0316331461081b5760405162461bcd60e51b815260206004820181905260248201527f4f776e61626c653a2063616c6c6572206973206e6f7420746865206f776e6572604482015260640161053d565b600080546001600160a01b038381166001600160a01b0319831681178455604051919092169283917f8be0079c531659141344cd1fd0a4f28419497f9722a3daafe3b4186f6b6457e09190a35050565b600061186f8284611fdc565b90505b92915050565b600061186f8284611fef565b600061186f8284612002565b6001600160a01b0381166000908152600460205260408120546118b557506001919050565b6001600160a01b03828116600081815260046020819052604091829020546001549251632142170760e11b81523092810192909252602482019390935260448101839052919216906342842e0e90606401600060405180830381600087803b15801561192057600080fd5b505af1158015611934573d6000803e3d6000fd5b505050506001600160a01b03831660009081526004602090815260408083209290925581513381529081018390527fe86a6823a30ab366554e6a4c423e2346f68fb635703de05730f33d0546b1ca94910160405180910390a150600192915050565b6001546001600160a01b0383811660009081526004602081905260408083205490516311d5c6b560e01b815291820152909291909116906311d5c6b590602401602060405180830381865afa1580156119f3573d6000803e3d6000fd5b505050506040513d601f19601f82011682018060405250810190611a179190611f3f565b6000818152600c6020526040902054909150611a338382611884565b6002546040516370a0823160e01b81523060048201526001600160a01b03909116906370a0823190602401602060405180830381865afa158015611a7b573d6000803e3d6000fd5b505050506040513d601f19601f82011682018060405250810190611a9f9190611f3f565b10611b83576002546001600160a01b031663a9059cbb85611ac08685611884565b6040516001600160e01b031960e085901b1681526001600160a01b03909216600483015260248201526044016020604051808303816000875af1158015611b0b573d6000803e3d6000fd5b505050506040513d601f19601f82011682018060405250810190611b2f9190611f58565b507fa39a00ad9a4d838556ef2f0b9a443bad63c27c494e2442d56db77decf186625e84611b5c8584611884565b604080516001600160a01b03909316835260208301919091520160405180910390a1611d1c565b6002546040516370a0823160e01b81523060048201526001600160a01b039091169063a9059cbb90869083906370a0823190602401602060405180830381865afa158015611bd5573d6000803e3d6000fd5b505050506040513d601f19601f82011682018060405250810190611bf99190611f3f565b6040516001600160e01b031960e085901b1681526001600160a01b03909216600483015260248201526044016020604051808303816000875af1158015611c44573d6000803e3d6000fd5b505050506040513d601f19601f82011682018060405250810190611c689190611f58565b506002546040516370a0823160e01b81523060048201527fa39a00ad9a4d838556ef2f0b9a443bad63c27c494e2442d56db77decf186625e9186916001600160a01b03909116906370a0823190602401602060405180830381865afa158015611cd5573d6000803e3d6000fd5b505050506040513d601f19601f82011682018060405250810190611cf99190611f3f565b604080516001600160a01b03909316835260208301919091520160405180910390a15b50505050565b6001600160a01b038116811461150457600080fd5b634e487b7160e01b600052604160045260246000fd5b60008060008060808587031215611d6357600080fd5b8435611d6e81611d22565b93506020850135611d7e81611d22565b925060408501359150606085013567ffffffffffffffff80821115611da257600080fd5b818701915087601f830112611db657600080fd5b813581811115611dc857611dc8611d37565b604051601f8201601f19908116603f01168101908382118183101715611df057611df0611d37565b816040528281528a6020848701011115611e0957600080fd5b82602086016020830137600060208483010152809550505050505092959194509250565b60008060408385031215611e4057600080fd5b50508035926020909101359150565b600060208284031215611e6157600080fd5b5035919050565b600060208284031215611e7a57600080fd5b8135611e8581611d22565b9392505050565b600081518084526020808501945080840160005b83811015611ebc57815187529582019590820190600101611ea0565b509495945050505050565b85815260a060208201526000611ee060a0830187611e8c565b8560408401528281036060840152611ef88186611e8c565b90508281036080840152611f0c8185611e8c565b98975050505050505050565b6020808252600d908201526c14de5cdd195b481c185d5cd959609a1b604082015260600190565b600060208284031215611f5157600080fd5b5051919050565b600060208284031215611f6a57600080fd5b81518015158114611e8557600080fd5b600060208284031215611f8c57600080fd5b8151611e8581611d22565b634e487b7160e01b600052603260045260246000fd5b634e487b7160e01b600052601160045260246000fd5b600060018201611fd557611fd5611fad565b5060010190565b8082018082111561187257611872611fad565b8181038181111561187257611872611fad565b808202811582820484141761187257611872611fad56fea2646970667358221220f07cfe7fbb4d31ce9f216d155654db799c94f62ffb0e9d40422eccd62c80bd3764736f6c63430008110033",
  "immutableReferences": {},
  "source": "// SPDX-License-Identifier: MIT\npragma solidity ^0.8.0;\n\nimport \"@openzeppelin/contracts/utils/math/SafeMath.sol\";\nimport \"@openzeppelin/contracts/access/Ownable.sol\";\nimport \"@openzeppelin/contracts/token/ERC20/IERC20.sol\";\nimport \"@openzeppelin/contracts/token/ERC721/IERC721Receiver.sol\";\n\nimport \"./interfaces/IRobot.sol\";\n\ncontract Learning is Ownable, IERC721Receiver\n{\n    using SafeMath for uint256;\n\n    IRobot public Robot;          // NFT learn\n    IERC20 public TokenReward;     // Reward\n\n    mapping(address => Learn) public DataUserLearn;\n    mapping(address => uint256) public RobotJoin;\n    mapping(uint256 => uint256) public PendingBlockUpgrate;\n    // config\n    bool public EnableSystem;\n\n    mapping(uint256 => uint256) public PriceUpgrate; \n    mapping(uint256 => uint256) public BlockUpgrate; \n    uint256 public MaxLevel;\n    uint256 public DelayBlockLearn;\n    uint256 public TotalBlockLearn;\n\n    mapping(uint256 => uint256) public RewardPerBlockOfLevel;\n\n    event OnJoinGame(address user, uint256 tokenId);\n    event OnOutGame(address user, uint256 tokenId);\n    event OnUpgrateLevelRobot(address user, uint256 tokenId, uint256 level);\n    event OnConfirmUpgrateLevelRobot(address user, uint256 tokenId, uint256 level);\n    event OnStartLearn(address user, uint256 tokenId, uint256 level, uint256 startBlockLearn, uint256 pendingBlockLearn);\n    event OnStopLearn(address user, uint256 tokenId, uint256 level, uint256 totalBlockLearn, uint256 stopBlockLearn);\n    event OnBonusReward(address user, uint256 AmountTokenReward);\n\n    modifier IsEnableSystem()\n    {\n        require(EnableSystem == true, \"System paused\");\n        _;\n    }\n    \n    struct Learn\n    {\n        uint256 StartBlockLearn;\n        uint256 StopBlockLearn;\n        uint256 PendingBlockLearn;\n    }\n\n    constructor(\n        IRobot robot,\n        IERC20 tokenReward)\n    {\n        Robot = robot;\n        TokenReward = tokenReward;\n\n        EnableSystem = true;\n        \n        // Test\n        TotalBlockLearn = 30;       \n        DelayBlockLearn = 10;\n\n        PriceUpgrate[0] = 0;\n        PriceUpgrate[1] = 100e18;\n        PriceUpgrate[2] = 200e18;\n        PriceUpgrate[3] = 300e18;\n\n        BlockUpgrate[0] = 0;\n        BlockUpgrate[1] = 100;\n        BlockUpgrate[2] = 200;\n        BlockUpgrate[3] = 300;\n\n        RewardPerBlockOfLevel[0] = 5e17;\n        RewardPerBlockOfLevel[1] = 1e18;\n        RewardPerBlockOfLevel[2] = 2e18;\n        RewardPerBlockOfLevel[3] = 3e18;\n\n        MaxLevel = 3;\n    }\n\n\n    function onERC721Received(address, address, uint256, bytes memory) public virtual override returns (bytes4) \n    {\n        return this.onERC721Received.selector;\n    }\n\n    // owner acction\n    function SetPauseSystem() public onlyOwner \n    {\n        EnableSystem = false;\n    }\n\n    function SetEnableSystem() public onlyOwner\n    {\n        EnableSystem = true;\n    }\n\n    function SetMaxLevel(uint256 maxLevel) public onlyOwner \n    {\n        MaxLevel = maxLevel;\n    }\n\n    function SetTotalBlockLearn(uint256 totalBlockLearn) public onlyOwner\n    {\n        TotalBlockLearn = totalBlockLearn;\n    }\n\n    function SetRewardPerBlockOfLevel(uint256 level, uint256 value) public onlyOwner \n    {\n        require(level <= MaxLevel, \"Invalid max level\");\n        RewardPerBlockOfLevel[level] = value;\n    }\n\n    function SetPriceUpgrate(uint256 level, uint256 price) public onlyOwner\n    {\n        require(level <= MaxLevel,  \"Error SetPriceUpgrate: Invalid level\");\n        PriceUpgrate[level] = price;\n    }\n\n    function SetBlockUpgrate(uint256 level, uint256 quantityBlock) public onlyOwner\n    {\n        require(level <= MaxLevel,  \"Error SetBlockUpgrate: Invalid level\");\n        BlockUpgrate[level] = quantityBlock;\n    }\n\n    function JoinGame(uint256 tokenId) public IsEnableSystem\n    {\n        require(Robot.ownerOf(tokenId) == msg.sender, \"Error JoinGame: Invalid token\");\n        require(removeRobot(msg.sender) == true, \"Error JoinGame: remove\");\n\n        Robot.safeTransferFrom(msg.sender, address(this), tokenId);\n\n        RobotJoin[msg.sender] = tokenId;\n\n        emit OnJoinGame(msg.sender, tokenId);\n    }\n\n    function OutGame() public \n    {\n        require(RobotJoin[msg.sender] > 0, \"Error OutGame: Haven't joined the game\");\n\n        address user = msg.sender;\n\n        Learn storage data = DataUserLearn[user]; \n        if (data.StartBlockLearn > data.StopBlockLearn) \n        {\n            StopLearn();\n        }\n        require(removeRobot(msg.sender) == true, \"Error OutGame: removeRobot\");\n    }\n\n    function UpgrateLevelRobot() public IsEnableSystem\n    {\n        address user = msg.sender;\n        uint256 tokenId = RobotJoin[user];\n        require(tokenId != 0, \"Error UpgrateLevelRobot: Invalid tokenId\");\n\n        uint256 level = Robot.Level(tokenId);\n        require(level < MaxLevel, \"Error UpgrateLevelRobot: Invalid level\");\n        require(TokenReward.balanceOf(user) >= PriceUpgrate[level.add(1)], \"Error UpgrateLevelRobot: Invalid balance\");\n        \n        TokenReward.transferFrom(user, address(this), PriceUpgrate[level.add(1)]);\n\n        PendingBlockUpgrate[tokenId] = block.number.add(BlockUpgrate[level.add(1)]);\n\n        emit OnUpgrateLevelRobot(user, tokenId, level);\n    }\n\n    function ConfirmUpgrateLevelRobot() public IsEnableSystem\n    {\n        address user = msg.sender;\n        uint256 tokenId = RobotJoin[user];\n        require(PendingBlockUpgrate[tokenId] > 0, \"Error ConfirmUpgrateLevelRobot: Validate\");\n        require(block.number >= PendingBlockUpgrate[tokenId], \"Error ConfirmUpgrateLevelRobot: Time out\");\n        Robot.UpgrateLevel(tokenId);\n\n        emit OnConfirmUpgrateLevelRobot(user, tokenId, Robot.Level(tokenId));\n    }\n\n    function StartLearn() public IsEnableSystem \n    {\n        address user = msg.sender;\n        uint256 tokenId = RobotJoin[user];\n        require(tokenId != 0, \"Error StartLearn: Invalid tokenId\");\n\n        Learn storage data = DataUserLearn[user]; \n        require(data.StartBlockLearn < block.number, \"Error StartLearn: Time out\");\n        require(data.StartBlockLearn <= data.StopBlockLearn, \"Error StartLearn: Learning\");\n\n        if(data.PendingBlockLearn == 0)\n        {\n            data.PendingBlockLearn = TotalBlockLearn;\n        }\n\n        data.StartBlockLearn = block.number;\n\n        emit OnStartLearn(user, tokenId, Robot.Level(tokenId), data.StartBlockLearn, data.PendingBlockLearn);\n    }\n\n    function StopLearn() public IsEnableSystem\n    {\n        address user = msg.sender;\n\n        Learn storage data = DataUserLearn[user]; \n        require(data.StartBlockLearn > data.StopBlockLearn, \"Error StopLearn: Not learning\");\n\n        uint256 totalBlockLearnedOfUser = block.number.sub(data.StartBlockLearn);\n        if(totalBlockLearnedOfUser >= data.PendingBlockLearn)\n        {\n            totalBlockLearnedOfUser = data.PendingBlockLearn;\n\n            data.StartBlockLearn = block.number.add(DelayBlockLearn);\n            data.PendingBlockLearn = 0;\n        }\n        else\n        {\n            data.PendingBlockLearn = data.PendingBlockLearn.sub(totalBlockLearnedOfUser);\n        }\n        data.StopBlockLearn = block.number;\n\n        emit OnStopLearn(user, RobotJoin[user], Robot.Level(RobotJoin[user]), totalBlockLearnedOfUser, data.StopBlockLearn);\n\n        DoBonusToken(user, totalBlockLearnedOfUser);\n    }\n\n    function GetData(address user) public view returns(\n        uint256 cyberCreditBalance,\n        uint256 tokenId,\n        uint256 levelRobotJoin,\n        uint256 blockNumber,\n        uint256 startBlockLearn,\n        uint256 stopBlockLearn,\n        uint256 pendingBlockLearn,\n        uint256 rewardPerDay,\n        uint256 remainingBlockUpgrate\n    )\n    {\n        cyberCreditBalance = TokenReward.balanceOf(user);\n        tokenId = RobotJoin[user];\n        levelRobotJoin = Robot.Level(tokenId);\n        blockNumber = block.number;\n\n        Learn storage data = DataUserLearn[user];\n        startBlockLearn = data.StartBlockLearn;\n        pendingBlockLearn = data.PendingBlockLearn;\n        stopBlockLearn = data.StopBlockLearn;\n\n        if(pendingBlockLearn != 0) \n        {\n            uint256 totalBlockLearned = TotalBlockLearn.sub(pendingBlockLearn);\n            uint256 totalBlockLearning = blockNumber.sub(startBlockLearn);\n\n            rewardPerDay = (startBlockLearn < stopBlockLearn) ?\n                totalBlockLearned.mul(RewardPerBlockOfLevel[levelRobotJoin]) :\n                    ((totalBlockLearned.add(totalBlockLearning))\n                        .mul(RewardPerBlockOfLevel[levelRobotJoin]) <\n                        TotalBlockLearn.mul(RewardPerBlockOfLevel[levelRobotJoin])) ? \n                            (totalBlockLearned.add(totalBlockLearning))\n                            .mul(RewardPerBlockOfLevel[levelRobotJoin]) :\n                                TotalBlockLearn.mul(RewardPerBlockOfLevel[levelRobotJoin]);\n        }\n\n        remainingBlockUpgrate  = PendingBlockUpgrate[tokenId];\n        \n    }\n\n    function GetConfigSystem() public view returns(\n        uint256 maxLevel,\n        uint256[] memory priceUpgrateLevel,\n        uint256 totalBlockLearn,\n        uint256[] memory rewardPerBlockOfLevel,\n        uint256[] memory pendingBlockUpgrate\n    )\n    {\n        maxLevel = MaxLevel;\n\n        priceUpgrateLevel = new uint256[](maxLevel.add(1));\n        for(uint level = 1; level <= maxLevel; level++)\n        {\n            priceUpgrateLevel[level] = PriceUpgrate[level]; \n        }\n\n        totalBlockLearn = TotalBlockLearn;\n\n        rewardPerBlockOfLevel = new uint256[](maxLevel.add(1));\n        for(uint level = 0; level <= maxLevel; level++)\n        {\n            rewardPerBlockOfLevel[level] = RewardPerBlockOfLevel[level];\n        }\n\n        pendingBlockUpgrate = new uint256[](maxLevel.add(1));\n        for(uint level = 0; level <= maxLevel; level++)\n        {\n            pendingBlockUpgrate[level] = PendingBlockUpgrate[level];\n        }\n    }\n\n    function DoBonusToken(address user, uint256 totalBlockLearned) private \n    {\n        uint256 level = Robot.Level((RobotJoin[user]));\n        uint256 rewardPerBlock = RewardPerBlockOfLevel[level];\n        if(TokenReward.balanceOf(address(this)) >= totalBlockLearned.mul(rewardPerBlock))\n        {\n            TokenReward.transfer(user, totalBlockLearned.mul(rewardPerBlock));\n\n            emit OnBonusReward(user, totalBlockLearned.mul(rewardPerBlock));\n        }\n        else\n        {\n            TokenReward.transfer(user, TokenReward.balanceOf(address(this)));\n\n            emit OnBonusReward(user, TokenReward.balanceOf(address(this)));\n        }\n    }  \n\n    function removeRobot(address user) private returns(bool)\n    {\n        if(RobotJoin[user] <= 0) return true;\n        uint256 tokenId =  RobotJoin[user];\n        Robot.safeTransferFrom(address(this), user, tokenId);\n\n        RobotJoin[user] = 0;\n\n        emit OnOutGame(msg.sender, tokenId);\n        return true;\n    }\n}",
  "sourcePath": "/Applications/projects/garbi-contracts/contracts/Learning.sol",
  "compiler": {
    "name": "solc",
    "version": "0.8.17+commit.8df45f5f.Emscripten.clang"
  },
  "schemaVersion": "3.4.11",
  "updatedAt": "2023-03-13T03:20:49.525Z",
  "networkType": "ethereum",
  "devdoc": {
    "kind": "dev",
    "methods": {
      "owner()": {
        "details": "Returns the address of the current owner."
      },
      "renounceOwnership()": {
        "details": "Leaves the contract without owner. It will not be possible to call `onlyOwner` functions anymore. Can only be called by the current owner. NOTE: Renouncing ownership will leave the contract without an owner, thereby removing any functionality that is only available to the owner."
      },
      "transferOwnership(address)": {
        "details": "Transfers ownership of the contract to a new account (`newOwner`). Can only be called by the current owner."
      }
    },
    "version": 1
  },
  "userdoc": {
    "kind": "user",
    "methods": {},
    "version": 1
  }
}