{
  "contractName": "Learning",
  "abi": [
    {
      "inputs": [
        {
          "internalType": "contract IRobot",
          "name": "robot",
          "type": "address"
        },
        {
          "internalType": "contract IERC20",
          "name": "tokenReward",
          "type": "address"
        }
      ],
      "stateMutability": "nonpayable",
      "type": "constructor"
    },
    {
      "anonymous": false,
      "inputs": [
        {
          "indexed": false,
          "internalType": "address",
          "name": "user",
          "type": "address"
        },
        {
          "indexed": false,
          "internalType": "uint256",
          "name": "AmountTokenReward",
          "type": "uint256"
        }
      ],
      "name": "OnBonusReward",
      "type": "event"
    },
    {
      "anonymous": false,
      "inputs": [
        {
          "indexed": false,
          "internalType": "address",
          "name": "user",
          "type": "address"
        },
        {
          "indexed": false,
          "internalType": "uint256",
          "name": "tokenId",
          "type": "uint256"
        },
        {
          "indexed": false,
          "internalType": "uint256",
          "name": "level",
          "type": "uint256"
        }
      ],
      "name": "OnConfirmUpgradeLevelRobot",
      "type": "event"
    },
    {
      "anonymous": false,
      "inputs": [
        {
          "indexed": false,
          "internalType": "address",
          "name": "user",
          "type": "address"
        },
        {
          "indexed": false,
          "internalType": "uint256",
          "name": "tokenId",
          "type": "uint256"
        }
      ],
      "name": "OnJoinGame",
      "type": "event"
    },
    {
      "anonymous": false,
      "inputs": [
        {
          "indexed": false,
          "internalType": "address",
          "name": "user",
          "type": "address"
        },
        {
          "indexed": false,
          "internalType": "uint256",
          "name": "tokenId",
          "type": "uint256"
        }
      ],
      "name": "OnOutGame",
      "type": "event"
    },
    {
      "anonymous": false,
      "inputs": [
        {
          "indexed": false,
          "internalType": "address",
          "name": "user",
          "type": "address"
        },
        {
          "indexed": false,
          "internalType": "uint256",
          "name": "tokenId",
          "type": "uint256"
        },
        {
          "indexed": false,
          "internalType": "uint256",
          "name": "level",
          "type": "uint256"
        },
        {
          "indexed": false,
          "internalType": "uint256",
          "name": "startBlockLearn",
          "type": "uint256"
        },
        {
          "indexed": false,
          "internalType": "uint256",
          "name": "pendingBlockLearn",
          "type": "uint256"
        }
      ],
      "name": "OnStartLearn",
      "type": "event"
    },
    {
      "anonymous": false,
      "inputs": [
        {
          "indexed": false,
          "internalType": "address",
          "name": "user",
          "type": "address"
        },
        {
          "indexed": false,
          "internalType": "uint256",
          "name": "tokenId",
          "type": "uint256"
        },
        {
          "indexed": false,
          "internalType": "uint256",
          "name": "level",
          "type": "uint256"
        },
        {
          "indexed": false,
          "internalType": "uint256",
          "name": "totalBlockLearnEachTime",
          "type": "uint256"
        },
        {
          "indexed": false,
          "internalType": "uint256",
          "name": "stopBlockLearn",
          "type": "uint256"
        }
      ],
      "name": "OnStopLearn",
      "type": "event"
    },
    {
      "anonymous": false,
      "inputs": [
        {
          "indexed": false,
          "internalType": "address",
          "name": "user",
          "type": "address"
        },
        {
          "indexed": false,
          "internalType": "uint256",
          "name": "tokenId",
          "type": "uint256"
        },
        {
          "indexed": false,
          "internalType": "uint256",
          "name": "level",
          "type": "uint256"
        }
      ],
      "name": "OnUpgradeLevelRobot",
      "type": "event"
    },
    {
      "anonymous": false,
      "inputs": [
        {
          "indexed": true,
          "internalType": "address",
          "name": "previousOwner",
          "type": "address"
        },
        {
          "indexed": true,
          "internalType": "address",
          "name": "newOwner",
          "type": "address"
        }
      ],
      "name": "OwnershipTransferred",
      "type": "event"
    },
    {
      "anonymous": false,
      "inputs": [
        {
          "indexed": false,
          "internalType": "address",
          "name": "account",
          "type": "address"
        }
      ],
      "name": "Paused",
      "type": "event"
    },
    {
      "anonymous": false,
      "inputs": [
        {
          "indexed": false,
          "internalType": "address",
          "name": "account",
          "type": "address"
        }
      ],
      "name": "Unpaused",
      "type": "event"
    },
    {
      "inputs": [
        {
          "internalType": "uint256",
          "name": "",
          "type": "uint256"
        }
      ],
      "name": "BlockUpgradeLevelRobotNFT",
      "outputs": [
        {
          "internalType": "uint256",
          "name": "",
          "type": "uint256"
        }
      ],
      "stateMutability": "view",
      "type": "function"
    },
    {
      "inputs": [
        {
          "internalType": "address",
          "name": "",
          "type": "address"
        }
      ],
      "name": "DataUserLearn",
      "outputs": [
        {
          "internalType": "bool",
          "name": "Learning",
          "type": "bool"
        },
        {
          "internalType": "uint256",
          "name": "StartBlockLearn",
          "type": "uint256"
        },
        {
          "internalType": "uint256",
          "name": "StopBlockLearn",
          "type": "uint256"
        },
        {
          "internalType": "uint256",
          "name": "PendingBlockLearn",
          "type": "uint256"
        }
      ],
      "stateMutability": "view",
      "type": "function"
    },
    {
      "inputs": [],
      "name": "DelayBlockLearnNextTime",
      "outputs": [
        {
          "internalType": "uint256",
          "name": "",
          "type": "uint256"
        }
      ],
      "stateMutability": "view",
      "type": "function"
    },
    {
      "inputs": [],
      "name": "DelayBlockRobotNFTOutGame",
      "outputs": [
        {
          "internalType": "uint256",
          "name": "",
          "type": "uint256"
        }
      ],
      "stateMutability": "view",
      "type": "function"
    },
    {
      "inputs": [],
      "name": "GameCotrollerContract",
      "outputs": [
        {
          "internalType": "contract IGameController",
          "name": "",
          "type": "address"
        }
      ],
      "stateMutability": "view",
      "type": "function"
    },
    {
      "inputs": [],
      "name": "MaxLevelOfRobotNFTInGame",
      "outputs": [
        {
          "internalType": "uint256",
          "name": "",
          "type": "uint256"
        }
      ],
      "stateMutability": "view",
      "type": "function"
    },
    {
      "inputs": [
        {
          "internalType": "uint256",
          "name": "",
          "type": "uint256"
        }
      ],
      "name": "PendingBlockUpgradeLevelRobotNFT",
      "outputs": [
        {
          "internalType": "uint256",
          "name": "",
          "type": "uint256"
        }
      ],
      "stateMutability": "view",
      "type": "function"
    },
    {
      "inputs": [
        {
          "internalType": "uint256",
          "name": "",
          "type": "uint256"
        }
      ],
      "name": "PriceUpgradeLevelRobotNFT",
      "outputs": [
        {
          "internalType": "uint256",
          "name": "",
          "type": "uint256"
        }
      ],
      "stateMutability": "view",
      "type": "function"
    },
    {
      "inputs": [
        {
          "internalType": "uint256",
          "name": "",
          "type": "uint256"
        }
      ],
      "name": "RewardPerBlockOfLevel",
      "outputs": [
        {
          "internalType": "uint256",
          "name": "",
          "type": "uint256"
        }
      ],
      "stateMutability": "view",
      "type": "function"
    },
    {
      "inputs": [],
      "name": "Robot",
      "outputs": [
        {
          "internalType": "contract IRobot",
          "name": "",
          "type": "address"
        }
      ],
      "stateMutability": "view",
      "type": "function"
    },
    {
      "inputs": [],
      "name": "TokenReward",
      "outputs": [
        {
          "internalType": "contract IERC20",
          "name": "",
          "type": "address"
        }
      ],
      "stateMutability": "view",
      "type": "function"
    },
    {
      "inputs": [],
      "name": "TotalBlockLearnEachTime",
      "outputs": [
        {
          "internalType": "uint256",
          "name": "",
          "type": "uint256"
        }
      ],
      "stateMutability": "view",
      "type": "function"
    },
    {
      "inputs": [],
      "name": "owner",
      "outputs": [
        {
          "internalType": "address",
          "name": "",
          "type": "address"
        }
      ],
      "stateMutability": "view",
      "type": "function"
    },
    {
      "inputs": [],
      "name": "paused",
      "outputs": [
        {
          "internalType": "bool",
          "name": "",
          "type": "bool"
        }
      ],
      "stateMutability": "view",
      "type": "function"
    },
    {
      "inputs": [],
      "name": "renounceOwnership",
      "outputs": [],
      "stateMutability": "nonpayable",
      "type": "function"
    },
    {
      "inputs": [
        {
          "internalType": "address",
          "name": "newOwner",
          "type": "address"
        }
      ],
      "name": "transferOwnership",
      "outputs": [],
      "stateMutability": "nonpayable",
      "type": "function"
    },
    {
      "inputs": [
        {
          "internalType": "address",
          "name": "",
          "type": "address"
        },
        {
          "internalType": "address",
          "name": "",
          "type": "address"
        },
        {
          "internalType": "uint256",
          "name": "",
          "type": "uint256"
        },
        {
          "internalType": "bytes",
          "name": "",
          "type": "bytes"
        }
      ],
      "name": "onERC721Received",
      "outputs": [
        {
          "internalType": "bytes4",
          "name": "",
          "type": "bytes4"
        }
      ],
      "stateMutability": "nonpayable",
      "type": "function"
    },
    {
      "inputs": [],
      "name": "PauseSystem",
      "outputs": [],
      "stateMutability": "nonpayable",
      "type": "function"
    },
    {
      "inputs": [],
      "name": "UnpauseSystem",
      "outputs": [],
      "stateMutability": "nonpayable",
      "type": "function"
    },
    {
      "inputs": [
        {
          "internalType": "contract IGameController",
          "name": "gameCotrollerContract",
          "type": "address"
        }
      ],
      "name": "SetGameCotrollerContract",
      "outputs": [],
      "stateMutability": "nonpayable",
      "type": "function"
    },
    {
      "inputs": [
        {
          "internalType": "contract IRobot",
          "name": "robot",
          "type": "address"
        }
      ],
      "name": "SetRobot",
      "outputs": [],
      "stateMutability": "nonpayable",
      "type": "function"
    },
    {
      "inputs": [
        {
          "internalType": "contract IERC20",
          "name": "tokenReward",
          "type": "address"
        }
      ],
      "name": "SetTokenReward",
      "outputs": [],
      "stateMutability": "nonpayable",
      "type": "function"
    },
    {
      "inputs": [
        {
          "internalType": "uint256",
          "name": "value",
          "type": "uint256"
        }
      ],
      "name": "SetDelayBlockRobotNFTOutGame",
      "outputs": [],
      "stateMutability": "nonpayable",
      "type": "function"
    },
    {
      "inputs": [
        {
          "internalType": "uint256",
          "name": "maxLevelOfRobotNFTinGame",
          "type": "uint256"
        }
      ],
      "name": "SetMaxLevelOfRobotNFTinGame",
      "outputs": [],
      "stateMutability": "nonpayable",
      "type": "function"
    },
    {
      "inputs": [
        {
          "internalType": "uint256",
          "name": "totalBlockLearnEachTime",
          "type": "uint256"
        }
      ],
      "name": "SetTotalBlockLearnEachTime",
      "outputs": [],
      "stateMutability": "nonpayable",
      "type": "function"
    },
    {
      "inputs": [
        {
          "internalType": "uint256",
          "name": "level",
          "type": "uint256"
        },
        {
          "internalType": "uint256",
          "name": "value",
          "type": "uint256"
        }
      ],
      "name": "SetRewardPerBlockOfLevel",
      "outputs": [],
      "stateMutability": "nonpayable",
      "type": "function"
    },
    {
      "inputs": [
        {
          "internalType": "uint256",
          "name": "level",
          "type": "uint256"
        },
        {
          "internalType": "uint256",
          "name": "price",
          "type": "uint256"
        }
      ],
      "name": "SetPriceUpgradeLevelRobotNFT",
      "outputs": [],
      "stateMutability": "nonpayable",
      "type": "function"
    },
    {
      "inputs": [
        {
          "internalType": "uint256",
          "name": "level",
          "type": "uint256"
        },
        {
          "internalType": "uint256",
          "name": "quantityBlock",
          "type": "uint256"
        }
      ],
      "name": "SetBlockUpgradeLevelRobotNFT",
      "outputs": [],
      "stateMutability": "nonpayable",
      "type": "function"
    },
    {
      "inputs": [],
      "name": "UpgradeLevelRobot",
      "outputs": [],
      "stateMutability": "nonpayable",
      "type": "function"
    },
    {
      "inputs": [],
      "name": "ConfirmUpgradeLevelRobot",
      "outputs": [],
      "stateMutability": "nonpayable",
      "type": "function"
    },
    {
      "inputs": [],
      "name": "ForRobotNFTToLearn",
      "outputs": [],
      "stateMutability": "nonpayable",
      "type": "function"
    },
    {
      "inputs": [],
      "name": "ForRobotNFTStopLearn",
      "outputs": [],
      "stateMutability": "nonpayable",
      "type": "function"
    },
    {
      "inputs": [
        {
          "internalType": "address",
          "name": "user",
          "type": "address"
        }
      ],
      "name": "GetData",
      "outputs": [
        {
          "internalType": "uint256",
          "name": "cyberCreditBalance",
          "type": "uint256"
        },
        {
          "internalType": "uint256",
          "name": "tokenId",
          "type": "uint256"
        },
        {
          "internalType": "uint256",
          "name": "levelRobotJoinGameOfUser",
          "type": "uint256"
        },
        {
          "internalType": "uint256",
          "name": "blockNumber",
          "type": "uint256"
        },
        {
          "internalType": "bool",
          "name": "learning",
          "type": "bool"
        },
        {
          "internalType": "uint256",
          "name": "startBlockLearn",
          "type": "uint256"
        },
        {
          "internalType": "uint256",
          "name": "stopBlockLearn",
          "type": "uint256"
        },
        {
          "internalType": "uint256",
          "name": "pendingBlockLearn",
          "type": "uint256"
        },
        {
          "internalType": "uint256",
          "name": "rewardPerDay",
          "type": "uint256"
        },
        {
          "internalType": "uint256",
          "name": "pendingBlockUpgradeLevelRobotNFT",
          "type": "uint256"
        }
      ],
      "stateMutability": "view",
      "type": "function"
    },
    {
      "inputs": [],
      "name": "GetConfigSystem",
      "outputs": [
        {
          "internalType": "uint256",
          "name": "maxLevelOfRobotNFTinGame",
          "type": "uint256"
        },
        {
          "internalType": "uint256[]",
          "name": "priceUpgradeLevelRobotNFTLevel",
          "type": "uint256[]"
        },
        {
          "internalType": "uint256",
          "name": "totalBlockLearnEachTime",
          "type": "uint256"
        },
        {
          "internalType": "uint256[]",
          "name": "rewardPerBlockOfLevel",
          "type": "uint256[]"
        },
        {
          "internalType": "uint256[]",
          "name": "blockUpgradeLevelRobotNFT",
          "type": "uint256[]"
        }
      ],
      "stateMutability": "view",
      "type": "function"
    }
  ],
  "bytecode": "0x60806040523480156200001157600080fd5b5060405162002531380380620025318339810160408190526200003491620002ea565b6200003f3362000281565b6000805460ff60a01b19168155600280546001600160a01b039485166001600160a01b031991821617909155600380549390941692169190911782556032600655601e600c55600a600b8190557f6d5257204ebe7d88fd91ae87941cb2dd9d8062b64ae5a2bd2d28ec40b9fbf6df82905568056bc75e2d631000007fb39221ace053465ec3453ce2b36430bd138b997ecea25c1043da0c366812b82855680ad78ebc5ac62000007fb7c774451310d1be4108bc180d1b52823cb0ee0274a6c0081bcaf94f115fb96d55681043561a88293000007f3be6fd20d5acfde5b873b48692cd31f4d3c7e8ee8a813af4696af8859e5ca6c6557f5eff886ea0ce6ca488a3d6e336d6c0f75f46d19b42c06ce5ee98e42c96d256c782905560647fad67d757c34507f157cacfa2e3153e9f260a2244f30428821be7be64587ac55f5560c87f6add646517a5b0f6793cd5891b7937d28a5b2981a5d88ebc7cd776088fea90415561012c7f625b35f5e76f098dd7c3a05b10e2e5e78a4a01228d60c3b143426cdf36d264555560096020526706f05b59d3b200007fec8156718a8372b1db44bb411437d0870f3e3790d4a08526d024ce1b0b668f6b55670de0b6b3a76400007f92e85d02570a8092d09a6e3a57665bc3815a2699a4074001bf1ccabf660f5a3655671bc16d674ec800007f6cde3cea4b3a3fb2488b2808bae7556f4a405e50f65e1794383bc026131b13c355908290526729a2241af62c00007fc575c31fea594a6eb97c8e9d3f9caee4c16218c6ef37e923234c0fe9014a61e7555562000329565b600080546001600160a01b038381166001600160a01b0319831681178455604051919092169283917f8be0079c531659141344cd1fd0a4f28419497f9722a3daafe3b4186f6b6457e09190a35050565b6001600160a01b0381168114620002e757600080fd5b50565b60008060408385031215620002fe57600080fd5b82516200030b81620002d1565b60208401519092506200031e81620002d1565b809150509250929050565b6121f880620003396000396000f3fe608060405234801561001057600080fd5b50600436106102055760003560e01c806377628ce41161011a578063b30d3502116100ad578063ee68d3321161007c578063ee68d332146104ea578063f26f999b146104f2578063f2fde38b14610505578063f8c8df8814610518578063fe796ef91461052057600080fd5b8063b30d3502146104ad578063b7a16d21146104b6578063bb7dff6f146104c9578063d7724712146104d157600080fd5b8063992d1b72116100e9578063992d1b72146104515780639ea561bb1461045a5780639f516bc01461047a578063a4258e471461048d57600080fd5b806377628ce4146103c85780638da5cb5b146103db57806391daf913146103ec57806392fa8c691461044957600080fd5b8063336f15781161019d57806356a9a18a1161016c57806356a9a18a146103225780635c975abb146103355780635eb28fb214610352578063715018a61461036557806376a4cdd91461036d57600080fd5b8063336f1578146102c957806334e951e5146102dc5780633a821f9b146102e45780633e6281ed1461030f57600080fd5b80630cdfb0d3116101d95780630cdfb0d314610263578063150b7a021461026c578063161743b5146102a3578063191f4818146102b657600080fd5b80628f45f61461020a5780630260b2c31461022657806306ac385e146102465780630c69b5831461025b575b600080fd5b610213600a5481565b6040519081526020015b60405180910390f35b610213610234366004611eb4565b60056020526000908152604090205481565b610259610254366004611ecd565b610540565b005b6102596105cb565b610213600b5481565b61028a61027a366004611f1a565b630a85bd0160e11b949350505050565b6040516001600160e01b0319909116815260200161021d565b6102596102b1366004611ecd565b6105dd565b6102596102c4366004611ffa565b610663565b6102596102d7366004611ecd565b61068d565b6102596106ed565b6003546102f7906001600160a01b031681565b6040516001600160a01b03909116815260200161021d565b61025961031d366004611eb4565b61086a565b610259610330366004611eb4565b610877565b600054600160a01b900460ff16604051901515815260200161021d565b6002546102f7906001600160a01b031681565b610259610884565b6103a661037b366004611ffa565b600460205260009081526040902080546001820154600283015460039093015460ff90921692909184565b604080519415158552602085019390935291830152606082015260800161021d565b6102596103d6366004611eb4565b610896565b6000546001600160a01b03166102f7565b6103ff6103fa366004611ffa565b6108a3565b604080519a8b5260208b0199909952978901969096526060880194909452911515608087015260a086015260c085015260e08401526101008301526101208201526101400161021d565b610259610b55565b61021360065481565b610213610468366004611eb4565b60096020526000908152604090205481565b6001546102f7906001600160a01b031681565b61021361049b366004611eb4565b60086020526000908152604090205481565b610213600c5481565b6102596104c4366004611ffa565b610e7b565b610259610ea5565b6104d96111c0565b60405161021d959493929190612059565b6102596113a3565b610259610500366004611ffa565b6113b3565b610259610513366004611ffa565b6113dd565b610259611456565b61021361052e366004611eb4565b60076020526000908152604090205481565b6105486118bc565b600a548211156105b95760405162461bcd60e51b815260206004820152603160248201527f4572726f7220536574426c6f636b557067726164654c6576656c526f626f744e60448201527011950e88125b9d985b1a59081b195d995b607a1b60648201526084015b60405180910390fd5b60009182526008602052604090912055565b6105d36118bc565b6105db611916565b565b6105e56118bc565b600a548211156106515760405162461bcd60e51b815260206004820152603160248201527f4572726f72205365745072696365557067726164654c6576656c526f626f744e60448201527011950e88125b9d985b1a59081b195d995b607a1b60648201526084016105b0565b60009182526007602052604090912055565b61066b6118bc565b600280546001600160a01b0319166001600160a01b0392909216919091179055565b6106956118bc565b600a548211156106db5760405162461bcd60e51b8152602060048201526011602482015270125b9d985b1a59081b585e081b195d995b607a1b60448201526064016105b0565b60009182526009602052604090912055565b6106f561196b565b60003360015460405163cd503d0960e01b81526001600160a01b03808416600483015292935091169063cd503d0990602401602060405180830381865afa158015610744573d6000803e3d6000fd5b505050506040513d601f19601f8201168201806040525081019061076891906120aa565b6000036107875760405162461bcd60e51b81526004016105b0906120c3565b336000818152600460205260409020805460ff1615156001146107ec5760405162461bcd60e51b815260206004820181905260248201527f4572726f722053746f704c6561726e696e673a204e6f74206c6561726e696e6760448201526064016105b0565b60006108058260010154436119b890919063ffffffff16565b90508160030154811061083757506003810154600b546108269043906119cd565b60018301556000600383015561084c565b600382015461084690826119b8565b60038301555b815460ff1916825543600283015561086483826119d9565b50505050565b6108726118bc565b600a55565b61087f6118bc565b600c55565b61088c6118bc565b6105db6000611dc5565b61089e6118bc565b600655565b6003546040516370a0823160e01b81526001600160a01b03838116600483015260009283928392839283928392839283928392839216906370a0823190602401602060405180830381865afa158015610900573d6000803e3d6000fd5b505050506040513d601f19601f8201168201806040525081019061092491906120aa565b600154604051635167aaef60e11b81526001600160a01b038e81166004830152929c5091169063a2cf55de906024016040805180830381865afa15801561096f573d6000803e3d6000fd5b505050506040513d601f19601f8201168201806040525081019061099391906120fa565b6002546040516311d5c6b560e01b815260048101839052919b506001600160a01b031691506311d5c6b590602401602060405180830381865afa1580156109de573d6000803e3d6000fd5b505050506040513d601f19601f82011682018060405250810190610a0291906120aa565b6001600160a01b038c166000908152600460209081526040918290208251608081018452815460ff1615158082526001830154938201849052600283015494820185905260039092015460608201819052949c50439b509099509097509095509093508315610b3157600c54600090610a7b90866119b8565b90506000610a898a896119b8565b9050868810610b125760008b815260096020526040902054600c54610aad91611e15565b60008c815260096020526040902054610ad090610aca85856119cd565b90611e15565b10610af55760008b815260096020526040902054600c54610af091611e15565b610b2c565b60008b815260096020526040902054610af090610aca84846119cd565b60008b815260096020526040902054610b2c908390611e15565b945050505b600560008b8152602001908152602001600020549150509193959799509193959799565b610b5d61196b565b60003360015460405163cd503d0960e01b81526001600160a01b03808416600483015292935091169063cd503d0990602401602060405180830381865afa158015610bac573d6000803e3d6000fd5b505050506040513d601f19601f82011682018060405250810190610bd091906120aa565b600003610bef5760405162461bcd60e51b81526004016105b0906120c3565b600154604051635167aaef60e11b81523360048201819052916000916001600160a01b039091169063a2cf55de906024016040805180830381865afa158015610c3c573d6000803e3d6000fd5b505050506040513d601f19601f82011682018060405250810190610c6091906120fa565b91505080600003610cbf5760405162461bcd60e51b8152602060048201526024808201527f4572726f722053746172744c6561726e696e673a20496e76616c696420746f6b604482015263195b925960e21b60648201526084016105b0565b6001600160a01b038216600090815260046020526040902060018101544311610d2a5760405162461bcd60e51b815260206004820152601d60248201527f4572726f722053746172744c6561726e696e673a2054696d65206f757400000060448201526064016105b0565b805460ff1615610d7c5760405162461bcd60e51b815260206004820152601d60248201527f4572726f722053746172744c6561726e696e673a204c6561726e696e6700000060448201526064016105b0565b8060030154600003610d9157600c5460038201555b43600182810191909155815460ff19161781556002546040516311d5c6b560e01b8152600481018490527ff33b295ec158e555b8779f58b77f6a8adf4ff72795121eeea82689ad936a17e591859185916001600160a01b0316906311d5c6b590602401602060405180830381865afa158015610e11573d6000803e3d6000fd5b505050506040513d601f19601f82011682018060405250810190610e3591906120aa565b60018501546003860154604080516001600160a01b0390961686526020860194909452928401919091526060830152608082015260a0015b60405180910390a150505050565b610e836118bc565b600380546001600160a01b0319166001600160a01b0392909216919091179055565b610ead61196b565b60003360015460405163cd503d0960e01b81526001600160a01b03808416600483015292935091169063cd503d0990602401602060405180830381865afa158015610efc573d6000803e3d6000fd5b505050506040513d601f19601f82011682018060405250810190610f2091906120aa565b600003610f3f5760405162461bcd60e51b81526004016105b0906120c3565b600154604051635167aaef60e11b81523360048201819052916000916001600160a01b039091169063a2cf55de906024016040805180830381865afa158015610f8c573d6000803e3d6000fd5b505050506040513d601f19601f82011682018060405250810190610fb091906120fa565b600081815260056020526040902054909250151590506110235760405162461bcd60e51b815260206004820152602860248201527f4572726f7220436f6e6669726d557067726164654c6576656c526f626f743a2060448201526756616c696461746560c01b60648201526084016105b0565b6000818152600560205260409020544310156110925760405162461bcd60e51b815260206004820152602860248201527f4572726f7220436f6e6669726d557067726164654c6576656c526f626f743a20604482015267151a5b59481bdd5d60c21b60648201526084016105b0565b600081815260056020526040808220919091556002549051630d5c00ed60e11b8152600481018390526001600160a01b0390911690631ab801da90602401600060405180830381600087803b1580156110ea57600080fd5b505af11580156110fe573d6000803e3d6000fd5b50506002546040516311d5c6b560e01b8152600481018590527ffb6096d83e401e93f68f3d4801f9343b159fe936afd8807fc0ea95922dc8f39f935085925084916001600160a01b0316906311d5c6b590602401602060405180830381865afa15801561116f573d6000803e3d6000fd5b505050506040513d601f19601f8201168201806040525081019061119391906120aa565b604080516001600160a01b03909416845260208401929092529082015260600160405180910390a1505050565b600a546060600081806111d48560016119cd565b67ffffffffffffffff8111156111ec576111ec611f04565b604051908082528060200260200182016040528015611215578160200160208202803683370190505b50935060015b8581116112625760008181526007602052604090205485518690839081106112455761124561211e565b60209081029190910101528061125a8161214a565b91505061121b565b50600c5492506112738560016119cd565b67ffffffffffffffff81111561128b5761128b611f04565b6040519080825280602002602001820160405280156112b4578160200160208202803683370190505b50915060005b8581116113015760008181526009602052604090205483518490839081106112e4576112e461211e565b6020908102919091010152806112f98161214a565b9150506112ba565b5061130d8560016119cd565b67ffffffffffffffff81111561132557611325611f04565b60405190808252806020026020018201604052801561134e578160200160208202803683370190505b50905060005b85811161139b57600081815260086020526040902054825183908390811061137e5761137e61211e565b6020908102919091010152806113938161214a565b915050611354565b509091929394565b6113ab6118bc565b6105db611e21565b6113bb6118bc565b600180546001600160a01b0319166001600160a01b0392909216919091179055565b6113e56118bc565b6001600160a01b03811661144a5760405162461bcd60e51b815260206004820152602660248201527f4f776e61626c653a206e6577206f776e657220697320746865207a65726f206160448201526564647265737360d01b60648201526084016105b0565b61145381611dc5565b50565b61145e61196b565b60003360015460405163cd503d0960e01b81526001600160a01b03808416600483015292935091169063cd503d0990602401602060405180830381865afa1580156114ad573d6000803e3d6000fd5b505050506040513d601f19601f820116820180604052508101906114d191906120aa565b6000036114f05760405162461bcd60e51b81526004016105b0906120c3565b600154604051635167aaef60e11b81523360048201819052916000916001600160a01b039091169063a2cf55de906024016040805180830381865afa15801561153d573d6000803e3d6000fd5b505050506040513d601f19601f8201168201806040525081019061156191906120fa565b915050806000036115c55760405162461bcd60e51b815260206004820152602860248201527f4572726f7220557067726164654c6576656c526f626f743a20496e76616c6964604482015267081d1bdad95b925960c21b60648201526084016105b0565b6002546040516311d5c6b560e01b8152600481018390526000916001600160a01b0316906311d5c6b590602401602060405180830381865afa15801561160f573d6000803e3d6000fd5b505050506040513d601f19601f8201168201806040525081019061163391906120aa565b9050600a5481106116955760405162461bcd60e51b815260206004820152602660248201527f4572726f7220557067726164654c6576656c526f626f743a20496e76616c6964604482015265081b195d995b60d21b60648201526084016105b0565b600760006116a48360016119cd565b8152602081019190915260409081016000205460035491516370a0823160e01b81526001600160a01b038681166004830152919291909116906370a0823190602401602060405180830381865afa158015611703573d6000803e3d6000fd5b505050506040513d601f19601f8201168201806040525081019061172791906120aa565b10156117865760405162461bcd60e51b815260206004820152602860248201527f4572726f7220557067726164654c6576656c526f626f743a20496e76616c69646044820152672062616c616e636560c01b60648201526084016105b0565b6003546001600160a01b03166323b872dd8430600760006117a88760016119cd565b8152602081019190915260409081016000205490516001600160e01b031960e086901b1681526001600160a01b03938416600482015292909116602483015260448201526064016020604051808303816000875af115801561180e573d6000803e3d6000fd5b505050506040513d601f19601f820116820180604052508101906118329190612163565b50611863600860006118458460016119cd565b815260200190815260200160002054436119cd90919063ffffffff16565b6000838152600560209081526040918290209290925580516001600160a01b038616815291820184905281018290527fd694a05dee33f4e29ddbd84025ef9db2c0282fc4c1a5840e08cc66936125304890606001610e6d565b6000546001600160a01b031633146105db5760405162461bcd60e51b815260206004820181905260248201527f4f776e61626c653a2063616c6c6572206973206e6f7420746865206f776e657260448201526064016105b0565b61191e611e64565b6000805460ff60a01b191690557f5db9ee0a495bf2e6ff9c91a7834c1ba4fdd244a5e8aa4e537bd38aeae4b073aa335b6040516001600160a01b03909116815260200160405180910390a1565b600054600160a01b900460ff16156105db5760405162461bcd60e51b815260206004820152601060248201526f14185d5cd8589b194e881c185d5cd95960821b60448201526064016105b0565b60006119c48284612185565b90505b92915050565b60006119c48284612198565b600154604051635167aaef60e11b81526001600160a01b038481166004830152600092169063a2cf55de906024016040805180830381865afa158015611a23573d6000803e3d6000fd5b505050506040513d601f19601f82011682018060405250810190611a4791906120fa565b6002546040516311d5c6b560e01b815260048101839052919350600092506001600160a01b0316906311d5c6b590602401602060405180830381865afa158015611a95573d6000803e3d6000fd5b505050506040513d601f19601f82011682018060405250810190611ab991906120aa565b600081815260096020526040902054909150611ad58482611e15565b6003546040516370a0823160e01b81523060048201526001600160a01b03909116906370a0823190602401602060405180830381865afa158015611b1d573d6000803e3d6000fd5b505050506040513d601f19601f82011682018060405250810190611b4191906120aa565b10611c25576003546001600160a01b031663a9059cbb86611b628785611e15565b6040516001600160e01b031960e085901b1681526001600160a01b03909216600483015260248201526044016020604051808303816000875af1158015611bad573d6000803e3d6000fd5b505050506040513d601f19601f82011682018060405250810190611bd19190612163565b507fa39a00ad9a4d838556ef2f0b9a443bad63c27c494e2442d56db77decf186625e85611bfe8684611e15565b604080516001600160a01b03909316835260208301919091520160405180910390a1611dbe565b6003546040516370a0823160e01b81523060048201526001600160a01b039091169063a9059cbb90879083906370a0823190602401602060405180830381865afa158015611c77573d6000803e3d6000fd5b505050506040513d601f19601f82011682018060405250810190611c9b91906120aa565b6040516001600160e01b031960e085901b1681526001600160a01b03909216600483015260248201526044016020604051808303816000875af1158015611ce6573d6000803e3d6000fd5b505050506040513d601f19601f82011682018060405250810190611d0a9190612163565b506003546040516370a0823160e01b81523060048201527fa39a00ad9a4d838556ef2f0b9a443bad63c27c494e2442d56db77decf186625e9187916001600160a01b03909116906370a0823190602401602060405180830381865afa158015611d77573d6000803e3d6000fd5b505050506040513d601f19601f82011682018060405250810190611d9b91906120aa565b604080516001600160a01b03909316835260208301919091520160405180910390a15b5050505050565b600080546001600160a01b038381166001600160a01b0319831681178455604051919092169283917f8be0079c531659141344cd1fd0a4f28419497f9722a3daafe3b4186f6b6457e09190a35050565b60006119c482846121ab565b611e2961196b565b6000805460ff60a01b1916600160a01b1790557f62e78cea01bee320cd4e420270b5ea74000d11b0c9f74754ebdbfc544b05a25861194e3390565b600054600160a01b900460ff166105db5760405162461bcd60e51b815260206004820152601460248201527314185d5cd8589b194e881b9bdd081c185d5cd95960621b60448201526064016105b0565b600060208284031215611ec657600080fd5b5035919050565b60008060408385031215611ee057600080fd5b50508035926020909101359150565b6001600160a01b038116811461145357600080fd5b634e487b7160e01b600052604160045260246000fd5b60008060008060808587031215611f3057600080fd5b8435611f3b81611eef565b93506020850135611f4b81611eef565b925060408501359150606085013567ffffffffffffffff80821115611f6f57600080fd5b818701915087601f830112611f8357600080fd5b813581811115611f9557611f95611f04565b604051601f8201601f19908116603f01168101908382118183101715611fbd57611fbd611f04565b816040528281528a6020848701011115611fd657600080fd5b82602086016020830137600060208483010152809550505050505092959194509250565b60006020828403121561200c57600080fd5b813561201781611eef565b9392505050565b600081518084526020808501945080840160005b8381101561204e57815187529582019590820190600101612032565b509495945050505050565b85815260a06020820152600061207260a083018761201e565b856040840152828103606084015261208a818661201e565b9050828103608084015261209e818561201e565b98975050505050505050565b6000602082840312156120bc57600080fd5b5051919050565b6020808252601f908201527f4572726f723a20496e76616964204865726f4e4654206a6f696e2067616d6500604082015260600190565b6000806040838503121561210d57600080fd5b505080516020909101519092909150565b634e487b7160e01b600052603260045260246000fd5b634e487b7160e01b600052601160045260246000fd5b60006001820161215c5761215c612134565b5060010190565b60006020828403121561217557600080fd5b8151801515811461201757600080fd5b818103818111156119c7576119c7612134565b808201808211156119c7576119c7612134565b80820281158282048414176119c7576119c761213456fea26469706673582212207c459cc471d206bdff9d446cf8f34f45a377d84caf3219319307d7d93ad7e9b664736f6c63430008110033",
  "immutableReferences": {},
  "source": "// SPDX-License-Identifier: MIT\npragma solidity ^0.8.0;\n\nimport \"./interfaces/IGameController.sol\";\nimport \"@openzeppelin/contracts/utils/math/SafeMath.sol\";\nimport \"@openzeppelin/contracts/access/Ownable.sol\";\nimport \"@openzeppelin/contracts/security/Pausable.sol\";\nimport \"@openzeppelin/contracts/token/ERC20/IERC20.sol\";\nimport \"@openzeppelin/contracts/token/ERC721/IERC721Receiver.sol\";\n\nimport \"./interfaces/IRobot.sol\";\n\n    /**\n    This contract allows users to learn by using their NFT robots. \n    Users can join the game by transferring their robots to the contract, \n    and the contract will start a learning process based on the robot's level. \n    Users can upgrade their robots' level by paying tokens and waiting for a period of time. \n    The contract rewards users with tokens for participating in the learning process.\n    */\n\ncontract Learning is Ownable, IERC721Receiver, Pausable\n{\n    using SafeMath for uint256;\n    IGameController public GameCotrollerContract;\n    IRobot public Robot;          // NFT learn\n    IERC20 public TokenReward;     // Reward\n\n    // stores the LearnData of each user.\n    mapping(address => LearnData) public DataUserLearn;\n\n    // stores the RobotData of each user.\n    // mapping(address => RobotData) public RobotJoinGameOfUser;\n\n    //stores the block number of the pending level upgrade for each robot NFT.\n    mapping(uint256 => uint256) public PendingBlockUpgradeLevelRobotNFT;\n\n    // config\n    \n    //number of blocks a user has to wait before they can remove their NFT from the game.\n    uint256 public DelayBlockRobotNFTOutGame;\n\n    //stores the price to upgrade each level of robot NFT.\n    mapping(uint256 => uint256) public PriceUpgradeLevelRobotNFT; \n\n    // stores the number of blocks needed to upgrade each level of robot NFT.\n    mapping(uint256 => uint256) public BlockUpgradeLevelRobotNFT; \n\n    //stores the reward for each block of learning based on the robot NFT level.\n    mapping(uint256 => uint256) public RewardPerBlockOfLevel;\n\n    // the maximum level of robot NFT that can join the game.\n    uint256 public MaxLevelOfRobotNFTInGame;\n\n    //the number of blocks a user has to wait before they can start learning again.\n    uint256 public DelayBlockLearnNextTime;\n\n    //the total number of blocks a user needs to learn to earn rewards.\n    uint256 public TotalBlockLearnEachTime;\n\n    // Event action\n    event OnJoinGame(address user, uint256 tokenId);\n    event OnOutGame(address user, uint256 tokenId);\n    event OnUpgradeLevelRobot(address user, uint256 tokenId, uint256 level);\n    event OnConfirmUpgradeLevelRobot(address user, uint256 tokenId, uint256 level);\n    event OnStartLearn(address user, uint256 tokenId, uint256 level, uint256 startBlockLearn, uint256 pendingBlockLearn);\n    event OnStopLearn(address user, uint256 tokenId, uint256 level, uint256 totalBlockLearnEachTime, uint256 stopBlockLearn);\n    event OnBonusReward(address user, uint256 AmountTokenReward);\n\n    struct LearnData\n    {\n        bool Learning; //a boolean that indicates whether the user is currently in a learning session             \n        uint256 StartBlockLearn; //the block at which the user started the current learning session\n        uint256 StopBlockLearn; //the block at which the user stopped the current learning session\n        uint256 PendingBlockLearn; //the number of blocks remaining until the current learning session is complete\n    }\n\n    struct RobotData\n    {\n        uint256 BlockJoin; // the block at which the NFT robot was added to the game\n        uint256 TokenId; // the ID of the NFT robot\n    }\n\n    constructor(\n        IRobot robot,\n        IERC20 tokenReward)\n    {\n        Robot = robot;\n        TokenReward = tokenReward;\n        \n        // Test\n        DelayBlockRobotNFTOutGame = 50;\n        TotalBlockLearnEachTime = 30;       \n        DelayBlockLearnNextTime = 10;\n\n        PriceUpgradeLevelRobotNFT[0] = 0;\n        PriceUpgradeLevelRobotNFT[1] = 100e18;\n        PriceUpgradeLevelRobotNFT[2] = 200e18;\n        PriceUpgradeLevelRobotNFT[3] = 300e18;\n\n        BlockUpgradeLevelRobotNFT[0] = 0;\n        BlockUpgradeLevelRobotNFT[1] = 100;\n        BlockUpgradeLevelRobotNFT[2] = 200;\n        BlockUpgradeLevelRobotNFT[3] = 300;\n\n        RewardPerBlockOfLevel[0] = 5e17;\n        RewardPerBlockOfLevel[1] = 1e18;\n        RewardPerBlockOfLevel[2] = 2e18;\n        RewardPerBlockOfLevel[3] = 3e18;\n\n        MaxLevelOfRobotNFTInGame = 3;\n    }\n\n    modifier isHeroNFTJoinGame()\n    {\n        address user = _msgSender();\n        require(GameCotrollerContract.HeroNFTJoinGameOfUser(user) != 0, \"Error: Invaid HeroNFT join game\");\n        _;\n    }\n\n\n    function onERC721Received(address, address, uint256, bytes memory) public virtual override returns (bytes4) \n    {\n        return this.onERC721Received.selector;\n    }\n\n    // owner acction\n    function PauseSystem() public onlyOwner \n    {\n        _pause();\n    }\n\n    function UnpauseSystem() public onlyOwner\n    {\n        _unpause();\n    }\n\n    function SetGameCotrollerContract(IGameController gameCotrollerContract) public onlyOwner \n    {\n        GameCotrollerContract = gameCotrollerContract;\n    }\n\n    function SetRobot(IRobot robot)public onlyOwner \n    {\n        Robot = robot;\n    }\n\n    function SetTokenReward(IERC20 tokenReward) public onlyOwner\n    {\n        TokenReward = tokenReward;\n    }\n\n    function SetDelayBlockRobotNFTOutGame(uint256 value) public onlyOwner \n    {\n        DelayBlockRobotNFTOutGame = value;\n    }\n\n    function SetMaxLevelOfRobotNFTinGame(uint256 maxLevelOfRobotNFTinGame) public onlyOwner \n    {\n        MaxLevelOfRobotNFTInGame = maxLevelOfRobotNFTinGame;\n    }\n\n    function SetTotalBlockLearnEachTime(uint256 totalBlockLearnEachTime) public onlyOwner\n    {\n        TotalBlockLearnEachTime = totalBlockLearnEachTime;\n    }\n\n    function SetRewardPerBlockOfLevel(uint256 level, uint256 value) public onlyOwner \n    {\n        require(level <= MaxLevelOfRobotNFTInGame, \"Invalid max level\");\n        RewardPerBlockOfLevel[level] = value;\n    }\n\n    function SetPriceUpgradeLevelRobotNFT(uint256 level, uint256 price) public onlyOwner\n    {\n        require(level <= MaxLevelOfRobotNFTInGame,  \"Error SetPriceUpgradeLevelRobotNFT: Invalid level\");\n        PriceUpgradeLevelRobotNFT[level] = price;\n    }\n\n    function SetBlockUpgradeLevelRobotNFT(uint256 level, uint256 quantityBlock) public onlyOwner\n    {\n        require(level <= MaxLevelOfRobotNFTInGame,  \"Error SetBlockUpgradeLevelRobotNFT: Invalid level\");\n        BlockUpgradeLevelRobotNFT[level] = quantityBlock;\n    }\n\n    //user action\n\n    /**\n    allows users to upgrade the level of their robot NFT if they have enough balance. \n    It checks if the robot NFT is valid and the user has enough balance to pay the price of upgrading the level.\n     */\n    function UpgradeLevelRobot() public whenNotPaused isHeroNFTJoinGame\n    {\n        address user = msg.sender;\n        (,uint256 tokenId) = GameCotrollerContract.RobotNFTJoinGameOfUser(user);\n        require(tokenId != 0, \"Error UpgradeLevelRobot: Invalid tokenId\");\n\n        uint256 level = Robot.Level(tokenId);\n        require(level < MaxLevelOfRobotNFTInGame, \"Error UpgradeLevelRobot: Invalid level\");\n        require(TokenReward.balanceOf(user) >= PriceUpgradeLevelRobotNFT[level.add(1)], \"Error UpgradeLevelRobot: Invalid balance\");\n        \n        TokenReward.transferFrom(user, address(this), PriceUpgradeLevelRobotNFT[level.add(1)]);\n\n        PendingBlockUpgradeLevelRobotNFT[tokenId] = block.number.add(BlockUpgradeLevelRobotNFT[level.add(1)]);\n\n        emit OnUpgradeLevelRobot(user, tokenId, level);\n    }\n\n    /**\n    confirms that the user's robot is ready to upgrade to the next level, \n    updates the 'PendingBlockUpgradeLevelRobotNFT' to 0,\n    and upgrades the level of the robot.\n    */\n    function ConfirmUpgradeLevelRobot() public whenNotPaused isHeroNFTJoinGame\n    {\n        address user = msg.sender;\n        (,uint256 tokenId) = GameCotrollerContract.RobotNFTJoinGameOfUser(user);\n        require(PendingBlockUpgradeLevelRobotNFT[tokenId] > 0, \"Error ConfirmUpgradeLevelRobot: Validate\");\n        require(block.number >= PendingBlockUpgradeLevelRobotNFT[tokenId], \"Error ConfirmUpgradeLevelRobot: Time out\");\n        PendingBlockUpgradeLevelRobotNFT[tokenId] = 0;\n        Robot.UpgradeLevel(tokenId);\n\n        emit OnConfirmUpgradeLevelRobot(user, tokenId, Robot.Level(tokenId));\n    }\n\n    /**\n    allows the user who called the function to start their robot's learning process \n    */\n    function ForRobotNFTToLearn() public whenNotPaused isHeroNFTJoinGame\n    {\n        address user = msg.sender;\n        (,uint256 tokenId) = GameCotrollerContract.RobotNFTJoinGameOfUser(user);\n        require(tokenId != 0, \"Error StartLearning: Invalid tokenId\");\n\n        LearnData storage data = DataUserLearn[user]; \n        require(data.StartBlockLearn < block.number, \"Error StartLearning: Time out\");\n        require(data.Learning == false, \"Error StartLearning: Learning\");\n\n        if(data.PendingBlockLearn == 0)\n        {\n            data.PendingBlockLearn = TotalBlockLearnEachTime;\n        }\n\n        data.StartBlockLearn = block.number;\n        data.Learning = true;\n\n        emit OnStartLearn(user, tokenId, Robot.Level(tokenId), data.StartBlockLearn, data.PendingBlockLearn);\n    }\n\n    /*\n    allows the user who called the function to stop their robot's learning process and\n    receive bonus tokens based on the number of blocks learned\n     */\n    function ForRobotNFTStopLearn() public whenNotPaused isHeroNFTJoinGame\n    {\n        address user = msg.sender;\n\n        LearnData storage data = DataUserLearn[user]; \n        require(data.Learning == true, \"Error StopLearning: Not learning\");\n\n        uint256 totalBlockLearnedOfUser = block.number.sub(data.StartBlockLearn);\n        if(totalBlockLearnedOfUser >= data.PendingBlockLearn)\n        {\n            totalBlockLearnedOfUser = data.PendingBlockLearn;\n\n            data.StartBlockLearn = block.number.add(DelayBlockLearnNextTime);\n            data.PendingBlockLearn = 0;\n        }\n        else\n        {\n            data.PendingBlockLearn = data.PendingBlockLearn.sub(totalBlockLearnedOfUser);\n        }\n        data.Learning = false;\n        data.StopBlockLearn = block.number;\n\n        DoBonusToken(user, totalBlockLearnedOfUser);\n    }\n\n    function GetData(address user) public view returns(\n        uint256 cyberCreditBalance,\n        uint256 tokenId,\n        uint256 levelRobotJoinGameOfUser,\n        uint256 blockNumber,\n        bool learning,\n        uint256 startBlockLearn,\n        uint256 stopBlockLearn,\n        uint256 pendingBlockLearn,\n        uint256 rewardPerDay,\n        uint256 pendingBlockUpgradeLevelRobotNFT\n    )\n    {\n        cyberCreditBalance = TokenReward.balanceOf(user);\n        (,tokenId) = GameCotrollerContract.RobotNFTJoinGameOfUser(user);\n        \n        levelRobotJoinGameOfUser = Robot.Level(tokenId);\n        blockNumber = block.number;\n\n        LearnData memory data = DataUserLearn[user];\n        learning = data.Learning;\n        startBlockLearn = data.StartBlockLearn;\n        pendingBlockLearn = data.PendingBlockLearn;\n        stopBlockLearn = data.StopBlockLearn;\n\n        if(pendingBlockLearn != 0) \n        {\n            uint256 totalBlockLearned = TotalBlockLearnEachTime.sub(pendingBlockLearn);\n            uint256 totalBlockLearnEachTimeing = blockNumber.sub(startBlockLearn);\n\n            rewardPerDay = (startBlockLearn < stopBlockLearn) ?\n                totalBlockLearned.mul(RewardPerBlockOfLevel[levelRobotJoinGameOfUser]) :\n                    ((totalBlockLearned.add(totalBlockLearnEachTimeing))\n                        .mul(RewardPerBlockOfLevel[levelRobotJoinGameOfUser]) <\n                        TotalBlockLearnEachTime.mul(RewardPerBlockOfLevel[levelRobotJoinGameOfUser])) ? \n                            (totalBlockLearned.add(totalBlockLearnEachTimeing))\n                            .mul(RewardPerBlockOfLevel[levelRobotJoinGameOfUser]) :\n                                TotalBlockLearnEachTime.mul(RewardPerBlockOfLevel[levelRobotJoinGameOfUser]);\n        }\n\n        pendingBlockUpgradeLevelRobotNFT  = PendingBlockUpgradeLevelRobotNFT[tokenId];\n        \n    }\n\n    function GetConfigSystem() public view returns(\n        uint256 maxLevelOfRobotNFTinGame,\n        uint256[] memory priceUpgradeLevelRobotNFTLevel,\n        uint256 totalBlockLearnEachTime,\n        uint256[] memory rewardPerBlockOfLevel,\n        uint256[] memory blockUpgradeLevelRobotNFT\n    )\n    {\n        maxLevelOfRobotNFTinGame = MaxLevelOfRobotNFTInGame;\n\n        priceUpgradeLevelRobotNFTLevel = new uint256[](maxLevelOfRobotNFTinGame.add(1));\n        for(uint level = 1; level <= maxLevelOfRobotNFTinGame; level++)\n        {\n            priceUpgradeLevelRobotNFTLevel[level] = PriceUpgradeLevelRobotNFT[level]; \n        }\n\n        totalBlockLearnEachTime = TotalBlockLearnEachTime;\n\n        rewardPerBlockOfLevel = new uint256[](maxLevelOfRobotNFTinGame.add(1));\n        for(uint level = 0; level <= maxLevelOfRobotNFTinGame; level++)\n        {\n            rewardPerBlockOfLevel[level] = RewardPerBlockOfLevel[level];\n        }\n\n        blockUpgradeLevelRobotNFT = new uint256[](maxLevelOfRobotNFTinGame.add(1));\n        for(uint level = 0; level <= maxLevelOfRobotNFTinGame; level++)\n        {\n            blockUpgradeLevelRobotNFT[level] = BlockUpgradeLevelRobotNFT[level];\n        }\n    }\n\n    /**\n    rewards a specified 'user' with bonus tokens based on the level of their robot and\n    a specified 'totalBlockLearned' value. \n     */\n    function DoBonusToken(address user, uint256 totalBlockLearned) private\n    {\n        (,uint256 tokenId) = GameCotrollerContract.RobotNFTJoinGameOfUser(user);\n        uint256 level = Robot.Level(tokenId);\n        uint256 rewardPerBlock = RewardPerBlockOfLevel[level];\n        if(TokenReward.balanceOf(address(this)) >= totalBlockLearned.mul(rewardPerBlock))\n        {\n            TokenReward.transfer(user, totalBlockLearned.mul(rewardPerBlock));\n\n            emit OnBonusReward(user, totalBlockLearned.mul(rewardPerBlock));\n        }\n        else\n        {\n            TokenReward.transfer(user, TokenReward.balanceOf(address(this)));\n\n            emit OnBonusReward(user, TokenReward.balanceOf(address(this)));\n        }\n    }  \n}",
  "sourcePath": "/Applications/projects/garbi-contracts/contracts/Learning.sol",
  "compiler": {
    "name": "solc",
    "version": "0.8.17+commit.8df45f5f.Emscripten.clang"
  },
  "schemaVersion": "3.4.11",
  "updatedAt": "2023-03-21T09:03:19.599Z",
  "devdoc": {
    "kind": "dev",
    "methods": {
      "owner()": {
        "details": "Returns the address of the current owner."
      },
      "paused()": {
        "details": "Returns true if the contract is paused, and false otherwise."
      },
      "renounceOwnership()": {
        "details": "Leaves the contract without owner. It will not be possible to call `onlyOwner` functions anymore. Can only be called by the current owner. NOTE: Renouncing ownership will leave the contract without an owner, thereby removing any functionality that is only available to the owner."
      },
      "transferOwnership(address)": {
        "details": "Transfers ownership of the contract to a new account (`newOwner`). Can only be called by the current owner."
      }
    },
    "version": 1
  },
  "userdoc": {
    "kind": "user",
    "methods": {
      "ConfirmUpgradeLevelRobot()": {
        "notice": "confirms that the user's robot is ready to upgrade to the next level,  updates the 'PendingBlockUpgradeLevelRobotNFT' to 0, and upgrades the level of the robot."
      },
      "ForRobotNFTToLearn()": {
        "notice": "allows the user who called the function to start their robot's learning process "
      },
      "UpgradeLevelRobot()": {
        "notice": "allows users to upgrade the level of their robot NFT if they have enough balance.  It checks if the robot NFT is valid and the user has enough balance to pay the price of upgrading the level."
      }
    },
    "notice": "This contract allows users to learn by using their NFT robots.  Users can join the game by transferring their robots to the contract,  and the contract will start a learning process based on the robot's level.  Users can upgrade their robots' level by paying tokens and waiting for a period of time.  The contract rewards users with tokens for participating in the learning process.",
    "version": 1
  }
}