{
  "contractName": "Learning",
  "abi": [
    {
      "inputs": [
        {
          "internalType": "contract IRobot",
          "name": "robot",
          "type": "address"
        },
        {
          "internalType": "contract IERC20",
          "name": "tokenReward",
          "type": "address"
        }
      ],
      "stateMutability": "nonpayable",
      "type": "constructor"
    },
    {
      "anonymous": false,
      "inputs": [
        {
          "indexed": false,
          "internalType": "address",
          "name": "user",
          "type": "address"
        },
        {
          "indexed": false,
          "internalType": "uint256",
          "name": "AmountTokenReward",
          "type": "uint256"
        }
      ],
      "name": "OnBonusReward",
      "type": "event"
    },
    {
      "anonymous": false,
      "inputs": [
        {
          "indexed": false,
          "internalType": "address",
          "name": "user",
          "type": "address"
        },
        {
          "indexed": false,
          "internalType": "uint256",
          "name": "tokenId",
          "type": "uint256"
        },
        {
          "indexed": false,
          "internalType": "uint256",
          "name": "level",
          "type": "uint256"
        }
      ],
      "name": "OnConfirmUpgrateLevelRobot",
      "type": "event"
    },
    {
      "anonymous": false,
      "inputs": [
        {
          "indexed": false,
          "internalType": "address",
          "name": "user",
          "type": "address"
        },
        {
          "indexed": false,
          "internalType": "uint256",
          "name": "tokenId",
          "type": "uint256"
        }
      ],
      "name": "OnJoinGame",
      "type": "event"
    },
    {
      "anonymous": false,
      "inputs": [
        {
          "indexed": false,
          "internalType": "address",
          "name": "user",
          "type": "address"
        },
        {
          "indexed": false,
          "internalType": "uint256",
          "name": "tokenId",
          "type": "uint256"
        }
      ],
      "name": "OnOutGame",
      "type": "event"
    },
    {
      "anonymous": false,
      "inputs": [
        {
          "indexed": false,
          "internalType": "address",
          "name": "user",
          "type": "address"
        },
        {
          "indexed": false,
          "internalType": "uint256",
          "name": "tokenId",
          "type": "uint256"
        },
        {
          "indexed": false,
          "internalType": "uint256",
          "name": "level",
          "type": "uint256"
        },
        {
          "indexed": false,
          "internalType": "uint256",
          "name": "startBlockLearn",
          "type": "uint256"
        },
        {
          "indexed": false,
          "internalType": "uint256",
          "name": "pendingBlockLearn",
          "type": "uint256"
        }
      ],
      "name": "OnStartLearn",
      "type": "event"
    },
    {
      "anonymous": false,
      "inputs": [
        {
          "indexed": false,
          "internalType": "address",
          "name": "user",
          "type": "address"
        },
        {
          "indexed": false,
          "internalType": "uint256",
          "name": "tokenId",
          "type": "uint256"
        },
        {
          "indexed": false,
          "internalType": "uint256",
          "name": "level",
          "type": "uint256"
        },
        {
          "indexed": false,
          "internalType": "uint256",
          "name": "totalBlockLearn",
          "type": "uint256"
        },
        {
          "indexed": false,
          "internalType": "uint256",
          "name": "stopBlockLearn",
          "type": "uint256"
        }
      ],
      "name": "OnStopLearn",
      "type": "event"
    },
    {
      "anonymous": false,
      "inputs": [
        {
          "indexed": false,
          "internalType": "address",
          "name": "user",
          "type": "address"
        },
        {
          "indexed": false,
          "internalType": "uint256",
          "name": "tokenId",
          "type": "uint256"
        },
        {
          "indexed": false,
          "internalType": "uint256",
          "name": "level",
          "type": "uint256"
        }
      ],
      "name": "OnUpgrateLevelRobot",
      "type": "event"
    },
    {
      "anonymous": false,
      "inputs": [
        {
          "indexed": true,
          "internalType": "address",
          "name": "previousOwner",
          "type": "address"
        },
        {
          "indexed": true,
          "internalType": "address",
          "name": "newOwner",
          "type": "address"
        }
      ],
      "name": "OwnershipTransferred",
      "type": "event"
    },
    {
      "inputs": [
        {
          "internalType": "uint256",
          "name": "",
          "type": "uint256"
        }
      ],
      "name": "BlockUpgrate",
      "outputs": [
        {
          "internalType": "uint256",
          "name": "",
          "type": "uint256"
        }
      ],
      "stateMutability": "view",
      "type": "function",
      "constant": true
    },
    {
      "inputs": [
        {
          "internalType": "address",
          "name": "",
          "type": "address"
        }
      ],
      "name": "DataUserLearn",
      "outputs": [
        {
          "internalType": "bool",
          "name": "Learning",
          "type": "bool"
        },
        {
          "internalType": "uint256",
          "name": "StartBlockLearn",
          "type": "uint256"
        },
        {
          "internalType": "uint256",
          "name": "StopBlockLearn",
          "type": "uint256"
        },
        {
          "internalType": "uint256",
          "name": "PendingBlockLearn",
          "type": "uint256"
        }
      ],
      "stateMutability": "view",
      "type": "function",
      "constant": true
    },
    {
      "inputs": [],
      "name": "DelayBlockLearn",
      "outputs": [
        {
          "internalType": "uint256",
          "name": "",
          "type": "uint256"
        }
      ],
      "stateMutability": "view",
      "type": "function",
      "constant": true
    },
    {
      "inputs": [],
      "name": "DelayBlockOutGame",
      "outputs": [
        {
          "internalType": "uint256",
          "name": "",
          "type": "uint256"
        }
      ],
      "stateMutability": "view",
      "type": "function",
      "constant": true
    },
    {
      "inputs": [],
      "name": "EnableSystem",
      "outputs": [
        {
          "internalType": "bool",
          "name": "",
          "type": "bool"
        }
      ],
      "stateMutability": "view",
      "type": "function",
      "constant": true
    },
    {
      "inputs": [],
      "name": "MaxLevel",
      "outputs": [
        {
          "internalType": "uint256",
          "name": "",
          "type": "uint256"
        }
      ],
      "stateMutability": "view",
      "type": "function",
      "constant": true
    },
    {
      "inputs": [
        {
          "internalType": "uint256",
          "name": "",
          "type": "uint256"
        }
      ],
      "name": "PendingBlockUpgrate",
      "outputs": [
        {
          "internalType": "uint256",
          "name": "",
          "type": "uint256"
        }
      ],
      "stateMutability": "view",
      "type": "function",
      "constant": true
    },
    {
      "inputs": [
        {
          "internalType": "uint256",
          "name": "",
          "type": "uint256"
        }
      ],
      "name": "PriceUpgrate",
      "outputs": [
        {
          "internalType": "uint256",
          "name": "",
          "type": "uint256"
        }
      ],
      "stateMutability": "view",
      "type": "function",
      "constant": true
    },
    {
      "inputs": [
        {
          "internalType": "uint256",
          "name": "",
          "type": "uint256"
        }
      ],
      "name": "RewardPerBlockOfLevel",
      "outputs": [
        {
          "internalType": "uint256",
          "name": "",
          "type": "uint256"
        }
      ],
      "stateMutability": "view",
      "type": "function",
      "constant": true
    },
    {
      "inputs": [],
      "name": "Robot",
      "outputs": [
        {
          "internalType": "contract IRobot",
          "name": "",
          "type": "address"
        }
      ],
      "stateMutability": "view",
      "type": "function",
      "constant": true
    },
    {
      "inputs": [
        {
          "internalType": "address",
          "name": "",
          "type": "address"
        }
      ],
      "name": "RobotJoin",
      "outputs": [
        {
          "internalType": "uint256",
          "name": "BlockJoin",
          "type": "uint256"
        },
        {
          "internalType": "uint256",
          "name": "TokenId",
          "type": "uint256"
        }
      ],
      "stateMutability": "view",
      "type": "function",
      "constant": true
    },
    {
      "inputs": [],
      "name": "TokenReward",
      "outputs": [
        {
          "internalType": "contract IERC20",
          "name": "",
          "type": "address"
        }
      ],
      "stateMutability": "view",
      "type": "function",
      "constant": true
    },
    {
      "inputs": [],
      "name": "TotalBlockLearn",
      "outputs": [
        {
          "internalType": "uint256",
          "name": "",
          "type": "uint256"
        }
      ],
      "stateMutability": "view",
      "type": "function",
      "constant": true
    },
    {
      "inputs": [],
      "name": "owner",
      "outputs": [
        {
          "internalType": "address",
          "name": "",
          "type": "address"
        }
      ],
      "stateMutability": "view",
      "type": "function",
      "constant": true
    },
    {
      "inputs": [],
      "name": "renounceOwnership",
      "outputs": [],
      "stateMutability": "nonpayable",
      "type": "function"
    },
    {
      "inputs": [
        {
          "internalType": "address",
          "name": "newOwner",
          "type": "address"
        }
      ],
      "name": "transferOwnership",
      "outputs": [],
      "stateMutability": "nonpayable",
      "type": "function"
    },
    {
      "inputs": [
        {
          "internalType": "address",
          "name": "",
          "type": "address"
        },
        {
          "internalType": "address",
          "name": "",
          "type": "address"
        },
        {
          "internalType": "uint256",
          "name": "",
          "type": "uint256"
        },
        {
          "internalType": "bytes",
          "name": "",
          "type": "bytes"
        }
      ],
      "name": "onERC721Received",
      "outputs": [
        {
          "internalType": "bytes4",
          "name": "",
          "type": "bytes4"
        }
      ],
      "stateMutability": "nonpayable",
      "type": "function"
    },
    {
      "inputs": [],
      "name": "SetPauseSystem",
      "outputs": [],
      "stateMutability": "nonpayable",
      "type": "function"
    },
    {
      "inputs": [],
      "name": "SetEnableSystem",
      "outputs": [],
      "stateMutability": "nonpayable",
      "type": "function"
    },
    {
      "inputs": [
        {
          "internalType": "uint256",
          "name": "value",
          "type": "uint256"
        }
      ],
      "name": "SetDelayBlockOutGame",
      "outputs": [],
      "stateMutability": "nonpayable",
      "type": "function"
    },
    {
      "inputs": [
        {
          "internalType": "uint256",
          "name": "maxLevel",
          "type": "uint256"
        }
      ],
      "name": "SetMaxLevel",
      "outputs": [],
      "stateMutability": "nonpayable",
      "type": "function"
    },
    {
      "inputs": [
        {
          "internalType": "uint256",
          "name": "totalBlockLearn",
          "type": "uint256"
        }
      ],
      "name": "SetTotalBlockLearn",
      "outputs": [],
      "stateMutability": "nonpayable",
      "type": "function"
    },
    {
      "inputs": [
        {
          "internalType": "uint256",
          "name": "level",
          "type": "uint256"
        },
        {
          "internalType": "uint256",
          "name": "value",
          "type": "uint256"
        }
      ],
      "name": "SetRewardPerBlockOfLevel",
      "outputs": [],
      "stateMutability": "nonpayable",
      "type": "function"
    },
    {
      "inputs": [
        {
          "internalType": "uint256",
          "name": "level",
          "type": "uint256"
        },
        {
          "internalType": "uint256",
          "name": "price",
          "type": "uint256"
        }
      ],
      "name": "SetPriceUpgrate",
      "outputs": [],
      "stateMutability": "nonpayable",
      "type": "function"
    },
    {
      "inputs": [
        {
          "internalType": "uint256",
          "name": "level",
          "type": "uint256"
        },
        {
          "internalType": "uint256",
          "name": "quantityBlock",
          "type": "uint256"
        }
      ],
      "name": "SetBlockUpgrate",
      "outputs": [],
      "stateMutability": "nonpayable",
      "type": "function"
    },
    {
      "inputs": [
        {
          "internalType": "uint256",
          "name": "tokenId",
          "type": "uint256"
        }
      ],
      "name": "JoinGame",
      "outputs": [],
      "stateMutability": "nonpayable",
      "type": "function"
    },
    {
      "inputs": [],
      "name": "OutGame",
      "outputs": [],
      "stateMutability": "nonpayable",
      "type": "function"
    },
    {
      "inputs": [],
      "name": "UpgrateLevelRobot",
      "outputs": [],
      "stateMutability": "nonpayable",
      "type": "function"
    },
    {
      "inputs": [],
      "name": "ConfirmUpgrateLevelRobot",
      "outputs": [],
      "stateMutability": "nonpayable",
      "type": "function"
    },
    {
      "inputs": [],
      "name": "StartLearn",
      "outputs": [],
      "stateMutability": "nonpayable",
      "type": "function"
    },
    {
      "inputs": [],
      "name": "StopLearn",
      "outputs": [],
      "stateMutability": "nonpayable",
      "type": "function"
    },
    {
      "inputs": [
        {
          "internalType": "address",
          "name": "user",
          "type": "address"
        }
      ],
      "name": "GetData",
      "outputs": [
        {
          "internalType": "uint256",
          "name": "cyberCreditBalance",
          "type": "uint256"
        },
        {
          "internalType": "uint256",
          "name": "tokenId",
          "type": "uint256"
        },
        {
          "internalType": "uint256",
          "name": "levelRobotJoin",
          "type": "uint256"
        },
        {
          "internalType": "uint256",
          "name": "blockNumber",
          "type": "uint256"
        },
        {
          "internalType": "bool",
          "name": "learning",
          "type": "bool"
        },
        {
          "internalType": "uint256",
          "name": "startBlockLearn",
          "type": "uint256"
        },
        {
          "internalType": "uint256",
          "name": "stopBlockLearn",
          "type": "uint256"
        },
        {
          "internalType": "uint256",
          "name": "pendingBlockLearn",
          "type": "uint256"
        },
        {
          "internalType": "uint256",
          "name": "rewardPerDay",
          "type": "uint256"
        },
        {
          "internalType": "uint256",
          "name": "pendingBlockUpgrate",
          "type": "uint256"
        }
      ],
      "stateMutability": "view",
      "type": "function",
      "constant": true
    },
    {
      "inputs": [],
      "name": "GetConfigSystem",
      "outputs": [
        {
          "internalType": "uint256",
          "name": "maxLevel",
          "type": "uint256"
        },
        {
          "internalType": "uint256[]",
          "name": "priceUpgrateLevel",
          "type": "uint256[]"
        },
        {
          "internalType": "uint256",
          "name": "totalBlockLearn",
          "type": "uint256"
        },
        {
          "internalType": "uint256[]",
          "name": "rewardPerBlockOfLevel",
          "type": "uint256[]"
        },
        {
          "internalType": "uint256[]",
          "name": "blockUpgrate",
          "type": "uint256[]"
        }
      ],
      "stateMutability": "view",
      "type": "function",
      "constant": true
    }
  ],
  "bytecode": "0x60806040523480156200001157600080fd5b506040516200249b3803806200249b8339810160408190526200003491620002ef565b6200003f3362000286565b600180546001600160a01b039384166001600160a01b031991821617825560028054939094169216919091179091556006805460ff191690911790556032600755601e600c55600a600b81905560007f5eff886ea0ce6ca488a3d6e336d6c0f75f46d19b42c06ce5ee98e42c96d256c781905568056bc75e2d631000007fad67d757c34507f157cacfa2e3153e9f260a2244f30428821be7be64587ac55f55680ad78ebc5ac62000007f6add646517a5b0f6793cd5891b7937d28a5b2981a5d88ebc7cd776088fea904155681043561a88293000007f625b35f5e76f098dd7c3a05b10e2e5e78a4a01228d60c3b143426cdf36d26455557fec8156718a8372b1db44bb411437d0870f3e3790d4a08526d024ce1b0b668f6b81905560647f92e85d02570a8092d09a6e3a57665bc3815a2699a4074001bf1ccabf660f5a365560c87f6cde3cea4b3a3fb2488b2808bae7556f4a405e50f65e1794383bc026131b13c35561012c7fc575c31fea594a6eb97c8e9d3f9caee4c16218c6ef37e923234c0fe9014a61e755600d6020526706f05b59d3b200007f81955a0a11e65eac625c29e8882660bae4e165a75d72780094acae8ece9a29ee55670de0b6b3a76400007ffd54ff1ed53f34a900b24c5ba64f85761163b5d82d98a47b9bd80e45466993c555671bc16d674ec800007f10a81eed9d63d16face5e76357905348e6253d3394086026bb2bf2145d7cc249556003908190526729a2241af62c00007f26b4a10d0f0b04925c23bd4480ee147c916e5e87a7d68206a533dad160ac81e25590556200032e565b600080546001600160a01b038381166001600160a01b0319831681178455604051919092169283917f8be0079c531659141344cd1fd0a4f28419497f9722a3daafe3b4186f6b6457e09190a35050565b6001600160a01b0381168114620002ec57600080fd5b50565b600080604083850312156200030357600080fd5b82516200031081620002d6565b60208401519092506200032381620002d6565b809150509250929050565b61215d806200033e6000396000f3fe608060405234801561001057600080fd5b50600436106101fb5760003560e01c806391daf9131161011a578063c259733d116100ad578063f33aa45c1161007c578063f33aa45c146104b9578063f634d41a146104d9578063fa4b87c114610515578063fc295c3c14610528578063ff5cd33d1461053057600080fd5b8063c259733d1461047d578063d772471214610485578063eece7e751461049e578063f2fde38b146104a657600080fd5b8063ab8ed71c116100e9578063ab8ed71c1461043c578063b610018714610459578063b66ad2c21461046c578063c19416361461047557600080fd5b806391daf913146103a3578063980eb708146104005780639ea561bb14610413578063a8bab8621461043357600080fd5b80635eb28fb21161019257806376a4cdd91161016157806376a4cdd91461031a5780637ea68973146103775780638b3b89ee1461037f5780638da5cb5b1461039257600080fd5b80635eb28fb2146102cc5780636eb640c5146102df5780636ebee4c0146102ff578063715018a61461031257600080fd5b80633a821f9b116101ce5780633a821f9b1461027057806340f6b1bc1461029b5780634c8c5e01146102a45780634ee40f35146102ac57600080fd5b80631230d33c14610200578063150b7a021461021c5780631ce9920314610253578063336f15781461025d575b600080fd5b61020960075481565b6040519081526020015b60405180910390f35b61023a61022a366004611e5b565b630a85bd0160e11b949350505050565b6040516001600160e01b03199091168152602001610213565b61025b610543565b005b61025b61026b366004611f3b565b61055a565b600254610283906001600160a01b031681565b6040516001600160a01b039091168152602001610213565b610209600a5481565b61025b6105bf565b6102096102ba366004611f5d565b60086020526000908152604090205481565b600154610283906001600160a01b031681565b6102096102ed366004611f5d565b60096020526000908152604090205481565b61025b61030d366004611f3b565b610823565b61025b61089b565b610355610328366004611f76565b6003602081905260009182526040909120805460018201546002830154929093015460ff90911692919084565b6040805194151585526020850193909352918301526060820152608001610213565b61025b6108af565b61025b61038d366004611f5d565b610c56565b6000546001600160a01b0316610283565b6103b66103b1366004611f76565b610c63565b604080519a8b5260208b0199909952978901969096526060880194909452911515608087015260a086015260c085015260e084015261010083015261012082015261014001610213565b61025b61040e366004611f5d565b610ecf565b610209610421366004611f5d565b600d6020526000908152604090205481565b610209600b5481565b6006546104499060ff1681565b6040519015158152602001610213565b61025b610467366004611f5d565b610edc565b610209600c5481565b61025b6110ec565b61025b611100565b61048d611209565b604051610213959493929190611fd5565b61025b6113ec565b61025b6104b4366004611f76565b611526565b6102096104c7366004611f5d565b60056020526000908152604090205481565b6105006104e7366004611f76565b6004602052600090815260409020805460019091015482565b60408051928352602083019190915201610213565b61025b610523366004611f3b565b61159f565b61025b611617565b61025b61053e366004611f5d565b611864565b61054b611871565b6006805460ff19166001179055565b610562611871565b600a548211156105ad5760405162461bcd60e51b8152602060048201526011602482015270125b9d985b1a59081b585e081b195d995b607a1b60448201526064015b60405180910390fd5b6000918252600d602052604090912055565b60065460ff1615156001146105e65760405162461bcd60e51b81526004016105a490612026565b33600081815260046020908152604080832081518083019092528054825260010154918101829052918190036106685760405162461bcd60e51b815260206004820152602160248201527f4572726f722053746172744c6561726e3a20496e76616c696420746f6b656e496044820152601960fa1b60648201526084016105a4565b6001600160a01b0383166000908152600360205260409020600181015443116106d35760405162461bcd60e51b815260206004820152601a60248201527f4572726f722053746172744c6561726e3a2054696d65206f757400000000000060448201526064016105a4565b805460ff16156107255760405162461bcd60e51b815260206004820152601a60248201527f4572726f722053746172744c6561726e3a204c6561726e696e6700000000000060448201526064016105a4565b806003015460000361073a57600c5460038201555b43600182810191909155815460ff191681178255546040516311d5c6b560e01b8152600481018490527ff33b295ec158e555b8779f58b77f6a8adf4ff72795121eeea82689ad936a17e591869185916001600160a01b0316906311d5c6b590602401602060405180830381865afa1580156107b9573d6000803e3d6000fd5b505050506040513d601f19601f820116820180604052508101906107dd919061204d565b60018501546003860154604080516001600160a01b0390961686526020860194909452928401919091526060830152608082015260a0015b60405180910390a150505050565b61082b611871565b600a548211156108895760405162461bcd60e51b8152602060048201526024808201527f4572726f7220536574426c6f636b557067726174653a20496e76616c6964206c604482015263195d995b60e21b60648201526084016105a4565b60009182526009602052604090912055565b6108a3611871565b6108ad60006118cb565b565b60065460ff1615156001146108d65760405162461bcd60e51b81526004016105a490612026565b336000818152600460209081526040808320815180830190925280548252600101549181018290529181900361095f5760405162461bcd60e51b815260206004820152602860248201527f4572726f7220557067726174654c6576656c526f626f743a20496e76616c6964604482015267081d1bdad95b925960c21b60648201526084016105a4565b6001546040516311d5c6b560e01b8152600481018390526000916001600160a01b0316906311d5c6b590602401602060405180830381865afa1580156109a9573d6000803e3d6000fd5b505050506040513d601f19601f820116820180604052508101906109cd919061204d565b9050600a548110610a2f5760405162461bcd60e51b815260206004820152602660248201527f4572726f7220557067726174654c6576656c526f626f743a20496e76616c6964604482015265081b195d995b60d21b60648201526084016105a4565b60086000610a3e83600161191b565b8152602081019190915260409081016000205460025491516370a0823160e01b81526001600160a01b038781166004830152919291909116906370a0823190602401602060405180830381865afa158015610a9d573d6000803e3d6000fd5b505050506040513d601f19601f82011682018060405250810190610ac1919061204d565b1015610b205760405162461bcd60e51b815260206004820152602860248201527f4572726f7220557067726174654c6576656c526f626f743a20496e76616c69646044820152672062616c616e636560c01b60648201526084016105a4565b6002546001600160a01b03166323b872dd853060086000610b4287600161191b565b8152602081019190915260409081016000205490516001600160e01b031960e086901b1681526001600160a01b03938416600482015292909116602483015260448201526064016020604051808303816000875af1158015610ba8573d6000803e3d6000fd5b505050506040513d601f19601f82011682018060405250810190610bcc9190612066565b50610bfd60096000610bdf84600161191b565b8152602001908152602001600020544361191b90919063ffffffff16565b6000838152600560209081526040918290209290925580516001600160a01b038716815291820184905281018290527ff6129d461bf2ab457e99905eab1fb1309a9754a7e9cb727c59a61317201de0fa90606001610815565b610c5e611871565b600755565b6002546040516370a0823160e01b81526001600160a01b03838116600483015260009283928392839283928392839283928392839216906370a0823190602401602060405180830381865afa158015610cc0573d6000803e3d6000fd5b505050506040513d601f19601f82011682018060405250810190610ce4919061204d565b6001600160a01b038c81166000908152600460208181526040928390208351808501855281548152600191820154928101839052905493516311d5c6b560e01b8152928301829052949e509c509116906311d5c6b590602401602060405180830381865afa158015610d5a573d6000803e3d6000fd5b505050506040513d601f19601f82011682018060405250810190610d7e919061204d565b6001600160a01b038d166000908152600360208181526040928390208351608081018552815460ff16151580825260018301549382018490526002830154958201869052919093015460608401819052949d50439c509a5098509096509094508415610eaa57600c54600090610df49087611930565b90506000610e028b8a611930565b9050878910610e8b5760008c8152600d6020526040902054600c54610e269161193c565b60008d8152600d6020526040902054610e4990610e43858561191b565b9061193c565b10610e6e5760008c8152600d6020526040902054600c54610e699161193c565b610ea5565b60008c8152600d6020526040902054610e6990610e43848461191b565b60008c8152600d6020526040902054610ea590839061193c565b955050505b600560008c815260200190815260200160002054925050509193959799509193959799565b610ed7611871565b600a55565b60065460ff161515600114610f035760405162461bcd60e51b81526004016105a490612026565b6001546040516331a9108f60e11b815260048101839052339182916001600160a01b0390911690636352211e90602401602060405180830381865afa158015610f50573d6000803e3d6000fd5b505050506040513d601f19601f82011682018060405250810190610f749190612088565b6001600160a01b031614610fca5760405162461bcd60e51b815260206004820152601d60248201527f4572726f72204a6f696e47616d653a20496e76616c696420746f6b656e00000060448201526064016105a4565b610fd381611948565b151560011461101d5760405162461bcd60e51b81526020600482015260166024820152754572726f72204a6f696e47616d653a2072656d6f766560501b60448201526064016105a4565b600154604051632142170760e11b81526001600160a01b03838116600483015230602483015260448201859052909116906342842e0e90606401600060405180830381600087803b15801561107157600080fd5b505af1158015611085573d6000803e3d6000fd5b505050506001600160a01b038116600090815260046020908152604091829020438155600181018590558251338152918201859052917f7be4aa176d10b29beff5eb3472802589ecda04a24addff6db457290087f1d4ff91015b60405180910390a1505050565b6110f4611871565b6006805460ff19169055565b60065460ff1615156001146111275760405162461bcd60e51b81526004016105a490612026565b336000818152600360205260409020805460ff16151560011461118c5760405162461bcd60e51b815260206004820152601d60248201527f4572726f722053746f704c6561726e3a204e6f74206c6561726e696e6700000060448201526064016105a4565b60006111a582600101544361193090919063ffffffff16565b9050816003015481106111d757506003810154600b546111c690439061191b565b6001830155600060038301556111ec565b60038201546111e69082611930565b60038301555b815460ff191682554360028301556112048382611a8b565b505050565b600a5460606000818061121d85600161191b565b67ffffffffffffffff81111561123557611235611e45565b60405190808252806020026020018201604052801561125e578160200160208202803683370190505b50935060015b8581116112ab57600081815260086020526040902054855186908390811061128e5761128e6120a5565b6020908102919091010152806112a3816120d1565b915050611264565b50600c5492506112bc85600161191b565b67ffffffffffffffff8111156112d4576112d4611e45565b6040519080825280602002602001820160405280156112fd578160200160208202803683370190505b50915060005b85811161134a576000818152600d6020526040902054835184908390811061132d5761132d6120a5565b602090810291909101015280611342816120d1565b915050611303565b5061135685600161191b565b67ffffffffffffffff81111561136e5761136e611e45565b604051908082528060200260200182016040528015611397578160200160208202803683370190505b50905060005b8581116113e45760008181526009602052604090205482518390839081106113c7576113c76120a5565b6020908102919091010152806113dc816120d1565b91505061139d565b509091929394565b3360008181526004602090815260408083208151808301909252805482526001015491810182905291036114715760405162461bcd60e51b815260206004820152602660248201527f4572726f72204f757447616d653a20486176656e2774206a6f696e6564207468604482015265652067616d6560d01b60648201526084016105a4565b6001600160a01b0382166000908152600360208181526040928390208351608081018552815460ff1615158152600182015492810183905260028201549481018590529201546060830152909110156114cc576114cc611100565b6114d533611948565b15156001146112045760405162461bcd60e51b815260206004820152601a60248201527f4572726f72204f757447616d653a2072656d6f7665526f626f7400000000000060448201526064016105a4565b61152e611871565b6001600160a01b0381166115935760405162461bcd60e51b815260206004820152602660248201527f4f776e61626c653a206e6577206f776e657220697320746865207a65726f206160448201526564647265737360d01b60648201526084016105a4565b61159c816118cb565b50565b6115a7611871565b600a548211156116055760405162461bcd60e51b8152602060048201526024808201527f4572726f72205365745072696365557067726174653a20496e76616c6964206c604482015263195d995b60e21b60648201526084016105a4565b60009182526008602052604090912055565b60065460ff16151560011461163e5760405162461bcd60e51b81526004016105a490612026565b336000818152600460209081526040808320815180830183528154815260019091015481840181905280855260059093529220546116cf5760405162461bcd60e51b815260206004820152602860248201527f4572726f7220436f6e6669726d557067726174654c6576656c526f626f743a2060448201526756616c696461746560c01b60648201526084016105a4565b60008181526005602052604090205443101561173e5760405162461bcd60e51b815260206004820152602860248201527f4572726f7220436f6e6669726d557067726174654c6576656c526f626f743a20604482015267151a5b59481bdd5d60c21b60648201526084016105a4565b600081815260056020526040808220919091556001549051634ac6102360e11b8152600481018390526001600160a01b039091169063958c204690602401600060405180830381600087803b15801561179657600080fd5b505af11580156117aa573d6000803e3d6000fd5b50506001546040516311d5c6b560e01b8152600481018590527f2143ec51ce63217223ec79381588bbba6897480594907382eadb7784eb42c12a935086925084916001600160a01b0316906311d5c6b590602401602060405180830381865afa15801561181b573d6000803e3d6000fd5b505050506040513d601f19601f8201168201806040525081019061183f919061204d565b604080516001600160a01b0390941684526020840192909252908201526060016110df565b61186c611871565b600c55565b6000546001600160a01b031633146108ad5760405162461bcd60e51b815260206004820181905260248201527f4f776e61626c653a2063616c6c6572206973206e6f7420746865206f776e657260448201526064016105a4565b600080546001600160a01b038381166001600160a01b0319831681178455604051919092169283917f8be0079c531659141344cd1fd0a4f28419497f9722a3daafe3b4186f6b6457e09190a35050565b600061192782846120ea565b90505b92915050565b600061192782846120fd565b60006119278284612110565b6001600160a01b03811660009081526004602052604081206001810154808303611976575060019392505050565b60075482544391611987919061191b565b11156119d55760405162461bcd60e51b815260206004820152601b60248201527f4572726f722072656d6f7665526f626f743a2054696d65206f7574000000000060448201526064016105a4565b600154604051632142170760e11b81523060048201526001600160a01b03868116602483015260448201849052909116906342842e0e90606401600060405180830381600087803b158015611a2957600080fd5b505af1158015611a3d573d6000803e3d6000fd5b505060006001850155505060408051338152602081018390527fe86a6823a30ab366554e6a4c423e2346f68fb635703de05730f33d0546b1ca94910160405180910390a15060019392505050565b6001600160a01b0382811660009081526004602081815260408084208151808301835281548152600191820154938101849052905491516311d5c6b560e01b8152938401839052949193929116906311d5c6b590602401602060405180830381865afa158015611aff573d6000803e3d6000fd5b505050506040513d601f19601f82011682018060405250810190611b23919061204d565b6000818152600d6020526040902054909150611b3f858261193c565b6002546040516370a0823160e01b81523060048201526001600160a01b03909116906370a0823190602401602060405180830381865afa158015611b87573d6000803e3d6000fd5b505050506040513d601f19601f82011682018060405250810190611bab919061204d565b10611c8f576002546001600160a01b031663a9059cbb87611bcc888561193c565b6040516001600160e01b031960e085901b1681526001600160a01b03909216600483015260248201526044016020604051808303816000875af1158015611c17573d6000803e3d6000fd5b505050506040513d601f19601f82011682018060405250810190611c3b9190612066565b507fa39a00ad9a4d838556ef2f0b9a443bad63c27c494e2442d56db77decf186625e86611c68878461193c565b604080516001600160a01b03909316835260208301919091520160405180910390a1611e28565b6002546040516370a0823160e01b81523060048201526001600160a01b039091169063a9059cbb90889083906370a0823190602401602060405180830381865afa158015611ce1573d6000803e3d6000fd5b505050506040513d601f19601f82011682018060405250810190611d05919061204d565b6040516001600160e01b031960e085901b1681526001600160a01b03909216600483015260248201526044016020604051808303816000875af1158015611d50573d6000803e3d6000fd5b505050506040513d601f19601f82011682018060405250810190611d749190612066565b506002546040516370a0823160e01b81523060048201527fa39a00ad9a4d838556ef2f0b9a443bad63c27c494e2442d56db77decf186625e9188916001600160a01b03909116906370a0823190602401602060405180830381865afa158015611de1573d6000803e3d6000fd5b505050506040513d601f19601f82011682018060405250810190611e05919061204d565b604080516001600160a01b03909316835260208301919091520160405180910390a15b505050505050565b6001600160a01b038116811461159c57600080fd5b634e487b7160e01b600052604160045260246000fd5b60008060008060808587031215611e7157600080fd5b8435611e7c81611e30565b93506020850135611e8c81611e30565b925060408501359150606085013567ffffffffffffffff80821115611eb057600080fd5b818701915087601f830112611ec457600080fd5b813581811115611ed657611ed6611e45565b604051601f8201601f19908116603f01168101908382118183101715611efe57611efe611e45565b816040528281528a6020848701011115611f1757600080fd5b82602086016020830137600060208483010152809550505050505092959194509250565b60008060408385031215611f4e57600080fd5b50508035926020909101359150565b600060208284031215611f6f57600080fd5b5035919050565b600060208284031215611f8857600080fd5b8135611f9381611e30565b9392505050565b600081518084526020808501945080840160005b83811015611fca57815187529582019590820190600101611fae565b509495945050505050565b85815260a060208201526000611fee60a0830187611f9a565b85604084015282810360608401526120068186611f9a565b9050828103608084015261201a8185611f9a565b98975050505050505050565b6020808252600d908201526c14de5cdd195b481c185d5cd959609a1b604082015260600190565b60006020828403121561205f57600080fd5b5051919050565b60006020828403121561207857600080fd5b81518015158114611f9357600080fd5b60006020828403121561209a57600080fd5b8151611f9381611e30565b634e487b7160e01b600052603260045260246000fd5b634e487b7160e01b600052601160045260246000fd5b6000600182016120e3576120e36120bb565b5060010190565b8082018082111561192a5761192a6120bb565b8181038181111561192a5761192a6120bb565b808202811582820484141761192a5761192a6120bb56fea2646970667358221220f5aab5e52f0dd026a191525fdbc768ff6b6e436baecbf244146768195b9781fd64736f6c63430008110033",
  "immutableReferences": {},
  "source": "// SPDX-License-Identifier: MIT\npragma solidity ^0.8.0;\n\nimport \"@openzeppelin/contracts/utils/math/SafeMath.sol\";\nimport \"@openzeppelin/contracts/access/Ownable.sol\";\nimport \"@openzeppelin/contracts/token/ERC20/IERC20.sol\";\nimport \"@openzeppelin/contracts/token/ERC721/IERC721Receiver.sol\";\n\nimport \"./interfaces/IRobot.sol\";\n\ncontract Learning is Ownable, IERC721Receiver\n{\n    using SafeMath for uint256;\n\n    IRobot public Robot;          // NFT learn\n    IERC20 public TokenReward;     // Reward\n\n    mapping(address => Learn) public DataUserLearn;\n    mapping(address => RobotData) public RobotJoin;\n    mapping(uint256 => uint256) public PendingBlockUpgrate;\n    // config\n    bool public EnableSystem;\n    uint256 public DelayBlockOutGame;\n\n    mapping(uint256 => uint256) public PriceUpgrate; \n    mapping(uint256 => uint256) public BlockUpgrate; \n    uint256 public MaxLevel;\n    uint256 public DelayBlockLearn;\n    uint256 public TotalBlockLearn;\n\n    mapping(uint256 => uint256) public RewardPerBlockOfLevel;\n\n    event OnJoinGame(address user, uint256 tokenId);\n    event OnOutGame(address user, uint256 tokenId);\n    event OnUpgrateLevelRobot(address user, uint256 tokenId, uint256 level);\n    event OnConfirmUpgrateLevelRobot(address user, uint256 tokenId, uint256 level);\n    event OnStartLearn(address user, uint256 tokenId, uint256 level, uint256 startBlockLearn, uint256 pendingBlockLearn);\n    event OnStopLearn(address user, uint256 tokenId, uint256 level, uint256 totalBlockLearn, uint256 stopBlockLearn);\n    event OnBonusReward(address user, uint256 AmountTokenReward);\n\n    modifier IsEnableSystem()\n    {\n        require(EnableSystem == true, \"System paused\");\n        _;\n    }\n    \n    struct Learn\n    {\n        bool Learning;\n        uint256 StartBlockLearn;\n        uint256 StopBlockLearn;\n        uint256 PendingBlockLearn;\n    }\n\n    struct RobotData\n    {\n        uint256 BlockJoin;\n        uint256 TokenId;\n    }\n\n    constructor(\n        IRobot robot,\n        IERC20 tokenReward)\n    {\n        Robot = robot;\n        TokenReward = tokenReward;\n\n        EnableSystem = true;\n        \n        // Test\n        DelayBlockOutGame = 50;\n        TotalBlockLearn = 30;       \n        DelayBlockLearn = 10;\n\n        PriceUpgrate[0] = 0;\n        PriceUpgrate[1] = 100e18;\n        PriceUpgrate[2] = 200e18;\n        PriceUpgrate[3] = 300e18;\n\n        BlockUpgrate[0] = 0;\n        BlockUpgrate[1] = 100;\n        BlockUpgrate[2] = 200;\n        BlockUpgrate[3] = 300;\n\n        RewardPerBlockOfLevel[0] = 5e17;\n        RewardPerBlockOfLevel[1] = 1e18;\n        RewardPerBlockOfLevel[2] = 2e18;\n        RewardPerBlockOfLevel[3] = 3e18;\n\n        MaxLevel = 3;\n    }\n\n\n    function onERC721Received(address, address, uint256, bytes memory) public virtual override returns (bytes4) \n    {\n        return this.onERC721Received.selector;\n    }\n\n    // owner acction\n    function SetPauseSystem() public onlyOwner \n    {\n        EnableSystem = false;\n    }\n\n    function SetEnableSystem() public onlyOwner\n    {\n        EnableSystem = true;\n    }\n\n    function SetDelayBlockOutGame(uint256 value) public onlyOwner \n    {\n        DelayBlockOutGame = value;\n    }\n\n    function SetMaxLevel(uint256 maxLevel) public onlyOwner \n    {\n        MaxLevel = maxLevel;\n    }\n\n    function SetTotalBlockLearn(uint256 totalBlockLearn) public onlyOwner\n    {\n        TotalBlockLearn = totalBlockLearn;\n    }\n\n    function SetRewardPerBlockOfLevel(uint256 level, uint256 value) public onlyOwner \n    {\n        require(level <= MaxLevel, \"Invalid max level\");\n        RewardPerBlockOfLevel[level] = value;\n    }\n\n    function SetPriceUpgrate(uint256 level, uint256 price) public onlyOwner\n    {\n        require(level <= MaxLevel,  \"Error SetPriceUpgrate: Invalid level\");\n        PriceUpgrate[level] = price;\n    }\n\n    function SetBlockUpgrate(uint256 level, uint256 quantityBlock) public onlyOwner\n    {\n        require(level <= MaxLevel,  \"Error SetBlockUpgrate: Invalid level\");\n        BlockUpgrate[level] = quantityBlock;\n    }\n\n    function JoinGame(uint256 tokenId) public IsEnableSystem\n    {\n        address user = msg.sender;\n        require(Robot.ownerOf(tokenId) == user, \"Error JoinGame: Invalid token\");\n        require(removeRobot(user) == true, \"Error JoinGame: remove\");\n\n        Robot.safeTransferFrom(user, address(this), tokenId);\n\n        RobotData storage robotData = RobotJoin[user];\n        robotData.BlockJoin = block.number;\n        robotData.TokenId = tokenId;\n\n        emit OnJoinGame(msg.sender, tokenId);\n    }\n\n    function OutGame() public \n    {\n        address user = msg.sender;\n        RobotData memory robotData = RobotJoin[user];\n        require(robotData.TokenId != 0, \"Error OutGame: Haven't joined the game\");\n\n        Learn memory data = DataUserLearn[user]; \n        if (data.StartBlockLearn > data.StopBlockLearn) \n        {\n            StopLearn();\n        }\n        require(removeRobot(msg.sender) == true, \"Error OutGame: removeRobot\");\n    }\n\n    function UpgrateLevelRobot() public IsEnableSystem\n    {\n        address user = msg.sender;\n        RobotData memory robotData = RobotJoin[user];\n        uint256 tokenId = robotData.TokenId;\n        require(tokenId != 0, \"Error UpgrateLevelRobot: Invalid tokenId\");\n\n        uint256 level = Robot.Level(tokenId);\n        require(level < MaxLevel, \"Error UpgrateLevelRobot: Invalid level\");\n        require(TokenReward.balanceOf(user) >= PriceUpgrate[level.add(1)], \"Error UpgrateLevelRobot: Invalid balance\");\n        \n        TokenReward.transferFrom(user, address(this), PriceUpgrate[level.add(1)]);\n\n        PendingBlockUpgrate[tokenId] = block.number.add(BlockUpgrate[level.add(1)]);\n\n        emit OnUpgrateLevelRobot(user, tokenId, level);\n    }\n\n    function ConfirmUpgrateLevelRobot() public IsEnableSystem\n    {\n        address user = msg.sender;\n        RobotData memory robotData = RobotJoin[user];\n        uint256 tokenId = robotData.TokenId;\n        require(PendingBlockUpgrate[tokenId] > 0, \"Error ConfirmUpgrateLevelRobot: Validate\");\n        require(block.number >= PendingBlockUpgrate[tokenId], \"Error ConfirmUpgrateLevelRobot: Time out\");\n        PendingBlockUpgrate[tokenId] = 0;\n        Robot.UpgrateLevel(tokenId);\n\n        emit OnConfirmUpgrateLevelRobot(user, tokenId, Robot.Level(tokenId));\n    }\n\n    function StartLearn() public IsEnableSystem \n    {\n        address user = msg.sender;\n        RobotData memory robotData = RobotJoin[user];\n        uint256 tokenId = robotData.TokenId;\n        require(tokenId != 0, \"Error StartLearn: Invalid tokenId\");\n\n        Learn storage data = DataUserLearn[user]; \n        require(data.StartBlockLearn < block.number, \"Error StartLearn: Time out\");\n        require(data.Learning == false, \"Error StartLearn: Learning\");\n\n        if(data.PendingBlockLearn == 0)\n        {\n            data.PendingBlockLearn = TotalBlockLearn;\n        }\n\n        data.StartBlockLearn = block.number;\n        data.Learning = true;\n\n        emit OnStartLearn(user, tokenId, Robot.Level(tokenId), data.StartBlockLearn, data.PendingBlockLearn);\n    }\n\n    function StopLearn() public IsEnableSystem\n    {\n        address user = msg.sender;\n\n        Learn storage data = DataUserLearn[user]; \n        require(data.Learning == true, \"Error StopLearn: Not learning\");\n\n        uint256 totalBlockLearnedOfUser = block.number.sub(data.StartBlockLearn);\n        if(totalBlockLearnedOfUser >= data.PendingBlockLearn)\n        {\n            totalBlockLearnedOfUser = data.PendingBlockLearn;\n\n            data.StartBlockLearn = block.number.add(DelayBlockLearn);\n            data.PendingBlockLearn = 0;\n        }\n        else\n        {\n            data.PendingBlockLearn = data.PendingBlockLearn.sub(totalBlockLearnedOfUser);\n        }\n        data.Learning = false;\n        data.StopBlockLearn = block.number;\n\n        DoBonusToken(user, totalBlockLearnedOfUser);\n    }\n\n    function GetData(address user) public view returns(\n        uint256 cyberCreditBalance,\n        uint256 tokenId,\n        uint256 levelRobotJoin,\n        uint256 blockNumber,\n        bool learning,\n        uint256 startBlockLearn,\n        uint256 stopBlockLearn,\n        uint256 pendingBlockLearn,\n        uint256 rewardPerDay,\n        uint256 pendingBlockUpgrate\n    )\n    {\n        cyberCreditBalance = TokenReward.balanceOf(user);\n        RobotData memory robotData = RobotJoin[user];\n        tokenId = robotData.TokenId;\n        levelRobotJoin = Robot.Level(tokenId);\n        blockNumber = block.number;\n\n        Learn memory data = DataUserLearn[user];\n        learning = data.Learning;\n        startBlockLearn = data.StartBlockLearn;\n        pendingBlockLearn = data.PendingBlockLearn;\n        stopBlockLearn = data.StopBlockLearn;\n\n        if(pendingBlockLearn != 0) \n        {\n            uint256 totalBlockLearned = TotalBlockLearn.sub(pendingBlockLearn);\n            uint256 totalBlockLearning = blockNumber.sub(startBlockLearn);\n\n            rewardPerDay = (startBlockLearn < stopBlockLearn) ?\n                totalBlockLearned.mul(RewardPerBlockOfLevel[levelRobotJoin]) :\n                    ((totalBlockLearned.add(totalBlockLearning))\n                        .mul(RewardPerBlockOfLevel[levelRobotJoin]) <\n                        TotalBlockLearn.mul(RewardPerBlockOfLevel[levelRobotJoin])) ? \n                            (totalBlockLearned.add(totalBlockLearning))\n                            .mul(RewardPerBlockOfLevel[levelRobotJoin]) :\n                                TotalBlockLearn.mul(RewardPerBlockOfLevel[levelRobotJoin]);\n        }\n\n        pendingBlockUpgrate  = PendingBlockUpgrate[tokenId];\n        \n    }\n\n    function GetConfigSystem() public view returns(\n        uint256 maxLevel,\n        uint256[] memory priceUpgrateLevel,\n        uint256 totalBlockLearn,\n        uint256[] memory rewardPerBlockOfLevel,\n        uint256[] memory blockUpgrate\n    )\n    {\n        maxLevel = MaxLevel;\n\n        priceUpgrateLevel = new uint256[](maxLevel.add(1));\n        for(uint level = 1; level <= maxLevel; level++)\n        {\n            priceUpgrateLevel[level] = PriceUpgrate[level]; \n        }\n\n        totalBlockLearn = TotalBlockLearn;\n\n        rewardPerBlockOfLevel = new uint256[](maxLevel.add(1));\n        for(uint level = 0; level <= maxLevel; level++)\n        {\n            rewardPerBlockOfLevel[level] = RewardPerBlockOfLevel[level];\n        }\n\n        blockUpgrate = new uint256[](maxLevel.add(1));\n        for(uint level = 0; level <= maxLevel; level++)\n        {\n            blockUpgrate[level] = BlockUpgrate[level];\n        }\n    }\n\n    function DoBonusToken(address user, uint256 totalBlockLearned) private \n    {\n        RobotData memory robotData = RobotJoin[user];\n        uint256 tokenId = robotData.TokenId;\n        uint256 level = Robot.Level(tokenId);\n        uint256 rewardPerBlock = RewardPerBlockOfLevel[level];\n        if(TokenReward.balanceOf(address(this)) >= totalBlockLearned.mul(rewardPerBlock))\n        {\n            TokenReward.transfer(user, totalBlockLearned.mul(rewardPerBlock));\n\n            emit OnBonusReward(user, totalBlockLearned.mul(rewardPerBlock));\n        }\n        else\n        {\n            TokenReward.transfer(user, TokenReward.balanceOf(address(this)));\n\n            emit OnBonusReward(user, TokenReward.balanceOf(address(this)));\n        }\n    }  \n\n    function removeRobot(address user) private returns(bool)\n    {\n        RobotData storage robotData = RobotJoin[user];\n        uint256 tokenId = robotData.TokenId;\n\n        if(tokenId == 0) return true;\n        \n        require(robotData.BlockJoin.add(DelayBlockOutGame) <= block.number, \"Error removeRobot: Time out\");\n        Robot.safeTransferFrom(address(this), user, tokenId);\n\n        robotData.TokenId = 0;\n\n        emit OnOutGame(msg.sender, tokenId);\n        return true;\n    }\n}",
  "sourcePath": "/Applications/projects/garbi-contracts/contracts/Learning.sol",
  "compiler": {
    "name": "solc",
    "version": "0.8.17+commit.8df45f5f.Emscripten.clang"
  },
  "schemaVersion": "3.4.11",
  "updatedAt": "2023-03-14T03:49:40.312Z",
  "networkType": "ethereum",
  "devdoc": {
    "kind": "dev",
    "methods": {
      "owner()": {
        "details": "Returns the address of the current owner."
      },
      "renounceOwnership()": {
        "details": "Leaves the contract without owner. It will not be possible to call `onlyOwner` functions anymore. Can only be called by the current owner. NOTE: Renouncing ownership will leave the contract without an owner, thereby removing any functionality that is only available to the owner."
      },
      "transferOwnership(address)": {
        "details": "Transfers ownership of the contract to a new account (`newOwner`). Can only be called by the current owner."
      }
    },
    "version": 1
  },
  "userdoc": {
    "kind": "user",
    "methods": {},
    "version": 1
  }
}