{
  "contractName": "Learning",
  "abi": [
    {
      "inputs": [
        {
          "internalType": "contract IRobot",
          "name": "robot",
          "type": "address"
        },
        {
          "internalType": "contract IERC20",
          "name": "tokenReward",
          "type": "address"
        }
      ],
      "stateMutability": "nonpayable",
      "type": "constructor"
    },
    {
      "anonymous": false,
      "inputs": [
        {
          "indexed": false,
          "internalType": "address",
          "name": "user",
          "type": "address"
        },
        {
          "indexed": false,
          "internalType": "uint256",
          "name": "AmountTokenReward",
          "type": "uint256"
        }
      ],
      "name": "OnBonusReward",
      "type": "event"
    },
    {
      "anonymous": false,
      "inputs": [
        {
          "indexed": false,
          "internalType": "address",
          "name": "user",
          "type": "address"
        },
        {
          "indexed": false,
          "internalType": "uint256",
          "name": "tokenId",
          "type": "uint256"
        },
        {
          "indexed": false,
          "internalType": "uint256",
          "name": "level",
          "type": "uint256"
        }
      ],
      "name": "OnConfirmUpgradeLevelRobot",
      "type": "event"
    },
    {
      "anonymous": false,
      "inputs": [
        {
          "indexed": false,
          "internalType": "address",
          "name": "user",
          "type": "address"
        },
        {
          "indexed": false,
          "internalType": "uint256",
          "name": "tokenId",
          "type": "uint256"
        }
      ],
      "name": "OnJoinGame",
      "type": "event"
    },
    {
      "anonymous": false,
      "inputs": [
        {
          "indexed": false,
          "internalType": "address",
          "name": "user",
          "type": "address"
        },
        {
          "indexed": false,
          "internalType": "uint256",
          "name": "tokenId",
          "type": "uint256"
        }
      ],
      "name": "OnOutGame",
      "type": "event"
    },
    {
      "anonymous": false,
      "inputs": [
        {
          "indexed": false,
          "internalType": "address",
          "name": "user",
          "type": "address"
        },
        {
          "indexed": false,
          "internalType": "uint256",
          "name": "tokenId",
          "type": "uint256"
        },
        {
          "indexed": false,
          "internalType": "uint256",
          "name": "level",
          "type": "uint256"
        },
        {
          "indexed": false,
          "internalType": "uint256",
          "name": "startBlockLearn",
          "type": "uint256"
        },
        {
          "indexed": false,
          "internalType": "uint256",
          "name": "pendingBlockLearn",
          "type": "uint256"
        }
      ],
      "name": "OnStartLearn",
      "type": "event"
    },
    {
      "anonymous": false,
      "inputs": [
        {
          "indexed": false,
          "internalType": "address",
          "name": "user",
          "type": "address"
        },
        {
          "indexed": false,
          "internalType": "uint256",
          "name": "tokenId",
          "type": "uint256"
        },
        {
          "indexed": false,
          "internalType": "uint256",
          "name": "level",
          "type": "uint256"
        },
        {
          "indexed": false,
          "internalType": "uint256",
          "name": "totalBlockLearnEachTime",
          "type": "uint256"
        },
        {
          "indexed": false,
          "internalType": "uint256",
          "name": "stopBlockLearn",
          "type": "uint256"
        }
      ],
      "name": "OnStopLearn",
      "type": "event"
    },
    {
      "anonymous": false,
      "inputs": [
        {
          "indexed": false,
          "internalType": "address",
          "name": "user",
          "type": "address"
        },
        {
          "indexed": false,
          "internalType": "uint256",
          "name": "tokenId",
          "type": "uint256"
        },
        {
          "indexed": false,
          "internalType": "uint256",
          "name": "level",
          "type": "uint256"
        }
      ],
      "name": "OnUpgradeLevelRobot",
      "type": "event"
    },
    {
      "anonymous": false,
      "inputs": [
        {
          "indexed": true,
          "internalType": "address",
          "name": "previousOwner",
          "type": "address"
        },
        {
          "indexed": true,
          "internalType": "address",
          "name": "newOwner",
          "type": "address"
        }
      ],
      "name": "OwnershipTransferred",
      "type": "event"
    },
    {
      "anonymous": false,
      "inputs": [
        {
          "indexed": false,
          "internalType": "address",
          "name": "account",
          "type": "address"
        }
      ],
      "name": "Paused",
      "type": "event"
    },
    {
      "anonymous": false,
      "inputs": [
        {
          "indexed": false,
          "internalType": "address",
          "name": "account",
          "type": "address"
        }
      ],
      "name": "Unpaused",
      "type": "event"
    },
    {
      "inputs": [
        {
          "internalType": "uint256",
          "name": "",
          "type": "uint256"
        }
      ],
      "name": "BlockUpgradeLevelRobotNFT",
      "outputs": [
        {
          "internalType": "uint256",
          "name": "",
          "type": "uint256"
        }
      ],
      "stateMutability": "view",
      "type": "function",
      "constant": true
    },
    {
      "inputs": [
        {
          "internalType": "address",
          "name": "",
          "type": "address"
        }
      ],
      "name": "DataUserLearn",
      "outputs": [
        {
          "internalType": "bool",
          "name": "Learning",
          "type": "bool"
        },
        {
          "internalType": "uint256",
          "name": "StartBlockLearn",
          "type": "uint256"
        },
        {
          "internalType": "uint256",
          "name": "StopBlockLearn",
          "type": "uint256"
        },
        {
          "internalType": "uint256",
          "name": "PendingBlockLearn",
          "type": "uint256"
        }
      ],
      "stateMutability": "view",
      "type": "function",
      "constant": true
    },
    {
      "inputs": [],
      "name": "DelayBlockLearnNextTime",
      "outputs": [
        {
          "internalType": "uint256",
          "name": "",
          "type": "uint256"
        }
      ],
      "stateMutability": "view",
      "type": "function",
      "constant": true
    },
    {
      "inputs": [],
      "name": "DelayBlockRobotNFTOutGame",
      "outputs": [
        {
          "internalType": "uint256",
          "name": "",
          "type": "uint256"
        }
      ],
      "stateMutability": "view",
      "type": "function",
      "constant": true
    },
    {
      "inputs": [],
      "name": "MaxLevelOfRobotNFTInGame",
      "outputs": [
        {
          "internalType": "uint256",
          "name": "",
          "type": "uint256"
        }
      ],
      "stateMutability": "view",
      "type": "function",
      "constant": true
    },
    {
      "inputs": [
        {
          "internalType": "uint256",
          "name": "",
          "type": "uint256"
        }
      ],
      "name": "PendingBlockUpgradeLevelRobotNFT",
      "outputs": [
        {
          "internalType": "uint256",
          "name": "",
          "type": "uint256"
        }
      ],
      "stateMutability": "view",
      "type": "function",
      "constant": true
    },
    {
      "inputs": [
        {
          "internalType": "uint256",
          "name": "",
          "type": "uint256"
        }
      ],
      "name": "PriceUpgradeLevelRobotNFT",
      "outputs": [
        {
          "internalType": "uint256",
          "name": "",
          "type": "uint256"
        }
      ],
      "stateMutability": "view",
      "type": "function",
      "constant": true
    },
    {
      "inputs": [
        {
          "internalType": "uint256",
          "name": "",
          "type": "uint256"
        }
      ],
      "name": "RewardPerBlockOfLevel",
      "outputs": [
        {
          "internalType": "uint256",
          "name": "",
          "type": "uint256"
        }
      ],
      "stateMutability": "view",
      "type": "function",
      "constant": true
    },
    {
      "inputs": [],
      "name": "Robot",
      "outputs": [
        {
          "internalType": "contract IRobot",
          "name": "",
          "type": "address"
        }
      ],
      "stateMutability": "view",
      "type": "function",
      "constant": true
    },
    {
      "inputs": [
        {
          "internalType": "address",
          "name": "",
          "type": "address"
        }
      ],
      "name": "RobotJoinGameOfUser",
      "outputs": [
        {
          "internalType": "uint256",
          "name": "BlockJoin",
          "type": "uint256"
        },
        {
          "internalType": "uint256",
          "name": "TokenId",
          "type": "uint256"
        }
      ],
      "stateMutability": "view",
      "type": "function",
      "constant": true
    },
    {
      "inputs": [],
      "name": "TokenReward",
      "outputs": [
        {
          "internalType": "contract IERC20",
          "name": "",
          "type": "address"
        }
      ],
      "stateMutability": "view",
      "type": "function",
      "constant": true
    },
    {
      "inputs": [],
      "name": "TotalBlockLearnEachTime",
      "outputs": [
        {
          "internalType": "uint256",
          "name": "",
          "type": "uint256"
        }
      ],
      "stateMutability": "view",
      "type": "function",
      "constant": true
    },
    {
      "inputs": [],
      "name": "owner",
      "outputs": [
        {
          "internalType": "address",
          "name": "",
          "type": "address"
        }
      ],
      "stateMutability": "view",
      "type": "function",
      "constant": true
    },
    {
      "inputs": [],
      "name": "paused",
      "outputs": [
        {
          "internalType": "bool",
          "name": "",
          "type": "bool"
        }
      ],
      "stateMutability": "view",
      "type": "function",
      "constant": true
    },
    {
      "inputs": [],
      "name": "renounceOwnership",
      "outputs": [],
      "stateMutability": "nonpayable",
      "type": "function"
    },
    {
      "inputs": [
        {
          "internalType": "address",
          "name": "newOwner",
          "type": "address"
        }
      ],
      "name": "transferOwnership",
      "outputs": [],
      "stateMutability": "nonpayable",
      "type": "function"
    },
    {
      "inputs": [
        {
          "internalType": "address",
          "name": "",
          "type": "address"
        },
        {
          "internalType": "address",
          "name": "",
          "type": "address"
        },
        {
          "internalType": "uint256",
          "name": "",
          "type": "uint256"
        },
        {
          "internalType": "bytes",
          "name": "",
          "type": "bytes"
        }
      ],
      "name": "onERC721Received",
      "outputs": [
        {
          "internalType": "bytes4",
          "name": "",
          "type": "bytes4"
        }
      ],
      "stateMutability": "nonpayable",
      "type": "function"
    },
    {
      "inputs": [],
      "name": "PauseSystem",
      "outputs": [],
      "stateMutability": "nonpayable",
      "type": "function"
    },
    {
      "inputs": [],
      "name": "UnpauseSystem",
      "outputs": [],
      "stateMutability": "nonpayable",
      "type": "function"
    },
    {
      "inputs": [
        {
          "internalType": "uint256",
          "name": "value",
          "type": "uint256"
        }
      ],
      "name": "SetDelayBlockRobotNFTOutGame",
      "outputs": [],
      "stateMutability": "nonpayable",
      "type": "function"
    },
    {
      "inputs": [
        {
          "internalType": "uint256",
          "name": "maxLevelOfRobotNFTinGame",
          "type": "uint256"
        }
      ],
      "name": "SetMaxLevelOfRobotNFTinGame",
      "outputs": [],
      "stateMutability": "nonpayable",
      "type": "function"
    },
    {
      "inputs": [
        {
          "internalType": "uint256",
          "name": "totalBlockLearnEachTime",
          "type": "uint256"
        }
      ],
      "name": "SetTotalBlockLearnEachTime",
      "outputs": [],
      "stateMutability": "nonpayable",
      "type": "function"
    },
    {
      "inputs": [
        {
          "internalType": "uint256",
          "name": "level",
          "type": "uint256"
        },
        {
          "internalType": "uint256",
          "name": "value",
          "type": "uint256"
        }
      ],
      "name": "SetRewardPerBlockOfLevel",
      "outputs": [],
      "stateMutability": "nonpayable",
      "type": "function"
    },
    {
      "inputs": [
        {
          "internalType": "uint256",
          "name": "level",
          "type": "uint256"
        },
        {
          "internalType": "uint256",
          "name": "price",
          "type": "uint256"
        }
      ],
      "name": "SetPriceUpgradeLevelRobotNFT",
      "outputs": [],
      "stateMutability": "nonpayable",
      "type": "function"
    },
    {
      "inputs": [
        {
          "internalType": "uint256",
          "name": "level",
          "type": "uint256"
        },
        {
          "internalType": "uint256",
          "name": "quantityBlock",
          "type": "uint256"
        }
      ],
      "name": "SetBlockUpgradeLevelRobotNFT",
      "outputs": [],
      "stateMutability": "nonpayable",
      "type": "function"
    },
    {
      "inputs": [
        {
          "internalType": "uint256",
          "name": "tokenId",
          "type": "uint256"
        }
      ],
      "name": "LetRobotNFTJoinTheGame",
      "outputs": [],
      "stateMutability": "nonpayable",
      "type": "function"
    },
    {
      "inputs": [],
      "name": "LetRobotNFTOutOfTheGame",
      "outputs": [],
      "stateMutability": "nonpayable",
      "type": "function"
    },
    {
      "inputs": [],
      "name": "UpgradeLevelRobot",
      "outputs": [],
      "stateMutability": "nonpayable",
      "type": "function"
    },
    {
      "inputs": [],
      "name": "ConfirmUpgradeLevelRobot",
      "outputs": [],
      "stateMutability": "nonpayable",
      "type": "function"
    },
    {
      "inputs": [],
      "name": "ForRobotNFTToLearn",
      "outputs": [],
      "stateMutability": "nonpayable",
      "type": "function"
    },
    {
      "inputs": [],
      "name": "ForRobotNFTStopLearn",
      "outputs": [],
      "stateMutability": "nonpayable",
      "type": "function"
    },
    {
      "inputs": [
        {
          "internalType": "address",
          "name": "user",
          "type": "address"
        }
      ],
      "name": "GetData",
      "outputs": [
        {
          "internalType": "uint256",
          "name": "cyberCreditBalance",
          "type": "uint256"
        },
        {
          "internalType": "uint256",
          "name": "tokenId",
          "type": "uint256"
        },
        {
          "internalType": "uint256",
          "name": "levelRobotJoinGameOfUser",
          "type": "uint256"
        },
        {
          "internalType": "uint256",
          "name": "blockNumber",
          "type": "uint256"
        },
        {
          "internalType": "bool",
          "name": "learning",
          "type": "bool"
        },
        {
          "internalType": "uint256",
          "name": "startBlockLearn",
          "type": "uint256"
        },
        {
          "internalType": "uint256",
          "name": "stopBlockLearn",
          "type": "uint256"
        },
        {
          "internalType": "uint256",
          "name": "pendingBlockLearn",
          "type": "uint256"
        },
        {
          "internalType": "uint256",
          "name": "rewardPerDay",
          "type": "uint256"
        },
        {
          "internalType": "uint256",
          "name": "pendingBlockUpgradeLevelRobotNFT",
          "type": "uint256"
        }
      ],
      "stateMutability": "view",
      "type": "function",
      "constant": true
    },
    {
      "inputs": [],
      "name": "GetConfigSystem",
      "outputs": [
        {
          "internalType": "uint256",
          "name": "maxLevelOfRobotNFTinGame",
          "type": "uint256"
        },
        {
          "internalType": "uint256[]",
          "name": "priceUpgradeLevelRobotNFTLevel",
          "type": "uint256[]"
        },
        {
          "internalType": "uint256",
          "name": "totalBlockLearnEachTime",
          "type": "uint256"
        },
        {
          "internalType": "uint256[]",
          "name": "rewardPerBlockOfLevel",
          "type": "uint256[]"
        },
        {
          "internalType": "uint256[]",
          "name": "blockUpgradeLevelRobotNFT",
          "type": "uint256[]"
        }
      ],
      "stateMutability": "view",
      "type": "function",
      "constant": true
    }
  ],
  "bytecode": "0x60806040523480156200001157600080fd5b5060405162002522380380620025228339810160408190526200003491620002ed565b6200003f3362000284565b6000805460ff60a01b19168155600180546001600160a01b039485166001600160a01b03199182161790915560028054939094169216919091179091556032600655601e600c55600a600b8190557f6d5257204ebe7d88fd91ae87941cb2dd9d8062b64ae5a2bd2d28ec40b9fbf6df82905568056bc75e2d631000007fb39221ace053465ec3453ce2b36430bd138b997ecea25c1043da0c366812b82855680ad78ebc5ac62000007fb7c774451310d1be4108bc180d1b52823cb0ee0274a6c0081bcaf94f115fb96d55681043561a88293000007f3be6fd20d5acfde5b873b48692cd31f4d3c7e8ee8a813af4696af8859e5ca6c6557f5eff886ea0ce6ca488a3d6e336d6c0f75f46d19b42c06ce5ee98e42c96d256c782905560647fad67d757c34507f157cacfa2e3153e9f260a2244f30428821be7be64587ac55f5560c87f6add646517a5b0f6793cd5891b7937d28a5b2981a5d88ebc7cd776088fea90415561012c7f625b35f5e76f098dd7c3a05b10e2e5e78a4a01228d60c3b143426cdf36d264555560096020526706f05b59d3b200007fec8156718a8372b1db44bb411437d0870f3e3790d4a08526d024ce1b0b668f6b55670de0b6b3a76400007f92e85d02570a8092d09a6e3a57665bc3815a2699a4074001bf1ccabf660f5a3655671bc16d674ec800007f6cde3cea4b3a3fb2488b2808bae7556f4a405e50f65e1794383bc026131b13c3556003918290526729a2241af62c00007fc575c31fea594a6eb97c8e9d3f9caee4c16218c6ef37e923234c0fe9014a61e755556200032c565b600080546001600160a01b038381166001600160a01b0319831681178455604051919092169283917f8be0079c531659141344cd1fd0a4f28419497f9722a3daafe3b4186f6b6457e09190a35050565b6001600160a01b0381168114620002ea57600080fd5b50565b600080604083850312156200030157600080fd5b82516200030e81620002d4565b60208401519092506200032181620002d4565b809150509250929050565b6121e6806200033c6000396000f3fe608060405234801561001057600080fd5b50600436106101fa5760003560e01c8063715018a61161011a578063a4258e47116100ad578063ee68d3321161007c578063ee68d332146104f7578063f2fde38b146104ff578063f8c8df8814610512578063fe517efe1461051a578063fe796ef91461052257600080fd5b8063a4258e47146104ad578063b30d3502146104cd578063bb7dff6f146104d6578063d7724712146104de57600080fd5b806391daf913116100e957806391daf9131461041f57806392fa8c691461047c578063992d1b72146104845780639ea561bb1461048d57600080fd5b8063715018a61461039657806376a4cdd91461039e57806377628ce4146103fb5780638da5cb5b1461040e57600080fd5b806334e951e51161019257806356a9a18a1161016157806356a9a18a146103175780635c975abb1461032a5780635eb28fb2146103475780636181490c1461035a57600080fd5b806334e951e5146102be5780633a821f9b146102c65780633e6281ed146102f15780634bdef0f01461030457600080fd5b80630cdfb0d3116101ce5780630cdfb0d314610258578063150b7a0214610261578063161743b514610298578063336f1578146102ab57600080fd5b80628f45f6146101ff5780630260b2c31461021b57806306ac385e1461023b5780630c69b58314610250575b600080fd5b610208600a5481565b6040519081526020015b60405180910390f35b610208610229366004611ee0565b60056020526000908152604090205481565b61024e610249366004611ef9565b610542565b005b61024e6105cd565b610208600b5481565b61027f61026f366004611f46565b630a85bd0160e11b949350505050565b6040516001600160e01b03199091168152602001610212565b61024e6102a6366004611ef9565b6105df565b61024e6102b9366004611ef9565b610665565b61024e6106c5565b6002546102d9906001600160a01b031681565b6040516001600160a01b039091168152602001610212565b61024e6102ff366004611ee0565b6107af565b61024e610312366004611ee0565b6107bc565b61024e610325366004611ee0565b6109ad565b600054600160a01b900460ff166040519015158152602001610212565b6001546102d9906001600160a01b031681565b610381610368366004612026565b6004602052600090815260409020805460019091015482565b60408051928352602083019190915201610212565b61024e6109ba565b6103d96103ac366004612026565b6003602081905260009182526040909120805460018201546002830154929093015460ff90911692919084565b6040805194151585526020850193909352918301526060820152608001610212565b61024e610409366004611ee0565b6109cc565b6000546001600160a01b03166102d9565b61043261042d366004612026565b6109d9565b604080519a8b5260208b0199909952978901969096526060880194909452911515608087015260a086015260c085015260e084015261010083015261012082015261014001610212565b61024e610c45565b61020860065481565b61020861049b366004611ee0565b60096020526000908152604090205481565b6102086104bb366004611ee0565b60086020526000908152604090205481565b610208600c5481565b61024e610e8c565b6104e66110ba565b604051610212959493929190612085565b61024e61129d565b61024e61050d366004612026565b6112ad565b61024e611326565b61024e6116ae565b610208610530366004611ee0565b60076020526000908152604090205481565b61054a6117ec565b600a548211156105bb5760405162461bcd60e51b815260206004820152603160248201527f4572726f7220536574426c6f636b557067726164654c6576656c526f626f744e60448201527011950e88125b9d985b1a59081b195d995b607a1b60648201526084015b60405180910390fd5b60009182526008602052604090912055565b6105d56117ec565b6105dd611846565b565b6105e76117ec565b600a548211156106535760405162461bcd60e51b815260206004820152603160248201527f4572726f72205365745072696365557067726164654c6576656c526f626f744e60448201527011950e88125b9d985b1a59081b195d995b607a1b60648201526084016105b2565b60009182526007602052604090912055565b61066d6117ec565b600a548211156106b35760405162461bcd60e51b8152602060048201526011602482015270125b9d985b1a59081b585e081b195d995b607a1b60448201526064016105b2565b60009182526009602052604090912055565b6106cd61189b565b336000818152600360205260409020805460ff1615156001146107325760405162461bcd60e51b815260206004820181905260248201527f4572726f722053746f704c6561726e696e673a204e6f74206c6561726e696e6760448201526064016105b2565b600061074b8260010154436118e890919063ffffffff16565b90508160030154811061077d57506003810154600b5461076c9043906118fd565b600183015560006003830155610792565b600382015461078c90826118e8565b60038301555b815460ff191682554360028301556107aa8382611909565b505050565b6107b76117ec565b600a55565b6107c461189b565b6001546040516331a9108f60e11b815260048101839052339182916001600160a01b0390911690636352211e90602401602060405180830381865afa158015610811573d6000803e3d6000fd5b505050506040513d601f19601f8201168201806040525081019061083591906120d6565b6001600160a01b03161461088b5760405162461bcd60e51b815260206004820152601d60248201527f4572726f72204a6f696e47616d653a20496e76616c696420746f6b656e00000060448201526064016105b2565b61089481611cae565b15156001146108de5760405162461bcd60e51b81526020600482015260166024820152754572726f72204a6f696e47616d653a2072656d6f766560501b60448201526064016105b2565b600154604051632142170760e11b81526001600160a01b03838116600483015230602483015260448201859052909116906342842e0e90606401600060405180830381600087803b15801561093257600080fd5b505af1158015610946573d6000803e3d6000fd5b505050506001600160a01b038116600090815260046020908152604091829020438155600181018590558251338152918201859052917f7be4aa176d10b29beff5eb3472802589ecda04a24addff6db457290087f1d4ff91015b60405180910390a1505050565b6109b56117ec565b600c55565b6109c26117ec565b6105dd6000611df1565b6109d46117ec565b600655565b6002546040516370a0823160e01b81526001600160a01b03838116600483015260009283928392839283928392839283928392839216906370a0823190602401602060405180830381865afa158015610a36573d6000803e3d6000fd5b505050506040513d601f19601f82011682018060405250810190610a5a91906120f3565b6001600160a01b038c81166000908152600460208181526040928390208351808501855281548152600191820154928101839052905493516311d5c6b560e01b8152928301829052949e509c509116906311d5c6b590602401602060405180830381865afa158015610ad0573d6000803e3d6000fd5b505050506040513d601f19601f82011682018060405250810190610af491906120f3565b6001600160a01b038d166000908152600360208181526040928390208351608081018552815460ff16151580825260018301549382018490526002830154958201869052919093015460608401819052949d50439c509a5098509096509094508415610c2057600c54600090610b6a90876118e8565b90506000610b788b8a6118e8565b9050878910610c015760008c815260096020526040902054600c54610b9c91611e41565b60008d815260096020526040902054610bbf90610bb985856118fd565b90611e41565b10610be45760008c815260096020526040902054600c54610bdf91611e41565b610c1b565b60008c815260096020526040902054610bdf90610bb984846118fd565b60008c815260096020526040902054610c1b908390611e41565b955050505b600560008c815260200190815260200160002054925050509193959799509193959799565b610c4d61189b565b3360008181526004602090815260408083208151808301909252805482526001015491810182905291819003610cd15760405162461bcd60e51b8152602060048201526024808201527f4572726f722053746172744c6561726e696e673a20496e76616c696420746f6b604482015263195b925960e21b60648201526084016105b2565b6001600160a01b038316600090815260036020526040902060018101544311610d3c5760405162461bcd60e51b815260206004820152601d60248201527f4572726f722053746172744c6561726e696e673a2054696d65206f757400000060448201526064016105b2565b805460ff1615610d8e5760405162461bcd60e51b815260206004820152601d60248201527f4572726f722053746172744c6561726e696e673a204c6561726e696e6700000060448201526064016105b2565b8060030154600003610da357600c5460038201555b43600182810191909155815460ff191681178255546040516311d5c6b560e01b8152600481018490527ff33b295ec158e555b8779f58b77f6a8adf4ff72795121eeea82689ad936a17e591869185916001600160a01b0316906311d5c6b590602401602060405180830381865afa158015610e22573d6000803e3d6000fd5b505050506040513d601f19601f82011682018060405250810190610e4691906120f3565b60018501546003860154604080516001600160a01b0390961686526020860194909452928401919091526060830152608082015260a0015b60405180910390a150505050565b610e9461189b565b33600081815260046020908152604080832081518083018352815481526001909101548184018190528085526005909352922054610f255760405162461bcd60e51b815260206004820152602860248201527f4572726f7220436f6e6669726d557067726164654c6576656c526f626f743a2060448201526756616c696461746560c01b60648201526084016105b2565b600081815260056020526040902054431015610f945760405162461bcd60e51b815260206004820152602860248201527f4572726f7220436f6e6669726d557067726164654c6576656c526f626f743a20604482015267151a5b59481bdd5d60c21b60648201526084016105b2565b600081815260056020526040808220919091556001549051630d5c00ed60e11b8152600481018390526001600160a01b0390911690631ab801da90602401600060405180830381600087803b158015610fec57600080fd5b505af1158015611000573d6000803e3d6000fd5b50506001546040516311d5c6b560e01b8152600481018590527ffb6096d83e401e93f68f3d4801f9343b159fe936afd8807fc0ea95922dc8f39f935086925084916001600160a01b0316906311d5c6b590602401602060405180830381865afa158015611071573d6000803e3d6000fd5b505050506040513d601f19601f8201168201806040525081019061109591906120f3565b604080516001600160a01b0390941684526020840192909252908201526060016109a0565b600a546060600081806110ce8560016118fd565b67ffffffffffffffff8111156110e6576110e6611f30565b60405190808252806020026020018201604052801561110f578160200160208202803683370190505b50935060015b85811161115c57600081815260076020526040902054855186908390811061113f5761113f61210c565b60209081029190910101528061115481612138565b915050611115565b50600c54925061116d8560016118fd565b67ffffffffffffffff81111561118557611185611f30565b6040519080825280602002602001820160405280156111ae578160200160208202803683370190505b50915060005b8581116111fb5760008181526009602052604090205483518490839081106111de576111de61210c565b6020908102919091010152806111f381612138565b9150506111b4565b506112078560016118fd565b67ffffffffffffffff81111561121f5761121f611f30565b604051908082528060200260200182016040528015611248578160200160208202803683370190505b50905060005b8581116112955760008181526008602052604090205482518390839081106112785761127861210c565b60209081029190910101528061128d81612138565b91505061124e565b509091929394565b6112a56117ec565b6105dd611e4d565b6112b56117ec565b6001600160a01b03811661131a5760405162461bcd60e51b815260206004820152602660248201527f4f776e61626c653a206e6577206f776e657220697320746865207a65726f206160448201526564647265737360d01b60648201526084016105b2565b61132381611df1565b50565b61132e61189b565b33600081815260046020908152604080832081518083019092528054825260010154918101829052918190036113b75760405162461bcd60e51b815260206004820152602860248201527f4572726f7220557067726164654c6576656c526f626f743a20496e76616c6964604482015267081d1bdad95b925960c21b60648201526084016105b2565b6001546040516311d5c6b560e01b8152600481018390526000916001600160a01b0316906311d5c6b590602401602060405180830381865afa158015611401573d6000803e3d6000fd5b505050506040513d601f19601f8201168201806040525081019061142591906120f3565b9050600a5481106114875760405162461bcd60e51b815260206004820152602660248201527f4572726f7220557067726164654c6576656c526f626f743a20496e76616c6964604482015265081b195d995b60d21b60648201526084016105b2565b600760006114968360016118fd565b8152602081019190915260409081016000205460025491516370a0823160e01b81526001600160a01b038781166004830152919291909116906370a0823190602401602060405180830381865afa1580156114f5573d6000803e3d6000fd5b505050506040513d601f19601f8201168201806040525081019061151991906120f3565b10156115785760405162461bcd60e51b815260206004820152602860248201527f4572726f7220557067726164654c6576656c526f626f743a20496e76616c69646044820152672062616c616e636560c01b60648201526084016105b2565b6002546001600160a01b03166323b872dd85306007600061159a8760016118fd565b8152602081019190915260409081016000205490516001600160e01b031960e086901b1681526001600160a01b03938416600482015292909116602483015260448201526064016020604051808303816000875af1158015611600573d6000803e3d6000fd5b505050506040513d601f19601f820116820180604052508101906116249190612151565b50611655600860006116378460016118fd565b815260200190815260200160002054436118fd90919063ffffffff16565b6000838152600560209081526040918290209290925580516001600160a01b038716815291820184905281018290527fd694a05dee33f4e29ddbd84025ef9db2c0282fc4c1a5840e08cc66936125304890606001610e7e565b3360008181526004602090815260408083208151808301909252805482526001015491810182905291036117335760405162461bcd60e51b815260206004820152602660248201527f4572726f72204f757447616d653a20486176656e2774206a6f696e6564207468604482015265652067616d6560d01b60648201526084016105b2565b6001600160a01b0382166000908152600360208181526040928390208351608081018552815460ff16151580825260018084015494830194909452600283015495820195909552920154606083015290919003611792576117926106c5565b61179b33611cae565b15156001146107aa5760405162461bcd60e51b815260206004820152601a60248201527f4572726f72204f757447616d653a2072656d6f7665526f626f7400000000000060448201526064016105b2565b6000546001600160a01b031633146105dd5760405162461bcd60e51b815260206004820181905260248201527f4f776e61626c653a2063616c6c6572206973206e6f7420746865206f776e657260448201526064016105b2565b61184e611e90565b6000805460ff60a01b191690557f5db9ee0a495bf2e6ff9c91a7834c1ba4fdd244a5e8aa4e537bd38aeae4b073aa335b6040516001600160a01b03909116815260200160405180910390a1565b600054600160a01b900460ff16156105dd5760405162461bcd60e51b815260206004820152601060248201526f14185d5cd8589b194e881c185d5cd95960821b60448201526064016105b2565b60006118f48284612173565b90505b92915050565b60006118f48284612186565b6001600160a01b0382811660009081526004602081815260408084208151808301835281548152600191820154938101849052905491516311d5c6b560e01b8152938401839052949193929116906311d5c6b590602401602060405180830381865afa15801561197d573d6000803e3d6000fd5b505050506040513d601f19601f820116820180604052508101906119a191906120f3565b6000818152600960205260409020549091506119bd8582611e41565b6002546040516370a0823160e01b81523060048201526001600160a01b03909116906370a0823190602401602060405180830381865afa158015611a05573d6000803e3d6000fd5b505050506040513d601f19601f82011682018060405250810190611a2991906120f3565b10611b0d576002546001600160a01b031663a9059cbb87611a4a8885611e41565b6040516001600160e01b031960e085901b1681526001600160a01b03909216600483015260248201526044016020604051808303816000875af1158015611a95573d6000803e3d6000fd5b505050506040513d601f19601f82011682018060405250810190611ab99190612151565b507fa39a00ad9a4d838556ef2f0b9a443bad63c27c494e2442d56db77decf186625e86611ae68784611e41565b604080516001600160a01b03909316835260208301919091520160405180910390a1611ca6565b6002546040516370a0823160e01b81523060048201526001600160a01b039091169063a9059cbb90889083906370a0823190602401602060405180830381865afa158015611b5f573d6000803e3d6000fd5b505050506040513d601f19601f82011682018060405250810190611b8391906120f3565b6040516001600160e01b031960e085901b1681526001600160a01b03909216600483015260248201526044016020604051808303816000875af1158015611bce573d6000803e3d6000fd5b505050506040513d601f19601f82011682018060405250810190611bf29190612151565b506002546040516370a0823160e01b81523060048201527fa39a00ad9a4d838556ef2f0b9a443bad63c27c494e2442d56db77decf186625e9188916001600160a01b03909116906370a0823190602401602060405180830381865afa158015611c5f573d6000803e3d6000fd5b505050506040513d601f19601f82011682018060405250810190611c8391906120f3565b604080516001600160a01b03909316835260208301919091520160405180910390a15b505050505050565b6001600160a01b03811660009081526004602052604081206001810154808303611cdc575060019392505050565b60065482544391611ced91906118fd565b1115611d3b5760405162461bcd60e51b815260206004820152601b60248201527f4572726f722072656d6f7665526f626f743a2054696d65206f7574000000000060448201526064016105b2565b600154604051632142170760e11b81523060048201526001600160a01b03868116602483015260448201849052909116906342842e0e90606401600060405180830381600087803b158015611d8f57600080fd5b505af1158015611da3573d6000803e3d6000fd5b505060006001850155505060408051338152602081018390527fe86a6823a30ab366554e6a4c423e2346f68fb635703de05730f33d0546b1ca94910160405180910390a15060019392505050565b600080546001600160a01b038381166001600160a01b0319831681178455604051919092169283917f8be0079c531659141344cd1fd0a4f28419497f9722a3daafe3b4186f6b6457e09190a35050565b60006118f48284612199565b611e5561189b565b6000805460ff60a01b1916600160a01b1790557f62e78cea01bee320cd4e420270b5ea74000d11b0c9f74754ebdbfc544b05a25861187e3390565b600054600160a01b900460ff166105dd5760405162461bcd60e51b815260206004820152601460248201527314185d5cd8589b194e881b9bdd081c185d5cd95960621b60448201526064016105b2565b600060208284031215611ef257600080fd5b5035919050565b60008060408385031215611f0c57600080fd5b50508035926020909101359150565b6001600160a01b038116811461132357600080fd5b634e487b7160e01b600052604160045260246000fd5b60008060008060808587031215611f5c57600080fd5b8435611f6781611f1b565b93506020850135611f7781611f1b565b925060408501359150606085013567ffffffffffffffff80821115611f9b57600080fd5b818701915087601f830112611faf57600080fd5b813581811115611fc157611fc1611f30565b604051601f8201601f19908116603f01168101908382118183101715611fe957611fe9611f30565b816040528281528a602084870101111561200257600080fd5b82602086016020830137600060208483010152809550505050505092959194509250565b60006020828403121561203857600080fd5b813561204381611f1b565b9392505050565b600081518084526020808501945080840160005b8381101561207a5781518752958201959082019060010161205e565b509495945050505050565b85815260a06020820152600061209e60a083018761204a565b85604084015282810360608401526120b6818661204a565b905082810360808401526120ca818561204a565b98975050505050505050565b6000602082840312156120e857600080fd5b815161204381611f1b565b60006020828403121561210557600080fd5b5051919050565b634e487b7160e01b600052603260045260246000fd5b634e487b7160e01b600052601160045260246000fd5b60006001820161214a5761214a612122565b5060010190565b60006020828403121561216357600080fd5b8151801515811461204357600080fd5b818103818111156118f7576118f7612122565b808201808211156118f7576118f7612122565b80820281158282048414176118f7576118f761212256fea26469706673582212207eafd7ee0467563e3c03c7d88def18a403e0107affc6ab5461d56c26c79ff75764736f6c63430008110033",
  "immutableReferences": {},
  "source": "// SPDX-License-Identifier: MIT\npragma solidity ^0.8.0;\n\nimport \"@openzeppelin/contracts/utils/math/SafeMath.sol\";\nimport \"@openzeppelin/contracts/access/Ownable.sol\";\nimport \"@openzeppelin/contracts/security/Pausable.sol\";\nimport \"@openzeppelin/contracts/token/ERC20/IERC20.sol\";\nimport \"@openzeppelin/contracts/token/ERC721/IERC721Receiver.sol\";\n\nimport \"./interfaces/IRobot.sol\";\n\n    /**\n    This contract allows users to learn by using their NFT robots. \n    Users can join the game by transferring their robots to the contract, \n    and the contract will start a learning process based on the robot's level. \n    Users can upgrade their robots' level by paying tokens and waiting for a period of time. \n    The contract rewards users with tokens for participating in the learning process.\n    */\n\ncontract Learning is Ownable, IERC721Receiver, Pausable\n{\n    using SafeMath for uint256;\n\n    IRobot public Robot;          // NFT learn\n    IERC20 public TokenReward;     // Reward\n\n    // stores the LearnData of each user.\n    mapping(address => LearnData) public DataUserLearn;\n\n    // stores the RobotData of each user.\n    mapping(address => RobotData) public RobotJoinGameOfUser;\n\n    //stores the block number of the pending level upgrade for each robot NFT.\n    mapping(uint256 => uint256) public PendingBlockUpgradeLevelRobotNFT;\n\n    // config\n    \n    //number of blocks a user has to wait before they can remove their NFT from the game.\n    uint256 public DelayBlockRobotNFTOutGame;\n\n    //stores the price to upgrade each level of robot NFT.\n    mapping(uint256 => uint256) public PriceUpgradeLevelRobotNFT; \n\n    // stores the number of blocks needed to upgrade each level of robot NFT.\n    mapping(uint256 => uint256) public BlockUpgradeLevelRobotNFT; \n\n    //stores the reward for each block of learning based on the robot NFT level.\n    mapping(uint256 => uint256) public RewardPerBlockOfLevel;\n\n    // the maximum level of robot NFT that can join the game.\n    uint256 public MaxLevelOfRobotNFTInGame;\n\n    //the number of blocks a user has to wait before they can start learning again.\n    uint256 public DelayBlockLearnNextTime;\n\n    //the total number of blocks a user needs to learn to earn rewards.\n    uint256 public TotalBlockLearnEachTime;\n\n    // Event action\n    event OnJoinGame(address user, uint256 tokenId);\n    event OnOutGame(address user, uint256 tokenId);\n    event OnUpgradeLevelRobot(address user, uint256 tokenId, uint256 level);\n    event OnConfirmUpgradeLevelRobot(address user, uint256 tokenId, uint256 level);\n    event OnStartLearn(address user, uint256 tokenId, uint256 level, uint256 startBlockLearn, uint256 pendingBlockLearn);\n    event OnStopLearn(address user, uint256 tokenId, uint256 level, uint256 totalBlockLearnEachTime, uint256 stopBlockLearn);\n    event OnBonusReward(address user, uint256 AmountTokenReward);\n\n    struct LearnData\n    {\n        bool Learning; //a boolean that indicates whether the user is currently in a learning session             \n        uint256 StartBlockLearn; //the block at which the user started the current learning session\n        uint256 StopBlockLearn; //the block at which the user stopped the current learning session\n        uint256 PendingBlockLearn; //the number of blocks remaining until the current learning session is complete\n    }\n\n    struct RobotData\n    {\n        uint256 BlockJoin; // the block at which the NFT robot was added to the game\n        uint256 TokenId; // the ID of the NFT robot\n    }\n\n    constructor(\n        IRobot robot,\n        IERC20 tokenReward)\n    {\n        Robot = robot;\n        TokenReward = tokenReward;\n        \n        // Test\n        DelayBlockRobotNFTOutGame = 50;\n        TotalBlockLearnEachTime = 30;       \n        DelayBlockLearnNextTime = 10;\n\n        PriceUpgradeLevelRobotNFT[0] = 0;\n        PriceUpgradeLevelRobotNFT[1] = 100e18;\n        PriceUpgradeLevelRobotNFT[2] = 200e18;\n        PriceUpgradeLevelRobotNFT[3] = 300e18;\n\n        BlockUpgradeLevelRobotNFT[0] = 0;\n        BlockUpgradeLevelRobotNFT[1] = 100;\n        BlockUpgradeLevelRobotNFT[2] = 200;\n        BlockUpgradeLevelRobotNFT[3] = 300;\n\n        RewardPerBlockOfLevel[0] = 5e17;\n        RewardPerBlockOfLevel[1] = 1e18;\n        RewardPerBlockOfLevel[2] = 2e18;\n        RewardPerBlockOfLevel[3] = 3e18;\n\n        MaxLevelOfRobotNFTInGame = 3;\n    }\n\n\n    function onERC721Received(address, address, uint256, bytes memory) public virtual override returns (bytes4) \n    {\n        return this.onERC721Received.selector;\n    }\n\n    // owner acction\n    function PauseSystem() public onlyOwner \n    {\n        _pause();\n    }\n\n    function UnpauseSystem() public onlyOwner\n    {\n        _unpause();\n    }\n\n    function SetDelayBlockRobotNFTOutGame(uint256 value) public onlyOwner \n    {\n        DelayBlockRobotNFTOutGame = value;\n    }\n\n    function SetMaxLevelOfRobotNFTinGame(uint256 maxLevelOfRobotNFTinGame) public onlyOwner \n    {\n        MaxLevelOfRobotNFTInGame = maxLevelOfRobotNFTinGame;\n    }\n\n    function SetTotalBlockLearnEachTime(uint256 totalBlockLearnEachTime) public onlyOwner\n    {\n        TotalBlockLearnEachTime = totalBlockLearnEachTime;\n    }\n\n    function SetRewardPerBlockOfLevel(uint256 level, uint256 value) public onlyOwner \n    {\n        require(level <= MaxLevelOfRobotNFTInGame, \"Invalid max level\");\n        RewardPerBlockOfLevel[level] = value;\n    }\n\n    function SetPriceUpgradeLevelRobotNFT(uint256 level, uint256 price) public onlyOwner\n    {\n        require(level <= MaxLevelOfRobotNFTInGame,  \"Error SetPriceUpgradeLevelRobotNFT: Invalid level\");\n        PriceUpgradeLevelRobotNFT[level] = price;\n    }\n\n    function SetBlockUpgradeLevelRobotNFT(uint256 level, uint256 quantityBlock) public onlyOwner\n    {\n        require(level <= MaxLevelOfRobotNFTInGame,  \"Error SetBlockUpgradeLevelRobotNFT: Invalid level\");\n        BlockUpgradeLevelRobotNFT[level] = quantityBlock;\n    }\n\n    //user action\n    \n    /**\n    allows the user to join the game by transferring their robot NFT to the game contract, \n    and records the robot's data including the block number at which it joined \n     */\n    function LetRobotNFTJoinTheGame(uint256 tokenId) public whenNotPaused\n    {\n        address user = msg.sender;\n        require(Robot.ownerOf(tokenId) == user, \"Error JoinGame: Invalid token\");\n        require(removeRobot(user) == true, \"Error JoinGame: remove\");\n\n        Robot.safeTransferFrom(user, address(this), tokenId);\n\n        RobotData storage robotData = RobotJoinGameOfUser[user];\n        robotData.BlockJoin = block.number;\n        robotData.TokenId = tokenId;\n\n        emit OnJoinGame(msg.sender, tokenId);\n    }\n\n    /**\n    allows a user to remove their robot NFT from the game. \n    If the user's robot is currently in the process of learning, \n    the function stops the learning process. \n    The function returns an error if the robot could not be removed from the game.\n    */\n    function LetRobotNFTOutOfTheGame() public \n    {\n        address user = msg.sender;\n        RobotData memory robotData = RobotJoinGameOfUser[user];\n        require(robotData.TokenId != 0, \"Error OutGame: Haven't joined the game\");\n\n        LearnData memory data = DataUserLearn[user]; \n        if (data.Learning == true) \n        {\n            ForRobotNFTStopLearn();\n        }\n        require(removeRobot(msg.sender) == true, \"Error OutGame: removeRobot\");\n    }\n\n    /**\n    allows users to upgrade the level of their robot NFT if they have enough balance. \n    It checks if the robot NFT is valid and the user has enough balance to pay the price of upgrading the level.\n     */\n    function UpgradeLevelRobot() public whenNotPaused\n    {\n        address user = msg.sender;\n        RobotData memory robotData = RobotJoinGameOfUser[user];\n        uint256 tokenId = robotData.TokenId;\n        require(tokenId != 0, \"Error UpgradeLevelRobot: Invalid tokenId\");\n\n        uint256 level = Robot.Level(tokenId);\n        require(level < MaxLevelOfRobotNFTInGame, \"Error UpgradeLevelRobot: Invalid level\");\n        require(TokenReward.balanceOf(user) >= PriceUpgradeLevelRobotNFT[level.add(1)], \"Error UpgradeLevelRobot: Invalid balance\");\n        \n        TokenReward.transferFrom(user, address(this), PriceUpgradeLevelRobotNFT[level.add(1)]);\n\n        PendingBlockUpgradeLevelRobotNFT[tokenId] = block.number.add(BlockUpgradeLevelRobotNFT[level.add(1)]);\n\n        emit OnUpgradeLevelRobot(user, tokenId, level);\n    }\n\n    /**\n    confirms that the user's robot is ready to upgrade to the next level, \n    updates the 'PendingBlockUpgradeLevelRobotNFT' to 0,\n    and upgrades the level of the robot.\n    */\n    function ConfirmUpgradeLevelRobot() public whenNotPaused\n    {\n        address user = msg.sender;\n        RobotData memory robotData = RobotJoinGameOfUser[user];\n        uint256 tokenId = robotData.TokenId;\n        require(PendingBlockUpgradeLevelRobotNFT[tokenId] > 0, \"Error ConfirmUpgradeLevelRobot: Validate\");\n        require(block.number >= PendingBlockUpgradeLevelRobotNFT[tokenId], \"Error ConfirmUpgradeLevelRobot: Time out\");\n        PendingBlockUpgradeLevelRobotNFT[tokenId] = 0;\n        Robot.UpgradeLevel(tokenId);\n\n        emit OnConfirmUpgradeLevelRobot(user, tokenId, Robot.Level(tokenId));\n    }\n\n    /**\n    allows the user who called the function to start their robot's learning process \n    */\n    function ForRobotNFTToLearn() public whenNotPaused \n    {\n        address user = msg.sender;\n        RobotData memory robotData = RobotJoinGameOfUser[user];\n        uint256 tokenId = robotData.TokenId;\n        require(tokenId != 0, \"Error StartLearning: Invalid tokenId\");\n\n        LearnData storage data = DataUserLearn[user]; \n        require(data.StartBlockLearn < block.number, \"Error StartLearning: Time out\");\n        require(data.Learning == false, \"Error StartLearning: Learning\");\n\n        if(data.PendingBlockLearn == 0)\n        {\n            data.PendingBlockLearn = TotalBlockLearnEachTime;\n        }\n\n        data.StartBlockLearn = block.number;\n        data.Learning = true;\n\n        emit OnStartLearn(user, tokenId, Robot.Level(tokenId), data.StartBlockLearn, data.PendingBlockLearn);\n    }\n\n    /*\n    allows the user who called the function to stop their robot's learning process and\n    receive bonus tokens based on the number of blocks learned\n     */\n    function ForRobotNFTStopLearn() public whenNotPaused\n    {\n        address user = msg.sender;\n\n        LearnData storage data = DataUserLearn[user]; \n        require(data.Learning == true, \"Error StopLearning: Not learning\");\n\n        uint256 totalBlockLearnedOfUser = block.number.sub(data.StartBlockLearn);\n        if(totalBlockLearnedOfUser >= data.PendingBlockLearn)\n        {\n            totalBlockLearnedOfUser = data.PendingBlockLearn;\n\n            data.StartBlockLearn = block.number.add(DelayBlockLearnNextTime);\n            data.PendingBlockLearn = 0;\n        }\n        else\n        {\n            data.PendingBlockLearn = data.PendingBlockLearn.sub(totalBlockLearnedOfUser);\n        }\n        data.Learning = false;\n        data.StopBlockLearn = block.number;\n\n        DoBonusToken(user, totalBlockLearnedOfUser);\n    }\n\n    function GetData(address user) public view returns(\n        uint256 cyberCreditBalance,\n        uint256 tokenId,\n        uint256 levelRobotJoinGameOfUser,\n        uint256 blockNumber,\n        bool learning,\n        uint256 startBlockLearn,\n        uint256 stopBlockLearn,\n        uint256 pendingBlockLearn,\n        uint256 rewardPerDay,\n        uint256 pendingBlockUpgradeLevelRobotNFT\n    )\n    {\n        cyberCreditBalance = TokenReward.balanceOf(user);\n        RobotData memory robotData = RobotJoinGameOfUser[user];\n        tokenId = robotData.TokenId;\n        levelRobotJoinGameOfUser = Robot.Level(tokenId);\n        blockNumber = block.number;\n\n        LearnData memory data = DataUserLearn[user];\n        learning = data.Learning;\n        startBlockLearn = data.StartBlockLearn;\n        pendingBlockLearn = data.PendingBlockLearn;\n        stopBlockLearn = data.StopBlockLearn;\n\n        if(pendingBlockLearn != 0) \n        {\n            uint256 totalBlockLearned = TotalBlockLearnEachTime.sub(pendingBlockLearn);\n            uint256 totalBlockLearnEachTimeing = blockNumber.sub(startBlockLearn);\n\n            rewardPerDay = (startBlockLearn < stopBlockLearn) ?\n                totalBlockLearned.mul(RewardPerBlockOfLevel[levelRobotJoinGameOfUser]) :\n                    ((totalBlockLearned.add(totalBlockLearnEachTimeing))\n                        .mul(RewardPerBlockOfLevel[levelRobotJoinGameOfUser]) <\n                        TotalBlockLearnEachTime.mul(RewardPerBlockOfLevel[levelRobotJoinGameOfUser])) ? \n                            (totalBlockLearned.add(totalBlockLearnEachTimeing))\n                            .mul(RewardPerBlockOfLevel[levelRobotJoinGameOfUser]) :\n                                TotalBlockLearnEachTime.mul(RewardPerBlockOfLevel[levelRobotJoinGameOfUser]);\n        }\n\n        pendingBlockUpgradeLevelRobotNFT  = PendingBlockUpgradeLevelRobotNFT[tokenId];\n        \n    }\n\n    function GetConfigSystem() public view returns(\n        uint256 maxLevelOfRobotNFTinGame,\n        uint256[] memory priceUpgradeLevelRobotNFTLevel,\n        uint256 totalBlockLearnEachTime,\n        uint256[] memory rewardPerBlockOfLevel,\n        uint256[] memory blockUpgradeLevelRobotNFT\n    )\n    {\n        maxLevelOfRobotNFTinGame = MaxLevelOfRobotNFTInGame;\n\n        priceUpgradeLevelRobotNFTLevel = new uint256[](maxLevelOfRobotNFTinGame.add(1));\n        for(uint level = 1; level <= maxLevelOfRobotNFTinGame; level++)\n        {\n            priceUpgradeLevelRobotNFTLevel[level] = PriceUpgradeLevelRobotNFT[level]; \n        }\n\n        totalBlockLearnEachTime = TotalBlockLearnEachTime;\n\n        rewardPerBlockOfLevel = new uint256[](maxLevelOfRobotNFTinGame.add(1));\n        for(uint level = 0; level <= maxLevelOfRobotNFTinGame; level++)\n        {\n            rewardPerBlockOfLevel[level] = RewardPerBlockOfLevel[level];\n        }\n\n        blockUpgradeLevelRobotNFT = new uint256[](maxLevelOfRobotNFTinGame.add(1));\n        for(uint level = 0; level <= maxLevelOfRobotNFTinGame; level++)\n        {\n            blockUpgradeLevelRobotNFT[level] = BlockUpgradeLevelRobotNFT[level];\n        }\n    }\n\n    /**\n    rewards a specified 'user' with bonus tokens based on the level of their robot and\n    a specified 'totalBlockLearned' value. \n     */\n    function DoBonusToken(address user, uint256 totalBlockLearned) private \n    {\n        RobotData memory robotData = RobotJoinGameOfUser[user];\n        uint256 tokenId = robotData.TokenId;\n        uint256 level = Robot.Level(tokenId);\n        uint256 rewardPerBlock = RewardPerBlockOfLevel[level];\n        if(TokenReward.balanceOf(address(this)) >= totalBlockLearned.mul(rewardPerBlock))\n        {\n            TokenReward.transfer(user, totalBlockLearned.mul(rewardPerBlock));\n\n            emit OnBonusReward(user, totalBlockLearned.mul(rewardPerBlock));\n        }\n        else\n        {\n            TokenReward.transfer(user, TokenReward.balanceOf(address(this)));\n\n            emit OnBonusReward(user, TokenReward.balanceOf(address(this)));\n        }\n    }  \n\n    /** \n   removes the NFT robot of a specified 'user' from the game contract \n   if the robot has been in the game for a specified amount of time.\n    */\n    function removeRobot(address user) private returns(bool)\n    {\n        RobotData storage robotData = RobotJoinGameOfUser[user];\n        uint256 tokenId = robotData.TokenId;\n\n        if(tokenId == 0) return true;\n        \n        require(robotData.BlockJoin.add(DelayBlockRobotNFTOutGame) <= block.number, \"Error removeRobot: Time out\");\n        Robot.safeTransferFrom(address(this), user, tokenId);\n\n        robotData.TokenId = 0;\n\n        emit OnOutGame(msg.sender, tokenId);\n        return true;\n    }\n}",
  "sourcePath": "/Applications/projects/garbi-contracts/contracts/Learning.sol",
  "compiler": {
    "name": "solc",
    "version": "0.8.17+commit.8df45f5f.Emscripten.clang"
  },
  "schemaVersion": "3.4.11",
  "updatedAt": "2023-03-17T07:08:45.310Z",
  "networkType": "ethereum",
  "devdoc": {
    "kind": "dev",
    "methods": {
      "owner()": {
        "details": "Returns the address of the current owner."
      },
      "paused()": {
        "details": "Returns true if the contract is paused, and false otherwise."
      },
      "renounceOwnership()": {
        "details": "Leaves the contract without owner. It will not be possible to call `onlyOwner` functions anymore. Can only be called by the current owner. NOTE: Renouncing ownership will leave the contract without an owner, thereby removing any functionality that is only available to the owner."
      },
      "transferOwnership(address)": {
        "details": "Transfers ownership of the contract to a new account (`newOwner`). Can only be called by the current owner."
      }
    },
    "version": 1
  },
  "userdoc": {
    "kind": "user",
    "methods": {
      "ConfirmUpgradeLevelRobot()": {
        "notice": "confirms that the user's robot is ready to upgrade to the next level,  updates the 'PendingBlockUpgradeLevelRobotNFT' to 0, and upgrades the level of the robot."
      },
      "ForRobotNFTToLearn()": {
        "notice": "allows the user who called the function to start their robot's learning process "
      },
      "LetRobotNFTJoinTheGame(uint256)": {
        "notice": "allows the user to join the game by transferring their robot NFT to the game contract,  and records the robot's data including the block number at which it joined "
      },
      "LetRobotNFTOutOfTheGame()": {
        "notice": "allows a user to remove their robot NFT from the game.  If the user's robot is currently in the process of learning,  the function stops the learning process.  The function returns an error if the robot could not be removed from the game."
      },
      "UpgradeLevelRobot()": {
        "notice": "allows users to upgrade the level of their robot NFT if they have enough balance.  It checks if the robot NFT is valid and the user has enough balance to pay the price of upgrading the level."
      }
    },
    "notice": "This contract allows users to learn by using their NFT robots.  Users can join the game by transferring their robots to the contract,  and the contract will start a learning process based on the robot's level.  Users can upgrade their robots' level by paying tokens and waiting for a period of time.  The contract rewards users with tokens for participating in the learning process.",
    "version": 1
  }
}