{
  "contractName": "Learning",
  "abi": [
    {
      "inputs": [
        {
          "internalType": "contract IRobot",
          "name": "robot",
          "type": "address"
        },
        {
          "internalType": "contract IERC20",
          "name": "tokenReward",
          "type": "address"
        }
      ],
      "stateMutability": "nonpayable",
      "type": "constructor"
    },
    {
      "anonymous": false,
      "inputs": [
        {
          "indexed": false,
          "internalType": "address",
          "name": "user",
          "type": "address"
        },
        {
          "indexed": false,
          "internalType": "uint256",
          "name": "AmountTokenReward",
          "type": "uint256"
        }
      ],
      "name": "OnBonusReward",
      "type": "event"
    },
    {
      "anonymous": false,
      "inputs": [
        {
          "indexed": false,
          "internalType": "address",
          "name": "user",
          "type": "address"
        },
        {
          "indexed": false,
          "internalType": "uint256",
          "name": "tokenId",
          "type": "uint256"
        },
        {
          "indexed": false,
          "internalType": "uint256",
          "name": "level",
          "type": "uint256"
        }
      ],
      "name": "OnConfirmUpgrateLevelRobot",
      "type": "event"
    },
    {
      "anonymous": false,
      "inputs": [
        {
          "indexed": false,
          "internalType": "address",
          "name": "user",
          "type": "address"
        },
        {
          "indexed": false,
          "internalType": "uint256",
          "name": "tokenId",
          "type": "uint256"
        }
      ],
      "name": "OnJoinGame",
      "type": "event"
    },
    {
      "anonymous": false,
      "inputs": [
        {
          "indexed": false,
          "internalType": "address",
          "name": "user",
          "type": "address"
        },
        {
          "indexed": false,
          "internalType": "uint256",
          "name": "tokenId",
          "type": "uint256"
        }
      ],
      "name": "OnOutGame",
      "type": "event"
    },
    {
      "anonymous": false,
      "inputs": [
        {
          "indexed": false,
          "internalType": "address",
          "name": "user",
          "type": "address"
        },
        {
          "indexed": false,
          "internalType": "uint256",
          "name": "tokenId",
          "type": "uint256"
        },
        {
          "indexed": false,
          "internalType": "uint256",
          "name": "level",
          "type": "uint256"
        },
        {
          "indexed": false,
          "internalType": "uint256",
          "name": "startBlockLearn",
          "type": "uint256"
        },
        {
          "indexed": false,
          "internalType": "uint256",
          "name": "pendingBlockLearn",
          "type": "uint256"
        }
      ],
      "name": "OnStartLearn",
      "type": "event"
    },
    {
      "anonymous": false,
      "inputs": [
        {
          "indexed": false,
          "internalType": "address",
          "name": "user",
          "type": "address"
        },
        {
          "indexed": false,
          "internalType": "uint256",
          "name": "tokenId",
          "type": "uint256"
        },
        {
          "indexed": false,
          "internalType": "uint256",
          "name": "level",
          "type": "uint256"
        },
        {
          "indexed": false,
          "internalType": "uint256",
          "name": "totalBlockLearnEachTime",
          "type": "uint256"
        },
        {
          "indexed": false,
          "internalType": "uint256",
          "name": "stopBlockLearn",
          "type": "uint256"
        }
      ],
      "name": "OnStopLearn",
      "type": "event"
    },
    {
      "anonymous": false,
      "inputs": [
        {
          "indexed": false,
          "internalType": "address",
          "name": "user",
          "type": "address"
        },
        {
          "indexed": false,
          "internalType": "uint256",
          "name": "tokenId",
          "type": "uint256"
        },
        {
          "indexed": false,
          "internalType": "uint256",
          "name": "level",
          "type": "uint256"
        }
      ],
      "name": "OnUpgrateLevelRobot",
      "type": "event"
    },
    {
      "anonymous": false,
      "inputs": [
        {
          "indexed": true,
          "internalType": "address",
          "name": "previousOwner",
          "type": "address"
        },
        {
          "indexed": true,
          "internalType": "address",
          "name": "newOwner",
          "type": "address"
        }
      ],
      "name": "OwnershipTransferred",
      "type": "event"
    },
    {
      "anonymous": false,
      "inputs": [
        {
          "indexed": false,
          "internalType": "address",
          "name": "account",
          "type": "address"
        }
      ],
      "name": "Paused",
      "type": "event"
    },
    {
      "anonymous": false,
      "inputs": [
        {
          "indexed": false,
          "internalType": "address",
          "name": "account",
          "type": "address"
        }
      ],
      "name": "Unpaused",
      "type": "event"
    },
    {
      "inputs": [
        {
          "internalType": "uint256",
          "name": "",
          "type": "uint256"
        }
      ],
      "name": "BlockUpgradeLevelRobotNFT",
      "outputs": [
        {
          "internalType": "uint256",
          "name": "",
          "type": "uint256"
        }
      ],
      "stateMutability": "view",
      "type": "function",
      "constant": true
    },
    {
      "inputs": [
        {
          "internalType": "address",
          "name": "",
          "type": "address"
        }
      ],
      "name": "DataUserLearn",
      "outputs": [
        {
          "internalType": "bool",
          "name": "Learning",
          "type": "bool"
        },
        {
          "internalType": "uint256",
          "name": "StartBlockLearn",
          "type": "uint256"
        },
        {
          "internalType": "uint256",
          "name": "StopBlockLearn",
          "type": "uint256"
        },
        {
          "internalType": "uint256",
          "name": "PendingBlockLearn",
          "type": "uint256"
        }
      ],
      "stateMutability": "view",
      "type": "function",
      "constant": true
    },
    {
      "inputs": [],
      "name": "DelayBlockLearnNextTime",
      "outputs": [
        {
          "internalType": "uint256",
          "name": "",
          "type": "uint256"
        }
      ],
      "stateMutability": "view",
      "type": "function",
      "constant": true
    },
    {
      "inputs": [],
      "name": "DelayBlockRobotNFTOutGame",
      "outputs": [
        {
          "internalType": "uint256",
          "name": "",
          "type": "uint256"
        }
      ],
      "stateMutability": "view",
      "type": "function",
      "constant": true
    },
    {
      "inputs": [],
      "name": "MaxLevelOfRobotNFTInGame",
      "outputs": [
        {
          "internalType": "uint256",
          "name": "",
          "type": "uint256"
        }
      ],
      "stateMutability": "view",
      "type": "function",
      "constant": true
    },
    {
      "inputs": [
        {
          "internalType": "uint256",
          "name": "",
          "type": "uint256"
        }
      ],
      "name": "PendingBlockUpgradeLevelRobotNFT",
      "outputs": [
        {
          "internalType": "uint256",
          "name": "",
          "type": "uint256"
        }
      ],
      "stateMutability": "view",
      "type": "function",
      "constant": true
    },
    {
      "inputs": [
        {
          "internalType": "uint256",
          "name": "",
          "type": "uint256"
        }
      ],
      "name": "PriceUpgradeLevelRobotNFT",
      "outputs": [
        {
          "internalType": "uint256",
          "name": "",
          "type": "uint256"
        }
      ],
      "stateMutability": "view",
      "type": "function",
      "constant": true
    },
    {
      "inputs": [
        {
          "internalType": "uint256",
          "name": "",
          "type": "uint256"
        }
      ],
      "name": "RewardPerBlockOfLevel",
      "outputs": [
        {
          "internalType": "uint256",
          "name": "",
          "type": "uint256"
        }
      ],
      "stateMutability": "view",
      "type": "function",
      "constant": true
    },
    {
      "inputs": [],
      "name": "Robot",
      "outputs": [
        {
          "internalType": "contract IRobot",
          "name": "",
          "type": "address"
        }
      ],
      "stateMutability": "view",
      "type": "function",
      "constant": true
    },
    {
      "inputs": [
        {
          "internalType": "address",
          "name": "",
          "type": "address"
        }
      ],
      "name": "RobotJoinGameOfUser",
      "outputs": [
        {
          "internalType": "uint256",
          "name": "BlockJoin",
          "type": "uint256"
        },
        {
          "internalType": "uint256",
          "name": "TokenId",
          "type": "uint256"
        }
      ],
      "stateMutability": "view",
      "type": "function",
      "constant": true
    },
    {
      "inputs": [],
      "name": "TokenReward",
      "outputs": [
        {
          "internalType": "contract IERC20",
          "name": "",
          "type": "address"
        }
      ],
      "stateMutability": "view",
      "type": "function",
      "constant": true
    },
    {
      "inputs": [],
      "name": "TotalBlockLearnEachTime",
      "outputs": [
        {
          "internalType": "uint256",
          "name": "",
          "type": "uint256"
        }
      ],
      "stateMutability": "view",
      "type": "function",
      "constant": true
    },
    {
      "inputs": [],
      "name": "owner",
      "outputs": [
        {
          "internalType": "address",
          "name": "",
          "type": "address"
        }
      ],
      "stateMutability": "view",
      "type": "function",
      "constant": true
    },
    {
      "inputs": [],
      "name": "paused",
      "outputs": [
        {
          "internalType": "bool",
          "name": "",
          "type": "bool"
        }
      ],
      "stateMutability": "view",
      "type": "function",
      "constant": true
    },
    {
      "inputs": [],
      "name": "renounceOwnership",
      "outputs": [],
      "stateMutability": "nonpayable",
      "type": "function"
    },
    {
      "inputs": [
        {
          "internalType": "address",
          "name": "newOwner",
          "type": "address"
        }
      ],
      "name": "transferOwnership",
      "outputs": [],
      "stateMutability": "nonpayable",
      "type": "function"
    },
    {
      "inputs": [
        {
          "internalType": "address",
          "name": "",
          "type": "address"
        },
        {
          "internalType": "address",
          "name": "",
          "type": "address"
        },
        {
          "internalType": "uint256",
          "name": "",
          "type": "uint256"
        },
        {
          "internalType": "bytes",
          "name": "",
          "type": "bytes"
        }
      ],
      "name": "onERC721Received",
      "outputs": [
        {
          "internalType": "bytes4",
          "name": "",
          "type": "bytes4"
        }
      ],
      "stateMutability": "nonpayable",
      "type": "function"
    },
    {
      "inputs": [],
      "name": "SetPauseSystem",
      "outputs": [],
      "stateMutability": "nonpayable",
      "type": "function"
    },
    {
      "inputs": [],
      "name": "SetEnableSystem",
      "outputs": [],
      "stateMutability": "nonpayable",
      "type": "function"
    },
    {
      "inputs": [
        {
          "internalType": "uint256",
          "name": "value",
          "type": "uint256"
        }
      ],
      "name": "SetDelayBlockRobotNFTOutGame",
      "outputs": [],
      "stateMutability": "nonpayable",
      "type": "function"
    },
    {
      "inputs": [
        {
          "internalType": "uint256",
          "name": "maxLevelOfRobotNFTinGame",
          "type": "uint256"
        }
      ],
      "name": "SetMaxLevelOfRobotNFTinGame",
      "outputs": [],
      "stateMutability": "nonpayable",
      "type": "function"
    },
    {
      "inputs": [
        {
          "internalType": "uint256",
          "name": "totalBlockLearnEachTime",
          "type": "uint256"
        }
      ],
      "name": "SetTotalBlockLearnEachTime",
      "outputs": [],
      "stateMutability": "nonpayable",
      "type": "function"
    },
    {
      "inputs": [
        {
          "internalType": "uint256",
          "name": "level",
          "type": "uint256"
        },
        {
          "internalType": "uint256",
          "name": "value",
          "type": "uint256"
        }
      ],
      "name": "SetRewardPerBlockOfLevel",
      "outputs": [],
      "stateMutability": "nonpayable",
      "type": "function"
    },
    {
      "inputs": [
        {
          "internalType": "uint256",
          "name": "level",
          "type": "uint256"
        },
        {
          "internalType": "uint256",
          "name": "price",
          "type": "uint256"
        }
      ],
      "name": "SetPriceUpgradeLevelRobotNFT",
      "outputs": [],
      "stateMutability": "nonpayable",
      "type": "function"
    },
    {
      "inputs": [
        {
          "internalType": "uint256",
          "name": "level",
          "type": "uint256"
        },
        {
          "internalType": "uint256",
          "name": "quantityBlock",
          "type": "uint256"
        }
      ],
      "name": "SetBlockUpgradeLevelRobotNFT",
      "outputs": [],
      "stateMutability": "nonpayable",
      "type": "function"
    },
    {
      "inputs": [
        {
          "internalType": "uint256",
          "name": "tokenId",
          "type": "uint256"
        }
      ],
      "name": "LetRobotNFTJoinTheGame",
      "outputs": [],
      "stateMutability": "nonpayable",
      "type": "function"
    },
    {
      "inputs": [],
      "name": "LetRobotNFTOutOfTheGame",
      "outputs": [],
      "stateMutability": "nonpayable",
      "type": "function"
    },
    {
      "inputs": [],
      "name": "UpgradeLevelRobot",
      "outputs": [],
      "stateMutability": "nonpayable",
      "type": "function"
    },
    {
      "inputs": [],
      "name": "ConfirmUpgrateLevelRobot",
      "outputs": [],
      "stateMutability": "nonpayable",
      "type": "function"
    },
    {
      "inputs": [],
      "name": "ForRobotNFTToLearn",
      "outputs": [],
      "stateMutability": "nonpayable",
      "type": "function"
    },
    {
      "inputs": [],
      "name": "LetRobotNFTStopLearn",
      "outputs": [],
      "stateMutability": "nonpayable",
      "type": "function"
    },
    {
      "inputs": [
        {
          "internalType": "address",
          "name": "user",
          "type": "address"
        }
      ],
      "name": "GetData",
      "outputs": [
        {
          "internalType": "uint256",
          "name": "cyberCreditBalance",
          "type": "uint256"
        },
        {
          "internalType": "uint256",
          "name": "tokenId",
          "type": "uint256"
        },
        {
          "internalType": "uint256",
          "name": "levelRobotJoinGameOfUser",
          "type": "uint256"
        },
        {
          "internalType": "uint256",
          "name": "blockNumber",
          "type": "uint256"
        },
        {
          "internalType": "bool",
          "name": "learning",
          "type": "bool"
        },
        {
          "internalType": "uint256",
          "name": "startBlockLearn",
          "type": "uint256"
        },
        {
          "internalType": "uint256",
          "name": "stopBlockLearn",
          "type": "uint256"
        },
        {
          "internalType": "uint256",
          "name": "pendingBlockLearn",
          "type": "uint256"
        },
        {
          "internalType": "uint256",
          "name": "rewardPerDay",
          "type": "uint256"
        },
        {
          "internalType": "uint256",
          "name": "pendingBlockUpgradeLevelRobotNFT",
          "type": "uint256"
        }
      ],
      "stateMutability": "view",
      "type": "function",
      "constant": true
    },
    {
      "inputs": [],
      "name": "GetConfigSystem",
      "outputs": [
        {
          "internalType": "uint256",
          "name": "maxLevelOfRobotNFTinGame",
          "type": "uint256"
        },
        {
          "internalType": "uint256[]",
          "name": "priceUpgradeLevelRobotNFTLevel",
          "type": "uint256[]"
        },
        {
          "internalType": "uint256",
          "name": "totalBlockLearnEachTime",
          "type": "uint256"
        },
        {
          "internalType": "uint256[]",
          "name": "rewardPerBlockOfLevel",
          "type": "uint256[]"
        },
        {
          "internalType": "uint256[]",
          "name": "blockUpgradeLevelRobotNFT",
          "type": "uint256[]"
        }
      ],
      "stateMutability": "view",
      "type": "function",
      "constant": true
    }
  ],
  "bytecode": "0x60806040523480156200001157600080fd5b506040516200251b3803806200251b8339810160408190526200003491620002ec565b6200003f3362000283565b6000805460ff60a01b19168155600180546001600160a01b039485166001600160a01b03199182161790915560028054939094169216919091179091556032600655601e600b55600a80557f6d5257204ebe7d88fd91ae87941cb2dd9d8062b64ae5a2bd2d28ec40b9fbf6df81905568056bc75e2d631000007fb39221ace053465ec3453ce2b36430bd138b997ecea25c1043da0c366812b82855680ad78ebc5ac62000007fb7c774451310d1be4108bc180d1b52823cb0ee0274a6c0081bcaf94f115fb96d55681043561a88293000007f3be6fd20d5acfde5b873b48692cd31f4d3c7e8ee8a813af4696af8859e5ca6c6557f5eff886ea0ce6ca488a3d6e336d6c0f75f46d19b42c06ce5ee98e42c96d256c781905560647fad67d757c34507f157cacfa2e3153e9f260a2244f30428821be7be64587ac55f5560c87f6add646517a5b0f6793cd5891b7937d28a5b2981a5d88ebc7cd776088fea90415561012c7f625b35f5e76f098dd7c3a05b10e2e5e78a4a01228d60c3b143426cdf36d2645555600c6020526706f05b59d3b200007f13649b2456f1b42fef0f0040b3aaeabcd21a76a0f3f5defd4f583839455116e855670de0b6b3a76400007fd421a5181c571bba3f01190c922c3b2a896fc1d84e86c9f17ac10e67ebef8b5c55671bc16d674ec800007f5d6016397a73f5e079297ac5a36fef17b4d9c3831618e63ab105738020ddd720556003908190526729a2241af62c00007fc0da782485e77ae272268ae0a3ff44c1552ecb60b3743924de17a815e0a3cfd7556009556200032b565b600080546001600160a01b038381166001600160a01b0319831681178455604051919092169283917f8be0079c531659141344cd1fd0a4f28419497f9722a3daafe3b4186f6b6457e09190a35050565b6001600160a01b0381168114620002e957600080fd5b50565b600080604083850312156200030057600080fd5b82516200030d81620002d3565b60208401519092506200032081620002d3565b809150509250929050565b6121e0806200033b6000396000f3fe608060405234801561001057600080fd5b50600436106101fa5760003560e01c806376a4cdd91161011a578063adcc7381116100ad578063f2fde38b1161007c578063f2fde38b146104f7578063f8c8df881461050a578063fc295c3c14610512578063fe517efe1461051a578063fe796ef91461052257600080fd5b8063adcc7381146104c5578063b30d3502146104cd578063c1941636146104d6578063d7724712146104de57600080fd5b806392fa8c69116100e957806392fa8c6914610474578063992d1b721461047c5780639ea561bb14610485578063a4258e47146104a557600080fd5b806376a4cdd91461039657806377628ce4146103f35780638da5cb5b1461040657806391daf9131461041757600080fd5b80633a821f9b116101925780635c975abb116101615780635c975abb146103225780635eb28fb21461033f5780636181490c14610352578063715018a61461038e57600080fd5b80633a821f9b146102be5780633e6281ed146102e95780634bdef0f0146102fc57806356a9a18a1461030f57600080fd5b8063150b7a02116101ce578063150b7a0214610259578063161743b5146102905780631ce99203146102a3578063336f1578146102ab57600080fd5b80628f45f6146101ff5780630260b2c31461021b57806306ac385e1461023b5780630cdfb0d314610250575b600080fd5b61020860095481565b6040519081526020015b60405180910390f35b610208610229366004611eda565b60056020526000908152604090205481565b61024e610249366004611ef3565b610542565b005b610208600a5481565b610277610267366004611f40565b630a85bd0160e11b949350505050565b6040516001600160e01b03199091168152602001610212565b61024e61029e366004611ef3565b6105cd565b61024e610653565b61024e6102b9366004611ef3565b610665565b6002546102d1906001600160a01b031681565b6040516001600160a01b039091168152602001610212565b61024e6102f7366004611eda565b6106c5565b61024e61030a366004611eda565b6106d2565b61024e61031d366004611eda565b6108c3565b600054600160a01b900460ff166040519015158152602001610212565b6001546102d1906001600160a01b031681565b610379610360366004612020565b6004602052600090815260409020805460019091015482565b60408051928352602083019190915201610212565b61024e6108d0565b6103d16103a4366004612020565b6003602081905260009182526040909120805460018201546002830154929093015460ff90911692919084565b6040805194151585526020850193909352918301526060820152608001610212565b61024e610401366004611eda565b6108e2565b6000546001600160a01b03166102d1565b61042a610425366004612020565b6108ef565b604080519a8b5260208b0199909952978901969096526060880194909452911515608087015260a086015260c085015260e084015261010083015261012082015261014001610212565b61024e610b5b565b61020860065481565b610208610493366004611eda565b600c6020526000908152604090205481565b6102086104b3366004611eda565b60086020526000908152604090205481565b61024e610da0565b610208600b5481565b61024e610e8a565b6104e6610e9a565b60405161021295949392919061207f565b61024e610505366004612020565b61107d565b61024e6110f6565b61024e61147e565b61024e6116ac565b610208610530366004611eda565b60076020526000908152604090205481565b61054a6117e6565b6009548211156105bb5760405162461bcd60e51b815260206004820152603160248201527f4572726f7220536574426c6f636b557067726164654c6576656c526f626f744e60448201527011950e88125b9d985b1a59081b195d995b607a1b60648201526084015b60405180910390fd5b60009182526008602052604090912055565b6105d56117e6565b6009548211156106415760405162461bcd60e51b815260206004820152603160248201527f4572726f72205365745072696365557067726164654c6576656c526f626f744e60448201527011950e88125b9d985b1a59081b195d995b607a1b60648201526084016105b2565b60009182526007602052604090912055565b61065b6117e6565b610663611840565b565b61066d6117e6565b6009548211156106b35760405162461bcd60e51b8152602060048201526011602482015270125b9d985b1a59081b585e081b195d995b607a1b60448201526064016105b2565b6000918252600c602052604090912055565b6106cd6117e6565b600955565b6106da611895565b6001546040516331a9108f60e11b815260048101839052339182916001600160a01b0390911690636352211e90602401602060405180830381865afa158015610727573d6000803e3d6000fd5b505050506040513d601f19601f8201168201806040525081019061074b91906120d0565b6001600160a01b0316146107a15760405162461bcd60e51b815260206004820152601d60248201527f4572726f72204a6f696e47616d653a20496e76616c696420746f6b656e00000060448201526064016105b2565b6107aa816118e2565b15156001146107f45760405162461bcd60e51b81526020600482015260166024820152754572726f72204a6f696e47616d653a2072656d6f766560501b60448201526064016105b2565b600154604051632142170760e11b81526001600160a01b03838116600483015230602483015260448201859052909116906342842e0e90606401600060405180830381600087803b15801561084857600080fd5b505af115801561085c573d6000803e3d6000fd5b505050506001600160a01b038116600090815260046020908152604091829020438155600181018590558251338152918201859052917f7be4aa176d10b29beff5eb3472802589ecda04a24addff6db457290087f1d4ff91015b60405180910390a1505050565b6108cb6117e6565b600b55565b6108d86117e6565b6106636000611a25565b6108ea6117e6565b600655565b6002546040516370a0823160e01b81526001600160a01b03838116600483015260009283928392839283928392839283928392839216906370a0823190602401602060405180830381865afa15801561094c573d6000803e3d6000fd5b505050506040513d601f19601f8201168201806040525081019061097091906120ed565b6001600160a01b038c81166000908152600460208181526040928390208351808501855281548152600191820154928101839052905493516311d5c6b560e01b8152928301829052949e509c509116906311d5c6b590602401602060405180830381865afa1580156109e6573d6000803e3d6000fd5b505050506040513d601f19601f82011682018060405250810190610a0a91906120ed565b6001600160a01b038d166000908152600360208181526040928390208351608081018552815460ff16151580825260018301549382018490526002830154958201869052919093015460608401819052949d50439c509a5098509096509094508415610b3657600b54600090610a809087611a75565b90506000610a8e8b8a611a75565b9050878910610b175760008c8152600c6020526040902054600b54610ab291611a8a565b60008d8152600c6020526040902054610ad590610acf8585611a96565b90611a8a565b10610afa5760008c8152600c6020526040902054600b54610af591611a8a565b610b31565b60008c8152600c6020526040902054610af590610acf8484611a96565b60008c8152600c6020526040902054610b31908390611a8a565b955050505b600560008c815260200190815260200160002054925050509193959799509193959799565b610b63611895565b3360008181526004602090815260408083208151808301909252805482526001015491810182905291819003610be55760405162461bcd60e51b815260206004820152602160248201527f4572726f722053746172744c6561726e3a20496e76616c696420746f6b656e496044820152601960fa1b60648201526084016105b2565b6001600160a01b038316600090815260036020526040902060018101544311610c505760405162461bcd60e51b815260206004820152601a60248201527f4572726f722053746172744c6561726e3a2054696d65206f757400000000000060448201526064016105b2565b805460ff1615610ca25760405162461bcd60e51b815260206004820152601a60248201527f4572726f722053746172744c6561726e3a204c6561726e696e6700000000000060448201526064016105b2565b8060030154600003610cb757600b5460038201555b43600182810191909155815460ff191681178255546040516311d5c6b560e01b8152600481018490527ff33b295ec158e555b8779f58b77f6a8adf4ff72795121eeea82689ad936a17e591869185916001600160a01b0316906311d5c6b590602401602060405180830381865afa158015610d36573d6000803e3d6000fd5b505050506040513d601f19601f82011682018060405250810190610d5a91906120ed565b60018501546003860154604080516001600160a01b0390961686526020860194909452928401919091526060830152608082015260a0015b60405180910390a150505050565b610da8611895565b336000818152600360205260409020805460ff161515600114610e0d5760405162461bcd60e51b815260206004820152601d60248201527f4572726f722053746f704c6561726e3a204e6f74206c6561726e696e6700000060448201526064016105b2565b6000610e26826001015443611a7590919063ffffffff16565b905081600301548110610e5857506003810154600a54610e47904390611a96565b600183015560006003830155610e6d565b6003820154610e679082611a75565b60038301555b815460ff19168255436002830155610e858382611aa2565b505050565b610e926117e6565b610663611e47565b600954606060008180610eae856001611a96565b67ffffffffffffffff811115610ec657610ec6611f2a565b604051908082528060200260200182016040528015610eef578160200160208202803683370190505b50935060015b858111610f3c576000818152600760205260409020548551869083908110610f1f57610f1f612106565b602090810291909101015280610f3481612132565b915050610ef5565b50600b549250610f4d856001611a96565b67ffffffffffffffff811115610f6557610f65611f2a565b604051908082528060200260200182016040528015610f8e578160200160208202803683370190505b50915060005b858111610fdb576000818152600c60205260409020548351849083908110610fbe57610fbe612106565b602090810291909101015280610fd381612132565b915050610f94565b50610fe7856001611a96565b67ffffffffffffffff811115610fff57610fff611f2a565b604051908082528060200260200182016040528015611028578160200160208202803683370190505b50905060005b85811161107557600081815260086020526040902054825183908390811061105857611058612106565b60209081029190910101528061106d81612132565b91505061102e565b509091929394565b6110856117e6565b6001600160a01b0381166110ea5760405162461bcd60e51b815260206004820152602660248201527f4f776e61626c653a206e6577206f776e657220697320746865207a65726f206160448201526564647265737360d01b60648201526084016105b2565b6110f381611a25565b50565b6110fe611895565b33600081815260046020908152604080832081518083019092528054825260010154918101829052918190036111875760405162461bcd60e51b815260206004820152602860248201527f4572726f7220557067726174654c6576656c526f626f743a20496e76616c6964604482015267081d1bdad95b925960c21b60648201526084016105b2565b6001546040516311d5c6b560e01b8152600481018390526000916001600160a01b0316906311d5c6b590602401602060405180830381865afa1580156111d1573d6000803e3d6000fd5b505050506040513d601f19601f820116820180604052508101906111f591906120ed565b905060095481106112575760405162461bcd60e51b815260206004820152602660248201527f4572726f7220557067726174654c6576656c526f626f743a20496e76616c6964604482015265081b195d995b60d21b60648201526084016105b2565b60076000611266836001611a96565b8152602081019190915260409081016000205460025491516370a0823160e01b81526001600160a01b038781166004830152919291909116906370a0823190602401602060405180830381865afa1580156112c5573d6000803e3d6000fd5b505050506040513d601f19601f820116820180604052508101906112e991906120ed565b10156113485760405162461bcd60e51b815260206004820152602860248201527f4572726f7220557067726174654c6576656c526f626f743a20496e76616c69646044820152672062616c616e636560c01b60648201526084016105b2565b6002546001600160a01b03166323b872dd85306007600061136a876001611a96565b8152602081019190915260409081016000205490516001600160e01b031960e086901b1681526001600160a01b03938416600482015292909116602483015260448201526064016020604051808303816000875af11580156113d0573d6000803e3d6000fd5b505050506040513d601f19601f820116820180604052508101906113f4919061214b565b5061142560086000611407846001611a96565b81526020019081526020016000205443611a9690919063ffffffff16565b6000838152600560209081526040918290209290925580516001600160a01b038716815291820184905281018290527ff6129d461bf2ab457e99905eab1fb1309a9754a7e9cb727c59a61317201de0fa90606001610d92565b611486611895565b336000818152600460209081526040808320815180830183528154815260019091015481840181905280855260059093529220546115175760405162461bcd60e51b815260206004820152602860248201527f4572726f7220436f6e6669726d557067726174654c6576656c526f626f743a2060448201526756616c696461746560c01b60648201526084016105b2565b6000818152600560205260409020544310156115865760405162461bcd60e51b815260206004820152602860248201527f4572726f7220436f6e6669726d557067726174654c6576656c526f626f743a20604482015267151a5b59481bdd5d60c21b60648201526084016105b2565b600081815260056020526040808220919091556001549051630d5c00ed60e11b8152600481018390526001600160a01b0390911690631ab801da90602401600060405180830381600087803b1580156115de57600080fd5b505af11580156115f2573d6000803e3d6000fd5b50506001546040516311d5c6b560e01b8152600481018590527f2143ec51ce63217223ec79381588bbba6897480594907382eadb7784eb42c12a935086925084916001600160a01b0316906311d5c6b590602401602060405180830381865afa158015611663573d6000803e3d6000fd5b505050506040513d601f19601f8201168201806040525081019061168791906120ed565b604080516001600160a01b0390941684526020840192909252908201526060016108b6565b3360008181526004602090815260408083208151808301909252805482526001015491810182905291036117315760405162461bcd60e51b815260206004820152602660248201527f4572726f72204f757447616d653a20486176656e2774206a6f696e6564207468604482015265652067616d6560d01b60648201526084016105b2565b6001600160a01b0382166000908152600360208181526040928390208351608081018552815460ff16151581526001820154928101839052600282015494810185905292015460608301529091101561178c5761178c610da0565b611795336118e2565b1515600114610e855760405162461bcd60e51b815260206004820152601a60248201527f4572726f72204f757447616d653a2072656d6f7665526f626f7400000000000060448201526064016105b2565b6000546001600160a01b031633146106635760405162461bcd60e51b815260206004820181905260248201527f4f776e61626c653a2063616c6c6572206973206e6f7420746865206f776e657260448201526064016105b2565b611848611e8a565b6000805460ff60a01b191690557f5db9ee0a495bf2e6ff9c91a7834c1ba4fdd244a5e8aa4e537bd38aeae4b073aa335b6040516001600160a01b03909116815260200160405180910390a1565b600054600160a01b900460ff16156106635760405162461bcd60e51b815260206004820152601060248201526f14185d5cd8589b194e881c185d5cd95960821b60448201526064016105b2565b6001600160a01b03811660009081526004602052604081206001810154808303611910575060019392505050565b600654825443916119219190611a96565b111561196f5760405162461bcd60e51b815260206004820152601b60248201527f4572726f722072656d6f7665526f626f743a2054696d65206f7574000000000060448201526064016105b2565b600154604051632142170760e11b81523060048201526001600160a01b03868116602483015260448201849052909116906342842e0e90606401600060405180830381600087803b1580156119c357600080fd5b505af11580156119d7573d6000803e3d6000fd5b505060006001850155505060408051338152602081018390527fe86a6823a30ab366554e6a4c423e2346f68fb635703de05730f33d0546b1ca94910160405180910390a15060019392505050565b600080546001600160a01b038381166001600160a01b0319831681178455604051919092169283917f8be0079c531659141344cd1fd0a4f28419497f9722a3daafe3b4186f6b6457e09190a35050565b6000611a81828461216d565b90505b92915050565b6000611a818284612180565b6000611a818284612197565b6001600160a01b0382811660009081526004602081815260408084208151808301835281548152600191820154938101849052905491516311d5c6b560e01b8152938401839052949193929116906311d5c6b590602401602060405180830381865afa158015611b16573d6000803e3d6000fd5b505050506040513d601f19601f82011682018060405250810190611b3a91906120ed565b6000818152600c6020526040902054909150611b568582611a8a565b6002546040516370a0823160e01b81523060048201526001600160a01b03909116906370a0823190602401602060405180830381865afa158015611b9e573d6000803e3d6000fd5b505050506040513d601f19601f82011682018060405250810190611bc291906120ed565b10611ca6576002546001600160a01b031663a9059cbb87611be38885611a8a565b6040516001600160e01b031960e085901b1681526001600160a01b03909216600483015260248201526044016020604051808303816000875af1158015611c2e573d6000803e3d6000fd5b505050506040513d601f19601f82011682018060405250810190611c52919061214b565b507fa39a00ad9a4d838556ef2f0b9a443bad63c27c494e2442d56db77decf186625e86611c7f8784611a8a565b604080516001600160a01b03909316835260208301919091520160405180910390a1611e3f565b6002546040516370a0823160e01b81523060048201526001600160a01b039091169063a9059cbb90889083906370a0823190602401602060405180830381865afa158015611cf8573d6000803e3d6000fd5b505050506040513d601f19601f82011682018060405250810190611d1c91906120ed565b6040516001600160e01b031960e085901b1681526001600160a01b03909216600483015260248201526044016020604051808303816000875af1158015611d67573d6000803e3d6000fd5b505050506040513d601f19601f82011682018060405250810190611d8b919061214b565b506002546040516370a0823160e01b81523060048201527fa39a00ad9a4d838556ef2f0b9a443bad63c27c494e2442d56db77decf186625e9188916001600160a01b03909116906370a0823190602401602060405180830381865afa158015611df8573d6000803e3d6000fd5b505050506040513d601f19601f82011682018060405250810190611e1c91906120ed565b604080516001600160a01b03909316835260208301919091520160405180910390a15b505050505050565b611e4f611895565b6000805460ff60a01b1916600160a01b1790557f62e78cea01bee320cd4e420270b5ea74000d11b0c9f74754ebdbfc544b05a2586118783390565b600054600160a01b900460ff166106635760405162461bcd60e51b815260206004820152601460248201527314185d5cd8589b194e881b9bdd081c185d5cd95960621b60448201526064016105b2565b600060208284031215611eec57600080fd5b5035919050565b60008060408385031215611f0657600080fd5b50508035926020909101359150565b6001600160a01b03811681146110f357600080fd5b634e487b7160e01b600052604160045260246000fd5b60008060008060808587031215611f5657600080fd5b8435611f6181611f15565b93506020850135611f7181611f15565b925060408501359150606085013567ffffffffffffffff80821115611f9557600080fd5b818701915087601f830112611fa957600080fd5b813581811115611fbb57611fbb611f2a565b604051601f8201601f19908116603f01168101908382118183101715611fe357611fe3611f2a565b816040528281528a6020848701011115611ffc57600080fd5b82602086016020830137600060208483010152809550505050505092959194509250565b60006020828403121561203257600080fd5b813561203d81611f15565b9392505050565b600081518084526020808501945080840160005b8381101561207457815187529582019590820190600101612058565b509495945050505050565b85815260a06020820152600061209860a0830187612044565b85604084015282810360608401526120b08186612044565b905082810360808401526120c48185612044565b98975050505050505050565b6000602082840312156120e257600080fd5b815161203d81611f15565b6000602082840312156120ff57600080fd5b5051919050565b634e487b7160e01b600052603260045260246000fd5b634e487b7160e01b600052601160045260246000fd5b6000600182016121445761214461211c565b5060010190565b60006020828403121561215d57600080fd5b8151801515811461203d57600080fd5b81810381811115611a8457611a8461211c565b8082028115828204841417611a8457611a8461211c565b80820180821115611a8457611a8461211c56fea26469706673582212203c9055fc17e296566d599cbb97a4a828e613f05d472dfad91cf8ab76db2e6f4164736f6c63430008110033",
  "immutableReferences": {},
  "source": "// SPDX-License-Identifier: MIT\npragma solidity ^0.8.0;\n\nimport \"@openzeppelin/contracts/utils/math/SafeMath.sol\";\nimport \"@openzeppelin/contracts/access/Ownable.sol\";\nimport \"@openzeppelin/contracts/security/Pausable.sol\";\nimport \"@openzeppelin/contracts/token/ERC20/IERC20.sol\";\nimport \"@openzeppelin/contracts/token/ERC721/IERC721Receiver.sol\";\n\nimport \"./interfaces/IRobot.sol\";\n\n/**\nThe Learning smart contract is a decentralized application built on the Ethereum blockchain.\nIts purpose is to allow users to learn by interacting with their NFT robots.\nUsers can join the game by transferring their NFT robots to the contract, \nwhich will then start a learning process based on the robot's level. \nUsers can upgrade their robots' level by paying a certain amount of token and \nwaiting for a certain period of time, which will be used to improve their \nlearning capabilities. The contract also rewards users with tokens for participating \nin the learning process.\n\nLibraries\nThe contract uses several libraries provided by the OpenZeppelin framework, \nincluding SafeMath, Ownable, Pausable, IERC20, and IERC721Receiver. \nThese libraries provide additional functionality and security to the contract.\n\nState Variables\n- IRobot and IERC20 are imported from the OpenZeppelin library \nand used to handle NFTs and ERC20 tokens.\n\n- Learning is an Ownable, Pausable contract that implements the \nIERC721Receiver interface.\n\n-DataUserLearn is a mapping that stores the LearnData of each user.\n-\nRobotJoinGameOfUser is a mapping that stores the RobotData of each user.\n\n-PendingBlockUpgradeLevelRobotNFT is a mapping that stores the block number \nof the pending level upgrade for each robot NFT.\n\n-DelayBlockRobotNFTOutGame is the number of blocks a user has to wait before \nthey can remove their NFT from the game.\n\n-PriceUpgradeLevelRobotNFT is a mapping that stores the price to upgrade each \nlevel of robot NFT.\n\n-BlockUpgradeLevelRobotNFT is a mapping that stores the number of blocks \nneeded to upgrade each level of robot NFT.\n\n-MaxLevelOfRobotNFTInGame is the maximum level of robot NFT that can join the game.\n\n-DelayBlockLearnNextTime is the number of blocks a user has to wait before \nthey can start learning again.\n\n-TotalBlockLearnEachTime is the total number of blocks a user needs to learn to earn rewards.\n\n-RewardPerBlockOfLevel is a mapping that stores the reward for each block of \nlearning based on the robot NFT level.\n\nStructs\n-LearnData: a struct that tracks a user's current learning progress\n\n-Learning: a boolean that indicates whether the user is currently in a learning session\n\n-StartBlockLearn: the block at which the user started the current learning session\n\n-StopBlockLearn: the block at which the user stopped the current learning session\n\n-PendingBlockLearn: the number of blocks remaining until the current learning session is complete\n\n-RobotData: a struct that tracks a user's current NFT robot and the block at which it was added to the game\n\n-BlockJoin: the block at which the NFT robot was added to the game\n\n-TokenId: the ID of the NFT robot\n\n-The contract includes several functions that allow users to join and exit the game, \nupgrade their NFTs, and start learning. The contract also includes several functions\nthat allow the owner to set the configuration parameters of the game.\n */\n\ncontract Learning is Ownable, IERC721Receiver, Pausable\n{\n    using SafeMath for uint256;\n\n    IRobot public Robot;          // NFT learn\n    IERC20 public TokenReward;     // Reward\n\n    mapping(address => LearnData) public DataUserLearn;\n    mapping(address => RobotData) public RobotJoinGameOfUser;\n    mapping(uint256 => uint256) public PendingBlockUpgradeLevelRobotNFT;\n\n    // config\n    \n    uint256 public DelayBlockRobotNFTOutGame;\n\n    mapping(uint256 => uint256) public PriceUpgradeLevelRobotNFT; \n    mapping(uint256 => uint256) public BlockUpgradeLevelRobotNFT; \n    uint256 public MaxLevelOfRobotNFTInGame;\n    uint256 public DelayBlockLearnNextTime;\n    uint256 public TotalBlockLearnEachTime;\n\n    mapping(uint256 => uint256) public RewardPerBlockOfLevel;\n\n    event OnJoinGame(address user, uint256 tokenId);\n    event OnOutGame(address user, uint256 tokenId);\n    event OnUpgrateLevelRobot(address user, uint256 tokenId, uint256 level);\n    event OnConfirmUpgrateLevelRobot(address user, uint256 tokenId, uint256 level);\n    event OnStartLearn(address user, uint256 tokenId, uint256 level, uint256 startBlockLearn, uint256 pendingBlockLearn);\n    event OnStopLearn(address user, uint256 tokenId, uint256 level, uint256 totalBlockLearnEachTime, uint256 stopBlockLearn);\n    event OnBonusReward(address user, uint256 AmountTokenReward);\n\n    struct LearnData\n    {\n        bool Learning;\n        uint256 StartBlockLearn;\n        uint256 StopBlockLearn;\n        uint256 PendingBlockLearn;\n    }\n\n    struct RobotData\n    {\n        uint256 BlockJoin;\n        uint256 TokenId;\n    }\n\n    constructor(\n        IRobot robot,\n        IERC20 tokenReward)\n    {\n        Robot = robot;\n        TokenReward = tokenReward;\n        \n        // Test\n        DelayBlockRobotNFTOutGame = 50;\n        TotalBlockLearnEachTime = 30;       \n        DelayBlockLearnNextTime = 10;\n\n        PriceUpgradeLevelRobotNFT[0] = 0;\n        PriceUpgradeLevelRobotNFT[1] = 100e18;\n        PriceUpgradeLevelRobotNFT[2] = 200e18;\n        PriceUpgradeLevelRobotNFT[3] = 300e18;\n\n        BlockUpgradeLevelRobotNFT[0] = 0;\n        BlockUpgradeLevelRobotNFT[1] = 100;\n        BlockUpgradeLevelRobotNFT[2] = 200;\n        BlockUpgradeLevelRobotNFT[3] = 300;\n\n        RewardPerBlockOfLevel[0] = 5e17;\n        RewardPerBlockOfLevel[1] = 1e18;\n        RewardPerBlockOfLevel[2] = 2e18;\n        RewardPerBlockOfLevel[3] = 3e18;\n\n        MaxLevelOfRobotNFTInGame = 3;\n    }\n\n\n    function onERC721Received(address, address, uint256, bytes memory) public virtual override returns (bytes4) \n    {\n        return this.onERC721Received.selector;\n    }\n\n    // owner acction\n    function SetPauseSystem() public onlyOwner \n    {\n        _pause();\n    }\n\n    function SetEnableSystem() public onlyOwner\n    {\n        _unpause();\n    }\n\n    function SetDelayBlockRobotNFTOutGame(uint256 value) public onlyOwner \n    {\n        DelayBlockRobotNFTOutGame = value;\n    }\n\n    function SetMaxLevelOfRobotNFTinGame(uint256 maxLevelOfRobotNFTinGame) public onlyOwner \n    {\n        MaxLevelOfRobotNFTInGame = maxLevelOfRobotNFTinGame;\n    }\n\n    function SetTotalBlockLearnEachTime(uint256 totalBlockLearnEachTime) public onlyOwner\n    {\n        TotalBlockLearnEachTime = totalBlockLearnEachTime;\n    }\n\n    function SetRewardPerBlockOfLevel(uint256 level, uint256 value) public onlyOwner \n    {\n        require(level <= MaxLevelOfRobotNFTInGame, \"Invalid max level\");\n        RewardPerBlockOfLevel[level] = value;\n    }\n\n    function SetPriceUpgradeLevelRobotNFT(uint256 level, uint256 price) public onlyOwner\n    {\n        require(level <= MaxLevelOfRobotNFTInGame,  \"Error SetPriceUpgradeLevelRobotNFT: Invalid level\");\n        PriceUpgradeLevelRobotNFT[level] = price;\n    }\n\n    function SetBlockUpgradeLevelRobotNFT(uint256 level, uint256 quantityBlock) public onlyOwner\n    {\n        require(level <= MaxLevelOfRobotNFTInGame,  \"Error SetBlockUpgradeLevelRobotNFT: Invalid level\");\n        BlockUpgradeLevelRobotNFT[level] = quantityBlock;\n    }\n\n    /**\n    This function allows a user to join the game by transferring their NFT robot to the game contract. \n    The function takes as input a tokenId, which identifies the NFT robot to be transferred. \n    The function checks that the NFT robot is owned by the user and removes it from the user's collection. \n    It then stores information about the user's participation in the game, \n    including the block number at which the user joined and the tokenId of the robot. \n    Finally, the function emits an event to notify that the user has joined the game.    \n     */\n    function LetRobotNFTJoinTheGame(uint256 tokenId) public whenNotPaused\n    {\n        address user = msg.sender;\n        require(Robot.ownerOf(tokenId) == user, \"Error JoinGame: Invalid token\");\n        require(removeRobot(user) == true, \"Error JoinGame: remove\");\n\n        Robot.safeTransferFrom(user, address(this), tokenId);\n\n        RobotData storage robotData = RobotJoinGameOfUser[user];\n        robotData.BlockJoin = block.number;\n        robotData.TokenId = tokenId;\n\n        emit OnJoinGame(msg.sender, tokenId);\n    }\n\n    /**\n    This function allows a user to leave the game by transferring their NFT robot back to their collection. \n    The function checks that the user has joined the game and removes information about \n    the user's participation in the game. If the user was learning, it stops the learning process. \n    Finally, the function removes the robot from the game contract and emits an event to notify that \n    the user has left the game.\n     */\n\n    function LetRobotNFTOutOfTheGame() public \n    {\n        address user = msg.sender;\n        RobotData memory robotData = RobotJoinGameOfUser[user];\n        require(robotData.TokenId != 0, \"Error OutGame: Haven't joined the game\");\n\n        LearnData memory data = DataUserLearn[user]; \n        if (data.StartBlockLearn > data.StopBlockLearn) \n        {\n            LetRobotNFTStopLearn();\n        }\n        require(removeRobot(msg.sender) == true, \"Error OutGame: removeRobot\");\n    }\n\n    /**\n    This function allows a user to upgrade the level of their NFT robot by paying a certain amount of tokens. \n    The function checks that the user has joined the game and that the level of the robot\n    is lower than the maximum allowed level. It also checks that the user has enough tokens to pay for the upgrade. \n    If all checks pass, the function transfers the tokens from the user to the game contract and\n    sets a pending block number for the upgrade. Finally, the function emits an event to notify \n    that the user has initiated an upgrade.\n     */\n    function UpgradeLevelRobot() public whenNotPaused\n    {\n        address user = msg.sender;\n        RobotData memory robotData = RobotJoinGameOfUser[user];\n        uint256 tokenId = robotData.TokenId;\n        require(tokenId != 0, \"Error UpgrateLevelRobot: Invalid tokenId\");\n\n        uint256 level = Robot.Level(tokenId);\n        require(level < MaxLevelOfRobotNFTInGame, \"Error UpgrateLevelRobot: Invalid level\");\n        require(TokenReward.balanceOf(user) >= PriceUpgradeLevelRobotNFT[level.add(1)], \"Error UpgrateLevelRobot: Invalid balance\");\n        \n        TokenReward.transferFrom(user, address(this), PriceUpgradeLevelRobotNFT[level.add(1)]);\n\n        PendingBlockUpgradeLevelRobotNFT[tokenId] = block.number.add(BlockUpgradeLevelRobotNFT[level.add(1)]);\n\n        emit OnUpgrateLevelRobot(user, tokenId, level);\n    }\n\n    /**\n    This function confirms the upgrade of a user's NFT robot. \n    The function checks that the upgrade has been initiated and that the pending block number \n    for the upgrade has passed. It then upgrades the level of the robot and removes the pending block number. \n    Finally, the function emits an event to notify that the upgrade has been confirmed. \n    */\n    function ConfirmUpgrateLevelRobot() public whenNotPaused\n    {\n        address user = msg.sender;\n        RobotData memory robotData = RobotJoinGameOfUser[user];\n        uint256 tokenId = robotData.TokenId;\n        require(PendingBlockUpgradeLevelRobotNFT[tokenId] > 0, \"Error ConfirmUpgrateLevelRobot: Validate\");\n        require(block.number >= PendingBlockUpgradeLevelRobotNFT[tokenId], \"Error ConfirmUpgrateLevelRobot: Time out\");\n        PendingBlockUpgradeLevelRobotNFT[tokenId] = 0;\n        Robot.UpgradeLevel(tokenId);\n\n        emit OnConfirmUpgrateLevelRobot(user, tokenId, Robot.Level(tokenId));\n    }\n\n    /**\n    This function allows a user to start the learning process for their NFT robot.\n    The function checks that the user has joined the game and that the robot is not currently learning.\n    It then sets the start block number for the learning process and sets the learning flag to true. \n    Finally, the function emits an event to notify that the learning process has started. \n    */\n    function ForRobotNFTToLearn() public whenNotPaused \n    {\n        address user = msg.sender;\n        RobotData memory robotData = RobotJoinGameOfUser[user];\n        uint256 tokenId = robotData.TokenId;\n        require(tokenId != 0, \"Error StartLearn: Invalid tokenId\");\n\n        LearnData storage data = DataUserLearn[user]; \n        require(data.StartBlockLearn < block.number, \"Error StartLearn: Time out\");\n        require(data.Learning == false, \"Error StartLearn: Learning\");\n\n        if(data.PendingBlockLearn == 0)\n        {\n            data.PendingBlockLearn = TotalBlockLearnEachTime;\n        }\n\n        data.StartBlockLearn = block.number;\n        data.Learning = true;\n\n        emit OnStartLearn(user, tokenId, Robot.Level(tokenId), data.StartBlockLearn, data.PendingBlockLearn);\n    }\n\n\n    /*\n    This function allows a user to stop the learning process for their NFT robot. \n    The function checks that the robot is currently learning and calculates the number of blocks\n    that have passed since the start of the learning process. \n    If the required number of blocks has been reached, \n    it sets the start block number for the next learning process and sets the pending block number to 0. \n    Otherwise, it updates the pending block number. \n    Finally, the function calculates the bonus tokens that the user will receive and emits an event to notify \n    that the learning process has stopped.\n     */\n    function LetRobotNFTStopLearn() public whenNotPaused\n    {\n        address user = msg.sender;\n\n        LearnData storage data = DataUserLearn[user]; \n        require(data.Learning == true, \"Error StopLearn: Not learning\");\n\n        uint256 totalBlockLearnEachTimeedOfUser = block.number.sub(data.StartBlockLearn);\n        if(totalBlockLearnEachTimeedOfUser >= data.PendingBlockLearn)\n        {\n            totalBlockLearnEachTimeedOfUser = data.PendingBlockLearn;\n\n            data.StartBlockLearn = block.number.add(DelayBlockLearnNextTime);\n            data.PendingBlockLearn = 0;\n        }\n        else\n        {\n            data.PendingBlockLearn = data.PendingBlockLearn.sub(totalBlockLearnEachTimeedOfUser);\n        }\n        data.Learning = false;\n        data.StopBlockLearn = block.number;\n\n        DoBonusToken(user, totalBlockLearnEachTimeedOfUser);\n    }\n\n    function GetData(address user) public view returns(\n        uint256 cyberCreditBalance,\n        uint256 tokenId,\n        uint256 levelRobotJoinGameOfUser,\n        uint256 blockNumber,\n        bool learning,\n        uint256 startBlockLearn,\n        uint256 stopBlockLearn,\n        uint256 pendingBlockLearn,\n        uint256 rewardPerDay,\n        uint256 pendingBlockUpgradeLevelRobotNFT\n    )\n    {\n        cyberCreditBalance = TokenReward.balanceOf(user);\n        RobotData memory robotData = RobotJoinGameOfUser[user];\n        tokenId = robotData.TokenId;\n        levelRobotJoinGameOfUser = Robot.Level(tokenId);\n        blockNumber = block.number;\n\n        LearnData memory data = DataUserLearn[user];\n        learning = data.Learning;\n        startBlockLearn = data.StartBlockLearn;\n        pendingBlockLearn = data.PendingBlockLearn;\n        stopBlockLearn = data.StopBlockLearn;\n\n        if(pendingBlockLearn != 0) \n        {\n            uint256 totalBlockLearnEachTimeed = TotalBlockLearnEachTime.sub(pendingBlockLearn);\n            uint256 totalBlockLearnEachTimeing = blockNumber.sub(startBlockLearn);\n\n            rewardPerDay = (startBlockLearn < stopBlockLearn) ?\n                totalBlockLearnEachTimeed.mul(RewardPerBlockOfLevel[levelRobotJoinGameOfUser]) :\n                    ((totalBlockLearnEachTimeed.add(totalBlockLearnEachTimeing))\n                        .mul(RewardPerBlockOfLevel[levelRobotJoinGameOfUser]) <\n                        TotalBlockLearnEachTime.mul(RewardPerBlockOfLevel[levelRobotJoinGameOfUser])) ? \n                            (totalBlockLearnEachTimeed.add(totalBlockLearnEachTimeing))\n                            .mul(RewardPerBlockOfLevel[levelRobotJoinGameOfUser]) :\n                                TotalBlockLearnEachTime.mul(RewardPerBlockOfLevel[levelRobotJoinGameOfUser]);\n        }\n\n        pendingBlockUpgradeLevelRobotNFT  = PendingBlockUpgradeLevelRobotNFT[tokenId];\n        \n    }\n\n    function GetConfigSystem() public view returns(\n        uint256 maxLevelOfRobotNFTinGame,\n        uint256[] memory priceUpgradeLevelRobotNFTLevel,\n        uint256 totalBlockLearnEachTime,\n        uint256[] memory rewardPerBlockOfLevel,\n        uint256[] memory blockUpgradeLevelRobotNFT\n    )\n    {\n        maxLevelOfRobotNFTinGame = MaxLevelOfRobotNFTInGame;\n\n        priceUpgradeLevelRobotNFTLevel = new uint256[](maxLevelOfRobotNFTinGame.add(1));\n        for(uint level = 1; level <= maxLevelOfRobotNFTinGame; level++)\n        {\n            priceUpgradeLevelRobotNFTLevel[level] = PriceUpgradeLevelRobotNFT[level]; \n        }\n\n        totalBlockLearnEachTime = TotalBlockLearnEachTime;\n\n        rewardPerBlockOfLevel = new uint256[](maxLevelOfRobotNFTinGame.add(1));\n        for(uint level = 0; level <= maxLevelOfRobotNFTinGame; level++)\n        {\n            rewardPerBlockOfLevel[level] = RewardPerBlockOfLevel[level];\n        }\n\n        blockUpgradeLevelRobotNFT = new uint256[](maxLevelOfRobotNFTinGame.add(1));\n        for(uint level = 0; level <= maxLevelOfRobotNFTinGame; level++)\n        {\n            blockUpgradeLevelRobotNFT[level] = BlockUpgradeLevelRobotNFT[level];\n        }\n    }\n\n    /**\n    This function calculates the bonus token reward for the user based on the number of blocks learned \n    by the user and transfers it to the user's address. \n    The bonus token reward is calculated based on the level of the user's robot and the reward per block for that level. \n    If the contract balance of TokenReward is less than the bonus token reward, \n    then it transfers the entire balance to the user. After transferring the bonus tokens, \n    it emits an event OnBonusReward with the user's address and the bonus token reward as parameters.\n     */\n    function DoBonusToken(address user, uint256 totalBlockLearnEachTimeed) private \n    {\n        RobotData memory robotData = RobotJoinGameOfUser[user];\n        uint256 tokenId = robotData.TokenId;\n        uint256 level = Robot.Level(tokenId);\n        uint256 rewardPerBlock = RewardPerBlockOfLevel[level];\n        if(TokenReward.balanceOf(address(this)) >= totalBlockLearnEachTimeed.mul(rewardPerBlock))\n        {\n            TokenReward.transfer(user, totalBlockLearnEachTimeed.mul(rewardPerBlock));\n\n            emit OnBonusReward(user, totalBlockLearnEachTimeed.mul(rewardPerBlock));\n        }\n        else\n        {\n            TokenReward.transfer(user, TokenReward.balanceOf(address(this)));\n\n            emit OnBonusReward(user, TokenReward.balanceOf(address(this)));\n        }\n    }  \n\n    /** \n    This function removes the robot associated with the user and transfers it to the user's address. \n    The robot can be removed only if the time since the robot was joined in the game is greater \n    than DelayBlockRobotNFTOutGame. If the robot is successfully removed, \n    it sets the token ID of the robot to 0 and emits an event OnOutGame \n    with the sender's address and the token ID as parameters. \n    The function returns true if the robot is successfully removed, else it returns false.\n    */\n    function removeRobot(address user) private returns(bool)\n    {\n        RobotData storage robotData = RobotJoinGameOfUser[user];\n        uint256 tokenId = robotData.TokenId;\n\n        if(tokenId == 0) return true;\n        \n        require(robotData.BlockJoin.add(DelayBlockRobotNFTOutGame) <= block.number, \"Error removeRobot: Time out\");\n        Robot.safeTransferFrom(address(this), user, tokenId);\n\n        robotData.TokenId = 0;\n\n        emit OnOutGame(msg.sender, tokenId);\n        return true;\n    }\n}",
  "sourcePath": "/Applications/projects/garbi-contracts/contracts/Learning.sol",
  "compiler": {
    "name": "solc",
    "version": "0.8.17+commit.8df45f5f.Emscripten.clang"
  },
  "schemaVersion": "3.4.11",
  "updatedAt": "2023-03-17T03:58:06.200Z",
  "networkType": "ethereum",
  "devdoc": {
    "kind": "dev",
    "methods": {
      "owner()": {
        "details": "Returns the address of the current owner."
      },
      "paused()": {
        "details": "Returns true if the contract is paused, and false otherwise."
      },
      "renounceOwnership()": {
        "details": "Leaves the contract without owner. It will not be possible to call `onlyOwner` functions anymore. Can only be called by the current owner. NOTE: Renouncing ownership will leave the contract without an owner, thereby removing any functionality that is only available to the owner."
      },
      "transferOwnership(address)": {
        "details": "Transfers ownership of the contract to a new account (`newOwner`). Can only be called by the current owner."
      }
    },
    "version": 1
  },
  "userdoc": {
    "kind": "user",
    "methods": {
      "ConfirmUpgrateLevelRobot()": {
        "notice": "This function confirms the upgrade of a user's NFT robot.  The function checks that the upgrade has been initiated and that the pending block number  for the upgrade has passed. It then upgrades the level of the robot and removes the pending block number.  Finally, the function emits an event to notify that the upgrade has been confirmed. "
      },
      "ForRobotNFTToLearn()": {
        "notice": "This function allows a user to start the learning process for their NFT robot. The function checks that the user has joined the game and that the robot is not currently learning. It then sets the start block number for the learning process and sets the learning flag to true.  Finally, the function emits an event to notify that the learning process has started. "
      },
      "LetRobotNFTJoinTheGame(uint256)": {
        "notice": "This function allows a user to join the game by transferring their NFT robot to the game contract.  The function takes as input a tokenId, which identifies the NFT robot to be transferred.  The function checks that the NFT robot is owned by the user and removes it from the user's collection.  It then stores information about the user's participation in the game,  including the block number at which the user joined and the tokenId of the robot.  Finally, the function emits an event to notify that the user has joined the game.    "
      },
      "LetRobotNFTOutOfTheGame()": {
        "notice": "This function allows a user to leave the game by transferring their NFT robot back to their collection.  The function checks that the user has joined the game and removes information about  the user's participation in the game. If the user was learning, it stops the learning process.  Finally, the function removes the robot from the game contract and emits an event to notify that  the user has left the game."
      },
      "UpgradeLevelRobot()": {
        "notice": "This function allows a user to upgrade the level of their NFT robot by paying a certain amount of tokens.  The function checks that the user has joined the game and that the level of the robot is lower than the maximum allowed level. It also checks that the user has enough tokens to pay for the upgrade.  If all checks pass, the function transfers the tokens from the user to the game contract and sets a pending block number for the upgrade. Finally, the function emits an event to notify  that the user has initiated an upgrade."
      }
    },
    "notice": "The Learning smart contract is a decentralized application built on the Ethereum blockchain. Its purpose is to allow users to learn by interacting with their NFT robots. Users can join the game by transferring their NFT robots to the contract,  which will then start a learning process based on the robot's level.  Users can upgrade their robots' level by paying a certain amount of token and  waiting for a certain period of time, which will be used to improve their  learning capabilities. The contract also rewards users with tokens for participating  in the learning process. Libraries The contract uses several libraries provided by the OpenZeppelin framework,  including SafeMath, Ownable, Pausable, IERC20, and IERC721Receiver.  These libraries provide additional functionality and security to the contract. State Variables - IRobot and IERC20 are imported from the OpenZeppelin library  and used to handle NFTs and ERC20 tokens. - Learning is an Ownable, Pausable contract that implements the  IERC721Receiver interface. -DataUserLearn is a mapping that stores the LearnData of each user. - RobotJoinGameOfUser is a mapping that stores the RobotData of each user. -PendingBlockUpgradeLevelRobotNFT is a mapping that stores the block number  of the pending level upgrade for each robot NFT. -DelayBlockRobotNFTOutGame is the number of blocks a user has to wait before  they can remove their NFT from the game. -PriceUpgradeLevelRobotNFT is a mapping that stores the price to upgrade each  level of robot NFT. -BlockUpgradeLevelRobotNFT is a mapping that stores the number of blocks  needed to upgrade each level of robot NFT. -MaxLevelOfRobotNFTInGame is the maximum level of robot NFT that can join the game. -DelayBlockLearnNextTime is the number of blocks a user has to wait before  they can start learning again. -TotalBlockLearnEachTime is the total number of blocks a user needs to learn to earn rewards. -RewardPerBlockOfLevel is a mapping that stores the reward for each block of  learning based on the robot NFT level. Structs -LearnData: a struct that tracks a user's current learning progress -Learning: a boolean that indicates whether the user is currently in a learning session -StartBlockLearn: the block at which the user started the current learning session -StopBlockLearn: the block at which the user stopped the current learning session -PendingBlockLearn: the number of blocks remaining until the current learning session is complete -RobotData: a struct that tracks a user's current NFT robot and the block at which it was added to the game -BlockJoin: the block at which the NFT robot was added to the game -TokenId: the ID of the NFT robot -The contract includes several functions that allow users to join and exit the game,  upgrade their NFTs, and start learning. The contract also includes several functions that allow the owner to set the configuration parameters of the game.",
    "version": 1
  }
}