{
  "contractName": "QuestionData",
  "abi": [
    {
      "anonymous": false,
      "inputs": [
        {
          "indexed": false,
          "internalType": "uint256",
          "name": "indexQuest",
          "type": "uint256"
        },
        {
          "indexed": false,
          "internalType": "string",
          "name": "question",
          "type": "string"
        },
        {
          "indexed": false,
          "internalType": "string",
          "name": "answer0",
          "type": "string"
        },
        {
          "indexed": false,
          "internalType": "string",
          "name": "answer1",
          "type": "string"
        },
        {
          "indexed": false,
          "internalType": "string",
          "name": "answer2",
          "type": "string"
        },
        {
          "indexed": false,
          "internalType": "string",
          "name": "answer3",
          "type": "string"
        },
        {
          "indexed": false,
          "internalType": "uint256",
          "name": "answerResult",
          "type": "uint256"
        }
      ],
      "name": "EventCreateQuestion",
      "type": "event"
    },
    {
      "anonymous": false,
      "inputs": [
        {
          "indexed": true,
          "internalType": "address",
          "name": "previousOwner",
          "type": "address"
        },
        {
          "indexed": true,
          "internalType": "address",
          "name": "newOwner",
          "type": "address"
        }
      ],
      "name": "OwnershipTransferred",
      "type": "event"
    },
    {
      "inputs": [
        {
          "internalType": "uint256",
          "name": "",
          "type": "uint256"
        }
      ],
      "name": "ListQuestionsContract",
      "outputs": [
        {
          "internalType": "string",
          "name": "Question",
          "type": "string"
        },
        {
          "internalType": "string",
          "name": "Answer0",
          "type": "string"
        },
        {
          "internalType": "string",
          "name": "Answer1",
          "type": "string"
        },
        {
          "internalType": "string",
          "name": "Answer2",
          "type": "string"
        },
        {
          "internalType": "string",
          "name": "Answer3",
          "type": "string"
        },
        {
          "internalType": "uint256",
          "name": "AnswerResult",
          "type": "uint256"
        }
      ],
      "stateMutability": "view",
      "type": "function",
      "constant": true
    },
    {
      "inputs": [],
      "name": "owner",
      "outputs": [
        {
          "internalType": "address",
          "name": "",
          "type": "address"
        }
      ],
      "stateMutability": "view",
      "type": "function",
      "constant": true
    },
    {
      "inputs": [],
      "name": "renounceOwnership",
      "outputs": [],
      "stateMutability": "nonpayable",
      "type": "function"
    },
    {
      "inputs": [
        {
          "internalType": "address",
          "name": "newOwner",
          "type": "address"
        }
      ],
      "name": "transferOwnership",
      "outputs": [],
      "stateMutability": "nonpayable",
      "type": "function"
    },
    {
      "inputs": [
        {
          "internalType": "uint256",
          "name": "indexQuest",
          "type": "uint256"
        },
        {
          "internalType": "string",
          "name": "question",
          "type": "string"
        },
        {
          "internalType": "string",
          "name": "answer0",
          "type": "string"
        },
        {
          "internalType": "string",
          "name": "answer1",
          "type": "string"
        },
        {
          "internalType": "string",
          "name": "answer2",
          "type": "string"
        },
        {
          "internalType": "string",
          "name": "answer3",
          "type": "string"
        },
        {
          "internalType": "uint256",
          "name": "answerResult",
          "type": "uint256"
        }
      ],
      "name": "CreateQuestion",
      "outputs": [],
      "stateMutability": "nonpayable",
      "type": "function"
    }
  ],
  "bytecode": "0x608060405234801561001057600080fd5b5061001a3361001f565b61006f565b600080546001600160a01b038381166001600160a01b0319831681178455604051919092169283917f8be0079c531659141344cd1fd0a4f28419497f9722a3daafe3b4186f6b6457e09190a35050565b610a708061007e6000396000f3fe608060405234801561001057600080fd5b50600436106100575760003560e01c806321681fec1461005c578063715018a61461008a5780638da5cb5b14610094578063951c797a146100af578063f2fde38b146100c2575b600080fd5b61006f61006a3660046105e9565b6100d5565b60405161008196959493929190610648565b60405180910390f35b6100926103b1565b005b6000546040516001600160a01b039091168152602001610081565b6100926100bd366004610760565b6103c5565b6100926100d0366004610845565b6104c6565b6001602052600090815260409020805481906100f090610875565b80601f016020809104026020016040519081016040528092919081815260200182805461011c90610875565b80156101695780601f1061013e57610100808354040283529160200191610169565b820191906000526020600020905b81548152906001019060200180831161014c57829003601f168201915b50505050509080600101805461017e90610875565b80601f01602080910402602001604051908101604052809291908181526020018280546101aa90610875565b80156101f75780601f106101cc576101008083540402835291602001916101f7565b820191906000526020600020905b8154815290600101906020018083116101da57829003601f168201915b50505050509080600201805461020c90610875565b80601f016020809104026020016040519081016040528092919081815260200182805461023890610875565b80156102855780601f1061025a57610100808354040283529160200191610285565b820191906000526020600020905b81548152906001019060200180831161026857829003601f168201915b50505050509080600301805461029a90610875565b80601f01602080910402602001604051908101604052809291908181526020018280546102c690610875565b80156103135780601f106102e857610100808354040283529160200191610313565b820191906000526020600020905b8154815290600101906020018083116102f657829003601f168201915b50505050509080600401805461032890610875565b80601f016020809104026020016040519081016040528092919081815260200182805461035490610875565b80156103a15780601f10610376576101008083540402835291602001916103a1565b820191906000526020600020905b81548152906001019060200180831161038457829003601f168201915b5050505050908060050154905086565b6103b961053f565b6103c36000610599565b565b6103cd61053f565b600381111561041b5760405162461bcd60e51b81526020600482015260156024820152741a5b9d985b1a5908185b9cddd95c881c995cdd5b1d605a1b60448201526064015b60405180910390fd5b60008781526001602052604090208061043488826108fe565b506001810161044387826108fe565b506002810161045286826108fe565b506003810161046185826108fe565b506004810161047084826108fe565b50600581018290556040517fe26ce9fe0d3693e1dd4c5002828ceb4de5122cbb407750613f2a5d70a06fe4d4906104b4908a908a908a908a908a908a908a906109be565b60405180910390a15050505050505050565b6104ce61053f565b6001600160a01b0381166105335760405162461bcd60e51b815260206004820152602660248201527f4f776e61626c653a206e6577206f776e657220697320746865207a65726f206160448201526564647265737360d01b6064820152608401610412565b61053c81610599565b50565b6000546001600160a01b031633146103c35760405162461bcd60e51b815260206004820181905260248201527f4f776e61626c653a2063616c6c6572206973206e6f7420746865206f776e65726044820152606401610412565b600080546001600160a01b038381166001600160a01b0319831681178455604051919092169283917f8be0079c531659141344cd1fd0a4f28419497f9722a3daafe3b4186f6b6457e09190a35050565b6000602082840312156105fb57600080fd5b5035919050565b6000815180845260005b818110156106285760208185018101518683018201520161060c565b506000602082860101526020601f19601f83011685010191505092915050565b60c08152600061065b60c0830189610602565b828103602084015261066d8189610602565b905082810360408401526106818188610602565b905082810360608401526106958187610602565b905082810360808401526106a98186610602565b9150508260a0830152979650505050505050565b634e487b7160e01b600052604160045260246000fd5b600082601f8301126106e457600080fd5b813567ffffffffffffffff808211156106ff576106ff6106bd565b604051601f8301601f19908116603f01168101908282118183101715610727576107276106bd565b8160405283815286602085880101111561074057600080fd5b836020870160208301376000602085830101528094505050505092915050565b600080600080600080600060e0888a03121561077b57600080fd5b87359650602088013567ffffffffffffffff8082111561079a57600080fd5b6107a68b838c016106d3565b975060408a01359150808211156107bc57600080fd5b6107c88b838c016106d3565b965060608a01359150808211156107de57600080fd5b6107ea8b838c016106d3565b955060808a013591508082111561080057600080fd5b61080c8b838c016106d3565b945060a08a013591508082111561082257600080fd5b5061082f8a828b016106d3565b92505060c0880135905092959891949750929550565b60006020828403121561085757600080fd5b81356001600160a01b038116811461086e57600080fd5b9392505050565b600181811c9082168061088957607f821691505b6020821081036108a957634e487b7160e01b600052602260045260246000fd5b50919050565b601f8211156108f957600081815260208120601f850160051c810160208610156108d65750805b601f850160051c820191505b818110156108f5578281556001016108e2565b5050505b505050565b815167ffffffffffffffff811115610918576109186106bd565b61092c816109268454610875565b846108af565b602080601f83116001811461096157600084156109495750858301515b600019600386901b1c1916600185901b1785556108f5565b600085815260208120601f198616915b8281101561099057888601518255948401946001909101908401610971565b50858210156109ae5787850151600019600388901b60f8161c191681555b5050505050600190811b01905550565b87815260e0602082015260006109d760e0830189610602565b82810360408401526109e98189610602565b905082810360608401526109fd8188610602565b90508281036080840152610a118187610602565b905082810360a0840152610a258186610602565b9150508260c08301529897505050505050505056fea2646970667358221220d168f5d33fcbab3f7b81be9f0f8f0bf7e5a28c9534da83eaf6243a48647cb6ca64736f6c63430008110033",
  "immutableReferences": {},
  "source": "// SPDX-License-Identifier: MIT\npragma solidity ^0.8.0;\n\n// import \"@openzeppelin/contracts/utils/math/SafeMath.sol\";\nimport \"@openzeppelin/contracts/access/Ownable.sol\";\n\ncontract QuestionData is Ownable\n{\n    mapping(uint256 => QuestInfo) public ListQuestionsContract;\n\n    event EventCreateQuestion(uint256 indexQuest, string question,\n        string answer0, string answer1,\n        string answer2, string answer3,\n        uint256 answerResult);\n\n    struct QuestInfo\n    {\n        string Question;\n        string Answer0;\n        string Answer1;\n        string Answer2;\n        string Answer3;\n        uint256 AnswerResult;\n    }\n\n    // only admin\n    function CreateQuestion(\n        uint256 indexQuest,\n        string memory question,\n        string memory answer0, string memory answer1,\n        string memory answer2, string memory answer3,\n        uint256 answerResult) public onlyOwner\n    {\n        require(answerResult <= 3, \"invalid answer result\");\n\n        QuestInfo storage Quest = ListQuestionsContract[indexQuest];\n\n        Quest.Question = question;\n        Quest.Answer0 = answer0;\n        Quest.Answer1 = answer1;\n        Quest.Answer2 = answer2;\n        Quest.Answer3 = answer3;\n        Quest.AnswerResult = answerResult;\n\n        emit EventCreateQuestion(indexQuest, question, answer0, answer1, answer2, answer3, answerResult);\n    }\n}",
  "sourcePath": "/Applications/projects/garbi-contracts/contracts/QuestionData.sol",
  "compiler": {
    "name": "solc",
    "version": "0.8.17+commit.8df45f5f.Emscripten.clang"
  },
  "schemaVersion": "3.4.11",
  "updatedAt": "2023-02-07T02:39:13.671Z",
  "networkType": "ethereum",
  "devdoc": {
    "kind": "dev",
    "methods": {
      "owner()": {
        "details": "Returns the address of the current owner."
      },
      "renounceOwnership()": {
        "details": "Leaves the contract without owner. It will not be possible to call `onlyOwner` functions anymore. Can only be called by the current owner. NOTE: Renouncing ownership will leave the contract without an owner, thereby removing any functionality that is only available to the owner."
      },
      "transferOwnership(address)": {
        "details": "Transfers ownership of the contract to a new account (`newOwner`). Can only be called by the current owner."
      }
    },
    "version": 1
  },
  "userdoc": {
    "kind": "user",
    "methods": {},
    "version": 1
  }
}