{
  "contractName": "QuestionData",
  "abi": [
    {
      "anonymous": false,
      "inputs": [
        {
          "indexed": true,
          "internalType": "address",
          "name": "previousOwner",
          "type": "address"
        },
        {
          "indexed": true,
          "internalType": "address",
          "name": "newOwner",
          "type": "address"
        }
      ],
      "name": "OwnershipTransferred",
      "type": "event"
    },
    {
      "inputs": [
        {
          "internalType": "uint256",
          "name": "",
          "type": "uint256"
        }
      ],
      "name": "ListQuestionsContract",
      "outputs": [
        {
          "internalType": "string",
          "name": "Question",
          "type": "string"
        },
        {
          "internalType": "string",
          "name": "Answer0",
          "type": "string"
        },
        {
          "internalType": "string",
          "name": "Answer1",
          "type": "string"
        },
        {
          "internalType": "string",
          "name": "Answer2",
          "type": "string"
        },
        {
          "internalType": "string",
          "name": "Answer3",
          "type": "string"
        },
        {
          "internalType": "uint256",
          "name": "AnswerResult",
          "type": "uint256"
        }
      ],
      "stateMutability": "view",
      "type": "function"
    },
    {
      "inputs": [],
      "name": "owner",
      "outputs": [
        {
          "internalType": "address",
          "name": "",
          "type": "address"
        }
      ],
      "stateMutability": "view",
      "type": "function"
    },
    {
      "inputs": [],
      "name": "renounceOwnership",
      "outputs": [],
      "stateMutability": "nonpayable",
      "type": "function"
    },
    {
      "inputs": [
        {
          "internalType": "address",
          "name": "newOwner",
          "type": "address"
        }
      ],
      "name": "transferOwnership",
      "outputs": [],
      "stateMutability": "nonpayable",
      "type": "function"
    },
    {
      "inputs": [
        {
          "internalType": "uint256",
          "name": "indexQuest",
          "type": "uint256"
        },
        {
          "internalType": "string",
          "name": "question",
          "type": "string"
        },
        {
          "internalType": "string",
          "name": "answer0",
          "type": "string"
        },
        {
          "internalType": "string",
          "name": "answer1",
          "type": "string"
        },
        {
          "internalType": "string",
          "name": "answer2",
          "type": "string"
        },
        {
          "internalType": "string",
          "name": "answer3",
          "type": "string"
        },
        {
          "internalType": "uint256",
          "name": "answerResult",
          "type": "uint256"
        }
      ],
      "name": "CreateQuestion",
      "outputs": [],
      "stateMutability": "nonpayable",
      "type": "function"
    }
  ],
  "bytecode": "0x608060405234801561001057600080fd5b5061001a3361001f565b61006f565b600080546001600160a01b038381166001600160a01b0319831681178455604051919092169283917f8be0079c531659141344cd1fd0a4f28419497f9722a3daafe3b4186f6b6457e09190a35050565b6109628061007e6000396000f3fe608060405234801561001057600080fd5b50600436106100575760003560e01c806321681fec1461005c578063715018a61461008a5780638da5cb5b14610094578063951c797a146100af578063f2fde38b146100c2575b600080fd5b61006f61006a366004610557565b6100d5565b604051610081969594939291906105b6565b60405180910390f35b6100926103b1565b005b6000546040516001600160a01b039091168152602001610081565b6100926100bd3660046106ce565b6103c5565b6100926100d03660046107b3565b61042f565b6001602052600090815260409020805481906100f0906107e3565b80601f016020809104026020016040519081016040528092919081815260200182805461011c906107e3565b80156101695780601f1061013e57610100808354040283529160200191610169565b820191906000526020600020905b81548152906001019060200180831161014c57829003601f168201915b50505050509080600101805461017e906107e3565b80601f01602080910402602001604051908101604052809291908181526020018280546101aa906107e3565b80156101f75780601f106101cc576101008083540402835291602001916101f7565b820191906000526020600020905b8154815290600101906020018083116101da57829003601f168201915b50505050509080600201805461020c906107e3565b80601f0160208091040260200160405190810160405280929190818152602001828054610238906107e3565b80156102855780601f1061025a57610100808354040283529160200191610285565b820191906000526020600020905b81548152906001019060200180831161026857829003601f168201915b50505050509080600301805461029a906107e3565b80601f01602080910402602001604051908101604052809291908181526020018280546102c6906107e3565b80156103135780601f106102e857610100808354040283529160200191610313565b820191906000526020600020905b8154815290600101906020018083116102f657829003601f168201915b505050505090806004018054610328906107e3565b80601f0160208091040260200160405190810160405280929190818152602001828054610354906107e3565b80156103a15780601f10610376576101008083540402835291602001916103a1565b820191906000526020600020905b81548152906001019060200180831161038457829003601f168201915b5050505050908060050154905086565b6103b96104ad565b6103c36000610507565b565b6103cd6104ad565b6000878152600160205260409020806103e6888261086c565b50600181016103f5878261086c565b5060028101610404868261086c565b5060038101610413858261086c565b5060048101610422848261086c565b5060050155505050505050565b6104376104ad565b6001600160a01b0381166104a15760405162461bcd60e51b815260206004820152602660248201527f4f776e61626c653a206e6577206f776e657220697320746865207a65726f206160448201526564647265737360d01b60648201526084015b60405180910390fd5b6104aa81610507565b50565b6000546001600160a01b031633146103c35760405162461bcd60e51b815260206004820181905260248201527f4f776e61626c653a2063616c6c6572206973206e6f7420746865206f776e65726044820152606401610498565b600080546001600160a01b038381166001600160a01b0319831681178455604051919092169283917f8be0079c531659141344cd1fd0a4f28419497f9722a3daafe3b4186f6b6457e09190a35050565b60006020828403121561056957600080fd5b5035919050565b6000815180845260005b818110156105965760208185018101518683018201520161057a565b506000602082860101526020601f19601f83011685010191505092915050565b60c0815260006105c960c0830189610570565b82810360208401526105db8189610570565b905082810360408401526105ef8188610570565b905082810360608401526106038187610570565b905082810360808401526106178186610570565b9150508260a0830152979650505050505050565b634e487b7160e01b600052604160045260246000fd5b600082601f83011261065257600080fd5b813567ffffffffffffffff8082111561066d5761066d61062b565b604051601f8301601f19908116603f011681019082821181831017156106955761069561062b565b816040528381528660208588010111156106ae57600080fd5b836020870160208301376000602085830101528094505050505092915050565b600080600080600080600060e0888a0312156106e957600080fd5b87359650602088013567ffffffffffffffff8082111561070857600080fd5b6107148b838c01610641565b975060408a013591508082111561072a57600080fd5b6107368b838c01610641565b965060608a013591508082111561074c57600080fd5b6107588b838c01610641565b955060808a013591508082111561076e57600080fd5b61077a8b838c01610641565b945060a08a013591508082111561079057600080fd5b5061079d8a828b01610641565b92505060c0880135905092959891949750929550565b6000602082840312156107c557600080fd5b81356001600160a01b03811681146107dc57600080fd5b9392505050565b600181811c908216806107f757607f821691505b60208210810361081757634e487b7160e01b600052602260045260246000fd5b50919050565b601f82111561086757600081815260208120601f850160051c810160208610156108445750805b601f850160051c820191505b8181101561086357828155600101610850565b5050505b505050565b815167ffffffffffffffff8111156108865761088661062b565b61089a8161089484546107e3565b8461081d565b602080601f8311600181146108cf57600084156108b75750858301515b600019600386901b1c1916600185901b178555610863565b600085815260208120601f198616915b828110156108fe578886015182559484019460019091019084016108df565b508582101561091c5787850151600019600388901b60f8161c191681555b5050505050600190811b0190555056fea264697066735822122073ece85266d511cabd52ba251ac3383a2a4dcf58fe4941ffdb65243710631a0464736f6c63430008110033",
  "immutableReferences": {},
  "source": "// SPDX-License-Identifier: MIT\npragma solidity ^0.8.0;\n\n// import \"@openzeppelin/contracts/utils/math/SafeMath.sol\";\nimport \"@openzeppelin/contracts/access/Ownable.sol\";\n\ncontract QuestionData is Ownable\n{\n    // using SafeMath for uint256;\n    mapping(uint256 => QuestInfo) public ListQuestionsContract;\n    // mapping(address => mapping(uint256 => uint256)) public ListQuestionsUser;\n\n    // uint256 public TotalQuestionContract = 100;\n    // uint256 public TotalQuestionOnDay = 3;\n\n    struct QuestInfo\n    {\n        string Question;\n        string Answer0;\n        string Answer1;\n        string Answer2;\n        string Answer3;\n        uint256 AnswerResult;\n    }\n\n    // struct Question\n    // {\n    //     string Question;\n    //     string Answer0;\n    //     string Answer1;\n    //     string Answer2;\n    //     string Answer3;\n    // }\n\n    // only admin\n    function CreateQuestion(\n        uint256 indexQuest,\n        string memory question,\n        string memory answer0, string memory answer1,\n        string memory answer2, string memory answer3,\n        uint256 answerResult) public onlyOwner\n    {\n        // require(IndexQuest >= 1, \"Invalid index quest\");\n        // require(!checkIndexQuestInListQuestion(IndexQuest), \"Error c001\");\n        QuestInfo storage Quest = ListQuestionsContract[indexQuest];\n\n        Quest.Question = question;\n        Quest.Answer0 = answer0;\n        Quest.Answer1 = answer1;\n        Quest.Answer2 = answer2;\n        Quest.Answer3 = answer3;\n        Quest.AnswerResult = answerResult;\n    }\n\n\n    // function ToDoQuestOnDay(address user) public\n    // {\n        \n    //     // for(uint256 indexQuestion = 0; indexQuestion < TotalQuestionOnDay; indexQuestion++)\n    //     // {\n    //     //     ListQuestionsUser[user][indexQuestion] = RandomNumber(indexQuestion);\n    //     // }\n\n    //     // test\n    //     ListQuestionsUser[user][0] = 1;\n    //     ListQuestionsUser[user][1] = 2;\n    //     ListQuestionsUser[user][2] = 3;\n    // }\n\n    // function GetQuestion(address user) public view returns(Question[] memory data)\n    // {\n    //     data = new Question[](TotalQuestionOnDay);\n    //     for(uint256 indexQuestion = 0; indexQuestion < TotalQuestionOnDay; indexQuestion++)\n    //     {\n    //         uint256 questionNumber = ListQuestionsUser[user][indexQuestion];\n    //         data[indexQuestion].Question = ListQuestionsContract[questionNumber].Question;\n    //         data[indexQuestion].Answer0 = ListQuestionsContract[questionNumber].Answer0;\n    //         data[indexQuestion].Answer1 = ListQuestionsContract[questionNumber].Answer1;\n    //         data[indexQuestion].Answer2 = ListQuestionsContract[questionNumber].Answer2;\n    //         data[indexQuestion].Answer3 = ListQuestionsContract[questionNumber].Answer3;\n    //     }\n    // }\n\n    // function SubmidQuestions(address user, uint256[] calldata results) public\n    // {\n    //     uint256 totalNumberCorrect = 0;\n    //     for(uint256 indexQuestion = 0; indexQuestion < TotalQuestionOnDay; indexQuestion++)\n    //     {\n    //         uint256 questionNumber = ListQuestionsUser[user][indexQuestion];\n    //         uint256 resultAnswerQuestionInContract = ListQuestionsContract[questionNumber].AnswerResult;\n    //         uint256 resultAnswerQuestionOfUser = results[indexQuestion];\n\n    //         if(resultAnswerQuestionOfUser == resultAnswerQuestionInContract)\n    //         {\n    //             totalNumberCorrect = totalNumberCorrect.add(1);\n    //         }\n    //     }\n\n    //     if(totalNumberCorrect > 0) BonusToken(user, totalNumberCorrect);\n    // }\n\n    // function BonusToken(address user, uint256 totalBonus) public returns (uint256) \n    // {\n    //     // do something\n    //     return totalBonus;\n    // }   \n\n    // function RandomNumber(uint256 count) public view returns(uint256)\n    // {\n    //     uint256 randomHash = uint256(keccak256(abi.encodePacked(block.difficulty, block.timestamp, count)));\n    //     return randomHash % (TotalQuestionContract + 1);\n    // }\n}",
  "sourcePath": "/Applications/projects/garbi-contracts/contracts/QuestionData.sol",
  "compiler": {
    "name": "solc",
    "version": "0.8.17+commit.8df45f5f.Emscripten.clang"
  },
  "schemaVersion": "3.4.11",
  "updatedAt": "2023-02-02T07:40:31.028Z",
  "devdoc": {
    "kind": "dev",
    "methods": {
      "owner()": {
        "details": "Returns the address of the current owner."
      },
      "renounceOwnership()": {
        "details": "Leaves the contract without owner. It will not be possible to call `onlyOwner` functions anymore. Can only be called by the current owner. NOTE: Renouncing ownership will leave the contract without an owner, thereby removing any functionality that is only available to the owner."
      },
      "transferOwnership(address)": {
        "details": "Transfers ownership of the contract to a new account (`newOwner`). Can only be called by the current owner."
      }
    },
    "version": 1
  },
  "userdoc": {
    "kind": "user",
    "methods": {},
    "version": 1
  }
}