{
  "contractName": "Quest",
  "abi": [
    {
      "inputs": [
        {
          "internalType": "contract IQuestionData",
          "name": "questionDataContract",
          "type": "address"
        },
        {
          "internalType": "contract IERC20",
          "name": "tokenEarn",
          "type": "address"
        }
      ],
      "stateMutability": "nonpayable",
      "type": "constructor"
    },
    {
      "anonymous": false,
      "inputs": [
        {
          "indexed": true,
          "internalType": "address",
          "name": "previousOwner",
          "type": "address"
        },
        {
          "indexed": true,
          "internalType": "address",
          "name": "newOwner",
          "type": "address"
        }
      ],
      "name": "OwnershipTransferred",
      "type": "event"
    },
    {
      "inputs": [],
      "name": "BonusAnswerCorrect",
      "outputs": [
        {
          "internalType": "uint256",
          "name": "",
          "type": "uint256"
        }
      ],
      "stateMutability": "view",
      "type": "function",
      "constant": true
    },
    {
      "inputs": [],
      "name": "DelayToDoQuest",
      "outputs": [
        {
          "internalType": "uint256",
          "name": "",
          "type": "uint256"
        }
      ],
      "stateMutability": "view",
      "type": "function",
      "constant": true
    },
    {
      "inputs": [
        {
          "internalType": "address",
          "name": "",
          "type": "address"
        },
        {
          "internalType": "uint256",
          "name": "",
          "type": "uint256"
        }
      ],
      "name": "ListQuestionsUser",
      "outputs": [
        {
          "internalType": "uint256",
          "name": "",
          "type": "uint256"
        }
      ],
      "stateMutability": "view",
      "type": "function",
      "constant": true
    },
    {
      "inputs": [
        {
          "internalType": "address",
          "name": "",
          "type": "address"
        },
        {
          "internalType": "uint256",
          "name": "",
          "type": "uint256"
        }
      ],
      "name": "ListResultAnswersUser",
      "outputs": [
        {
          "internalType": "uint256",
          "name": "",
          "type": "uint256"
        }
      ],
      "stateMutability": "view",
      "type": "function",
      "constant": true
    },
    {
      "inputs": [],
      "name": "QuestionDataContract",
      "outputs": [
        {
          "internalType": "contract IQuestionData",
          "name": "",
          "type": "address"
        }
      ],
      "stateMutability": "view",
      "type": "function",
      "constant": true
    },
    {
      "inputs": [
        {
          "internalType": "address",
          "name": "",
          "type": "address"
        }
      ],
      "name": "TimeTheNextSubmit",
      "outputs": [
        {
          "internalType": "uint256",
          "name": "",
          "type": "uint256"
        }
      ],
      "stateMutability": "view",
      "type": "function",
      "constant": true
    },
    {
      "inputs": [
        {
          "internalType": "address",
          "name": "",
          "type": "address"
        }
      ],
      "name": "TimeTheNextToDoQuest",
      "outputs": [
        {
          "internalType": "uint256",
          "name": "",
          "type": "uint256"
        }
      ],
      "stateMutability": "view",
      "type": "function",
      "constant": true
    },
    {
      "inputs": [],
      "name": "TokenEarn",
      "outputs": [
        {
          "internalType": "contract IERC20",
          "name": "",
          "type": "address"
        }
      ],
      "stateMutability": "view",
      "type": "function",
      "constant": true
    },
    {
      "inputs": [],
      "name": "TotalQuestionContract",
      "outputs": [
        {
          "internalType": "uint256",
          "name": "",
          "type": "uint256"
        }
      ],
      "stateMutability": "view",
      "type": "function",
      "constant": true
    },
    {
      "inputs": [],
      "name": "TotalQuestionOnDay",
      "outputs": [
        {
          "internalType": "uint256",
          "name": "",
          "type": "uint256"
        }
      ],
      "stateMutability": "view",
      "type": "function",
      "constant": true
    },
    {
      "inputs": [],
      "name": "owner",
      "outputs": [
        {
          "internalType": "address",
          "name": "",
          "type": "address"
        }
      ],
      "stateMutability": "view",
      "type": "function",
      "constant": true
    },
    {
      "inputs": [],
      "name": "renounceOwnership",
      "outputs": [],
      "stateMutability": "nonpayable",
      "type": "function"
    },
    {
      "inputs": [
        {
          "internalType": "address",
          "name": "newOwner",
          "type": "address"
        }
      ],
      "name": "transferOwnership",
      "outputs": [],
      "stateMutability": "nonpayable",
      "type": "function"
    },
    {
      "inputs": [
        {
          "internalType": "contract IQuestionData",
          "name": "newQuestionDataContract",
          "type": "address"
        }
      ],
      "name": "SetQuestionDataContract",
      "outputs": [],
      "stateMutability": "nonpayable",
      "type": "function"
    },
    {
      "inputs": [
        {
          "internalType": "contract IERC20",
          "name": "newTokenEarn",
          "type": "address"
        }
      ],
      "name": "SetTokenEarn",
      "outputs": [],
      "stateMutability": "nonpayable",
      "type": "function"
    },
    {
      "inputs": [
        {
          "internalType": "uint256",
          "name": "newDelayToDoQuest",
          "type": "uint256"
        }
      ],
      "name": "SetDelayToDoQuest",
      "outputs": [],
      "stateMutability": "nonpayable",
      "type": "function"
    },
    {
      "inputs": [
        {
          "internalType": "uint256",
          "name": "newTotalQuestionContract",
          "type": "uint256"
        }
      ],
      "name": "SetTotalQuestionContract",
      "outputs": [],
      "stateMutability": "nonpayable",
      "type": "function"
    },
    {
      "inputs": [
        {
          "internalType": "uint256",
          "name": "newTotalQuestionOnDay",
          "type": "uint256"
        }
      ],
      "name": "SetTotalQuestionOnDay",
      "outputs": [],
      "stateMutability": "nonpayable",
      "type": "function"
    },
    {
      "inputs": [
        {
          "internalType": "uint256",
          "name": "newBonusAnswerCorrect",
          "type": "uint256"
        }
      ],
      "name": "SetBonusAnswerCorrect",
      "outputs": [],
      "stateMutability": "nonpayable",
      "type": "function"
    },
    {
      "inputs": [
        {
          "internalType": "address",
          "name": "user",
          "type": "address"
        }
      ],
      "name": "DoQuestOnDay",
      "outputs": [],
      "stateMutability": "nonpayable",
      "type": "function"
    },
    {
      "inputs": [
        {
          "internalType": "address",
          "name": "user",
          "type": "address"
        }
      ],
      "name": "GetDataQuest",
      "outputs": [
        {
          "components": [
            {
              "internalType": "string",
              "name": "Question",
              "type": "string"
            },
            {
              "internalType": "string",
              "name": "Answer0",
              "type": "string"
            },
            {
              "internalType": "string",
              "name": "Answer1",
              "type": "string"
            },
            {
              "internalType": "string",
              "name": "Answer2",
              "type": "string"
            },
            {
              "internalType": "string",
              "name": "Answer3",
              "type": "string"
            }
          ],
          "internalType": "struct Quest.Question[]",
          "name": "data",
          "type": "tuple[]"
        },
        {
          "internalType": "uint256",
          "name": "timeTheNextToDoQuest",
          "type": "uint256"
        },
        {
          "internalType": "uint256",
          "name": "delayToDoQuest",
          "type": "uint256"
        }
      ],
      "stateMutability": "view",
      "type": "function",
      "constant": true
    },
    {
      "inputs": [
        {
          "internalType": "address",
          "name": "user",
          "type": "address"
        },
        {
          "internalType": "uint256[]",
          "name": "results",
          "type": "uint256[]"
        }
      ],
      "name": "SubmitQuestions",
      "outputs": [],
      "stateMutability": "nonpayable",
      "type": "function"
    },
    {
      "inputs": [
        {
          "internalType": "address",
          "name": "user",
          "type": "address"
        }
      ],
      "name": "GetResultAnswers",
      "outputs": [
        {
          "internalType": "uint256[]",
          "name": "data",
          "type": "uint256[]"
        },
        {
          "internalType": "uint256",
          "name": "totalBonusToken",
          "type": "uint256"
        }
      ],
      "stateMutability": "view",
      "type": "function",
      "constant": true
    },
    {
      "inputs": [
        {
          "internalType": "uint256",
          "name": "count",
          "type": "uint256"
        },
        {
          "internalType": "address",
          "name": "user",
          "type": "address"
        },
        {
          "internalType": "uint256",
          "name": "from",
          "type": "uint256"
        },
        {
          "internalType": "uint256",
          "name": "to",
          "type": "uint256"
        }
      ],
      "name": "RandomNumber",
      "outputs": [
        {
          "internalType": "uint256",
          "name": "",
          "type": "uint256"
        }
      ],
      "stateMutability": "view",
      "type": "function",
      "constant": true
    }
  ],
  "bytecode": "0x60806040526000600755600a6008556003600955600a80553480156200002457600080fd5b5060405162001572380380620015728339810160408190526200004791620000ed565b620000523362000084565b600180546001600160a01b039384166001600160a01b031991821617909155600280549290931691161790556200012c565b600080546001600160a01b038381166001600160a01b0319831681178455604051919092169283917f8be0079c531659141344cd1fd0a4f28419497f9722a3daafe3b4186f6b6457e09190a35050565b6001600160a01b0381168114620000ea57600080fd5b50565b600080604083850312156200010157600080fd5b82516200010e81620000d4565b60208401519092506200012181620000d4565b809150509250929050565b611436806200013c6000396000f3fe608060405234801561001057600080fd5b50600436106101585760003560e01c806391a79222116100c3578063b00667fe1161007c578063b00667fe146102ec578063bdb3a2121461030d578063d24278fb14610338578063eee6260e1461034b578063f2fde38b1461035e578063f3f222331461037157600080fd5b806391a792221461028157806397c72e3c14610294578063a65cabe51461029d578063a6f1b3e1146102b0578063a81a018f146102d0578063ad0df94e146102e357600080fd5b8063496a296111610115578063496a2961146102265780634b032c7d1461022f5780635f872a82146102425780636814254214610255578063715018a6146102685780638da5cb5b1461027057600080fd5b8063085e16421461015d578063134104b11461017257806328ce04111461018e57806331413b76146101ae578063441bb5e7146101d9578063460d5377146101fb575b600080fd5b61017061016b366004610ecf565b610384565b005b61017b600a5481565b6040519081526020015b60405180910390f35b61017b61019c366004610efd565b60036020526000908152604090205481565b6002546101c1906001600160a01b031681565b6040516001600160a01b039091168152602001610185565b6101ec6101e7366004610efd565b610391565b60405161018593929190610f71565b61017b610209366004611054565b600560209081526000928352604080842090915290825290205481565b61017b60085481565b61017061023d366004610efd565b610597565b610170610250366004610ecf565b6105c1565b610170610263366004610ecf565b6105ce565b6101706105db565b6000546001600160a01b03166101c1565b61017061028f366004610ecf565b6105ef565b61017b60075481565b6101706102ab366004610efd565b6105fc565b61017b6102be366004610efd565b60046020526000908152604090205481565b6101706102de366004611080565b610813565b61017b60095481565b6102ff6102fa366004610efd565b610a09565b604051610185929190611108565b61017b61031b366004611054565b600660209081526000928352604080842090915290825290205481565b61017b610346366004611150565b610afc565b6001546101c1906001600160a01b031681565b61017061036c366004610efd565b610bbb565b61017061037f366004610efd565b610c34565b61038c610c5e565b600755565b606060008060095467ffffffffffffffff8111156103b1576103b161118d565b60405190808252806020026020018201604052801561041457816020015b6104016040518060a0016040528060608152602001606081526020016060815260200160608152602001606081525090565b8152602001906001900390816103cf5790505b50925060005b600954811015610570576001600160a01b0385811660009081526005602090815260408083208584529091529081902054600154915163085a07fb60e21b815260048101829052909291909116906321681fec90602401600060405180830381865afa15801561048e573d6000803e3d6000fd5b505050506040513d6000823e601f3d908101601f191682016040526104b6919081019061122b565b508987815181106104c9576104c9611305565b60200260200101516000018a88815181106104e6576104e6611305565b60200260200101516020018b898151811061050357610503611305565b60200260200101516040018c8a8151811061052057610520611305565b60200260200101516060018d8b8151811061053d5761053d611305565b6020026020010151608001859052859052859052859052859052505050505050808061056890611331565b91505061041a565b5050506001600160a01b039091166000908152600360205260409020546007549192909190565b61059f610c5e565b600280546001600160a01b0319166001600160a01b0392909216919091179055565b6105c9610c5e565b600955565b6105d6610c5e565b600a55565b6105e3610c5e565b6105ed6000610cb8565b565b6105f7610c5e565b600855565b6001600160a01b038116600090815260036020526040902054421161067e5760405162461bcd60e51b815260206004820152602d60248201527f4572726f7220546f20446f2051756573743a2049742773206e6f742074696d6560448201526c081d1bc8185cdac81c5d595cdd609a1b60648201526084015b60405180910390fd5b60005b6009548110156106c1576001600160a01b0382166000908152600660209081526040808320848452909152812055806106b981611331565b915050610681565b506000806106e760016106e1600954600854610d0890919063ffffffff16565b90610d1d565b905060006106f6826001610d29565b9050600061072061071960016106e1600954600854610d0890919063ffffffff16565b8390610d29565b9050600061072f826001610d29565b905060006107496001600854610d1d90919063ffffffff16565b90506107586000888888610afc565b6001600160a01b03881660009081526005602090815260408083208380529091529020556107896001888686610afc565b6001600160a01b0388166000908152600560209081526040808320600184529091529020556107bb6002888484610afc565b6001600160a01b0388166000908152600560209081526040808320600284529091529020556007546107ee904290610d29565b6001600160a01b03909716600090815260036020526040902096909655505050505050565b6001600160a01b03831660009081526004602052604090205442116108955760405162461bcd60e51b815260206004820152603260248201527f4572726f72205375626d6974205175657374696f6e3a2049742773206e6f74206044820152711d1a5b59481d1bc81cdd589b5a5d081e595d60721b6064820152608401610675565b6000805b6009548110156109cf576001600160a01b03858116600090815260056020908152604080832085845290915280822054600154915163085a07fb60e21b815260048101829052909391909116906321681fec90602401600060405180830381865afa15801561090c573d6000803e3d6000fd5b505050506040513d6000823e601f3d908101601f19168201604052610934919081019061122b565b95505050505050600086868581811061094f5761094f611305565b905060200201359050818103610996576001600160a01b03881660009081526006602090815260408083208784529091529020600190819055610993908690610d29565b94505b5050506001600160a01b0385166000908152600560209081526040808320848452909152812055806109c781611331565b915050610899565b5080156109e0576109e08482610d35565b5050506001600160a01b0316600090815260036020908152604080832054600490925290912055565b6060600060095467ffffffffffffffff811115610a2857610a2861118d565b604051908082528060200260200182016040528015610a51578160200160208202803683370190505b5091506000905060005b600954811015610af6576001600160a01b03841660009081526006602090815260408083208484529091529020548351849083908110610a9d57610a9d611305565b6020908102919091018101919091526001600160a01b03851660009081526006825260408082208483529092522054600103610ae457600a54610ae1908390610d29565b91505b80610aee81611331565b915050610a5b565b50915091565b60408051426020808301829052448385018190524560608086019190915285518086038201815260808601875280519084012060a086019290925260c085019390935260e0840189905261010084018190529187901b6bffffffffffffffffffffffff19166101208401528351808403610114018152610134909301909352815191909201206000919084610b91818661134a565b610b9c90600161135d565b610ba69083611386565b610bb0919061135d565b979650505050505050565b610bc3610c5e565b6001600160a01b038116610c285760405162461bcd60e51b815260206004820152602660248201527f4f776e61626c653a206e6577206f776e657220697320746865207a65726f206160448201526564647265737360d01b6064820152608401610675565b610c3181610cb8565b50565b610c3c610c5e565b600180546001600160a01b0319166001600160a01b0392909216919091179055565b6000546001600160a01b031633146105ed5760405162461bcd60e51b815260206004820181905260248201527f4f776e61626c653a2063616c6c6572206973206e6f7420746865206f776e65726044820152606401610675565b600080546001600160a01b038381166001600160a01b0319831681178455604051919092169283917f8be0079c531659141344cd1fd0a4f28419497f9722a3daafe3b4186f6b6457e09190a35050565b6000610d14828461139a565b90505b92915050565b6000610d14828461134a565b6000610d14828461135d565b600a54610d43908290610ec3565b6002546040516370a0823160e01b81523060048201526001600160a01b03909116906370a0823190602401602060405180830381865afa158015610d8b573d6000803e3d6000fd5b505050506040513d601f19601f82011682018060405250810190610daf91906113ae565b10610e4d57600254600a546001600160a01b039091169063a9059cbb908490610dd9908590610ec3565b6040516001600160e01b031960e085901b1681526001600160a01b03909216600483015260248201526044016020604051808303816000875af1158015610e24573d6000803e3d6000fd5b505050506040513d601f19601f82011682018060405250810190610e4891906113c7565b505050565b6002546040516370a0823160e01b81523060048201526001600160a01b039091169063a9059cbb90849083906370a0823190602401602060405180830381865afa158015610e9f573d6000803e3d6000fd5b505050506040513d601f19601f82011682018060405250810190610dd991906113ae565b6000610d1482846113e9565b600060208284031215610ee157600080fd5b5035919050565b6001600160a01b0381168114610c3157600080fd5b600060208284031215610f0f57600080fd5b8135610f1a81610ee8565b9392505050565b60005b83811015610f3c578181015183820152602001610f24565b50506000910152565b60008151808452610f5d816020860160208601610f21565b601f01601f19169290920160200192915050565b60006060808301818452808751808352608092508286019150828160051b8701016020808b0160005b8481101561103957607f198a8503018652815160a08151818752610fc082880182610f45565b9150508482015186820386880152610fd88282610f45565b91505060408083015187830382890152610ff28382610f45565b92505050898201518682038b88015261100b8282610f45565b915050888201519150858103898701526110258183610f45565b978501979550505090820190600101610f9a565b50508701989098525050505060409091019190915250919050565b6000806040838503121561106757600080fd5b823561107281610ee8565b946020939093013593505050565b60008060006040848603121561109557600080fd5b83356110a081610ee8565b9250602084013567ffffffffffffffff808211156110bd57600080fd5b818601915086601f8301126110d157600080fd5b8135818111156110e057600080fd5b8760208260051b85010111156110f557600080fd5b6020830194508093505050509250925092565b604080825283519082018190526000906020906060840190828701845b8281101561114157815184529284019290840190600101611125565b50505092019290925292915050565b6000806000806080858703121561116657600080fd5b84359350602085013561117881610ee8565b93969395505050506040820135916060013590565b634e487b7160e01b600052604160045260246000fd5b600082601f8301126111b457600080fd5b815167ffffffffffffffff808211156111cf576111cf61118d565b604051601f8301601f19908116603f011681019082821181831017156111f7576111f761118d565b8160405283815286602085880101111561121057600080fd5b611221846020830160208901610f21565b9695505050505050565b60008060008060008060c0878903121561124457600080fd5b865167ffffffffffffffff8082111561125c57600080fd5b6112688a838b016111a3565b9750602089015191508082111561127e57600080fd5b61128a8a838b016111a3565b965060408901519150808211156112a057600080fd5b6112ac8a838b016111a3565b955060608901519150808211156112c257600080fd5b6112ce8a838b016111a3565b945060808901519150808211156112e457600080fd5b506112f189828a016111a3565b92505060a087015190509295509295509295565b634e487b7160e01b600052603260045260246000fd5b634e487b7160e01b600052601160045260246000fd5b6000600182016113435761134361131b565b5060010190565b81810381811115610d1757610d1761131b565b80820180821115610d1757610d1761131b565b634e487b7160e01b600052601260045260246000fd5b60008261139557611395611370565b500690565b6000826113a9576113a9611370565b500490565b6000602082840312156113c057600080fd5b5051919050565b6000602082840312156113d957600080fd5b81518015158114610f1a57600080fd5b8082028115828204841417610d1757610d1761131b56fea2646970667358221220bff1ae360ed7ac5f7cb0660aca7ea35ddcb3aa1dc4f1dc2a401dc4e459b1035964736f6c63430008110033",
  "immutableReferences": {},
  "source": "// SPDX-License-Identifier: MIT\npragma solidity ^0.8.0;\n\nimport \"./interfaces/IQuestionData.sol\";\n\nimport \"@openzeppelin/contracts/utils/math/SafeMath.sol\";\nimport \"@openzeppelin/contracts/access/Ownable.sol\";\nimport \"@openzeppelin/contracts/token/ERC20/IERC20.sol\";\n\ncontract Quest is Ownable\n{\n    using SafeMath for uint256;\n\n    IQuestionData public QuestionDataContract;\n    IERC20 public TokenEarn;\n\n    mapping(address => uint256) public TimeTheNextToDoQuest;\n    mapping(address => uint256) public TimeTheNextSubmit;\n    mapping(address => mapping(uint256 => uint256)) public ListQuestionsUser;\n    mapping(address => mapping(uint256 => uint256)) public ListResultAnswersUser;\n\n    uint256 public DelayToDoQuest = 0;\n    uint256 public TotalQuestionContract = 10;\n    uint256 public TotalQuestionOnDay = 3;\n\n    uint256 public BonusAnswerCorrect = 10;\n\n    struct Question\n    {\n        string Question;\n        string Answer0;\n        string Answer1;\n        string Answer2;\n        string Answer3;\n    }\n\n    constructor(IQuestionData questionDataContract, IERC20 tokenEarn) \n    {\n        QuestionDataContract = questionDataContract;\n        TokenEarn = tokenEarn;\n    }\n\n    function SetQuestionDataContract(IQuestionData newQuestionDataContract) public onlyOwner\n    {\n        QuestionDataContract = newQuestionDataContract;\n    }\n\n    function SetTokenEarn(IERC20 newTokenEarn) public onlyOwner\n    {\n        TokenEarn = newTokenEarn;\n    }\n\n    function SetDelayToDoQuest(uint256 newDelayToDoQuest) public onlyOwner\n    {\n        DelayToDoQuest = newDelayToDoQuest;\n    }\n\n    function SetTotalQuestionContract(uint256 newTotalQuestionContract) public onlyOwner\n    {\n        TotalQuestionContract = newTotalQuestionContract;\n    }\n    \n    function SetTotalQuestionOnDay(uint256 newTotalQuestionOnDay) public onlyOwner\n    {\n        TotalQuestionOnDay = newTotalQuestionOnDay;\n    }\n\n    function SetBonusAnswerCorrect(uint256 newBonusAnswerCorrect) public onlyOwner\n    {\n        BonusAnswerCorrect = newBonusAnswerCorrect;\n    }\n    function DoQuestOnDay(address user) public\n    {\n        require(block.timestamp > TimeTheNextToDoQuest[user], \"Error To Do Quest: It's not time to ask quest\");\n\n        for(uint256 oldResultAnswer = 0; oldResultAnswer < TotalQuestionOnDay; oldResultAnswer++)\n        {\n            delete ListResultAnswersUser[user][oldResultAnswer];\n        }\n\n        uint256 from1 = 0;\n        uint256 to1 = TotalQuestionContract.div(TotalQuestionOnDay).sub(1);\n\n        uint256 from2 = to1.add(1);\n        uint256 to2 = from2.add(TotalQuestionContract.div(TotalQuestionOnDay).sub(1));\n\n        uint256 from3 = to2.add(1);\n        uint256 to3 = TotalQuestionContract.sub(1);\n\n        ListQuestionsUser[user][0] = RandomNumber(0, user, from1, to1);\n        ListQuestionsUser[user][1] = RandomNumber(1, user, from2, to2);\n        ListQuestionsUser[user][2] = RandomNumber(2, user, from3, to3);\n\n\n        // for(uint256 indexQuestion = 0; indexQuestion < TotalQuestionOnDay; indexQuestion++)\n        // {\n        //     ListQuestionsUser[user][indexQuestion] = RandomNumber(indexQuestion, user, );\n        // }\n        // 0 - 10 // 3\n        // 0 -3, 4-6, 7 - 10\n        // // test\n        // ListQuestionsUser[user][0] = 0;\n        // ListQuestionsUser[user][1] = 1;\n        // ListQuestionsUser[user][2] = 2;\n\n        TimeTheNextToDoQuest[user] = block.timestamp.add(DelayToDoQuest);\n    }\n\n    function GetDataQuest(address user) public view returns(\n        Question[] memory data,\n        uint256 timeTheNextToDoQuest,\n        uint256 delayToDoQuest\n        )\n    {\n        data = new Question[](TotalQuestionOnDay);\n        for(uint256 indexQuestion = 0; indexQuestion < TotalQuestionOnDay; indexQuestion++)\n        {\n            uint256 questionNumber = ListQuestionsUser[user][indexQuestion];\n\n            (data[indexQuestion].Question,\n            data[indexQuestion].Answer0,\n            data[indexQuestion].Answer1,\n            data[indexQuestion].Answer2,\n            data[indexQuestion].Answer3, ) = QuestionDataContract.ListQuestionsContract(questionNumber);\n        }\n        timeTheNextToDoQuest = TimeTheNextToDoQuest[user];\n        delayToDoQuest = DelayToDoQuest;\n    }\n\n    function SubmitQuestions(address user, uint256[] calldata results) public\n    {\n        require(block.timestamp > TimeTheNextSubmit[user], \"Error Submit Question: It's not time to submit yet\");\n\n        uint256 totalNumberCorrect = 0;\n        for(uint256 indexQuestion = 0; indexQuestion < TotalQuestionOnDay; indexQuestion++)\n        {\n            uint256 questionNumber = ListQuestionsUser[user][indexQuestion];\n            (,,,,,uint256 resultAnswerQuestionInContract) = QuestionDataContract.ListQuestionsContract(questionNumber);\n            uint256 resultAnswerQuestionOfUser = results[indexQuestion];\n\n            if(resultAnswerQuestionOfUser == resultAnswerQuestionInContract)\n            {\n                ListResultAnswersUser[user][indexQuestion] = 1; // 1: true, 0: false;\n                totalNumberCorrect = totalNumberCorrect.add(1);\n            }\n            delete ListQuestionsUser[user][indexQuestion];\n        }\n\n        if(totalNumberCorrect > 0) DoBonusToken(user, totalNumberCorrect);\n\n        TimeTheNextSubmit[user] = TimeTheNextToDoQuest[user];\n    }\n\n    function DoBonusToken(address user, uint256 totalNumberCorrect) private \n    {\n        if(TokenEarn.balanceOf(address(this)) >= totalNumberCorrect.mul(BonusAnswerCorrect))\n        {\n            TokenEarn.transfer(user, totalNumberCorrect.mul(BonusAnswerCorrect));\n        }\n        else\n        {\n            TokenEarn.transfer(user, TokenEarn.balanceOf(address(this)));\n        }\n    }  \n\n    function GetResultAnswers(address user) public view returns(\n        uint256[] memory data,\n        uint256 totalBonusToken\n    )\n    {\n        data =  new uint256[](TotalQuestionOnDay);\n        totalBonusToken = 0;\n\n        for(uint256 resultAnswers = 0; resultAnswers < TotalQuestionOnDay; resultAnswers++)\n        {\n            data[resultAnswers] = ListResultAnswersUser[user][resultAnswers];\n            if(ListResultAnswersUser[user][resultAnswers] == 1)\n            {\n                totalBonusToken = totalBonusToken.add(BonusAnswerCorrect);\n            }\n        }\n    }\n\n    function RandomNumber(uint256 count, address user, uint256 from, uint256 to) public view returns(uint256)\n    {\n        uint256 seed = uint256(keccak256(abi.encodePacked(block.timestamp, block.difficulty, block.gaslimit)));\n        uint256 randomHash = uint256(keccak256(abi.encodePacked(block.difficulty, block.timestamp, count, seed, user)));\n        return randomHash % (to - from + 1) + from;\n    }\n}",
  "sourcePath": "/Applications/projects/garbi-contracts/contracts/Quest.sol",
  "compiler": {
    "name": "solc",
    "version": "0.8.17+commit.8df45f5f.Emscripten.clang"
  },
  "schemaVersion": "3.4.11",
  "updatedAt": "2023-02-02T11:04:09.911Z",
  "networkType": "ethereum",
  "devdoc": {
    "kind": "dev",
    "methods": {
      "owner()": {
        "details": "Returns the address of the current owner."
      },
      "renounceOwnership()": {
        "details": "Leaves the contract without owner. It will not be possible to call `onlyOwner` functions anymore. Can only be called by the current owner. NOTE: Renouncing ownership will leave the contract without an owner, thereby removing any functionality that is only available to the owner."
      },
      "transferOwnership(address)": {
        "details": "Transfers ownership of the contract to a new account (`newOwner`). Can only be called by the current owner."
      }
    },
    "version": 1
  },
  "userdoc": {
    "kind": "user",
    "methods": {},
    "version": 1
  }
}