{
  "contractName": "Question",
  "abi": [
    {
      "inputs": [
        {
          "internalType": "contract IQuestionData",
          "name": "questionDataContract",
          "type": "address"
        },
        {
          "internalType": "contract IERC20",
          "name": "tokenReward",
          "type": "address"
        }
      ],
      "stateMutability": "nonpayable",
      "type": "constructor"
    },
    {
      "anonymous": false,
      "inputs": [
        {
          "indexed": true,
          "internalType": "address",
          "name": "previousOwner",
          "type": "address"
        },
        {
          "indexed": true,
          "internalType": "address",
          "name": "newOwner",
          "type": "address"
        }
      ],
      "name": "OwnershipTransferred",
      "type": "event"
    },
    {
      "inputs": [
        {
          "internalType": "address",
          "name": "",
          "type": "address"
        }
      ],
      "name": "BlockReturnDoQuestion",
      "outputs": [
        {
          "internalType": "uint256",
          "name": "",
          "type": "uint256"
        }
      ],
      "stateMutability": "view",
      "type": "function",
      "constant": true
    },
    {
      "inputs": [
        {
          "internalType": "address",
          "name": "",
          "type": "address"
        }
      ],
      "name": "BlockReturnSubmitQuestion",
      "outputs": [
        {
          "internalType": "uint256",
          "name": "",
          "type": "uint256"
        }
      ],
      "stateMutability": "view",
      "type": "function",
      "constant": true
    },
    {
      "inputs": [],
      "name": "BonusAnswerCorrect",
      "outputs": [
        {
          "internalType": "uint256",
          "name": "",
          "type": "uint256"
        }
      ],
      "stateMutability": "view",
      "type": "function",
      "constant": true
    },
    {
      "inputs": [],
      "name": "DelayToDoQuest",
      "outputs": [
        {
          "internalType": "uint256",
          "name": "",
          "type": "uint256"
        }
      ],
      "stateMutability": "view",
      "type": "function",
      "constant": true
    },
    {
      "inputs": [
        {
          "internalType": "address",
          "name": "",
          "type": "address"
        },
        {
          "internalType": "uint256",
          "name": "",
          "type": "uint256"
        }
      ],
      "name": "ListQuestionsUser",
      "outputs": [
        {
          "internalType": "uint256",
          "name": "",
          "type": "uint256"
        }
      ],
      "stateMutability": "view",
      "type": "function",
      "constant": true
    },
    {
      "inputs": [
        {
          "internalType": "address",
          "name": "",
          "type": "address"
        },
        {
          "internalType": "uint256",
          "name": "",
          "type": "uint256"
        }
      ],
      "name": "ListResultAnswersUser",
      "outputs": [
        {
          "internalType": "uint256",
          "name": "",
          "type": "uint256"
        }
      ],
      "stateMutability": "view",
      "type": "function",
      "constant": true
    },
    {
      "inputs": [],
      "name": "QuestionDataContract",
      "outputs": [
        {
          "internalType": "contract IQuestionData",
          "name": "",
          "type": "address"
        }
      ],
      "stateMutability": "view",
      "type": "function",
      "constant": true
    },
    {
      "inputs": [
        {
          "internalType": "address",
          "name": "",
          "type": "address"
        }
      ],
      "name": "TimeTheNextSubmit",
      "outputs": [
        {
          "internalType": "uint256",
          "name": "",
          "type": "uint256"
        }
      ],
      "stateMutability": "view",
      "type": "function",
      "constant": true
    },
    {
      "inputs": [
        {
          "internalType": "address",
          "name": "",
          "type": "address"
        }
      ],
      "name": "TimeTheNextToDoQuest",
      "outputs": [
        {
          "internalType": "uint256",
          "name": "",
          "type": "uint256"
        }
      ],
      "stateMutability": "view",
      "type": "function",
      "constant": true
    },
    {
      "inputs": [],
      "name": "TokenReward",
      "outputs": [
        {
          "internalType": "contract IERC20",
          "name": "",
          "type": "address"
        }
      ],
      "stateMutability": "view",
      "type": "function",
      "constant": true
    },
    {
      "inputs": [],
      "name": "TotalQuestionContract",
      "outputs": [
        {
          "internalType": "uint256",
          "name": "",
          "type": "uint256"
        }
      ],
      "stateMutability": "view",
      "type": "function",
      "constant": true
    },
    {
      "inputs": [],
      "name": "TotalQuestionOnDay",
      "outputs": [
        {
          "internalType": "uint256",
          "name": "",
          "type": "uint256"
        }
      ],
      "stateMutability": "view",
      "type": "function",
      "constant": true
    },
    {
      "inputs": [],
      "name": "owner",
      "outputs": [
        {
          "internalType": "address",
          "name": "",
          "type": "address"
        }
      ],
      "stateMutability": "view",
      "type": "function",
      "constant": true
    },
    {
      "inputs": [],
      "name": "renounceOwnership",
      "outputs": [],
      "stateMutability": "nonpayable",
      "type": "function"
    },
    {
      "inputs": [
        {
          "internalType": "address",
          "name": "newOwner",
          "type": "address"
        }
      ],
      "name": "transferOwnership",
      "outputs": [],
      "stateMutability": "nonpayable",
      "type": "function"
    },
    {
      "inputs": [
        {
          "internalType": "contract IQuestionData",
          "name": "newQuestionDataContract",
          "type": "address"
        }
      ],
      "name": "SetQuestionDataContract",
      "outputs": [],
      "stateMutability": "nonpayable",
      "type": "function"
    },
    {
      "inputs": [
        {
          "internalType": "contract IERC20",
          "name": "newTokenReward",
          "type": "address"
        }
      ],
      "name": "SetTokenReward",
      "outputs": [],
      "stateMutability": "nonpayable",
      "type": "function"
    },
    {
      "inputs": [
        {
          "internalType": "uint256",
          "name": "newDelayToDoQuest",
          "type": "uint256"
        }
      ],
      "name": "SetDelayToDoQuest",
      "outputs": [],
      "stateMutability": "nonpayable",
      "type": "function"
    },
    {
      "inputs": [
        {
          "internalType": "uint256",
          "name": "newTotalQuestionContract",
          "type": "uint256"
        }
      ],
      "name": "SetTotalQuestionContract",
      "outputs": [],
      "stateMutability": "nonpayable",
      "type": "function"
    },
    {
      "inputs": [
        {
          "internalType": "uint256",
          "name": "newTotalQuestionOnDay",
          "type": "uint256"
        }
      ],
      "name": "SetTotalQuestionOnDay",
      "outputs": [],
      "stateMutability": "nonpayable",
      "type": "function"
    },
    {
      "inputs": [
        {
          "internalType": "uint256",
          "name": "newBonusAnswerCorrect",
          "type": "uint256"
        }
      ],
      "name": "SetBonusAnswerCorrect",
      "outputs": [],
      "stateMutability": "nonpayable",
      "type": "function"
    },
    {
      "inputs": [],
      "name": "DoQuestOnDay",
      "outputs": [],
      "stateMutability": "nonpayable",
      "type": "function"
    },
    {
      "inputs": [
        {
          "internalType": "address",
          "name": "user",
          "type": "address"
        }
      ],
      "name": "GetDataQuest",
      "outputs": [
        {
          "components": [
            {
              "internalType": "string",
              "name": "Question",
              "type": "string"
            },
            {
              "internalType": "string",
              "name": "Answer0",
              "type": "string"
            },
            {
              "internalType": "string",
              "name": "Answer1",
              "type": "string"
            },
            {
              "internalType": "string",
              "name": "Answer2",
              "type": "string"
            },
            {
              "internalType": "string",
              "name": "Answer3",
              "type": "string"
            }
          ],
          "internalType": "struct Question.Question[]",
          "name": "data",
          "type": "tuple[]"
        },
        {
          "internalType": "uint256",
          "name": "timeTheNextToDoQuest",
          "type": "uint256"
        },
        {
          "internalType": "uint256",
          "name": "delayToDoQuest",
          "type": "uint256"
        },
        {
          "internalType": "uint256",
          "name": "blockReturnDoQuestion",
          "type": "uint256"
        }
      ],
      "stateMutability": "view",
      "type": "function",
      "constant": true
    },
    {
      "inputs": [
        {
          "internalType": "uint256[]",
          "name": "results",
          "type": "uint256[]"
        }
      ],
      "name": "SubmitQuestions",
      "outputs": [],
      "stateMutability": "nonpayable",
      "type": "function"
    },
    {
      "inputs": [
        {
          "internalType": "address",
          "name": "user",
          "type": "address"
        }
      ],
      "name": "GetResultAnswers",
      "outputs": [
        {
          "internalType": "uint256[]",
          "name": "data",
          "type": "uint256[]"
        },
        {
          "internalType": "uint256",
          "name": "totalBonusToken",
          "type": "uint256"
        },
        {
          "internalType": "uint256",
          "name": "blockReturnSubmitQuestion",
          "type": "uint256"
        }
      ],
      "stateMutability": "view",
      "type": "function",
      "constant": true
    },
    {
      "inputs": [
        {
          "internalType": "uint256",
          "name": "count",
          "type": "uint256"
        },
        {
          "internalType": "address",
          "name": "user",
          "type": "address"
        },
        {
          "internalType": "uint256",
          "name": "from",
          "type": "uint256"
        },
        {
          "internalType": "uint256",
          "name": "to",
          "type": "uint256"
        }
      ],
      "name": "RandomNumber",
      "outputs": [
        {
          "internalType": "uint256",
          "name": "",
          "type": "uint256"
        }
      ],
      "stateMutability": "view",
      "type": "function",
      "constant": true
    }
  ],
  "bytecode": "0x60806040526000600955600a80556003600b55600a600c553480156200002457600080fd5b5060405162001643380380620016438339810160408190526200004791620000ed565b620000523362000084565b600180546001600160a01b039384166001600160a01b031991821617909155600280549290931691161790556200012c565b600080546001600160a01b038381166001600160a01b0319831681178455604051919092169283917f8be0079c531659141344cd1fd0a4f28419497f9722a3daafe3b4186f6b6457e09190a35050565b6001600160a01b0381168114620000ea57600080fd5b50565b600080604083850312156200010157600080fd5b82516200010e81620000d4565b60208401519092506200012181620000d4565b809150509250929050565b611507806200013c6000396000f3fe608060405234801561001057600080fd5b506004361061018e5760003560e01c80638da5cb5b116100de578063b7a16d2111610097578063d24278fb11610071578063d24278fb146103a5578063eee6260e146103b8578063f2fde38b146103cb578063f3f22233146103de57600080fd5b8063b7a16d2114610347578063bcaf0f271461035a578063bdb3a2121461037a57600080fd5b80638da5cb5b146102cf57806391a79222146102e057806397c72e3c146102f3578063a6f1b3e1146102fc578063ad0df94e1461031c578063b00667fe1461032557600080fd5b8063441bb5e71161014b5780635f872a82116101255780635f872a821461028e57806368142542146102a1578063715018a6146102b45780637b51717b146102bc57600080fd5b8063441bb5e714610237578063460d53771461025a578063496a29611461028557600080fd5b8063085e164214610193578063134104b1146101a857806328ce0411146101c45780632aea328e146101e457806338d12eef146102045780633a821f9b1461020c575b600080fd5b6101a66101a1366004610fab565b6103f1565b005b6101b1600c5481565b6040519081526020015b60405180910390f35b6101b16101d2366004610fd9565b60036020526000908152604090205481565b6101b16101f2366004610fd9565b60076020526000908152604090205481565b6101a66103fe565b60025461021f906001600160a01b031681565b6040516001600160a01b0390911681526020016101bb565b61024a610245366004610fd9565b61061a565b6040516101bb949392919061104d565b6101b1610268366004611133565b600560209081526000928352604080842090915290825290205481565b6101b1600a5481565b6101a661029c366004610fab565b61086f565b6101a66102af366004610fab565b61087c565b6101a6610889565b6101a66102ca36600461115f565b61089d565b6000546001600160a01b031661021f565b6101a66102ee366004610fab565b610a93565b6101b160095481565b6101b161030a366004610fd9565b60046020526000908152604090205481565b6101b1600b5481565b610338610333366004610fd9565b610aa0565b6040516101bb939291906111d4565b6101a6610355366004610fd9565b610bae565b6101b1610368366004610fd9565b60086020526000908152604090205481565b6101b1610388366004611133565b600660209081526000928352604080842090915290825290205481565b6101b16103b3366004611221565b610bd8565b60015461021f906001600160a01b031681565b6101a66103d9366004610fd9565b610c97565b6101a66103ec366004610fd9565b610d10565b6103f9610d3a565b600955565b3360008181526003602052604090205443116104775760405162461bcd60e51b815260206004820152602d60248201527f4572726f7220546f20446f2051756573743a2049742773206e6f742074696d6560448201526c081d1bc8185cdac81c5d595cdd609a1b60648201526084015b60405180910390fd5b60005b600b548110156104ba576001600160a01b0382166000908152600660209081526040808320848452909152812055806104b281611274565b91505061047a565b506000806104e060016104da600b54600a54610d9490919063ffffffff16565b90610da9565b905060006104ef826001610db5565b9050600061051961051260016104da600b54600a54610d9490919063ffffffff16565b8390610db5565b90506000610528826001610db5565b905060006105426001600a54610da990919063ffffffff16565b90506105516000888888610bd8565b6001600160a01b03881660009081526005602090815260408083208380529091529020556105826001888686610bd8565b6001600160a01b0388166000908152600560209081526040808320600184529091529020556105b46002888484610bd8565b6001600160a01b0388166000908152600560209081526040808320600284529091529020556009546105e7904390610db5565b6001600160a01b039097166000908152600360209081526040808320999099556007905296909620439055505050505050565b60606000806000600b5467ffffffffffffffff81111561063c5761063c61128d565b60405190808252806020026020018201604052801561069f57816020015b61068c6040518060a0016040528060608152602001606081526020016060815260200160608152602001606081525090565b81526020019060019003908161065a5790505b50935060005b600b548110156107fb576001600160a01b0386811660009081526005602090815260408083208584529091529081902054600154915163085a07fb60e21b815260048101829052909291909116906321681fec90602401600060405180830381865afa158015610719573d6000803e3d6000fd5b505050506040513d6000823e601f3d908101601f19168201604052610741919081019061132b565b508a878151811061075457610754611405565b60200260200101516000018b888151811061077157610771611405565b60200260200101516020018c898151811061078e5761078e611405565b60200260200101516040018d8a815181106107ab576107ab611405565b60200260200101516060018e8b815181106107c8576107c8611405565b602002602001015160800185905285905285905285905285905250505050505080806107f390611274565b9150506106a5565b506001600160a01b0385166000908152600360205260409020544311610843576001600160a01b03851660009081526003602052604090205461083e9043610da9565b610846565b60005b6009546001600160a01b0390961660009081526007602052604090205494969095949350915050565b610877610d3a565b600b55565b610884610d3a565b600c55565b610891610d3a565b61089b6000610dc1565b565b3360008181526004602052604090205443116109165760405162461bcd60e51b815260206004820152603260248201527f4572726f72205375626d6974205175657374696f6e3a2049742773206e6f74206044820152711d1a5b59481d1bc81cdd589b5a5d081e595d60721b606482015260840161046e565b6000805b600b54811015610a50576001600160a01b03838116600090815260056020908152604080832085845290915280822054600154915163085a07fb60e21b815260048101829052909391909116906321681fec90602401600060405180830381865afa15801561098d573d6000803e3d6000fd5b505050506040513d6000823e601f3d908101601f191682016040526109b5919081019061132b565b9550505050505060008787858181106109d0576109d0611405565b905060200201359050818103610a17576001600160a01b03861660009081526006602090815260408083208784529091529020600190819055610a14908690610db5565b94505b5050506001600160a01b038316600090815260056020908152604080832084845290915281205580610a4881611274565b91505061091a565b508015610a6157610a618282610e11565b506001600160a01b03166000908152600360209081526040808320546004835281842055600890915290204390555050565b610a9b610d3a565b600a55565b6060600080600b5467ffffffffffffffff811115610ac057610ac061128d565b604051908082528060200260200182016040528015610ae9578160200160208202803683370190505b5092506000915060005b600b54811015610b8e576001600160a01b03851660009081526006602090815260408083208484529091529020548451859083908110610b3557610b35611405565b6020908102919091018101919091526001600160a01b03861660009081526006825260408082208483529092522054600103610b7c57600c54610b79908490610db5565b92505b80610b8681611274565b915050610af3565b50506001600160a01b039092166000908152600860205260409020549092565b610bb6610d3a565b600280546001600160a01b0319166001600160a01b0392909216919091179055565b60408051426020808301829052448385018190524560608086019190915285518086038201815260808601875280519084012060a086019290925260c085019390935260e0840189905261010084018190529187901b6bffffffffffffffffffffffff19166101208401528351808403610114018152610134909301909352815191909201206000919084610c6d818661141b565b610c7890600161142e565b610c829083611457565b610c8c919061142e565b979650505050505050565b610c9f610d3a565b6001600160a01b038116610d045760405162461bcd60e51b815260206004820152602660248201527f4f776e61626c653a206e6577206f776e657220697320746865207a65726f206160448201526564647265737360d01b606482015260840161046e565b610d0d81610dc1565b50565b610d18610d3a565b600180546001600160a01b0319166001600160a01b0392909216919091179055565b6000546001600160a01b0316331461089b5760405162461bcd60e51b815260206004820181905260248201527f4f776e61626c653a2063616c6c6572206973206e6f7420746865206f776e6572604482015260640161046e565b6000610da0828461146b565b90505b92915050565b6000610da0828461141b565b6000610da0828461142e565b600080546001600160a01b038381166001600160a01b0319831681178455604051919092169283917f8be0079c531659141344cd1fd0a4f28419497f9722a3daafe3b4186f6b6457e09190a35050565b600c54610e1f908290610f9f565b6002546040516370a0823160e01b81523060048201526001600160a01b03909116906370a0823190602401602060405180830381865afa158015610e67573d6000803e3d6000fd5b505050506040513d601f19601f82011682018060405250810190610e8b919061147f565b10610f2957600254600c546001600160a01b039091169063a9059cbb908490610eb5908590610f9f565b6040516001600160e01b031960e085901b1681526001600160a01b03909216600483015260248201526044016020604051808303816000875af1158015610f00573d6000803e3d6000fd5b505050506040513d601f19601f82011682018060405250810190610f249190611498565b505050565b6002546040516370a0823160e01b81523060048201526001600160a01b039091169063a9059cbb90849083906370a0823190602401602060405180830381865afa158015610f7b573d6000803e3d6000fd5b505050506040513d601f19601f82011682018060405250810190610eb5919061147f565b6000610da082846114ba565b600060208284031215610fbd57600080fd5b5035919050565b6001600160a01b0381168114610d0d57600080fd5b600060208284031215610feb57600080fd5b8135610ff681610fc4565b9392505050565b60005b83811015611018578181015183820152602001611000565b50506000910152565b60008151808452611039816020860160208601610ffd565b601f01601f19169290920160200192915050565b6000608080830181845280885180835260a092508286019150828160051b8701016020808c0160005b8481101561111557898403609f190186528151805188865261109a89870182611021565b905084820151868203868801526110b18282611021565b915050604080830151878303828901526110cb8382611021565b92505050606080830151878303828901526110e68382611021565b925050508982015191508581038a8701526111018183611021565b978501979550505090820190600101611076565b50508701999099525050505060408201939093526060015250919050565b6000806040838503121561114657600080fd5b823561115181610fc4565b946020939093013593505050565b6000806020838503121561117257600080fd5b823567ffffffffffffffff8082111561118a57600080fd5b818501915085601f83011261119e57600080fd5b8135818111156111ad57600080fd5b8660208260051b85010111156111c257600080fd5b60209290920196919550909350505050565b606080825284519082018190526000906020906080840190828801845b8281101561120d578151845292840192908401906001016111f1565b505050908301949094525060400152919050565b6000806000806080858703121561123757600080fd5b84359350602085013561124981610fc4565b93969395505050506040820135916060013590565b634e487b7160e01b600052601160045260246000fd5b6000600182016112865761128661125e565b5060010190565b634e487b7160e01b600052604160045260246000fd5b600082601f8301126112b457600080fd5b815167ffffffffffffffff808211156112cf576112cf61128d565b604051601f8301601f19908116603f011681019082821181831017156112f7576112f761128d565b8160405283815286602085880101111561131057600080fd5b611321846020830160208901610ffd565b9695505050505050565b60008060008060008060c0878903121561134457600080fd5b865167ffffffffffffffff8082111561135c57600080fd5b6113688a838b016112a3565b9750602089015191508082111561137e57600080fd5b61138a8a838b016112a3565b965060408901519150808211156113a057600080fd5b6113ac8a838b016112a3565b955060608901519150808211156113c257600080fd5b6113ce8a838b016112a3565b945060808901519150808211156113e457600080fd5b506113f189828a016112a3565b92505060a087015190509295509295509295565b634e487b7160e01b600052603260045260246000fd5b81810381811115610da357610da361125e565b80820180821115610da357610da361125e565b634e487b7160e01b600052601260045260246000fd5b60008261146657611466611441565b500690565b60008261147a5761147a611441565b500490565b60006020828403121561149157600080fd5b5051919050565b6000602082840312156114aa57600080fd5b81518015158114610ff657600080fd5b8082028115828204841417610da357610da361125e56fea2646970667358221220a606f7944c799238d6965ce6038a08e87721ddb4fa75035039918371d56f5b4764736f6c63430008110033",
  "immutableReferences": {},
  "source": "// SPDX-License-Identifier: MIT\npragma solidity ^0.8.0;\n\nimport \"./interfaces/IQuestionData.sol\";\n\nimport \"@openzeppelin/contracts/utils/math/SafeMath.sol\";\nimport \"@openzeppelin/contracts/access/Ownable.sol\";\nimport \"@openzeppelin/contracts/token/ERC20/IERC20.sol\";\n\ncontract Question is Ownable\n{\n    using SafeMath for uint256;\n\n    IQuestionData public QuestionDataContract;\n    IERC20 public TokenReward;  // CyberCredit\n\n    mapping(address => uint256) public TimeTheNextToDoQuest;\n    mapping(address => uint256) public TimeTheNextSubmit;\n    mapping(address => mapping(uint256 => uint256)) public ListQuestionsUser;\n    mapping(address => mapping(uint256 => uint256)) public ListResultAnswersUser;\n    mapping(address => uint256) public BlockReturnDoQuestion; // suport client\n    mapping(address => uint256) public BlockReturnSubmitQuestion; // suport client\n\n    uint256 public DelayToDoQuest = 0;  // block\n    uint256 public TotalQuestionContract = 10;\n    uint256 public TotalQuestionOnDay = 3;\n\n    uint256 public BonusAnswerCorrect = 10;\n\n    struct Question\n    {\n        string Question;\n        string Answer0;\n        string Answer1;\n        string Answer2;\n        string Answer3;\n    }\n\n    constructor(IQuestionData questionDataContract, IERC20 tokenReward) \n    {\n        QuestionDataContract = questionDataContract;\n        TokenReward = tokenReward;\n    }\n\n    function SetQuestionDataContract(IQuestionData newQuestionDataContract) public onlyOwner\n    {\n        QuestionDataContract = newQuestionDataContract;\n    }\n\n    function SetTokenReward(IERC20 newTokenReward) public onlyOwner\n    {\n        TokenReward = newTokenReward;\n    }\n\n    function SetDelayToDoQuest(uint256 newDelayToDoQuest) public onlyOwner\n    {\n        DelayToDoQuest = newDelayToDoQuest;\n    }\n\n    function SetTotalQuestionContract(uint256 newTotalQuestionContract) public onlyOwner\n    {\n        TotalQuestionContract = newTotalQuestionContract;\n    }\n    \n    function SetTotalQuestionOnDay(uint256 newTotalQuestionOnDay) public onlyOwner\n    {\n        TotalQuestionOnDay = newTotalQuestionOnDay;\n    }\n\n    function SetBonusAnswerCorrect(uint256 newBonusAnswerCorrect) public onlyOwner\n    {\n        BonusAnswerCorrect = newBonusAnswerCorrect;\n    }\n    function DoQuestOnDay() public\n    {\n        address user = msg.sender;\n        require(block.number > TimeTheNextToDoQuest[user], \"Error To Do Quest: It's not time to ask quest\");\n\n        for(uint256 oldResultAnswer = 0; oldResultAnswer < TotalQuestionOnDay; oldResultAnswer++)\n        {\n            delete ListResultAnswersUser[user][oldResultAnswer];\n        }\n\n        uint256 from1 = 0;\n        uint256 to1 = TotalQuestionContract.div(TotalQuestionOnDay).sub(1);\n\n        uint256 from2 = to1.add(1);\n        uint256 to2 = from2.add(TotalQuestionContract.div(TotalQuestionOnDay).sub(1));\n\n        uint256 from3 = to2.add(1);\n        uint256 to3 = TotalQuestionContract.sub(1);\n\n        ListQuestionsUser[user][0] = RandomNumber(0, user, from1, to1);\n        ListQuestionsUser[user][1] = RandomNumber(1, user, from2, to2);\n        ListQuestionsUser[user][2] = RandomNumber(2, user, from3, to3);\n\n        TimeTheNextToDoQuest[user] = block.number.add(DelayToDoQuest);\n        BlockReturnDoQuestion[user] = block.number;\n    }\n\n    function GetDataQuest(address user) public view returns(\n        Question[] memory data,\n        uint256 timeTheNextToDoQuest,\n        uint256 delayToDoQuest,\n        uint256 blockReturnDoQuestion\n        )\n    {\n        data = new Question[](TotalQuestionOnDay);\n        for(uint256 indexQuestion = 0; indexQuestion < TotalQuestionOnDay; indexQuestion++)\n        {\n            uint256 questionNumber = ListQuestionsUser[user][indexQuestion];\n\n            (data[indexQuestion].Question,\n            data[indexQuestion].Answer0,\n            data[indexQuestion].Answer1,\n            data[indexQuestion].Answer2,\n            data[indexQuestion].Answer3, ) = QuestionDataContract.ListQuestionsContract(questionNumber);\n        }\n        timeTheNextToDoQuest = (TimeTheNextToDoQuest[user] < block.number) ? 0 : TimeTheNextToDoQuest[user].sub(block.number);\n        delayToDoQuest = DelayToDoQuest;\n        blockReturnDoQuestion = BlockReturnDoQuestion[user];\n    }\n\n    function SubmitQuestions(uint256[] calldata results) public\n    {\n        address user = msg.sender;\n        require(block.number > TimeTheNextSubmit[user], \"Error Submit Question: It's not time to submit yet\");\n\n        uint256 totalNumberCorrect = 0;\n        for(uint256 indexQuestion = 0; indexQuestion < TotalQuestionOnDay; indexQuestion++)\n        {\n            uint256 questionNumber = ListQuestionsUser[user][indexQuestion];\n            (,,,,,uint256 resultAnswerQuestionInContract) = QuestionDataContract.ListQuestionsContract(questionNumber);\n            uint256 resultAnswerQuestionOfUser = results[indexQuestion];\n\n            if(resultAnswerQuestionOfUser == resultAnswerQuestionInContract)\n            {\n                ListResultAnswersUser[user][indexQuestion] = 1; // 1: true, 0: false;\n                totalNumberCorrect = totalNumberCorrect.add(1);\n            }\n            delete ListQuestionsUser[user][indexQuestion];\n        }\n\n        if(totalNumberCorrect > 0) DoBonusToken(user, totalNumberCorrect);\n\n        TimeTheNextSubmit[user] = TimeTheNextToDoQuest[user];\n        BlockReturnSubmitQuestion[user] = block.number;\n    }\n\n    function DoBonusToken(address user, uint256 totalNumberCorrect) private \n    {\n        if(TokenReward.balanceOf(address(this)) >= totalNumberCorrect.mul(BonusAnswerCorrect))\n        {\n            TokenReward.transfer(user, totalNumberCorrect.mul(BonusAnswerCorrect));\n        }\n        else\n        {\n            TokenReward.transfer(user, TokenReward.balanceOf(address(this)));\n        }\n    }  \n\n    function GetResultAnswers(address user) public view returns(\n        uint256[] memory data,\n        uint256 totalBonusToken,\n        uint256 blockReturnSubmitQuestion\n    )\n    {\n        data =  new uint256[](TotalQuestionOnDay);\n        totalBonusToken = 0;\n\n        for(uint256 resultAnswers = 0; resultAnswers < TotalQuestionOnDay; resultAnswers++)\n        {\n            data[resultAnswers] = ListResultAnswersUser[user][resultAnswers];\n            if(ListResultAnswersUser[user][resultAnswers] == 1)\n            {\n                totalBonusToken = totalBonusToken.add(BonusAnswerCorrect);\n            }\n        }\n        blockReturnSubmitQuestion = BlockReturnSubmitQuestion[user];\n    }\n\n    function RandomNumber(uint256 count, address user, uint256 from, uint256 to) public view returns(uint256)\n    {\n        uint256 seed = uint256(keccak256(abi.encodePacked(block.timestamp, block.difficulty, block.gaslimit)));\n        uint256 randomHash = uint256(keccak256(abi.encodePacked(block.difficulty, block.timestamp, count, seed, user)));\n        return randomHash % (to - from + 1) + from;\n    }\n}",
  "sourcePath": "/Applications/projects/garbi-contracts/contracts/Question.sol",
  "compiler": {
    "name": "solc",
    "version": "0.8.17+commit.8df45f5f.Emscripten.clang"
  },
  "schemaVersion": "3.4.11",
  "updatedAt": "2023-02-14T03:41:27.691Z",
  "networkType": "ethereum",
  "devdoc": {
    "kind": "dev",
    "methods": {
      "owner()": {
        "details": "Returns the address of the current owner."
      },
      "renounceOwnership()": {
        "details": "Leaves the contract without owner. It will not be possible to call `onlyOwner` functions anymore. Can only be called by the current owner. NOTE: Renouncing ownership will leave the contract without an owner, thereby removing any functionality that is only available to the owner."
      },
      "transferOwnership(address)": {
        "details": "Transfers ownership of the contract to a new account (`newOwner`). Can only be called by the current owner."
      }
    },
    "version": 1
  },
  "userdoc": {
    "kind": "user",
    "methods": {},
    "version": 1
  }
}