{
  "contractName": "Question",
  "abi": [
    {
      "inputs": [
        {
          "internalType": "contract IQuestionData",
          "name": "questionDataContract",
          "type": "address"
        },
        {
          "internalType": "contract IERC20",
          "name": "tokenReward",
          "type": "address"
        }
      ],
      "stateMutability": "nonpayable",
      "type": "constructor"
    },
    {
      "anonymous": false,
      "inputs": [
        {
          "indexed": true,
          "internalType": "address",
          "name": "previousOwner",
          "type": "address"
        },
        {
          "indexed": true,
          "internalType": "address",
          "name": "newOwner",
          "type": "address"
        }
      ],
      "name": "OwnershipTransferred",
      "type": "event"
    },
    {
      "inputs": [],
      "name": "BonusAnswerCorrect",
      "outputs": [
        {
          "internalType": "uint256",
          "name": "",
          "type": "uint256"
        }
      ],
      "stateMutability": "view",
      "type": "function",
      "constant": true
    },
    {
      "inputs": [],
      "name": "DelayToDoQuest",
      "outputs": [
        {
          "internalType": "uint256",
          "name": "",
          "type": "uint256"
        }
      ],
      "stateMutability": "view",
      "type": "function",
      "constant": true
    },
    {
      "inputs": [
        {
          "internalType": "address",
          "name": "",
          "type": "address"
        },
        {
          "internalType": "uint256",
          "name": "",
          "type": "uint256"
        }
      ],
      "name": "ListQuestionsUser",
      "outputs": [
        {
          "internalType": "uint256",
          "name": "",
          "type": "uint256"
        }
      ],
      "stateMutability": "view",
      "type": "function",
      "constant": true
    },
    {
      "inputs": [
        {
          "internalType": "address",
          "name": "",
          "type": "address"
        },
        {
          "internalType": "uint256",
          "name": "",
          "type": "uint256"
        }
      ],
      "name": "ListResultAnswersUser",
      "outputs": [
        {
          "internalType": "uint256",
          "name": "",
          "type": "uint256"
        }
      ],
      "stateMutability": "view",
      "type": "function",
      "constant": true
    },
    {
      "inputs": [],
      "name": "QuestionDataContract",
      "outputs": [
        {
          "internalType": "contract IQuestionData",
          "name": "",
          "type": "address"
        }
      ],
      "stateMutability": "view",
      "type": "function",
      "constant": true
    },
    {
      "inputs": [
        {
          "internalType": "address",
          "name": "",
          "type": "address"
        }
      ],
      "name": "TimeTheNextSubmit",
      "outputs": [
        {
          "internalType": "uint256",
          "name": "",
          "type": "uint256"
        }
      ],
      "stateMutability": "view",
      "type": "function",
      "constant": true
    },
    {
      "inputs": [
        {
          "internalType": "address",
          "name": "",
          "type": "address"
        }
      ],
      "name": "TimeTheNextToDoQuest",
      "outputs": [
        {
          "internalType": "uint256",
          "name": "",
          "type": "uint256"
        }
      ],
      "stateMutability": "view",
      "type": "function",
      "constant": true
    },
    {
      "inputs": [],
      "name": "TokenReward",
      "outputs": [
        {
          "internalType": "contract IERC20",
          "name": "",
          "type": "address"
        }
      ],
      "stateMutability": "view",
      "type": "function",
      "constant": true
    },
    {
      "inputs": [],
      "name": "TotalQuestionContract",
      "outputs": [
        {
          "internalType": "uint256",
          "name": "",
          "type": "uint256"
        }
      ],
      "stateMutability": "view",
      "type": "function",
      "constant": true
    },
    {
      "inputs": [],
      "name": "TotalQuestionOnDay",
      "outputs": [
        {
          "internalType": "uint256",
          "name": "",
          "type": "uint256"
        }
      ],
      "stateMutability": "view",
      "type": "function",
      "constant": true
    },
    {
      "inputs": [],
      "name": "owner",
      "outputs": [
        {
          "internalType": "address",
          "name": "",
          "type": "address"
        }
      ],
      "stateMutability": "view",
      "type": "function",
      "constant": true
    },
    {
      "inputs": [],
      "name": "renounceOwnership",
      "outputs": [],
      "stateMutability": "nonpayable",
      "type": "function"
    },
    {
      "inputs": [
        {
          "internalType": "address",
          "name": "newOwner",
          "type": "address"
        }
      ],
      "name": "transferOwnership",
      "outputs": [],
      "stateMutability": "nonpayable",
      "type": "function"
    },
    {
      "inputs": [
        {
          "internalType": "contract IQuestionData",
          "name": "newQuestionDataContract",
          "type": "address"
        }
      ],
      "name": "SetQuestionDataContract",
      "outputs": [],
      "stateMutability": "nonpayable",
      "type": "function"
    },
    {
      "inputs": [
        {
          "internalType": "contract IERC20",
          "name": "newTokenReward",
          "type": "address"
        }
      ],
      "name": "SetTokenReward",
      "outputs": [],
      "stateMutability": "nonpayable",
      "type": "function"
    },
    {
      "inputs": [
        {
          "internalType": "uint256",
          "name": "newDelayToDoQuest",
          "type": "uint256"
        }
      ],
      "name": "SetDelayToDoQuest",
      "outputs": [],
      "stateMutability": "nonpayable",
      "type": "function"
    },
    {
      "inputs": [
        {
          "internalType": "uint256",
          "name": "newTotalQuestionContract",
          "type": "uint256"
        }
      ],
      "name": "SetTotalQuestionContract",
      "outputs": [],
      "stateMutability": "nonpayable",
      "type": "function"
    },
    {
      "inputs": [
        {
          "internalType": "uint256",
          "name": "newTotalQuestionOnDay",
          "type": "uint256"
        }
      ],
      "name": "SetTotalQuestionOnDay",
      "outputs": [],
      "stateMutability": "nonpayable",
      "type": "function"
    },
    {
      "inputs": [
        {
          "internalType": "uint256",
          "name": "newBonusAnswerCorrect",
          "type": "uint256"
        }
      ],
      "name": "SetBonusAnswerCorrect",
      "outputs": [],
      "stateMutability": "nonpayable",
      "type": "function"
    },
    {
      "inputs": [],
      "name": "DoQuestOnDay",
      "outputs": [],
      "stateMutability": "nonpayable",
      "type": "function"
    },
    {
      "inputs": [
        {
          "internalType": "address",
          "name": "user",
          "type": "address"
        }
      ],
      "name": "GetDataQuest",
      "outputs": [
        {
          "components": [
            {
              "internalType": "string",
              "name": "Question",
              "type": "string"
            },
            {
              "internalType": "string",
              "name": "Answer0",
              "type": "string"
            },
            {
              "internalType": "string",
              "name": "Answer1",
              "type": "string"
            },
            {
              "internalType": "string",
              "name": "Answer2",
              "type": "string"
            },
            {
              "internalType": "string",
              "name": "Answer3",
              "type": "string"
            }
          ],
          "internalType": "struct Question.Question[]",
          "name": "data",
          "type": "tuple[]"
        },
        {
          "internalType": "uint256",
          "name": "timeTheNextToDoQuest",
          "type": "uint256"
        },
        {
          "internalType": "uint256",
          "name": "delayToDoQuest",
          "type": "uint256"
        }
      ],
      "stateMutability": "view",
      "type": "function",
      "constant": true
    },
    {
      "inputs": [
        {
          "internalType": "uint256[]",
          "name": "results",
          "type": "uint256[]"
        }
      ],
      "name": "SubmitQuestions",
      "outputs": [],
      "stateMutability": "nonpayable",
      "type": "function"
    },
    {
      "inputs": [
        {
          "internalType": "address",
          "name": "user",
          "type": "address"
        }
      ],
      "name": "GetResultAnswers",
      "outputs": [
        {
          "internalType": "uint256[]",
          "name": "data",
          "type": "uint256[]"
        },
        {
          "internalType": "uint256",
          "name": "totalBonusToken",
          "type": "uint256"
        }
      ],
      "stateMutability": "view",
      "type": "function",
      "constant": true
    },
    {
      "inputs": [
        {
          "internalType": "uint256",
          "name": "count",
          "type": "uint256"
        },
        {
          "internalType": "address",
          "name": "user",
          "type": "address"
        },
        {
          "internalType": "uint256",
          "name": "from",
          "type": "uint256"
        },
        {
          "internalType": "uint256",
          "name": "to",
          "type": "uint256"
        }
      ],
      "name": "RandomNumber",
      "outputs": [
        {
          "internalType": "uint256",
          "name": "",
          "type": "uint256"
        }
      ],
      "stateMutability": "view",
      "type": "function",
      "constant": true
    }
  ],
  "bytecode": "0x6080604052600a600755600a6008556003600955600a80553480156200002457600080fd5b506040516200172a3803806200172a8339810160408190526200004791620000ed565b620000523362000084565b600180546001600160a01b039384166001600160a01b031991821617909155600280549290931691161790556200012c565b600080546001600160a01b038381166001600160a01b0319831681178455604051919092169283917f8be0079c531659141344cd1fd0a4f28419497f9722a3daafe3b4186f6b6457e09190a35050565b6001600160a01b0381168114620000ea57600080fd5b50565b600080604083850312156200010157600080fd5b82516200010e81620000d4565b60208401519092506200012181620000d4565b809150509250929050565b6115ee806200013c6000396000f3fe608060405234801561001057600080fd5b50600436106101585760003560e01c80638da5cb5b116100c3578063b7a16d211161007c578063b7a16d21146102ef578063bdb3a21214610302578063d24278fb1461032d578063eee6260e14610340578063f2fde38b14610353578063f3f222331461036657600080fd5b80638da5cb5b1461027857806391a792221461028957806397c72e3c1461029c578063a6f1b3e1146102a5578063ad0df94e146102c5578063b00667fe146102ce57600080fd5b8063460d537711610115578063460d537714610203578063496a29611461022e5780635f872a8214610237578063681425421461024a578063715018a61461025d5780637b51717b1461026557600080fd5b8063085e16421461015d578063134104b11461017257806328ce04111461018e57806338d12eef146101ae5780633a821f9b146101b6578063441bb5e7146101e1575b600080fd5b61017061016b36600461109a565b610379565b005b61017b600a5481565b6040519081526020015b60405180910390f35b61017b61019c3660046110c8565b60036020526000908152604090205481565b610170610386565b6002546101c9906001600160a01b031681565b6040516001600160a01b039091168152602001610185565b6101f46101ef3660046110c8565b610594565b6040516101859392919061113c565b61017b61021136600461121f565b600560209081526000928352604080842090915290825290205481565b61017b60085481565b61017061024536600461109a565b610908565b61017061025836600461109a565b610915565b610170610922565b61017061027336600461124b565b610936565b6000546001600160a01b03166101c9565b61017061029736600461109a565b610b9d565b61017b60075481565b61017b6102b33660046110c8565b60046020526000908152604090205481565b61017b60095481565b6102e16102dc3660046110c8565b610baa565b6040516101859291906112c0565b6101706102fd3660046110c8565b610c9d565b61017b61031036600461121f565b600660209081526000928352604080842090915290825290205481565b61017b61033b366004611308565b610cc7565b6001546101c9906001600160a01b031681565b6101706103613660046110c8565b610d86565b6101706103743660046110c8565b610dff565b610381610e29565b600755565b3360008181526003602052604090205443116103ff5760405162461bcd60e51b815260206004820152602d60248201527f4572726f7220546f20446f2051756573743a2049742773206e6f742074696d6560448201526c081d1bc8185cdac81c5d595cdd609a1b60648201526084015b60405180910390fd5b60005b600954811015610442576001600160a01b03821660009081526006602090815260408083208484529091528120558061043a8161135b565b915050610402565b506000806104686001610462600954600854610e8390919063ffffffff16565b90610e98565b90506000610477826001610ea4565b905060006104a161049a6001610462600954600854610e8390919063ffffffff16565b8390610ea4565b905060006104b0826001610ea4565b905060006104ca6001600854610e9890919063ffffffff16565b90506104d96000888888610cc7565b6001600160a01b038816600090815260056020908152604080832083805290915290205561050a6001888686610cc7565b6001600160a01b03881660009081526005602090815260408083206001845290915290205561053c6002888484610cc7565b6001600160a01b03881660009081526005602090815260408083206002845290915290205560075461056f904390610ea4565b6001600160a01b03909716600090815260036020526040902096909655505050505050565b606060008060095467ffffffffffffffff8111156105b4576105b4611374565b60405190808252806020026020018201604052801561061757816020015b6106046040518060a0016040528060608152602001606081526020016060815260200160608152602001606081525090565b8152602001906001900390816105d25790505b506001600160a01b03851660009081526003602052604090205490935043101561079a5760005b600954811015610794576001600160a01b0385811660009081526005602090815260408083208584529091529081902054600154915163085a07fb60e21b815260048101829052909291909116906321681fec90602401600060405180830381865afa1580156106b2573d6000803e3d6000fd5b505050506040513d6000823e601f3d908101601f191682016040526106da9190810190611412565b508987815181106106ed576106ed6114ec565b60200260200101516000018a888151811061070a5761070a6114ec565b60200260200101516020018b8981518110610727576107276114ec565b60200260200101516040018c8a81518110610744576107446114ec565b60200260200101516060018d8b81518110610761576107616114ec565b6020026020010151608001859052859052859052859052859052505050505050808061078c9061135b565b91505061063e565b506108b1565b60005b6009548110156108af57604051806020016040528060008152508482815181106107c9576107c96114ec565b602002602001015160000181905250604051806020016040528060008152508482815181106107fa576107fa6114ec565b6020026020010151602001819052506040518060200160405280600081525084828151811061082b5761082b6114ec565b6020026020010151604001819052506040518060200160405280600081525084828151811061085c5761085c6114ec565b6020026020010151606001819052506040518060200160405280600081525084828151811061088d5761088d6114ec565b60200260200101516080018190525080806108a79061135b565b91505061079d565b505b6001600160a01b03841660009081526003602052604090205443116108f8576001600160a01b0384166000908152600360205260409020546108f39043610e98565b6108fb565b60005b6007549395909450915050565b610910610e29565b600955565b61091d610e29565b600a55565b61092a610e29565b6109346000610eb0565b565b3360008181526004602052604090205443116109af5760405162461bcd60e51b815260206004820152603260248201527f4572726f72205375626d6974205175657374696f6e3a2049742773206e6f74206044820152711d1a5b59481d1bc81cdd589b5a5d081e595d60721b60648201526084016103f6565b6001600160a01b038116600090815260036020526040902054431115610a295760405162461bcd60e51b815260206004820152602960248201527f4572726f72205375626d6974205175657374696f6e3a207375626d697373696f6044820152681b881d1a5b595bdd5d60ba1b60648201526084016103f6565b6000805b600954811015610b63576001600160a01b03838116600090815260056020908152604080832085845290915280822054600154915163085a07fb60e21b815260048101829052909391909116906321681fec90602401600060405180830381865afa158015610aa0573d6000803e3d6000fd5b505050506040513d6000823e601f3d908101601f19168201604052610ac89190810190611412565b955050505050506000878785818110610ae357610ae36114ec565b905060200201359050818103610b2a576001600160a01b03861660009081526006602090815260408083208784529091529020600190819055610b27908690610ea4565b94505b5050506001600160a01b038316600090815260056020908152604080832084845290915281205580610b5b8161135b565b915050610a2d565b508015610b7457610b748282610f00565b506001600160a01b03166000908152600360209081526040808320546004909252909120555050565b610ba5610e29565b600855565b6060600060095467ffffffffffffffff811115610bc957610bc9611374565b604051908082528060200260200182016040528015610bf2578160200160208202803683370190505b5091506000905060005b600954811015610c97576001600160a01b03841660009081526006602090815260408083208484529091529020548351849083908110610c3e57610c3e6114ec565b6020908102919091018101919091526001600160a01b03851660009081526006825260408082208483529092522054600103610c8557600a54610c82908390610ea4565b91505b80610c8f8161135b565b915050610bfc565b50915091565b610ca5610e29565b600280546001600160a01b0319166001600160a01b0392909216919091179055565b60408051426020808301829052448385018190524560608086019190915285518086038201815260808601875280519084012060a086019290925260c085019390935260e0840189905261010084018190529187901b6bffffffffffffffffffffffff19166101208401528351808403610114018152610134909301909352815191909201206000919084610d5c8186611502565b610d67906001611515565b610d71908361153e565b610d7b9190611515565b979650505050505050565b610d8e610e29565b6001600160a01b038116610df35760405162461bcd60e51b815260206004820152602660248201527f4f776e61626c653a206e6577206f776e657220697320746865207a65726f206160448201526564647265737360d01b60648201526084016103f6565b610dfc81610eb0565b50565b610e07610e29565b600180546001600160a01b0319166001600160a01b0392909216919091179055565b6000546001600160a01b031633146109345760405162461bcd60e51b815260206004820181905260248201527f4f776e61626c653a2063616c6c6572206973206e6f7420746865206f776e657260448201526064016103f6565b6000610e8f8284611552565b90505b92915050565b6000610e8f8284611502565b6000610e8f8284611515565b600080546001600160a01b038381166001600160a01b0319831681178455604051919092169283917f8be0079c531659141344cd1fd0a4f28419497f9722a3daafe3b4186f6b6457e09190a35050565b600a54610f0e90829061108e565b6002546040516370a0823160e01b81523060048201526001600160a01b03909116906370a0823190602401602060405180830381865afa158015610f56573d6000803e3d6000fd5b505050506040513d601f19601f82011682018060405250810190610f7a9190611566565b1061101857600254600a546001600160a01b039091169063a9059cbb908490610fa490859061108e565b6040516001600160e01b031960e085901b1681526001600160a01b03909216600483015260248201526044016020604051808303816000875af1158015610fef573d6000803e3d6000fd5b505050506040513d601f19601f82011682018060405250810190611013919061157f565b505050565b6002546040516370a0823160e01b81523060048201526001600160a01b039091169063a9059cbb90849083906370a0823190602401602060405180830381865afa15801561106a573d6000803e3d6000fd5b505050506040513d601f19601f82011682018060405250810190610fa49190611566565b6000610e8f82846115a1565b6000602082840312156110ac57600080fd5b5035919050565b6001600160a01b0381168114610dfc57600080fd5b6000602082840312156110da57600080fd5b81356110e5816110b3565b9392505050565b60005b838110156111075781810151838201526020016110ef565b50506000910152565b600081518084526111288160208601602086016110ec565b601f01601f19169290920160200192915050565b60006060808301818452808751808352608092508286019150828160051b8701016020808b0160005b8481101561120457607f198a8503018652815160a0815181875261118b82880182611110565b91505084820151868203868801526111a38282611110565b915050604080830151878303828901526111bd8382611110565b92505050898201518682038b8801526111d68282611110565b915050888201519150858103898701526111f08183611110565b978501979550505090820190600101611165565b50508701989098525050505060409091019190915250919050565b6000806040838503121561123257600080fd5b823561123d816110b3565b946020939093013593505050565b6000806020838503121561125e57600080fd5b823567ffffffffffffffff8082111561127657600080fd5b818501915085601f83011261128a57600080fd5b81358181111561129957600080fd5b8660208260051b85010111156112ae57600080fd5b60209290920196919550909350505050565b604080825283519082018190526000906020906060840190828701845b828110156112f9578151845292840192908401906001016112dd565b50505092019290925292915050565b6000806000806080858703121561131e57600080fd5b843593506020850135611330816110b3565b93969395505050506040820135916060013590565b634e487b7160e01b600052601160045260246000fd5b60006001820161136d5761136d611345565b5060010190565b634e487b7160e01b600052604160045260246000fd5b600082601f83011261139b57600080fd5b815167ffffffffffffffff808211156113b6576113b6611374565b604051601f8301601f19908116603f011681019082821181831017156113de576113de611374565b816040528381528660208588010111156113f757600080fd5b6114088460208301602089016110ec565b9695505050505050565b60008060008060008060c0878903121561142b57600080fd5b865167ffffffffffffffff8082111561144357600080fd5b61144f8a838b0161138a565b9750602089015191508082111561146557600080fd5b6114718a838b0161138a565b9650604089015191508082111561148757600080fd5b6114938a838b0161138a565b955060608901519150808211156114a957600080fd5b6114b58a838b0161138a565b945060808901519150808211156114cb57600080fd5b506114d889828a0161138a565b92505060a087015190509295509295509295565b634e487b7160e01b600052603260045260246000fd5b81810381811115610e9257610e92611345565b80820180821115610e9257610e92611345565b634e487b7160e01b600052601260045260246000fd5b60008261154d5761154d611528565b500690565b60008261156157611561611528565b500490565b60006020828403121561157857600080fd5b5051919050565b60006020828403121561159157600080fd5b815180151581146110e557600080fd5b8082028115828204841417610e9257610e9261134556fea2646970667358221220de61ec768c5a9ac494e134dc6d2702f536d4b257a26ddaec858749c54e3d01b364736f6c63430008110033",
  "immutableReferences": {},
  "source": "// SPDX-License-Identifier: MIT\npragma solidity ^0.8.0;\n\nimport \"./interfaces/IQuestionData.sol\";\n\nimport \"@openzeppelin/contracts/utils/math/SafeMath.sol\";\nimport \"@openzeppelin/contracts/access/Ownable.sol\";\nimport \"@openzeppelin/contracts/token/ERC20/IERC20.sol\";\n\ncontract Question is Ownable\n{\n    using SafeMath for uint256;\n\n    IQuestionData public QuestionDataContract;\n    IERC20 public TokenReward;  // CyberCredit\n\n    mapping(address => uint256) public TimeTheNextToDoQuest;\n    mapping(address => uint256) public TimeTheNextSubmit;\n    mapping(address => mapping(uint256 => uint256)) public ListQuestionsUser;\n    mapping(address => mapping(uint256 => uint256)) public ListResultAnswersUser;\n    // mapping(address => uint256) public BlockReturnDoQuestion; // suport client\n    // mapping(address => uint256) public BlockReturnSubmitQuestion; // suport client\n\n    uint256 public DelayToDoQuest = 10;  // block\n    uint256 public TotalQuestionContract = 10;\n    uint256 public TotalQuestionOnDay = 3;\n\n    uint256 public BonusAnswerCorrect = 10;\n\n    struct Question\n    {\n        string Question;\n        string Answer0;\n        string Answer1;\n        string Answer2;\n        string Answer3;\n    }\n\n    constructor(IQuestionData questionDataContract, IERC20 tokenReward) \n    {\n        QuestionDataContract = questionDataContract;\n        TokenReward = tokenReward;\n    }\n\n    function SetQuestionDataContract(IQuestionData newQuestionDataContract) public onlyOwner\n    {\n        QuestionDataContract = newQuestionDataContract;\n    }\n\n    function SetTokenReward(IERC20 newTokenReward) public onlyOwner\n    {\n        TokenReward = newTokenReward;\n    }\n\n    function SetDelayToDoQuest(uint256 newDelayToDoQuest) public onlyOwner\n    {\n        DelayToDoQuest = newDelayToDoQuest;\n    }\n\n    function SetTotalQuestionContract(uint256 newTotalQuestionContract) public onlyOwner\n    {\n        TotalQuestionContract = newTotalQuestionContract;\n    }\n    \n    function SetTotalQuestionOnDay(uint256 newTotalQuestionOnDay) public onlyOwner\n    {\n        TotalQuestionOnDay = newTotalQuestionOnDay;\n    }\n\n    function SetBonusAnswerCorrect(uint256 newBonusAnswerCorrect) public onlyOwner\n    {\n        BonusAnswerCorrect = newBonusAnswerCorrect;\n    }\n    function DoQuestOnDay() public\n    {\n        address user = msg.sender;\n        require(block.number > TimeTheNextToDoQuest[user], \"Error To Do Quest: It's not time to ask quest\");\n\n        for(uint256 oldResultAnswer = 0; oldResultAnswer < TotalQuestionOnDay; oldResultAnswer++)\n        {\n            delete ListResultAnswersUser[user][oldResultAnswer];\n        }\n\n        uint256 from1 = 0;\n        uint256 to1 = TotalQuestionContract.div(TotalQuestionOnDay).sub(1);\n\n        uint256 from2 = to1.add(1);\n        uint256 to2 = from2.add(TotalQuestionContract.div(TotalQuestionOnDay).sub(1));\n\n        uint256 from3 = to2.add(1);\n        uint256 to3 = TotalQuestionContract.sub(1);\n\n        ListQuestionsUser[user][0] = RandomNumber(0, user, from1, to1);\n        ListQuestionsUser[user][1] = RandomNumber(1, user, from2, to2);\n        ListQuestionsUser[user][2] = RandomNumber(2, user, from3, to3);\n\n        TimeTheNextToDoQuest[user] = block.number.add(DelayToDoQuest);\n        // BlockReturnDoQuestion[user] = block.number;\n    }\n\n    function GetDataQuest(address user) public view returns(\n        Question[] memory data,\n        uint256 timeTheNextToDoQuest,\n        uint256 delayToDoQuest\n        // uint256 blockReturnDoQuestion\n        )\n    {\n        data = new Question[](TotalQuestionOnDay);\n\n        if(TimeTheNextToDoQuest[user] > block.number)\n        {\n            for(uint256 indexQuestion = 0; indexQuestion < TotalQuestionOnDay; indexQuestion++)\n            {\n                uint256 questionNumber = ListQuestionsUser[user][indexQuestion];\n\n                (data[indexQuestion].Question,\n                data[indexQuestion].Answer0,\n                data[indexQuestion].Answer1,\n                data[indexQuestion].Answer2,\n                data[indexQuestion].Answer3, ) = QuestionDataContract.ListQuestionsContract(questionNumber);\n            }\n        }\n        else \n        {\n            for(uint256 indexQuestion = 0; indexQuestion < TotalQuestionOnDay; indexQuestion++)\n            {\n                data[indexQuestion].Question = \"\";\n                data[indexQuestion].Answer0 = \"\";\n                data[indexQuestion].Answer1 = \"\";\n                data[indexQuestion].Answer2 = \"\";\n                data[indexQuestion].Answer3 = \"\";\n            }\n        }\n\n        timeTheNextToDoQuest = (TimeTheNextToDoQuest[user] < block.number) ? 0 : TimeTheNextToDoQuest[user].sub(block.number);\n        delayToDoQuest = DelayToDoQuest;\n        // blockReturnDoQuestion = BlockReturnDoQuestion[user];\n    }\n\n    function SubmitQuestions(uint256[] calldata results) public\n    {\n        address user = msg.sender;\n        require(block.number > TimeTheNextSubmit[user], \"Error Submit Question: It's not time to submit yet\");\n        require(block.number <= TimeTheNextToDoQuest[user], \"Error Submit Question: submission timeout\");\n\n        uint256 totalNumberCorrect = 0;\n        for(uint256 indexQuestion = 0; indexQuestion < TotalQuestionOnDay; indexQuestion++)\n        {\n            uint256 questionNumber = ListQuestionsUser[user][indexQuestion];\n            (,,,,,uint256 resultAnswerQuestionInContract) = QuestionDataContract.ListQuestionsContract(questionNumber);\n            uint256 resultAnswerQuestionOfUser = results[indexQuestion];\n\n            if(resultAnswerQuestionOfUser == resultAnswerQuestionInContract)\n            {\n                ListResultAnswersUser[user][indexQuestion] = 1; // 1: true, 0: false;\n                totalNumberCorrect = totalNumberCorrect.add(1);\n            }\n            delete ListQuestionsUser[user][indexQuestion];\n        }\n\n        if(totalNumberCorrect > 0) DoBonusToken(user, totalNumberCorrect);\n\n        TimeTheNextSubmit[user] = TimeTheNextToDoQuest[user];\n        // BlockReturnSubmitQuestion[user] = block.number;\n    }\n\n    function DoBonusToken(address user, uint256 totalNumberCorrect) private \n    {\n        if(TokenReward.balanceOf(address(this)) >= totalNumberCorrect.mul(BonusAnswerCorrect))\n        {\n            TokenReward.transfer(user, totalNumberCorrect.mul(BonusAnswerCorrect));\n        }\n        else\n        {\n            TokenReward.transfer(user, TokenReward.balanceOf(address(this)));\n        }\n    }  \n\n    function GetResultAnswers(address user) public view returns(\n        uint256[] memory data,\n        uint256 totalBonusToken\n        // uint256 blockReturnSubmitQuestion\n    )\n    {\n        data =  new uint256[](TotalQuestionOnDay);\n        totalBonusToken = 0;\n\n        for(uint256 resultAnswers = 0; resultAnswers < TotalQuestionOnDay; resultAnswers++)\n        {\n            data[resultAnswers] = ListResultAnswersUser[user][resultAnswers];\n            if(ListResultAnswersUser[user][resultAnswers] == 1)\n            {\n                totalBonusToken = totalBonusToken.add(BonusAnswerCorrect);\n            }\n        }\n        // blockReturnSubmitQuestion = BlockReturnSubmitQuestion[user];\n    }\n\n    function RandomNumber(uint256 count, address user, uint256 from, uint256 to) public view returns(uint256)\n    {\n        uint256 seed = uint256(keccak256(abi.encodePacked(block.timestamp, block.difficulty, block.gaslimit)));\n        uint256 randomHash = uint256(keccak256(abi.encodePacked(block.difficulty, block.timestamp, count, seed, user)));\n        return randomHash % (to - from + 1) + from;\n    }\n}",
  "sourcePath": "/Applications/projects/garbi-contracts/contracts/Question.sol",
  "compiler": {
    "name": "solc",
    "version": "0.8.17+commit.8df45f5f.Emscripten.clang"
  },
  "schemaVersion": "3.4.11",
  "updatedAt": "2023-03-13T03:20:49.512Z",
  "networkType": "ethereum",
  "devdoc": {
    "kind": "dev",
    "methods": {
      "owner()": {
        "details": "Returns the address of the current owner."
      },
      "renounceOwnership()": {
        "details": "Leaves the contract without owner. It will not be possible to call `onlyOwner` functions anymore. Can only be called by the current owner. NOTE: Renouncing ownership will leave the contract without an owner, thereby removing any functionality that is only available to the owner."
      },
      "transferOwnership(address)": {
        "details": "Transfers ownership of the contract to a new account (`newOwner`). Can only be called by the current owner."
      }
    },
    "version": 1
  },
  "userdoc": {
    "kind": "user",
    "methods": {},
    "version": 1
  }
}