{
  "contractName": "Question",
  "abi": [
    {
      "inputs": [
        {
          "internalType": "contract IQuestionData",
          "name": "questionDataContract",
          "type": "address"
        },
        {
          "internalType": "contract IERC20",
          "name": "tokenReward",
          "type": "address"
        }
      ],
      "stateMutability": "nonpayable",
      "type": "constructor"
    },
    {
      "anonymous": false,
      "inputs": [
        {
          "indexed": true,
          "internalType": "address",
          "name": "previousOwner",
          "type": "address"
        },
        {
          "indexed": true,
          "internalType": "address",
          "name": "newOwner",
          "type": "address"
        }
      ],
      "name": "OwnershipTransferred",
      "type": "event"
    },
    {
      "inputs": [],
      "name": "BonusAnswerCorrect",
      "outputs": [
        {
          "internalType": "uint256",
          "name": "",
          "type": "uint256"
        }
      ],
      "stateMutability": "view",
      "type": "function",
      "constant": true
    },
    {
      "inputs": [],
      "name": "DelayToDoQuest",
      "outputs": [
        {
          "internalType": "uint256",
          "name": "",
          "type": "uint256"
        }
      ],
      "stateMutability": "view",
      "type": "function",
      "constant": true
    },
    {
      "inputs": [
        {
          "internalType": "address",
          "name": "",
          "type": "address"
        },
        {
          "internalType": "uint256",
          "name": "",
          "type": "uint256"
        }
      ],
      "name": "ListQuestionsUser",
      "outputs": [
        {
          "internalType": "uint256",
          "name": "",
          "type": "uint256"
        }
      ],
      "stateMutability": "view",
      "type": "function",
      "constant": true
    },
    {
      "inputs": [
        {
          "internalType": "address",
          "name": "",
          "type": "address"
        },
        {
          "internalType": "uint256",
          "name": "",
          "type": "uint256"
        }
      ],
      "name": "ListResultAnswersUser",
      "outputs": [
        {
          "internalType": "uint256",
          "name": "",
          "type": "uint256"
        }
      ],
      "stateMutability": "view",
      "type": "function",
      "constant": true
    },
    {
      "inputs": [],
      "name": "QuestionDataContract",
      "outputs": [
        {
          "internalType": "contract IQuestionData",
          "name": "",
          "type": "address"
        }
      ],
      "stateMutability": "view",
      "type": "function",
      "constant": true
    },
    {
      "inputs": [
        {
          "internalType": "address",
          "name": "",
          "type": "address"
        }
      ],
      "name": "TimeTheNextSubmit",
      "outputs": [
        {
          "internalType": "uint256",
          "name": "",
          "type": "uint256"
        }
      ],
      "stateMutability": "view",
      "type": "function",
      "constant": true
    },
    {
      "inputs": [
        {
          "internalType": "address",
          "name": "",
          "type": "address"
        }
      ],
      "name": "TimeTheNextToDoQuest",
      "outputs": [
        {
          "internalType": "uint256",
          "name": "",
          "type": "uint256"
        }
      ],
      "stateMutability": "view",
      "type": "function",
      "constant": true
    },
    {
      "inputs": [],
      "name": "TokenReward",
      "outputs": [
        {
          "internalType": "contract IERC20",
          "name": "",
          "type": "address"
        }
      ],
      "stateMutability": "view",
      "type": "function",
      "constant": true
    },
    {
      "inputs": [],
      "name": "TotalQuestionContract",
      "outputs": [
        {
          "internalType": "uint256",
          "name": "",
          "type": "uint256"
        }
      ],
      "stateMutability": "view",
      "type": "function",
      "constant": true
    },
    {
      "inputs": [],
      "name": "TotalQuestionOnDay",
      "outputs": [
        {
          "internalType": "uint256",
          "name": "",
          "type": "uint256"
        }
      ],
      "stateMutability": "view",
      "type": "function",
      "constant": true
    },
    {
      "inputs": [],
      "name": "owner",
      "outputs": [
        {
          "internalType": "address",
          "name": "",
          "type": "address"
        }
      ],
      "stateMutability": "view",
      "type": "function",
      "constant": true
    },
    {
      "inputs": [],
      "name": "renounceOwnership",
      "outputs": [],
      "stateMutability": "nonpayable",
      "type": "function"
    },
    {
      "inputs": [
        {
          "internalType": "address",
          "name": "newOwner",
          "type": "address"
        }
      ],
      "name": "transferOwnership",
      "outputs": [],
      "stateMutability": "nonpayable",
      "type": "function"
    },
    {
      "inputs": [
        {
          "internalType": "contract IQuestionData",
          "name": "newQuestionDataContract",
          "type": "address"
        }
      ],
      "name": "SetQuestionDataContract",
      "outputs": [],
      "stateMutability": "nonpayable",
      "type": "function"
    },
    {
      "inputs": [
        {
          "internalType": "contract IERC20",
          "name": "newTokenReward",
          "type": "address"
        }
      ],
      "name": "SetTokenReward",
      "outputs": [],
      "stateMutability": "nonpayable",
      "type": "function"
    },
    {
      "inputs": [
        {
          "internalType": "uint256",
          "name": "newDelayToDoQuest",
          "type": "uint256"
        }
      ],
      "name": "SetDelayToDoQuest",
      "outputs": [],
      "stateMutability": "nonpayable",
      "type": "function"
    },
    {
      "inputs": [
        {
          "internalType": "uint256",
          "name": "newTotalQuestionContract",
          "type": "uint256"
        }
      ],
      "name": "SetTotalQuestionContract",
      "outputs": [],
      "stateMutability": "nonpayable",
      "type": "function"
    },
    {
      "inputs": [
        {
          "internalType": "uint256",
          "name": "newTotalQuestionOnDay",
          "type": "uint256"
        }
      ],
      "name": "SetTotalQuestionOnDay",
      "outputs": [],
      "stateMutability": "nonpayable",
      "type": "function"
    },
    {
      "inputs": [
        {
          "internalType": "uint256",
          "name": "newBonusAnswerCorrect",
          "type": "uint256"
        }
      ],
      "name": "SetBonusAnswerCorrect",
      "outputs": [],
      "stateMutability": "nonpayable",
      "type": "function"
    },
    {
      "inputs": [],
      "name": "DoQuestOnDay",
      "outputs": [],
      "stateMutability": "nonpayable",
      "type": "function"
    },
    {
      "inputs": [
        {
          "internalType": "address",
          "name": "user",
          "type": "address"
        }
      ],
      "name": "GetDataQuest",
      "outputs": [
        {
          "components": [
            {
              "internalType": "string",
              "name": "Question",
              "type": "string"
            },
            {
              "internalType": "string",
              "name": "Answer0",
              "type": "string"
            },
            {
              "internalType": "string",
              "name": "Answer1",
              "type": "string"
            },
            {
              "internalType": "string",
              "name": "Answer2",
              "type": "string"
            },
            {
              "internalType": "string",
              "name": "Answer3",
              "type": "string"
            }
          ],
          "internalType": "struct Question.Question[]",
          "name": "data",
          "type": "tuple[]"
        },
        {
          "internalType": "uint256",
          "name": "timeTheNextToDoQuest",
          "type": "uint256"
        },
        {
          "internalType": "uint256",
          "name": "delayToDoQuest",
          "type": "uint256"
        }
      ],
      "stateMutability": "view",
      "type": "function",
      "constant": true
    },
    {
      "inputs": [
        {
          "internalType": "uint256[]",
          "name": "results",
          "type": "uint256[]"
        }
      ],
      "name": "SubmitQuestions",
      "outputs": [],
      "stateMutability": "nonpayable",
      "type": "function"
    },
    {
      "inputs": [
        {
          "internalType": "address",
          "name": "user",
          "type": "address"
        }
      ],
      "name": "GetResultAnswers",
      "outputs": [
        {
          "internalType": "uint256[]",
          "name": "data",
          "type": "uint256[]"
        },
        {
          "internalType": "uint256",
          "name": "totalBonusToken",
          "type": "uint256"
        }
      ],
      "stateMutability": "view",
      "type": "function",
      "constant": true
    },
    {
      "inputs": [
        {
          "internalType": "uint256",
          "name": "count",
          "type": "uint256"
        },
        {
          "internalType": "address",
          "name": "user",
          "type": "address"
        },
        {
          "internalType": "uint256",
          "name": "from",
          "type": "uint256"
        },
        {
          "internalType": "uint256",
          "name": "to",
          "type": "uint256"
        }
      ],
      "name": "RandomNumber",
      "outputs": [
        {
          "internalType": "uint256",
          "name": "",
          "type": "uint256"
        }
      ],
      "stateMutability": "view",
      "type": "function",
      "constant": true
    }
  ],
  "bytecode": "0x60806040526000600755600a6008556003600955600a80553480156200002457600080fd5b5060405162001573380380620015738339810160408190526200004791620000ed565b620000523362000084565b600180546001600160a01b039384166001600160a01b031991821617909155600280549290931691161790556200012c565b600080546001600160a01b038381166001600160a01b0319831681178455604051919092169283917f8be0079c531659141344cd1fd0a4f28419497f9722a3daafe3b4186f6b6457e09190a35050565b6001600160a01b0381168114620000ea57600080fd5b50565b600080604083850312156200010157600080fd5b82516200010e81620000d4565b60208401519092506200012181620000d4565b809150509250929050565b611437806200013c6000396000f3fe608060405234801561001057600080fd5b50600436106101585760003560e01c80638da5cb5b116100c3578063b7a16d211161007c578063b7a16d21146102ef578063bdb3a21214610302578063d24278fb1461032d578063eee6260e14610340578063f2fde38b14610353578063f3f222331461036657600080fd5b80638da5cb5b1461027857806391a792221461028957806397c72e3c1461029c578063a6f1b3e1146102a5578063ad0df94e146102c5578063b00667fe146102ce57600080fd5b8063460d537711610115578063460d537714610203578063496a29611461022e5780635f872a8214610237578063681425421461024a578063715018a61461025d5780637b51717b1461026557600080fd5b8063085e16421461015d578063134104b11461017257806328ce04111461018e57806338d12eef146101ae5780633a821f9b146101b6578063441bb5e7146101e1575b600080fd5b61017061016b366004610ee3565b610379565b005b61017b600a5481565b6040519081526020015b60405180910390f35b61017b61019c366004610f11565b60036020526000908152604090205481565b610170610386565b6002546101c9906001600160a01b031681565b6040516001600160a01b039091168152602001610185565b6101f46101ef366004610f11565b610594565b60405161018593929190610f85565b61017b610211366004611068565b600560209081526000928352604080842090915290825290205481565b61017b60085481565b610170610245366004610ee3565b6107cb565b610170610258366004610ee3565b6107d8565b6101706107e5565b610170610273366004611094565b6107f9565b6000546001600160a01b03166101c9565b610170610297366004610ee3565b6109e6565b61017b60075481565b61017b6102b3366004610f11565b60046020526000908152604090205481565b61017b60095481565b6102e16102dc366004610f11565b6109f3565b604051610185929190611109565b6101706102fd366004610f11565b610ae6565b61017b610310366004611068565b600660209081526000928352604080842090915290825290205481565b61017b61033b366004611151565b610b10565b6001546101c9906001600160a01b031681565b610170610361366004610f11565b610bcf565b610170610374366004610f11565b610c48565b610381610c72565b600755565b3360008181526003602052604090205443116103ff5760405162461bcd60e51b815260206004820152602d60248201527f4572726f7220546f20446f2051756573743a2049742773206e6f742074696d6560448201526c081d1bc8185cdac81c5d595cdd609a1b60648201526084015b60405180910390fd5b60005b600954811015610442576001600160a01b03821660009081526006602090815260408083208484529091528120558061043a816111a4565b915050610402565b506000806104686001610462600954600854610ccc90919063ffffffff16565b90610ce1565b90506000610477826001610ced565b905060006104a161049a6001610462600954600854610ccc90919063ffffffff16565b8390610ced565b905060006104b0826001610ced565b905060006104ca6001600854610ce190919063ffffffff16565b90506104d96000888888610b10565b6001600160a01b038816600090815260056020908152604080832083805290915290205561050a6001888686610b10565b6001600160a01b03881660009081526005602090815260408083206001845290915290205561053c6002888484610b10565b6001600160a01b03881660009081526005602090815260408083206002845290915290205560075461056f904390610ced565b6001600160a01b03909716600090815260036020526040902096909655505050505050565b606060008060095467ffffffffffffffff8111156105b4576105b46111bd565b60405190808252806020026020018201604052801561061757816020015b6106046040518060a0016040528060608152602001606081526020016060815260200160608152602001606081525090565b8152602001906001900390816105d25790505b50925060005b600954811015610773576001600160a01b0385811660009081526005602090815260408083208584529091529081902054600154915163085a07fb60e21b815260048101829052909291909116906321681fec90602401600060405180830381865afa158015610691573d6000803e3d6000fd5b505050506040513d6000823e601f3d908101601f191682016040526106b9919081019061125b565b508987815181106106cc576106cc611335565b60200260200101516000018a88815181106106e9576106e9611335565b60200260200101516020018b898151811061070657610706611335565b60200260200101516040018c8a8151811061072357610723611335565b60200260200101516060018d8b8151811061074057610740611335565b6020026020010151608001859052859052859052859052859052505050505050808061076b906111a4565b91505061061d565b506001600160a01b03841660009081526003602052604090205443116107bb576001600160a01b0384166000908152600360205260409020546107b69043610ce1565b6107be565b60005b6007549395909450915050565b6107d3610c72565b600955565b6107e0610c72565b600a55565b6107ed610c72565b6107f76000610cf9565b565b3360008181526004602052604090205443116108725760405162461bcd60e51b815260206004820152603260248201527f4572726f72205375626d6974205175657374696f6e3a2049742773206e6f74206044820152711d1a5b59481d1bc81cdd589b5a5d081e595d60721b60648201526084016103f6565b6000805b6009548110156109ac576001600160a01b03838116600090815260056020908152604080832085845290915280822054600154915163085a07fb60e21b815260048101829052909391909116906321681fec90602401600060405180830381865afa1580156108e9573d6000803e3d6000fd5b505050506040513d6000823e601f3d908101601f19168201604052610911919081019061125b565b95505050505050600087878581811061092c5761092c611335565b905060200201359050818103610973576001600160a01b03861660009081526006602090815260408083208784529091529020600190819055610970908690610ced565b94505b5050506001600160a01b0383166000908152600560209081526040808320848452909152812055806109a4816111a4565b915050610876565b5080156109bd576109bd8282610d49565b506001600160a01b03166000908152600360209081526040808320546004909252909120555050565b6109ee610c72565b600855565b6060600060095467ffffffffffffffff811115610a1257610a126111bd565b604051908082528060200260200182016040528015610a3b578160200160208202803683370190505b5091506000905060005b600954811015610ae0576001600160a01b03841660009081526006602090815260408083208484529091529020548351849083908110610a8757610a87611335565b6020908102919091018101919091526001600160a01b03851660009081526006825260408082208483529092522054600103610ace57600a54610acb908390610ced565b91505b80610ad8816111a4565b915050610a45565b50915091565b610aee610c72565b600280546001600160a01b0319166001600160a01b0392909216919091179055565b60408051426020808301829052448385018190524560608086019190915285518086038201815260808601875280519084012060a086019290925260c085019390935260e0840189905261010084018190529187901b6bffffffffffffffffffffffff19166101208401528351808403610114018152610134909301909352815191909201206000919084610ba5818661134b565b610bb090600161135e565b610bba9083611387565b610bc4919061135e565b979650505050505050565b610bd7610c72565b6001600160a01b038116610c3c5760405162461bcd60e51b815260206004820152602660248201527f4f776e61626c653a206e6577206f776e657220697320746865207a65726f206160448201526564647265737360d01b60648201526084016103f6565b610c4581610cf9565b50565b610c50610c72565b600180546001600160a01b0319166001600160a01b0392909216919091179055565b6000546001600160a01b031633146107f75760405162461bcd60e51b815260206004820181905260248201527f4f776e61626c653a2063616c6c6572206973206e6f7420746865206f776e657260448201526064016103f6565b6000610cd8828461139b565b90505b92915050565b6000610cd8828461134b565b6000610cd8828461135e565b600080546001600160a01b038381166001600160a01b0319831681178455604051919092169283917f8be0079c531659141344cd1fd0a4f28419497f9722a3daafe3b4186f6b6457e09190a35050565b600a54610d57908290610ed7565b6002546040516370a0823160e01b81523060048201526001600160a01b03909116906370a0823190602401602060405180830381865afa158015610d9f573d6000803e3d6000fd5b505050506040513d601f19601f82011682018060405250810190610dc391906113af565b10610e6157600254600a546001600160a01b039091169063a9059cbb908490610ded908590610ed7565b6040516001600160e01b031960e085901b1681526001600160a01b03909216600483015260248201526044016020604051808303816000875af1158015610e38573d6000803e3d6000fd5b505050506040513d601f19601f82011682018060405250810190610e5c91906113c8565b505050565b6002546040516370a0823160e01b81523060048201526001600160a01b039091169063a9059cbb90849083906370a0823190602401602060405180830381865afa158015610eb3573d6000803e3d6000fd5b505050506040513d601f19601f82011682018060405250810190610ded91906113af565b6000610cd882846113ea565b600060208284031215610ef557600080fd5b5035919050565b6001600160a01b0381168114610c4557600080fd5b600060208284031215610f2357600080fd5b8135610f2e81610efc565b9392505050565b60005b83811015610f50578181015183820152602001610f38565b50506000910152565b60008151808452610f71816020860160208601610f35565b601f01601f19169290920160200192915050565b60006060808301818452808751808352608092508286019150828160051b8701016020808b0160005b8481101561104d57607f198a8503018652815160a08151818752610fd482880182610f59565b9150508482015186820386880152610fec8282610f59565b915050604080830151878303828901526110068382610f59565b92505050898201518682038b88015261101f8282610f59565b915050888201519150858103898701526110398183610f59565b978501979550505090820190600101610fae565b50508701989098525050505060409091019190915250919050565b6000806040838503121561107b57600080fd5b823561108681610efc565b946020939093013593505050565b600080602083850312156110a757600080fd5b823567ffffffffffffffff808211156110bf57600080fd5b818501915085601f8301126110d357600080fd5b8135818111156110e257600080fd5b8660208260051b85010111156110f757600080fd5b60209290920196919550909350505050565b604080825283519082018190526000906020906060840190828701845b8281101561114257815184529284019290840190600101611126565b50505092019290925292915050565b6000806000806080858703121561116757600080fd5b84359350602085013561117981610efc565b93969395505050506040820135916060013590565b634e487b7160e01b600052601160045260246000fd5b6000600182016111b6576111b661118e565b5060010190565b634e487b7160e01b600052604160045260246000fd5b600082601f8301126111e457600080fd5b815167ffffffffffffffff808211156111ff576111ff6111bd565b604051601f8301601f19908116603f01168101908282118183101715611227576112276111bd565b8160405283815286602085880101111561124057600080fd5b611251846020830160208901610f35565b9695505050505050565b60008060008060008060c0878903121561127457600080fd5b865167ffffffffffffffff8082111561128c57600080fd5b6112988a838b016111d3565b975060208901519150808211156112ae57600080fd5b6112ba8a838b016111d3565b965060408901519150808211156112d057600080fd5b6112dc8a838b016111d3565b955060608901519150808211156112f257600080fd5b6112fe8a838b016111d3565b9450608089015191508082111561131457600080fd5b5061132189828a016111d3565b92505060a087015190509295509295509295565b634e487b7160e01b600052603260045260246000fd5b81810381811115610cdb57610cdb61118e565b80820180821115610cdb57610cdb61118e565b634e487b7160e01b600052601260045260246000fd5b60008261139657611396611371565b500690565b6000826113aa576113aa611371565b500490565b6000602082840312156113c157600080fd5b5051919050565b6000602082840312156113da57600080fd5b81518015158114610f2e57600080fd5b8082028115828204841417610cdb57610cdb61118e56fea264697066735822122096d0219aa60a032a2bb26e4bead73f83b7f1c0915886b83f2b1998893ce99efb64736f6c63430008110033",
  "immutableReferences": {},
  "source": "// SPDX-License-Identifier: MIT\npragma solidity ^0.8.0;\n\nimport \"./interfaces/IQuestionData.sol\";\n\nimport \"@openzeppelin/contracts/utils/math/SafeMath.sol\";\nimport \"@openzeppelin/contracts/access/Ownable.sol\";\nimport \"@openzeppelin/contracts/token/ERC20/IERC20.sol\";\n\ncontract Question is Ownable\n{\n    using SafeMath for uint256;\n\n    IQuestionData public QuestionDataContract;\n    IERC20 public TokenReward;  // CyberCredit\n\n    mapping(address => uint256) public TimeTheNextToDoQuest;\n    mapping(address => uint256) public TimeTheNextSubmit;\n    mapping(address => mapping(uint256 => uint256)) public ListQuestionsUser;\n    mapping(address => mapping(uint256 => uint256)) public ListResultAnswersUser;\n\n    uint256 public DelayToDoQuest = 0;  // block\n    uint256 public TotalQuestionContract = 10;\n    uint256 public TotalQuestionOnDay = 3;\n\n    uint256 public BonusAnswerCorrect = 10;\n\n    struct Question\n    {\n        string Question;\n        string Answer0;\n        string Answer1;\n        string Answer2;\n        string Answer3;\n    }\n\n    constructor(IQuestionData questionDataContract, IERC20 tokenReward) \n    {\n        QuestionDataContract = questionDataContract;\n        TokenReward = tokenReward;\n    }\n\n    function SetQuestionDataContract(IQuestionData newQuestionDataContract) public onlyOwner\n    {\n        QuestionDataContract = newQuestionDataContract;\n    }\n\n    function SetTokenReward(IERC20 newTokenReward) public onlyOwner\n    {\n        TokenReward = newTokenReward;\n    }\n\n    function SetDelayToDoQuest(uint256 newDelayToDoQuest) public onlyOwner\n    {\n        DelayToDoQuest = newDelayToDoQuest;\n    }\n\n    function SetTotalQuestionContract(uint256 newTotalQuestionContract) public onlyOwner\n    {\n        TotalQuestionContract = newTotalQuestionContract;\n    }\n    \n    function SetTotalQuestionOnDay(uint256 newTotalQuestionOnDay) public onlyOwner\n    {\n        TotalQuestionOnDay = newTotalQuestionOnDay;\n    }\n\n    function SetBonusAnswerCorrect(uint256 newBonusAnswerCorrect) public onlyOwner\n    {\n        BonusAnswerCorrect = newBonusAnswerCorrect;\n    }\n    function DoQuestOnDay() public\n    {\n        address user = msg.sender;\n        require(block.number > TimeTheNextToDoQuest[user], \"Error To Do Quest: It's not time to ask quest\");\n\n        for(uint256 oldResultAnswer = 0; oldResultAnswer < TotalQuestionOnDay; oldResultAnswer++)\n        {\n            delete ListResultAnswersUser[user][oldResultAnswer];\n        }\n\n        uint256 from1 = 0;\n        uint256 to1 = TotalQuestionContract.div(TotalQuestionOnDay).sub(1);\n\n        uint256 from2 = to1.add(1);\n        uint256 to2 = from2.add(TotalQuestionContract.div(TotalQuestionOnDay).sub(1));\n\n        uint256 from3 = to2.add(1);\n        uint256 to3 = TotalQuestionContract.sub(1);\n\n        ListQuestionsUser[user][0] = RandomNumber(0, user, from1, to1);\n        ListQuestionsUser[user][1] = RandomNumber(1, user, from2, to2);\n        ListQuestionsUser[user][2] = RandomNumber(2, user, from3, to3);\n\n        TimeTheNextToDoQuest[user] = block.number.add(DelayToDoQuest);\n    }\n\n    function GetDataQuest(address user) public view returns(\n        Question[] memory data,\n        uint256 timeTheNextToDoQuest,\n        uint256 delayToDoQuest\n        )\n    {\n        data = new Question[](TotalQuestionOnDay);\n        for(uint256 indexQuestion = 0; indexQuestion < TotalQuestionOnDay; indexQuestion++)\n        {\n            uint256 questionNumber = ListQuestionsUser[user][indexQuestion];\n\n            (data[indexQuestion].Question,\n            data[indexQuestion].Answer0,\n            data[indexQuestion].Answer1,\n            data[indexQuestion].Answer2,\n            data[indexQuestion].Answer3, ) = QuestionDataContract.ListQuestionsContract(questionNumber);\n        }\n        timeTheNextToDoQuest = (TimeTheNextToDoQuest[user] < block.number) ? 0 : TimeTheNextToDoQuest[user].sub(block.number);\n        delayToDoQuest = DelayToDoQuest;\n    }\n\n    function SubmitQuestions(uint256[] calldata results) public\n    {\n        address user = msg.sender;\n        require(block.number > TimeTheNextSubmit[user], \"Error Submit Question: It's not time to submit yet\");\n\n        uint256 totalNumberCorrect = 0;\n        for(uint256 indexQuestion = 0; indexQuestion < TotalQuestionOnDay; indexQuestion++)\n        {\n            uint256 questionNumber = ListQuestionsUser[user][indexQuestion];\n            (,,,,,uint256 resultAnswerQuestionInContract) = QuestionDataContract.ListQuestionsContract(questionNumber);\n            uint256 resultAnswerQuestionOfUser = results[indexQuestion];\n\n            if(resultAnswerQuestionOfUser == resultAnswerQuestionInContract)\n            {\n                ListResultAnswersUser[user][indexQuestion] = 1; // 1: true, 0: false;\n                totalNumberCorrect = totalNumberCorrect.add(1);\n            }\n            delete ListQuestionsUser[user][indexQuestion];\n        }\n\n        if(totalNumberCorrect > 0) DoBonusToken(user, totalNumberCorrect);\n\n        TimeTheNextSubmit[user] = TimeTheNextToDoQuest[user];\n    }\n\n    function DoBonusToken(address user, uint256 totalNumberCorrect) private \n    {\n        if(TokenReward.balanceOf(address(this)) >= totalNumberCorrect.mul(BonusAnswerCorrect))\n        {\n            TokenReward.transfer(user, totalNumberCorrect.mul(BonusAnswerCorrect));\n        }\n        else\n        {\n            TokenReward.transfer(user, TokenReward.balanceOf(address(this)));\n        }\n    }  \n\n    function GetResultAnswers(address user) public view returns(\n        uint256[] memory data,\n        uint256 totalBonusToken\n    )\n    {\n        data =  new uint256[](TotalQuestionOnDay);\n        totalBonusToken = 0;\n\n        for(uint256 resultAnswers = 0; resultAnswers < TotalQuestionOnDay; resultAnswers++)\n        {\n            data[resultAnswers] = ListResultAnswersUser[user][resultAnswers];\n            if(ListResultAnswersUser[user][resultAnswers] == 1)\n            {\n                totalBonusToken = totalBonusToken.add(BonusAnswerCorrect);\n            }\n        }\n    }\n\n    function RandomNumber(uint256 count, address user, uint256 from, uint256 to) public view returns(uint256)\n    {\n        uint256 seed = uint256(keccak256(abi.encodePacked(block.timestamp, block.difficulty, block.gaslimit)));\n        uint256 randomHash = uint256(keccak256(abi.encodePacked(block.difficulty, block.timestamp, count, seed, user)));\n        return randomHash % (to - from + 1) + from;\n    }\n}",
  "sourcePath": "/Applications/projects/garbi-contracts/contracts/Question.sol",
  "compiler": {
    "name": "solc",
    "version": "0.8.17+commit.8df45f5f.Emscripten.clang"
  },
  "schemaVersion": "3.4.11",
  "updatedAt": "2023-02-14T02:31:29.293Z",
  "networkType": "ethereum",
  "devdoc": {
    "kind": "dev",
    "methods": {
      "owner()": {
        "details": "Returns the address of the current owner."
      },
      "renounceOwnership()": {
        "details": "Leaves the contract without owner. It will not be possible to call `onlyOwner` functions anymore. Can only be called by the current owner. NOTE: Renouncing ownership will leave the contract without an owner, thereby removing any functionality that is only available to the owner."
      },
      "transferOwnership(address)": {
        "details": "Transfers ownership of the contract to a new account (`newOwner`). Can only be called by the current owner."
      }
    },
    "version": 1
  },
  "userdoc": {
    "kind": "user",
    "methods": {},
    "version": 1
  }
}