{
  "contractName": "Quest",
  "abi": [
    {
      "inputs": [
        {
          "internalType": "contract IQuestionData",
          "name": "questionDataContract",
          "type": "address"
        },
        {
          "internalType": "contract IERC20",
          "name": "tokenEarn",
          "type": "address"
        }
      ],
      "stateMutability": "nonpayable",
      "type": "constructor"
    },
    {
      "anonymous": false,
      "inputs": [
        {
          "indexed": true,
          "internalType": "address",
          "name": "previousOwner",
          "type": "address"
        },
        {
          "indexed": true,
          "internalType": "address",
          "name": "newOwner",
          "type": "address"
        }
      ],
      "name": "OwnershipTransferred",
      "type": "event"
    },
    {
      "inputs": [],
      "name": "BonusAnswerCorrect",
      "outputs": [
        {
          "internalType": "uint256",
          "name": "",
          "type": "uint256"
        }
      ],
      "stateMutability": "view",
      "type": "function",
      "constant": true
    },
    {
      "inputs": [],
      "name": "DelayToDoQuest",
      "outputs": [
        {
          "internalType": "uint256",
          "name": "",
          "type": "uint256"
        }
      ],
      "stateMutability": "view",
      "type": "function",
      "constant": true
    },
    {
      "inputs": [
        {
          "internalType": "address",
          "name": "",
          "type": "address"
        },
        {
          "internalType": "uint256",
          "name": "",
          "type": "uint256"
        }
      ],
      "name": "ListQuestionsUser",
      "outputs": [
        {
          "internalType": "uint256",
          "name": "",
          "type": "uint256"
        }
      ],
      "stateMutability": "view",
      "type": "function",
      "constant": true
    },
    {
      "inputs": [
        {
          "internalType": "address",
          "name": "",
          "type": "address"
        },
        {
          "internalType": "uint256",
          "name": "",
          "type": "uint256"
        }
      ],
      "name": "ListResultAnswersUser",
      "outputs": [
        {
          "internalType": "uint256",
          "name": "",
          "type": "uint256"
        }
      ],
      "stateMutability": "view",
      "type": "function",
      "constant": true
    },
    {
      "inputs": [],
      "name": "QuestionDataContract",
      "outputs": [
        {
          "internalType": "contract IQuestionData",
          "name": "",
          "type": "address"
        }
      ],
      "stateMutability": "view",
      "type": "function",
      "constant": true
    },
    {
      "inputs": [
        {
          "internalType": "address",
          "name": "",
          "type": "address"
        }
      ],
      "name": "TimeTheNextSubmit",
      "outputs": [
        {
          "internalType": "uint256",
          "name": "",
          "type": "uint256"
        }
      ],
      "stateMutability": "view",
      "type": "function",
      "constant": true
    },
    {
      "inputs": [
        {
          "internalType": "address",
          "name": "",
          "type": "address"
        }
      ],
      "name": "TimeTheNextToDoQuest",
      "outputs": [
        {
          "internalType": "uint256",
          "name": "",
          "type": "uint256"
        }
      ],
      "stateMutability": "view",
      "type": "function",
      "constant": true
    },
    {
      "inputs": [],
      "name": "TokenEarn",
      "outputs": [
        {
          "internalType": "contract IERC20",
          "name": "",
          "type": "address"
        }
      ],
      "stateMutability": "view",
      "type": "function",
      "constant": true
    },
    {
      "inputs": [],
      "name": "TotalQuestionContract",
      "outputs": [
        {
          "internalType": "uint256",
          "name": "",
          "type": "uint256"
        }
      ],
      "stateMutability": "view",
      "type": "function",
      "constant": true
    },
    {
      "inputs": [],
      "name": "TotalQuestionOnDay",
      "outputs": [
        {
          "internalType": "uint256",
          "name": "",
          "type": "uint256"
        }
      ],
      "stateMutability": "view",
      "type": "function",
      "constant": true
    },
    {
      "inputs": [],
      "name": "owner",
      "outputs": [
        {
          "internalType": "address",
          "name": "",
          "type": "address"
        }
      ],
      "stateMutability": "view",
      "type": "function",
      "constant": true
    },
    {
      "inputs": [],
      "name": "renounceOwnership",
      "outputs": [],
      "stateMutability": "nonpayable",
      "type": "function"
    },
    {
      "inputs": [
        {
          "internalType": "address",
          "name": "newOwner",
          "type": "address"
        }
      ],
      "name": "transferOwnership",
      "outputs": [],
      "stateMutability": "nonpayable",
      "type": "function"
    },
    {
      "inputs": [
        {
          "internalType": "contract IQuestionData",
          "name": "newQuestionDataContract",
          "type": "address"
        }
      ],
      "name": "SetQuestionDataContract",
      "outputs": [],
      "stateMutability": "nonpayable",
      "type": "function"
    },
    {
      "inputs": [
        {
          "internalType": "contract IERC20",
          "name": "newTokenEarn",
          "type": "address"
        }
      ],
      "name": "SetTokenEarn",
      "outputs": [],
      "stateMutability": "nonpayable",
      "type": "function"
    },
    {
      "inputs": [
        {
          "internalType": "uint256",
          "name": "newDelayToDoQuest",
          "type": "uint256"
        }
      ],
      "name": "SetDelayToDoQuest",
      "outputs": [],
      "stateMutability": "nonpayable",
      "type": "function"
    },
    {
      "inputs": [
        {
          "internalType": "uint256",
          "name": "newTotalQuestionContract",
          "type": "uint256"
        }
      ],
      "name": "SetTotalQuestionContract",
      "outputs": [],
      "stateMutability": "nonpayable",
      "type": "function"
    },
    {
      "inputs": [
        {
          "internalType": "uint256",
          "name": "newTotalQuestionOnDay",
          "type": "uint256"
        }
      ],
      "name": "SetTotalQuestionOnDay",
      "outputs": [],
      "stateMutability": "nonpayable",
      "type": "function"
    },
    {
      "inputs": [
        {
          "internalType": "uint256",
          "name": "newBonusAnswerCorrect",
          "type": "uint256"
        }
      ],
      "name": "SetBonusAnswerCorrect",
      "outputs": [],
      "stateMutability": "nonpayable",
      "type": "function"
    },
    {
      "inputs": [
        {
          "internalType": "address",
          "name": "user",
          "type": "address"
        }
      ],
      "name": "DoQuestOnDay",
      "outputs": [],
      "stateMutability": "nonpayable",
      "type": "function"
    },
    {
      "inputs": [
        {
          "internalType": "address",
          "name": "user",
          "type": "address"
        }
      ],
      "name": "GetDataQuest",
      "outputs": [
        {
          "components": [
            {
              "internalType": "string",
              "name": "Question",
              "type": "string"
            },
            {
              "internalType": "string",
              "name": "Answer0",
              "type": "string"
            },
            {
              "internalType": "string",
              "name": "Answer1",
              "type": "string"
            },
            {
              "internalType": "string",
              "name": "Answer2",
              "type": "string"
            },
            {
              "internalType": "string",
              "name": "Answer3",
              "type": "string"
            }
          ],
          "internalType": "struct Quest.Question[]",
          "name": "data",
          "type": "tuple[]"
        },
        {
          "internalType": "uint256",
          "name": "timeTheNextToDoQuest",
          "type": "uint256"
        },
        {
          "internalType": "uint256",
          "name": "delayToDoQuest",
          "type": "uint256"
        }
      ],
      "stateMutability": "view",
      "type": "function",
      "constant": true
    },
    {
      "inputs": [
        {
          "internalType": "address",
          "name": "user",
          "type": "address"
        },
        {
          "internalType": "uint256[]",
          "name": "results",
          "type": "uint256[]"
        }
      ],
      "name": "SubmitQuestions",
      "outputs": [],
      "stateMutability": "nonpayable",
      "type": "function"
    },
    {
      "inputs": [
        {
          "internalType": "address",
          "name": "user",
          "type": "address"
        }
      ],
      "name": "GetResultAnswers",
      "outputs": [
        {
          "internalType": "uint256[]",
          "name": "data",
          "type": "uint256[]"
        },
        {
          "internalType": "uint256",
          "name": "totalBonusToken",
          "type": "uint256"
        }
      ],
      "stateMutability": "view",
      "type": "function",
      "constant": true
    },
    {
      "inputs": [
        {
          "internalType": "uint256",
          "name": "count",
          "type": "uint256"
        },
        {
          "internalType": "address",
          "name": "user",
          "type": "address"
        }
      ],
      "name": "RandomNumber",
      "outputs": [
        {
          "internalType": "uint256",
          "name": "",
          "type": "uint256"
        }
      ],
      "stateMutability": "view",
      "type": "function",
      "constant": true
    }
  ],
  "bytecode": "0x60806040526000600755600a6008556003600955600a805534801561002357600080fd5b50604051620013d5380380620013d5833981016040819052610044916100e6565b61004d3361007e565b600180546001600160a01b039384166001600160a01b03199182161790915560028054929093169116179055610120565b600080546001600160a01b038381166001600160a01b0319831681178455604051919092169283917f8be0079c531659141344cd1fd0a4f28419497f9722a3daafe3b4186f6b6457e09190a35050565b6001600160a01b03811681146100e357600080fd5b50565b600080604083850312156100f957600080fd5b8251610104816100ce565b6020840151909250610115816100ce565b809150509250929050565b6112a580620001306000396000f3fe608060405234801561001057600080fd5b50600436106101585760003560e01c80638da5cb5b116100c3578063ad0df94e1161007c578063ad0df94e146102f6578063b00667fe146102ff578063bdb3a21214610320578063eee6260e1461034b578063f2fde38b1461035e578063f3f222331461037157600080fd5b80638da5cb5b1461028357806391a792221461029457806397c72e3c146102a7578063a65cabe5146102b0578063a6f1b3e1146102c3578063a81a018f146102e357600080fd5b8063496a296111610115578063496a2961146102265780634b032c7d1461022f5780634df42ad2146102425780635f872a82146102555780636814254214610268578063715018a61461027b57600080fd5b8063085e16421461015d578063134104b11461017257806328ce04111461018e57806331413b76146101ae578063441bb5e7146101d9578063460d5377146101fb575b600080fd5b61017061016b366004610d81565b610384565b005b61017b600a5481565b6040519081526020015b60405180910390f35b61017b61019c366004610daf565b60036020526000908152604090205481565b6002546101c1906001600160a01b031681565b6040516001600160a01b039091168152602001610185565b6101ec6101e7366004610daf565b610391565b60405161018593929190610e1c565b61017b610209366004610eff565b600560209081526000928352604080842090915290825290205481565b61017b60085481565b61017061023d366004610daf565b610597565b61017b610250366004610f2b565b6105c1565b610170610263366004610d81565b610625565b610170610276366004610d81565b610632565b61017061063f565b6000546001600160a01b03166101c1565b6101706102a2366004610d81565b610653565b61017b60075481565b6101706102be366004610daf565b610660565b61017b6102d1366004610daf565b60046020526000908152604090205481565b6101706102f1366004610f5b565b61079e565b61017b60095481565b61031261030d366004610daf565b610994565b604051610185929190610fe3565b61017b61032e366004610eff565b600660209081526000928352604080842090915290825290205481565b6001546101c1906001600160a01b031681565b61017061036c366004610daf565b610a87565b61017061037f366004610daf565b610b00565b61038c610b2a565b600755565b606060008060095467ffffffffffffffff8111156103b1576103b161102b565b60405190808252806020026020018201604052801561041457816020015b6104016040518060a0016040528060608152602001606081526020016060815260200160608152602001606081525090565b8152602001906001900390816103cf5790505b50925060005b600954811015610570576001600160a01b0385811660009081526005602090815260408083208584529091529081902054600154915163085a07fb60e21b815260048101829052909291909116906321681fec90602401600060405180830381865afa15801561048e573d6000803e3d6000fd5b505050506040513d6000823e601f3d908101601f191682016040526104b691908101906110c9565b508987815181106104c9576104c96111a3565b60200260200101516000018a88815181106104e6576104e66111a3565b60200260200101516020018b8981518110610503576105036111a3565b60200260200101516040018c8a81518110610520576105206111a3565b60200260200101516060018d8b8151811061053d5761053d6111a3565b60200260200101516080018590528590528590528590528590525050505050508080610568906111cf565b91505061041a565b5050506001600160a01b039091166000908152600360205260409020546007549192909190565b61059f610b2a565b600280546001600160a01b0319166001600160a01b0392909216919091179055565b60408051446020808301919091524282840152606080830186905284901b6bffffffffffffffffffffffff1916608083015282518083036074018152609490920190925280519101206008546000919061061b90826111e8565b9150505b92915050565b61062d610b2a565b600955565b61063a610b2a565b600a55565b610647610b2a565b6106516000610b84565b565b61065b610b2a565b600855565b6001600160a01b03811660009081526003602052604090205442116106e25760405162461bcd60e51b815260206004820152602d60248201527f4572726f7220546f20446f2051756573743a2049742773206e6f742074696d6560448201526c081d1bc8185cdac81c5d595cdd609a1b60648201526084015b60405180910390fd5b60005b600954811015610725576001600160a01b03821660009081526006602090815260408083208484529091528120558061071d816111cf565b9150506106e5565b5060005b6009548110156107735761073d81836105c1565b6001600160a01b03831660009081526005602090815260408083208584529091529020558061076b816111cf565b915050610729565b50600754610782904290610bd4565b6001600160a01b03909116600090815260036020526040902055565b6001600160a01b03831660009081526004602052604090205442116108205760405162461bcd60e51b815260206004820152603260248201527f4572726f72205375626d6974205175657374696f6e3a2049742773206e6f74206044820152711d1a5b59481d1bc81cdd589b5a5d081e595d60721b60648201526084016106d9565b6000805b60095481101561095a576001600160a01b03858116600090815260056020908152604080832085845290915280822054600154915163085a07fb60e21b815260048101829052909391909116906321681fec90602401600060405180830381865afa158015610897573d6000803e3d6000fd5b505050506040513d6000823e601f3d908101601f191682016040526108bf91908101906110c9565b9550505050505060008686858181106108da576108da6111a3565b905060200201359050818103610921576001600160a01b0388166000908152600660209081526040808320878452909152902060019081905561091e908690610bd4565b94505b5050506001600160a01b038516600090815260056020908152604080832084845290915281205580610952816111cf565b915050610824565b50801561096b5761096b8482610be7565b5050506001600160a01b0316600090815260036020908152604080832054600490925290912055565b6060600060095467ffffffffffffffff8111156109b3576109b361102b565b6040519080825280602002602001820160405280156109dc578160200160208202803683370190505b5091506000905060005b600954811015610a81576001600160a01b03841660009081526006602090815260408083208484529091529020548351849083908110610a2857610a286111a3565b6020908102919091018101919091526001600160a01b03851660009081526006825260408082208483529092522054600103610a6f57600a54610a6c908390610bd4565b91505b80610a79816111cf565b9150506109e6565b50915091565b610a8f610b2a565b6001600160a01b038116610af45760405162461bcd60e51b815260206004820152602660248201527f4f776e61626c653a206e6577206f776e657220697320746865207a65726f206160448201526564647265737360d01b60648201526084016106d9565b610afd81610b84565b50565b610b08610b2a565b600180546001600160a01b0319166001600160a01b0392909216919091179055565b6000546001600160a01b031633146106515760405162461bcd60e51b815260206004820181905260248201527f4f776e61626c653a2063616c6c6572206973206e6f7420746865206f776e657260448201526064016106d9565b600080546001600160a01b038381166001600160a01b0319831681178455604051919092169283917f8be0079c531659141344cd1fd0a4f28419497f9722a3daafe3b4186f6b6457e09190a35050565b6000610be0828461120a565b9392505050565b600a54610bf5908290610d75565b6002546040516370a0823160e01b81523060048201526001600160a01b03909116906370a0823190602401602060405180830381865afa158015610c3d573d6000803e3d6000fd5b505050506040513d601f19601f82011682018060405250810190610c61919061121d565b10610cff57600254600a546001600160a01b039091169063a9059cbb908490610c8b908590610d75565b6040516001600160e01b031960e085901b1681526001600160a01b03909216600483015260248201526044016020604051808303816000875af1158015610cd6573d6000803e3d6000fd5b505050506040513d601f19601f82011682018060405250810190610cfa9190611236565b505050565b6002546040516370a0823160e01b81523060048201526001600160a01b039091169063a9059cbb90849083906370a0823190602401602060405180830381865afa158015610d51573d6000803e3d6000fd5b505050506040513d601f19601f82011682018060405250810190610c8b919061121d565b6000610be08284611258565b600060208284031215610d9357600080fd5b5035919050565b6001600160a01b0381168114610afd57600080fd5b600060208284031215610dc157600080fd5b8135610be081610d9a565b60005b83811015610de7578181015183820152602001610dcf565b50506000910152565b60008151808452610e08816020860160208601610dcc565b601f01601f19169290920160200192915050565b60006060808301818452808751808352608092508286019150828160051b8701016020808b0160005b84811015610ee457607f198a8503018652815160a08151818752610e6b82880182610df0565b9150508482015186820386880152610e838282610df0565b91505060408083015187830382890152610e9d8382610df0565b92505050898201518682038b880152610eb68282610df0565b91505088820151915085810389870152610ed08183610df0565b978501979550505090820190600101610e45565b50508701989098525050505060409091019190915250919050565b60008060408385031215610f1257600080fd5b8235610f1d81610d9a565b946020939093013593505050565b60008060408385031215610f3e57600080fd5b823591506020830135610f5081610d9a565b809150509250929050565b600080600060408486031215610f7057600080fd5b8335610f7b81610d9a565b9250602084013567ffffffffffffffff80821115610f9857600080fd5b818601915086601f830112610fac57600080fd5b813581811115610fbb57600080fd5b8760208260051b8501011115610fd057600080fd5b6020830194508093505050509250925092565b604080825283519082018190526000906020906060840190828701845b8281101561101c57815184529284019290840190600101611000565b50505092019290925292915050565b634e487b7160e01b600052604160045260246000fd5b600082601f83011261105257600080fd5b815167ffffffffffffffff8082111561106d5761106d61102b565b604051601f8301601f19908116603f011681019082821181831017156110955761109561102b565b816040528381528660208588010111156110ae57600080fd5b6110bf846020830160208901610dcc565b9695505050505050565b60008060008060008060c087890312156110e257600080fd5b865167ffffffffffffffff808211156110fa57600080fd5b6111068a838b01611041565b9750602089015191508082111561111c57600080fd5b6111288a838b01611041565b9650604089015191508082111561113e57600080fd5b61114a8a838b01611041565b9550606089015191508082111561116057600080fd5b61116c8a838b01611041565b9450608089015191508082111561118257600080fd5b5061118f89828a01611041565b92505060a087015190509295509295509295565b634e487b7160e01b600052603260045260246000fd5b634e487b7160e01b600052601160045260246000fd5b6000600182016111e1576111e16111b9565b5060010190565b60008261120557634e487b7160e01b600052601260045260246000fd5b500690565b8082018082111561061f5761061f6111b9565b60006020828403121561122f57600080fd5b5051919050565b60006020828403121561124857600080fd5b81518015158114610be057600080fd5b808202811582820484141761061f5761061f6111b956fea2646970667358221220e4fa6ef17b443c343137bad0671fceaeba03e08395a1da73a3de0fccc6eb8f7a64736f6c63430008110033",
  "immutableReferences": {},
  "source": "// SPDX-License-Identifier: MIT\npragma solidity ^0.8.0;\n\nimport \"./interfaces/IQuestionData.sol\";\n\nimport \"@openzeppelin/contracts/utils/math/SafeMath.sol\";\nimport \"@openzeppelin/contracts/access/Ownable.sol\";\nimport \"@openzeppelin/contracts/token/ERC20/IERC20.sol\";\n\ncontract Quest is Ownable\n{\n    using SafeMath for uint256;\n\n    IQuestionData public QuestionDataContract;\n    IERC20 public TokenEarn;\n\n    mapping(address => uint256) public TimeTheNextToDoQuest;\n    mapping(address => uint256) public TimeTheNextSubmit;\n    mapping(address => mapping(uint256 => uint256)) public ListQuestionsUser;\n    mapping(address => mapping(uint256 => uint256)) public ListResultAnswersUser;\n\n    uint256 public DelayToDoQuest = 0;\n    uint256 public TotalQuestionContract = 10;\n    uint256 public TotalQuestionOnDay = 3;\n\n    uint256 public BonusAnswerCorrect = 10;\n\n    struct Question\n    {\n        string Question;\n        string Answer0;\n        string Answer1;\n        string Answer2;\n        string Answer3;\n    }\n\n    constructor(IQuestionData questionDataContract, IERC20 tokenEarn) \n    {\n        QuestionDataContract = questionDataContract;\n        TokenEarn = tokenEarn;\n    }\n\n    function SetQuestionDataContract(IQuestionData newQuestionDataContract) public onlyOwner\n    {\n        QuestionDataContract = newQuestionDataContract;\n    }\n\n    function SetTokenEarn(IERC20 newTokenEarn) public onlyOwner\n    {\n        TokenEarn = newTokenEarn;\n    }\n\n    function SetDelayToDoQuest(uint256 newDelayToDoQuest) public onlyOwner\n    {\n        DelayToDoQuest = newDelayToDoQuest;\n    }\n\n    function SetTotalQuestionContract(uint256 newTotalQuestionContract) public onlyOwner\n    {\n        TotalQuestionContract = newTotalQuestionContract;\n    }\n    \n    function SetTotalQuestionOnDay(uint256 newTotalQuestionOnDay) public onlyOwner\n    {\n        TotalQuestionOnDay = newTotalQuestionOnDay;\n    }\n\n    function SetBonusAnswerCorrect(uint256 newBonusAnswerCorrect) public onlyOwner\n    {\n        BonusAnswerCorrect = newBonusAnswerCorrect;\n    }\n    function DoQuestOnDay(address user) public\n    {\n        require(block.timestamp > TimeTheNextToDoQuest[user], \"Error To Do Quest: It's not time to ask quest\");\n\n        for(uint256 oldResultAnswer = 0; oldResultAnswer < TotalQuestionOnDay; oldResultAnswer++)\n        {\n            delete ListResultAnswersUser[user][oldResultAnswer];\n        }\n\n        for(uint256 indexQuestion = 0; indexQuestion < TotalQuestionOnDay; indexQuestion++)\n        {\n            ListQuestionsUser[user][indexQuestion] = RandomNumber(indexQuestion, user);\n        }\n\n        // // test\n        // ListQuestionsUser[user][0] = 0;\n        // ListQuestionsUser[user][1] = 1;\n        // ListQuestionsUser[user][2] = 2;\n\n        TimeTheNextToDoQuest[user] = block.timestamp.add(DelayToDoQuest);\n    }\n\n    function GetDataQuest(address user) public view returns(\n        Question[] memory data,\n        uint256 timeTheNextToDoQuest,\n        uint256 delayToDoQuest\n        )\n    {\n        data = new Question[](TotalQuestionOnDay);\n        for(uint256 indexQuestion = 0; indexQuestion < TotalQuestionOnDay; indexQuestion++)\n        {\n            uint256 questionNumber = ListQuestionsUser[user][indexQuestion];\n\n            (data[indexQuestion].Question,\n            data[indexQuestion].Answer0,\n            data[indexQuestion].Answer1,\n            data[indexQuestion].Answer2,\n            data[indexQuestion].Answer3, ) = QuestionDataContract.ListQuestionsContract(questionNumber);\n        }\n        timeTheNextToDoQuest = TimeTheNextToDoQuest[user];\n        delayToDoQuest = DelayToDoQuest;\n    }\n\n    function SubmitQuestions(address user, uint256[] calldata results) public\n    {\n        require(block.timestamp > TimeTheNextSubmit[user], \"Error Submit Question: It's not time to submit yet\");\n\n        uint256 totalNumberCorrect = 0;\n        for(uint256 indexQuestion = 0; indexQuestion < TotalQuestionOnDay; indexQuestion++)\n        {\n            uint256 questionNumber = ListQuestionsUser[user][indexQuestion];\n            (,,,,,uint256 resultAnswerQuestionInContract) = QuestionDataContract.ListQuestionsContract(questionNumber);\n            uint256 resultAnswerQuestionOfUser = results[indexQuestion];\n\n            if(resultAnswerQuestionOfUser == resultAnswerQuestionInContract)\n            {\n                ListResultAnswersUser[user][indexQuestion] = 1; // 1: true, 0: false;\n                totalNumberCorrect = totalNumberCorrect.add(1);\n            }\n            delete ListQuestionsUser[user][indexQuestion];\n        }\n\n        if(totalNumberCorrect > 0) DoBonusToken(user, totalNumberCorrect);\n\n        TimeTheNextSubmit[user] = TimeTheNextToDoQuest[user];\n    }\n\n    function DoBonusToken(address user, uint256 totalNumberCorrect) private \n    {\n        if(TokenEarn.balanceOf(address(this)) >= totalNumberCorrect.mul(BonusAnswerCorrect))\n        {\n            TokenEarn.transfer(user, totalNumberCorrect.mul(BonusAnswerCorrect));\n        }\n        else\n        {\n            TokenEarn.transfer(user, TokenEarn.balanceOf(address(this)));\n        }\n    }  \n\n    function GetResultAnswers(address user) public view returns(\n        uint256[] memory data,\n        uint256 totalBonusToken\n    )\n    {\n        data =  new uint256[](TotalQuestionOnDay);\n        totalBonusToken = 0;\n\n        for(uint256 resultAnswers = 0; resultAnswers < TotalQuestionOnDay; resultAnswers++)\n        {\n            data[resultAnswers] = ListResultAnswersUser[user][resultAnswers];\n            if(ListResultAnswersUser[user][resultAnswers] == 1)\n            {\n                totalBonusToken = totalBonusToken.add(BonusAnswerCorrect);\n            }\n        }\n    }\n\n    function RandomNumber(uint256 count, address user) public view returns(uint256)\n    {\n        uint256 randomHash = uint256(keccak256(abi.encodePacked(block.difficulty, block.timestamp, count, user)));\n        return randomHash % (TotalQuestionContract);\n    }\n}",
  "sourcePath": "/Applications/projects/garbi-contracts/contracts/Quest.sol",
  "compiler": {
    "name": "solc",
    "version": "0.8.17+commit.8df45f5f.Emscripten.clang"
  },
  "schemaVersion": "3.4.11",
  "updatedAt": "2023-02-02T08:34:01.915Z",
  "networkType": "ethereum",
  "devdoc": {
    "kind": "dev",
    "methods": {
      "owner()": {
        "details": "Returns the address of the current owner."
      },
      "renounceOwnership()": {
        "details": "Leaves the contract without owner. It will not be possible to call `onlyOwner` functions anymore. Can only be called by the current owner. NOTE: Renouncing ownership will leave the contract without an owner, thereby removing any functionality that is only available to the owner."
      },
      "transferOwnership(address)": {
        "details": "Transfers ownership of the contract to a new account (`newOwner`). Can only be called by the current owner."
      }
    },
    "version": 1
  },
  "userdoc": {
    "kind": "user",
    "methods": {},
    "version": 1
  }
}