{
  "contractName": "Quest",
  "abi": [
    {
      "inputs": [
        {
          "internalType": "contract IQuestionData",
          "name": "questionDataContract",
          "type": "address"
        },
        {
          "internalType": "contract IERC20",
          "name": "tokenEarn",
          "type": "address"
        }
      ],
      "stateMutability": "nonpayable",
      "type": "constructor"
    },
    {
      "anonymous": false,
      "inputs": [
        {
          "indexed": true,
          "internalType": "address",
          "name": "previousOwner",
          "type": "address"
        },
        {
          "indexed": true,
          "internalType": "address",
          "name": "newOwner",
          "type": "address"
        }
      ],
      "name": "OwnershipTransferred",
      "type": "event"
    },
    {
      "inputs": [],
      "name": "DelayToDoQuest",
      "outputs": [
        {
          "internalType": "uint256",
          "name": "",
          "type": "uint256"
        }
      ],
      "stateMutability": "view",
      "type": "function",
      "constant": true
    },
    {
      "inputs": [
        {
          "internalType": "address",
          "name": "",
          "type": "address"
        },
        {
          "internalType": "uint256",
          "name": "",
          "type": "uint256"
        }
      ],
      "name": "ListQuestionsUser",
      "outputs": [
        {
          "internalType": "uint256",
          "name": "",
          "type": "uint256"
        }
      ],
      "stateMutability": "view",
      "type": "function",
      "constant": true
    },
    {
      "inputs": [],
      "name": "QuestionDataContract",
      "outputs": [
        {
          "internalType": "contract IQuestionData",
          "name": "",
          "type": "address"
        }
      ],
      "stateMutability": "view",
      "type": "function",
      "constant": true
    },
    {
      "inputs": [
        {
          "internalType": "address",
          "name": "",
          "type": "address"
        }
      ],
      "name": "TimeTheNextSubmit",
      "outputs": [
        {
          "internalType": "uint256",
          "name": "",
          "type": "uint256"
        }
      ],
      "stateMutability": "view",
      "type": "function",
      "constant": true
    },
    {
      "inputs": [
        {
          "internalType": "address",
          "name": "",
          "type": "address"
        }
      ],
      "name": "TimeTheNextToDoQuest",
      "outputs": [
        {
          "internalType": "uint256",
          "name": "",
          "type": "uint256"
        }
      ],
      "stateMutability": "view",
      "type": "function",
      "constant": true
    },
    {
      "inputs": [],
      "name": "TokenEarn",
      "outputs": [
        {
          "internalType": "contract IERC20",
          "name": "",
          "type": "address"
        }
      ],
      "stateMutability": "view",
      "type": "function",
      "constant": true
    },
    {
      "inputs": [],
      "name": "TotalQuestionContract",
      "outputs": [
        {
          "internalType": "uint256",
          "name": "",
          "type": "uint256"
        }
      ],
      "stateMutability": "view",
      "type": "function",
      "constant": true
    },
    {
      "inputs": [],
      "name": "TotalQuestionOnDay",
      "outputs": [
        {
          "internalType": "uint256",
          "name": "",
          "type": "uint256"
        }
      ],
      "stateMutability": "view",
      "type": "function",
      "constant": true
    },
    {
      "inputs": [],
      "name": "owner",
      "outputs": [
        {
          "internalType": "address",
          "name": "",
          "type": "address"
        }
      ],
      "stateMutability": "view",
      "type": "function",
      "constant": true
    },
    {
      "inputs": [],
      "name": "renounceOwnership",
      "outputs": [],
      "stateMutability": "nonpayable",
      "type": "function"
    },
    {
      "inputs": [
        {
          "internalType": "address",
          "name": "newOwner",
          "type": "address"
        }
      ],
      "name": "transferOwnership",
      "outputs": [],
      "stateMutability": "nonpayable",
      "type": "function"
    },
    {
      "inputs": [
        {
          "internalType": "contract IQuestionData",
          "name": "newQuestionDataContract",
          "type": "address"
        }
      ],
      "name": "SetQuestionDataContract",
      "outputs": [],
      "stateMutability": "nonpayable",
      "type": "function"
    },
    {
      "inputs": [
        {
          "internalType": "contract IERC20",
          "name": "newTokenEarn",
          "type": "address"
        }
      ],
      "name": "SetTokenEarn",
      "outputs": [],
      "stateMutability": "nonpayable",
      "type": "function"
    },
    {
      "inputs": [
        {
          "internalType": "uint256",
          "name": "newDelayToDoQuest",
          "type": "uint256"
        }
      ],
      "name": "SetDelayToDoQuest",
      "outputs": [],
      "stateMutability": "nonpayable",
      "type": "function"
    },
    {
      "inputs": [
        {
          "internalType": "uint256",
          "name": "newTotalQuestionContract",
          "type": "uint256"
        }
      ],
      "name": "SetTotalQuestionContract",
      "outputs": [],
      "stateMutability": "nonpayable",
      "type": "function"
    },
    {
      "inputs": [
        {
          "internalType": "uint256",
          "name": "newTotalQuestionOnDay",
          "type": "uint256"
        }
      ],
      "name": "SetTotalQuestionOnDay",
      "outputs": [],
      "stateMutability": "nonpayable",
      "type": "function"
    },
    {
      "inputs": [
        {
          "internalType": "address",
          "name": "user",
          "type": "address"
        }
      ],
      "name": "ToDoQuestOnDay",
      "outputs": [],
      "stateMutability": "nonpayable",
      "type": "function"
    },
    {
      "inputs": [
        {
          "internalType": "address",
          "name": "user",
          "type": "address"
        }
      ],
      "name": "GetDataQuest",
      "outputs": [
        {
          "components": [
            {
              "internalType": "string",
              "name": "Question",
              "type": "string"
            },
            {
              "internalType": "string",
              "name": "Answer0",
              "type": "string"
            },
            {
              "internalType": "string",
              "name": "Answer1",
              "type": "string"
            },
            {
              "internalType": "string",
              "name": "Answer2",
              "type": "string"
            },
            {
              "internalType": "string",
              "name": "Answer3",
              "type": "string"
            }
          ],
          "internalType": "struct Quest.Question[]",
          "name": "data",
          "type": "tuple[]"
        },
        {
          "internalType": "uint256",
          "name": "timeTheNextToDoQuest",
          "type": "uint256"
        },
        {
          "internalType": "uint256",
          "name": "delayToDoQuest",
          "type": "uint256"
        }
      ],
      "stateMutability": "view",
      "type": "function",
      "constant": true
    },
    {
      "inputs": [
        {
          "internalType": "address",
          "name": "user",
          "type": "address"
        },
        {
          "internalType": "uint256[]",
          "name": "results",
          "type": "uint256[]"
        }
      ],
      "name": "SubmidQuestions",
      "outputs": [],
      "stateMutability": "nonpayable",
      "type": "function"
    },
    {
      "inputs": [
        {
          "internalType": "uint256",
          "name": "count",
          "type": "uint256"
        }
      ],
      "name": "RandomNumber",
      "outputs": [
        {
          "internalType": "uint256",
          "name": "",
          "type": "uint256"
        }
      ],
      "stateMutability": "view",
      "type": "function",
      "constant": true
    }
  ],
  "bytecode": "0x608060405260006006556064600755600360085534801561001f57600080fd5b5060405161112938038061112983398101604081905261003e916100e0565b61004733610078565b600180546001600160a01b039384166001600160a01b0319918216179091556002805492909316911617905561011a565b600080546001600160a01b038381166001600160a01b0319831681178455604051919092169283917f8be0079c531659141344cd1fd0a4f28419497f9722a3daafe3b4186f6b6457e09190a35050565b6001600160a01b03811681146100dd57600080fd5b50565b600080604083850312156100f357600080fd5b82516100fe816100c8565b602084015190925061010f816100c8565b809150509250929050565b611000806101296000396000f3fe608060405234801561001057600080fd5b506004361061012c5760003560e01c8063715018a6116100ad578063ad0df94e11610071578063ad0df94e1461029b578063ec6cdc8e146102a4578063eee6260e146102b7578063f2fde38b146102ca578063f3f22233146102dd57600080fd5b8063715018a6146102465780638da5cb5b1461024e57806391a792221461025f57806397c72e3c14610272578063a6f1b3e11461027b57600080fd5b8063460d5377116100f4578063460d5377146101d9578063496a2961146102045780634b032c7d1461020d5780635f872a82146102205780636636e3d81461023357600080fd5b80630547e7f314610131578063085e16421461014657806328ce04111461015957806331413b761461018c578063441bb5e7146101b7575b600080fd5b61014461013f366004610b69565b6102f0565b005b610144610154366004610bf1565b6104c2565b610179610167366004610c0a565b60036020526000908152604090205481565b6040519081526020015b60405180910390f35b60025461019f906001600160a01b031681565b6040516001600160a01b039091168152602001610183565b6101ca6101c5366004610c0a565b6104cf565b60405161018393929190610c77565b6101796101e7366004610d5a565b600560209081526000928352604080842090915290825290205481565b61017960075481565b61014461021b366004610c0a565b6106d5565b61014461022e366004610bf1565b6106ff565b610144610241366004610c0a565b61070c565b6101446107eb565b6000546001600160a01b031661019f565b61014461026d366004610bf1565b6107ff565b61017960065481565b610179610289366004610c0a565b60046020526000908152604090205481565b61017960085481565b6101796102b2366004610bf1565b61080c565b60015461019f906001600160a01b031681565b6101446102d8366004610c0a565b610861565b6101446102eb366004610c0a565b6108da565b6001600160a01b03831660009081526004602052604090205442116103775760405162461bcd60e51b815260206004820152603260248201527f4572726f72205375626d6974205175657374696f6e3a2049742773206e6f74206044820152711d1a5b59481d1bc81cdd589b5a5d081e595d60721b60648201526084015b60405180910390fd5b6000805b600854811015610488576001600160a01b03858116600090815260056020908152604080832085845290915280822054600154915163085a07fb60e21b815260048101829052909391909116906321681fec90602401600060405180830381865afa1580156103ee573d6000803e3d6000fd5b505050506040513d6000823e601f3d908101601f191682016040526104169190810190610e24565b95505050505050600086868581811061043157610431610efe565b90506020020135905081810361044f5761044c856001610904565b94505b5050506001600160a01b03851660009081526005602090815260408083208484529091528120558061048081610f2a565b91505061037b565b508015610499576104998482610919565b5050506001600160a01b0316600090815260036020908152604080832054600490925290912055565b6104ca610a9e565b600655565b606060008060085467ffffffffffffffff8111156104ef576104ef610d86565b60405190808252806020026020018201604052801561055257816020015b61053f6040518060a0016040528060608152602001606081526020016060815260200160608152602001606081525090565b81526020019060019003908161050d5790505b50925060005b6008548110156106ae576001600160a01b0385811660009081526005602090815260408083208584529091529081902054600154915163085a07fb60e21b815260048101829052909291909116906321681fec90602401600060405180830381865afa1580156105cc573d6000803e3d6000fd5b505050506040513d6000823e601f3d908101601f191682016040526105f49190810190610e24565b5089878151811061060757610607610efe565b60200260200101516000018a888151811061062457610624610efe565b60200260200101516020018b898151811061064157610641610efe565b60200260200101516040018c8a8151811061065e5761065e610efe565b60200260200101516060018d8b8151811061067b5761067b610efe565b602002602001015160800185905285905285905285905285905250505050505080806106a690610f2a565b915050610558565b5050506001600160a01b039091166000908152600360205260409020546006549192909190565b6106dd610a9e565b600280546001600160a01b0319166001600160a01b0392909216919091179055565b610707610a9e565b600855565b6001600160a01b03811660009081526003602052604090205442116107895760405162461bcd60e51b815260206004820152602d60248201527f4572726f7220546f20446f2051756573743a2049742773206e6f742074696d6560448201526c081d1bc8185cdac81c5d595cdd609a1b606482015260840161036e565b6001600160a01b038116600090815260056020908152604080832083805290915280822082905560018083528183205560028083529120556006546107cf904290610904565b6001600160a01b03909116600090815260036020526040902055565b6107f3610a9e565b6107fd6000610af8565b565b610807610a9e565b600755565b604080514460208083019190915242828401526060808301859052835180840390910181526080909201909252805191012060075460009190610850906001610f43565b61085a9082610f56565b9392505050565b610869610a9e565b6001600160a01b0381166108ce5760405162461bcd60e51b815260206004820152602660248201527f4f776e61626c653a206e6577206f776e657220697320746865207a65726f206160448201526564647265737360d01b606482015260840161036e565b6108d781610af8565b50565b6108e2610a9e565b600180546001600160a01b0319166001600160a01b0392909216919091179055565b60006109108284610f43565b90505b92915050565b600a6109258282610b48565b6002546040516370a0823160e01b81523060048201526001600160a01b03909116906370a0823190602401602060405180830381865afa15801561096d573d6000803e3d6000fd5b505050506040513d601f19601f820116820180604052508101906109919190610f78565b1115610a28576002546001600160a01b031663a9059cbb846109b38585610b48565b6040516001600160e01b031960e085901b1681526001600160a01b03909216600483015260248201526044016020604051808303816000875af11580156109fe573d6000803e3d6000fd5b505050506040513d601f19601f82011682018060405250810190610a229190610f91565b50505050565b6002546040516370a0823160e01b81523060048201526001600160a01b039091169063a9059cbb90859083906370a0823190602401602060405180830381865afa158015610a7a573d6000803e3d6000fd5b505050506040513d601f19601f820116820180604052508101906109b39190610f78565b6000546001600160a01b031633146107fd5760405162461bcd60e51b815260206004820181905260248201527f4f776e61626c653a2063616c6c6572206973206e6f7420746865206f776e6572604482015260640161036e565b600080546001600160a01b038381166001600160a01b0319831681178455604051919092169283917f8be0079c531659141344cd1fd0a4f28419497f9722a3daafe3b4186f6b6457e09190a35050565b60006109108284610fb3565b6001600160a01b03811681146108d757600080fd5b600080600060408486031215610b7e57600080fd5b8335610b8981610b54565b9250602084013567ffffffffffffffff80821115610ba657600080fd5b818601915086601f830112610bba57600080fd5b813581811115610bc957600080fd5b8760208260051b8501011115610bde57600080fd5b6020830194508093505050509250925092565b600060208284031215610c0357600080fd5b5035919050565b600060208284031215610c1c57600080fd5b813561085a81610b54565b60005b83811015610c42578181015183820152602001610c2a565b50506000910152565b60008151808452610c63816020860160208601610c27565b601f01601f19169290920160200192915050565b60006060808301818452808751808352608092508286019150828160051b8701016020808b0160005b84811015610d3f57607f198a8503018652815160a08151818752610cc682880182610c4b565b9150508482015186820386880152610cde8282610c4b565b91505060408083015187830382890152610cf88382610c4b565b92505050898201518682038b880152610d118282610c4b565b91505088820151915085810389870152610d2b8183610c4b565b978501979550505090820190600101610ca0565b50508701989098525050505060409091019190915250919050565b60008060408385031215610d6d57600080fd5b8235610d7881610b54565b946020939093013593505050565b634e487b7160e01b600052604160045260246000fd5b600082601f830112610dad57600080fd5b815167ffffffffffffffff80821115610dc857610dc8610d86565b604051601f8301601f19908116603f01168101908282118183101715610df057610df0610d86565b81604052838152866020858801011115610e0957600080fd5b610e1a846020830160208901610c27565b9695505050505050565b60008060008060008060c08789031215610e3d57600080fd5b865167ffffffffffffffff80821115610e5557600080fd5b610e618a838b01610d9c565b97506020890151915080821115610e7757600080fd5b610e838a838b01610d9c565b96506040890151915080821115610e9957600080fd5b610ea58a838b01610d9c565b95506060890151915080821115610ebb57600080fd5b610ec78a838b01610d9c565b94506080890151915080821115610edd57600080fd5b50610eea89828a01610d9c565b92505060a087015190509295509295509295565b634e487b7160e01b600052603260045260246000fd5b634e487b7160e01b600052601160045260246000fd5b600060018201610f3c57610f3c610f14565b5060010190565b8082018082111561091357610913610f14565b600082610f7357634e487b7160e01b600052601260045260246000fd5b500690565b600060208284031215610f8a57600080fd5b5051919050565b600060208284031215610fa357600080fd5b8151801515811461085a57600080fd5b808202811582820484141761091357610913610f1456fea26469706673582212200927265ef0c2f5cf7dc131498b4e4187c5a5d1f8a12827e1f6aadb199c9bb90764736f6c63430008110033",
  "immutableReferences": {},
  "source": "// SPDX-License-Identifier: MIT\npragma solidity ^0.8.0;\n\nimport \"./interfaces/IQuestionData.sol\";\n\nimport \"@openzeppelin/contracts/utils/math/SafeMath.sol\";\nimport \"@openzeppelin/contracts/access/Ownable.sol\";\nimport \"@openzeppelin/contracts/token/ERC20/IERC20.sol\";\n\ncontract Quest is Ownable\n{\n    using SafeMath for uint256;\n\n    IQuestionData public QuestionDataContract;\n    IERC20 public TokenEarn;\n\n    mapping(address => uint256) public TimeTheNextToDoQuest;\n    mapping(address => uint256) public TimeTheNextSubmit;\n    mapping(address => mapping(uint256 => uint256)) public ListQuestionsUser;\n\n    uint256 public DelayToDoQuest = 0;\n    uint256 public TotalQuestionContract = 100;\n    uint256 public TotalQuestionOnDay = 3;\n\n    struct Question\n    {\n        string Question;\n        string Answer0;\n        string Answer1;\n        string Answer2;\n        string Answer3;\n    }\n\n    constructor(IQuestionData questionDataContract, IERC20 tokenEarn) \n    {\n        QuestionDataContract = questionDataContract;\n        TokenEarn = tokenEarn;\n    }\n\n    function SetQuestionDataContract(IQuestionData newQuestionDataContract) public onlyOwner\n    {\n        QuestionDataContract = newQuestionDataContract;\n    }\n\n    function SetTokenEarn(IERC20 newTokenEarn) public onlyOwner\n    {\n        TokenEarn = newTokenEarn;\n    }\n\n    function SetDelayToDoQuest(uint256 newDelayToDoQuest) public onlyOwner\n    {\n        DelayToDoQuest = newDelayToDoQuest;\n    }\n\n    function SetTotalQuestionContract(uint256 newTotalQuestionContract) public onlyOwner\n    {\n        TotalQuestionContract = newTotalQuestionContract;\n    }\n    \n    function SetTotalQuestionOnDay(uint256 newTotalQuestionOnDay) public onlyOwner\n    {\n        TotalQuestionOnDay = newTotalQuestionOnDay;\n    }\n\n    function ToDoQuestOnDay(address user) public\n    {\n        require(block.timestamp > TimeTheNextToDoQuest[user], \"Error To Do Quest: It's not time to ask quest\");\n\n        // for(uint256 indexQuestion = 0; indexQuestion < TotalQuestionOnDay; indexQuestion++)\n        // {\n        //     ListQuestionsUser[user][indexQuestion] = RandomNumber(indexQuestion);\n        // }\n\n        // test\n        ListQuestionsUser[user][0] = 0;\n        ListQuestionsUser[user][1] = 1;\n        ListQuestionsUser[user][2] = 2;\n\n        TimeTheNextToDoQuest[user] = block.timestamp.add(DelayToDoQuest);\n    }\n\n    function GetDataQuest(address user) public view returns(\n        Question[] memory data,\n        uint256 timeTheNextToDoQuest,\n        uint256 delayToDoQuest\n        )\n    {\n        data = new Question[](TotalQuestionOnDay);\n        for(uint256 indexQuestion = 0; indexQuestion < TotalQuestionOnDay; indexQuestion++)\n        {\n            uint256 questionNumber = ListQuestionsUser[user][indexQuestion];\n\n            (data[indexQuestion].Question,\n            data[indexQuestion].Answer0,\n            data[indexQuestion].Answer1,\n            data[indexQuestion].Answer2,\n            data[indexQuestion].Answer3, ) = QuestionDataContract.ListQuestionsContract(questionNumber);\n        }\n        timeTheNextToDoQuest = TimeTheNextToDoQuest[user];\n        delayToDoQuest = DelayToDoQuest;\n    }\n\n    function SubmidQuestions(address user, uint256[] calldata results) public\n    {\n        require(block.timestamp > TimeTheNextSubmit[user], \"Error Submit Question: It's not time to submit yet\");\n\n        uint256 totalNumberCorrect = 0;\n        for(uint256 indexQuestion = 0; indexQuestion < TotalQuestionOnDay; indexQuestion++)\n        {\n            uint256 questionNumber = ListQuestionsUser[user][indexQuestion];\n            (,,,,,uint256 resultAnswerQuestionInContract) = QuestionDataContract.ListQuestionsContract(questionNumber);\n            uint256 resultAnswerQuestionOfUser = results[indexQuestion];\n\n            if(resultAnswerQuestionOfUser == resultAnswerQuestionInContract)\n            {\n                totalNumberCorrect = totalNumberCorrect.add(1);\n            }\n            delete ListQuestionsUser[user][indexQuestion];\n        }\n\n        if(totalNumberCorrect > 0) BonusToken(user, totalNumberCorrect);\n\n        TimeTheNextSubmit[user] = TimeTheNextToDoQuest[user];\n    }\n\n    function BonusToken(address user, uint256 totalNumberCorrect) private \n    {\n        uint256 bonusAnswerCorrect = 10;\n        if(TokenEarn.balanceOf(address(this)) > totalNumberCorrect.mul(bonusAnswerCorrect))\n        {\n            TokenEarn.transfer(user, totalNumberCorrect.mul(bonusAnswerCorrect));\n        }\n        else\n        {\n            TokenEarn.transfer(user, TokenEarn.balanceOf(address(this)));\n        }\n    }  \n\n    function RandomNumber(uint256 count) public view returns(uint256)\n    {\n        uint256 randomHash = uint256(keccak256(abi.encodePacked(block.difficulty, block.timestamp, count)));\n        return randomHash % (TotalQuestionContract + 1);\n    }\n}",
  "sourcePath": "/Applications/projects/garbi-contracts/contracts/Quest.sol",
  "compiler": {
    "name": "solc",
    "version": "0.8.17+commit.8df45f5f.Emscripten.clang"
  },
  "schemaVersion": "3.4.11",
  "updatedAt": "2023-02-02T03:00:20.658Z",
  "networkType": "ethereum",
  "devdoc": {
    "kind": "dev",
    "methods": {
      "owner()": {
        "details": "Returns the address of the current owner."
      },
      "renounceOwnership()": {
        "details": "Leaves the contract without owner. It will not be possible to call `onlyOwner` functions anymore. Can only be called by the current owner. NOTE: Renouncing ownership will leave the contract without an owner, thereby removing any functionality that is only available to the owner."
      },
      "transferOwnership(address)": {
        "details": "Transfers ownership of the contract to a new account (`newOwner`). Can only be called by the current owner."
      }
    },
    "version": 1
  },
  "userdoc": {
    "kind": "user",
    "methods": {},
    "version": 1
  }
}