{
  "contractName": "Quest",
  "abi": [
    {
      "inputs": [
        {
          "internalType": "contract IQuestionData",
          "name": "questionDataContract",
          "type": "address"
        },
        {
          "internalType": "contract IERC20",
          "name": "tokenEarn",
          "type": "address"
        }
      ],
      "stateMutability": "nonpayable",
      "type": "constructor"
    },
    {
      "anonymous": false,
      "inputs": [
        {
          "indexed": true,
          "internalType": "address",
          "name": "previousOwner",
          "type": "address"
        },
        {
          "indexed": true,
          "internalType": "address",
          "name": "newOwner",
          "type": "address"
        }
      ],
      "name": "OwnershipTransferred",
      "type": "event"
    },
    {
      "inputs": [],
      "name": "DelayToDoQuest",
      "outputs": [
        {
          "internalType": "uint256",
          "name": "",
          "type": "uint256"
        }
      ],
      "stateMutability": "view",
      "type": "function",
      "constant": true
    },
    {
      "inputs": [
        {
          "internalType": "address",
          "name": "",
          "type": "address"
        },
        {
          "internalType": "uint256",
          "name": "",
          "type": "uint256"
        }
      ],
      "name": "ListQuestionsUser",
      "outputs": [
        {
          "internalType": "uint256",
          "name": "",
          "type": "uint256"
        }
      ],
      "stateMutability": "view",
      "type": "function",
      "constant": true
    },
    {
      "inputs": [],
      "name": "QuestionDataContract",
      "outputs": [
        {
          "internalType": "contract IQuestionData",
          "name": "",
          "type": "address"
        }
      ],
      "stateMutability": "view",
      "type": "function",
      "constant": true
    },
    {
      "inputs": [
        {
          "internalType": "address",
          "name": "",
          "type": "address"
        }
      ],
      "name": "TimeTheNextSubmit",
      "outputs": [
        {
          "internalType": "uint256",
          "name": "",
          "type": "uint256"
        }
      ],
      "stateMutability": "view",
      "type": "function",
      "constant": true
    },
    {
      "inputs": [
        {
          "internalType": "address",
          "name": "",
          "type": "address"
        }
      ],
      "name": "TimeTheNextToDoQuest",
      "outputs": [
        {
          "internalType": "uint256",
          "name": "",
          "type": "uint256"
        }
      ],
      "stateMutability": "view",
      "type": "function",
      "constant": true
    },
    {
      "inputs": [],
      "name": "TokenEarn",
      "outputs": [
        {
          "internalType": "contract IERC20",
          "name": "",
          "type": "address"
        }
      ],
      "stateMutability": "view",
      "type": "function",
      "constant": true
    },
    {
      "inputs": [],
      "name": "TotalQuestionContract",
      "outputs": [
        {
          "internalType": "uint256",
          "name": "",
          "type": "uint256"
        }
      ],
      "stateMutability": "view",
      "type": "function",
      "constant": true
    },
    {
      "inputs": [],
      "name": "TotalQuestionOnDay",
      "outputs": [
        {
          "internalType": "uint256",
          "name": "",
          "type": "uint256"
        }
      ],
      "stateMutability": "view",
      "type": "function",
      "constant": true
    },
    {
      "inputs": [],
      "name": "owner",
      "outputs": [
        {
          "internalType": "address",
          "name": "",
          "type": "address"
        }
      ],
      "stateMutability": "view",
      "type": "function",
      "constant": true
    },
    {
      "inputs": [],
      "name": "renounceOwnership",
      "outputs": [],
      "stateMutability": "nonpayable",
      "type": "function"
    },
    {
      "inputs": [
        {
          "internalType": "address",
          "name": "newOwner",
          "type": "address"
        }
      ],
      "name": "transferOwnership",
      "outputs": [],
      "stateMutability": "nonpayable",
      "type": "function"
    },
    {
      "inputs": [
        {
          "internalType": "contract IQuestionData",
          "name": "newQuestionDataContract",
          "type": "address"
        }
      ],
      "name": "SetQuestionDataContract",
      "outputs": [],
      "stateMutability": "nonpayable",
      "type": "function"
    },
    {
      "inputs": [
        {
          "internalType": "contract IERC20",
          "name": "newTokenEarn",
          "type": "address"
        }
      ],
      "name": "SetTokenEarn",
      "outputs": [],
      "stateMutability": "nonpayable",
      "type": "function"
    },
    {
      "inputs": [
        {
          "internalType": "uint256",
          "name": "newDelayToDoQuest",
          "type": "uint256"
        }
      ],
      "name": "SetDelayToDoQuest",
      "outputs": [],
      "stateMutability": "nonpayable",
      "type": "function"
    },
    {
      "inputs": [
        {
          "internalType": "uint256",
          "name": "newTotalQuestionContract",
          "type": "uint256"
        }
      ],
      "name": "SetTotalQuestionContract",
      "outputs": [],
      "stateMutability": "nonpayable",
      "type": "function"
    },
    {
      "inputs": [
        {
          "internalType": "uint256",
          "name": "newTotalQuestionOnDay",
          "type": "uint256"
        }
      ],
      "name": "SetTotalQuestionOnDay",
      "outputs": [],
      "stateMutability": "nonpayable",
      "type": "function"
    },
    {
      "inputs": [
        {
          "internalType": "address",
          "name": "user",
          "type": "address"
        }
      ],
      "name": "ToDoQuestOnDay",
      "outputs": [],
      "stateMutability": "nonpayable",
      "type": "function"
    },
    {
      "inputs": [
        {
          "internalType": "address",
          "name": "user",
          "type": "address"
        }
      ],
      "name": "GetQuestion",
      "outputs": [
        {
          "components": [
            {
              "internalType": "string",
              "name": "Question",
              "type": "string"
            },
            {
              "internalType": "string",
              "name": "Answer0",
              "type": "string"
            },
            {
              "internalType": "string",
              "name": "Answer1",
              "type": "string"
            },
            {
              "internalType": "string",
              "name": "Answer2",
              "type": "string"
            },
            {
              "internalType": "string",
              "name": "Answer3",
              "type": "string"
            }
          ],
          "internalType": "struct Quest.Question[]",
          "name": "data",
          "type": "tuple[]"
        }
      ],
      "stateMutability": "view",
      "type": "function",
      "constant": true
    },
    {
      "inputs": [
        {
          "internalType": "address",
          "name": "user",
          "type": "address"
        },
        {
          "internalType": "uint256[]",
          "name": "results",
          "type": "uint256[]"
        }
      ],
      "name": "SubmidQuestions",
      "outputs": [],
      "stateMutability": "nonpayable",
      "type": "function"
    },
    {
      "inputs": [
        {
          "internalType": "address",
          "name": "user",
          "type": "address"
        },
        {
          "internalType": "uint256",
          "name": "totalNumberCorrect",
          "type": "uint256"
        }
      ],
      "name": "BonusToken",
      "outputs": [],
      "stateMutability": "nonpayable",
      "type": "function"
    },
    {
      "inputs": [
        {
          "internalType": "uint256",
          "name": "count",
          "type": "uint256"
        }
      ],
      "name": "RandomNumber",
      "outputs": [
        {
          "internalType": "uint256",
          "name": "",
          "type": "uint256"
        }
      ],
      "stateMutability": "view",
      "type": "function",
      "constant": true
    }
  ],
  "bytecode": "0x608060405260006006556064600755600360085534801561001f57600080fd5b50604051610fe8380380610fe883398101604081905261003e916100e0565b61004733610078565b600180546001600160a01b039384166001600160a01b0319918216179091556002805492909316911617905561011a565b600080546001600160a01b038381166001600160a01b0319831681178455604051919092169283917f8be0079c531659141344cd1fd0a4f28419497f9722a3daafe3b4186f6b6457e09190a35050565b6001600160a01b03811681146100dd57600080fd5b50565b600080604083850312156100f357600080fd5b82516100fe816100c8565b602084015190925061010f816100c8565b809150509250929050565b610ebf806101296000396000f3fe608060405234801561001057600080fd5b50600436106101375760003560e01c8063715018a6116100b8578063ad0df94e1161007c578063ad0df94e14610297578063ec6cdc8e146102a0578063eee6260e146102b3578063f2fde38b146102c6578063f3f22233146102d9578063fa810cfb146102ec57600080fd5b8063715018a6146102425780638da5cb5b1461024a57806391a792221461025b57806397c72e3c1461026e578063a6f1b3e11461027757600080fd5b8063460d5377116100ff578063460d5377146101d5578063496a2961146102005780634b032c7d146102095780635f872a821461021c5780636636e3d81461022f57600080fd5b80630547e7f31461013c578063085e1642146101515780630d359f691461016457806328ce04111461017757806331413b76146101aa575b600080fd5b61014f61014a366004610a4d565b61030c565b005b61014f61015f366004610ad5565b6104bb565b61014f610172366004610aee565b6104c8565b610197610185366004610b1a565b60036020526000908152604090205481565b6040519081526020015b60405180910390f35b6002546101bd906001600160a01b031681565b6040516001600160a01b0390911681526020016101a1565b6101976101e3366004610aee565b600560209081526000928352604080842090915290825290205481565b61019760075481565b61014f610217366004610b1a565b61055c565b61014f61022a366004610ad5565b610586565b61014f61023d366004610b1a565b610593565b61014f610672565b6000546001600160a01b03166101bd565b61014f610269366004610ad5565b610686565b61019760065481565b610197610285366004610b1a565b60046020526000908152604090205481565b61019760085481565b6101976102ae366004610ad5565b610693565b6001546101bd906001600160a01b031681565b61014f6102d4366004610b1a565b6106e8565b61014f6102e7366004610b1a565b610761565b6102ff6102fa366004610b1a565b61078b565b6040516101a19190610b87565b6001600160a01b03831660009081526004602052604090205442116103935760405162461bcd60e51b815260206004820152603260248201527f4572726f72205375626d6974205175657374696f6e3a2049742773206e6f74206044820152711d1a5b59481d1bc81cdd589b5a5d081e595d60721b60648201526084015b60405180910390fd5b6000805b600854811015610481576001600160a01b03858116600090815260056020908152604080832085845290915280822054600154915163085a07fb60e21b815260048101829052909391909116906321681fec90602401600060405180830381865afa15801561040a573d6000803e3d6000fd5b505050506040513d6000823e601f3d908101601f191682016040526104329190810190610cfc565b95505050505050600086868581811061044d5761044d610dd6565b90506020020135905081810361046b5761046885600161096d565b94505b505050808061047990610e02565b915050610397565b5080156104925761049284826104c8565b5050506001600160a01b0316600090815260036020908152604080832054600490925290912055565b6104c3610982565b600655565b600254600a906001600160a01b031663a9059cbb846104e785856109dc565b6040516001600160e01b031960e085901b1681526001600160a01b03909216600483015260248201526044016020604051808303816000875af1158015610532573d6000803e3d6000fd5b505050506040513d601f19601f820116820180604052508101906105569190610e1b565b50505050565b610564610982565b600280546001600160a01b0319166001600160a01b0392909216919091179055565b61058e610982565b600855565b6001600160a01b03811660009081526003602052604090205442116106105760405162461bcd60e51b815260206004820152602d60248201527f4572726f7220546f20446f2051756573743a2049742773206e6f742074696d6560448201526c081d1bc8185cdac81c5d595cdd609a1b606482015260840161038a565b6001600160a01b0381166000908152600560209081526040808320838052909152808220829055600180835281832055600280835291205560065461065690429061096d565b6001600160a01b03909116600090815260036020526040902055565b61067a610982565b61068460006109e8565b565b61068e610982565b600755565b6040805144602080830191909152428284015260608083018590528351808403909101815260809092019092528051910120600754600091906106d7906001610e3d565b6106e19082610e50565b9392505050565b6106f0610982565b6001600160a01b0381166107555760405162461bcd60e51b815260206004820152602660248201527f4f776e61626c653a206e6577206f776e657220697320746865207a65726f206160448201526564647265737360d01b606482015260840161038a565b61075e816109e8565b50565b610769610982565b600180546001600160a01b0319166001600160a01b0392909216919091179055565b606060085467ffffffffffffffff8111156107a8576107a8610c5e565b60405190808252806020026020018201604052801561080b57816020015b6107f86040518060a0016040528060608152602001606081526020016060815260200160608152602001606081525090565b8152602001906001900390816107c65790505b50905060005b600854811015610967576001600160a01b0383811660009081526005602090815260408083208584529091529081902054600154915163085a07fb60e21b815260048101829052909291909116906321681fec90602401600060405180830381865afa158015610885573d6000803e3d6000fd5b505050506040513d6000823e601f3d908101601f191682016040526108ad9190810190610cfc565b508787815181106108c0576108c0610dd6565b60200260200101516000018888815181106108dd576108dd610dd6565b60200260200101516020018989815181106108fa576108fa610dd6565b60200260200101516040018a8a8151811061091757610917610dd6565b60200260200101516060018b8b8151811061093457610934610dd6565b6020026020010151608001859052859052859052859052859052505050505050808061095f90610e02565b915050610811565b50919050565b60006109798284610e3d565b90505b92915050565b6000546001600160a01b031633146106845760405162461bcd60e51b815260206004820181905260248201527f4f776e61626c653a2063616c6c6572206973206e6f7420746865206f776e6572604482015260640161038a565b60006109798284610e72565b600080546001600160a01b038381166001600160a01b0319831681178455604051919092169283917f8be0079c531659141344cd1fd0a4f28419497f9722a3daafe3b4186f6b6457e09190a35050565b6001600160a01b038116811461075e57600080fd5b600080600060408486031215610a6257600080fd5b8335610a6d81610a38565b9250602084013567ffffffffffffffff80821115610a8a57600080fd5b818601915086601f830112610a9e57600080fd5b813581811115610aad57600080fd5b8760208260051b8501011115610ac257600080fd5b6020830194508093505050509250925092565b600060208284031215610ae757600080fd5b5035919050565b60008060408385031215610b0157600080fd5b8235610b0c81610a38565b946020939093013593505050565b600060208284031215610b2c57600080fd5b81356106e181610a38565b60005b83811015610b52578181015183820152602001610b3a565b50506000910152565b60008151808452610b73816020860160208601610b37565b601f01601f19169290920160200192915050565b60006020808301818452808551808352604092508286019150828160051b87010184880160005b83811015610c5057603f19898403018552815160a08151818652610bd482870182610b5b565b915050888201518582038a870152610bec8282610b5b565b9150508782015185820389870152610c048282610b5b565b91505060608083015186830382880152610c1e8382610b5b565b9250505060808083015192508582038187015250610c3c8183610b5b565b968901969450505090860190600101610bae565b509098975050505050505050565b634e487b7160e01b600052604160045260246000fd5b600082601f830112610c8557600080fd5b815167ffffffffffffffff80821115610ca057610ca0610c5e565b604051601f8301601f19908116603f01168101908282118183101715610cc857610cc8610c5e565b81604052838152866020858801011115610ce157600080fd5b610cf2846020830160208901610b37565b9695505050505050565b60008060008060008060c08789031215610d1557600080fd5b865167ffffffffffffffff80821115610d2d57600080fd5b610d398a838b01610c74565b97506020890151915080821115610d4f57600080fd5b610d5b8a838b01610c74565b96506040890151915080821115610d7157600080fd5b610d7d8a838b01610c74565b95506060890151915080821115610d9357600080fd5b610d9f8a838b01610c74565b94506080890151915080821115610db557600080fd5b50610dc289828a01610c74565b92505060a087015190509295509295509295565b634e487b7160e01b600052603260045260246000fd5b634e487b7160e01b600052601160045260246000fd5b600060018201610e1457610e14610dec565b5060010190565b600060208284031215610e2d57600080fd5b815180151581146106e157600080fd5b8082018082111561097c5761097c610dec565b600082610e6d57634e487b7160e01b600052601260045260246000fd5b500690565b808202811582820484141761097c5761097c610dec56fea264697066735822122074c5e6eb46efa97b48b45c83ca7b717a6dc67a214a8fa9150c61357651424cfb64736f6c63430008110033",
  "immutableReferences": {},
  "source": "// SPDX-License-Identifier: MIT\npragma solidity ^0.8.0;\n\nimport \"./interfaces/IQuestionData.sol\";\n\nimport \"@openzeppelin/contracts/utils/math/SafeMath.sol\";\nimport \"@openzeppelin/contracts/access/Ownable.sol\";\nimport \"@openzeppelin/contracts/token/ERC20/IERC20.sol\";\n\ncontract Quest is Ownable\n{\n    using SafeMath for uint256;\n\n    IQuestionData public QuestionDataContract;\n    IERC20 public TokenEarn;\n\n    mapping(address => uint256) public TimeTheNextToDoQuest;\n    mapping(address => uint256) public TimeTheNextSubmit;\n    mapping(address => mapping(uint256 => uint256)) public ListQuestionsUser;\n\n    uint256 public DelayToDoQuest = 0;\n    uint256 public TotalQuestionContract = 100;\n    uint256 public TotalQuestionOnDay = 3;\n\n    struct Question\n    {\n        string Question;\n        string Answer0;\n        string Answer1;\n        string Answer2;\n        string Answer3;\n    }\n\n    constructor(IQuestionData questionDataContract, IERC20 tokenEarn) \n    {\n        QuestionDataContract = questionDataContract;\n        TokenEarn = tokenEarn;\n    }\n\n    function SetQuestionDataContract(IQuestionData newQuestionDataContract) public onlyOwner\n    {\n        QuestionDataContract = newQuestionDataContract;\n    }\n\n    function SetTokenEarn(IERC20 newTokenEarn) public onlyOwner\n    {\n        TokenEarn = newTokenEarn;\n    }\n\n    function SetDelayToDoQuest(uint256 newDelayToDoQuest) public onlyOwner\n    {\n        DelayToDoQuest = newDelayToDoQuest;\n    }\n\n    function SetTotalQuestionContract(uint256 newTotalQuestionContract) public onlyOwner\n    {\n        TotalQuestionContract = newTotalQuestionContract;\n    }\n    \n    function SetTotalQuestionOnDay(uint256 newTotalQuestionOnDay) public onlyOwner\n    {\n        TotalQuestionOnDay = newTotalQuestionOnDay;\n    }\n\n    function ToDoQuestOnDay(address user) public\n    {\n        require(block.timestamp > TimeTheNextToDoQuest[user], \"Error To Do Quest: It's not time to ask quest\");\n\n        // for(uint256 indexQuestion = 0; indexQuestion < TotalQuestionOnDay; indexQuestion++)\n        // {\n        //     ListQuestionsUser[user][indexQuestion] = RandomNumber(indexQuestion);\n        // }\n\n        // test\n        ListQuestionsUser[user][0] = 0;\n        ListQuestionsUser[user][1] = 1;\n        ListQuestionsUser[user][2] = 2;\n\n        TimeTheNextToDoQuest[user] = block.timestamp.add(DelayToDoQuest);\n    }\n\n    function GetQuestion(address user) public view returns(Question[] memory data)\n    {\n        data = new Question[](TotalQuestionOnDay);\n        for(uint256 indexQuestion = 0; indexQuestion < TotalQuestionOnDay; indexQuestion++)\n        {\n            uint256 questionNumber = ListQuestionsUser[user][indexQuestion];\n\n            (data[indexQuestion].Question,\n            data[indexQuestion].Answer0,\n            data[indexQuestion].Answer1,\n            data[indexQuestion].Answer2,\n            data[indexQuestion].Answer3, ) = QuestionDataContract.ListQuestionsContract(questionNumber);\n        }\n    }\n\n    function SubmidQuestions(address user, uint256[] calldata results) public\n    {\n        require(block.timestamp > TimeTheNextSubmit[user], \"Error Submit Question: It's not time to submit yet\");\n\n        uint256 totalNumberCorrect = 0;\n        for(uint256 indexQuestion = 0; indexQuestion < TotalQuestionOnDay; indexQuestion++)\n        {\n            uint256 questionNumber = ListQuestionsUser[user][indexQuestion];\n            (,,,,,uint256 resultAnswerQuestionInContract) = QuestionDataContract.ListQuestionsContract(questionNumber);\n            uint256 resultAnswerQuestionOfUser = results[indexQuestion];\n\n            if(resultAnswerQuestionOfUser == resultAnswerQuestionInContract)\n            {\n                totalNumberCorrect = totalNumberCorrect.add(1);\n            }\n        }\n\n        if(totalNumberCorrect > 0) BonusToken(user, totalNumberCorrect);\n\n        TimeTheNextSubmit[user] = TimeTheNextToDoQuest[user];\n\n    }\n\n    function BonusToken(address user, uint256 totalNumberCorrect) public \n    {\n        uint256 bonusAnswerCorrect = 10;\n        TokenEarn.transfer(user, totalNumberCorrect.mul(bonusAnswerCorrect));\n    }  \n\n    function RandomNumber(uint256 count) public view returns(uint256)\n    {\n        uint256 randomHash = uint256(keccak256(abi.encodePacked(block.difficulty, block.timestamp, count)));\n        return randomHash % (TotalQuestionContract + 1);\n    }\n}",
  "sourcePath": "/Applications/projects/garbi-contracts/contracts/Quest.sol",
  "compiler": {
    "name": "solc",
    "version": "0.8.17+commit.8df45f5f.Emscripten.clang"
  },
  "schemaVersion": "3.4.11",
  "updatedAt": "2023-02-01T16:42:44.453Z",
  "networkType": "ethereum",
  "devdoc": {
    "kind": "dev",
    "methods": {
      "owner()": {
        "details": "Returns the address of the current owner."
      },
      "renounceOwnership()": {
        "details": "Leaves the contract without owner. It will not be possible to call `onlyOwner` functions anymore. Can only be called by the current owner. NOTE: Renouncing ownership will leave the contract without an owner, thereby removing any functionality that is only available to the owner."
      },
      "transferOwnership(address)": {
        "details": "Transfers ownership of the contract to a new account (`newOwner`). Can only be called by the current owner."
      }
    },
    "version": 1
  },
  "userdoc": {
    "kind": "user",
    "methods": {},
    "version": 1
  }
}