{
  "contractName": "Quiz",
  "abi": [
    {
      "inputs": [
        {
          "internalType": "contract IQuestionData",
          "name": "questionDataContract",
          "type": "address"
        },
        {
          "internalType": "contract IERC20",
          "name": "tokenReward",
          "type": "address"
        }
      ],
      "stateMutability": "nonpayable",
      "type": "constructor"
    },
    {
      "anonymous": false,
      "inputs": [
        {
          "indexed": true,
          "internalType": "address",
          "name": "previousOwner",
          "type": "address"
        },
        {
          "indexed": true,
          "internalType": "address",
          "name": "newOwner",
          "type": "address"
        }
      ],
      "name": "OwnershipTransferred",
      "type": "event"
    },
    {
      "inputs": [],
      "name": "BonusAnswerCorrect",
      "outputs": [
        {
          "internalType": "uint256",
          "name": "",
          "type": "uint256"
        }
      ],
      "stateMutability": "view",
      "type": "function",
      "constant": true
    },
    {
      "inputs": [],
      "name": "DelayToDoQuest",
      "outputs": [
        {
          "internalType": "uint256",
          "name": "",
          "type": "uint256"
        }
      ],
      "stateMutability": "view",
      "type": "function",
      "constant": true
    },
    {
      "inputs": [
        {
          "internalType": "address",
          "name": "",
          "type": "address"
        },
        {
          "internalType": "uint256",
          "name": "",
          "type": "uint256"
        }
      ],
      "name": "ListQuestionsUser",
      "outputs": [
        {
          "internalType": "uint256",
          "name": "",
          "type": "uint256"
        }
      ],
      "stateMutability": "view",
      "type": "function",
      "constant": true
    },
    {
      "inputs": [
        {
          "internalType": "address",
          "name": "",
          "type": "address"
        },
        {
          "internalType": "uint256",
          "name": "",
          "type": "uint256"
        }
      ],
      "name": "ListResultAnswersUser",
      "outputs": [
        {
          "internalType": "uint256",
          "name": "",
          "type": "uint256"
        }
      ],
      "stateMutability": "view",
      "type": "function",
      "constant": true
    },
    {
      "inputs": [],
      "name": "QuestionDataContract",
      "outputs": [
        {
          "internalType": "contract IQuestionData",
          "name": "",
          "type": "address"
        }
      ],
      "stateMutability": "view",
      "type": "function",
      "constant": true
    },
    {
      "inputs": [
        {
          "internalType": "address",
          "name": "",
          "type": "address"
        }
      ],
      "name": "TimeTheNextSubmit",
      "outputs": [
        {
          "internalType": "uint256",
          "name": "",
          "type": "uint256"
        }
      ],
      "stateMutability": "view",
      "type": "function",
      "constant": true
    },
    {
      "inputs": [
        {
          "internalType": "address",
          "name": "",
          "type": "address"
        }
      ],
      "name": "TimeTheNextToDoQuest",
      "outputs": [
        {
          "internalType": "uint256",
          "name": "",
          "type": "uint256"
        }
      ],
      "stateMutability": "view",
      "type": "function",
      "constant": true
    },
    {
      "inputs": [],
      "name": "TokenReward",
      "outputs": [
        {
          "internalType": "contract IERC20",
          "name": "",
          "type": "address"
        }
      ],
      "stateMutability": "view",
      "type": "function",
      "constant": true
    },
    {
      "inputs": [],
      "name": "TotalQuestionContract",
      "outputs": [
        {
          "internalType": "uint256",
          "name": "",
          "type": "uint256"
        }
      ],
      "stateMutability": "view",
      "type": "function",
      "constant": true
    },
    {
      "inputs": [],
      "name": "TotalQuestionOnDay",
      "outputs": [
        {
          "internalType": "uint256",
          "name": "",
          "type": "uint256"
        }
      ],
      "stateMutability": "view",
      "type": "function",
      "constant": true
    },
    {
      "inputs": [],
      "name": "owner",
      "outputs": [
        {
          "internalType": "address",
          "name": "",
          "type": "address"
        }
      ],
      "stateMutability": "view",
      "type": "function",
      "constant": true
    },
    {
      "inputs": [],
      "name": "renounceOwnership",
      "outputs": [],
      "stateMutability": "nonpayable",
      "type": "function"
    },
    {
      "inputs": [
        {
          "internalType": "address",
          "name": "newOwner",
          "type": "address"
        }
      ],
      "name": "transferOwnership",
      "outputs": [],
      "stateMutability": "nonpayable",
      "type": "function"
    },
    {
      "inputs": [
        {
          "internalType": "contract IGameController",
          "name": "gameCotrollerContract",
          "type": "address"
        }
      ],
      "name": "SetGameCotrollerContract",
      "outputs": [],
      "stateMutability": "nonpayable",
      "type": "function"
    },
    {
      "inputs": [
        {
          "internalType": "contract IQuestionData",
          "name": "newQuestionDataContract",
          "type": "address"
        }
      ],
      "name": "SetQuestionDataContract",
      "outputs": [],
      "stateMutability": "nonpayable",
      "type": "function"
    },
    {
      "inputs": [
        {
          "internalType": "contract IERC20",
          "name": "newTokenReward",
          "type": "address"
        }
      ],
      "name": "SetTokenReward",
      "outputs": [],
      "stateMutability": "nonpayable",
      "type": "function"
    },
    {
      "inputs": [
        {
          "internalType": "uint256",
          "name": "newDelayToDoQuest",
          "type": "uint256"
        }
      ],
      "name": "SetDelayToDoQuest",
      "outputs": [],
      "stateMutability": "nonpayable",
      "type": "function"
    },
    {
      "inputs": [
        {
          "internalType": "uint256",
          "name": "newTotalQuestionContract",
          "type": "uint256"
        }
      ],
      "name": "SetTotalQuestionContract",
      "outputs": [],
      "stateMutability": "nonpayable",
      "type": "function"
    },
    {
      "inputs": [
        {
          "internalType": "uint256",
          "name": "newTotalQuestionOnDay",
          "type": "uint256"
        }
      ],
      "name": "SetTotalQuestionOnDay",
      "outputs": [],
      "stateMutability": "nonpayable",
      "type": "function"
    },
    {
      "inputs": [
        {
          "internalType": "uint256",
          "name": "newBonusAnswerCorrect",
          "type": "uint256"
        }
      ],
      "name": "SetBonusAnswerCorrect",
      "outputs": [],
      "stateMutability": "nonpayable",
      "type": "function"
    },
    {
      "inputs": [],
      "name": "DoQuestOnDay",
      "outputs": [],
      "stateMutability": "nonpayable",
      "type": "function"
    },
    {
      "inputs": [
        {
          "internalType": "address",
          "name": "user",
          "type": "address"
        }
      ],
      "name": "GetDataQuest",
      "outputs": [
        {
          "components": [
            {
              "internalType": "string",
              "name": "Question",
              "type": "string"
            },
            {
              "internalType": "string",
              "name": "Answer0",
              "type": "string"
            },
            {
              "internalType": "string",
              "name": "Answer1",
              "type": "string"
            },
            {
              "internalType": "string",
              "name": "Answer2",
              "type": "string"
            },
            {
              "internalType": "string",
              "name": "Answer3",
              "type": "string"
            }
          ],
          "internalType": "struct Quiz.Question[]",
          "name": "data",
          "type": "tuple[]"
        },
        {
          "internalType": "uint256",
          "name": "timeTheNextToDoQuest",
          "type": "uint256"
        },
        {
          "internalType": "uint256",
          "name": "delayToDoQuest",
          "type": "uint256"
        }
      ],
      "stateMutability": "view",
      "type": "function",
      "constant": true
    },
    {
      "inputs": [
        {
          "internalType": "uint256[]",
          "name": "results",
          "type": "uint256[]"
        }
      ],
      "name": "SubmitQuestions",
      "outputs": [],
      "stateMutability": "nonpayable",
      "type": "function"
    },
    {
      "inputs": [
        {
          "internalType": "address",
          "name": "user",
          "type": "address"
        }
      ],
      "name": "GetResultAnswers",
      "outputs": [
        {
          "internalType": "uint256[]",
          "name": "data",
          "type": "uint256[]"
        },
        {
          "internalType": "uint256",
          "name": "totalBonusToken",
          "type": "uint256"
        }
      ],
      "stateMutability": "view",
      "type": "function",
      "constant": true
    },
    {
      "inputs": [
        {
          "internalType": "uint256",
          "name": "count",
          "type": "uint256"
        },
        {
          "internalType": "address",
          "name": "user",
          "type": "address"
        },
        {
          "internalType": "uint256",
          "name": "from",
          "type": "uint256"
        },
        {
          "internalType": "uint256",
          "name": "to",
          "type": "uint256"
        }
      ],
      "name": "RandomNumber",
      "outputs": [
        {
          "internalType": "uint256",
          "name": "",
          "type": "uint256"
        }
      ],
      "stateMutability": "view",
      "type": "function",
      "constant": true
    }
  ],
  "bytecode": "0x6080604052600a600855600a6009556003600a55600a600b553480156200002557600080fd5b5060405162001909380380620019098339810160408190526200004891620000ee565b620000533362000085565b600280546001600160a01b039384166001600160a01b031991821617909155600380549290931691161790556200012d565b600080546001600160a01b038381166001600160a01b0319831681178455604051919092169283917f8be0079c531659141344cd1fd0a4f28419497f9722a3daafe3b4186f6b6457e09190a35050565b6001600160a01b0381168114620000eb57600080fd5b50565b600080604083850312156200010257600080fd5b82516200010f81620000d5565b60208401519092506200012281620000d5565b809150509250929050565b6117cc806200013d6000396000f3fe608060405234801561001057600080fd5b50600436106101735760003560e01c80638da5cb5b116100de578063b7a16d2111610097578063eee6260e11610071578063eee6260e1461035b578063f26f999b1461036e578063f2fde38b14610381578063f3f222331461039457600080fd5b8063b7a16d211461030a578063bdb3a2121461031d578063d24278fb1461034857600080fd5b80638da5cb5b1461029357806391a79222146102a457806397c72e3c146102b7578063a6f1b3e1146102c0578063ad0df94e146102e0578063b00667fe146102e957600080fd5b8063460d537711610130578063460d53771461021e578063496a2961146102495780635f872a82146102525780636814254214610265578063715018a6146102785780637b51717b1461028057600080fd5b8063085e164214610178578063134104b11461018d57806328ce0411146101a957806338d12eef146101c95780633a821f9b146101d1578063441bb5e7146101fc575b600080fd5b61018b610186366004611278565b6103a7565b005b610196600b5481565b6040519081526020015b60405180910390f35b6101966101b73660046112a6565b60046020526000908152604090205481565b61018b6103b4565b6003546101e4906001600160a01b031681565b6040516001600160a01b0390911681526020016101a0565b61020f61020a3660046112a6565b610685565b6040516101a09392919061131a565b61019661022c3660046113fd565b600660209081526000928352604080842090915290825290205481565b61019660095481565b61018b610260366004611278565b6109f9565b61018b610273366004611278565b610a06565b61018b610a13565b61018b61028e366004611429565b610a27565b6000546001600160a01b03166101e4565b61018b6102b2366004611278565b610d51565b61019660085481565b6101966102ce3660046112a6565b60056020526000908152604090205481565b610196600a5481565b6102fc6102f73660046112a6565b610d5e565b6040516101a092919061149e565b61018b6103183660046112a6565b610e51565b61019661032b3660046113fd565b600760209081526000928352604080842090915290825290205481565b6101966103563660046114e6565b610e7b565b6002546101e4906001600160a01b031681565b61018b61037c3660046112a6565b610f3a565b61018b61038f3660046112a6565b610f64565b61018b6103a23660046112a6565b610fdd565b6103af611007565b600855565b60003360015460405163cd503d0960e01b81526001600160a01b03808416600483015292935091169063cd503d0990602401602060405180830381865afa158015610403573d6000803e3d6000fd5b505050506040513d601f19601f820116820180604052508101906104279190611523565b60000361047b5760405162461bcd60e51b815260206004820152601f60248201527f4572726f723a20496e76616964204865726f4e4654206a6f696e2067616d650060448201526064015b60405180910390fd5b3360008181526004602052604090205443116104ef5760405162461bcd60e51b815260206004820152602d60248201527f4572726f7220546f20446f2051756573743a2049742773206e6f742074696d6560448201526c081d1bc8185cdac81c5d595cdd609a1b6064820152608401610472565b60005b600a54811015610532576001600160a01b03821660009081526007602090815260408083208484529091528120558061052a81611552565b9150506104f2565b506000806105586001610552600a5460095461106190919063ffffffff16565b90611076565b90506000610567826001611082565b9050600061059161058a6001610552600a5460095461106190919063ffffffff16565b8390611082565b905060006105a0826001611082565b905060006105ba600160095461107690919063ffffffff16565b90506105c96000888888610e7b565b6001600160a01b03881660009081526006602090815260408083208380529091529020556105fa6001888686610e7b565b6001600160a01b03881660009081526006602090815260408083206001845290915290205561062c6002888484610e7b565b6001600160a01b03881660009081526006602090815260408083206002845290915290205560085461065f904390611082565b6001600160a01b0390971660009081526004602052604090209690965550505050505050565b6060600080600a5467ffffffffffffffff8111156106a5576106a561156b565b60405190808252806020026020018201604052801561070857816020015b6106f56040518060a0016040528060608152602001606081526020016060815260200160608152602001606081525090565b8152602001906001900390816106c35790505b506001600160a01b03851660009081526004602052604090205490935043101561088b5760005b600a54811015610885576001600160a01b0385811660009081526006602090815260408083208584529091529081902054600254915163085a07fb60e21b815260048101829052909291909116906321681fec90602401600060405180830381865afa1580156107a3573d6000803e3d6000fd5b505050506040513d6000823e601f3d908101601f191682016040526107cb9190810190611609565b508987815181106107de576107de6116e3565b60200260200101516000018a88815181106107fb576107fb6116e3565b60200260200101516020018b8981518110610818576108186116e3565b60200260200101516040018c8a81518110610835576108356116e3565b60200260200101516060018d8b81518110610852576108526116e3565b6020026020010151608001859052859052859052859052859052505050505050808061087d90611552565b91505061072f565b506109a2565b60005b600a548110156109a057604051806020016040528060008152508482815181106108ba576108ba6116e3565b602002602001015160000181905250604051806020016040528060008152508482815181106108eb576108eb6116e3565b6020026020010151602001819052506040518060200160405280600081525084828151811061091c5761091c6116e3565b6020026020010151604001819052506040518060200160405280600081525084828151811061094d5761094d6116e3565b6020026020010151606001819052506040518060200160405280600081525084828151811061097e5761097e6116e3565b602002602001015160800181905250808061099890611552565b91505061088e565b505b6001600160a01b03841660009081526004602052604090205443116109e9576001600160a01b0384166000908152600460205260409020546109e49043611076565b6109ec565b60005b6008549395909450915050565b610a01611007565b600a55565b610a0e611007565b600b55565b610a1b611007565b610a25600061108e565b565b60003360015460405163cd503d0960e01b81526001600160a01b03808416600483015292935091169063cd503d0990602401602060405180830381865afa158015610a76573d6000803e3d6000fd5b505050506040513d601f19601f82011682018060405250810190610a9a9190611523565b600003610ae95760405162461bcd60e51b815260206004820152601f60248201527f4572726f723a20496e76616964204865726f4e4654206a6f696e2067616d65006044820152606401610472565b336000818152600560205260409020544311610b625760405162461bcd60e51b815260206004820152603260248201527f4572726f72205375626d6974205175657374696f6e3a2049742773206e6f74206044820152711d1a5b59481d1bc81cdd589b5a5d081e595d60721b6064820152608401610472565b6001600160a01b038116600090815260046020526040902054431115610bdc5760405162461bcd60e51b815260206004820152602960248201527f4572726f72205375626d6974205175657374696f6e3a207375626d697373696f6044820152681b881d1a5b595bdd5d60ba1b6064820152608401610472565b6000805b600a54811015610d16576001600160a01b03838116600090815260066020908152604080832085845290915280822054600254915163085a07fb60e21b815260048101829052909391909116906321681fec90602401600060405180830381865afa158015610c53573d6000803e3d6000fd5b505050506040513d6000823e601f3d908101601f19168201604052610c7b9190810190611609565b955050505050506000888885818110610c9657610c966116e3565b905060200201359050818103610cdd576001600160a01b03861660009081526007602090815260408083208784529091529020600190819055610cda908690611082565b94505b5050506001600160a01b038316600090815260066020908152604080832084845290915281205580610d0e81611552565b915050610be0565b508015610d2757610d2782826110de565b506001600160a01b0316600090815260046020908152604080832054600590925290912055505050565b610d59611007565b600955565b60606000600a5467ffffffffffffffff811115610d7d57610d7d61156b565b604051908082528060200260200182016040528015610da6578160200160208202803683370190505b5091506000905060005b600a54811015610e4b576001600160a01b03841660009081526007602090815260408083208484529091529020548351849083908110610df257610df26116e3565b6020908102919091018101919091526001600160a01b03851660009081526007825260408082208483529092522054600103610e3957600b54610e36908390611082565b91505b80610e4381611552565b915050610db0565b50915091565b610e59611007565b600380546001600160a01b0319166001600160a01b0392909216919091179055565b60408051426020808301829052448385018190524560608086019190915285518086038201815260808601875280519084012060a086019290925260c085019390935260e0840189905261010084018190529187901b6bffffffffffffffffffffffff19166101208401528351808403610114018152610134909301909352815191909201206000919084610f1081866116f9565b610f1b90600161170c565b610f259083611735565b610f2f919061170c565b979650505050505050565b610f42611007565b600180546001600160a01b0319166001600160a01b0392909216919091179055565b610f6c611007565b6001600160a01b038116610fd15760405162461bcd60e51b815260206004820152602660248201527f4f776e61626c653a206e6577206f776e657220697320746865207a65726f206160448201526564647265737360d01b6064820152608401610472565b610fda8161108e565b50565b610fe5611007565b600280546001600160a01b0319166001600160a01b0392909216919091179055565b6000546001600160a01b03163314610a255760405162461bcd60e51b815260206004820181905260248201527f4f776e61626c653a2063616c6c6572206973206e6f7420746865206f776e65726044820152606401610472565b600061106d8284611749565b90505b92915050565b600061106d82846116f9565b600061106d828461170c565b600080546001600160a01b038381166001600160a01b0319831681178455604051919092169283917f8be0079c531659141344cd1fd0a4f28419497f9722a3daafe3b4186f6b6457e09190a35050565b600b546110ec90829061126c565b6003546040516370a0823160e01b81523060048201526001600160a01b03909116906370a0823190602401602060405180830381865afa158015611134573d6000803e3d6000fd5b505050506040513d601f19601f820116820180604052508101906111589190611523565b106111f657600354600b546001600160a01b039091169063a9059cbb90849061118290859061126c565b6040516001600160e01b031960e085901b1681526001600160a01b03909216600483015260248201526044016020604051808303816000875af11580156111cd573d6000803e3d6000fd5b505050506040513d601f19601f820116820180604052508101906111f1919061175d565b505050565b6003546040516370a0823160e01b81523060048201526001600160a01b039091169063a9059cbb90849083906370a0823190602401602060405180830381865afa158015611248573d6000803e3d6000fd5b505050506040513d601f19601f820116820180604052508101906111829190611523565b600061106d828461177f565b60006020828403121561128a57600080fd5b5035919050565b6001600160a01b0381168114610fda57600080fd5b6000602082840312156112b857600080fd5b81356112c381611291565b9392505050565b60005b838110156112e55781810151838201526020016112cd565b50506000910152565b600081518084526113068160208601602086016112ca565b601f01601f19169290920160200192915050565b60006060808301818452808751808352608092508286019150828160051b8701016020808b0160005b848110156113e257607f198a8503018652815160a08151818752611369828801826112ee565b915050848201518682038688015261138182826112ee565b9150506040808301518783038289015261139b83826112ee565b92505050898201518682038b8801526113b482826112ee565b915050888201519150858103898701526113ce81836112ee565b978501979550505090820190600101611343565b50508701989098525050505060409091019190915250919050565b6000806040838503121561141057600080fd5b823561141b81611291565b946020939093013593505050565b6000806020838503121561143c57600080fd5b823567ffffffffffffffff8082111561145457600080fd5b818501915085601f83011261146857600080fd5b81358181111561147757600080fd5b8660208260051b850101111561148c57600080fd5b60209290920196919550909350505050565b604080825283519082018190526000906020906060840190828701845b828110156114d7578151845292840192908401906001016114bb565b50505092019290925292915050565b600080600080608085870312156114fc57600080fd5b84359350602085013561150e81611291565b93969395505050506040820135916060013590565b60006020828403121561153557600080fd5b5051919050565b634e487b7160e01b600052601160045260246000fd5b6000600182016115645761156461153c565b5060010190565b634e487b7160e01b600052604160045260246000fd5b600082601f83011261159257600080fd5b815167ffffffffffffffff808211156115ad576115ad61156b565b604051601f8301601f19908116603f011681019082821181831017156115d5576115d561156b565b816040528381528660208588010111156115ee57600080fd5b6115ff8460208301602089016112ca565b9695505050505050565b60008060008060008060c0878903121561162257600080fd5b865167ffffffffffffffff8082111561163a57600080fd5b6116468a838b01611581565b9750602089015191508082111561165c57600080fd5b6116688a838b01611581565b9650604089015191508082111561167e57600080fd5b61168a8a838b01611581565b955060608901519150808211156116a057600080fd5b6116ac8a838b01611581565b945060808901519150808211156116c257600080fd5b506116cf89828a01611581565b92505060a087015190509295509295509295565b634e487b7160e01b600052603260045260246000fd5b818103818111156110705761107061153c565b808201808211156110705761107061153c565b634e487b7160e01b600052601260045260246000fd5b6000826117445761174461171f565b500690565b6000826117585761175861171f565b500490565b60006020828403121561176f57600080fd5b815180151581146112c357600080fd5b80820281158282048414176110705761107061153c56fea264697066735822122084d1796c9720ae9aa7129e45cd97ab9e4ad62da595cae74d2ad953cd4a290f8f64736f6c63430008110033",
  "immutableReferences": {},
  "source": "// SPDX-License-Identifier: MIT\npragma solidity ^0.8.0;\n\nimport \"./interfaces/IQuestionData.sol\";\nimport \"./interfaces/IGameController.sol\";\nimport \"@openzeppelin/contracts/utils/math/SafeMath.sol\";\nimport \"@openzeppelin/contracts/access/Ownable.sol\";\nimport \"@openzeppelin/contracts/token/ERC20/IERC20.sol\";\n\ncontract Quiz is Ownable\n{\n    using SafeMath for uint256;\n\n    IGameController GameCotrollerContract;\n    IQuestionData public QuestionDataContract;\n    IERC20 public TokenReward;  // CyberCredit\n\n    mapping(address => uint256) public TimeTheNextToDoQuest;\n    mapping(address => uint256) public TimeTheNextSubmit;\n    mapping(address => mapping(uint256 => uint256)) public ListQuestionsUser;\n    mapping(address => mapping(uint256 => uint256)) public ListResultAnswersUser;\n    // mapping(address => uint256) public BlockReturnDoQuestion; // suport client\n    // mapping(address => uint256) public BlockReturnSubmitQuestion; // suport client\n\n    uint256 public DelayToDoQuest = 10;  // block\n    uint256 public TotalQuestionContract = 10;\n    uint256 public TotalQuestionOnDay = 3;\n\n    uint256 public BonusAnswerCorrect = 10;\n\n    struct Question\n    {\n        string Question;\n        string Answer0;\n        string Answer1;\n        string Answer2;\n        string Answer3;\n    }\n\n    constructor(IQuestionData questionDataContract, IERC20 tokenReward) \n    {\n        QuestionDataContract = questionDataContract;\n        TokenReward = tokenReward;\n    }\n\n    modifier isHeroNFTJoinGame()\n    {\n        address user = _msgSender();\n        require(GameCotrollerContract.HeroNFTJoinGameOfUser(user) != 0, \"Error: Invaid HeroNFT join game\");\n        _;\n    }\n\n    function SetGameCotrollerContract(IGameController gameCotrollerContract) public onlyOwner \n    {\n        GameCotrollerContract = gameCotrollerContract;\n    }\n\n    function SetQuestionDataContract(IQuestionData newQuestionDataContract) public onlyOwner\n    {\n        QuestionDataContract = newQuestionDataContract;\n    }\n\n    function SetTokenReward(IERC20 newTokenReward) public onlyOwner\n    {\n        TokenReward = newTokenReward;\n    }\n\n    function SetDelayToDoQuest(uint256 newDelayToDoQuest) public onlyOwner\n    {\n        DelayToDoQuest = newDelayToDoQuest;\n    }\n\n    function SetTotalQuestionContract(uint256 newTotalQuestionContract) public onlyOwner\n    {\n        TotalQuestionContract = newTotalQuestionContract;\n    }\n    \n    function SetTotalQuestionOnDay(uint256 newTotalQuestionOnDay) public onlyOwner\n    {\n        TotalQuestionOnDay = newTotalQuestionOnDay;\n    }\n\n    function SetBonusAnswerCorrect(uint256 newBonusAnswerCorrect) public onlyOwner\n    {\n        BonusAnswerCorrect = newBonusAnswerCorrect;\n    }\n    function DoQuestOnDay() public isHeroNFTJoinGame\n    {\n        address user = msg.sender;\n        require(block.number > TimeTheNextToDoQuest[user], \"Error To Do Quest: It's not time to ask quest\");\n\n        for(uint256 oldResultAnswer = 0; oldResultAnswer < TotalQuestionOnDay; oldResultAnswer++)\n        {\n            delete ListResultAnswersUser[user][oldResultAnswer];\n        }\n\n        uint256 from1 = 0;\n        uint256 to1 = TotalQuestionContract.div(TotalQuestionOnDay).sub(1);\n\n        uint256 from2 = to1.add(1);\n        uint256 to2 = from2.add(TotalQuestionContract.div(TotalQuestionOnDay).sub(1));\n\n        uint256 from3 = to2.add(1);\n        uint256 to3 = TotalQuestionContract.sub(1);\n\n        ListQuestionsUser[user][0] = RandomNumber(0, user, from1, to1);\n        ListQuestionsUser[user][1] = RandomNumber(1, user, from2, to2);\n        ListQuestionsUser[user][2] = RandomNumber(2, user, from3, to3);\n\n        TimeTheNextToDoQuest[user] = block.number.add(DelayToDoQuest);\n        // BlockReturnDoQuestion[user] = block.number;\n    }\n\n    function GetDataQuest(address user) public view returns(\n        Question[] memory data,\n        uint256 timeTheNextToDoQuest,\n        uint256 delayToDoQuest\n        // uint256 blockReturnDoQuestion\n        )\n    {\n        data = new Question[](TotalQuestionOnDay);\n\n        if(TimeTheNextToDoQuest[user] > block.number)\n        {\n            for(uint256 indexQuestion = 0; indexQuestion < TotalQuestionOnDay; indexQuestion++)\n            {\n                uint256 questionNumber = ListQuestionsUser[user][indexQuestion];\n\n                (data[indexQuestion].Question,\n                data[indexQuestion].Answer0,\n                data[indexQuestion].Answer1,\n                data[indexQuestion].Answer2,\n                data[indexQuestion].Answer3, ) = QuestionDataContract.ListQuestionsContract(questionNumber);\n            }\n        }\n        else \n        {\n            for(uint256 indexQuestion = 0; indexQuestion < TotalQuestionOnDay; indexQuestion++)\n            {\n                data[indexQuestion].Question = \"\";\n                data[indexQuestion].Answer0 = \"\";\n                data[indexQuestion].Answer1 = \"\";\n                data[indexQuestion].Answer2 = \"\";\n                data[indexQuestion].Answer3 = \"\";\n            }\n        }\n\n        timeTheNextToDoQuest = (TimeTheNextToDoQuest[user] < block.number) ? 0 : TimeTheNextToDoQuest[user].sub(block.number);\n        delayToDoQuest = DelayToDoQuest;\n        // blockReturnDoQuestion = BlockReturnDoQuestion[user];\n    }\n\n    function SubmitQuestions(uint256[] calldata results) public isHeroNFTJoinGame\n    {\n        address user = msg.sender;\n        require(block.number > TimeTheNextSubmit[user], \"Error Submit Question: It's not time to submit yet\");\n        require(block.number <= TimeTheNextToDoQuest[user], \"Error Submit Question: submission timeout\");\n\n        uint256 totalNumberCorrect = 0;\n        for(uint256 indexQuestion = 0; indexQuestion < TotalQuestionOnDay; indexQuestion++)\n        {\n            uint256 questionNumber = ListQuestionsUser[user][indexQuestion];\n            (,,,,,uint256 resultAnswerQuestionInContract) = QuestionDataContract.ListQuestionsContract(questionNumber);\n            uint256 resultAnswerQuestionOfUser = results[indexQuestion];\n\n            if(resultAnswerQuestionOfUser == resultAnswerQuestionInContract)\n            {\n                ListResultAnswersUser[user][indexQuestion] = 1; // 1: true, 0: false;\n                totalNumberCorrect = totalNumberCorrect.add(1);\n            }\n            delete ListQuestionsUser[user][indexQuestion];\n        }\n\n        if(totalNumberCorrect > 0) DoBonusToken(user, totalNumberCorrect);\n\n        TimeTheNextSubmit[user] = TimeTheNextToDoQuest[user];\n        // BlockReturnSubmitQuestion[user] = block.number;\n    }\n\n    function DoBonusToken(address user, uint256 totalNumberCorrect) private \n    {\n        if(TokenReward.balanceOf(address(this)) >= totalNumberCorrect.mul(BonusAnswerCorrect))\n        {\n            TokenReward.transfer(user, totalNumberCorrect.mul(BonusAnswerCorrect));\n        }\n        else\n        {\n            TokenReward.transfer(user, TokenReward.balanceOf(address(this)));\n        }\n    }  \n\n    function GetResultAnswers(address user) public view returns(\n        uint256[] memory data,\n        uint256 totalBonusToken\n        // uint256 blockReturnSubmitQuestion\n    )\n    {\n        data =  new uint256[](TotalQuestionOnDay);\n        totalBonusToken = 0;\n\n        for(uint256 resultAnswers = 0; resultAnswers < TotalQuestionOnDay; resultAnswers++)\n        {\n            data[resultAnswers] = ListResultAnswersUser[user][resultAnswers];\n            if(ListResultAnswersUser[user][resultAnswers] == 1)\n            {\n                totalBonusToken = totalBonusToken.add(BonusAnswerCorrect);\n            }\n        }\n        // blockReturnSubmitQuestion = BlockReturnSubmitQuestion[user];\n    }\n\n    function RandomNumber(uint256 count, address user, uint256 from, uint256 to) public view returns(uint256)\n    {\n        uint256 seed = uint256(keccak256(abi.encodePacked(block.timestamp, block.difficulty, block.gaslimit)));\n        uint256 randomHash = uint256(keccak256(abi.encodePacked(block.difficulty, block.timestamp, count, seed, user)));\n        return randomHash % (to - from + 1) + from;\n    }\n}",
  "sourcePath": "/Applications/projects/garbi-contracts/contracts/Quiz.sol",
  "compiler": {
    "name": "solc",
    "version": "0.8.17+commit.8df45f5f.Emscripten.clang"
  },
  "schemaVersion": "3.4.11",
  "updatedAt": "2023-03-21T07:02:46.476Z",
  "networkType": "ethereum",
  "devdoc": {
    "kind": "dev",
    "methods": {
      "owner()": {
        "details": "Returns the address of the current owner."
      },
      "renounceOwnership()": {
        "details": "Leaves the contract without owner. It will not be possible to call `onlyOwner` functions anymore. Can only be called by the current owner. NOTE: Renouncing ownership will leave the contract without an owner, thereby removing any functionality that is only available to the owner."
      },
      "transferOwnership(address)": {
        "details": "Transfers ownership of the contract to a new account (`newOwner`). Can only be called by the current owner."
      }
    },
    "version": 1
  },
  "userdoc": {
    "kind": "user",
    "methods": {},
    "version": 1
  }
}