{
  "contractName": "Quiz",
  "abi": [
    {
      "inputs": [
        {
          "internalType": "contract IQuestionData",
          "name": "questionDataContract",
          "type": "address"
        },
        {
          "internalType": "contract IERC20",
          "name": "tokenReward",
          "type": "address"
        }
      ],
      "stateMutability": "nonpayable",
      "type": "constructor"
    },
    {
      "anonymous": false,
      "inputs": [
        {
          "indexed": false,
          "internalType": "address",
          "name": "user",
          "type": "address"
        },
        {
          "indexed": false,
          "internalType": "uint256",
          "name": "blockNumber",
          "type": "uint256"
        }
      ],
      "name": "OnDoQuestOnDay",
      "type": "event"
    },
    {
      "anonymous": false,
      "inputs": [
        {
          "indexed": false,
          "internalType": "uint256",
          "name": "totalAnswerCorrect",
          "type": "uint256"
        },
        {
          "indexed": false,
          "internalType": "uint256",
          "name": "totalBonus",
          "type": "uint256"
        }
      ],
      "name": "OnResultQuestion",
      "type": "event"
    },
    {
      "anonymous": false,
      "inputs": [
        {
          "indexed": true,
          "internalType": "address",
          "name": "previousOwner",
          "type": "address"
        },
        {
          "indexed": true,
          "internalType": "address",
          "name": "newOwner",
          "type": "address"
        }
      ],
      "name": "OwnershipTransferred",
      "type": "event"
    },
    {
      "inputs": [
        {
          "internalType": "address",
          "name": "",
          "type": "address"
        }
      ],
      "name": "BlockReturnDoQuestion",
      "outputs": [
        {
          "internalType": "uint256",
          "name": "",
          "type": "uint256"
        }
      ],
      "stateMutability": "view",
      "type": "function"
    },
    {
      "inputs": [
        {
          "internalType": "address",
          "name": "",
          "type": "address"
        }
      ],
      "name": "BlockReturnSubmitQuestion",
      "outputs": [
        {
          "internalType": "uint256",
          "name": "",
          "type": "uint256"
        }
      ],
      "stateMutability": "view",
      "type": "function"
    },
    {
      "inputs": [],
      "name": "BonusAnswerCorrect",
      "outputs": [
        {
          "internalType": "uint256",
          "name": "",
          "type": "uint256"
        }
      ],
      "stateMutability": "view",
      "type": "function"
    },
    {
      "inputs": [],
      "name": "DelayToDoQuest",
      "outputs": [
        {
          "internalType": "uint256",
          "name": "",
          "type": "uint256"
        }
      ],
      "stateMutability": "view",
      "type": "function"
    },
    {
      "inputs": [],
      "name": "GameCotrollerContract",
      "outputs": [
        {
          "internalType": "contract IGameController",
          "name": "",
          "type": "address"
        }
      ],
      "stateMutability": "view",
      "type": "function"
    },
    {
      "inputs": [
        {
          "internalType": "address",
          "name": "",
          "type": "address"
        },
        {
          "internalType": "uint256",
          "name": "",
          "type": "uint256"
        }
      ],
      "name": "ListQuestionsUser",
      "outputs": [
        {
          "internalType": "uint256",
          "name": "",
          "type": "uint256"
        }
      ],
      "stateMutability": "view",
      "type": "function"
    },
    {
      "inputs": [
        {
          "internalType": "address",
          "name": "",
          "type": "address"
        },
        {
          "internalType": "uint256",
          "name": "",
          "type": "uint256"
        }
      ],
      "name": "ListResultAnswersUser",
      "outputs": [
        {
          "internalType": "uint256",
          "name": "",
          "type": "uint256"
        }
      ],
      "stateMutability": "view",
      "type": "function"
    },
    {
      "inputs": [],
      "name": "QuestionDataContract",
      "outputs": [
        {
          "internalType": "contract IQuestionData",
          "name": "",
          "type": "address"
        }
      ],
      "stateMutability": "view",
      "type": "function"
    },
    {
      "inputs": [
        {
          "internalType": "address",
          "name": "",
          "type": "address"
        }
      ],
      "name": "TimeTheNextSubmit",
      "outputs": [
        {
          "internalType": "uint256",
          "name": "",
          "type": "uint256"
        }
      ],
      "stateMutability": "view",
      "type": "function"
    },
    {
      "inputs": [
        {
          "internalType": "address",
          "name": "",
          "type": "address"
        }
      ],
      "name": "TimeTheNextToDoQuest",
      "outputs": [
        {
          "internalType": "uint256",
          "name": "",
          "type": "uint256"
        }
      ],
      "stateMutability": "view",
      "type": "function"
    },
    {
      "inputs": [],
      "name": "TokenReward",
      "outputs": [
        {
          "internalType": "contract IERC20",
          "name": "",
          "type": "address"
        }
      ],
      "stateMutability": "view",
      "type": "function"
    },
    {
      "inputs": [],
      "name": "TotalQuestionContract",
      "outputs": [
        {
          "internalType": "uint256",
          "name": "",
          "type": "uint256"
        }
      ],
      "stateMutability": "view",
      "type": "function"
    },
    {
      "inputs": [],
      "name": "TotalQuestionOnDay",
      "outputs": [
        {
          "internalType": "uint256",
          "name": "",
          "type": "uint256"
        }
      ],
      "stateMutability": "view",
      "type": "function"
    },
    {
      "inputs": [],
      "name": "owner",
      "outputs": [
        {
          "internalType": "address",
          "name": "",
          "type": "address"
        }
      ],
      "stateMutability": "view",
      "type": "function"
    },
    {
      "inputs": [],
      "name": "renounceOwnership",
      "outputs": [],
      "stateMutability": "nonpayable",
      "type": "function"
    },
    {
      "inputs": [
        {
          "internalType": "address",
          "name": "newOwner",
          "type": "address"
        }
      ],
      "name": "transferOwnership",
      "outputs": [],
      "stateMutability": "nonpayable",
      "type": "function"
    },
    {
      "inputs": [
        {
          "internalType": "contract IGameController",
          "name": "gameCotrollerContract",
          "type": "address"
        }
      ],
      "name": "SetGameCotrollerContract",
      "outputs": [],
      "stateMutability": "nonpayable",
      "type": "function"
    },
    {
      "inputs": [
        {
          "internalType": "contract IQuestionData",
          "name": "newQuestionDataContract",
          "type": "address"
        }
      ],
      "name": "SetQuestionDataContract",
      "outputs": [],
      "stateMutability": "nonpayable",
      "type": "function"
    },
    {
      "inputs": [
        {
          "internalType": "contract IERC20",
          "name": "newTokenReward",
          "type": "address"
        }
      ],
      "name": "SetTokenReward",
      "outputs": [],
      "stateMutability": "nonpayable",
      "type": "function"
    },
    {
      "inputs": [
        {
          "internalType": "uint256",
          "name": "newDelayToDoQuest",
          "type": "uint256"
        }
      ],
      "name": "SetDelayToDoQuest",
      "outputs": [],
      "stateMutability": "nonpayable",
      "type": "function"
    },
    {
      "inputs": [
        {
          "internalType": "uint256",
          "name": "newTotalQuestionContract",
          "type": "uint256"
        }
      ],
      "name": "SetTotalQuestionContract",
      "outputs": [],
      "stateMutability": "nonpayable",
      "type": "function"
    },
    {
      "inputs": [
        {
          "internalType": "uint256",
          "name": "newTotalQuestionOnDay",
          "type": "uint256"
        }
      ],
      "name": "SetTotalQuestionOnDay",
      "outputs": [],
      "stateMutability": "nonpayable",
      "type": "function"
    },
    {
      "inputs": [
        {
          "internalType": "uint256",
          "name": "newBonusAnswerCorrect",
          "type": "uint256"
        }
      ],
      "name": "SetBonusAnswerCorrect",
      "outputs": [],
      "stateMutability": "nonpayable",
      "type": "function"
    },
    {
      "inputs": [],
      "name": "DoQuestOnDay",
      "outputs": [],
      "stateMutability": "nonpayable",
      "type": "function"
    },
    {
      "inputs": [
        {
          "internalType": "address",
          "name": "user",
          "type": "address"
        }
      ],
      "name": "GetDataQuest",
      "outputs": [
        {
          "components": [
            {
              "internalType": "string",
              "name": "Question",
              "type": "string"
            },
            {
              "internalType": "string",
              "name": "Answer0",
              "type": "string"
            },
            {
              "internalType": "string",
              "name": "Answer1",
              "type": "string"
            },
            {
              "internalType": "string",
              "name": "Answer2",
              "type": "string"
            },
            {
              "internalType": "string",
              "name": "Answer3",
              "type": "string"
            }
          ],
          "internalType": "struct Quiz.Question[]",
          "name": "data",
          "type": "tuple[]"
        },
        {
          "internalType": "uint256",
          "name": "timeTheNextToDoQuest",
          "type": "uint256"
        },
        {
          "internalType": "uint256",
          "name": "timeTheNextSubmit",
          "type": "uint256"
        },
        {
          "internalType": "uint256",
          "name": "delayToDoQuest",
          "type": "uint256"
        },
        {
          "internalType": "uint256",
          "name": "blockReturnDoQuestion",
          "type": "uint256"
        }
      ],
      "stateMutability": "view",
      "type": "function"
    },
    {
      "inputs": [
        {
          "internalType": "uint256[]",
          "name": "results",
          "type": "uint256[]"
        }
      ],
      "name": "SubmitQuestions",
      "outputs": [],
      "stateMutability": "nonpayable",
      "type": "function"
    },
    {
      "inputs": [
        {
          "internalType": "address",
          "name": "user",
          "type": "address"
        }
      ],
      "name": "GetResultAnswers",
      "outputs": [
        {
          "internalType": "uint256[]",
          "name": "data",
          "type": "uint256[]"
        },
        {
          "internalType": "uint256",
          "name": "totalBonusToken",
          "type": "uint256"
        },
        {
          "internalType": "uint256",
          "name": "blockReturnSubmitQuestion",
          "type": "uint256"
        }
      ],
      "stateMutability": "view",
      "type": "function"
    },
    {
      "inputs": [
        {
          "internalType": "uint256",
          "name": "count",
          "type": "uint256"
        },
        {
          "internalType": "address",
          "name": "user",
          "type": "address"
        },
        {
          "internalType": "uint256",
          "name": "from",
          "type": "uint256"
        },
        {
          "internalType": "uint256",
          "name": "to",
          "type": "uint256"
        }
      ],
      "name": "RandomNumber",
      "outputs": [
        {
          "internalType": "uint256",
          "name": "",
          "type": "uint256"
        }
      ],
      "stateMutability": "view",
      "type": "function"
    }
  ],
  "bytecode": "0x6080604052600a8055600a600b556003600c55678ac7230489e80000600d553480156200002b57600080fd5b5060405162001aaa38038062001aaa8339810160408190526200004e91620000f4565b62000059336200008b565b600280546001600160a01b039384166001600160a01b0319918216179091556003805492909316911617905562000133565b600080546001600160a01b038381166001600160a01b0319831681178455604051919092169283917f8be0079c531659141344cd1fd0a4f28419497f9722a3daafe3b4186f6b6457e09190a35050565b6001600160a01b0381168114620000f157600080fd5b50565b600080604083850312156200010857600080fd5b82516200011581620000db565b60208401519092506200012881620000db565b809150509250929050565b61196780620001436000396000f3fe608060405234801561001057600080fd5b50600436106101c45760003560e01c806391a79222116100f9578063bcaf0f2711610097578063eee6260e11610071578063eee6260e14610402578063f26f999b14610415578063f2fde38b14610428578063f3f222331461043b57600080fd5b8063bcaf0f27146103a4578063bdb3a212146103c4578063d24278fb146103ef57600080fd5b8063a6f1b3e1116100d3578063a6f1b3e114610346578063ad0df94e14610366578063b00667fe1461036f578063b7a16d211461039157600080fd5b806391a792221461031757806397c72e3c1461032a5780639f516bc01461033357600080fd5b8063460d537711610166578063681425421161014057806368142542146102d8578063715018a6146102eb5780637b51717b146102f35780638da5cb5b1461030657600080fd5b8063460d537714610291578063496a2961146102bc5780635f872a82146102c557600080fd5b80632aea328e116101a25780632aea328e1461021a57806338d12eef1461023a5780633a821f9b14610242578063441bb5e71461026d57600080fd5b8063085e1642146101c9578063134104b1146101de57806328ce0411146101fa575b600080fd5b6101dc6101d73660046113ff565b61044e565b005b6101e7600d5481565b6040519081526020015b60405180910390f35b6101e761020836600461142d565b60046020526000908152604090205481565b6101e761022836600461142d565b60086020526000908152604090205481565b6101dc61045b565b600354610255906001600160a01b031681565b6040516001600160a01b0390911681526020016101f1565b61028061027b36600461142d565b610770565b6040516101f19594939291906114a1565b6101e761029f366004611593565b600660209081526000928352604080842090915290825290205481565b6101e7600b5481565b6101dc6102d33660046113ff565b610b10565b6101dc6102e63660046113ff565b610b1d565b6101dc610b2a565b6101dc6103013660046115bf565b610b3e565b6000546001600160a01b0316610255565b6101dc6103253660046113ff565b610ebd565b6101e7600a5481565b600154610255906001600160a01b031681565b6101e761035436600461142d565b60056020526000908152604090205481565b6101e7600c5481565b61038261037d36600461142d565b610eca565b6040516101f193929190611634565b6101dc61039f36600461142d565b610fd8565b6101e76103b236600461142d565b60096020526000908152604090205481565b6101e76103d2366004611593565b600760209081526000928352604080842090915290825290205481565b6101e76103fd366004611681565b611002565b600254610255906001600160a01b031681565b6101dc61042336600461142d565b6110c1565b6101dc61043636600461142d565b6110eb565b6101dc61044936600461142d565b611164565b61045661118e565b600a55565b60003360015460405163cd503d0960e01b81526001600160a01b03808416600483015292935091169063cd503d0990602401602060405180830381865afa1580156104aa573d6000803e3d6000fd5b505050506040513d601f19601f820116820180604052508101906104ce91906116be565b6000036105225760405162461bcd60e51b815260206004820152601f60248201527f4572726f723a20496e76616964204865726f4e4654206a6f696e2067616d650060448201526064015b60405180910390fd5b3360008181526004602052604090205443116105965760405162461bcd60e51b815260206004820152602d60248201527f4572726f7220546f20446f2051756573743a2049742773206e6f742074696d6560448201526c081d1bc8185cdac81c5d595cdd609a1b6064820152608401610519565b60005b600c548110156105d9576001600160a01b0382166000908152600760209081526040808320848452909152812055806105d1816116ed565b915050610599565b506000806105ff60016105f9600c54600b546111e890919063ffffffff16565b906111fd565b9050600061060e826001611209565b9050600061063861063160016105f9600c54600b546111e890919063ffffffff16565b8390611209565b90506000610647826001611209565b905060006106616001600b546111fd90919063ffffffff16565b90506106706000888888611002565b6001600160a01b03881660009081526006602090815260408083208380529091529020556106a16001888686611002565b6001600160a01b0388166000908152600660209081526040808320600184529091529020556106d36002888484611002565b6001600160a01b038816600090815260066020908152604080832060028452909152902055600a54610706904390611209565b6001600160a01b038816600081815260046020908152604080832094909455600881529083902043908190558351928352908201527fef3c92825d7509ebbbadbc2bca2e0637eee7b5d5a5afd33177bb964e9796ac86910160405180910390a15050505050505050565b6060600080600080600c5467ffffffffffffffff81111561079357610793611706565b6040519080825280602002602001820160405280156107f657816020015b6107e36040518060a0016040528060608152602001606081526020016060815260200160608152602001606081525090565b8152602001906001900390816107b15790505b506001600160a01b0387166000908152600460205260409020549095504310156109795760005b600c54811015610973576001600160a01b0387811660009081526006602090815260408083208584529091529081902054600254915163085a07fb60e21b815260048101829052909291909116906321681fec90602401600060405180830381865afa158015610891573d6000803e3d6000fd5b505050506040513d6000823e601f3d908101601f191682016040526108b991908101906117a4565b508b87815181106108cc576108cc61187e565b60200260200101516000018c88815181106108e9576108e961187e565b60200260200101516020018d89815181106109065761090661187e565b60200260200101516040018e8a815181106109235761092361187e565b60200260200101516060018f8b815181106109405761094061187e565b6020026020010151608001859052859052859052859052859052505050505050808061096b906116ed565b91505061081d565b50610a90565b60005b600c54811015610a8e57604051806020016040528060008152508682815181106109a8576109a861187e565b602002602001015160000181905250604051806020016040528060008152508682815181106109d9576109d961187e565b60200260200101516020018190525060405180602001604052806000815250868281518110610a0a57610a0a61187e565b60200260200101516040018190525060405180602001604052806000815250868281518110610a3b57610a3b61187e565b60200260200101516060018190525060405180602001604052806000815250868281518110610a6c57610a6c61187e565b6020026020010151608001819052508080610a86906116ed565b91505061097c565b505b6001600160a01b0386166000908152600460205260409020544311610ad7576001600160a01b038616600090815260046020526040902054610ad290436111fd565b610ada565b60005b6001600160a01b03909616600090815260056020908152604080832054600a546008909352922054969891969095509350915050565b610b1861118e565b600c55565b610b2561118e565b600d55565b610b3261118e565b610b3c6000611215565b565b60003360015460405163cd503d0960e01b81526001600160a01b03808416600483015292935091169063cd503d0990602401602060405180830381865afa158015610b8d573d6000803e3d6000fd5b505050506040513d601f19601f82011682018060405250810190610bb191906116be565b600003610c005760405162461bcd60e51b815260206004820152601f60248201527f4572726f723a20496e76616964204865726f4e4654206a6f696e2067616d65006044820152606401610519565b336000818152600560205260409020544311610c795760405162461bcd60e51b815260206004820152603260248201527f4572726f72205375626d6974205175657374696f6e3a2049742773206e6f74206044820152711d1a5b59481d1bc81cdd589b5a5d081e595d60721b6064820152608401610519565b6001600160a01b038116600090815260046020526040902054431115610cf35760405162461bcd60e51b815260206004820152602960248201527f4572726f72205375626d6974205175657374696f6e3a207375626d697373696f6044820152681b881d1a5b595bdd5d60ba1b6064820152608401610519565b6000805b600c54811015610e2d576001600160a01b03838116600090815260066020908152604080832085845290915280822054600254915163085a07fb60e21b815260048101829052909391909116906321681fec90602401600060405180830381865afa158015610d6a573d6000803e3d6000fd5b505050506040513d6000823e601f3d908101601f19168201604052610d9291908101906117a4565b955050505050506000888885818110610dad57610dad61187e565b905060200201359050818103610df4576001600160a01b03861660009081526007602090815260408083208784529091529020600190819055610df1908690611209565b94505b5050506001600160a01b038316600090815260066020908152604080832084845290915281205580610e25816116ed565b915050610cf7565b508015610e3e57610e3e8282611265565b6001600160a01b038216600090815260046020908152604080832054600583528184205560099091529020439055600d547f59bb7aeab425bc04bdb978afd84c92563fe2a5c98e13d543df256493b466b38c908290610e9e9082906113f3565b6040805192835260208301919091520160405180910390a15050505050565b610ec561118e565b600b55565b6060600080600c5467ffffffffffffffff811115610eea57610eea611706565b604051908082528060200260200182016040528015610f13578160200160208202803683370190505b5092506000915060005b600c54811015610fb8576001600160a01b03851660009081526007602090815260408083208484529091529020548451859083908110610f5f57610f5f61187e565b6020908102919091018101919091526001600160a01b03861660009081526007825260408082208483529092522054600103610fa657600d54610fa3908490611209565b92505b80610fb0816116ed565b915050610f1d565b50506001600160a01b039092166000908152600960205260409020549092565b610fe061118e565b600380546001600160a01b0319166001600160a01b0392909216919091179055565b60408051426020808301829052448385018190524560608086019190915285518086038201815260808601875280519084012060a086019290925260c085019390935260e0840189905261010084018190529187901b6bffffffffffffffffffffffff191661012084015283518084036101140181526101349093019093528151919092012060009190846110978186611894565b6110a29060016118a7565b6110ac90836118d0565b6110b691906118a7565b979650505050505050565b6110c961118e565b600180546001600160a01b0319166001600160a01b0392909216919091179055565b6110f361118e565b6001600160a01b0381166111585760405162461bcd60e51b815260206004820152602660248201527f4f776e61626c653a206e6577206f776e657220697320746865207a65726f206160448201526564647265737360d01b6064820152608401610519565b61116181611215565b50565b61116c61118e565b600280546001600160a01b0319166001600160a01b0392909216919091179055565b6000546001600160a01b03163314610b3c5760405162461bcd60e51b815260206004820181905260248201527f4f776e61626c653a2063616c6c6572206973206e6f7420746865206f776e65726044820152606401610519565b60006111f482846118e4565b90505b92915050565b60006111f48284611894565b60006111f482846118a7565b600080546001600160a01b038381166001600160a01b0319831681178455604051919092169283917f8be0079c531659141344cd1fd0a4f28419497f9722a3daafe3b4186f6b6457e09190a35050565b600d546112739082906113f3565b6003546040516370a0823160e01b81523060048201526001600160a01b03909116906370a0823190602401602060405180830381865afa1580156112bb573d6000803e3d6000fd5b505050506040513d601f19601f820116820180604052508101906112df91906116be565b1061137d57600354600d546001600160a01b039091169063a9059cbb9084906113099085906113f3565b6040516001600160e01b031960e085901b1681526001600160a01b03909216600483015260248201526044016020604051808303816000875af1158015611354573d6000803e3d6000fd5b505050506040513d601f19601f8201168201806040525081019061137891906118f8565b505050565b6003546040516370a0823160e01b81523060048201526001600160a01b039091169063a9059cbb90849083906370a0823190602401602060405180830381865afa1580156113cf573d6000803e3d6000fd5b505050506040513d601f19601f8201168201806040525081019061130991906116be565b60006111f4828461191a565b60006020828403121561141157600080fd5b5035919050565b6001600160a01b038116811461116157600080fd5b60006020828403121561143f57600080fd5b813561144a81611418565b9392505050565b60005b8381101561146c578181015183820152602001611454565b50506000910152565b6000815180845261148d816020860160208601611451565b601f01601f19169290920160200192915050565b600060a080830181845280895180835260c08601915060c08160051b87010192506020808c0160005b8381101561156c5788860360bf19018552815180518888526114ee89890182611475565b905084820151888203868a01526115058282611475565b915050604080830151898303828b015261151f8382611475565b92505050606080830151898303828b015261153a8382611475565b925050506080808301519250888203818a0152506115588183611475565b9750505093820193908201906001016114ca565b50508601999099525060408401969096525050606081019290925260809091015292915050565b600080604083850312156115a657600080fd5b82356115b181611418565b946020939093013593505050565b600080602083850312156115d257600080fd5b823567ffffffffffffffff808211156115ea57600080fd5b818501915085601f8301126115fe57600080fd5b81358181111561160d57600080fd5b8660208260051b850101111561162257600080fd5b60209290920196919550909350505050565b606080825284519082018190526000906020906080840190828801845b8281101561166d57815184529284019290840190600101611651565b505050908301949094525060400152919050565b6000806000806080858703121561169757600080fd5b8435935060208501356116a981611418565b93969395505050506040820135916060013590565b6000602082840312156116d057600080fd5b5051919050565b634e487b7160e01b600052601160045260246000fd5b6000600182016116ff576116ff6116d7565b5060010190565b634e487b7160e01b600052604160045260246000fd5b600082601f83011261172d57600080fd5b815167ffffffffffffffff8082111561174857611748611706565b604051601f8301601f19908116603f0116810190828211818310171561177057611770611706565b8160405283815286602085880101111561178957600080fd5b61179a846020830160208901611451565b9695505050505050565b60008060008060008060c087890312156117bd57600080fd5b865167ffffffffffffffff808211156117d557600080fd5b6117e18a838b0161171c565b975060208901519150808211156117f757600080fd5b6118038a838b0161171c565b9650604089015191508082111561181957600080fd5b6118258a838b0161171c565b9550606089015191508082111561183b57600080fd5b6118478a838b0161171c565b9450608089015191508082111561185d57600080fd5b5061186a89828a0161171c565b92505060a087015190509295509295509295565b634e487b7160e01b600052603260045260246000fd5b818103818111156111f7576111f76116d7565b808201808211156111f7576111f76116d7565b634e487b7160e01b600052601260045260246000fd5b6000826118df576118df6118ba565b500690565b6000826118f3576118f36118ba565b500490565b60006020828403121561190a57600080fd5b8151801515811461144a57600080fd5b80820281158282048414176111f7576111f76116d756fea264697066735822122010056f235043e8a5096883042d03b15e0844171870530c9701a92a9476753f8b64736f6c63430008110033",
  "immutableReferences": {},
  "source": "// SPDX-License-Identifier: MIT\npragma solidity ^0.8.0;\n\nimport \"./interfaces/IQuestionData.sol\";\nimport \"./interfaces/IGameController.sol\";\n\nimport \"@openzeppelin/contracts/utils/math/SafeMath.sol\";\nimport \"@openzeppelin/contracts/access/Ownable.sol\";\nimport \"@openzeppelin/contracts/token/ERC20/IERC20.sol\";\n\ncontract Quiz is Ownable\n{\n    using SafeMath for uint256;\n\n    IGameController public GameCotrollerContract;\n    IQuestionData public QuestionDataContract;\n    IERC20 public TokenReward;  // CyberCredit\n\n    mapping(address => uint256) public TimeTheNextToDoQuest;\n    mapping(address => uint256) public TimeTheNextSubmit;\n    mapping(address => mapping(uint256 => uint256)) public ListQuestionsUser;\n    mapping(address => mapping(uint256 => uint256)) public ListResultAnswersUser;\n    mapping(address => uint256) public BlockReturnDoQuestion; // suport client\n    mapping(address => uint256) public BlockReturnSubmitQuestion; // suport client\n\n    uint256 public DelayToDoQuest = 10;  // block\n    uint256 public TotalQuestionContract = 10;\n    uint256 public TotalQuestionOnDay = 3;\n\n    uint256 public BonusAnswerCorrect = 10e18;\n\n    event OnDoQuestOnDay(address user, uint256 blockNumber);\n    event OnResultQuestion(uint256 totalAnswerCorrect, uint256 totalBonus);\n\n    struct Question\n    {\n        string Question;\n        string Answer0;\n        string Answer1;\n        string Answer2;\n        string Answer3;\n    }\n\n    constructor(IQuestionData questionDataContract, IERC20 tokenReward) \n    {\n        QuestionDataContract = questionDataContract;\n        TokenReward = tokenReward;\n    }\n\n    modifier isHeroNFTJoinGame()\n    {\n        address user = _msgSender();\n        require(GameCotrollerContract.HeroNFTJoinGameOfUser(user) != 0, \"Error: Invaid HeroNFT join game\");\n        _;\n    }\n\n    function SetGameCotrollerContract(IGameController gameCotrollerContract) public onlyOwner \n    {\n        GameCotrollerContract = gameCotrollerContract;\n    }\n\n    function SetQuestionDataContract(IQuestionData newQuestionDataContract) public onlyOwner\n    {\n        QuestionDataContract = newQuestionDataContract;\n    }\n\n    function SetTokenReward(IERC20 newTokenReward) public onlyOwner\n    {\n        TokenReward = newTokenReward;\n    }\n\n    function SetDelayToDoQuest(uint256 newDelayToDoQuest) public onlyOwner\n    {\n        DelayToDoQuest = newDelayToDoQuest;\n    }\n\n    function SetTotalQuestionContract(uint256 newTotalQuestionContract) public onlyOwner\n    {\n        TotalQuestionContract = newTotalQuestionContract;\n    }\n    \n    function SetTotalQuestionOnDay(uint256 newTotalQuestionOnDay) public onlyOwner\n    {\n        TotalQuestionOnDay = newTotalQuestionOnDay;\n    }\n\n    function SetBonusAnswerCorrect(uint256 newBonusAnswerCorrect) public onlyOwner\n    {\n        BonusAnswerCorrect = newBonusAnswerCorrect;\n    }\n    function DoQuestOnDay() public isHeroNFTJoinGame\n    {\n        address user = msg.sender;\n        require(block.number > TimeTheNextToDoQuest[user], \"Error To Do Quest: It's not time to ask quest\");\n\n        for(uint256 oldResultAnswer = 0; oldResultAnswer < TotalQuestionOnDay; oldResultAnswer++)\n        {\n            delete ListResultAnswersUser[user][oldResultAnswer];\n        }\n\n        uint256 from1 = 0;\n        uint256 to1 = TotalQuestionContract.div(TotalQuestionOnDay).sub(1);\n\n        uint256 from2 = to1.add(1);\n        uint256 to2 = from2.add(TotalQuestionContract.div(TotalQuestionOnDay).sub(1));\n\n        uint256 from3 = to2.add(1);\n        uint256 to3 = TotalQuestionContract.sub(1);\n\n        ListQuestionsUser[user][0] = RandomNumber(0, user, from1, to1);\n        ListQuestionsUser[user][1] = RandomNumber(1, user, from2, to2);\n        ListQuestionsUser[user][2] = RandomNumber(2, user, from3, to3);\n\n        TimeTheNextToDoQuest[user] = block.number.add(DelayToDoQuest);\n        BlockReturnDoQuestion[user] = block.number;\n\n        emit OnDoQuestOnDay(user, BlockReturnDoQuestion[user]);\n    }\n\n    function GetDataQuest(address user) public view returns(\n        Question[] memory data,\n        uint256 timeTheNextToDoQuest,\n        uint256 timeTheNextSubmit,\n        uint256 delayToDoQuest,\n        uint256 blockReturnDoQuestion\n        )\n    {\n        data = new Question[](TotalQuestionOnDay);\n\n        if(TimeTheNextToDoQuest[user] > block.number)\n        {\n            for(uint256 indexQuestion = 0; indexQuestion < TotalQuestionOnDay; indexQuestion++)\n            {\n                uint256 questionNumber = ListQuestionsUser[user][indexQuestion];\n\n                (data[indexQuestion].Question,\n                data[indexQuestion].Answer0,\n                data[indexQuestion].Answer1,\n                data[indexQuestion].Answer2,\n                data[indexQuestion].Answer3, ) = QuestionDataContract.ListQuestionsContract(questionNumber);\n            }\n        }\n        else \n        {\n            for(uint256 indexQuestion = 0; indexQuestion < TotalQuestionOnDay; indexQuestion++)\n            {\n                data[indexQuestion].Question = \"\";\n                data[indexQuestion].Answer0 = \"\";\n                data[indexQuestion].Answer1 = \"\";\n                data[indexQuestion].Answer2 = \"\";\n                data[indexQuestion].Answer3 = \"\";\n            }\n        }\n\n        timeTheNextToDoQuest = (TimeTheNextToDoQuest[user] < block.number) ? 0 : TimeTheNextToDoQuest[user].sub(block.number);\n        timeTheNextSubmit = TimeTheNextSubmit[user];\n        delayToDoQuest = DelayToDoQuest;\n        blockReturnDoQuestion = BlockReturnDoQuestion[user];\n    }\n\n    function SubmitQuestions(uint256[] calldata results) public isHeroNFTJoinGame\n    {\n        address user = msg.sender;\n        require(block.number > TimeTheNextSubmit[user], \"Error Submit Question: It's not time to submit yet\");\n        require(block.number <= TimeTheNextToDoQuest[user], \"Error Submit Question: submission timeout\");\n\n        uint256 totalAnswerCorrect = 0;\n        for(uint256 indexQuestion = 0; indexQuestion < TotalQuestionOnDay; indexQuestion++)\n        {\n            uint256 questionNumber = ListQuestionsUser[user][indexQuestion];\n            (,,,,,uint256 resultAnswerQuestionInContract) = QuestionDataContract.ListQuestionsContract(questionNumber);\n            uint256 resultAnswerQuestionOfUser = results[indexQuestion];\n\n            if(resultAnswerQuestionOfUser == resultAnswerQuestionInContract)\n            {\n                ListResultAnswersUser[user][indexQuestion] = 1; // 1: true, 0: false;\n                totalAnswerCorrect = totalAnswerCorrect.add(1);\n            }\n            delete ListQuestionsUser[user][indexQuestion];\n        }\n\n        if(totalAnswerCorrect > 0) DoBonusToken(user, totalAnswerCorrect);\n\n        TimeTheNextSubmit[user] = TimeTheNextToDoQuest[user];\n        BlockReturnSubmitQuestion[user] = block.number;\n\n        emit OnResultQuestion(totalAnswerCorrect, totalAnswerCorrect.mul(BonusAnswerCorrect));\n    }\n\n    function DoBonusToken(address user, uint256 totalAnswerCorrect) private \n    {\n        if(TokenReward.balanceOf(address(this)) >= totalAnswerCorrect.mul(BonusAnswerCorrect))\n        {\n            TokenReward.transfer(user, totalAnswerCorrect.mul(BonusAnswerCorrect));\n        }\n        else\n        {\n            TokenReward.transfer(user, TokenReward.balanceOf(address(this)));\n        }\n    }  \n\n    function GetResultAnswers(address user) public view returns(\n        uint256[] memory data,\n        uint256 totalBonusToken,\n        uint256 blockReturnSubmitQuestion\n    )\n    {\n        data =  new uint256[](TotalQuestionOnDay);\n        totalBonusToken = 0;\n\n        for(uint256 resultAnswers = 0; resultAnswers < TotalQuestionOnDay; resultAnswers++)\n        {\n            data[resultAnswers] = ListResultAnswersUser[user][resultAnswers];\n            if(ListResultAnswersUser[user][resultAnswers] == 1)\n            {\n                totalBonusToken = totalBonusToken.add(BonusAnswerCorrect);\n            }\n        }\n        blockReturnSubmitQuestion = BlockReturnSubmitQuestion[user];\n    }\n\n    function RandomNumber(uint256 count, address user, uint256 from, uint256 to) public view returns(uint256)\n    {\n        uint256 seed = uint256(keccak256(abi.encodePacked(block.timestamp, block.difficulty, block.gaslimit)));\n        uint256 randomHash = uint256(keccak256(abi.encodePacked(block.difficulty, block.timestamp, count, seed, user)));\n        return randomHash % (to - from + 1) + from;\n    }\n}",
  "sourcePath": "/Applications/projects/garbi-contracts/contracts/Quiz.sol",
  "compiler": {
    "name": "solc",
    "version": "0.8.17+commit.8df45f5f.Emscripten.clang"
  },
  "schemaVersion": "3.4.11",
  "updatedAt": "2023-04-19T08:58:53.404Z",
  "devdoc": {
    "kind": "dev",
    "methods": {
      "owner()": {
        "details": "Returns the address of the current owner."
      },
      "renounceOwnership()": {
        "details": "Leaves the contract without owner. It will not be possible to call `onlyOwner` functions anymore. Can only be called by the current owner. NOTE: Renouncing ownership will leave the contract without an owner, thereby removing any functionality that is only available to the owner."
      },
      "transferOwnership(address)": {
        "details": "Transfers ownership of the contract to a new account (`newOwner`). Can only be called by the current owner."
      }
    },
    "version": 1
  },
  "userdoc": {
    "kind": "user",
    "methods": {},
    "version": 1
  }
}