{
  "contractName": "Robot",
  "abi": [
    {
      "inputs": [
        {
          "internalType": "string",
          "name": "tokenName",
          "type": "string"
        },
        {
          "internalType": "string",
          "name": "tokenSysbol",
          "type": "string"
        }
      ],
      "stateMutability": "nonpayable",
      "type": "constructor"
    },
    {
      "anonymous": false,
      "inputs": [
        {
          "indexed": true,
          "internalType": "address",
          "name": "owner",
          "type": "address"
        },
        {
          "indexed": true,
          "internalType": "address",
          "name": "approved",
          "type": "address"
        },
        {
          "indexed": true,
          "internalType": "uint256",
          "name": "tokenId",
          "type": "uint256"
        }
      ],
      "name": "Approval",
      "type": "event"
    },
    {
      "anonymous": false,
      "inputs": [
        {
          "indexed": true,
          "internalType": "address",
          "name": "owner",
          "type": "address"
        },
        {
          "indexed": true,
          "internalType": "address",
          "name": "operator",
          "type": "address"
        },
        {
          "indexed": false,
          "internalType": "bool",
          "name": "approved",
          "type": "bool"
        }
      ],
      "name": "ApprovalForAll",
      "type": "event"
    },
    {
      "anonymous": false,
      "inputs": [
        {
          "indexed": false,
          "internalType": "address",
          "name": "from",
          "type": "address"
        },
        {
          "indexed": false,
          "internalType": "address",
          "name": "to",
          "type": "address"
        },
        {
          "indexed": false,
          "internalType": "uint256",
          "name": "tokenId",
          "type": "uint256"
        }
      ],
      "name": "OnMintNFT",
      "type": "event"
    },
    {
      "anonymous": false,
      "inputs": [
        {
          "indexed": true,
          "internalType": "address",
          "name": "previousOwner",
          "type": "address"
        },
        {
          "indexed": true,
          "internalType": "address",
          "name": "newOwner",
          "type": "address"
        }
      ],
      "name": "OwnershipTransferred",
      "type": "event"
    },
    {
      "anonymous": false,
      "inputs": [
        {
          "indexed": true,
          "internalType": "address",
          "name": "from",
          "type": "address"
        },
        {
          "indexed": true,
          "internalType": "address",
          "name": "to",
          "type": "address"
        },
        {
          "indexed": true,
          "internalType": "uint256",
          "name": "tokenId",
          "type": "uint256"
        }
      ],
      "name": "Transfer",
      "type": "event"
    },
    {
      "inputs": [],
      "name": "BaseURI",
      "outputs": [
        {
          "internalType": "string",
          "name": "",
          "type": "string"
        }
      ],
      "stateMutability": "view",
      "type": "function",
      "constant": true
    },
    {
      "inputs": [],
      "name": "EnableSystem",
      "outputs": [
        {
          "internalType": "bool",
          "name": "",
          "type": "bool"
        }
      ],
      "stateMutability": "view",
      "type": "function",
      "constant": true
    },
    {
      "inputs": [
        {
          "internalType": "uint256",
          "name": "",
          "type": "uint256"
        }
      ],
      "name": "Level",
      "outputs": [
        {
          "internalType": "uint256",
          "name": "",
          "type": "uint256"
        }
      ],
      "stateMutability": "view",
      "type": "function",
      "constant": true
    },
    {
      "inputs": [
        {
          "internalType": "address",
          "name": "",
          "type": "address"
        }
      ],
      "name": "Miner",
      "outputs": [
        {
          "internalType": "bool",
          "name": "",
          "type": "bool"
        }
      ],
      "stateMutability": "view",
      "type": "function",
      "constant": true
    },
    {
      "inputs": [
        {
          "internalType": "address",
          "name": "to",
          "type": "address"
        },
        {
          "internalType": "uint256",
          "name": "tokenId",
          "type": "uint256"
        }
      ],
      "name": "approve",
      "outputs": [],
      "stateMutability": "nonpayable",
      "type": "function"
    },
    {
      "inputs": [
        {
          "internalType": "address",
          "name": "owner",
          "type": "address"
        }
      ],
      "name": "balanceOf",
      "outputs": [
        {
          "internalType": "uint256",
          "name": "",
          "type": "uint256"
        }
      ],
      "stateMutability": "view",
      "type": "function",
      "constant": true
    },
    {
      "inputs": [
        {
          "internalType": "uint256",
          "name": "tokenId",
          "type": "uint256"
        }
      ],
      "name": "getApproved",
      "outputs": [
        {
          "internalType": "address",
          "name": "",
          "type": "address"
        }
      ],
      "stateMutability": "view",
      "type": "function",
      "constant": true
    },
    {
      "inputs": [
        {
          "internalType": "address",
          "name": "owner",
          "type": "address"
        },
        {
          "internalType": "address",
          "name": "operator",
          "type": "address"
        }
      ],
      "name": "isApprovedForAll",
      "outputs": [
        {
          "internalType": "bool",
          "name": "",
          "type": "bool"
        }
      ],
      "stateMutability": "view",
      "type": "function",
      "constant": true
    },
    {
      "inputs": [],
      "name": "name",
      "outputs": [
        {
          "internalType": "string",
          "name": "",
          "type": "string"
        }
      ],
      "stateMutability": "view",
      "type": "function",
      "constant": true
    },
    {
      "inputs": [],
      "name": "owner",
      "outputs": [
        {
          "internalType": "address",
          "name": "",
          "type": "address"
        }
      ],
      "stateMutability": "view",
      "type": "function",
      "constant": true
    },
    {
      "inputs": [
        {
          "internalType": "uint256",
          "name": "tokenId",
          "type": "uint256"
        }
      ],
      "name": "ownerOf",
      "outputs": [
        {
          "internalType": "address",
          "name": "",
          "type": "address"
        }
      ],
      "stateMutability": "view",
      "type": "function",
      "constant": true
    },
    {
      "inputs": [],
      "name": "renounceOwnership",
      "outputs": [],
      "stateMutability": "nonpayable",
      "type": "function"
    },
    {
      "inputs": [
        {
          "internalType": "address",
          "name": "from",
          "type": "address"
        },
        {
          "internalType": "address",
          "name": "to",
          "type": "address"
        },
        {
          "internalType": "uint256",
          "name": "tokenId",
          "type": "uint256"
        }
      ],
      "name": "safeTransferFrom",
      "outputs": [],
      "stateMutability": "nonpayable",
      "type": "function"
    },
    {
      "inputs": [
        {
          "internalType": "address",
          "name": "from",
          "type": "address"
        },
        {
          "internalType": "address",
          "name": "to",
          "type": "address"
        },
        {
          "internalType": "uint256",
          "name": "tokenId",
          "type": "uint256"
        },
        {
          "internalType": "bytes",
          "name": "data",
          "type": "bytes"
        }
      ],
      "name": "safeTransferFrom",
      "outputs": [],
      "stateMutability": "nonpayable",
      "type": "function"
    },
    {
      "inputs": [
        {
          "internalType": "address",
          "name": "operator",
          "type": "address"
        },
        {
          "internalType": "bool",
          "name": "approved",
          "type": "bool"
        }
      ],
      "name": "setApprovalForAll",
      "outputs": [],
      "stateMutability": "nonpayable",
      "type": "function"
    },
    {
      "inputs": [
        {
          "internalType": "bytes4",
          "name": "interfaceId",
          "type": "bytes4"
        }
      ],
      "name": "supportsInterface",
      "outputs": [
        {
          "internalType": "bool",
          "name": "",
          "type": "bool"
        }
      ],
      "stateMutability": "view",
      "type": "function",
      "constant": true
    },
    {
      "inputs": [],
      "name": "symbol",
      "outputs": [
        {
          "internalType": "string",
          "name": "",
          "type": "string"
        }
      ],
      "stateMutability": "view",
      "type": "function",
      "constant": true
    },
    {
      "inputs": [
        {
          "internalType": "uint256",
          "name": "index",
          "type": "uint256"
        }
      ],
      "name": "tokenByIndex",
      "outputs": [
        {
          "internalType": "uint256",
          "name": "",
          "type": "uint256"
        }
      ],
      "stateMutability": "view",
      "type": "function",
      "constant": true
    },
    {
      "inputs": [
        {
          "internalType": "address",
          "name": "owner",
          "type": "address"
        },
        {
          "internalType": "uint256",
          "name": "index",
          "type": "uint256"
        }
      ],
      "name": "tokenOfOwnerByIndex",
      "outputs": [
        {
          "internalType": "uint256",
          "name": "",
          "type": "uint256"
        }
      ],
      "stateMutability": "view",
      "type": "function",
      "constant": true
    },
    {
      "inputs": [
        {
          "internalType": "uint256",
          "name": "tokenId",
          "type": "uint256"
        }
      ],
      "name": "tokenURI",
      "outputs": [
        {
          "internalType": "string",
          "name": "",
          "type": "string"
        }
      ],
      "stateMutability": "view",
      "type": "function",
      "constant": true
    },
    {
      "inputs": [],
      "name": "totalSupply",
      "outputs": [
        {
          "internalType": "uint256",
          "name": "",
          "type": "uint256"
        }
      ],
      "stateMutability": "view",
      "type": "function",
      "constant": true
    },
    {
      "inputs": [
        {
          "internalType": "address",
          "name": "from",
          "type": "address"
        },
        {
          "internalType": "address",
          "name": "to",
          "type": "address"
        },
        {
          "internalType": "uint256",
          "name": "tokenId",
          "type": "uint256"
        }
      ],
      "name": "transferFrom",
      "outputs": [],
      "stateMutability": "nonpayable",
      "type": "function"
    },
    {
      "inputs": [
        {
          "internalType": "address",
          "name": "newOwner",
          "type": "address"
        }
      ],
      "name": "transferOwnership",
      "outputs": [],
      "stateMutability": "nonpayable",
      "type": "function"
    },
    {
      "inputs": [],
      "name": "SetPauseSystem",
      "outputs": [],
      "stateMutability": "nonpayable",
      "type": "function"
    },
    {
      "inputs": [],
      "name": "SetEnableSystem",
      "outputs": [],
      "stateMutability": "nonpayable",
      "type": "function"
    },
    {
      "inputs": [
        {
          "internalType": "address",
          "name": "miner",
          "type": "address"
        }
      ],
      "name": "SetEnableMiner",
      "outputs": [],
      "stateMutability": "nonpayable",
      "type": "function"
    },
    {
      "inputs": [
        {
          "internalType": "address",
          "name": "miner",
          "type": "address"
        }
      ],
      "name": "SetDisableMiner",
      "outputs": [],
      "stateMutability": "nonpayable",
      "type": "function"
    },
    {
      "inputs": [
        {
          "internalType": "string",
          "name": "baseURI",
          "type": "string"
        }
      ],
      "name": "SetBaseURI",
      "outputs": [],
      "stateMutability": "nonpayable",
      "type": "function"
    },
    {
      "inputs": [
        {
          "internalType": "address",
          "name": "to",
          "type": "address"
        }
      ],
      "name": "Mint",
      "outputs": [
        {
          "internalType": "uint256",
          "name": "",
          "type": "uint256"
        }
      ],
      "stateMutability": "nonpayable",
      "type": "function"
    },
    {
      "inputs": [
        {
          "internalType": "uint256",
          "name": "tokenId",
          "type": "uint256"
        }
      ],
      "name": "Burn",
      "outputs": [],
      "stateMutability": "nonpayable",
      "type": "function"
    },
    {
      "inputs": [
        {
          "internalType": "uint256",
          "name": "tokenId",
          "type": "uint256"
        }
      ],
      "name": "UpgrateLevel",
      "outputs": [],
      "stateMutability": "nonpayable",
      "type": "function"
    }
  ],
  "bytecode": "0x60806040523480156200001157600080fd5b506040516200262e3803806200262e8339810160408190526200003491620001a0565b8181600062000044838262000299565b50600162000053828262000299565b505050620000706200006a6200008560201b60201c565b62000089565b5050600c805460ff1916600117905562000365565b3390565b600a80546001600160a01b038381166001600160a01b0319831681179093556040519116919082907f8be0079c531659141344cd1fd0a4f28419497f9722a3daafe3b4186f6b6457e090600090a35050565b634e487b7160e01b600052604160045260246000fd5b600082601f8301126200010357600080fd5b81516001600160401b0380821115620001205762000120620000db565b604051601f8301601f19908116603f011681019082821181831017156200014b576200014b620000db565b816040528381526020925086838588010111156200016857600080fd5b600091505b838210156200018c57858201830151818301840152908201906200016d565b600093810190920192909252949350505050565b60008060408385031215620001b457600080fd5b82516001600160401b0380821115620001cc57600080fd5b620001da86838701620000f1565b93506020850151915080821115620001f157600080fd5b506200020085828601620000f1565b9150509250929050565b600181811c908216806200021f57607f821691505b6020821081036200024057634e487b7160e01b600052602260045260246000fd5b50919050565b601f8211156200029457600081815260208120601f850160051c810160208610156200026f5750805b601f850160051c820191505b8181101562000290578281556001016200027b565b5050505b505050565b81516001600160401b03811115620002b557620002b5620000db565b620002cd81620002c684546200020a565b8462000246565b602080601f831160018114620003055760008415620002ec5750858301515b600019600386901b1c1916600185901b17855562000290565b600085815260208120601f198616915b82811015620003365788860151825594840194600190910190840162000315565b5085821015620003555787850151600019600388901b60f8161c191681555b5050505050600190811b01905550565b6122b980620003756000396000f3fe608060405234801561001057600080fd5b50600436106101e55760003560e01c8063715018a61161010f578063b88d4fde116100a2578063e985e9c511610071578063e985e9c514610408578063ea48462a14610444578063f2fde38b14610457578063ffcc43c41461046a57600080fd5b8063b88d4fde146103c7578063b90306ad146103da578063c1941636146103ed578063c87b56dd146103f557600080fd5b8063a22cb465116100de578063a22cb46514610371578063ab8ed71c14610384578063af340e9114610391578063b8433cb1146103b457600080fd5b8063715018a61461033d5780638da5cb5b14610345578063958c20461461035657806395d89b411461036957600080fd5b806323b872dd1161018757806342842e0e1161015657806342842e0e146102f15780634f6ccce7146103045780636352211e1461031757806370a082311461032a57600080fd5b806323b872dd146102a557806323c8c948146102b85780632f745c59146102cb5780633c3284d1146102de57600080fd5b8063095ea7b3116101c3578063095ea7b31461025257806311d5c6b51461026757806318160ddd146102955780631ce992031461029d57600080fd5b806301ffc9a7146101ea57806306fdde0314610212578063081812fc14610227575b600080fd5b6101fd6101f8366004611c4e565b610472565b60405190151581526020015b60405180910390f35b61021a61049d565b6040516102099190611cbb565b61023a610235366004611cce565b61052f565b6040516001600160a01b039091168152602001610209565b610265610260366004611cfe565b610556565b005b610287610275366004611cce565b600f6020526000908152604090205481565b604051908152602001610209565b600854610287565b610265610670565b6102656102b3366004611d28565b610687565b6102656102c6366004611df0565b6106b8565b6102876102d9366004611cfe565b61072b565b6102876102ec366004611e39565b6107c1565b6102656102ff366004611d28565b6108da565b610287610312366004611cce565b6108f5565b61023a610325366004611cce565b610988565b610287610338366004611e39565b6109e8565b610265610a6e565b600a546001600160a01b031661023a565b610265610364366004611cce565b610a82565b61021a610b29565b61026561037f366004611e54565b610b38565b600c546101fd9060ff1681565b6101fd61039f366004611e39565b600d6020526000908152604090205460ff1681565b6102656103c2366004611e39565b610b43565b6102656103d5366004611e90565b610c0b565b6102656103e8366004611cce565b610c43565b610265610cda565b61021a610403366004611cce565b610cee565b6101fd610416366004611f0c565b6001600160a01b03918216600090815260056020908152604080832093909416825291909152205460ff1690565b610265610452366004611e39565b610d55565b610265610465366004611e39565b610e1e565b61021a610e94565b60006001600160e01b0319821663780e9d6360e01b1480610497575061049782610f22565b92915050565b6060600080546104ac90611f3f565b80601f01602080910402602001604051908101604052809291908181526020018280546104d890611f3f565b80156105255780601f106104fa57610100808354040283529160200191610525565b820191906000526020600020905b81548152906001019060200180831161050857829003601f168201915b5050505050905090565b600061053a82610f72565b506000908152600460205260409020546001600160a01b031690565b600061056182610988565b9050806001600160a01b0316836001600160a01b0316036105d35760405162461bcd60e51b815260206004820152602160248201527f4552433732313a20617070726f76616c20746f2063757272656e74206f776e656044820152603960f91b60648201526084015b60405180910390fd5b336001600160a01b03821614806105ef57506105ef8133610416565b6106615760405162461bcd60e51b815260206004820152603d60248201527f4552433732313a20617070726f76652063616c6c6572206973206e6f7420746f60448201527f6b656e206f776e6572206f7220617070726f76656420666f7220616c6c00000060648201526084016105ca565b61066b8383610fd1565b505050565b61067861103f565b600c805460ff19166001179055565b6106913382611099565b6106ad5760405162461bcd60e51b81526004016105ca90611f79565b61066b838383611118565b6106c061103f565b600081511161071b5760405162461bcd60e51b815260206004820152602160248201527f4572726f7220536574426173655552493a20496e76616c6964206261736555526044820152604960f81b60648201526084016105ca565b600e6107278282612014565b5050565b6000610736836109e8565b82106107985760405162461bcd60e51b815260206004820152602b60248201527f455243373231456e756d657261626c653a206f776e657220696e646578206f7560448201526a74206f6620626f756e647360a81b60648201526084016105ca565b506001600160a01b03919091166000908152600660209081526040808320938352929052205490565b600c5460009060ff1615156001146107eb5760405162461bcd60e51b81526004016105ca906120d4565b336000908152600d602052604090205460ff16151560011461084f5760405162461bcd60e51b815260206004820152601960248201527f4572726f72204d696e743a20496e76616c6964206d696e65720000000000000060448201526064016105ca565b61085d600b80546001019055565b6000610868600b5490565b90506108748382611289565b6000818152600f602090815260408083209290925581513381526001600160a01b038616918101919091529081018290527f9ce4cec2c551a95b9c29a42cf2c132d4f738c3817de4668c098bb4ec6c0a5dfb9060600160405180910390a190505b919050565b61066b83838360405180602001604052806000815250610c0b565b600061090060085490565b82106109635760405162461bcd60e51b815260206004820152602c60248201527f455243373231456e756d657261626c653a20676c6f62616c20696e646578206f60448201526b7574206f6620626f756e647360a01b60648201526084016105ca565b60088281548110610976576109766120fb565b90600052602060002001549050919050565b6000818152600260205260408120546001600160a01b0316806104975760405162461bcd60e51b8152602060048201526018602482015277115490cdcc8c4e881a5b9d985b1a59081d1bdad95b88125160421b60448201526064016105ca565b60006001600160a01b038216610a525760405162461bcd60e51b815260206004820152602960248201527f4552433732313a2061646472657373207a65726f206973206e6f7420612076616044820152683634b21037bbb732b960b91b60648201526084016105ca565b506001600160a01b031660009081526003602052604090205490565b610a7661103f565b610a8060006112a3565b565b600c5460ff161515600114610aa95760405162461bcd60e51b81526004016105ca906120d4565b336000908152600d602052604090205460ff161515600114610b025760405162461bcd60e51b8152602060048201526012602482015271115c9c9bdc88155c19dc985d1953195d995b60721b60448201526064016105ca565b6000818152600f60205260408120805460019290610b21908490612127565b909155505050565b6060600180546104ac90611f3f565b6107273383836112f5565b610b4b61103f565b600c5460ff161515600114610b725760405162461bcd60e51b81526004016105ca906120d4565b6001600160a01b0381166000908152600d602052604090205460ff1615610be75760405162461bcd60e51b815260206004820152602360248201527f4572726f7220536574456e61626c654d696e65723a20496e76616c6964206d696044820152623732b960e91b60648201526084016105ca565b6001600160a01b03166000908152600d60205260409020805460ff19166001179055565b610c153383611099565b610c315760405162461bcd60e51b81526004016105ca90611f79565b610c3d848484846113c3565b50505050565b600c5460ff161515600114610c6a5760405162461bcd60e51b81526004016105ca906120d4565b610c743382611099565b610cce5760405162461bcd60e51b815260206004820152602560248201527f4275726e2063616c6c6572206973206e6f74206f776e6572206e6f72206170706044820152641c9bdd995960da1b60648201526084016105ca565b610cd7816113f6565b50565b610ce261103f565b600c805460ff19169055565b6060610cf982610f72565b6000610d03611499565b90506000815111610d235760405180602001604052806000815250610d4e565b80610d2d846114a8565b604051602001610d3e92919061213a565b6040516020818303038152906040525b9392505050565b610d5d61103f565b600c5460ff161515600114610d845760405162461bcd60e51b81526004016105ca906120d4565b6001600160a01b0381166000908152600d602052604090205460ff161515600114610dfd5760405162461bcd60e51b8152602060048201526024808201527f4572726f722053657444697361626c654d696e65723a20496e76616c6964206d60448201526334b732b960e11b60648201526084016105ca565b6001600160a01b03166000908152600d60205260409020805460ff19169055565b610e2661103f565b6001600160a01b038116610e8b5760405162461bcd60e51b815260206004820152602660248201527f4f776e61626c653a206e6577206f776e657220697320746865207a65726f206160448201526564647265737360d01b60648201526084016105ca565b610cd7816112a3565b600e8054610ea190611f3f565b80601f0160208091040260200160405190810160405280929190818152602001828054610ecd90611f3f565b8015610f1a5780601f10610eef57610100808354040283529160200191610f1a565b820191906000526020600020905b815481529060010190602001808311610efd57829003601f168201915b505050505081565b60006001600160e01b031982166380ac58cd60e01b1480610f5357506001600160e01b03198216635b5e139f60e01b145b8061049757506301ffc9a760e01b6001600160e01b0319831614610497565b6000818152600260205260409020546001600160a01b0316610cd75760405162461bcd60e51b8152602060048201526018602482015277115490cdcc8c4e881a5b9d985b1a59081d1bdad95b88125160421b60448201526064016105ca565b600081815260046020526040902080546001600160a01b0319166001600160a01b038416908117909155819061100682610988565b6001600160a01b03167f8c5be1e5ebec7d5bd14f71427d1e84f3dd0314c0f7b2291e5b200ac8c7c3b92560405160405180910390a45050565b600a546001600160a01b03163314610a805760405162461bcd60e51b815260206004820181905260248201527f4f776e61626c653a2063616c6c6572206973206e6f7420746865206f776e657260448201526064016105ca565b6000806110a583610988565b9050806001600160a01b0316846001600160a01b031614806110ec57506001600160a01b0380821660009081526005602090815260408083209388168352929052205460ff165b806111105750836001600160a01b03166111058461052f565b6001600160a01b0316145b949350505050565b826001600160a01b031661112b82610988565b6001600160a01b0316146111515760405162461bcd60e51b81526004016105ca90612169565b6001600160a01b0382166111b35760405162461bcd60e51b8152602060048201526024808201527f4552433732313a207472616e7366657220746f20746865207a65726f206164646044820152637265737360e01b60648201526084016105ca565b6111c0838383600161153b565b826001600160a01b03166111d382610988565b6001600160a01b0316146111f95760405162461bcd60e51b81526004016105ca90612169565b600081815260046020908152604080832080546001600160a01b03199081169091556001600160a01b0387811680865260038552838620805460001901905590871680865283862080546001019055868652600290945282852080549092168417909155905184937fddf252ad1be2c89b69c2b068fc378daa952ba7f163c4a11628f55a4df523b3ef91a4505050565b61072782826040518060200160405280600081525061167b565b600a80546001600160a01b038381166001600160a01b0319831681179093556040519116919082907f8be0079c531659141344cd1fd0a4f28419497f9722a3daafe3b4186f6b6457e090600090a35050565b816001600160a01b0316836001600160a01b0316036113565760405162461bcd60e51b815260206004820152601960248201527f4552433732313a20617070726f766520746f2063616c6c65720000000000000060448201526064016105ca565b6001600160a01b03838116600081815260056020908152604080832094871680845294825291829020805460ff191686151590811790915591519182527f17307eab39ab6107e8899845ad3d59bd9653f200f220920489ca2b5937696c31910160405180910390a3505050565b6113ce848484611118565b6113da848484846116ae565b610c3d5760405162461bcd60e51b81526004016105ca906121ae565b600061140182610988565b905061141181600084600161153b565b61141a82610988565b600083815260046020908152604080832080546001600160a01b03199081169091556001600160a01b0385168085526003845282852080546000190190558785526002909352818420805490911690555192935084927fddf252ad1be2c89b69c2b068fc378daa952ba7f163c4a11628f55a4df523b3ef908390a45050565b6060600e80546104ac90611f3f565b606060006114b5836117af565b600101905060008167ffffffffffffffff8111156114d5576114d5611d64565b6040519080825280601f01601f1916602001820160405280156114ff576020820181803683370190505b5090508181016020015b600019016f181899199a1a9b1b9c1cb0b131b232b360811b600a86061a8153600a850494508461150957509392505050565b61154784848484611887565b60018111156115b65760405162461bcd60e51b815260206004820152603560248201527f455243373231456e756d657261626c653a20636f6e7365637574697665207472604482015274185b9cd9995c9cc81b9bdd081cdd5c1c1bdc9d1959605a1b60648201526084016105ca565b816001600160a01b0385166116125761160d81600880546000838152600960205260408120829055600182018355919091527ff3f7a9fe364faab93b216da50a3214154f22a0a2b415b23a84c8169e8b636ee30155565b611635565b836001600160a01b0316856001600160a01b03161461163557611635858261190f565b6001600160a01b0384166116515761164c816119ac565b611674565b846001600160a01b0316846001600160a01b031614611674576116748482611a5b565b5050505050565b6116858383611a9f565b61169260008484846116ae565b61066b5760405162461bcd60e51b81526004016105ca906121ae565b60006001600160a01b0384163b156117a457604051630a85bd0160e11b81526001600160a01b0385169063150b7a02906116f2903390899088908890600401612200565b6020604051808303816000875af192505050801561172d575060408051601f3d908101601f1916820190925261172a9181019061223d565b60015b61178a573d80801561175b576040519150601f19603f3d011682016040523d82523d6000602084013e611760565b606091505b5080516000036117825760405162461bcd60e51b81526004016105ca906121ae565b805181602001fd5b6001600160e01b031916630a85bd0160e11b149050611110565b506001949350505050565b60008072184f03e93ff9f4daa797ed6e38ed64bf6a1f0160401b83106117ee5772184f03e93ff9f4daa797ed6e38ed64bf6a1f0160401b830492506040015b6d04ee2d6d415b85acef8100000000831061181a576d04ee2d6d415b85acef8100000000830492506020015b662386f26fc10000831061183857662386f26fc10000830492506010015b6305f5e1008310611850576305f5e100830492506008015b612710831061186457612710830492506004015b60648310611876576064830492506002015b600a83106104975760010192915050565b6001811115610c3d576001600160a01b038416156118cd576001600160a01b038416600090815260036020526040812080548392906118c790849061225a565b90915550505b6001600160a01b03831615610c3d576001600160a01b03831660009081526003602052604081208054839290611904908490612127565b909155505050505050565b6000600161191c846109e8565b611926919061225a565b600083815260076020526040902054909150808214611979576001600160a01b03841660009081526006602090815260408083208584528252808320548484528184208190558352600790915290208190555b5060009182526007602090815260408084208490556001600160a01b039094168352600681528383209183525290812055565b6008546000906119be9060019061225a565b600083815260096020526040812054600880549394509092849081106119e6576119e66120fb565b906000526020600020015490508060088381548110611a0757611a076120fb565b6000918252602080832090910192909255828152600990915260408082208490558582528120556008805480611a3f57611a3f61226d565b6001900381819060005260206000200160009055905550505050565b6000611a66836109e8565b6001600160a01b039093166000908152600660209081526040808320868452825280832085905593825260079052919091209190915550565b6001600160a01b038216611af55760405162461bcd60e51b815260206004820181905260248201527f4552433732313a206d696e7420746f20746865207a65726f206164647265737360448201526064016105ca565b6000818152600260205260409020546001600160a01b031615611b5a5760405162461bcd60e51b815260206004820152601c60248201527f4552433732313a20746f6b656e20616c7265616479206d696e7465640000000060448201526064016105ca565b611b6860008383600161153b565b6000818152600260205260409020546001600160a01b031615611bcd5760405162461bcd60e51b815260206004820152601c60248201527f4552433732313a20746f6b656e20616c7265616479206d696e7465640000000060448201526064016105ca565b6001600160a01b038216600081815260036020908152604080832080546001019055848352600290915280822080546001600160a01b0319168417905551839291907fddf252ad1be2c89b69c2b068fc378daa952ba7f163c4a11628f55a4df523b3ef908290a45050565b6001600160e01b031981168114610cd757600080fd5b600060208284031215611c6057600080fd5b8135610d4e81611c38565b60005b83811015611c86578181015183820152602001611c6e565b50506000910152565b60008151808452611ca7816020860160208601611c6b565b601f01601f19169290920160200192915050565b602081526000610d4e6020830184611c8f565b600060208284031215611ce057600080fd5b5035919050565b80356001600160a01b03811681146108d557600080fd5b60008060408385031215611d1157600080fd5b611d1a83611ce7565b946020939093013593505050565b600080600060608486031215611d3d57600080fd5b611d4684611ce7565b9250611d5460208501611ce7565b9150604084013590509250925092565b634e487b7160e01b600052604160045260246000fd5b600067ffffffffffffffff80841115611d9557611d95611d64565b604051601f8501601f19908116603f01168101908282118183101715611dbd57611dbd611d64565b81604052809350858152868686011115611dd657600080fd5b858560208301376000602087830101525050509392505050565b600060208284031215611e0257600080fd5b813567ffffffffffffffff811115611e1957600080fd5b8201601f81018413611e2a57600080fd5b61111084823560208401611d7a565b600060208284031215611e4b57600080fd5b610d4e82611ce7565b60008060408385031215611e6757600080fd5b611e7083611ce7565b915060208301358015158114611e8557600080fd5b809150509250929050565b60008060008060808587031215611ea657600080fd5b611eaf85611ce7565b9350611ebd60208601611ce7565b925060408501359150606085013567ffffffffffffffff811115611ee057600080fd5b8501601f81018713611ef157600080fd5b611f0087823560208401611d7a565b91505092959194509250565b60008060408385031215611f1f57600080fd5b611f2883611ce7565b9150611f3660208401611ce7565b90509250929050565b600181811c90821680611f5357607f821691505b602082108103611f7357634e487b7160e01b600052602260045260246000fd5b50919050565b6020808252602d908201527f4552433732313a2063616c6c6572206973206e6f7420746f6b656e206f776e6560408201526c1c881bdc88185c1c1c9bdd9959609a1b606082015260800190565b601f82111561066b57600081815260208120601f850160051c81016020861015611fed5750805b601f850160051c820191505b8181101561200c57828155600101611ff9565b505050505050565b815167ffffffffffffffff81111561202e5761202e611d64565b6120428161203c8454611f3f565b84611fc6565b602080601f831160018114612077576000841561205f5750858301515b600019600386901b1c1916600185901b17855561200c565b600085815260208120601f198616915b828110156120a657888601518255948401946001909101908401612087565b50858210156120c45787850151600019600388901b60f8161c191681555b5050505050600190811b01905550565b6020808252600d908201526c14de5cdd195b481c185d5cd959609a1b604082015260600190565b634e487b7160e01b600052603260045260246000fd5b634e487b7160e01b600052601160045260246000fd5b8082018082111561049757610497612111565b6000835161214c818460208801611c6b565b835190830190612160818360208801611c6b565b01949350505050565b60208082526025908201527f4552433732313a207472616e736665722066726f6d20696e636f72726563742060408201526437bbb732b960d91b606082015260800190565b60208082526032908201527f4552433732313a207472616e7366657220746f206e6f6e20455243373231526560408201527131b2b4bb32b91034b6b83632b6b2b73a32b960711b606082015260800190565b6001600160a01b038581168252841660208201526040810183905260806060820181905260009061223390830184611c8f565b9695505050505050565b60006020828403121561224f57600080fd5b8151610d4e81611c38565b8181038181111561049757610497612111565b634e487b7160e01b600052603160045260246000fdfea2646970667358221220bf344348a8a2c977223c2114056fe721f58279c3be1b16f58068fba81712634f64736f6c63430008110033",
  "immutableReferences": {},
  "source": "// SPDX-License-Identifier: MIT\npragma solidity ^0.8.0;\n\nimport \"@openzeppelin/contracts/utils/math/SafeMath.sol\";\nimport \"@openzeppelin/contracts/utils/Counters.sol\";\nimport \"@openzeppelin/contracts/access/Ownable.sol\";\nimport \"@openzeppelin/contracts/token/ERC721/extensions/ERC721Enumerable.sol\";\n\n// NFT\ncontract Robot is ERC721Enumerable, Ownable\n{\n    using Counters for Counters.Counter;\n    Counters.Counter private TokenId;\n\n    bool public EnableSystem;\n    mapping(address => bool) public Miner;\n\n    string public BaseURI;\n\n    event OnMintNFT(address from, address to, uint256 tokenId);\n\n    mapping(uint256 => uint256) public Level;\n\n    modifier IsEnableSystem()\n    {\n        require(EnableSystem == true, \"System paused\");\n        _;\n    }\n\n    constructor(\n        string memory tokenName, string memory tokenSysbol\n        ) ERC721 (tokenName, tokenSysbol)\n    {\n        EnableSystem = true;\n    }\n\n    function SetPauseSystem() public onlyOwner \n    {\n        EnableSystem = false;\n    }\n\n    function SetEnableSystem() public onlyOwner\n    {\n        EnableSystem = true;\n    }\n\n    function SetEnableMiner(address miner) public onlyOwner IsEnableSystem \n    {\n        require(Miner[miner] == false, \"Error SetEnableMiner: Invalid miner\");\n        Miner[miner] = true;\n    }\n\n    function SetDisableMiner(address miner) public onlyOwner IsEnableSystem\n    {\n        require(Miner[miner] == true, \"Error SetDisableMiner: Invalid miner\");\n        Miner[miner] = false;\n    }\n\n    function SetBaseURI(string memory baseURI) public onlyOwner \n    {\n        require(bytes(baseURI).length > 0, \"Error SetBaseURI: Invalid baseURI\");\n        BaseURI = baseURI;\n    }\n\n    function Mint(address to) public IsEnableSystem returns(uint256)\n    {\n        require(Miner[msg.sender] == true, \"Error Mint: Invalid miner\");\n        TokenId.increment();\n        uint256 newTokenId = TokenId.current();\n        _safeMint(to, newTokenId);\n        Level[newTokenId] = 0;\n\n        emit OnMintNFT(msg.sender, to, newTokenId);\n\n        return newTokenId;\n    }\n\n    function Burn(uint256 tokenId) public IsEnableSystem virtual\n    {\n        require(_isApprovedOrOwner(msg.sender, tokenId), \"Burn caller is not owner nor approved\");\n        _burn(tokenId);\n    }\n\n    function UpgrateLevel(uint256 tokenId) public IsEnableSystem\n    {\n        require(Miner[msg.sender] == true, \"Error UpgrateLevel\");\n        Level[tokenId] += 1;\n    }\n\n    function _baseURI() internal view override returns(string memory)\n    {\n        return BaseURI;\n    }\n    \n}",
  "sourcePath": "/Applications/projects/garbi-contracts/contracts/Robot.sol",
  "compiler": {
    "name": "solc",
    "version": "0.8.17+commit.8df45f5f.Emscripten.clang"
  },
  "schemaVersion": "3.4.11",
  "updatedAt": "2023-03-03T03:24:39.312Z",
  "networkType": "ethereum",
  "devdoc": {
    "kind": "dev",
    "methods": {
      "approve(address,uint256)": {
        "details": "See {IERC721-approve}."
      },
      "balanceOf(address)": {
        "details": "See {IERC721-balanceOf}."
      },
      "getApproved(uint256)": {
        "details": "See {IERC721-getApproved}."
      },
      "isApprovedForAll(address,address)": {
        "details": "See {IERC721-isApprovedForAll}."
      },
      "name()": {
        "details": "See {IERC721Metadata-name}."
      },
      "owner()": {
        "details": "Returns the address of the current owner."
      },
      "ownerOf(uint256)": {
        "details": "See {IERC721-ownerOf}."
      },
      "renounceOwnership()": {
        "details": "Leaves the contract without owner. It will not be possible to call `onlyOwner` functions anymore. Can only be called by the current owner. NOTE: Renouncing ownership will leave the contract without an owner, thereby removing any functionality that is only available to the owner."
      },
      "safeTransferFrom(address,address,uint256)": {
        "details": "See {IERC721-safeTransferFrom}."
      },
      "safeTransferFrom(address,address,uint256,bytes)": {
        "details": "See {IERC721-safeTransferFrom}."
      },
      "setApprovalForAll(address,bool)": {
        "details": "See {IERC721-setApprovalForAll}."
      },
      "supportsInterface(bytes4)": {
        "details": "See {IERC165-supportsInterface}."
      },
      "symbol()": {
        "details": "See {IERC721Metadata-symbol}."
      },
      "tokenByIndex(uint256)": {
        "details": "See {IERC721Enumerable-tokenByIndex}."
      },
      "tokenOfOwnerByIndex(address,uint256)": {
        "details": "See {IERC721Enumerable-tokenOfOwnerByIndex}."
      },
      "tokenURI(uint256)": {
        "details": "See {IERC721Metadata-tokenURI}."
      },
      "totalSupply()": {
        "details": "See {IERC721Enumerable-totalSupply}."
      },
      "transferFrom(address,address,uint256)": {
        "details": "See {IERC721-transferFrom}."
      },
      "transferOwnership(address)": {
        "details": "Transfers ownership of the contract to a new account (`newOwner`). Can only be called by the current owner."
      }
    },
    "version": 1
  },
  "userdoc": {
    "kind": "user",
    "methods": {},
    "version": 1
  }
}