{
  "contractName": "Robot",
  "abi": [
    {
      "inputs": [
        {
          "internalType": "string",
          "name": "tokenName",
          "type": "string"
        },
        {
          "internalType": "string",
          "name": "tokenSymbol",
          "type": "string"
        }
      ],
      "stateMutability": "nonpayable",
      "type": "constructor"
    },
    {
      "anonymous": false,
      "inputs": [
        {
          "indexed": true,
          "internalType": "address",
          "name": "owner",
          "type": "address"
        },
        {
          "indexed": true,
          "internalType": "address",
          "name": "approved",
          "type": "address"
        },
        {
          "indexed": true,
          "internalType": "uint256",
          "name": "tokenId",
          "type": "uint256"
        }
      ],
      "name": "Approval",
      "type": "event"
    },
    {
      "anonymous": false,
      "inputs": [
        {
          "indexed": true,
          "internalType": "address",
          "name": "owner",
          "type": "address"
        },
        {
          "indexed": true,
          "internalType": "address",
          "name": "operator",
          "type": "address"
        },
        {
          "indexed": false,
          "internalType": "bool",
          "name": "approved",
          "type": "bool"
        }
      ],
      "name": "ApprovalForAll",
      "type": "event"
    },
    {
      "anonymous": false,
      "inputs": [
        {
          "indexed": false,
          "internalType": "address",
          "name": "from",
          "type": "address"
        },
        {
          "indexed": false,
          "internalType": "address",
          "name": "to",
          "type": "address"
        },
        {
          "indexed": false,
          "internalType": "uint256",
          "name": "tokenId",
          "type": "uint256"
        }
      ],
      "name": "OnMintNFT",
      "type": "event"
    },
    {
      "anonymous": false,
      "inputs": [
        {
          "indexed": true,
          "internalType": "address",
          "name": "previousOwner",
          "type": "address"
        },
        {
          "indexed": true,
          "internalType": "address",
          "name": "newOwner",
          "type": "address"
        }
      ],
      "name": "OwnershipTransferred",
      "type": "event"
    },
    {
      "anonymous": false,
      "inputs": [
        {
          "indexed": false,
          "internalType": "address",
          "name": "account",
          "type": "address"
        }
      ],
      "name": "Paused",
      "type": "event"
    },
    {
      "anonymous": false,
      "inputs": [
        {
          "indexed": true,
          "internalType": "address",
          "name": "from",
          "type": "address"
        },
        {
          "indexed": true,
          "internalType": "address",
          "name": "to",
          "type": "address"
        },
        {
          "indexed": true,
          "internalType": "uint256",
          "name": "tokenId",
          "type": "uint256"
        }
      ],
      "name": "Transfer",
      "type": "event"
    },
    {
      "anonymous": false,
      "inputs": [
        {
          "indexed": false,
          "internalType": "address",
          "name": "account",
          "type": "address"
        }
      ],
      "name": "Unpaused",
      "type": "event"
    },
    {
      "inputs": [],
      "name": "BaseURI",
      "outputs": [
        {
          "internalType": "string",
          "name": "",
          "type": "string"
        }
      ],
      "stateMutability": "view",
      "type": "function",
      "constant": true
    },
    {
      "inputs": [
        {
          "internalType": "uint256",
          "name": "",
          "type": "uint256"
        }
      ],
      "name": "Level",
      "outputs": [
        {
          "internalType": "uint256",
          "name": "",
          "type": "uint256"
        }
      ],
      "stateMutability": "view",
      "type": "function",
      "constant": true
    },
    {
      "inputs": [
        {
          "internalType": "address",
          "name": "",
          "type": "address"
        }
      ],
      "name": "Miner",
      "outputs": [
        {
          "internalType": "bool",
          "name": "",
          "type": "bool"
        }
      ],
      "stateMutability": "view",
      "type": "function",
      "constant": true
    },
    {
      "inputs": [
        {
          "internalType": "address",
          "name": "to",
          "type": "address"
        },
        {
          "internalType": "uint256",
          "name": "tokenId",
          "type": "uint256"
        }
      ],
      "name": "approve",
      "outputs": [],
      "stateMutability": "nonpayable",
      "type": "function"
    },
    {
      "inputs": [
        {
          "internalType": "address",
          "name": "owner",
          "type": "address"
        }
      ],
      "name": "balanceOf",
      "outputs": [
        {
          "internalType": "uint256",
          "name": "",
          "type": "uint256"
        }
      ],
      "stateMutability": "view",
      "type": "function",
      "constant": true
    },
    {
      "inputs": [
        {
          "internalType": "uint256",
          "name": "tokenId",
          "type": "uint256"
        }
      ],
      "name": "getApproved",
      "outputs": [
        {
          "internalType": "address",
          "name": "",
          "type": "address"
        }
      ],
      "stateMutability": "view",
      "type": "function",
      "constant": true
    },
    {
      "inputs": [
        {
          "internalType": "address",
          "name": "owner",
          "type": "address"
        },
        {
          "internalType": "address",
          "name": "operator",
          "type": "address"
        }
      ],
      "name": "isApprovedForAll",
      "outputs": [
        {
          "internalType": "bool",
          "name": "",
          "type": "bool"
        }
      ],
      "stateMutability": "view",
      "type": "function",
      "constant": true
    },
    {
      "inputs": [],
      "name": "name",
      "outputs": [
        {
          "internalType": "string",
          "name": "",
          "type": "string"
        }
      ],
      "stateMutability": "view",
      "type": "function",
      "constant": true
    },
    {
      "inputs": [],
      "name": "owner",
      "outputs": [
        {
          "internalType": "address",
          "name": "",
          "type": "address"
        }
      ],
      "stateMutability": "view",
      "type": "function",
      "constant": true
    },
    {
      "inputs": [
        {
          "internalType": "uint256",
          "name": "tokenId",
          "type": "uint256"
        }
      ],
      "name": "ownerOf",
      "outputs": [
        {
          "internalType": "address",
          "name": "",
          "type": "address"
        }
      ],
      "stateMutability": "view",
      "type": "function",
      "constant": true
    },
    {
      "inputs": [],
      "name": "paused",
      "outputs": [
        {
          "internalType": "bool",
          "name": "",
          "type": "bool"
        }
      ],
      "stateMutability": "view",
      "type": "function",
      "constant": true
    },
    {
      "inputs": [],
      "name": "renounceOwnership",
      "outputs": [],
      "stateMutability": "nonpayable",
      "type": "function"
    },
    {
      "inputs": [
        {
          "internalType": "address",
          "name": "from",
          "type": "address"
        },
        {
          "internalType": "address",
          "name": "to",
          "type": "address"
        },
        {
          "internalType": "uint256",
          "name": "tokenId",
          "type": "uint256"
        }
      ],
      "name": "safeTransferFrom",
      "outputs": [],
      "stateMutability": "nonpayable",
      "type": "function"
    },
    {
      "inputs": [
        {
          "internalType": "address",
          "name": "from",
          "type": "address"
        },
        {
          "internalType": "address",
          "name": "to",
          "type": "address"
        },
        {
          "internalType": "uint256",
          "name": "tokenId",
          "type": "uint256"
        },
        {
          "internalType": "bytes",
          "name": "data",
          "type": "bytes"
        }
      ],
      "name": "safeTransferFrom",
      "outputs": [],
      "stateMutability": "nonpayable",
      "type": "function"
    },
    {
      "inputs": [
        {
          "internalType": "address",
          "name": "operator",
          "type": "address"
        },
        {
          "internalType": "bool",
          "name": "approved",
          "type": "bool"
        }
      ],
      "name": "setApprovalForAll",
      "outputs": [],
      "stateMutability": "nonpayable",
      "type": "function"
    },
    {
      "inputs": [
        {
          "internalType": "bytes4",
          "name": "interfaceId",
          "type": "bytes4"
        }
      ],
      "name": "supportsInterface",
      "outputs": [
        {
          "internalType": "bool",
          "name": "",
          "type": "bool"
        }
      ],
      "stateMutability": "view",
      "type": "function",
      "constant": true
    },
    {
      "inputs": [],
      "name": "symbol",
      "outputs": [
        {
          "internalType": "string",
          "name": "",
          "type": "string"
        }
      ],
      "stateMutability": "view",
      "type": "function",
      "constant": true
    },
    {
      "inputs": [
        {
          "internalType": "uint256",
          "name": "index",
          "type": "uint256"
        }
      ],
      "name": "tokenByIndex",
      "outputs": [
        {
          "internalType": "uint256",
          "name": "",
          "type": "uint256"
        }
      ],
      "stateMutability": "view",
      "type": "function",
      "constant": true
    },
    {
      "inputs": [
        {
          "internalType": "address",
          "name": "owner",
          "type": "address"
        },
        {
          "internalType": "uint256",
          "name": "index",
          "type": "uint256"
        }
      ],
      "name": "tokenOfOwnerByIndex",
      "outputs": [
        {
          "internalType": "uint256",
          "name": "",
          "type": "uint256"
        }
      ],
      "stateMutability": "view",
      "type": "function",
      "constant": true
    },
    {
      "inputs": [
        {
          "internalType": "uint256",
          "name": "tokenId",
          "type": "uint256"
        }
      ],
      "name": "tokenURI",
      "outputs": [
        {
          "internalType": "string",
          "name": "",
          "type": "string"
        }
      ],
      "stateMutability": "view",
      "type": "function",
      "constant": true
    },
    {
      "inputs": [],
      "name": "totalSupply",
      "outputs": [
        {
          "internalType": "uint256",
          "name": "",
          "type": "uint256"
        }
      ],
      "stateMutability": "view",
      "type": "function",
      "constant": true
    },
    {
      "inputs": [
        {
          "internalType": "address",
          "name": "from",
          "type": "address"
        },
        {
          "internalType": "address",
          "name": "to",
          "type": "address"
        },
        {
          "internalType": "uint256",
          "name": "tokenId",
          "type": "uint256"
        }
      ],
      "name": "transferFrom",
      "outputs": [],
      "stateMutability": "nonpayable",
      "type": "function"
    },
    {
      "inputs": [
        {
          "internalType": "address",
          "name": "newOwner",
          "type": "address"
        }
      ],
      "name": "transferOwnership",
      "outputs": [],
      "stateMutability": "nonpayable",
      "type": "function"
    },
    {
      "inputs": [],
      "name": "SetPauseSystem",
      "outputs": [],
      "stateMutability": "nonpayable",
      "type": "function"
    },
    {
      "inputs": [],
      "name": "SetEnableSystem",
      "outputs": [],
      "stateMutability": "nonpayable",
      "type": "function"
    },
    {
      "inputs": [
        {
          "internalType": "address",
          "name": "miner",
          "type": "address"
        }
      ],
      "name": "SetEnableMiner",
      "outputs": [],
      "stateMutability": "nonpayable",
      "type": "function"
    },
    {
      "inputs": [
        {
          "internalType": "address",
          "name": "miner",
          "type": "address"
        }
      ],
      "name": "SetDisableMiner",
      "outputs": [],
      "stateMutability": "nonpayable",
      "type": "function"
    },
    {
      "inputs": [
        {
          "internalType": "string",
          "name": "baseURI",
          "type": "string"
        }
      ],
      "name": "SetBaseURI",
      "outputs": [],
      "stateMutability": "nonpayable",
      "type": "function"
    },
    {
      "inputs": [
        {
          "internalType": "address",
          "name": "to",
          "type": "address"
        }
      ],
      "name": "Mint",
      "outputs": [
        {
          "internalType": "uint256",
          "name": "",
          "type": "uint256"
        }
      ],
      "stateMutability": "nonpayable",
      "type": "function"
    },
    {
      "inputs": [
        {
          "internalType": "uint256",
          "name": "tokenId",
          "type": "uint256"
        }
      ],
      "name": "Burn",
      "outputs": [],
      "stateMutability": "nonpayable",
      "type": "function"
    },
    {
      "inputs": [
        {
          "internalType": "uint256",
          "name": "tokenId",
          "type": "uint256"
        }
      ],
      "name": "UpgradeLevel",
      "outputs": [],
      "stateMutability": "nonpayable",
      "type": "function"
    }
  ],
  "bytecode": "0x60806040523480156200001157600080fd5b50604051620026ff380380620026ff8339810160408190526200003491620001a0565b8181600062000044838262000299565b50600162000053828262000299565b505050620000706200006a6200008560201b60201c565b62000089565b5050600a805460ff60a01b1916905562000365565b3390565b600a80546001600160a01b038381166001600160a01b0319831681179093556040519116919082907f8be0079c531659141344cd1fd0a4f28419497f9722a3daafe3b4186f6b6457e090600090a35050565b634e487b7160e01b600052604160045260246000fd5b600082601f8301126200010357600080fd5b81516001600160401b0380821115620001205762000120620000db565b604051601f8301601f19908116603f011681019082821181831017156200014b576200014b620000db565b816040528381526020925086838588010111156200016857600080fd5b600091505b838210156200018c57858201830151818301840152908201906200016d565b600093810190920192909252949350505050565b60008060408385031215620001b457600080fd5b82516001600160401b0380821115620001cc57600080fd5b620001da86838701620000f1565b93506020850151915080821115620001f157600080fd5b506200020085828601620000f1565b9150509250929050565b600181811c908216806200021f57607f821691505b6020821081036200024057634e487b7160e01b600052602260045260246000fd5b50919050565b601f8211156200029457600081815260208120601f850160051c810160208610156200026f5750805b601f850160051c820191505b8181101562000290578281556001016200027b565b5050505b505050565b81516001600160401b03811115620002b557620002b5620000db565b620002cd81620002c684546200020a565b8462000246565b602080601f831160018114620003055760008415620002ec5750858301515b600019600386901b1c1916600185901b17855562000290565b600085815260208120601f198616915b82811015620003365788860151825594840194600190910190840162000315565b5085821015620003555787850151600019600388901b60f8161c191681555b5050505050600190811b01905550565b61238a80620003756000396000f3fe608060405234801561001057600080fd5b50600436106101e55760003560e01c80636352211e1161010f578063b88d4fde116100a2578063e985e9c511610071578063e985e9c51461040d578063ea48462a14610449578063f2fde38b1461045c578063ffcc43c41461046f57600080fd5b8063b88d4fde146103cc578063b90306ad146103df578063c1941636146103f2578063c87b56dd146103fa57600080fd5b806395d89b41116100de57806395d89b411461037b578063a22cb46514610383578063af340e9114610396578063b8433cb1146103b957600080fd5b80636352211e1461033c57806370a082311461034f578063715018a6146103625780638da5cb5b1461036a57600080fd5b80631ce99203116101875780633c3284d1116101565780633c3284d1146102f157806342842e0e146103045780634f6ccce7146103175780635c975abb1461032a57600080fd5b80631ce99203146102b057806323b872dd146102b857806323c8c948146102cb5780632f745c59146102de57600080fd5b8063095ea7b3116101c3578063095ea7b31461025257806311d5c6b51461026757806318160ddd146102955780631ab801da1461029d57600080fd5b806301ffc9a7146101ea57806306fdde0314610212578063081812fc14610227575b600080fd5b6101fd6101f8366004611d46565b610477565b60405190151581526020015b60405180910390f35b61021a6104a2565b6040516102099190611db3565b61023a610235366004611dc6565b610534565b6040516001600160a01b039091168152602001610209565b610265610260366004611df6565b61055b565b005b610287610275366004611dc6565b600e6020526000908152604090205481565b604051908152602001610209565b600854610287565b6102656102ab366004611dc6565b610675565b610265610772565b6102656102c6366004611e20565b610784565b6102656102d9366004611ee8565b6107b5565b6102876102ec366004611df6565b610828565b6102876102ff366004611f31565b6108be565b610265610312366004611e20565b6109b7565b610287610325366004611dc6565b6109d2565b600a54600160a01b900460ff166101fd565b61023a61034a366004611dc6565b610a65565b61028761035d366004611f31565b610ac5565b610265610b4b565b600a546001600160a01b031661023a565b61021a610b5d565b610265610391366004611f4c565b610b6c565b6101fd6103a4366004611f31565b600c6020526000908152604090205460ff1681565b6102656103c7366004611f31565b610b77565b6102656103da366004611f88565b610c18565b6102656103ed366004611dc6565b610c50565b610265610cc8565b61021a610408366004611dc6565b610cd8565b6101fd61041b366004612004565b6001600160a01b03918216600090815260056020908152604080832093909416825291909152205460ff1690565b610265610457366004611f31565b610d3f565b61026561046a366004611f31565b610de1565b61021a610e57565b60006001600160e01b0319821663780e9d6360e01b148061049c575061049c82610ee5565b92915050565b6060600080546104b190612037565b80601f01602080910402602001604051908101604052809291908181526020018280546104dd90612037565b801561052a5780601f106104ff5761010080835404028352916020019161052a565b820191906000526020600020905b81548152906001019060200180831161050d57829003601f168201915b5050505050905090565b600061053f82610f35565b506000908152600460205260409020546001600160a01b031690565b600061056682610a65565b9050806001600160a01b0316836001600160a01b0316036105d85760405162461bcd60e51b815260206004820152602160248201527f4552433732313a20617070726f76616c20746f2063757272656e74206f776e656044820152603960f91b60648201526084015b60405180910390fd5b336001600160a01b03821614806105f457506105f4813361041b565b6106665760405162461bcd60e51b815260206004820152603d60248201527f4552433732313a20617070726f76652063616c6c6572206973206e6f7420746f60448201527f6b656e206f776e6572206f7220617070726f76656420666f7220616c6c00000060648201526084016105cf565b6106708383610f94565b505050565b61067d611002565b336000908152600c602052604090205460ff1615156001146106d65760405162461bcd60e51b8152602060048201526012602482015271115c9c9bdc88155c19dc98591953195d995b60721b60448201526064016105cf565b6000818152600260205260409020546001600160a01b031661074b5760405162461bcd60e51b815260206004820152602860248201527f4572726f7220557067726164654c6576656c3a20546f6b656e20646f6573206e6044820152671bdd08195e1a5cdd60c21b60648201526084016105cf565b6000818152600e6020526040812080546001929061076a908490612087565b909155505050565b61077a61104f565b6107826110a9565b565b61078e33826110fe565b6107aa5760405162461bcd60e51b81526004016105cf9061209a565b61067083838361117d565b6107bd61104f565b60008151116108185760405162461bcd60e51b815260206004820152602160248201527f4572726f7220536574426173655552493a20496e76616c6964206261736555526044820152604960f81b60648201526084016105cf565b600d6108248282612135565b5050565b600061083383610ac5565b82106108955760405162461bcd60e51b815260206004820152602b60248201527f455243373231456e756d657261626c653a206f776e657220696e646578206f7560448201526a74206f6620626f756e647360a81b60648201526084016105cf565b506001600160a01b03919091166000908152600660209081526040808320938352929052205490565b60006108c8611002565b336000908152600c602052604090205460ff16151560011461092c5760405162461bcd60e51b815260206004820152601960248201527f4572726f72204d696e743a20496e76616c6964206d696e65720000000000000060448201526064016105cf565b61093a600b80546001019055565b6000610945600b5490565b905061095183826112ee565b6000818152600e602090815260408083209290925581513381526001600160a01b038616918101919091529081018290527f9ce4cec2c551a95b9c29a42cf2c132d4f738c3817de4668c098bb4ec6c0a5dfb9060600160405180910390a190505b919050565b61067083838360405180602001604052806000815250610c18565b60006109dd60085490565b8210610a405760405162461bcd60e51b815260206004820152602c60248201527f455243373231456e756d657261626c653a20676c6f62616c20696e646578206f60448201526b7574206f6620626f756e647360a01b60648201526084016105cf565b60088281548110610a5357610a536121f5565b90600052602060002001549050919050565b6000818152600260205260408120546001600160a01b03168061049c5760405162461bcd60e51b8152602060048201526018602482015277115490cdcc8c4e881a5b9d985b1a59081d1bdad95b88125160421b60448201526064016105cf565b60006001600160a01b038216610b2f5760405162461bcd60e51b815260206004820152602960248201527f4552433732313a2061646472657373207a65726f206973206e6f7420612076616044820152683634b21037bbb732b960b91b60648201526084016105cf565b506001600160a01b031660009081526003602052604090205490565b610b5361104f565b6107826000611308565b6060600180546104b190612037565b61082433838361135a565b610b7f61104f565b6001600160a01b0381166000908152600c602052604090205460ff1615610bf45760405162461bcd60e51b815260206004820152602360248201527f4572726f7220536574456e61626c654d696e65723a20496e76616c6964206d696044820152623732b960e91b60648201526084016105cf565b6001600160a01b03166000908152600c60205260409020805460ff19166001179055565b610c2233836110fe565b610c3e5760405162461bcd60e51b81526004016105cf9061209a565b610c4a84848484611428565b50505050565b610c58611002565b610c6233826110fe565b610cbc5760405162461bcd60e51b815260206004820152602560248201527f4275726e2063616c6c6572206973206e6f74206f776e6572206e6f74206170706044820152641c9bdd995960da1b60648201526084016105cf565b610cc58161145b565b50565b610cd061104f565b6107826114fe565b6060610ce382610f35565b6000610ced611541565b90506000815111610d0d5760405180602001604052806000815250610d38565b80610d1784611550565b604051602001610d2892919061220b565b6040516020818303038152906040525b9392505050565b610d4761104f565b6001600160a01b0381166000908152600c602052604090205460ff161515600114610dc05760405162461bcd60e51b8152602060048201526024808201527f4572726f722053657444697361626c654d696e65723a20496e76616c6964206d60448201526334b732b960e11b60648201526084016105cf565b6001600160a01b03166000908152600c60205260409020805460ff19169055565b610de961104f565b6001600160a01b038116610e4e5760405162461bcd60e51b815260206004820152602660248201527f4f776e61626c653a206e6577206f776e657220697320746865207a65726f206160448201526564647265737360d01b60648201526084016105cf565b610cc581611308565b600d8054610e6490612037565b80601f0160208091040260200160405190810160405280929190818152602001828054610e9090612037565b8015610edd5780601f10610eb257610100808354040283529160200191610edd565b820191906000526020600020905b815481529060010190602001808311610ec057829003601f168201915b505050505081565b60006001600160e01b031982166380ac58cd60e01b1480610f1657506001600160e01b03198216635b5e139f60e01b145b8061049c57506301ffc9a760e01b6001600160e01b031983161461049c565b6000818152600260205260409020546001600160a01b0316610cc55760405162461bcd60e51b8152602060048201526018602482015277115490cdcc8c4e881a5b9d985b1a59081d1bdad95b88125160421b60448201526064016105cf565b600081815260046020526040902080546001600160a01b0319166001600160a01b0384169081179091558190610fc982610a65565b6001600160a01b03167f8c5be1e5ebec7d5bd14f71427d1e84f3dd0314c0f7b2291e5b200ac8c7c3b92560405160405180910390a45050565b600a54600160a01b900460ff16156107825760405162461bcd60e51b815260206004820152601060248201526f14185d5cd8589b194e881c185d5cd95960821b60448201526064016105cf565b600a546001600160a01b031633146107825760405162461bcd60e51b815260206004820181905260248201527f4f776e61626c653a2063616c6c6572206973206e6f7420746865206f776e657260448201526064016105cf565b6110b16115e3565b600a805460ff60a01b191690557f5db9ee0a495bf2e6ff9c91a7834c1ba4fdd244a5e8aa4e537bd38aeae4b073aa335b6040516001600160a01b03909116815260200160405180910390a1565b60008061110a83610a65565b9050806001600160a01b0316846001600160a01b0316148061115157506001600160a01b0380821660009081526005602090815260408083209388168352929052205460ff165b806111755750836001600160a01b031661116a84610534565b6001600160a01b0316145b949350505050565b826001600160a01b031661119082610a65565b6001600160a01b0316146111b65760405162461bcd60e51b81526004016105cf9061223a565b6001600160a01b0382166112185760405162461bcd60e51b8152602060048201526024808201527f4552433732313a207472616e7366657220746f20746865207a65726f206164646044820152637265737360e01b60648201526084016105cf565b6112258383836001611633565b826001600160a01b031661123882610a65565b6001600160a01b03161461125e5760405162461bcd60e51b81526004016105cf9061223a565b600081815260046020908152604080832080546001600160a01b03199081169091556001600160a01b0387811680865260038552838620805460001901905590871680865283862080546001019055868652600290945282852080549092168417909155905184937fddf252ad1be2c89b69c2b068fc378daa952ba7f163c4a11628f55a4df523b3ef91a4505050565b610824828260405180602001604052806000815250611773565b600a80546001600160a01b038381166001600160a01b0319831681179093556040519116919082907f8be0079c531659141344cd1fd0a4f28419497f9722a3daafe3b4186f6b6457e090600090a35050565b816001600160a01b0316836001600160a01b0316036113bb5760405162461bcd60e51b815260206004820152601960248201527f4552433732313a20617070726f766520746f2063616c6c65720000000000000060448201526064016105cf565b6001600160a01b03838116600081815260056020908152604080832094871680845294825291829020805460ff191686151590811790915591519182527f17307eab39ab6107e8899845ad3d59bd9653f200f220920489ca2b5937696c31910160405180910390a3505050565b61143384848461117d565b61143f848484846117a6565b610c4a5760405162461bcd60e51b81526004016105cf9061227f565b600061146682610a65565b9050611476816000846001611633565b61147f82610a65565b600083815260046020908152604080832080546001600160a01b03199081169091556001600160a01b0385168085526003845282852080546000190190558785526002909352818420805490911690555192935084927fddf252ad1be2c89b69c2b068fc378daa952ba7f163c4a11628f55a4df523b3ef908390a45050565b611506611002565b600a805460ff60a01b1916600160a01b1790557f62e78cea01bee320cd4e420270b5ea74000d11b0c9f74754ebdbfc544b05a2586110e13390565b6060600d80546104b190612037565b6060600061155d836118a7565b600101905060008167ffffffffffffffff81111561157d5761157d611e5c565b6040519080825280601f01601f1916602001820160405280156115a7576020820181803683370190505b5090508181016020015b600019016f181899199a1a9b1b9c1cb0b131b232b360811b600a86061a8153600a85049450846115b157509392505050565b600a54600160a01b900460ff166107825760405162461bcd60e51b815260206004820152601460248201527314185d5cd8589b194e881b9bdd081c185d5cd95960621b60448201526064016105cf565b61163f8484848461197f565b60018111156116ae5760405162461bcd60e51b815260206004820152603560248201527f455243373231456e756d657261626c653a20636f6e7365637574697665207472604482015274185b9cd9995c9cc81b9bdd081cdd5c1c1bdc9d1959605a1b60648201526084016105cf565b816001600160a01b03851661170a5761170581600880546000838152600960205260408120829055600182018355919091527ff3f7a9fe364faab93b216da50a3214154f22a0a2b415b23a84c8169e8b636ee30155565b61172d565b836001600160a01b0316856001600160a01b03161461172d5761172d8582611a07565b6001600160a01b0384166117495761174481611aa4565b61176c565b846001600160a01b0316846001600160a01b03161461176c5761176c8482611b53565b5050505050565b61177d8383611b97565b61178a60008484846117a6565b6106705760405162461bcd60e51b81526004016105cf9061227f565b60006001600160a01b0384163b1561189c57604051630a85bd0160e11b81526001600160a01b0385169063150b7a02906117ea9033908990889088906004016122d1565b6020604051808303816000875af1925050508015611825575060408051601f3d908101601f191682019092526118229181019061230e565b60015b611882573d808015611853576040519150601f19603f3d011682016040523d82523d6000602084013e611858565b606091505b50805160000361187a5760405162461bcd60e51b81526004016105cf9061227f565b805181602001fd5b6001600160e01b031916630a85bd0160e11b149050611175565b506001949350505050565b60008072184f03e93ff9f4daa797ed6e38ed64bf6a1f0160401b83106118e65772184f03e93ff9f4daa797ed6e38ed64bf6a1f0160401b830492506040015b6d04ee2d6d415b85acef81000000008310611912576d04ee2d6d415b85acef8100000000830492506020015b662386f26fc10000831061193057662386f26fc10000830492506010015b6305f5e1008310611948576305f5e100830492506008015b612710831061195c57612710830492506004015b6064831061196e576064830492506002015b600a831061049c5760010192915050565b6001811115610c4a576001600160a01b038416156119c5576001600160a01b038416600090815260036020526040812080548392906119bf90849061232b565b90915550505b6001600160a01b03831615610c4a576001600160a01b038316600090815260036020526040812080548392906119fc908490612087565b909155505050505050565b60006001611a1484610ac5565b611a1e919061232b565b600083815260076020526040902054909150808214611a71576001600160a01b03841660009081526006602090815260408083208584528252808320548484528184208190558352600790915290208190555b5060009182526007602090815260408084208490556001600160a01b039094168352600681528383209183525290812055565b600854600090611ab69060019061232b565b60008381526009602052604081205460088054939450909284908110611ade57611ade6121f5565b906000526020600020015490508060088381548110611aff57611aff6121f5565b6000918252602080832090910192909255828152600990915260408082208490558582528120556008805480611b3757611b3761233e565b6001900381819060005260206000200160009055905550505050565b6000611b5e83610ac5565b6001600160a01b039093166000908152600660209081526040808320868452825280832085905593825260079052919091209190915550565b6001600160a01b038216611bed5760405162461bcd60e51b815260206004820181905260248201527f4552433732313a206d696e7420746f20746865207a65726f206164647265737360448201526064016105cf565b6000818152600260205260409020546001600160a01b031615611c525760405162461bcd60e51b815260206004820152601c60248201527f4552433732313a20746f6b656e20616c7265616479206d696e7465640000000060448201526064016105cf565b611c60600083836001611633565b6000818152600260205260409020546001600160a01b031615611cc55760405162461bcd60e51b815260206004820152601c60248201527f4552433732313a20746f6b656e20616c7265616479206d696e7465640000000060448201526064016105cf565b6001600160a01b038216600081815260036020908152604080832080546001019055848352600290915280822080546001600160a01b0319168417905551839291907fddf252ad1be2c89b69c2b068fc378daa952ba7f163c4a11628f55a4df523b3ef908290a45050565b6001600160e01b031981168114610cc557600080fd5b600060208284031215611d5857600080fd5b8135610d3881611d30565b60005b83811015611d7e578181015183820152602001611d66565b50506000910152565b60008151808452611d9f816020860160208601611d63565b601f01601f19169290920160200192915050565b602081526000610d386020830184611d87565b600060208284031215611dd857600080fd5b5035919050565b80356001600160a01b03811681146109b257600080fd5b60008060408385031215611e0957600080fd5b611e1283611ddf565b946020939093013593505050565b600080600060608486031215611e3557600080fd5b611e3e84611ddf565b9250611e4c60208501611ddf565b9150604084013590509250925092565b634e487b7160e01b600052604160045260246000fd5b600067ffffffffffffffff80841115611e8d57611e8d611e5c565b604051601f8501601f19908116603f01168101908282118183101715611eb557611eb5611e5c565b81604052809350858152868686011115611ece57600080fd5b858560208301376000602087830101525050509392505050565b600060208284031215611efa57600080fd5b813567ffffffffffffffff811115611f1157600080fd5b8201601f81018413611f2257600080fd5b61117584823560208401611e72565b600060208284031215611f4357600080fd5b610d3882611ddf565b60008060408385031215611f5f57600080fd5b611f6883611ddf565b915060208301358015158114611f7d57600080fd5b809150509250929050565b60008060008060808587031215611f9e57600080fd5b611fa785611ddf565b9350611fb560208601611ddf565b925060408501359150606085013567ffffffffffffffff811115611fd857600080fd5b8501601f81018713611fe957600080fd5b611ff887823560208401611e72565b91505092959194509250565b6000806040838503121561201757600080fd5b61202083611ddf565b915061202e60208401611ddf565b90509250929050565b600181811c9082168061204b57607f821691505b60208210810361206b57634e487b7160e01b600052602260045260246000fd5b50919050565b634e487b7160e01b600052601160045260246000fd5b8082018082111561049c5761049c612071565b6020808252602d908201527f4552433732313a2063616c6c6572206973206e6f7420746f6b656e206f776e6560408201526c1c881bdc88185c1c1c9bdd9959609a1b606082015260800190565b601f82111561067057600081815260208120601f850160051c8101602086101561210e5750805b601f850160051c820191505b8181101561212d5782815560010161211a565b505050505050565b815167ffffffffffffffff81111561214f5761214f611e5c565b6121638161215d8454612037565b846120e7565b602080601f83116001811461219857600084156121805750858301515b600019600386901b1c1916600185901b17855561212d565b600085815260208120601f198616915b828110156121c7578886015182559484019460019091019084016121a8565b50858210156121e55787850151600019600388901b60f8161c191681555b5050505050600190811b01905550565b634e487b7160e01b600052603260045260246000fd5b6000835161221d818460208801611d63565b835190830190612231818360208801611d63565b01949350505050565b60208082526025908201527f4552433732313a207472616e736665722066726f6d20696e636f72726563742060408201526437bbb732b960d91b606082015260800190565b60208082526032908201527f4552433732313a207472616e7366657220746f206e6f6e20455243373231526560408201527131b2b4bb32b91034b6b83632b6b2b73a32b960711b606082015260800190565b6001600160a01b038581168252841660208201526040810183905260806060820181905260009061230490830184611d87565b9695505050505050565b60006020828403121561232057600080fd5b8151610d3881611d30565b8181038181111561049c5761049c612071565b634e487b7160e01b600052603160045260246000fdfea2646970667358221220a8cf28864623c0643d5e1c457bdc39033c9164e6faa08c7c067882f63f85459364736f6c63430008110033",
  "immutableReferences": {},
  "source": "// SPDX-License-Identifier: MIT\npragma solidity ^0.8.0;\n\nimport \"@openzeppelin/contracts/utils/math/SafeMath.sol\";\nimport \"@openzeppelin/contracts/utils/Counters.sol\";\nimport \"@openzeppelin/contracts/access/Ownable.sol\";\nimport \"@openzeppelin/contracts/security/Pausable.sol\";\nimport \"@openzeppelin/contracts/token/ERC721/extensions/ERC721Enumerable.sol\";\n\n// NFT\ncontract Robot is ERC721Enumerable, Ownable, Pausable\n{\n    using Counters for Counters.Counter;\n    Counters.Counter private TokenId;\n\n    mapping(address => bool) public Miner;\n\n    string public BaseURI;\n\n    event OnMintNFT(address from, address to, uint256 tokenId);\n\n    mapping(uint256 => uint256) public Level;\n\n    constructor(\n        string memory tokenName, string memory tokenSymbol\n        ) ERC721 (tokenName, tokenSymbol) {}\n\n    function SetPauseSystem() public onlyOwner \n    {\n        _pause();\n    }\n\n    function SetEnableSystem() public onlyOwner\n    {\n        _unpause();\n    }\n\n    function SetEnableMiner(address miner) public onlyOwner \n    {\n        require(Miner[miner] == false, \"Error SetEnableMiner: Invalid miner\");\n        Miner[miner] = true;\n    }\n\n    function SetDisableMiner(address miner) public onlyOwner\n    {\n        require(Miner[miner] == true, \"Error SetDisableMiner: Invalid miner\");\n        Miner[miner] = false;\n    }\n\n    function SetBaseURI(string memory baseURI) public onlyOwner \n    {\n        require(bytes(baseURI).length > 0, \"Error SetBaseURI: Invalid baseURI\");\n        BaseURI = baseURI;\n    }\n\n    function Mint(address to) public whenNotPaused returns(uint256)\n    {\n        require(Miner[msg.sender] == true, \"Error Mint: Invalid miner\");\n        TokenId.increment();\n        uint256 newTokenId = TokenId.current();\n        _safeMint(to, newTokenId);\n        Level[newTokenId] = 0;\n\n        emit OnMintNFT(msg.sender, to, newTokenId);\n\n        return newTokenId;\n    }\n\n    function Burn(uint256 tokenId) public whenNotPaused virtual\n    {\n        require(_isApprovedOrOwner(msg.sender, tokenId), \"Burn caller is not owner not approved\");\n        _burn(tokenId);\n    }\n\n    function UpgradeLevel(uint256 tokenId) public whenNotPaused\n    {\n        require(Miner[msg.sender] == true, \"Error UpgradeLevel\");\n        require(_exists(tokenId), \"Error UpgradeLevel: Token does not exist\");\n        Level[tokenId] += 1;\n    }\n\n    function _baseURI() internal view override returns(string memory)\n    {\n        return BaseURI;\n    }\n\n}",
  "sourcePath": "/Applications/projects/pixil-saga-contracts/contracts/Robot.sol",
  "compiler": {
    "name": "solc",
    "version": "0.8.17+commit.8df45f5f.Emscripten.clang"
  },
  "schemaVersion": "3.4.11",
  "updatedAt": "2023-04-27T04:53:00.923Z",
  "networkType": "ethereum",
  "devdoc": {
    "kind": "dev",
    "methods": {
      "approve(address,uint256)": {
        "details": "See {IERC721-approve}."
      },
      "balanceOf(address)": {
        "details": "See {IERC721-balanceOf}."
      },
      "getApproved(uint256)": {
        "details": "See {IERC721-getApproved}."
      },
      "isApprovedForAll(address,address)": {
        "details": "See {IERC721-isApprovedForAll}."
      },
      "name()": {
        "details": "See {IERC721Metadata-name}."
      },
      "owner()": {
        "details": "Returns the address of the current owner."
      },
      "ownerOf(uint256)": {
        "details": "See {IERC721-ownerOf}."
      },
      "paused()": {
        "details": "Returns true if the contract is paused, and false otherwise."
      },
      "renounceOwnership()": {
        "details": "Leaves the contract without owner. It will not be possible to call `onlyOwner` functions anymore. Can only be called by the current owner. NOTE: Renouncing ownership will leave the contract without an owner, thereby removing any functionality that is only available to the owner."
      },
      "safeTransferFrom(address,address,uint256)": {
        "details": "See {IERC721-safeTransferFrom}."
      },
      "safeTransferFrom(address,address,uint256,bytes)": {
        "details": "See {IERC721-safeTransferFrom}."
      },
      "setApprovalForAll(address,bool)": {
        "details": "See {IERC721-setApprovalForAll}."
      },
      "supportsInterface(bytes4)": {
        "details": "See {IERC165-supportsInterface}."
      },
      "symbol()": {
        "details": "See {IERC721Metadata-symbol}."
      },
      "tokenByIndex(uint256)": {
        "details": "See {IERC721Enumerable-tokenByIndex}."
      },
      "tokenOfOwnerByIndex(address,uint256)": {
        "details": "See {IERC721Enumerable-tokenOfOwnerByIndex}."
      },
      "tokenURI(uint256)": {
        "details": "See {IERC721Metadata-tokenURI}."
      },
      "totalSupply()": {
        "details": "See {IERC721Enumerable-totalSupply}."
      },
      "transferFrom(address,address,uint256)": {
        "details": "See {IERC721-transferFrom}."
      },
      "transferOwnership(address)": {
        "details": "Transfers ownership of the contract to a new account (`newOwner`). Can only be called by the current owner."
      }
    },
    "version": 1
  },
  "userdoc": {
    "kind": "user",
    "methods": {},
    "version": 1
  }
}