{
  "contractName": "Robot",
  "abi": [
    {
      "inputs": [
        {
          "internalType": "string",
          "name": "tokenName",
          "type": "string"
        },
        {
          "internalType": "string",
          "name": "tokenSymbol",
          "type": "string"
        }
      ],
      "stateMutability": "nonpayable",
      "type": "constructor"
    },
    {
      "anonymous": false,
      "inputs": [
        {
          "indexed": true,
          "internalType": "address",
          "name": "owner",
          "type": "address"
        },
        {
          "indexed": true,
          "internalType": "address",
          "name": "approved",
          "type": "address"
        },
        {
          "indexed": true,
          "internalType": "uint256",
          "name": "tokenId",
          "type": "uint256"
        }
      ],
      "name": "Approval",
      "type": "event"
    },
    {
      "anonymous": false,
      "inputs": [
        {
          "indexed": true,
          "internalType": "address",
          "name": "owner",
          "type": "address"
        },
        {
          "indexed": true,
          "internalType": "address",
          "name": "operator",
          "type": "address"
        },
        {
          "indexed": false,
          "internalType": "bool",
          "name": "approved",
          "type": "bool"
        }
      ],
      "name": "ApprovalForAll",
      "type": "event"
    },
    {
      "anonymous": false,
      "inputs": [
        {
          "indexed": false,
          "internalType": "address",
          "name": "from",
          "type": "address"
        },
        {
          "indexed": false,
          "internalType": "address",
          "name": "to",
          "type": "address"
        },
        {
          "indexed": false,
          "internalType": "uint256",
          "name": "tokenId",
          "type": "uint256"
        }
      ],
      "name": "OnMintNFT",
      "type": "event"
    },
    {
      "anonymous": false,
      "inputs": [
        {
          "indexed": false,
          "internalType": "uint256",
          "name": "tokenId",
          "type": "uint256"
        },
        {
          "indexed": false,
          "internalType": "uint256",
          "name": "newLevel",
          "type": "uint256"
        }
      ],
      "name": "OnUpgradeLevelRobot",
      "type": "event"
    },
    {
      "anonymous": false,
      "inputs": [
        {
          "indexed": true,
          "internalType": "address",
          "name": "previousOwner",
          "type": "address"
        },
        {
          "indexed": true,
          "internalType": "address",
          "name": "newOwner",
          "type": "address"
        }
      ],
      "name": "OwnershipTransferred",
      "type": "event"
    },
    {
      "anonymous": false,
      "inputs": [
        {
          "indexed": false,
          "internalType": "address",
          "name": "account",
          "type": "address"
        }
      ],
      "name": "Paused",
      "type": "event"
    },
    {
      "anonymous": false,
      "inputs": [
        {
          "indexed": true,
          "internalType": "address",
          "name": "from",
          "type": "address"
        },
        {
          "indexed": true,
          "internalType": "address",
          "name": "to",
          "type": "address"
        },
        {
          "indexed": true,
          "internalType": "uint256",
          "name": "tokenId",
          "type": "uint256"
        }
      ],
      "name": "Transfer",
      "type": "event"
    },
    {
      "anonymous": false,
      "inputs": [
        {
          "indexed": false,
          "internalType": "address",
          "name": "account",
          "type": "address"
        }
      ],
      "name": "Unpaused",
      "type": "event"
    },
    {
      "inputs": [],
      "name": "BaseURI",
      "outputs": [
        {
          "internalType": "string",
          "name": "",
          "type": "string"
        }
      ],
      "stateMutability": "view",
      "type": "function",
      "constant": true
    },
    {
      "inputs": [
        {
          "internalType": "uint256",
          "name": "",
          "type": "uint256"
        }
      ],
      "name": "Level",
      "outputs": [
        {
          "internalType": "uint256",
          "name": "",
          "type": "uint256"
        }
      ],
      "stateMutability": "view",
      "type": "function",
      "constant": true
    },
    {
      "inputs": [
        {
          "internalType": "address",
          "name": "",
          "type": "address"
        }
      ],
      "name": "Operator",
      "outputs": [
        {
          "internalType": "bool",
          "name": "",
          "type": "bool"
        }
      ],
      "stateMutability": "view",
      "type": "function",
      "constant": true
    },
    {
      "inputs": [
        {
          "internalType": "address",
          "name": "to",
          "type": "address"
        },
        {
          "internalType": "uint256",
          "name": "tokenId",
          "type": "uint256"
        }
      ],
      "name": "approve",
      "outputs": [],
      "stateMutability": "nonpayable",
      "type": "function"
    },
    {
      "inputs": [
        {
          "internalType": "address",
          "name": "owner",
          "type": "address"
        }
      ],
      "name": "balanceOf",
      "outputs": [
        {
          "internalType": "uint256",
          "name": "",
          "type": "uint256"
        }
      ],
      "stateMutability": "view",
      "type": "function",
      "constant": true
    },
    {
      "inputs": [
        {
          "internalType": "uint256",
          "name": "tokenId",
          "type": "uint256"
        }
      ],
      "name": "getApproved",
      "outputs": [
        {
          "internalType": "address",
          "name": "",
          "type": "address"
        }
      ],
      "stateMutability": "view",
      "type": "function",
      "constant": true
    },
    {
      "inputs": [
        {
          "internalType": "address",
          "name": "owner",
          "type": "address"
        },
        {
          "internalType": "address",
          "name": "operator",
          "type": "address"
        }
      ],
      "name": "isApprovedForAll",
      "outputs": [
        {
          "internalType": "bool",
          "name": "",
          "type": "bool"
        }
      ],
      "stateMutability": "view",
      "type": "function",
      "constant": true
    },
    {
      "inputs": [],
      "name": "name",
      "outputs": [
        {
          "internalType": "string",
          "name": "",
          "type": "string"
        }
      ],
      "stateMutability": "view",
      "type": "function",
      "constant": true
    },
    {
      "inputs": [],
      "name": "owner",
      "outputs": [
        {
          "internalType": "address",
          "name": "",
          "type": "address"
        }
      ],
      "stateMutability": "view",
      "type": "function",
      "constant": true
    },
    {
      "inputs": [
        {
          "internalType": "uint256",
          "name": "tokenId",
          "type": "uint256"
        }
      ],
      "name": "ownerOf",
      "outputs": [
        {
          "internalType": "address",
          "name": "",
          "type": "address"
        }
      ],
      "stateMutability": "view",
      "type": "function",
      "constant": true
    },
    {
      "inputs": [],
      "name": "paused",
      "outputs": [
        {
          "internalType": "bool",
          "name": "",
          "type": "bool"
        }
      ],
      "stateMutability": "view",
      "type": "function",
      "constant": true
    },
    {
      "inputs": [],
      "name": "renounceOwnership",
      "outputs": [],
      "stateMutability": "nonpayable",
      "type": "function"
    },
    {
      "inputs": [
        {
          "internalType": "address",
          "name": "from",
          "type": "address"
        },
        {
          "internalType": "address",
          "name": "to",
          "type": "address"
        },
        {
          "internalType": "uint256",
          "name": "tokenId",
          "type": "uint256"
        }
      ],
      "name": "safeTransferFrom",
      "outputs": [],
      "stateMutability": "nonpayable",
      "type": "function"
    },
    {
      "inputs": [
        {
          "internalType": "address",
          "name": "from",
          "type": "address"
        },
        {
          "internalType": "address",
          "name": "to",
          "type": "address"
        },
        {
          "internalType": "uint256",
          "name": "tokenId",
          "type": "uint256"
        },
        {
          "internalType": "bytes",
          "name": "data",
          "type": "bytes"
        }
      ],
      "name": "safeTransferFrom",
      "outputs": [],
      "stateMutability": "nonpayable",
      "type": "function"
    },
    {
      "inputs": [
        {
          "internalType": "address",
          "name": "operator",
          "type": "address"
        },
        {
          "internalType": "bool",
          "name": "approved",
          "type": "bool"
        }
      ],
      "name": "setApprovalForAll",
      "outputs": [],
      "stateMutability": "nonpayable",
      "type": "function"
    },
    {
      "inputs": [
        {
          "internalType": "bytes4",
          "name": "interfaceId",
          "type": "bytes4"
        }
      ],
      "name": "supportsInterface",
      "outputs": [
        {
          "internalType": "bool",
          "name": "",
          "type": "bool"
        }
      ],
      "stateMutability": "view",
      "type": "function",
      "constant": true
    },
    {
      "inputs": [],
      "name": "symbol",
      "outputs": [
        {
          "internalType": "string",
          "name": "",
          "type": "string"
        }
      ],
      "stateMutability": "view",
      "type": "function",
      "constant": true
    },
    {
      "inputs": [
        {
          "internalType": "uint256",
          "name": "index",
          "type": "uint256"
        }
      ],
      "name": "tokenByIndex",
      "outputs": [
        {
          "internalType": "uint256",
          "name": "",
          "type": "uint256"
        }
      ],
      "stateMutability": "view",
      "type": "function",
      "constant": true
    },
    {
      "inputs": [
        {
          "internalType": "address",
          "name": "owner",
          "type": "address"
        },
        {
          "internalType": "uint256",
          "name": "index",
          "type": "uint256"
        }
      ],
      "name": "tokenOfOwnerByIndex",
      "outputs": [
        {
          "internalType": "uint256",
          "name": "",
          "type": "uint256"
        }
      ],
      "stateMutability": "view",
      "type": "function",
      "constant": true
    },
    {
      "inputs": [
        {
          "internalType": "uint256",
          "name": "tokenId",
          "type": "uint256"
        }
      ],
      "name": "tokenURI",
      "outputs": [
        {
          "internalType": "string",
          "name": "",
          "type": "string"
        }
      ],
      "stateMutability": "view",
      "type": "function",
      "constant": true
    },
    {
      "inputs": [],
      "name": "totalSupply",
      "outputs": [
        {
          "internalType": "uint256",
          "name": "",
          "type": "uint256"
        }
      ],
      "stateMutability": "view",
      "type": "function",
      "constant": true
    },
    {
      "inputs": [
        {
          "internalType": "address",
          "name": "from",
          "type": "address"
        },
        {
          "internalType": "address",
          "name": "to",
          "type": "address"
        },
        {
          "internalType": "uint256",
          "name": "tokenId",
          "type": "uint256"
        }
      ],
      "name": "transferFrom",
      "outputs": [],
      "stateMutability": "nonpayable",
      "type": "function"
    },
    {
      "inputs": [
        {
          "internalType": "address",
          "name": "newOwner",
          "type": "address"
        }
      ],
      "name": "transferOwnership",
      "outputs": [],
      "stateMutability": "nonpayable",
      "type": "function"
    },
    {
      "inputs": [],
      "name": "SetPauseSystem",
      "outputs": [],
      "stateMutability": "nonpayable",
      "type": "function"
    },
    {
      "inputs": [],
      "name": "SetEnableSystem",
      "outputs": [],
      "stateMutability": "nonpayable",
      "type": "function"
    },
    {
      "inputs": [
        {
          "internalType": "address",
          "name": "addressOperator",
          "type": "address"
        }
      ],
      "name": "SetEnableOperator",
      "outputs": [],
      "stateMutability": "nonpayable",
      "type": "function"
    },
    {
      "inputs": [
        {
          "internalType": "address",
          "name": "addressOperator",
          "type": "address"
        }
      ],
      "name": "SetDisableOperator",
      "outputs": [],
      "stateMutability": "nonpayable",
      "type": "function"
    },
    {
      "inputs": [
        {
          "internalType": "string",
          "name": "baseURI",
          "type": "string"
        }
      ],
      "name": "SetBaseURI",
      "outputs": [],
      "stateMutability": "nonpayable",
      "type": "function"
    },
    {
      "inputs": [
        {
          "internalType": "address",
          "name": "to",
          "type": "address"
        }
      ],
      "name": "Mint",
      "outputs": [
        {
          "internalType": "uint256",
          "name": "",
          "type": "uint256"
        }
      ],
      "stateMutability": "nonpayable",
      "type": "function"
    },
    {
      "inputs": [
        {
          "internalType": "uint256",
          "name": "tokenId",
          "type": "uint256"
        }
      ],
      "name": "Burn",
      "outputs": [],
      "stateMutability": "nonpayable",
      "type": "function"
    },
    {
      "inputs": [
        {
          "internalType": "uint256",
          "name": "tokenId",
          "type": "uint256"
        }
      ],
      "name": "UpgradeLevel",
      "outputs": [],
      "stateMutability": "nonpayable",
      "type": "function"
    },
    {
      "inputs": [
        {
          "internalType": "uint256",
          "name": "tokenId",
          "type": "uint256"
        },
        {
          "internalType": "uint256",
          "name": "level",
          "type": "uint256"
        }
      ],
      "name": "SetLevelRobot",
      "outputs": [],
      "stateMutability": "nonpayable",
      "type": "function"
    }
  ],
  "bytecode": "0x60806040523480156200001157600080fd5b506040516200280a3803806200280a8339810160408190526200003491620001a0565b8181600062000044838262000299565b50600162000053828262000299565b505050620000706200006a6200008560201b60201c565b62000089565b5050600a805460ff60a01b1916905562000365565b3390565b600a80546001600160a01b038381166001600160a01b0319831681179093556040519116919082907f8be0079c531659141344cd1fd0a4f28419497f9722a3daafe3b4186f6b6457e090600090a35050565b634e487b7160e01b600052604160045260246000fd5b600082601f8301126200010357600080fd5b81516001600160401b0380821115620001205762000120620000db565b604051601f8301601f19908116603f011681019082821181831017156200014b576200014b620000db565b816040528381526020925086838588010111156200016857600080fd5b600091505b838210156200018c57858201830151818301840152908201906200016d565b600093810190920192909252949350505050565b60008060408385031215620001b457600080fd5b82516001600160401b0380821115620001cc57600080fd5b620001da86838701620000f1565b93506020850151915080821115620001f157600080fd5b506200020085828601620000f1565b9150509250929050565b600181811c908216806200021f57607f821691505b6020821081036200024057634e487b7160e01b600052602260045260246000fd5b50919050565b601f8211156200029457600081815260208120601f850160051c810160208610156200026f5750805b601f850160051c820191505b8181101562000290578281556001016200027b565b5050505b505050565b81516001600160401b03811115620002b557620002b5620000db565b620002cd81620002c684546200020a565b8462000246565b602080601f831160018114620003055760008415620002ec5750858301515b600019600386901b1c1916600185901b17855562000290565b600085815260208120601f198616915b82811015620003365788860151825594840194600190910190840162000315565b5085821015620003555787850151600019600388901b60f8161c191681555b5050505050600190811b01905550565b61249580620003756000396000f3fe608060405234801561001057600080fd5b50600436106101f05760003560e01c80635c975abb1161010f578063b88d4fde116100a2578063e985e9c511610071578063e985e9c51461042b578063f2fde38b14610467578063f614c70e1461047a578063ffcc43c41461048d57600080fd5b8063b88d4fde146103ea578063b90306ad146103fd578063c194163614610410578063c87b56dd1461041857600080fd5b80637e7aad37116100de5780637e7aad37146103ab5780638da5cb5b146103be57806395d89b41146103cf578063a22cb465146103d757600080fd5b80635c975abb1461036b5780636352211e1461037d57806370a0823114610390578063715018a6146103a357600080fd5b80631ce99203116101875780632f745c59116101565780632f745c591461031f5780633c3284d11461033257806342842e0e146103455780634f6ccce71461035857600080fd5b80631ce99203146102ce57806323b872dd146102d657806323c8c948146102e95780632902d662146102fc57600080fd5b8063095ea7b3116101c3578063095ea7b31461027257806311d5c6b51461028557806318160ddd146102b35780631ab801da146102bb57600080fd5b806301ffc9a7146101f5578063047d5f431461021d57806306fdde0314610232578063081812fc14610247575b600080fd5b610208610203366004611d9e565b610495565b60405190151581526020015b60405180910390f35b61023061022b366004611dd2565b6104c0565b005b61023a61052f565b6040516102149190611e3d565b61025a610255366004611e50565b6105c1565b6040516001600160a01b039091168152602001610214565b610230610280366004611e69565b6105e8565b6102a5610293366004611e50565b600e6020526000908152604090205481565b604051908152602001610214565b6008546102a5565b6102306102c9366004611e50565b6106fd565b610230610800565b6102306102e4366004611e93565b610812565b6102306102f7366004611f5b565b610843565b61020861030a366004611dd2565b600c6020526000908152604090205460ff1681565b6102a561032d366004611e69565b6108b6565b6102a5610340366004611dd2565b61094c565b610230610353366004611e93565b610a45565b6102a5610366366004611e50565b610a60565b600a54600160a01b900460ff16610208565b61025a61038b366004611e50565b610af3565b6102a561039e366004611dd2565b610b53565b610230610bd9565b6102306103b9366004611fa4565b610beb565b600a546001600160a01b031661025a565b61023a610c93565b6102306103e5366004611fc6565b610ca2565b6102306103f8366004612002565b610cad565b61023061040b366004611e50565b610ce5565b610230610d5d565b61023a610426366004611e50565b610d6d565b61020861043936600461207e565b6001600160a01b03918216600090815260056020908152604080832093909416825291909152205460ff1690565b610230610475366004611dd2565b610dd4565b610230610488366004611dd2565b610e4a565b61023a610eaf565b60006001600160e01b0319821663780e9d6360e01b14806104ba57506104ba82610f3d565b92915050565b6104c8610f8d565b6001600160a01b0381166000908152600c602052604090205460ff16151560011461050e5760405162461bcd60e51b8152600401610505906120b1565b60405180910390fd5b6001600160a01b03166000908152600c60205260409020805460ff19169055565b60606000805461053e906120fa565b80601f016020809104026020016040519081016040528092919081815260200182805461056a906120fa565b80156105b75780601f1061058c576101008083540402835291602001916105b7565b820191906000526020600020905b81548152906001019060200180831161059a57829003601f168201915b5050505050905090565b60006105cc82610fe7565b506000908152600460205260409020546001600160a01b031690565b60006105f382610af3565b9050806001600160a01b0316836001600160a01b0316036106605760405162461bcd60e51b815260206004820152602160248201527f4552433732313a20617070726f76616c20746f2063757272656e74206f776e656044820152603960f91b6064820152608401610505565b336001600160a01b038216148061067c575061067c8133610439565b6106ee5760405162461bcd60e51b815260206004820152603d60248201527f4552433732313a20617070726f76652063616c6c6572206973206e6f7420746f60448201527f6b656e206f776e6572206f7220617070726f76656420666f7220616c6c0000006064820152608401610505565b6106f88383611046565b505050565b6107056110b4565b336000908152600c602052604090205460ff16151560011461075e5760405162461bcd60e51b8152602060048201526012602482015271115c9c9bdc88155c19dc98591953195d995b60721b6044820152606401610505565b6000818152600260205260409020546001600160a01b03166107925760405162461bcd60e51b815260040161050590612134565b6000818152600e602052604081208054600192906107b1908490612192565b90915550506000818152600e6020908152604091829020548251848152918201527f7187bd5ec362a3c007e0c2c9c7482650a3ac130c3f71b42b4e0650a257ea3cf6910160405180910390a150565b610808610f8d565b610810611101565b565b61081c3382611156565b6108385760405162461bcd60e51b8152600401610505906121a5565b6106f88383836111d5565b61084b610f8d565b60008151116108a65760405162461bcd60e51b815260206004820152602160248201527f4572726f7220536574426173655552493a20496e76616c6964206261736555526044820152604960f81b6064820152608401610505565b600d6108b28282612240565b5050565b60006108c183610b53565b82106109235760405162461bcd60e51b815260206004820152602b60248201527f455243373231456e756d657261626c653a206f776e657220696e646578206f7560448201526a74206f6620626f756e647360a81b6064820152608401610505565b506001600160a01b03919091166000908152600660209081526040808320938352929052205490565b60006109566110b4565b336000908152600c602052604090205460ff1615156001146109ba5760405162461bcd60e51b815260206004820152601960248201527f4572726f72204d696e743a20496e76616c6964206d696e6572000000000000006044820152606401610505565b6109c8600b80546001019055565b60006109d3600b5490565b90506109df8382611346565b6000818152600e602090815260408083209290925581513381526001600160a01b038616918101919091529081018290527f9ce4cec2c551a95b9c29a42cf2c132d4f738c3817de4668c098bb4ec6c0a5dfb9060600160405180910390a190505b919050565b6106f883838360405180602001604052806000815250610cad565b6000610a6b60085490565b8210610ace5760405162461bcd60e51b815260206004820152602c60248201527f455243373231456e756d657261626c653a20676c6f62616c20696e646578206f60448201526b7574206f6620626f756e647360a01b6064820152608401610505565b60088281548110610ae157610ae1612300565b90600052602060002001549050919050565b6000818152600260205260408120546001600160a01b0316806104ba5760405162461bcd60e51b8152602060048201526018602482015277115490cdcc8c4e881a5b9d985b1a59081d1bdad95b88125160421b6044820152606401610505565b60006001600160a01b038216610bbd5760405162461bcd60e51b815260206004820152602960248201527f4552433732313a2061646472657373207a65726f206973206e6f7420612076616044820152683634b21037bbb732b960b91b6064820152608401610505565b506001600160a01b031660009081526003602052604090205490565b610be1610f8d565b6108106000611360565b610bf36110b4565b336000908152600c602052604090205460ff161515600114610c4d5760405162461bcd60e51b8152602060048201526013602482015272115c9c9bdc8814d95d13195d995b149bd89bdd606a1b6044820152606401610505565b6000828152600260205260409020546001600160a01b0316610c815760405162461bcd60e51b815260040161050590612134565b6000918252600e602052604090912055565b60606001805461053e906120fa565b6108b23383836113b2565b610cb73383611156565b610cd35760405162461bcd60e51b8152600401610505906121a5565b610cdf84848484611480565b50505050565b610ced6110b4565b610cf73382611156565b610d515760405162461bcd60e51b815260206004820152602560248201527f4275726e2063616c6c6572206973206e6f74206f776e6572206e6f74206170706044820152641c9bdd995960da1b6064820152608401610505565b610d5a816114b3565b50565b610d65610f8d565b610810611556565b6060610d7882610fe7565b6000610d82611599565b90506000815111610da25760405180602001604052806000815250610dcd565b80610dac846115a8565b604051602001610dbd929190612316565b6040516020818303038152906040525b9392505050565b610ddc610f8d565b6001600160a01b038116610e415760405162461bcd60e51b815260206004820152602660248201527f4f776e61626c653a206e6577206f776e657220697320746865207a65726f206160448201526564647265737360d01b6064820152608401610505565b610d5a81611360565b610e52610f8d565b6001600160a01b0381166000908152600c602052604090205460ff1615610e8b5760405162461bcd60e51b8152600401610505906120b1565b6001600160a01b03166000908152600c60205260409020805460ff19166001179055565b600d8054610ebc906120fa565b80601f0160208091040260200160405190810160405280929190818152602001828054610ee8906120fa565b8015610f355780601f10610f0a57610100808354040283529160200191610f35565b820191906000526020600020905b815481529060010190602001808311610f1857829003601f168201915b505050505081565b60006001600160e01b031982166380ac58cd60e01b1480610f6e57506001600160e01b03198216635b5e139f60e01b145b806104ba57506301ffc9a760e01b6001600160e01b03198316146104ba565b600a546001600160a01b031633146108105760405162461bcd60e51b815260206004820181905260248201527f4f776e61626c653a2063616c6c6572206973206e6f7420746865206f776e65726044820152606401610505565b6000818152600260205260409020546001600160a01b0316610d5a5760405162461bcd60e51b8152602060048201526018602482015277115490cdcc8c4e881a5b9d985b1a59081d1bdad95b88125160421b6044820152606401610505565b600081815260046020526040902080546001600160a01b0319166001600160a01b038416908117909155819061107b82610af3565b6001600160a01b03167f8c5be1e5ebec7d5bd14f71427d1e84f3dd0314c0f7b2291e5b200ac8c7c3b92560405160405180910390a45050565b600a54600160a01b900460ff16156108105760405162461bcd60e51b815260206004820152601060248201526f14185d5cd8589b194e881c185d5cd95960821b6044820152606401610505565b61110961163b565b600a805460ff60a01b191690557f5db9ee0a495bf2e6ff9c91a7834c1ba4fdd244a5e8aa4e537bd38aeae4b073aa335b6040516001600160a01b03909116815260200160405180910390a1565b60008061116283610af3565b9050806001600160a01b0316846001600160a01b031614806111a957506001600160a01b0380821660009081526005602090815260408083209388168352929052205460ff165b806111cd5750836001600160a01b03166111c2846105c1565b6001600160a01b0316145b949350505050565b826001600160a01b03166111e882610af3565b6001600160a01b03161461120e5760405162461bcd60e51b815260040161050590612345565b6001600160a01b0382166112705760405162461bcd60e51b8152602060048201526024808201527f4552433732313a207472616e7366657220746f20746865207a65726f206164646044820152637265737360e01b6064820152608401610505565b61127d838383600161168b565b826001600160a01b031661129082610af3565b6001600160a01b0316146112b65760405162461bcd60e51b815260040161050590612345565b600081815260046020908152604080832080546001600160a01b03199081169091556001600160a01b0387811680865260038552838620805460001901905590871680865283862080546001019055868652600290945282852080549092168417909155905184937fddf252ad1be2c89b69c2b068fc378daa952ba7f163c4a11628f55a4df523b3ef91a4505050565b6108b28282604051806020016040528060008152506117cb565b600a80546001600160a01b038381166001600160a01b0319831681179093556040519116919082907f8be0079c531659141344cd1fd0a4f28419497f9722a3daafe3b4186f6b6457e090600090a35050565b816001600160a01b0316836001600160a01b0316036114135760405162461bcd60e51b815260206004820152601960248201527f4552433732313a20617070726f766520746f2063616c6c6572000000000000006044820152606401610505565b6001600160a01b03838116600081815260056020908152604080832094871680845294825291829020805460ff191686151590811790915591519182527f17307eab39ab6107e8899845ad3d59bd9653f200f220920489ca2b5937696c31910160405180910390a3505050565b61148b8484846111d5565b611497848484846117fe565b610cdf5760405162461bcd60e51b81526004016105059061238a565b60006114be82610af3565b90506114ce81600084600161168b565b6114d782610af3565b600083815260046020908152604080832080546001600160a01b03199081169091556001600160a01b0385168085526003845282852080546000190190558785526002909352818420805490911690555192935084927fddf252ad1be2c89b69c2b068fc378daa952ba7f163c4a11628f55a4df523b3ef908390a45050565b61155e6110b4565b600a805460ff60a01b1916600160a01b1790557f62e78cea01bee320cd4e420270b5ea74000d11b0c9f74754ebdbfc544b05a2586111393390565b6060600d805461053e906120fa565b606060006115b5836118ff565b600101905060008167ffffffffffffffff8111156115d5576115d5611ecf565b6040519080825280601f01601f1916602001820160405280156115ff576020820181803683370190505b5090508181016020015b600019016f181899199a1a9b1b9c1cb0b131b232b360811b600a86061a8153600a850494508461160957509392505050565b600a54600160a01b900460ff166108105760405162461bcd60e51b815260206004820152601460248201527314185d5cd8589b194e881b9bdd081c185d5cd95960621b6044820152606401610505565b611697848484846119d7565b60018111156117065760405162461bcd60e51b815260206004820152603560248201527f455243373231456e756d657261626c653a20636f6e7365637574697665207472604482015274185b9cd9995c9cc81b9bdd081cdd5c1c1bdc9d1959605a1b6064820152608401610505565b816001600160a01b0385166117625761175d81600880546000838152600960205260408120829055600182018355919091527ff3f7a9fe364faab93b216da50a3214154f22a0a2b415b23a84c8169e8b636ee30155565b611785565b836001600160a01b0316856001600160a01b031614611785576117858582611a5f565b6001600160a01b0384166117a15761179c81611afc565b6117c4565b846001600160a01b0316846001600160a01b0316146117c4576117c48482611bab565b5050505050565b6117d58383611bef565b6117e260008484846117fe565b6106f85760405162461bcd60e51b81526004016105059061238a565b60006001600160a01b0384163b156118f457604051630a85bd0160e11b81526001600160a01b0385169063150b7a02906118429033908990889088906004016123dc565b6020604051808303816000875af192505050801561187d575060408051601f3d908101601f1916820190925261187a91810190612419565b60015b6118da573d8080156118ab576040519150601f19603f3d011682016040523d82523d6000602084013e6118b0565b606091505b5080516000036118d25760405162461bcd60e51b81526004016105059061238a565b805181602001fd5b6001600160e01b031916630a85bd0160e11b1490506111cd565b506001949350505050565b60008072184f03e93ff9f4daa797ed6e38ed64bf6a1f0160401b831061193e5772184f03e93ff9f4daa797ed6e38ed64bf6a1f0160401b830492506040015b6d04ee2d6d415b85acef8100000000831061196a576d04ee2d6d415b85acef8100000000830492506020015b662386f26fc10000831061198857662386f26fc10000830492506010015b6305f5e10083106119a0576305f5e100830492506008015b61271083106119b457612710830492506004015b606483106119c6576064830492506002015b600a83106104ba5760010192915050565b6001811115610cdf576001600160a01b03841615611a1d576001600160a01b03841660009081526003602052604081208054839290611a17908490612436565b90915550505b6001600160a01b03831615610cdf576001600160a01b03831660009081526003602052604081208054839290611a54908490612192565b909155505050505050565b60006001611a6c84610b53565b611a769190612436565b600083815260076020526040902054909150808214611ac9576001600160a01b03841660009081526006602090815260408083208584528252808320548484528184208190558352600790915290208190555b5060009182526007602090815260408084208490556001600160a01b039094168352600681528383209183525290812055565b600854600090611b0e90600190612436565b60008381526009602052604081205460088054939450909284908110611b3657611b36612300565b906000526020600020015490508060088381548110611b5757611b57612300565b6000918252602080832090910192909255828152600990915260408082208490558582528120556008805480611b8f57611b8f612449565b6001900381819060005260206000200160009055905550505050565b6000611bb683610b53565b6001600160a01b039093166000908152600660209081526040808320868452825280832085905593825260079052919091209190915550565b6001600160a01b038216611c455760405162461bcd60e51b815260206004820181905260248201527f4552433732313a206d696e7420746f20746865207a65726f20616464726573736044820152606401610505565b6000818152600260205260409020546001600160a01b031615611caa5760405162461bcd60e51b815260206004820152601c60248201527f4552433732313a20746f6b656e20616c7265616479206d696e746564000000006044820152606401610505565b611cb860008383600161168b565b6000818152600260205260409020546001600160a01b031615611d1d5760405162461bcd60e51b815260206004820152601c60248201527f4552433732313a20746f6b656e20616c7265616479206d696e746564000000006044820152606401610505565b6001600160a01b038216600081815260036020908152604080832080546001019055848352600290915280822080546001600160a01b0319168417905551839291907fddf252ad1be2c89b69c2b068fc378daa952ba7f163c4a11628f55a4df523b3ef908290a45050565b6001600160e01b031981168114610d5a57600080fd5b600060208284031215611db057600080fd5b8135610dcd81611d88565b80356001600160a01b0381168114610a4057600080fd5b600060208284031215611de457600080fd5b610dcd82611dbb565b60005b83811015611e08578181015183820152602001611df0565b50506000910152565b60008151808452611e29816020860160208601611ded565b601f01601f19169290920160200192915050565b602081526000610dcd6020830184611e11565b600060208284031215611e6257600080fd5b5035919050565b60008060408385031215611e7c57600080fd5b611e8583611dbb565b946020939093013593505050565b600080600060608486031215611ea857600080fd5b611eb184611dbb565b9250611ebf60208501611dbb565b9150604084013590509250925092565b634e487b7160e01b600052604160045260246000fd5b600067ffffffffffffffff80841115611f0057611f00611ecf565b604051601f8501601f19908116603f01168101908282118183101715611f2857611f28611ecf565b81604052809350858152868686011115611f4157600080fd5b858560208301376000602087830101525050509392505050565b600060208284031215611f6d57600080fd5b813567ffffffffffffffff811115611f8457600080fd5b8201601f81018413611f9557600080fd5b6111cd84823560208401611ee5565b60008060408385031215611fb757600080fd5b50508035926020909101359150565b60008060408385031215611fd957600080fd5b611fe283611dbb565b915060208301358015158114611ff757600080fd5b809150509250929050565b6000806000806080858703121561201857600080fd5b61202185611dbb565b935061202f60208601611dbb565b925060408501359150606085013567ffffffffffffffff81111561205257600080fd5b8501601f8101871361206357600080fd5b61207287823560208401611ee5565b91505092959194509250565b6000806040838503121561209157600080fd5b61209a83611dbb565b91506120a860208401611dbb565b90509250929050565b60208082526029908201527f4572726f7220536574456e61626c654f70657261746f723a20496e76616c69646040820152681027b832b930ba37b960b91b606082015260800190565b600181811c9082168061210e57607f821691505b60208210810361212e57634e487b7160e01b600052602260045260246000fd5b50919050565b60208082526028908201527f4572726f7220557067726164654c6576656c3a20546f6b656e20646f6573206e6040820152671bdd08195e1a5cdd60c21b606082015260800190565b634e487b7160e01b600052601160045260246000fd5b808201808211156104ba576104ba61217c565b6020808252602d908201527f4552433732313a2063616c6c6572206973206e6f7420746f6b656e206f776e6560408201526c1c881bdc88185c1c1c9bdd9959609a1b606082015260800190565b601f8211156106f857600081815260208120601f850160051c810160208610156122195750805b601f850160051c820191505b8181101561223857828155600101612225565b505050505050565b815167ffffffffffffffff81111561225a5761225a611ecf565b61226e8161226884546120fa565b846121f2565b602080601f8311600181146122a3576000841561228b5750858301515b600019600386901b1c1916600185901b178555612238565b600085815260208120601f198616915b828110156122d2578886015182559484019460019091019084016122b3565b50858210156122f05787850151600019600388901b60f8161c191681555b5050505050600190811b01905550565b634e487b7160e01b600052603260045260246000fd5b60008351612328818460208801611ded565b83519083019061233c818360208801611ded565b01949350505050565b60208082526025908201527f4552433732313a207472616e736665722066726f6d20696e636f72726563742060408201526437bbb732b960d91b606082015260800190565b60208082526032908201527f4552433732313a207472616e7366657220746f206e6f6e20455243373231526560408201527131b2b4bb32b91034b6b83632b6b2b73a32b960711b606082015260800190565b6001600160a01b038581168252841660208201526040810183905260806060820181905260009061240f90830184611e11565b9695505050505050565b60006020828403121561242b57600080fd5b8151610dcd81611d88565b818103818111156104ba576104ba61217c565b634e487b7160e01b600052603160045260246000fdfea2646970667358221220199395a445a9ab6423ad7be9d07cf84c406716f737e30ff51272e0ef364d429d64736f6c63430008110033",
  "immutableReferences": {},
  "source": "// SPDX-License-Identifier: MIT\npragma solidity ^0.8.0;\n\nimport \"@openzeppelin/contracts/utils/math/SafeMath.sol\";\nimport \"@openzeppelin/contracts/utils/Counters.sol\";\nimport \"@openzeppelin/contracts/access/Ownable.sol\";\nimport \"@openzeppelin/contracts/security/Pausable.sol\";\nimport \"@openzeppelin/contracts/token/ERC721/extensions/ERC721Enumerable.sol\";\n\n// NFT\ncontract Robot is ERC721Enumerable, Ownable, Pausable\n{\n    using Counters for Counters.Counter;\n    Counters.Counter private TokenId;\n\n    mapping(address => bool) public Operator;\n\n    string public BaseURI;\n\n    event OnMintNFT(address from, address to, uint256 tokenId);\n    event OnUpgradeLevelRobot(uint256 tokenId, uint256 newLevel);\n\n    mapping(uint256 => uint256) public Level;\n\n    constructor(\n        string memory tokenName, string memory tokenSymbol\n        ) ERC721 (tokenName, tokenSymbol) {}\n\n    function SetPauseSystem() public onlyOwner \n    {\n        _pause();\n    }\n\n    function SetEnableSystem() public onlyOwner\n    {\n        _unpause();\n    }\n\n    function SetEnableOperator(address addressOperator) public onlyOwner \n    {\n        require(Operator[addressOperator] == false, \"Error SetEnableOperator: Invalid Operator\");\n        Operator[addressOperator] = true;\n    }\n\n    function SetDisableOperator(address addressOperator) public onlyOwner\n    {\n        require(Operator[addressOperator] == true, \"Error SetEnableOperator: Invalid Operator\");\n        Operator[addressOperator] = false;\n    }\n\n    function SetBaseURI(string memory baseURI) public onlyOwner \n    {\n        require(bytes(baseURI).length > 0, \"Error SetBaseURI: Invalid baseURI\");\n        BaseURI = baseURI;\n    }\n\n    function Mint(address to) public whenNotPaused returns(uint256)\n    {\n        require(Operator[msg.sender] == true, \"Error Mint: Invalid miner\");\n        TokenId.increment();\n        uint256 newTokenId = TokenId.current();\n        _safeMint(to, newTokenId);\n        Level[newTokenId] = 0;\n\n        emit OnMintNFT(msg.sender, to, newTokenId);\n\n        return newTokenId;\n    }\n\n    function Burn(uint256 tokenId) public whenNotPaused virtual\n    {\n        require(_isApprovedOrOwner(msg.sender, tokenId), \"Burn caller is not owner not approved\");\n        _burn(tokenId);\n    }\n\n    function UpgradeLevel(uint256 tokenId) public whenNotPaused\n    {\n        require(Operator[msg.sender] == true, \"Error UpgradeLevel\");\n        require(_exists(tokenId), \"Error UpgradeLevel: Token does not exist\");\n        Level[tokenId] += 1;\n\n        emit OnUpgradeLevelRobot(tokenId, Level[tokenId]);\n    }\n\n    function SetLevelRobot(uint256 tokenId, uint256 level) public whenNotPaused \n    {\n        require(Operator[msg.sender] == true, \"Error SetLevelRobot\");\n        require(_exists(tokenId), \"Error UpgradeLevel: Token does not exist\");\n        Level[tokenId] = level;\n    }\n\n    function _baseURI() internal view override returns(string memory)\n    {\n        return BaseURI;\n    }\n\n}",
  "sourcePath": "/Applications/projects/pixil-saga-contracts/contracts/Robot.sol",
  "compiler": {
    "name": "solc",
    "version": "0.8.17+commit.8df45f5f.Emscripten.clang"
  },
  "schemaVersion": "3.4.11",
  "updatedAt": "2023-05-09T09:26:02.038Z",
  "networkType": "ethereum",
  "devdoc": {
    "kind": "dev",
    "methods": {
      "approve(address,uint256)": {
        "details": "See {IERC721-approve}."
      },
      "balanceOf(address)": {
        "details": "See {IERC721-balanceOf}."
      },
      "getApproved(uint256)": {
        "details": "See {IERC721-getApproved}."
      },
      "isApprovedForAll(address,address)": {
        "details": "See {IERC721-isApprovedForAll}."
      },
      "name()": {
        "details": "See {IERC721Metadata-name}."
      },
      "owner()": {
        "details": "Returns the address of the current owner."
      },
      "ownerOf(uint256)": {
        "details": "See {IERC721-ownerOf}."
      },
      "paused()": {
        "details": "Returns true if the contract is paused, and false otherwise."
      },
      "renounceOwnership()": {
        "details": "Leaves the contract without owner. It will not be possible to call `onlyOwner` functions anymore. Can only be called by the current owner. NOTE: Renouncing ownership will leave the contract without an owner, thereby removing any functionality that is only available to the owner."
      },
      "safeTransferFrom(address,address,uint256)": {
        "details": "See {IERC721-safeTransferFrom}."
      },
      "safeTransferFrom(address,address,uint256,bytes)": {
        "details": "See {IERC721-safeTransferFrom}."
      },
      "setApprovalForAll(address,bool)": {
        "details": "See {IERC721-setApprovalForAll}."
      },
      "supportsInterface(bytes4)": {
        "details": "See {IERC165-supportsInterface}."
      },
      "symbol()": {
        "details": "See {IERC721Metadata-symbol}."
      },
      "tokenByIndex(uint256)": {
        "details": "See {IERC721Enumerable-tokenByIndex}."
      },
      "tokenOfOwnerByIndex(address,uint256)": {
        "details": "See {IERC721Enumerable-tokenOfOwnerByIndex}."
      },
      "tokenURI(uint256)": {
        "details": "See {IERC721Metadata-tokenURI}."
      },
      "totalSupply()": {
        "details": "See {IERC721Enumerable-totalSupply}."
      },
      "transferFrom(address,address,uint256)": {
        "details": "See {IERC721-transferFrom}."
      },
      "transferOwnership(address)": {
        "details": "Transfers ownership of the contract to a new account (`newOwner`). Can only be called by the current owner."
      }
    },
    "version": 1
  },
  "userdoc": {
    "kind": "user",
    "methods": {},
    "version": 1
  }
}