{
  "contractName": "Test",
  "abi": [
    {
      "inputs": [
        {
          "internalType": "uint256",
          "name": "",
          "type": "uint256"
        }
      ],
      "name": "ArraysRandom",
      "outputs": [
        {
          "internalType": "uint256",
          "name": "",
          "type": "uint256"
        }
      ],
      "stateMutability": "view",
      "type": "function",
      "constant": true
    },
    {
      "inputs": [],
      "name": "TotalQuestionContract",
      "outputs": [
        {
          "internalType": "uint256",
          "name": "",
          "type": "uint256"
        }
      ],
      "stateMutability": "view",
      "type": "function",
      "constant": true
    },
    {
      "inputs": [],
      "name": "TotalQuestionOnDay",
      "outputs": [
        {
          "internalType": "uint256",
          "name": "",
          "type": "uint256"
        }
      ],
      "stateMutability": "view",
      "type": "function",
      "constant": true
    },
    {
      "inputs": [
        {
          "internalType": "uint256",
          "name": "newTotalQuestionContract",
          "type": "uint256"
        }
      ],
      "name": "SetTotalQuestionContract",
      "outputs": [],
      "stateMutability": "nonpayable",
      "type": "function"
    },
    {
      "inputs": [
        {
          "internalType": "uint256",
          "name": "newTotalQuestionOnDay",
          "type": "uint256"
        }
      ],
      "name": "SetTotalQuestionOnDay",
      "outputs": [],
      "stateMutability": "nonpayable",
      "type": "function"
    },
    {
      "inputs": [
        {
          "internalType": "address",
          "name": "user",
          "type": "address"
        }
      ],
      "name": "Test001",
      "outputs": [
        {
          "internalType": "uint256[]",
          "name": "results",
          "type": "uint256[]"
        }
      ],
      "stateMutability": "view",
      "type": "function",
      "constant": true
    },
    {
      "inputs": [
        {
          "internalType": "uint256",
          "name": "count",
          "type": "uint256"
        },
        {
          "internalType": "address",
          "name": "user",
          "type": "address"
        }
      ],
      "name": "RandomNumber",
      "outputs": [
        {
          "internalType": "uint256",
          "name": "",
          "type": "uint256"
        }
      ],
      "stateMutability": "view",
      "type": "function",
      "constant": true
    }
  ],
  "bytecode": "0x60806040526003600155600360025534801561001a57600080fd5b506103ca8061002a6000396000f3fe608060405234801561001057600080fd5b506004361061007d5760003560e01c806391a792221161005b57806391a79222146100c6578063ad0df94e146100d9578063bf051d3f146100e2578063dedf470b1461010257600080fd5b8063496a2961146100825780634df42ad21461009e5780635f872a82146100b1575b600080fd5b61008b60015481565b6040519081526020015b60405180910390f35b61008b6100ac366004610259565b610122565b6100c46100bf366004610285565b600255565b005b6100c46100d4366004610285565b600155565b61008b60025481565b61008b6100f0366004610285565b60006020819052908152604090205481565b61011561011036600461029e565b610191565b60405161009591906102c0565b60408051446020808301919091524282840152606080830186905284901b6bffffffffffffffffffffffff191660808301528251808303607401815260949092019092528051910120600180546000929161017d919061031a565b610187908261032d565b9150505b92915050565b6060600060025467ffffffffffffffff8111156101b0576101b061034f565b6040519080825280602002602001820160405280156101d9578160200160208202803683370190505b50915060005b6002548110156102365760006101f58386610122565b90508084838151811061020a5761020a610365565b602090810291909101015261022060018461031a565b925050808061022e9061037b565b9150506101df565b5050919050565b80356001600160a01b038116811461025457600080fd5b919050565b6000806040838503121561026c57600080fd5b8235915061027c6020840161023d565b90509250929050565b60006020828403121561029757600080fd5b5035919050565b6000602082840312156102b057600080fd5b6102b98261023d565b9392505050565b6020808252825182820181905260009190848201906040850190845b818110156102f8578351835292840192918401916001016102dc565b50909695505050505050565b634e487b7160e01b600052601160045260246000fd5b8082018082111561018b5761018b610304565b60008261034a57634e487b7160e01b600052601260045260246000fd5b500690565b634e487b7160e01b600052604160045260246000fd5b634e487b7160e01b600052603260045260246000fd5b60006001820161038d5761038d610304565b506001019056fea26469706673582212203fae9f276f4301ea3e27e502cf1dc839e593a59caa66cfdab052697a37a4191864736f6c63430008110033",
  "immutableReferences": {},
  "source": "// SPDX-License-Identifier: MIT\npragma solidity ^0.8.0;\n\ncontract Test\n{\n    mapping(uint256 => uint256) public ArraysRandom;\n    uint256 public TotalQuestionContract = 3;\n    uint256 public TotalQuestionOnDay = 3;\n\n    function SetTotalQuestionContract(uint256 newTotalQuestionContract) public \n    {\n        TotalQuestionContract = newTotalQuestionContract;\n    }\n\n    function SetTotalQuestionOnDay(uint256 newTotalQuestionOnDay) public \n    {\n        TotalQuestionOnDay = newTotalQuestionOnDay;\n    }\n\n    function Test001(address user) public view returns(uint256[] memory results)\n    {\n        uint256 count = 0;\n        results = new uint256[](TotalQuestionOnDay);\n        for(uint256 indexQuestion = 0; indexQuestion < TotalQuestionOnDay; indexQuestion++)\n        {\n            uint256 random = RandomNumber(count, user);\n            results[indexQuestion] = random;\n            count += 1;\n        }\n    }\n\n    function RandomNumber(uint256 count, address user) public view returns(uint256)\n    {\n        uint256 randomHash = uint256(keccak256(abi.encodePacked(block.difficulty, block.timestamp, count, user)));\n        return randomHash % (TotalQuestionContract + 1);\n    }\n}",
  "sourcePath": "/Applications/projects/garbi-contracts/contracts/Test.sol",
  "compiler": {
    "name": "solc",
    "version": "0.8.17+commit.8df45f5f.Emscripten.clang"
  },
  "schemaVersion": "3.4.11",
  "updatedAt": "2023-02-02T08:34:01.924Z",
  "networkType": "ethereum",
  "devdoc": {
    "kind": "dev",
    "methods": {},
    "version": 1
  },
  "userdoc": {
    "kind": "user",
    "methods": {},
    "version": 1
  }
}