{
  "contractName": "Test",
  "abi": [
    {
      "inputs": [],
      "name": "GetTimeStamp",
      "outputs": [
        {
          "internalType": "uint256",
          "name": "",
          "type": "uint256"
        }
      ],
      "stateMutability": "view",
      "type": "function",
      "constant": true
    }
  ],
  "bytecode": "0x6080604052348015600f57600080fd5b50607680601d6000396000f3fe6080604052348015600f57600080fd5b506004361060285760003560e01c80639595d65114602d575b600080fd5b4260405190815260200160405180910390f3fea2646970667358221220e835df3a320034c5a80e289a91fe1963b79221a773beac3450b8b22df575b79564736f6c63430008110033",
  "immutableReferences": {},
  "source": "// SPDX-License-Identifier: MIT\npragma solidity ^0.8.0;\n\ncontract Test\n{\n    function GetTimeStamp() public view returns(uint256)\n    {\n        return block.timestamp;\n    }\n}",
  "sourcePath": "/Applications/projects/pixil-saga-contracts/contracts/Test.sol",
  "compiler": {
    "name": "solc",
    "version": "0.8.17+commit.8df45f5f.Emscripten.clang"
  },
  "schemaVersion": "3.4.11",
  "updatedAt": "2023-05-11T06:33:55.241Z",
  "networkType": "ethereum",
  "devdoc": {
    "kind": "dev",
    "methods": {},
    "version": 1
  },
  "userdoc": {
    "kind": "user",
    "methods": {},
    "version": 1
  }
}