{
  "contractName": "Test",
  "abi": [
    {
      "inputs": [
        {
          "internalType": "contract ArbSys",
          "name": "_arbSys",
          "type": "address"
        }
      ],
      "stateMutability": "nonpayable",
      "type": "constructor"
    },
    {
      "inputs": [
        {
          "internalType": "uint256",
          "name": "",
          "type": "uint256"
        }
      ],
      "name": "ArraysRandom",
      "outputs": [
        {
          "internalType": "uint256",
          "name": "",
          "type": "uint256"
        }
      ],
      "stateMutability": "view",
      "type": "function"
    },
    {
      "inputs": [],
      "name": "TotalQuestionContract",
      "outputs": [
        {
          "internalType": "uint256",
          "name": "",
          "type": "uint256"
        }
      ],
      "stateMutability": "view",
      "type": "function"
    },
    {
      "inputs": [],
      "name": "TotalQuestionOnDay",
      "outputs": [
        {
          "internalType": "uint256",
          "name": "",
          "type": "uint256"
        }
      ],
      "stateMutability": "view",
      "type": "function"
    },
    {
      "inputs": [],
      "name": "arbSys",
      "outputs": [
        {
          "internalType": "contract ArbSys",
          "name": "",
          "type": "address"
        }
      ],
      "stateMutability": "view",
      "type": "function"
    },
    {
      "inputs": [
        {
          "internalType": "uint256",
          "name": "newTotalQuestionContract",
          "type": "uint256"
        }
      ],
      "name": "SetTotalQuestionContract",
      "outputs": [],
      "stateMutability": "nonpayable",
      "type": "function"
    },
    {
      "inputs": [
        {
          "internalType": "uint256",
          "name": "newTotalQuestionOnDay",
          "type": "uint256"
        }
      ],
      "name": "SetTotalQuestionOnDay",
      "outputs": [],
      "stateMutability": "nonpayable",
      "type": "function"
    },
    {
      "inputs": [
        {
          "internalType": "address",
          "name": "user",
          "type": "address"
        }
      ],
      "name": "Test001",
      "outputs": [
        {
          "internalType": "uint256[]",
          "name": "results",
          "type": "uint256[]"
        }
      ],
      "stateMutability": "view",
      "type": "function"
    },
    {
      "inputs": [
        {
          "internalType": "uint256",
          "name": "count",
          "type": "uint256"
        },
        {
          "internalType": "address",
          "name": "user",
          "type": "address"
        }
      ],
      "name": "RandomNumber",
      "outputs": [
        {
          "internalType": "uint256",
          "name": "",
          "type": "uint256"
        }
      ],
      "stateMutability": "view",
      "type": "function"
    },
    {
      "inputs": [],
      "name": "Test002",
      "outputs": [
        {
          "internalType": "uint256",
          "name": "",
          "type": "uint256"
        }
      ],
      "stateMutability": "view",
      "type": "function"
    }
  ],
  "bytecode": "0x608060405260036002556003805534801561001957600080fd5b506040516105453803806105458339810160408190526100389161005d565b600080546001600160a01b0319166001600160a01b039290921691909117905561008d565b60006020828403121561006f57600080fd5b81516001600160a01b038116811461008657600080fd5b9392505050565b6104a98061009c6000396000f3fe608060405234801561001057600080fd5b50600436106100935760003560e01c8063863ccc8011610066578063863ccc801461010757806391a792221461010f578063ad0df94e14610122578063bf051d3f1461012b578063dedf470b1461014b57600080fd5b80631057d40f14610098578063496a2961146100c85780634df42ad2146100df5780635f872a82146100f2575b600080fd5b6000546100ab906001600160a01b031681565b6040516001600160a01b0390911681526020015b60405180910390f35b6100d160025481565b6040519081526020016100bf565b6100d16100ed36600461031f565b61016b565b61010561010036600461034b565b600355565b005b6100d16101da565b61010561011d36600461034b565b600255565b6100d160035481565b6100d161013936600461034b565b60016020526000908152604090205481565b61015e610159366004610364565b610257565b6040516100bf9190610386565b60408051446020808301919091524282840152606080830186905284901b6bffffffffffffffffffffffff191660808301528251808303607401815260949092019092528051910120600254600091906101c69060016103e0565b6101d090826103f3565b9150505b92915050565b60008060009054906101000a90046001600160a01b03166001600160a01b031663a3b1b31d6040518163ffffffff1660e01b8152600401602060405180830381865afa15801561022e573d6000803e3d6000fd5b505050506040513d601f19601f820116820180604052508101906102529190610415565b905090565b6060600060035467ffffffffffffffff8111156102765761027661042e565b60405190808252806020026020018201604052801561029f578160200160208202803683370190505b50915060005b6003548110156102fc5760006102bb838661016b565b9050808483815181106102d0576102d0610444565b60209081029190910101526102e66001846103e0565b92505080806102f49061045a565b9150506102a5565b5050919050565b80356001600160a01b038116811461031a57600080fd5b919050565b6000806040838503121561033257600080fd5b8235915061034260208401610303565b90509250929050565b60006020828403121561035d57600080fd5b5035919050565b60006020828403121561037657600080fd5b61037f82610303565b9392505050565b6020808252825182820181905260009190848201906040850190845b818110156103be578351835292840192918401916001016103a2565b50909695505050505050565b634e487b7160e01b600052601160045260246000fd5b808201808211156101d4576101d46103ca565b60008261041057634e487b7160e01b600052601260045260246000fd5b500690565b60006020828403121561042757600080fd5b5051919050565b634e487b7160e01b600052604160045260246000fd5b634e487b7160e01b600052603260045260246000fd5b60006001820161046c5761046c6103ca565b506001019056fea26469706673582212203316e5b95ef575702ab838a304b00d91298755a76c70b8916a45107f4532af8064736f6c63430008110033",
  "immutableReferences": {},
  "source": "// SPDX-License-Identifier: MIT\npragma solidity ^0.8.0;\n\nimport \"./interfaces/ArbSys.sol\";\n\ncontract Test\n{\n    ArbSys public arbSys;\n\n    mapping(uint256 => uint256) public ArraysRandom;\n    uint256 public TotalQuestionContract = 3;\n    uint256 public TotalQuestionOnDay = 3;\n\n    constructor(ArbSys _arbSys)\n    {\n        arbSys = _arbSys;\n    }\n\n    function SetTotalQuestionContract(uint256 newTotalQuestionContract) public \n    {\n        TotalQuestionContract = newTotalQuestionContract;\n    }\n\n    function SetTotalQuestionOnDay(uint256 newTotalQuestionOnDay) public \n    {\n        TotalQuestionOnDay = newTotalQuestionOnDay;\n    }\n\n    function Test001(address user) public view returns(uint256[] memory results)\n    {\n        uint256 count = 0;\n        results = new uint256[](TotalQuestionOnDay);\n        for(uint256 indexQuestion = 0; indexQuestion < TotalQuestionOnDay; indexQuestion++)\n        {\n            uint256 random = RandomNumber(count, user);\n            results[indexQuestion] = random;\n            count += 1;\n        }\n    }\n\n    function RandomNumber(uint256 count, address user) public view returns(uint256)\n    {\n        uint256 randomHash = uint256(keccak256(abi.encodePacked(block.difficulty, block.timestamp, count, user)));\n        return randomHash % (TotalQuestionContract + 1);\n    }\n\n    function Test002() public view returns(uint256)\n    {\n\n        return arbSys.arbBlockNumber();\n    }\n}",
  "sourcePath": "/Applications/projects/pixil-saga-contracts/contracts/Test.sol",
  "compiler": {
    "name": "solc",
    "version": "0.8.17+commit.8df45f5f.Emscripten.clang"
  },
  "schemaVersion": "3.4.11",
  "updatedAt": "2023-04-27T01:48:40.807Z",
  "devdoc": {
    "kind": "dev",
    "methods": {},
    "version": 1
  },
  "userdoc": {
    "kind": "user",
    "methods": {},
    "version": 1
  }
}