{
  "contractName": "Treasury",
  "abi": [
    {
      "inputs": [
        {
          "internalType": "contract IERC20",
          "name": "cyberCreditTokenContract",
          "type": "address"
        },
        {
          "internalType": "contract IERC20",
          "name": "veGRBTokenContract",
          "type": "address"
        }
      ],
      "stateMutability": "nonpayable",
      "type": "constructor"
    },
    {
      "anonymous": false,
      "inputs": [
        {
          "indexed": false,
          "internalType": "address",
          "name": "user",
          "type": "address"
        },
        {
          "indexed": false,
          "internalType": "uint256",
          "name": "indexPacket",
          "type": "uint256"
        },
        {
          "indexed": false,
          "internalType": "uint256",
          "name": "amountTokenInputput",
          "type": "uint256"
        }
      ],
      "name": "OnBuyPacket",
      "type": "event"
    },
    {
      "anonymous": false,
      "inputs": [
        {
          "indexed": true,
          "internalType": "address",
          "name": "previousOwner",
          "type": "address"
        },
        {
          "indexed": true,
          "internalType": "address",
          "name": "newOwner",
          "type": "address"
        }
      ],
      "name": "OwnershipTransferred",
      "type": "event"
    },
    {
      "anonymous": false,
      "inputs": [
        {
          "indexed": false,
          "internalType": "address",
          "name": "account",
          "type": "address"
        }
      ],
      "name": "Paused",
      "type": "event"
    },
    {
      "anonymous": false,
      "inputs": [
        {
          "indexed": false,
          "internalType": "address",
          "name": "account",
          "type": "address"
        }
      ],
      "name": "Unpaused",
      "type": "event"
    },
    {
      "inputs": [],
      "name": "CyberCreditToken",
      "outputs": [
        {
          "internalType": "contract IERC20",
          "name": "",
          "type": "address"
        }
      ],
      "stateMutability": "view",
      "type": "function",
      "constant": true
    },
    {
      "inputs": [],
      "name": "MaxLengthPacketsVeGRB",
      "outputs": [
        {
          "internalType": "uint256",
          "name": "",
          "type": "uint256"
        }
      ],
      "stateMutability": "view",
      "type": "function",
      "constant": true
    },
    {
      "inputs": [
        {
          "internalType": "uint256",
          "name": "",
          "type": "uint256"
        }
      ],
      "name": "PacketsVeGRB",
      "outputs": [
        {
          "internalType": "uint256",
          "name": "",
          "type": "uint256"
        }
      ],
      "stateMutability": "view",
      "type": "function",
      "constant": true
    },
    {
      "inputs": [],
      "name": "owner",
      "outputs": [
        {
          "internalType": "address",
          "name": "",
          "type": "address"
        }
      ],
      "stateMutability": "view",
      "type": "function",
      "constant": true
    },
    {
      "inputs": [],
      "name": "paused",
      "outputs": [
        {
          "internalType": "bool",
          "name": "",
          "type": "bool"
        }
      ],
      "stateMutability": "view",
      "type": "function",
      "constant": true
    },
    {
      "inputs": [],
      "name": "renounceOwnership",
      "outputs": [],
      "stateMutability": "nonpayable",
      "type": "function"
    },
    {
      "inputs": [
        {
          "internalType": "address",
          "name": "newOwner",
          "type": "address"
        }
      ],
      "name": "transferOwnership",
      "outputs": [],
      "stateMutability": "nonpayable",
      "type": "function"
    },
    {
      "inputs": [],
      "name": "veGRBToken",
      "outputs": [
        {
          "internalType": "contract IERC20",
          "name": "",
          "type": "address"
        }
      ],
      "stateMutability": "view",
      "type": "function",
      "constant": true
    },
    {
      "inputs": [
        {
          "internalType": "contract IERC20",
          "name": "cyberCreditTokenContract",
          "type": "address"
        }
      ],
      "name": "SetCyberCreditTokenContract",
      "outputs": [],
      "stateMutability": "nonpayable",
      "type": "function"
    },
    {
      "inputs": [
        {
          "internalType": "contract IERC20",
          "name": "veGRBTokenContract",
          "type": "address"
        }
      ],
      "name": "SetVeGRBTokenContract",
      "outputs": [],
      "stateMutability": "nonpayable",
      "type": "function"
    },
    {
      "inputs": [
        {
          "internalType": "uint256",
          "name": "value",
          "type": "uint256"
        }
      ],
      "name": "SetMaxLengthPacketsVeGRB",
      "outputs": [],
      "stateMutability": "nonpayable",
      "type": "function"
    },
    {
      "inputs": [
        {
          "internalType": "uint256",
          "name": "indexPacket",
          "type": "uint256"
        },
        {
          "internalType": "uint256",
          "name": "amountPacket",
          "type": "uint256"
        }
      ],
      "name": "SetAmountPacketsVeGRB",
      "outputs": [],
      "stateMutability": "nonpayable",
      "type": "function"
    },
    {
      "inputs": [
        {
          "internalType": "uint256",
          "name": "indexPacket",
          "type": "uint256"
        }
      ],
      "name": "BuyPacket",
      "outputs": [],
      "stateMutability": "nonpayable",
      "type": "function"
    },
    {
      "inputs": [],
      "name": "GetData",
      "outputs": [
        {
          "internalType": "uint256",
          "name": "balanceTreasury",
          "type": "uint256"
        },
        {
          "internalType": "uint256[]",
          "name": "amountPacket",
          "type": "uint256[]"
        }
      ],
      "stateMutability": "view",
      "type": "function",
      "constant": true
    }
  ],
  "bytecode": "0x608060405234801561001057600080fd5b50604051610ba5380380610ba583398101604081905261002f916101a4565b61003833610138565b6000805460ff60a01b19168155600180546001600160a01b039485166001600160a01b031991821617909155600280549390941692169190911790915560046003818155602091909152678ac7230489e800007f17ef568e3e12ab5b9c7254a8d58478811de00f9e6eb34345acd53bf8fd09d3ec556802b5e3af16b18800007fabd6e7cb50984ff9c2f3e18a2660c3353dadf4e3291deeb275dae2cd1e44fe0555680ad78ebc5ac62000007f91da3fd0782e51c6b3986e9e672fd566868e71f3dbc2d6c2cd6fbb3e361af2a7559052681b1ae4d6e2ef5000007f2e174c10e159ea99b867ce3205125c24a42d128804e4070ed6fcc8cc98166aa0556101d7565b600080546001600160a01b038381166001600160a01b0319831681178455604051919092169283917f8be0079c531659141344cd1fd0a4f28419497f9722a3daafe3b4186f6b6457e09190a35050565b80516001600160a01b038116811461019f57600080fd5b919050565b600080604083850312156101b757600080fd5b6101c083610188565b91506101ce60208401610188565b90509250929050565b6109bf806101e66000396000f3fe608060405234801561001057600080fd5b50600436106100ea5760003560e01c80638da5cb5b1161008c578063b147f8a611610066578063b147f8a6146101dd578063c57158d1146101f0578063c61f189d14610203578063f2fde38b1461021657600080fd5b80638da5cb5b146101b057806395fce31e146101c1578063b02108fd146101ca57600080fd5b806376b8e528116100c857806376b8e5281461014657806379dede4a1461015c578063812cbb7f1461018a578063888602e41461019d57600080fd5b806348d43e50146100ef5780635c975abb1461011f578063715018a61461013c575b600080fd5b600254610102906001600160a01b031681565b6040516001600160a01b0390911681526020015b60405180910390f35b600054600160a01b900460ff166040519015158152602001610116565b610144610229565b005b61014e61023d565b604051610116929190610839565b61017c61016a366004610887565b60046020526000908152604090205481565b604051908152602001610116565b6101446101983660046108a0565b61034a565b6101446101ab366004610887565b610364565b6000546001600160a01b0316610102565b61017c60035481565b600154610102906001600160a01b031681565b6101446101eb366004610887565b6106b5565b6101446101fe3660046108d7565b6106c2565b6101446102113660046108d7565b6106ec565b6101446102243660046108d7565b610716565b61023161078f565b61023b60006107e9565b565b6002546040516370a0823160e01b81523060048201526000916060916001600160a01b03909116906370a0823190602401602060405180830381865afa15801561028b573d6000803e3d6000fd5b505050506040513d601f19601f820116820180604052508101906102af91906108fb565b915060035467ffffffffffffffff8111156102cc576102cc610914565b6040519080825280602002602001820160405280156102f5578160200160208202803683370190505b50905060005b6003548110156103455760008181526004602052604090205482518390839081106103285761032861092a565b60209081029190910101528061033d81610940565b9150506102fb565b509091565b61035261078f565b60009182526004602052604090912055565b60008181526004602052604081205433918190036103c95760405162461bcd60e51b815260206004820152601f60248201527f4572726f72204275795061636b65743a20496e76616c6964205061636b65740060448201526064015b60405180910390fd5b6001546040516370a0823160e01b81526001600160a01b038481166004830152839216906370a0823190602401602060405180830381865afa158015610413573d6000803e3d6000fd5b505050506040513d601f19601f8201168201806040525081019061043791906108fb565b101561049a5760405162461bcd60e51b815260206004820152602c60248201527f4572726f72204275795061636b65743a20496e76616c69642042616c616e636560448201526b0810de58995c90dc99591a5d60a21b60648201526084016103c0565b6002546040516370a0823160e01b81523060048201526001600160a01b03909116906370a0823190602401602060405180830381865afa1580156104e2573d6000803e3d6000fd5b505050506040513d601f19601f8201168201806040525081019061050691906108fb565b8111156105705760405162461bcd60e51b815260206004820152603260248201527f4572726f72204275795061636b65743a20496e76616c69642042616c616e636560448201527120766547524220696e20547265617375727960701b60648201526084016103c0565b6001546040516323b872dd60e01b81526001600160a01b03848116600483015230602483015260448201849052909116906323b872dd906064016020604051808303816000875af11580156105c9573d6000803e3d6000fd5b505050506040513d601f19601f820116820180604052508101906105ed9190610967565b5060025460405163a9059cbb60e01b81526001600160a01b038481166004830152602482018490529091169063a9059cbb906044016020604051808303816000875af1158015610641573d6000803e3d6000fd5b505050506040513d601f19601f820116820180604052508101906106659190610967565b50604080516001600160a01b0384168152602081018590529081018290527f216fc35aee5032d58c5c390f2013c6a58f7423a8bf50fb0b00b01816dd9d5ba49060600160405180910390a1505050565b6106bd61078f565b600355565b6106ca61078f565b600180546001600160a01b0319166001600160a01b0392909216919091179055565b6106f461078f565b600280546001600160a01b0319166001600160a01b0392909216919091179055565b61071e61078f565b6001600160a01b0381166107835760405162461bcd60e51b815260206004820152602660248201527f4f776e61626c653a206e6577206f776e657220697320746865207a65726f206160448201526564647265737360d01b60648201526084016103c0565b61078c816107e9565b50565b6000546001600160a01b0316331461023b5760405162461bcd60e51b815260206004820181905260248201527f4f776e61626c653a2063616c6c6572206973206e6f7420746865206f776e657260448201526064016103c0565b600080546001600160a01b038381166001600160a01b0319831681178455604051919092169283917f8be0079c531659141344cd1fd0a4f28419497f9722a3daafe3b4186f6b6457e09190a35050565b6000604082018483526020604081850152818551808452606086019150828701935060005b8181101561087a5784518352938301939183019160010161085e565b5090979650505050505050565b60006020828403121561089957600080fd5b5035919050565b600080604083850312156108b357600080fd5b50508035926020909101359150565b6001600160a01b038116811461078c57600080fd5b6000602082840312156108e957600080fd5b81356108f4816108c2565b9392505050565b60006020828403121561090d57600080fd5b5051919050565b634e487b7160e01b600052604160045260246000fd5b634e487b7160e01b600052603260045260246000fd5b60006001820161096057634e487b7160e01b600052601160045260246000fd5b5060010190565b60006020828403121561097957600080fd5b815180151581146108f457600080fdfea2646970667358221220550317f5032bed88013f8779ce0409405ac1c2ec62af45a1639e664d418039d064736f6c63430008110033",
  "immutableReferences": {},
  "source": "// SPDX-License-Identifier: MIT\npragma solidity ^0.8.0;\n\nimport \"@openzeppelin/contracts/token/ERC20/IERC20.sol\";\nimport \"@openzeppelin/contracts/utils/math/SafeMath.sol\";\nimport \"@openzeppelin/contracts/access/Ownable.sol\";\nimport \"@openzeppelin/contracts/security/Pausable.sol\";\n\ncontract Treasury is Ownable, Pausable\n{\n    using SafeMath for uint256;\n\n    IERC20 public CyberCreditToken;\n    IERC20 public veGRBToken;\n\n    uint256 public MaxLengthPacketsVeGRB;\n    mapping(uint256 => uint256) public PacketsVeGRB;\n\n    event OnBuyPacket(address user, uint256 indexPacket, uint256 amountTokenInputput);\n\n    constructor(IERC20 cyberCreditTokenContract, IERC20 veGRBTokenContract)\n    {\n        CyberCreditToken = cyberCreditTokenContract;\n        veGRBToken = veGRBTokenContract;\n\n        //test\n        MaxLengthPacketsVeGRB  = 4;\n        PacketsVeGRB[0] = 10e18;\n        PacketsVeGRB[1] = 50e18;\n        PacketsVeGRB[2] = 200e18;\n        PacketsVeGRB[3] = 500e18;\n    }\n\n    function SetCyberCreditTokenContract(IERC20 cyberCreditTokenContract) public onlyOwner \n    {\n        CyberCreditToken = cyberCreditTokenContract;\n    }\n\n    function SetVeGRBTokenContract(IERC20 veGRBTokenContract) public onlyOwner\n    {\n        veGRBToken = veGRBTokenContract;\n    }\n\n    function SetMaxLengthPacketsVeGRB(uint256 value) public onlyOwner \n    {\n        MaxLengthPacketsVeGRB = value;\n    }\n\n    function SetAmountPacketsVeGRB(uint256 indexPacket, uint256 amountPacket) public onlyOwner \n    {\n        PacketsVeGRB[indexPacket] = amountPacket;\n    }\n\n    function BuyPacket(uint256 indexPacket) public\n    {\n        address user = _msgSender();\n        uint256 amountTokenInput = PacketsVeGRB[indexPacket];\n        require(amountTokenInput != 0, \"Error BuyPacket: Invalid Packet\");\n        require(CyberCreditToken.balanceOf(user) >= amountTokenInput, \"Error BuyPacket: Invalid Balance CyberCredit\");\n        require(amountTokenInput <= veGRBToken.balanceOf(address(this)),  \"Error BuyPacket: Invalid Balance veGRB in Treasury\");\n\n        CyberCreditToken.transferFrom(user, address(this), amountTokenInput);\n\n        veGRBToken.transfer(user, amountTokenInput);\n\n        emit OnBuyPacket(user, indexPacket, amountTokenInput);\n    }\n\n    function GetData() public view returns(uint256 balanceTreasury, uint256[] memory amountPacket)\n    {\n        balanceTreasury = veGRBToken.balanceOf(address(this));\n        amountPacket = new uint256[](MaxLengthPacketsVeGRB);\n\n        for(uint256 indexPacket = 0; indexPacket < MaxLengthPacketsVeGRB; indexPacket++)\n        {\n            amountPacket[indexPacket] = PacketsVeGRB[indexPacket];\n        }\n    }\n\n}",
  "sourcePath": "/Applications/projects/garbi-contracts/contracts/Treasury.sol",
  "compiler": {
    "name": "solc",
    "version": "0.8.17+commit.8df45f5f.Emscripten.clang"
  },
  "schemaVersion": "3.4.11",
  "updatedAt": "2023-04-06T04:05:09.646Z",
  "networkType": "ethereum",
  "devdoc": {
    "kind": "dev",
    "methods": {
      "owner()": {
        "details": "Returns the address of the current owner."
      },
      "paused()": {
        "details": "Returns true if the contract is paused, and false otherwise."
      },
      "renounceOwnership()": {
        "details": "Leaves the contract without owner. It will not be possible to call `onlyOwner` functions anymore. Can only be called by the current owner. NOTE: Renouncing ownership will leave the contract without an owner, thereby removing any functionality that is only available to the owner."
      },
      "transferOwnership(address)": {
        "details": "Transfers ownership of the contract to a new account (`newOwner`). Can only be called by the current owner."
      }
    },
    "version": 1
  },
  "userdoc": {
    "kind": "user",
    "methods": {},
    "version": 1
  }
}