{
  "contractName": "Treasury",
  "abi": [
    {
      "inputs": [
        {
          "internalType": "contract IERC20",
          "name": "cyberCreditTokenContract",
          "type": "address"
        },
        {
          "internalType": "contract IERC20",
          "name": "veGRBTokenContract",
          "type": "address"
        }
      ],
      "stateMutability": "nonpayable",
      "type": "constructor"
    },
    {
      "anonymous": false,
      "inputs": [
        {
          "indexed": false,
          "internalType": "address",
          "name": "user",
          "type": "address"
        },
        {
          "indexed": false,
          "internalType": "uint256",
          "name": "indexPacket",
          "type": "uint256"
        },
        {
          "indexed": false,
          "internalType": "uint256",
          "name": "amountTokenInputput",
          "type": "uint256"
        },
        {
          "indexed": false,
          "internalType": "uint256",
          "name": "amountTokenOutput",
          "type": "uint256"
        }
      ],
      "name": "OnBuyPacket",
      "type": "event"
    },
    {
      "anonymous": false,
      "inputs": [
        {
          "indexed": true,
          "internalType": "address",
          "name": "previousOwner",
          "type": "address"
        },
        {
          "indexed": true,
          "internalType": "address",
          "name": "newOwner",
          "type": "address"
        }
      ],
      "name": "OwnershipTransferred",
      "type": "event"
    },
    {
      "anonymous": false,
      "inputs": [
        {
          "indexed": false,
          "internalType": "address",
          "name": "account",
          "type": "address"
        }
      ],
      "name": "Paused",
      "type": "event"
    },
    {
      "anonymous": false,
      "inputs": [
        {
          "indexed": false,
          "internalType": "address",
          "name": "account",
          "type": "address"
        }
      ],
      "name": "Unpaused",
      "type": "event"
    },
    {
      "inputs": [],
      "name": "ConversionRate",
      "outputs": [
        {
          "internalType": "uint256",
          "name": "",
          "type": "uint256"
        }
      ],
      "stateMutability": "view",
      "type": "function",
      "constant": true
    },
    {
      "inputs": [],
      "name": "CyberCreditToken",
      "outputs": [
        {
          "internalType": "contract IERC20",
          "name": "",
          "type": "address"
        }
      ],
      "stateMutability": "view",
      "type": "function",
      "constant": true
    },
    {
      "inputs": [],
      "name": "MaxLengthPacketsVeGRB",
      "outputs": [
        {
          "internalType": "uint256",
          "name": "",
          "type": "uint256"
        }
      ],
      "stateMutability": "view",
      "type": "function",
      "constant": true
    },
    {
      "inputs": [
        {
          "internalType": "uint256",
          "name": "",
          "type": "uint256"
        }
      ],
      "name": "PacketsVeGRB",
      "outputs": [
        {
          "internalType": "uint256",
          "name": "",
          "type": "uint256"
        }
      ],
      "stateMutability": "view",
      "type": "function",
      "constant": true
    },
    {
      "inputs": [],
      "name": "WhiteList",
      "outputs": [
        {
          "internalType": "contract IWhiteList",
          "name": "",
          "type": "address"
        }
      ],
      "stateMutability": "view",
      "type": "function",
      "constant": true
    },
    {
      "inputs": [],
      "name": "owner",
      "outputs": [
        {
          "internalType": "address",
          "name": "",
          "type": "address"
        }
      ],
      "stateMutability": "view",
      "type": "function",
      "constant": true
    },
    {
      "inputs": [],
      "name": "paused",
      "outputs": [
        {
          "internalType": "bool",
          "name": "",
          "type": "bool"
        }
      ],
      "stateMutability": "view",
      "type": "function",
      "constant": true
    },
    {
      "inputs": [],
      "name": "renounceOwnership",
      "outputs": [],
      "stateMutability": "nonpayable",
      "type": "function"
    },
    {
      "inputs": [
        {
          "internalType": "address",
          "name": "newOwner",
          "type": "address"
        }
      ],
      "name": "transferOwnership",
      "outputs": [],
      "stateMutability": "nonpayable",
      "type": "function"
    },
    {
      "inputs": [],
      "name": "veGRBToken",
      "outputs": [
        {
          "internalType": "contract IERC20",
          "name": "",
          "type": "address"
        }
      ],
      "stateMutability": "view",
      "type": "function",
      "constant": true
    },
    {
      "inputs": [],
      "name": "PauseSystem",
      "outputs": [],
      "stateMutability": "nonpayable",
      "type": "function"
    },
    {
      "inputs": [],
      "name": "UnpauseSystem",
      "outputs": [],
      "stateMutability": "nonpayable",
      "type": "function"
    },
    {
      "inputs": [
        {
          "internalType": "contract IWhiteList",
          "name": "addressWhiteList",
          "type": "address"
        }
      ],
      "name": "SetWhiteListcontract",
      "outputs": [],
      "stateMutability": "nonpayable",
      "type": "function"
    },
    {
      "inputs": [
        {
          "internalType": "contract IERC20",
          "name": "cyberCreditTokenContract",
          "type": "address"
        }
      ],
      "name": "SetCyberCreditTokenContract",
      "outputs": [],
      "stateMutability": "nonpayable",
      "type": "function"
    },
    {
      "inputs": [
        {
          "internalType": "contract IERC20",
          "name": "veGRBTokenContract",
          "type": "address"
        }
      ],
      "name": "SetVeGRBTokenContract",
      "outputs": [],
      "stateMutability": "nonpayable",
      "type": "function"
    },
    {
      "inputs": [
        {
          "internalType": "uint256",
          "name": "value",
          "type": "uint256"
        }
      ],
      "name": "SetMaxLengthPacketsVeGRB",
      "outputs": [],
      "stateMutability": "nonpayable",
      "type": "function"
    },
    {
      "inputs": [
        {
          "internalType": "uint256",
          "name": "indexPacket",
          "type": "uint256"
        },
        {
          "internalType": "uint256",
          "name": "amountPacket",
          "type": "uint256"
        }
      ],
      "name": "SetAmountPacketsVeGRB",
      "outputs": [],
      "stateMutability": "nonpayable",
      "type": "function"
    },
    {
      "inputs": [
        {
          "internalType": "uint256",
          "name": "newConversionRate",
          "type": "uint256"
        }
      ],
      "name": "SetConversionRate",
      "outputs": [],
      "stateMutability": "nonpayable",
      "type": "function"
    },
    {
      "inputs": [
        {
          "internalType": "uint256",
          "name": "indexPacket",
          "type": "uint256"
        }
      ],
      "name": "BuyPacket",
      "outputs": [],
      "stateMutability": "nonpayable",
      "type": "function"
    },
    {
      "inputs": [],
      "name": "GetData",
      "outputs": [
        {
          "internalType": "uint256",
          "name": "balanceTreasury",
          "type": "uint256"
        },
        {
          "internalType": "uint256[]",
          "name": "amountPacket",
          "type": "uint256[]"
        }
      ],
      "stateMutability": "view",
      "type": "function",
      "constant": true
    }
  ],
  "bytecode": "0x608060405234801561001057600080fd5b50604051610ee3380380610ee383398101604081905261002f916101a4565b61003833610138565b6000805460ff60a01b19168155600280546001600160a01b039485166001600160a01b0319918216179091556003805493909416921691909117825561c000600655600480556005602052678ac7230489e800007f05b8ccbb9d4d8fb16ea74ce3c29a41f1b461fbdaff4714a0d9a8eb05499746bc556802b5e3af16b18800007f1471eb6eb2c5e789fc3de43f8ce62938c7d1836ec861730447e2ada8fd81017b5568056bc75e2d631000007f89832631fb3c3307a103ba2c84ab569c64d6182a18893dcd163f0f1c2090733a5552680ad78ebc5ac62000007fa9bc9a3a348c357ba16b37005d7e6b3236198c0e939f4af8c5f19b8deeb8ebc0556101d7565b600080546001600160a01b038381166001600160a01b0319831681178455604051919092169283917f8be0079c531659141344cd1fd0a4f28419497f9722a3daafe3b4186f6b6457e09190a35050565b80516001600160a01b038116811461019f57600080fd5b919050565b600080604083850312156101b757600080fd5b6101c083610188565b91506101ce60208401610188565b90509250929050565b610cfd806101e66000396000f3fe608060405234801561001057600080fd5b506004361061012c5760003560e01c80638da5cb5b116100ad578063c61f189d11610071578063c61f189d14610269578063cd221fb21461027c578063d3f922881461028f578063ee68d332146102a2578063f2fde38b146102aa57600080fd5b80638da5cb5b1461021657806395fce31e14610227578063b02108fd14610230578063b147f8a614610243578063c57158d11461025657600080fd5b806376b8e528116100f457806376b8e528146101a757806379dede4a146101bd578063812cbb7f146101dd57806382105bf6146101f0578063888602e41461020357600080fd5b80630c69b583146101315780634209f9ae1461013b57806348d43e50146101575780635c975abb14610182578063715018a61461019f575b600080fd5b6101396102bd565b005b61014460065481565b6040519081526020015b60405180910390f35b60035461016a906001600160a01b031681565b6040516001600160a01b03909116815260200161014e565b600054600160a01b900460ff16604051901515815260200161014e565b6101396102cf565b6101af6102e1565b60405161014e929190610b58565b6101446101cb366004610ba6565b60056020526000908152604090205481565b6101396101eb366004610bbf565b6103ee565b6101396101fe366004610ba6565b610408565b610139610211366004610ba6565b610415565b6000546001600160a01b031661016a565b61014460045481565b60025461016a906001600160a01b031681565b610139610251366004610ba6565b610850565b610139610264366004610bf6565b61085d565b610139610277366004610bf6565b610887565b61013961028a366004610bf6565b6108b1565b60015461016a906001600160a01b031681565b6101396108db565b6101396102b8366004610bf6565b6108eb565b6102c5610964565b6102cd6109be565b565b6102d7610964565b6102cd6000610a13565b6003546040516370a0823160e01b81523060048201526000916060916001600160a01b03909116906370a0823190602401602060405180830381865afa15801561032f573d6000803e3d6000fd5b505050506040513d601f19601f820116820180604052508101906103539190610c1a565b915060045467ffffffffffffffff81111561037057610370610c33565b604051908082528060200260200182016040528015610399578160200160208202803683370190505b50905060005b6004548110156103e95760008181526005602052604090205482518390839081106103cc576103cc610c49565b6020908102919091010152806103e181610c75565b91505061039f565b509091565b6103f6610964565b60009182526005602052604090912055565b610410610964565b600655565b61041d610a63565b3332146104da57600154604051636c9b2a3f60e11b81523360048201526001600160a01b039091169063d936547e90602401602060405180830381865afa15801561046c573d6000803e3d6000fd5b505050506040513d601f19601f820116820180604052508101906104909190610c8e565b15156001146104da5760405162461bcd60e51b81526020600482015260116024820152701a5b9d985b1a59081dda1a5d195b1a5cdd607a1b60448201526064015b60405180910390fd5b6004543390821061052d5760405162461bcd60e51b815260206004820152601f60248201527f4572726f72204275795061636b65743a20496e76616c6964205061636b65740060448201526064016104d1565b60008281526005602052604081205460065490919061054d908390610ab0565b6002546040516370a0823160e01b81526001600160a01b0386811660048301529293508392909116906370a0823190602401602060405180830381865afa15801561059c573d6000803e3d6000fd5b505050506040513d601f19601f820116820180604052508101906105c09190610c1a565b101561062d5760405162461bcd60e51b815260206004820152603660248201527f4572726f72204275795061636b65743a20496e76616c69642042616c616e63656044820152750810de58995c90dc99591a5d081a5b881dd85b1b195d60521b60648201526084016104d1565b6003546040516370a0823160e01b81523060048201526001600160a01b03909116906370a0823190602401602060405180830381865afa158015610675573d6000803e3d6000fd5b505050506040513d601f19601f820116820180604052508101906106999190610c1a565b8211156107035760405162461bcd60e51b815260206004820152603260248201527f4572726f72204275795061636b65743a20496e76616c69642042616c616e636560448201527120766547524220696e20547265617375727960701b60648201526084016104d1565b6002546040516323b872dd60e01b81526001600160a01b03858116600483015230602483015260448201849052909116906323b872dd906064016020604051808303816000875af115801561075c573d6000803e3d6000fd5b505050506040513d601f19601f820116820180604052508101906107809190610c8e565b5060035460405163a9059cbb60e01b81526001600160a01b038581166004830152602482018590529091169063a9059cbb906044016020604051808303816000875af11580156107d4573d6000803e3d6000fd5b505050506040513d601f19601f820116820180604052508101906107f89190610c8e565b50604080516001600160a01b038516815260208101869052908101829052606081018390527f48236fc80fdd7764f7ef30800f6688a14eaeadc6771b22cebb6c2cb491503c809060800160405180910390a150505050565b610858610964565b600455565b610865610964565b600280546001600160a01b0319166001600160a01b0392909216919091179055565b61088f610964565b600380546001600160a01b0319166001600160a01b0392909216919091179055565b6108b9610964565b600180546001600160a01b0319166001600160a01b0392909216919091179055565b6108e3610964565b6102cd610ac5565b6108f3610964565b6001600160a01b0381166109585760405162461bcd60e51b815260206004820152602660248201527f4f776e61626c653a206e6577206f776e657220697320746865207a65726f206160448201526564647265737360d01b60648201526084016104d1565b61096181610a13565b50565b6000546001600160a01b031633146102cd5760405162461bcd60e51b815260206004820181905260248201527f4f776e61626c653a2063616c6c6572206973206e6f7420746865206f776e657260448201526064016104d1565b6109c6610b08565b6000805460ff60a01b191690557f5db9ee0a495bf2e6ff9c91a7834c1ba4fdd244a5e8aa4e537bd38aeae4b073aa335b6040516001600160a01b03909116815260200160405180910390a1565b600080546001600160a01b038381166001600160a01b0319831681178455604051919092169283917f8be0079c531659141344cd1fd0a4f28419497f9722a3daafe3b4186f6b6457e09190a35050565b600054600160a01b900460ff16156102cd5760405162461bcd60e51b815260206004820152601060248201526f14185d5cd8589b194e881c185d5cd95960821b60448201526064016104d1565b6000610abc8284610cb0565b90505b92915050565b610acd610a63565b6000805460ff60a01b1916600160a01b1790557f62e78cea01bee320cd4e420270b5ea74000d11b0c9f74754ebdbfc544b05a2586109f63390565b600054600160a01b900460ff166102cd5760405162461bcd60e51b815260206004820152601460248201527314185d5cd8589b194e881b9bdd081c185d5cd95960621b60448201526064016104d1565b6000604082018483526020604081850152818551808452606086019150828701935060005b81811015610b9957845183529383019391830191600101610b7d565b5090979650505050505050565b600060208284031215610bb857600080fd5b5035919050565b60008060408385031215610bd257600080fd5b50508035926020909101359150565b6001600160a01b038116811461096157600080fd5b600060208284031215610c0857600080fd5b8135610c1381610be1565b9392505050565b600060208284031215610c2c57600080fd5b5051919050565b634e487b7160e01b600052604160045260246000fd5b634e487b7160e01b600052603260045260246000fd5b634e487b7160e01b600052601160045260246000fd5b600060018201610c8757610c87610c5f565b5060010190565b600060208284031215610ca057600080fd5b81518015158114610c1357600080fd5b8082028115828204841417610abf57610abf610c5f56fea2646970667358221220d54c7d5843d687f9ed9eed2cffbc0bf7cf3ba22e198da9ab7fcdad1ec1e9f6ad64736f6c63430008110033",
  "immutableReferences": {},
  "source": "// SPDX-License-Identifier: MIT\npragma solidity ^0.8.0;\n\nimport \"./interfaces/IWhiteList.sol\";\n\nimport \"@openzeppelin/contracts/token/ERC20/IERC20.sol\";\nimport \"@openzeppelin/contracts/utils/math/SafeMath.sol\";\nimport \"@openzeppelin/contracts/access/Ownable.sol\";\nimport \"@openzeppelin/contracts/security/Pausable.sol\";\n\ncontract Treasury is Ownable, Pausable\n{\n    using SafeMath for uint256;\n\n    IWhiteList public WhiteList;\n    IERC20 public CyberCreditToken;\n    IERC20 public veGRBToken;\n\n    uint256 public MaxLengthPacketsVeGRB;\n    mapping(uint256 => uint256) public PacketsVeGRB;\n\n    uint256 public ConversionRate;\n\n    event OnBuyPacket(address user, uint256 indexPacket, uint256 amountTokenInputput, uint256 amountTokenOutput);\n\n    constructor(IERC20 cyberCreditTokenContract, IERC20 veGRBTokenContract)\n    {\n        CyberCreditToken = cyberCreditTokenContract;\n        veGRBToken = veGRBTokenContract;\n\n        //test\n        ConversionRate = 49152;      // 1 veGRB = 49152 cc\n\n        MaxLengthPacketsVeGRB  = 4;\n        PacketsVeGRB[0] = 10e18;\n        PacketsVeGRB[1] = 50e18;\n        PacketsVeGRB[2] = 100e18;\n        PacketsVeGRB[3] = 200e18;\n\n    }\n\n    modifier onlyWhiteList()\n    {\n        if(msg.sender != tx.origin)\n        {\n            require(WhiteList.whitelisted(msg.sender) == true, \"invalid whitelist\");\n        }\n        _;\n    }\n\n    function PauseSystem() public onlyOwner \n    {\n        _pause();\n    }\n\n    function UnpauseSystem() public onlyOwner\n    {\n        _unpause();\n    }\n\n    function SetWhiteListcontract(IWhiteList addressWhiteList) public onlyOwner \n    {\n        WhiteList = addressWhiteList;\n    }\n\n    function SetCyberCreditTokenContract(IERC20 cyberCreditTokenContract) public onlyOwner \n    {\n        CyberCreditToken = cyberCreditTokenContract;\n    }\n\n    function SetVeGRBTokenContract(IERC20 veGRBTokenContract) public onlyOwner\n    {\n        veGRBToken = veGRBTokenContract;\n    }\n\n    function SetMaxLengthPacketsVeGRB(uint256 value) public onlyOwner \n    {\n        MaxLengthPacketsVeGRB = value;\n    }\n\n    function SetAmountPacketsVeGRB(uint256 indexPacket, uint256 amountPacket) public onlyOwner \n    {\n        PacketsVeGRB[indexPacket] = amountPacket;\n    }\n\n    function SetConversionRate(uint256 newConversionRate) public onlyOwner\n    {\n        ConversionRate = newConversionRate;\n    }\n\n    function BuyPacket(uint256 indexPacket) public whenNotPaused onlyWhiteList\n    {\n        address user = _msgSender();\n        require(indexPacket >= 0 && indexPacket < MaxLengthPacketsVeGRB, \"Error BuyPacket: Invalid Packet\");\n\n        uint256 amountTokenOutput = PacketsVeGRB[indexPacket];\n        uint256 amountTokenInput = amountTokenOutput.mul(ConversionRate);\n\n        require(CyberCreditToken.balanceOf(user) >= amountTokenInput, \"Error BuyPacket: Invalid Balance CyberCredit in wallet\");\n        require(amountTokenOutput <= veGRBToken.balanceOf(address(this)),  \"Error BuyPacket: Invalid Balance veGRB in Treasury\");\n\n        CyberCreditToken.transferFrom(user, address(this), amountTokenInput);\n\n        veGRBToken.transfer(user, amountTokenOutput);\n\n        emit OnBuyPacket(user, indexPacket, amountTokenInput, amountTokenOutput);\n    }\n\n    function GetData() public view returns(uint256 balanceTreasury, uint256[] memory amountPacket)\n    {\n        balanceTreasury = veGRBToken.balanceOf(address(this));\n        amountPacket = new uint256[](MaxLengthPacketsVeGRB);\n\n        for(uint256 indexPacket = 0; indexPacket < MaxLengthPacketsVeGRB; indexPacket++)\n        {\n            amountPacket[indexPacket] = PacketsVeGRB[indexPacket];\n        }\n    }\n\n}",
  "sourcePath": "/Applications/projects/pixil-saga-contracts/contracts/Treasury.sol",
  "compiler": {
    "name": "solc",
    "version": "0.8.17+commit.8df45f5f.Emscripten.clang"
  },
  "schemaVersion": "3.4.11",
  "updatedAt": "2023-04-27T05:07:57.785Z",
  "networkType": "ethereum",
  "devdoc": {
    "kind": "dev",
    "methods": {
      "owner()": {
        "details": "Returns the address of the current owner."
      },
      "paused()": {
        "details": "Returns true if the contract is paused, and false otherwise."
      },
      "renounceOwnership()": {
        "details": "Leaves the contract without owner. It will not be possible to call `onlyOwner` functions anymore. Can only be called by the current owner. NOTE: Renouncing ownership will leave the contract without an owner, thereby removing any functionality that is only available to the owner."
      },
      "transferOwnership(address)": {
        "details": "Transfers ownership of the contract to a new account (`newOwner`). Can only be called by the current owner."
      }
    },
    "version": 1
  },
  "userdoc": {
    "kind": "user",
    "methods": {},
    "version": 1
  }
}