{
  "contractName": "Treasury",
  "abi": [
    {
      "inputs": [
        {
          "internalType": "contract IERC20",
          "name": "cyberCreditTokenContract",
          "type": "address"
        },
        {
          "internalType": "contract IERC20",
          "name": "veGRBTokenContract",
          "type": "address"
        }
      ],
      "stateMutability": "nonpayable",
      "type": "constructor"
    },
    {
      "anonymous": false,
      "inputs": [
        {
          "indexed": false,
          "internalType": "address",
          "name": "user",
          "type": "address"
        },
        {
          "indexed": false,
          "internalType": "uint256",
          "name": "indexPacket",
          "type": "uint256"
        },
        {
          "indexed": false,
          "internalType": "uint256",
          "name": "amountTokenInputput",
          "type": "uint256"
        },
        {
          "indexed": false,
          "internalType": "uint256",
          "name": "amountTokenOutput",
          "type": "uint256"
        }
      ],
      "name": "OnBuyPacket",
      "type": "event"
    },
    {
      "anonymous": false,
      "inputs": [
        {
          "indexed": true,
          "internalType": "address",
          "name": "previousOwner",
          "type": "address"
        },
        {
          "indexed": true,
          "internalType": "address",
          "name": "newOwner",
          "type": "address"
        }
      ],
      "name": "OwnershipTransferred",
      "type": "event"
    },
    {
      "anonymous": false,
      "inputs": [
        {
          "indexed": false,
          "internalType": "address",
          "name": "account",
          "type": "address"
        }
      ],
      "name": "Paused",
      "type": "event"
    },
    {
      "anonymous": false,
      "inputs": [
        {
          "indexed": false,
          "internalType": "address",
          "name": "account",
          "type": "address"
        }
      ],
      "name": "Unpaused",
      "type": "event"
    },
    {
      "inputs": [],
      "name": "ConversionRate",
      "outputs": [
        {
          "internalType": "uint256",
          "name": "",
          "type": "uint256"
        }
      ],
      "stateMutability": "view",
      "type": "function",
      "constant": true
    },
    {
      "inputs": [],
      "name": "CyberCreditToken",
      "outputs": [
        {
          "internalType": "contract IERC20",
          "name": "",
          "type": "address"
        }
      ],
      "stateMutability": "view",
      "type": "function",
      "constant": true
    },
    {
      "inputs": [],
      "name": "MaxLengthPacketsVeGRB",
      "outputs": [
        {
          "internalType": "uint256",
          "name": "",
          "type": "uint256"
        }
      ],
      "stateMutability": "view",
      "type": "function",
      "constant": true
    },
    {
      "inputs": [
        {
          "internalType": "uint256",
          "name": "",
          "type": "uint256"
        }
      ],
      "name": "PacketsVeGRB",
      "outputs": [
        {
          "internalType": "uint256",
          "name": "",
          "type": "uint256"
        }
      ],
      "stateMutability": "view",
      "type": "function",
      "constant": true
    },
    {
      "inputs": [],
      "name": "owner",
      "outputs": [
        {
          "internalType": "address",
          "name": "",
          "type": "address"
        }
      ],
      "stateMutability": "view",
      "type": "function",
      "constant": true
    },
    {
      "inputs": [],
      "name": "paused",
      "outputs": [
        {
          "internalType": "bool",
          "name": "",
          "type": "bool"
        }
      ],
      "stateMutability": "view",
      "type": "function",
      "constant": true
    },
    {
      "inputs": [],
      "name": "renounceOwnership",
      "outputs": [],
      "stateMutability": "nonpayable",
      "type": "function"
    },
    {
      "inputs": [
        {
          "internalType": "address",
          "name": "newOwner",
          "type": "address"
        }
      ],
      "name": "transferOwnership",
      "outputs": [],
      "stateMutability": "nonpayable",
      "type": "function"
    },
    {
      "inputs": [],
      "name": "veGRBToken",
      "outputs": [
        {
          "internalType": "contract IERC20",
          "name": "",
          "type": "address"
        }
      ],
      "stateMutability": "view",
      "type": "function",
      "constant": true
    },
    {
      "inputs": [],
      "name": "PauseSystem",
      "outputs": [],
      "stateMutability": "nonpayable",
      "type": "function"
    },
    {
      "inputs": [],
      "name": "UnpauseSystem",
      "outputs": [],
      "stateMutability": "nonpayable",
      "type": "function"
    },
    {
      "inputs": [
        {
          "internalType": "contract IERC20",
          "name": "cyberCreditTokenContract",
          "type": "address"
        }
      ],
      "name": "SetCyberCreditTokenContract",
      "outputs": [],
      "stateMutability": "nonpayable",
      "type": "function"
    },
    {
      "inputs": [
        {
          "internalType": "contract IERC20",
          "name": "veGRBTokenContract",
          "type": "address"
        }
      ],
      "name": "SetVeGRBTokenContract",
      "outputs": [],
      "stateMutability": "nonpayable",
      "type": "function"
    },
    {
      "inputs": [
        {
          "internalType": "uint256",
          "name": "value",
          "type": "uint256"
        }
      ],
      "name": "SetMaxLengthPacketsVeGRB",
      "outputs": [],
      "stateMutability": "nonpayable",
      "type": "function"
    },
    {
      "inputs": [
        {
          "internalType": "uint256",
          "name": "indexPacket",
          "type": "uint256"
        },
        {
          "internalType": "uint256",
          "name": "amountPacket",
          "type": "uint256"
        }
      ],
      "name": "SetAmountPacketsVeGRB",
      "outputs": [],
      "stateMutability": "nonpayable",
      "type": "function"
    },
    {
      "inputs": [
        {
          "internalType": "uint256",
          "name": "newConversionRate",
          "type": "uint256"
        }
      ],
      "name": "SetConversionRate",
      "outputs": [],
      "stateMutability": "nonpayable",
      "type": "function"
    },
    {
      "inputs": [
        {
          "internalType": "uint256",
          "name": "indexPacket",
          "type": "uint256"
        }
      ],
      "name": "BuyPacket",
      "outputs": [],
      "stateMutability": "nonpayable",
      "type": "function"
    },
    {
      "inputs": [],
      "name": "GetData",
      "outputs": [
        {
          "internalType": "uint256",
          "name": "balanceTreasury",
          "type": "uint256"
        },
        {
          "internalType": "uint256[]",
          "name": "amountPacket",
          "type": "uint256[]"
        }
      ],
      "stateMutability": "view",
      "type": "function",
      "constant": true
    }
  ],
  "bytecode": "0x608060405234801561001057600080fd5b50604051610dcb380380610dcb83398101604081905261002f916101aa565b6100383361013e565b6000805460ff60a01b19168155600180546001600160a01b039485166001600160a01b031991821617909155600280549390941692169190911790915561c00060055560046003818155602091909152678ac7230489e800007f17ef568e3e12ab5b9c7254a8d58478811de00f9e6eb34345acd53bf8fd09d3ec556802b5e3af16b18800007fabd6e7cb50984ff9c2f3e18a2660c3353dadf4e3291deeb275dae2cd1e44fe055568056bc75e2d631000007f91da3fd0782e51c6b3986e9e672fd566868e71f3dbc2d6c2cd6fbb3e361af2a7559052680ad78ebc5ac62000007f2e174c10e159ea99b867ce3205125c24a42d128804e4070ed6fcc8cc98166aa0556101dd565b600080546001600160a01b038381166001600160a01b0319831681178455604051919092169283917f8be0079c531659141344cd1fd0a4f28419497f9722a3daafe3b4186f6b6457e09190a35050565b80516001600160a01b03811681146101a557600080fd5b919050565b600080604083850312156101bd57600080fd5b6101c68361018e565b91506101d46020840161018e565b90509250929050565b610bdf806101ec6000396000f3fe608060405234801561001057600080fd5b50600436106101165760003560e01c8063888602e4116100a2578063b147f8a611610071578063b147f8a61461022d578063c57158d114610240578063c61f189d14610253578063ee68d33214610266578063f2fde38b1461026e57600080fd5b8063888602e4146101ed5780638da5cb5b1461020057806395fce31e14610211578063b02108fd1461021a57600080fd5b8063715018a6116100e9578063715018a61461018957806376b8e5281461019157806379dede4a146101a7578063812cbb7f146101c757806382105bf6146101da57600080fd5b80630c69b5831461011b5780634209f9ae1461012557806348d43e50146101415780635c975abb1461016c575b600080fd5b610123610281565b005b61012e60055481565b6040519081526020015b60405180910390f35b600254610154906001600160a01b031681565b6040516001600160a01b039091168152602001610138565b600054600160a01b900460ff166040519015158152602001610138565b610123610293565b6101996102a5565b604051610138929190610a3a565b61012e6101b5366004610a88565b60046020526000908152604090205481565b6101236101d5366004610aa1565b6103b2565b6101236101e8366004610a88565b6103cc565b6101236101fb366004610a88565b6103d9565b6000546001600160a01b0316610154565b61012e60035481565b600154610154906001600160a01b031681565b61012361023b366004610a88565b61075c565b61012361024e366004610ad8565b610769565b610123610261366004610ad8565b610793565b6101236107bd565b61012361027c366004610ad8565b6107cd565b610289610846565b6102916108a0565b565b61029b610846565b61029160006108f5565b6002546040516370a0823160e01b81523060048201526000916060916001600160a01b03909116906370a0823190602401602060405180830381865afa1580156102f3573d6000803e3d6000fd5b505050506040513d601f19601f820116820180604052508101906103179190610afc565b915060035467ffffffffffffffff81111561033457610334610b15565b60405190808252806020026020018201604052801561035d578160200160208202803683370190505b50905060005b6003548110156103ad57600081815260046020526040902054825183908390811061039057610390610b2b565b6020908102919091010152806103a581610b57565b915050610363565b509091565b6103ba610846565b60009182526004602052604090912055565b6103d4610846565b600555565b6103e1610945565b600354339082106104395760405162461bcd60e51b815260206004820152601f60248201527f4572726f72204275795061636b65743a20496e76616c6964205061636b65740060448201526064015b60405180910390fd5b600082815260046020526040812054600554909190610459908390610992565b6001546040516370a0823160e01b81526001600160a01b0386811660048301529293508392909116906370a0823190602401602060405180830381865afa1580156104a8573d6000803e3d6000fd5b505050506040513d601f19601f820116820180604052508101906104cc9190610afc565b10156105395760405162461bcd60e51b815260206004820152603660248201527f4572726f72204275795061636b65743a20496e76616c69642042616c616e63656044820152750810de58995c90dc99591a5d081a5b881dd85b1b195d60521b6064820152608401610430565b6002546040516370a0823160e01b81523060048201526001600160a01b03909116906370a0823190602401602060405180830381865afa158015610581573d6000803e3d6000fd5b505050506040513d601f19601f820116820180604052508101906105a59190610afc565b82111561060f5760405162461bcd60e51b815260206004820152603260248201527f4572726f72204275795061636b65743a20496e76616c69642042616c616e636560448201527120766547524220696e20547265617375727960701b6064820152608401610430565b6001546040516323b872dd60e01b81526001600160a01b03858116600483015230602483015260448201849052909116906323b872dd906064016020604051808303816000875af1158015610668573d6000803e3d6000fd5b505050506040513d601f19601f8201168201806040525081019061068c9190610b70565b5060025460405163a9059cbb60e01b81526001600160a01b038581166004830152602482018590529091169063a9059cbb906044016020604051808303816000875af11580156106e0573d6000803e3d6000fd5b505050506040513d601f19601f820116820180604052508101906107049190610b70565b50604080516001600160a01b038516815260208101869052908101829052606081018390527f48236fc80fdd7764f7ef30800f6688a14eaeadc6771b22cebb6c2cb491503c809060800160405180910390a150505050565b610764610846565b600355565b610771610846565b600180546001600160a01b0319166001600160a01b0392909216919091179055565b61079b610846565b600280546001600160a01b0319166001600160a01b0392909216919091179055565b6107c5610846565b6102916109a7565b6107d5610846565b6001600160a01b03811661083a5760405162461bcd60e51b815260206004820152602660248201527f4f776e61626c653a206e6577206f776e657220697320746865207a65726f206160448201526564647265737360d01b6064820152608401610430565b610843816108f5565b50565b6000546001600160a01b031633146102915760405162461bcd60e51b815260206004820181905260248201527f4f776e61626c653a2063616c6c6572206973206e6f7420746865206f776e65726044820152606401610430565b6108a86109ea565b6000805460ff60a01b191690557f5db9ee0a495bf2e6ff9c91a7834c1ba4fdd244a5e8aa4e537bd38aeae4b073aa335b6040516001600160a01b03909116815260200160405180910390a1565b600080546001600160a01b038381166001600160a01b0319831681178455604051919092169283917f8be0079c531659141344cd1fd0a4f28419497f9722a3daafe3b4186f6b6457e09190a35050565b600054600160a01b900460ff16156102915760405162461bcd60e51b815260206004820152601060248201526f14185d5cd8589b194e881c185d5cd95960821b6044820152606401610430565b600061099e8284610b92565b90505b92915050565b6109af610945565b6000805460ff60a01b1916600160a01b1790557f62e78cea01bee320cd4e420270b5ea74000d11b0c9f74754ebdbfc544b05a2586108d83390565b600054600160a01b900460ff166102915760405162461bcd60e51b815260206004820152601460248201527314185d5cd8589b194e881b9bdd081c185d5cd95960621b6044820152606401610430565b6000604082018483526020604081850152818551808452606086019150828701935060005b81811015610a7b57845183529383019391830191600101610a5f565b5090979650505050505050565b600060208284031215610a9a57600080fd5b5035919050565b60008060408385031215610ab457600080fd5b50508035926020909101359150565b6001600160a01b038116811461084357600080fd5b600060208284031215610aea57600080fd5b8135610af581610ac3565b9392505050565b600060208284031215610b0e57600080fd5b5051919050565b634e487b7160e01b600052604160045260246000fd5b634e487b7160e01b600052603260045260246000fd5b634e487b7160e01b600052601160045260246000fd5b600060018201610b6957610b69610b41565b5060010190565b600060208284031215610b8257600080fd5b81518015158114610af557600080fd5b80820281158282048414176109a1576109a1610b4156fea2646970667358221220501d54f1fe6708e84ceafbd625a4b86305299d0bd65eb287ba664bd9cd549d7464736f6c63430008110033",
  "immutableReferences": {},
  "source": "// SPDX-License-Identifier: MIT\npragma solidity ^0.8.0;\n\nimport \"@openzeppelin/contracts/token/ERC20/IERC20.sol\";\nimport \"@openzeppelin/contracts/utils/math/SafeMath.sol\";\nimport \"@openzeppelin/contracts/access/Ownable.sol\";\nimport \"@openzeppelin/contracts/security/Pausable.sol\";\n\ncontract Treasury is Ownable, Pausable\n{\n    using SafeMath for uint256;\n\n    IERC20 public CyberCreditToken;\n    IERC20 public veGRBToken;\n\n    uint256 public MaxLengthPacketsVeGRB;\n    mapping(uint256 => uint256) public PacketsVeGRB;\n\n    uint256 public ConversionRate;\n\n    event OnBuyPacket(address user, uint256 indexPacket, uint256 amountTokenInputput, uint256 amountTokenOutput);\n\n    constructor(IERC20 cyberCreditTokenContract, IERC20 veGRBTokenContract)\n    {\n        CyberCreditToken = cyberCreditTokenContract;\n        veGRBToken = veGRBTokenContract;\n\n        //test\n        ConversionRate = 49152;      // 1 veGRB = 49152 cc\n\n        MaxLengthPacketsVeGRB  = 4;\n        PacketsVeGRB[0] = 10e18;\n        PacketsVeGRB[1] = 50e18;\n        PacketsVeGRB[2] = 100e18;\n        PacketsVeGRB[3] = 200e18;\n\n    }\n\n    function PauseSystem() public onlyOwner \n    {\n        _pause();\n    }\n\n    function UnpauseSystem() public onlyOwner\n    {\n        _unpause();\n    }\n\n    function SetCyberCreditTokenContract(IERC20 cyberCreditTokenContract) public onlyOwner \n    {\n        CyberCreditToken = cyberCreditTokenContract;\n    }\n\n    function SetVeGRBTokenContract(IERC20 veGRBTokenContract) public onlyOwner\n    {\n        veGRBToken = veGRBTokenContract;\n    }\n\n    function SetMaxLengthPacketsVeGRB(uint256 value) public onlyOwner \n    {\n        MaxLengthPacketsVeGRB = value;\n    }\n\n    function SetAmountPacketsVeGRB(uint256 indexPacket, uint256 amountPacket) public onlyOwner \n    {\n        PacketsVeGRB[indexPacket] = amountPacket;\n    }\n\n    function SetConversionRate(uint256 newConversionRate) public onlyOwner\n    {\n        ConversionRate = newConversionRate;\n    }\n\n    function BuyPacket(uint256 indexPacket) public whenNotPaused\n    {\n        address user = _msgSender();\n        require(indexPacket < MaxLengthPacketsVeGRB, \"Error BuyPacket: Invalid Packet\");\n\n        uint256 amountTokenOutput = PacketsVeGRB[indexPacket];\n        uint256 amountTokenInput = amountTokenOutput.mul(ConversionRate);\n\n        require(CyberCreditToken.balanceOf(user) >= amountTokenInput, \"Error BuyPacket: Invalid Balance CyberCredit in wallet\");\n        require(amountTokenOutput <= veGRBToken.balanceOf(address(this)),  \"Error BuyPacket: Invalid Balance veGRB in Treasury\");\n\n        CyberCreditToken.transferFrom(user, address(this), amountTokenInput);\n\n        veGRBToken.transfer(user, amountTokenOutput);\n\n        emit OnBuyPacket(user, indexPacket, amountTokenInput, amountTokenOutput);\n    }\n\n    function GetData() public view returns(uint256 balanceTreasury, uint256[] memory amountPacket)\n    {\n        balanceTreasury = veGRBToken.balanceOf(address(this));\n        amountPacket = new uint256[](MaxLengthPacketsVeGRB);\n\n        for(uint256 indexPacket = 0; indexPacket < MaxLengthPacketsVeGRB; indexPacket++)\n        {\n            amountPacket[indexPacket] = PacketsVeGRB[indexPacket];\n        }\n    }\n\n}",
  "sourcePath": "/Applications/projects/garbi-contracts/contracts/Treasury.sol",
  "compiler": {
    "name": "solc",
    "version": "0.8.17+commit.8df45f5f.Emscripten.clang"
  },
  "schemaVersion": "3.4.11",
  "updatedAt": "2023-04-14T04:17:14.945Z",
  "networkType": "ethereum",
  "devdoc": {
    "kind": "dev",
    "methods": {
      "owner()": {
        "details": "Returns the address of the current owner."
      },
      "paused()": {
        "details": "Returns true if the contract is paused, and false otherwise."
      },
      "renounceOwnership()": {
        "details": "Leaves the contract without owner. It will not be possible to call `onlyOwner` functions anymore. Can only be called by the current owner. NOTE: Renouncing ownership will leave the contract without an owner, thereby removing any functionality that is only available to the owner."
      },
      "transferOwnership(address)": {
        "details": "Transfers ownership of the contract to a new account (`newOwner`). Can only be called by the current owner."
      }
    },
    "version": 1
  },
  "userdoc": {
    "kind": "user",
    "methods": {},
    "version": 1
  }
}